{
  "contractName": "Anchor",
  "abi": [
    {
      "anonymous": false,
      "inputs": [
        {
          "indexed": false,
          "internalType": "uint256",
          "name": "_blockNumber",
          "type": "uint256"
        },
        {
          "indexed": false,
          "internalType": "bytes32",
          "name": "_stateRoot",
          "type": "bytes32"
        }
      ],
      "name": "StateRootAvailable",
      "type": "event"
    },
    {
      "constant": true,
      "inputs": [],
      "name": "consensus",
      "outputs": [
        {
          "internalType": "contract ConsensusInterface",
          "name": "",
          "type": "address"
        }
      ],
      "payable": false,
      "stateMutability": "view",
      "type": "function"
    },
    {
      "constant": true,
      "inputs": [],
      "name": "getLatestStateRootBlockNumber",
      "outputs": [
        {
          "internalType": "uint256",
          "name": "blockNumber_",
          "type": "uint256"
        }
      ],
      "payable": false,
      "stateMutability": "view",
      "type": "function"
    },
    {
      "constant": true,
      "inputs": [
        {
          "internalType": "uint256",
          "name": "_blockNumber",
          "type": "uint256"
        }
      ],
      "name": "getStateRoot",
      "outputs": [
        {
          "internalType": "bytes32",
          "name": "stateRoot_",
          "type": "bytes32"
        }
      ],
      "payable": false,
      "stateMutability": "view",
      "type": "function"
    },
    {
      "constant": false,
      "inputs": [
        {
          "internalType": "uint256",
          "name": "_maxStateRoots",
          "type": "uint256"
        },
        {
          "internalType": "contract ConsensusInterface",
          "name": "_consensus",
          "type": "address"
        }
      ],
      "name": "setup",
      "outputs": [],
      "payable": false,
      "stateMutability": "nonpayable",
      "type": "function"
    },
    {
      "constant": false,
      "inputs": [
        {
          "internalType": "uint256",
          "name": "_blockNumber",
          "type": "uint256"
        },
        {
          "internalType": "bytes32",
          "name": "_stateRoot",
          "type": "bytes32"
        }
      ],
      "name": "anchorStateRoot",
      "outputs": [],
      "payable": false,
      "stateMutability": "nonpayable",
      "type": "function"
    }
  ],
  "bytecode": "0x608060405234801561001057600080fd5b5061062f806100206000396000f3fe608060405234801561001057600080fd5b50600436106100575760003560e01c8063396aaac61461005c5780635cf12c781461008a5780635e3703bd146100ad5780638ef3f761146100c7578063c3801938146100eb575b600080fd5b6100886004803603604081101561007257600080fd5b50803590602001356001600160a01b0316610108565b005b610088600480360360408110156100a057600080fd5b508035906020013561011e565b6100b5610171565b60408051918252519081900360200190f35b6100cf610180565b604080516001600160a01b039092168252519081900360200190f35b6100b56004803603602081101561010157600080fd5b503561018f565b610111816101a1565b61011a82610250565b5050565b6001546001600160a01b031633146101675760405162461bcd60e51b81526004018080602001828103825260338152602001806105546033913960400191505060405180910390fd5b61011a828261025c565b600061017b610362565b905090565b6001546001600160a01b031681565b60009081526004602052604090205490565b6001546001600160a01b0316156101e95760405162461bcd60e51b81526004018080602001828103825260258152602001806104bb6025913960400191505060405180910390fd5b6001600160a01b03811661022e5760405162461bcd60e51b81526004018080602001828103825260238152602001806105316023913960400191505060405180910390fd5b600180546001600160a01b0319166001600160a01b0392909216919091179055565b61025981610383565b50565b806102ae576040805162461bcd60e51b815260206004820152601c60248201527f537461746520726f6f74206d757374206e6f74206265207a65726f2e00000000604482015290519081900360640190fd5b6102b6610362565b82116102f35760405162461bcd60e51b81526004018080602001828103825260518152602001806104e06051913960600191505060405180910390fd5b600082815260046020526040812082905561030d8361040d565b600081815260046020908152604080832092909255815186815290810185905281519293507f0a57f5c610ae4bcec0e406f2d350ddffa2fb3628fed5da3d7dac3a3c1cdb66c2929081900390910190a1505050565b600060026003548154811061037357fe5b9060005260206000200154905090565b600081116103c25760405162461bcd60e51b815260040180806020018281038252604d8152602001806105ae604d913960600191505060405180910390fd5b600254156104015760405162461bcd60e51b81526004018080602001828103825260278152602001806105876027913960400191505060405180910390fd5b8061011a600282610470565b6000610417610454565b60026003548154811061042657fe5b906000526020600020015490508160026003548154811061044357fe5b600091825260209091200155919050565b6003805460010190819055600254141561046e5760006003555b565b81548183558181111561049457600083815260209020610494918101908301610499565b505050565b6104b791905b808211156104b3576000815560010161049f565b5090565b9056fe436f6e73656e737573206164647265737320697320616c72656164792070726573656e742e476976656e20626c6f636b206e756d626572206973206c6f776572206f7220657175616c20746f206869676865737420616e63686f72656420737461746520726f6f7420626c6f636b206e756d6265722e436f6e73656e7375732061646472657373206d757374206e6f74206265206e756c6c2e4f6e6c792074686520636f6e73656e73757320636f6e74726163742063616e2063616c6c20746869732066756e6374696f6e2e43697263756c6172206275666665722073697a652063616e206265207365747570206f6e63652e546865206d6178206e756d626572206f66206974656d7320746f2073746f726520696e20612063697263756c617220627566666572206d7573742062652067726561746572207468616e20302ea265627a7a7231582082383c7f50128ffe86a5a650e777b6e34ca9b8443d35fdff778adae9cae4ad8364736f6c634300050d0032",
  "source": "pragma solidity >=0.5.0 <0.6.0;\n\n// Copyright 2019 OpenST Ltd.\n//\n// Licensed under the Apache License, Version 2.0 (the \"License\");\n// you may not use this file except in compliance with the License.\n// You may obtain a copy of the License at\n//\n//    http://www.apache.org/licenses/LICENSE-2.0\n//\n// Unless required by applicable law or agreed to in writing, software\n// distributed under the License is distributed on an \"AS IS\" BASIS,\n// WITHOUT WARRANTIES OR CONDITIONS OF ANY KIND, either express or implied.\n// See the License for the specific language governing permissions and\n// limitations under the License.\n\nimport \"../anchor/StateRootProvider.sol\";\nimport \"../consensus/ConsensusModule.sol\";\nimport \"../proxies/MasterCopyNonUpgradable.sol\";\n\n/**\n * @title Anchor contract to store the state roots.\n *\n * @notice Anchor stores auxiliary chain's state roots. This contract is a consensus module\n *         and the anchoring of the state root can only be done be consensus contract.\n */\ncontract Anchor is MasterCopyNonUpgradable, ConsensusModule, StateRootProvider {\n\n    /* External Functions */\n\n    /**\n     * @notice Setup function for anchor.\n     *\n     * @dev This function must be called only once. This check is done in setupConsensus\n     *      function of ConsensusModule.\n     *\n     * @param _maxStateRoots The max number of state roots to store in the\n     *                       circular buffer.\n     * @param _consensus A consensus contract  address.\n     */\n    function setup(\n        uint256 _maxStateRoots,\n        ConsensusInterface _consensus\n    )\n        external\n    {\n        ConsensusModule.setupConsensus(_consensus);\n        StateRootProvider.setup(_maxStateRoots);\n    }\n\n    /**\n     * @notice Anchor the state root for an (increasing) block number.\n     *\n     * @dev  Function requires:\n     *          - Only consensus contract address can call this function.\n     *\n     * @param _blockNumber Block number for which state root needs to\n     *                      update.\n     * @param _stateRoot State root of input block number.\n     */\n    function anchorStateRoot(\n        uint256 _blockNumber,\n        bytes32 _stateRoot\n    )\n        external\n        onlyConsensus\n    {\n        StateRootProvider.anchorStateRootInternal(_blockNumber, _stateRoot);\n    }\n}\n",
  "sourcePath": "/Users/abhay/Documents/projects/abhayforks/mosaic-1/contracts/anchor/Anchor.sol",
  "compiler": {
    "name": "solc",
    "version": "0.5.13+commit.5b0b510c.Emscripten.clang"
  },
  "schemaVersion": "3.0.17",
  "updatedAt": "2020-03-21T06:48:34.589Z",
  "devdoc": {
    "methods": {
      "anchorStateRoot(uint256,bytes32)": {
        "details": "Function requires:         - Only consensus contract address can call this function.",
        "params": {
          "_blockNumber": "Block number for which state root needs to                     update.",
          "_stateRoot": "State root of input block number."
        }
      },
      "getLatestStateRootBlockNumber()": {
        "return": "uint256 Block number of the latest anchored state root."
      },
      "getStateRoot(uint256)": {
        "params": {
          "_blockNumber": "The block number for which the state root is needed."
        },
        "return": "bytes32 State root of the given number."
      },
      "setup(uint256,address)": {
        "details": "This function must be called only once. This check is done in setupConsensus     function of ConsensusModule.",
        "params": {
          "_consensus": "A consensus contract  address.",
          "_maxStateRoots": "The max number of state roots to store in the                      circular buffer."
        }
      }
    },
    "title": "Anchor contract to store the state roots."
  },
  "userdoc": {
    "methods": {
      "anchorStateRoot(uint256,bytes32)": {
        "notice": "Anchor the state root for an (increasing) block number."
      },
      "getLatestStateRootBlockNumber()": {
        "notice": "Gets the block number of latest anchored state root."
      },
      "getStateRoot(uint256)": {
        "notice": "Get the state root for the given block number."
      },
      "setup(uint256,address)": {
        "notice": "Setup function for anchor."
      }
    },
    "notice": "Anchor stores auxiliary chain's state roots. This contract is a consensus module        and the anchoring of the state root can only be done be consensus contract."
  }
}