{
  "contractName": "Axiom",
  "abi": [
    {
      "inputs": [
        {
          "internalType": "address",
          "name": "_techGov",
          "type": "address"
        },
        {
          "internalType": "address",
          "name": "_consensusMasterCopy",
          "type": "address"
        },
        {
          "internalType": "address",
          "name": "_coreMasterCopy",
          "type": "address"
        },
        {
          "internalType": "address",
          "name": "_committeeMasterCopy",
          "type": "address"
        },
        {
          "internalType": "address",
          "name": "_reputationMasterCopy",
          "type": "address"
        },
        {
          "internalType": "address",
          "name": "_anchorMasterCopy",
          "type": "address"
        },
        {
          "internalType": "address",
          "name": "_consensusGatewayMasterCopy",
          "type": "address"
        }
      ],
      "payable": false,
      "stateMutability": "nonpayable",
      "type": "constructor"
    },
    {
      "anonymous": false,
      "inputs": [
        {
          "indexed": false,
          "internalType": "bytes32",
          "name": "metachainId",
          "type": "bytes32"
        },
        {
          "indexed": false,
          "internalType": "address",
          "name": "anchor",
          "type": "address"
        },
        {
          "indexed": false,
          "internalType": "string",
          "name": "mosaicVersion",
          "type": "string"
        },
        {
          "indexed": false,
          "internalType": "address",
          "name": "consensusGateway",
          "type": "address"
        }
      ],
      "name": "MetachainCreated",
      "type": "event"
    },
    {
      "anonymous": false,
      "inputs": [
        {
          "indexed": false,
          "internalType": "contract Proxy",
          "name": "proxy",
          "type": "address"
        }
      ],
      "name": "ProxyCreation",
      "type": "event"
    },
    {
      "constant": true,
      "inputs": [],
      "name": "CONSENSUS_SETUP_CALLPREFIX",
      "outputs": [
        {
          "internalType": "bytes4",
          "name": "",
          "type": "bytes4"
        }
      ],
      "payable": false,
      "stateMutability": "view",
      "type": "function"
    },
    {
      "constant": true,
      "inputs": [],
      "name": "REPUTATION_SETUP_CALLPREFIX",
      "outputs": [
        {
          "internalType": "bytes4",
          "name": "",
          "type": "bytes4"
        }
      ],
      "payable": false,
      "stateMutability": "view",
      "type": "function"
    },
    {
      "constant": true,
      "inputs": [],
      "name": "anchorMasterCopy",
      "outputs": [
        {
          "internalType": "address",
          "name": "",
          "type": "address"
        }
      ],
      "payable": false,
      "stateMutability": "view",
      "type": "function"
    },
    {
      "constant": true,
      "inputs": [],
      "name": "committeeMasterCopy",
      "outputs": [
        {
          "internalType": "address",
          "name": "",
          "type": "address"
        }
      ],
      "payable": false,
      "stateMutability": "view",
      "type": "function"
    },
    {
      "constant": true,
      "inputs": [],
      "name": "consensus",
      "outputs": [
        {
          "internalType": "contract ConsensusInterface",
          "name": "",
          "type": "address"
        }
      ],
      "payable": false,
      "stateMutability": "view",
      "type": "function"
    },
    {
      "constant": true,
      "inputs": [],
      "name": "consensusGatewayMasterCopy",
      "outputs": [
        {
          "internalType": "address",
          "name": "",
          "type": "address"
        }
      ],
      "payable": false,
      "stateMutability": "view",
      "type": "function"
    },
    {
      "constant": true,
      "inputs": [],
      "name": "consensusMasterCopy",
      "outputs": [
        {
          "internalType": "address",
          "name": "",
          "type": "address"
        }
      ],
      "payable": false,
      "stateMutability": "view",
      "type": "function"
    },
    {
      "constant": true,
      "inputs": [],
      "name": "coreMasterCopy",
      "outputs": [
        {
          "internalType": "address",
          "name": "",
          "type": "address"
        }
      ],
      "payable": false,
      "stateMutability": "view",
      "type": "function"
    },
    {
      "constant": true,
      "inputs": [],
      "name": "reputation",
      "outputs": [
        {
          "internalType": "contract ReputationInterface",
          "name": "",
          "type": "address"
        }
      ],
      "payable": false,
      "stateMutability": "view",
      "type": "function"
    },
    {
      "constant": true,
      "inputs": [],
      "name": "reputationMasterCopy",
      "outputs": [
        {
          "internalType": "address",
          "name": "",
          "type": "address"
        }
      ],
      "payable": false,
      "stateMutability": "view",
      "type": "function"
    },
    {
      "constant": true,
      "inputs": [],
      "name": "techGov",
      "outputs": [
        {
          "internalType": "address",
          "name": "",
          "type": "address"
        }
      ],
      "payable": false,
      "stateMutability": "view",
      "type": "function"
    },
    {
      "constant": false,
      "inputs": [
        {
          "internalType": "uint256",
          "name": "_committeeSize",
          "type": "uint256"
        },
        {
          "internalType": "uint256",
          "name": "_minValidators",
          "type": "uint256"
        },
        {
          "internalType": "uint256",
          "name": "_joinLimit",
          "type": "uint256"
        },
        {
          "internalType": "uint256",
          "name": "_gasTargetDelta",
          "type": "uint256"
        },
        {
          "internalType": "uint256",
          "name": "_coinbaseSplitPerMille",
          "type": "uint256"
        },
        {
          "internalType": "address",
          "name": "_most",
          "type": "address"
        },
        {
          "internalType": "uint256",
          "name": "_stakeMOSTAmount",
          "type": "uint256"
        },
        {
          "internalType": "address",
          "name": "_wETH",
          "type": "address"
        },
        {
          "internalType": "uint256",
          "name": "_stakeWETHAmount",
          "type": "uint256"
        },
        {
          "internalType": "uint256",
          "name": "_cashableEarningsPerMille",
          "type": "uint256"
        },
        {
          "internalType": "uint256",
          "name": "_initialReputation",
          "type": "uint256"
        },
        {
          "internalType": "uint256",
          "name": "_withdrawalCooldownPeriodInBlocks",
          "type": "uint256"
        }
      ],
      "name": "setupConsensus",
      "outputs": [],
      "payable": false,
      "stateMutability": "nonpayable",
      "type": "function"
    },
    {
      "constant": false,
      "inputs": [
        {
          "internalType": "bytes",
          "name": "_data",
          "type": "bytes"
        }
      ],
      "name": "newCore",
      "outputs": [
        {
          "internalType": "address",
          "name": "deployedAddress_",
          "type": "address"
        }
      ],
      "payable": false,
      "stateMutability": "nonpayable",
      "type": "function"
    },
    {
      "constant": false,
      "inputs": [
        {
          "internalType": "bytes",
          "name": "_data",
          "type": "bytes"
        }
      ],
      "name": "newCommittee",
      "outputs": [
        {
          "internalType": "address",
          "name": "deployedAddress_",
          "type": "address"
        }
      ],
      "payable": false,
      "stateMutability": "nonpayable",
      "type": "function"
    },
    {
      "constant": false,
      "inputs": [],
      "name": "newMetachain",
      "outputs": [
        {
          "internalType": "bytes32",
          "name": "metachainId_",
          "type": "bytes32"
        }
      ],
      "payable": false,
      "stateMutability": "nonpayable",
      "type": "function"
    },
    {
      "constant": false,
      "inputs": [
        {
          "internalType": "bytes",
          "name": "_anchorSetupData",
          "type": "bytes"
        }
      ],
      "name": "deployAnchor",
      "outputs": [
        {
          "internalType": "address",
          "name": "anchor_",
          "type": "address"
        }
      ],
      "payable": false,
      "stateMutability": "nonpayable",
      "type": "function"
    },
    {
      "constant": false,
      "inputs": [
        {
          "internalType": "bytes",
          "name": "_coreSetupData",
          "type": "bytes"
        },
        {
          "internalType": "bytes",
          "name": "_consensusGatewaySetupData",
          "type": "bytes"
        }
      ],
      "name": "deployMetachainProxies",
      "outputs": [
        {
          "internalType": "address",
          "name": "core_",
          "type": "address"
        },
        {
          "internalType": "address",
          "name": "consensusGateway_",
          "type": "address"
        }
      ],
      "payable": false,
      "stateMutability": "nonpayable",
      "type": "function"
    }
  ],
  "bytecode": "0x608060405234801561001057600080fd5b5060405161159e38038061159e833981810160405260e081101561003357600080fd5b508051602082015160408301516060840151608085015160a086015160c09096015194959394929391929091906001600160a01b0387166100d557604080517f08c379a000000000000000000000000000000000000000000000000000000000815260206004820152601660248201527f5465636820676f76206164647265737320697320302e00000000000000000000604482015290519081900360640190fd5b6001600160a01b038616610134576040517f08c379a000000000000000000000000000000000000000000000000000000000815260040180806020018281038252602381526020018061157b6023913960400191505060405180910390fd5b6001600160a01b0385166101a957604080517f08c379a000000000000000000000000000000000000000000000000000000000815260206004820152601e60248201527f436f7265206d617374657220636f7079206164647265737320697320302e0000604482015290519081900360640190fd5b6001600160a01b038416610208576040517f08c379a00000000000000000000000000000000000000000000000000000000081526004018080602001828103825260238152602001806115096023913960400191505060405180910390fd5b6001600160a01b038316610267576040517f08c379a00000000000000000000000000000000000000000000000000000000081526004018080602001828103825260248152602001806115576024913960400191505060405180910390fd5b6001600160a01b0382166102dc57604080517f08c379a000000000000000000000000000000000000000000000000000000000815260206004820181905260248201527f416e63686f72206d617374657220636f7079206164647265737320697320302e604482015290519081900360640190fd5b6001600160a01b03811661033b576040517f08c379a000000000000000000000000000000000000000000000000000000000815260040180806020018281038252602b81526020018061152c602b913960400191505060405180910390fd5b600180546001600160a01b03199081166001600160a01b03998a1617909155600280548216978916979097179096556003805487169588169590951790945560048054861693871693909317909255600580548516918616919091179055600680548416918516919091179055600780549092169216919091179055611143806103c66000396000f3fe608060405234801561001057600080fd5b506004361061010b5760003560e01c8063a63c6507116100a2578063d075ac5811610071578063d075ac58146102d3578063e0520911146102f8578063f468e2bb14610300578063f7332b86146103e4578063fe08195c146104525761010b565b8063a63c6507146101e4578063a663d1ad146101ec578063c52164c61461025d578063ca7caf46146102655761010b565b8063294a334f116100de578063294a334f146101c45780632a4f38bc146101cc5780636b361e41146101d45780638ef3f761146101dc5761010b565b806303f920761461011057806313cba58b1461012a57806319beeb7b1461014e5780631a70fdb1146101bc575b600080fd5b61011861045a565b60408051918252519081900360200190f35b6101326106c7565b604080516001600160a01b039092168252519081900360200190f35b6101326004803603602081101561016457600080fd5b810190602081018135600160201b81111561017e57600080fd5b82018360208201111561019057600080fd5b803590602001918460018302840111600160201b831117156101b157600080fd5b5090925090506106d6565b610132610771565b610132610780565b61013261078f565b61013261079e565b6101326107ad565b6101326107bc565b61025b600480360361018081101561020357600080fd5b508035906020810135906040810135906060810135906080810135906001600160a01b0360a082013581169160c08101359160e0820135169061010081013590610120810135906101408101359061016001356107cb565b005b610132610a3a565b6101326004803603602081101561027b57600080fd5b810190602081018135600160201b81111561029557600080fd5b8201836020820111156102a757600080fd5b803590602001918460018302840111600160201b831117156102c857600080fd5b509092509050610a49565b6102db610add565b604080516001600160e01b03199092168252519081900360200190f35b610132610af8565b6103be6004803603604081101561031657600080fd5b810190602081018135600160201b81111561033057600080fd5b82018360208201111561034257600080fd5b803590602001918460018302840111600160201b8311171561036357600080fd5b919390929091602081019035600160201b81111561038057600080fd5b82018360208201111561039257600080fd5b803590602001918460018302840111600160201b831117156103b357600080fd5b509092509050610b07565b604080516001600160a01b03938416815291909216602082015281519081900390910190f35b610132600480360360208110156103fa57600080fd5b810190602081018135600160201b81111561041457600080fd5b82018360208201111561042657600080fd5b803590602001918460018302840111600160201b8311171561044757600080fd5b509092509050610bf8565b6102db610c8c565b6001546000906001600160a01b031633146104a65760405162461bcd60e51b815260040180806020018281038252602c81526020018061108d602c913960400191505060405180910390fd5b6000606060008060009054906101000a90046001600160a01b03166001600160a01b03166303f920766040518163ffffffff1660e01b8152600401600060405180830381600087803b1580156104fb57600080fd5b505af115801561050f573d6000803e3d6000fd5b505050506040513d6000823e601f3d908101601f19168201604052608081101561053857600080fd5b81516020830151604080850180519151939592948301929184600160201b82111561056257600080fd5b90830190602082018581111561057757600080fd5b8251600160201b81118282018810171561059057600080fd5b82525081516020918201929091019080838360005b838110156105bd5781810151838201526020016105a5565b50505050905090810190601f1680156105ea5780820380516001836020036101000a031916815260200191505b5060408181526020928301518883526001600160a01b03808916858501528116606084015260809183018281528751928401929092528651989c50969a509498509496507f4791a65bd9f9dc261991a8ab2e9a4a5aae845715c8cc007393a21e377ed800c3958a958a958a95508994509092909160a084019186019080838360005b8381101561068457818101518382015260200161066c565b50505050905090810190601f1680156106b15780820380516001836020036101000a031916815260200191505b509550505050505060405180910390a150505090565b6006546001600160a01b031681565b600080546001600160a01b031633146107205760405162461bcd60e51b81526004018080602001828103825260338152602001806110dc6033913960400191505060405180910390fd5b600354604080516020601f860181900481028201810190925284815261076a926001600160a01b0316918690869081908401838280828437600092019190915250610ca792505050565b9392505050565b6004546001600160a01b031681565b6005546001600160a01b031681565b6002546001600160a01b031681565b6003546001600160a01b031681565b6000546001600160a01b031681565b6007546001600160a01b031681565b6001546001600160a01b031633146108145760405162461bcd60e51b815260040180806020018281038252602c81526020018061108d602c913960400191505060405180910390fd5b6000546001600160a01b031615610872576040805162461bcd60e51b815260206004820152601b60248201527f436f6e73656e73757320697320616c72656164792073657475702e0000000000604482015290519081900360640190fd5b600254604080516020810190915260008082529161089b916001600160a01b0390911690610d18565b90506108a681610dbc565b6060604051808061101160469139604080519182900360460182206000546001600160a01b0390811660248501528d81166044850152606484018d90528b8116608485015260a484018b905260c484018a905260e48401899052610104808501899052835180860390910181526101249094019092526020830180516001600160e01b03166001600160e01b031990921691909117905260055491935061094f92501682610d18565b600880546001600160a01b0319166001600160a01b03929092169190911790556040516060908060366110578239603601905060405180910390208f8f8f8f8f600860009054906101000a90046001600160a01b031660405160240180878152602001868152602001858152602001848152602001838152602001826001600160a01b03166001600160a01b031681526020019650505050505050604051602081830303815290604052906001600160e01b0319166020820180516001600160e01b0383818316178352505050509050610a298382610e6b565b505050505050505050505050505050565b6008546001600160a01b031681565b600080546001600160a01b03163314610a935760405162461bcd60e51b81526004018080602001828103825260338152602001806110dc6033913960400191505060405180910390fd5b600654604080516020601f860181900481028201810190925284815261076a926001600160a01b0316918690869081908401838280828437600092019190915250610ca792505050565b60405180604661101182396046019050604051809103902081565b6001546001600160a01b031681565b6000805481906001600160a01b03163314610b535760405162461bcd60e51b81526004018080602001828103825260338152602001806110dc6033913960400191505060405180910390fd5b600354604080516020601f8901819004810282018101909252878152610b9d926001600160a01b0316918990899081908401838280828437600092019190915250610ca792505050565b600754604080516020601f8801819004810282018101909252868152929450610bed926001600160a01b0390921691908790879081908401838280828437600092019190915250610ca792505050565b905094509492505050565b600080546001600160a01b03163314610c425760405162461bcd60e51b81526004018080602001828103825260338152602001806110dc6033913960400191505060405180910390fd5b600454604080516020601f860181900481028201810190925284815261076a926001600160a01b0316918690869081908401838280828437600092019190915250610ca792505050565b60405180603661105782396036019050604051809103902081565b60006001600160a01b038316610d04576040805162461bcd60e51b815260206004820152601960248201527f4d617374657220636f7079206164647265737320697320302e00000000000000604482015290519081900360640190fd5b6000610d108484610d18565b949350505050565b600082604051610d2790610e91565b6001600160a01b03909116815260405190819003602001906000f080158015610d54573d6000803e3d6000fd5b50825190915015610d7a5760008060008451602086016000865af11415610d7a57600080fd5b604080516001600160a01b038316815290517fa38789425dbeee0239e16ff2d2567e31720127fbc6430758c1a4efc6aef29f809181900360200190a192915050565b6000546001600160a01b031615610e045760405162461bcd60e51b8152600401808060200182810382526025815260200180610fec6025913960400191505060405180910390fd5b6001600160a01b038116610e495760405162461bcd60e51b81526004018080602001828103825260238152602001806110b96023913960400191505060405180910390fd5b600080546001600160a01b0319166001600160a01b0392909216919091179055565b805115610e8d5760008060008351602085016000875af11415610e8d57600080fd5b5050565b61014d80610e9f8339019056fe608060405234801561001057600080fd5b5060405161014d38038061014d8339818101604052602081101561003357600080fd5b50516001600160a01b038116610094576040517f08c379a00000000000000000000000000000000000000000000000000000000081526004018080602001828103825260248152602001806101296024913960400191505060405180910390fd5b600080546001600160a01b039092166001600160a01b03199092169190911790556066806100c36000396000f3fe60806040526001600160a01b03600054163660008037600080366000845af43d6000803e80602c573d6000fd5b3d6000f3fea265627a7a723158201bcbc87e2e88421c4e9851d9787d03de469d31caee30ebab16842537c81dbe6664736f6c634300050d0032496e76616c6964206d617374657220636f707920616464726573732070726f7669646564436f6e73656e737573206164647265737320697320616c72656164792070726573656e742e736574757028616464726573732c616464726573732c75696e743235362c616464726573732c75696e743235362c75696e743235362c75696e743235362c75696e743235362973657475702875696e743235362c75696e743235362c75696e743235362c75696e743235362c75696e743235362c616464726573732943616c6c6572206d75737420626520746563686e6963616c20676f7665726e616e636520616464726573732e436f6e73656e7375732061646472657373206d757374206e6f74206265206e756c6c2e4f6e6c792074686520636f6e73656e73757320636f6e74726163742063616e2063616c6c20746869732066756e6374696f6e2ea265627a7a72315820bf0eaf59e87bed1930a3b4ef0eaa08789e5dd312c7d86ad95c29c60e073caf9f64736f6c634300050d0032436f6d6d6974746565206d617374657220636f7079206164647265737320697320302e436f6e73656e7375732067617465776179206d617374657220636f7079206164647265737320697320302e52657075746174696f6e206d617374657220636f7079206164647265737320697320302e436f6e73656e737573206d617374657220636f7079206164647265737320697320302e",
  "source": "pragma solidity >=0.5.0 <0.6.0;\n\n// Copyright 2019 OpenST Ltd.\n//\n// Licensed under the Apache License, Version 2.0 (the \"License\");\n// you may not use this file except in compliance with the License.\n// You may obtain a copy of the License at\n//\n//    http://www.apache.org/licenses/LICENSE-2.0\n//\n// Unless required by applicable law or agreed to in writing, software\n// distributed under the License is distributed on an \"AS IS\" BASIS,\n// WITHOUT WARRANTIES OR CONDITIONS OF ANY KIND, either express or implied.\n// See the License for the specific language governing permissions and\n// limitations under the License.\n\nimport \"./AxiomInterface.sol\";\nimport \"../anchor/Anchor.sol\"; // TASK: change this to factory, when new anchor is implemented.\nimport \"../consensus/ConsensusInterface.sol\";\nimport \"../proxies/ProxyFactory.sol\";\n\n\ncontract Axiom is AxiomInterface, ProxyFactory, ConsensusModule {\n\n    /* Usings */\n\n    using SafeMath for uint256;\n\n\n    /* Events */\n\n    /** Emitted when new metachain is created */\n    event MetachainCreated(\n        bytes32 metachainId,\n        address anchor,\n        string mosaicVersion,\n        address consensusGateway\n    );\n\n\n    /* Constants */\n\n    /** The callprefix of the Reputation::setup function. */\n    bytes4 public constant REPUTATION_SETUP_CALLPREFIX = bytes4(\n        keccak256(\n            \"setup(address,address,uint256,address,uint256,uint256,uint256,uint256)\"\n        )\n    );\n\n    /** The callprefix of the Consensus::setup function. */\n    bytes4 public constant CONSENSUS_SETUP_CALLPREFIX = bytes4(\n        keccak256(\n            \"setup(uint256,uint256,uint256,uint256,uint256,address)\"\n        )\n    );\n\n\n    /* Modifiers */\n\n    modifier onlyTechGov()\n    {\n        require(\n            techGov == msg.sender,\n            \"Caller must be technical governance address.\"\n        );\n\n        _;\n    }\n\n\n    /* Storage */\n\n    /** Technical governance address */\n    address public techGov;\n\n    /** Consensus master copy contract address */\n    address public consensusMasterCopy;\n\n    /** Core master copy contract address */\n    address public coreMasterCopy;\n\n    /** Committee master copy contract address */\n    address public committeeMasterCopy;\n\n    /** Reputation master copy contract address */\n    address public reputationMasterCopy;\n\n    /** Anchor master copy contract address */\n    address public anchorMasterCopy;\n\n    /** Consensus gateway master copy contract address */\n    address public consensusGatewayMasterCopy;\n\n    /** Reputation contract address */\n    ReputationInterface public reputation;\n\n\n    /* Special Member Functions */\n\n    /**\n     * Constructor for Axiom contract\n     *\n     * @param _techGov Technical governance address.\n     * @param _consensusMasterCopy Consensus master copy contract address.\n     * @param _coreMasterCopy Core master copy contract address.\n     * @param _committeeMasterCopy Committee master copy contract address.\n     * @param _reputationMasterCopy Reputation master copy contract address.\n     * @param _anchorMasterCopy Anchor master copy contract address.\n     * @param _consensusGatewayMasterCopy Consensus gateway master copy contract address.\n     */\n    constructor(\n        address _techGov,\n        address _consensusMasterCopy,\n        address _coreMasterCopy,\n        address _committeeMasterCopy,\n        address _reputationMasterCopy,\n        address _anchorMasterCopy,\n        address _consensusGatewayMasterCopy\n    )\n        public\n    {\n        require(\n            _techGov != address(0),\n            \"Tech gov address is 0.\"\n        );\n\n        require(\n            _consensusMasterCopy != address(0),\n            \"Consensus master copy address is 0.\"\n        );\n\n        require(\n            _coreMasterCopy != address(0),\n            \"Core master copy address is 0.\"\n        );\n\n        require(\n            _committeeMasterCopy != address(0),\n            \"Committee master copy address is 0.\"\n        );\n\n        require(\n            _reputationMasterCopy != address(0),\n            \"Reputation master copy address is 0.\"\n        );\n\n        require(\n            _anchorMasterCopy != address(0),\n            \"Anchor master copy address is 0.\"\n        );\n\n        require(\n            _consensusGatewayMasterCopy != address(0),\n            \"Consensus gateway master copy address is 0.\"\n        );\n\n        techGov = _techGov;\n        consensusMasterCopy = _consensusMasterCopy;\n        coreMasterCopy = _coreMasterCopy;\n        committeeMasterCopy = _committeeMasterCopy;\n        reputationMasterCopy = _reputationMasterCopy;\n        anchorMasterCopy = _anchorMasterCopy;\n        consensusGatewayMasterCopy = _consensusGatewayMasterCopy;\n    }\n\n\n    /* External functions */\n\n    /**\n     * @notice Setup consensus contract, this can be only called once by\n     *         technical governance address.\n     * @param _committeeSize Max committee size that can be formed.\n     * @param _minValidators Minimum number of validators that must join a\n     *                       created core to open.\n     * @param _joinLimit Maximum number of validators that can join in a core.\n     * @param _gasTargetDelta Gas target delta to open new metablock.\n     * @param _coinbaseSplitPerMille Coinbase split per mille.\n     * @param _most MOST token address.\n     * @param _stakeMOSTAmount Amount of MOST that will be staked by validators.\n     * @param _wETH wEth token address.\n     * @param _stakeWETHAmount Amount of wEth that will be staked by validators.\n     * @param _cashableEarningsPerMille Fraction of the total amount that can\n     *                                  be cashed by validators.\n     * @param _initialReputation Initial reputations that will be set when\n     *                           validators joins.\n     * @param _withdrawalCooldownPeriodInBlocks Cooling period for withdrawal\n     *                                          after logout.\n     */\n    function setupConsensus(\n        uint256 _committeeSize,\n        uint256 _minValidators,\n        uint256 _joinLimit,\n        uint256 _gasTargetDelta,\n        uint256 _coinbaseSplitPerMille,\n        address _most,\n        uint256 _stakeMOSTAmount,\n        address _wETH,\n        uint256 _stakeWETHAmount,\n        uint256 _cashableEarningsPerMille,\n        uint256 _initialReputation,\n        uint256 _withdrawalCooldownPeriodInBlocks\n    )\n        external\n        onlyTechGov\n    {\n        require(\n            address(consensus) == address(0),\n            \"Consensus is already setup.\"\n        );\n\n        // Deploy the consensus proxy contract.\n        // Setup data is blank because setup requires reputation contract address\n        // which is deployed in next step.\n        Proxy consensusProxy = createProxy(consensusMasterCopy, \"\");\n\n        ConsensusModule.setupConsensus(ConsensusInterface(address(consensusProxy)));\n\n        bytes memory reputationSetupData = abi.encodeWithSelector(\n            REPUTATION_SETUP_CALLPREFIX,\n            consensus,\n            _most,\n            _stakeMOSTAmount,\n            _wETH,\n            _stakeWETHAmount,\n            _cashableEarningsPerMille,\n            _initialReputation,\n            _withdrawalCooldownPeriodInBlocks\n        );\n\n        reputation = ReputationInterface(\n            address(\n                createProxy(\n                    reputationMasterCopy,\n                    reputationSetupData\n                )\n            )\n        );\n\n        bytes memory consensusSetupData = abi.encodeWithSelector(\n            CONSENSUS_SETUP_CALLPREFIX,\n            _committeeSize,\n            _minValidators,\n            _joinLimit,\n            _gasTargetDelta,\n            _coinbaseSplitPerMille,\n            reputation\n        );\n\n        callProxyData(consensusProxy, consensusSetupData);\n    }\n\n    /**\n     * @notice Deploy Core proxy contract. This can be called only by consensus\n     *         contract.\n     * @param _data Setup function call data.\n     * @return Deployed contract address.\n     */\n    function newCore(\n        bytes calldata _data\n    )\n        external\n        onlyConsensus\n        returns (address deployedAddress_)\n    {\n        return deployProxyContract(coreMasterCopy, _data);\n    }\n\n    /**\n     * @notice Deploy Committee proxy contract. This can be called only by consensus\n     *         contract.\n     * @param _data Setup function call data.\n     *\n     * @return deployedAddress_ Deployed contract address.\n     */\n    function newCommittee(\n        bytes calldata _data\n    )\n        external\n        onlyConsensus\n        returns (address deployedAddress_)\n    {\n        return deployProxyContract(committeeMasterCopy, _data);\n    }\n\n    /**\n     * @notice Setup a new metachain. Only technical governance address can\n     *         call this function.\n     *\n     * @return metachainId_ Metachain id.\n     */\n    function newMetachain()\n        external\n        onlyTechGov\n        returns(bytes32 metachainId_)\n    {\n        address anchor;\n        string memory mosaicVersion;\n        address consensusGateway;\n\n        (\n            metachainId_,\n            anchor,\n            mosaicVersion,\n            consensusGateway\n        ) = consensus.newMetachain();\n\n        emit MetachainCreated(\n            metachainId_,\n            anchor,\n            mosaicVersion,\n            consensusGateway\n        );\n    }\n\n    /**\n     * @notice Deploys proxy for anchor contract.\n     *\n     * @param _anchorSetupData Setup data for anchor contract.\n     *\n     * @return anchor_ Address of anchor contract.\n     */\n    function deployAnchor(bytes calldata _anchorSetupData)\n        external\n        onlyConsensus\n        returns(address anchor_)\n    {\n        anchor_ = deployProxyContract(anchorMasterCopy, _anchorSetupData);\n    }\n\n    /**\n     * @notice Deploys metachain proxies. Only consensus can call this function.\n     *\n     * @param _coreSetupData Setup data for core contract.\n     * @param _consensusGatewaySetupData Setup data for consensus gateway contract.\n     *\n     * @return core_ Address of core contract.\n     * @return consensusGateway_ Address of consensus gateway contract.\n     */\n    function deployMetachainProxies(\n        bytes calldata _coreSetupData,\n        bytes calldata _consensusGatewaySetupData\n    )\n        external\n        onlyConsensus\n        returns(address core_, address consensusGateway_)\n    {\n        core_ = deployProxyContract(coreMasterCopy, _coreSetupData);\n        consensusGateway_ = deployProxyContract(\n            consensusGatewayMasterCopy,\n            _consensusGatewaySetupData\n        );\n    }\n\n\n    /* Private Functions */\n\n    /**\n     * @notice Deploy proxy contract.\n     * @param _masterCopy Master copy contract address.\n     * @param _data Setup function call data.\n     * @return Deployed contract address.\n     */\n    function deployProxyContract(\n        address _masterCopy,\n        bytes memory _data\n    )\n        private\n        returns (address deployedAddress_)\n    {\n        require(\n            _masterCopy != address(0),\n            \"Master copy address is 0.\"\n        );\n\n        Proxy proxyContract = createProxy(\n            _masterCopy,\n            _data\n        );\n        deployedAddress_ = address(proxyContract);\n    }\n}\n",
  "sourcePath": "/Users/abhay/Documents/projects/abhayforks/mosaic-1/contracts/axiom/Axiom.sol",
  "compiler": {
    "name": "solc",
    "version": "0.5.13+commit.5b0b510c.Emscripten.clang"
  },
  "schemaVersion": "3.0.17",
  "updatedAt": "2020-03-21T06:48:34.596Z",
  "devdoc": {
    "methods": {
      "constructor": {
        "params": {
          "_anchorMasterCopy": "Anchor master copy contract address.",
          "_committeeMasterCopy": "Committee master copy contract address.",
          "_consensusGatewayMasterCopy": "Consensus gateway master copy contract address.",
          "_consensusMasterCopy": "Consensus master copy contract address.",
          "_coreMasterCopy": "Core master copy contract address.",
          "_reputationMasterCopy": "Reputation master copy contract address.",
          "_techGov": "Technical governance address."
        }
      },
      "deployAnchor(bytes)": {
        "params": {
          "_anchorSetupData": "Setup data for anchor contract."
        },
        "return": "anchor_ Address of anchor contract."
      },
      "deployMetachainProxies(bytes,bytes)": {
        "params": {
          "_consensusGatewaySetupData": "Setup data for consensus gateway contract.",
          "_coreSetupData": "Setup data for core contract."
        },
        "return": "core_ Address of core contract.consensusGateway_ Address of consensus gateway contract."
      },
      "newCommittee(bytes)": {
        "params": {
          "_data": "Setup function call data."
        },
        "return": "deployedAddress_ Deployed contract address."
      },
      "newCore(bytes)": {
        "params": {
          "_data": "Setup function call data."
        },
        "return": "Deployed contract address."
      },
      "newMetachain()": {
        "return": "metachainId_ Metachain id."
      },
      "setupConsensus(uint256,uint256,uint256,uint256,uint256,address,uint256,address,uint256,uint256,uint256,uint256)": {
        "params": {
          "_cashableEarningsPerMille": "Fraction of the total amount that can                                 be cashed by validators.",
          "_coinbaseSplitPerMille": "Coinbase split per mille.",
          "_committeeSize": "Max committee size that can be formed.",
          "_gasTargetDelta": "Gas target delta to open new metablock.",
          "_initialReputation": "Initial reputations that will be set when                          validators joins.",
          "_joinLimit": "Maximum number of validators that can join in a core.",
          "_minValidators": "Minimum number of validators that must join a                      created core to open.",
          "_most": "MOST token address.",
          "_stakeMOSTAmount": "Amount of MOST that will be staked by validators.",
          "_stakeWETHAmount": "Amount of wEth that will be staked by validators.",
          "_wETH": "wEth token address.",
          "_withdrawalCooldownPeriodInBlocks": "Cooling period for withdrawal                                         after logout."
        }
      }
    }
  },
  "userdoc": {
    "methods": {
      "constructor": "Constructor for Axiom contract",
      "deployAnchor(bytes)": {
        "notice": "Deploys proxy for anchor contract."
      },
      "deployMetachainProxies(bytes,bytes)": {
        "notice": "Deploys metachain proxies. Only consensus can call this function."
      },
      "newCommittee(bytes)": {
        "notice": "Deploy Committee proxy contract. This can be called only by consensus        contract."
      },
      "newCore(bytes)": {
        "notice": "Deploy Core proxy contract. This can be called only by consensus        contract."
      },
      "newMetachain()": {
        "notice": "Setup a new metachain. Only technical governance address can        call this function."
      },
      "setupConsensus(uint256,uint256,uint256,uint256,uint256,address,uint256,address,uint256,uint256,uint256,uint256)": {
        "notice": "Setup consensus contract, this can be only called once by        technical governance address."
      }
    }
  }
}