{
  "contractName": "AxiomTest",
  "abi": [
    {
      "inputs": [
        {
          "internalType": "address",
          "name": "_techGov",
          "type": "address"
        },
        {
          "internalType": "address",
          "name": "_consensusMasterCopy",
          "type": "address"
        },
        {
          "internalType": "address",
          "name": "_coreMasterCopy",
          "type": "address"
        },
        {
          "internalType": "address",
          "name": "_committeeMasterCopy",
          "type": "address"
        },
        {
          "internalType": "address",
          "name": "_reputationMasterCopy",
          "type": "address"
        },
        {
          "internalType": "address",
          "name": "_anchorMasterCopy",
          "type": "address"
        },
        {
          "internalType": "address",
          "name": "_consensusGatewayMasterCopy",
          "type": "address"
        }
      ],
      "payable": false,
      "stateMutability": "nonpayable",
      "type": "constructor"
    },
    {
      "anonymous": false,
      "inputs": [
        {
          "indexed": false,
          "internalType": "bytes32",
          "name": "metachainId",
          "type": "bytes32"
        },
        {
          "indexed": false,
          "internalType": "address",
          "name": "anchor",
          "type": "address"
        },
        {
          "indexed": false,
          "internalType": "string",
          "name": "mosaicVersion",
          "type": "string"
        },
        {
          "indexed": false,
          "internalType": "address",
          "name": "consensusGateway",
          "type": "address"
        }
      ],
      "name": "MetachainCreated",
      "type": "event"
    },
    {
      "anonymous": false,
      "inputs": [
        {
          "indexed": false,
          "internalType": "contract Proxy",
          "name": "proxy",
          "type": "address"
        }
      ],
      "name": "ProxyCreation",
      "type": "event"
    },
    {
      "constant": true,
      "inputs": [],
      "name": "CONSENSUS_SETUP_CALLPREFIX",
      "outputs": [
        {
          "internalType": "bytes4",
          "name": "",
          "type": "bytes4"
        }
      ],
      "payable": false,
      "stateMutability": "view",
      "type": "function"
    },
    {
      "constant": true,
      "inputs": [],
      "name": "REPUTATION_SETUP_CALLPREFIX",
      "outputs": [
        {
          "internalType": "bytes4",
          "name": "",
          "type": "bytes4"
        }
      ],
      "payable": false,
      "stateMutability": "view",
      "type": "function"
    },
    {
      "constant": true,
      "inputs": [],
      "name": "anchorMasterCopy",
      "outputs": [
        {
          "internalType": "address",
          "name": "",
          "type": "address"
        }
      ],
      "payable": false,
      "stateMutability": "view",
      "type": "function"
    },
    {
      "constant": true,
      "inputs": [],
      "name": "committeeMasterCopy",
      "outputs": [
        {
          "internalType": "address",
          "name": "",
          "type": "address"
        }
      ],
      "payable": false,
      "stateMutability": "view",
      "type": "function"
    },
    {
      "constant": true,
      "inputs": [],
      "name": "consensus",
      "outputs": [
        {
          "internalType": "contract ConsensusInterface",
          "name": "",
          "type": "address"
        }
      ],
      "payable": false,
      "stateMutability": "view",
      "type": "function"
    },
    {
      "constant": true,
      "inputs": [],
      "name": "consensusGatewayMasterCopy",
      "outputs": [
        {
          "internalType": "address",
          "name": "",
          "type": "address"
        }
      ],
      "payable": false,
      "stateMutability": "view",
      "type": "function"
    },
    {
      "constant": true,
      "inputs": [],
      "name": "consensusMasterCopy",
      "outputs": [
        {
          "internalType": "address",
          "name": "",
          "type": "address"
        }
      ],
      "payable": false,
      "stateMutability": "view",
      "type": "function"
    },
    {
      "constant": true,
      "inputs": [],
      "name": "coreMasterCopy",
      "outputs": [
        {
          "internalType": "address",
          "name": "",
          "type": "address"
        }
      ],
      "payable": false,
      "stateMutability": "view",
      "type": "function"
    },
    {
      "constant": false,
      "inputs": [
        {
          "internalType": "bytes",
          "name": "_anchorSetupData",
          "type": "bytes"
        }
      ],
      "name": "deployAnchor",
      "outputs": [
        {
          "internalType": "address",
          "name": "anchor_",
          "type": "address"
        }
      ],
      "payable": false,
      "stateMutability": "nonpayable",
      "type": "function"
    },
    {
      "constant": false,
      "inputs": [
        {
          "internalType": "bytes",
          "name": "_coreSetupData",
          "type": "bytes"
        },
        {
          "internalType": "bytes",
          "name": "_consensusGatewaySetupData",
          "type": "bytes"
        }
      ],
      "name": "deployMetachainProxies",
      "outputs": [
        {
          "internalType": "address",
          "name": "core_",
          "type": "address"
        },
        {
          "internalType": "address",
          "name": "consensusGateway_",
          "type": "address"
        }
      ],
      "payable": false,
      "stateMutability": "nonpayable",
      "type": "function"
    },
    {
      "constant": false,
      "inputs": [
        {
          "internalType": "bytes",
          "name": "_data",
          "type": "bytes"
        }
      ],
      "name": "newCommittee",
      "outputs": [
        {
          "internalType": "address",
          "name": "deployedAddress_",
          "type": "address"
        }
      ],
      "payable": false,
      "stateMutability": "nonpayable",
      "type": "function"
    },
    {
      "constant": false,
      "inputs": [
        {
          "internalType": "bytes",
          "name": "_data",
          "type": "bytes"
        }
      ],
      "name": "newCore",
      "outputs": [
        {
          "internalType": "address",
          "name": "deployedAddress_",
          "type": "address"
        }
      ],
      "payable": false,
      "stateMutability": "nonpayable",
      "type": "function"
    },
    {
      "constant": false,
      "inputs": [],
      "name": "newMetachain",
      "outputs": [
        {
          "internalType": "bytes32",
          "name": "metachainId_",
          "type": "bytes32"
        }
      ],
      "payable": false,
      "stateMutability": "nonpayable",
      "type": "function"
    },
    {
      "constant": true,
      "inputs": [],
      "name": "reputation",
      "outputs": [
        {
          "internalType": "contract ReputationInterface",
          "name": "",
          "type": "address"
        }
      ],
      "payable": false,
      "stateMutability": "view",
      "type": "function"
    },
    {
      "constant": true,
      "inputs": [],
      "name": "reputationMasterCopy",
      "outputs": [
        {
          "internalType": "address",
          "name": "",
          "type": "address"
        }
      ],
      "payable": false,
      "stateMutability": "view",
      "type": "function"
    },
    {
      "constant": false,
      "inputs": [
        {
          "internalType": "uint256",
          "name": "_committeeSize",
          "type": "uint256"
        },
        {
          "internalType": "uint256",
          "name": "_minValidators",
          "type": "uint256"
        },
        {
          "internalType": "uint256",
          "name": "_joinLimit",
          "type": "uint256"
        },
        {
          "internalType": "uint256",
          "name": "_gasTargetDelta",
          "type": "uint256"
        },
        {
          "internalType": "uint256",
          "name": "_coinbaseSplitPerMille",
          "type": "uint256"
        },
        {
          "internalType": "address",
          "name": "_most",
          "type": "address"
        },
        {
          "internalType": "uint256",
          "name": "_stakeMOSTAmount",
          "type": "uint256"
        },
        {
          "internalType": "address",
          "name": "_wETH",
          "type": "address"
        },
        {
          "internalType": "uint256",
          "name": "_stakeWETHAmount",
          "type": "uint256"
        },
        {
          "internalType": "uint256",
          "name": "_cashableEarningsPerMille",
          "type": "uint256"
        },
        {
          "internalType": "uint256",
          "name": "_initialReputation",
          "type": "uint256"
        },
        {
          "internalType": "uint256",
          "name": "_withdrawalCooldownPeriodInBlocks",
          "type": "uint256"
        }
      ],
      "name": "setupConsensus",
      "outputs": [],
      "payable": false,
      "stateMutability": "nonpayable",
      "type": "function"
    },
    {
      "constant": true,
      "inputs": [],
      "name": "techGov",
      "outputs": [
        {
          "internalType": "address",
          "name": "",
          "type": "address"
        }
      ],
      "payable": false,
      "stateMutability": "view",
      "type": "function"
    },
    {
      "constant": false,
      "inputs": [
        {
          "internalType": "contract ConsensusInterface",
          "name": "_consensus",
          "type": "address"
        }
      ],
      "name": "setConsensus",
      "outputs": [],
      "payable": false,
      "stateMutability": "nonpayable",
      "type": "function"
    }
  ],
  "bytecode": "0x608060405234801561001057600080fd5b506040516115e03803806115e0833981810160405260e081101561003357600080fd5b508051602082015160408301516060840151608085015160a086015160c0909601519495939492939192909190868686868686866001600160a01b0387166100dc57604080517f08c379a000000000000000000000000000000000000000000000000000000000815260206004820152601660248201527f5465636820676f76206164647265737320697320302e00000000000000000000604482015290519081900360640190fd5b6001600160a01b03861661013b576040517f08c379a00000000000000000000000000000000000000000000000000000000081526004018080602001828103825260238152602001806115bd6023913960400191505060405180910390fd5b6001600160a01b0385166101b057604080517f08c379a000000000000000000000000000000000000000000000000000000000815260206004820152601e60248201527f436f7265206d617374657220636f7079206164647265737320697320302e0000604482015290519081900360640190fd5b6001600160a01b03841661020f576040517f08c379a000000000000000000000000000000000000000000000000000000000815260040180806020018281038252602381526020018061154b6023913960400191505060405180910390fd5b6001600160a01b03831661026e576040517f08c379a00000000000000000000000000000000000000000000000000000000081526004018080602001828103825260248152602001806115996024913960400191505060405180910390fd5b6001600160a01b0382166102e357604080517f08c379a000000000000000000000000000000000000000000000000000000000815260206004820181905260248201527f416e63686f72206d617374657220636f7079206164647265737320697320302e604482015290519081900360640190fd5b6001600160a01b038116610342576040517f08c379a000000000000000000000000000000000000000000000000000000000815260040180806020018281038252602b81526020018061156e602b913960400191505060405180910390fd5b600180546001600160a01b039889166001600160a01b03199182161790915560028054978916978216979097179096556003805495881695871695909517909455600480549387169386169390931790925560058054918616918516919091179055600680549185169184169190911790556007805491909316911617905550505050505050611174806103d76000396000f3fe608060405234801561001057600080fd5b50600436106101165760003560e01c8063a63c6507116100a2578063d075ac5811610071578063d075ac5814610304578063e052091114610329578063f468e2bb14610331578063f7332b8614610415578063fe08195c1461048357610116565b8063a63c650714610217578063a663d1ad1461021f578063c52164c61461028e578063ca7caf461461029657610116565b8063294a334f116100e9578063294a334f146101cf5780632a4f38bc146101d75780635da7560c146101df5780636b361e41146102075780638ef3f7611461020f57610116565b806303f920761461011b57806313cba58b1461013557806319beeb7b146101595780631a70fdb1146101c7575b600080fd5b61012361048b565b60408051918252519081900360200190f35b61013d6106f8565b604080516001600160a01b039092168252519081900360200190f35b61013d6004803603602081101561016f57600080fd5b810190602081018135600160201b81111561018957600080fd5b82018360208201111561019b57600080fd5b803590602001918460018302840111600160201b831117156101bc57600080fd5b509092509050610707565b61013d6107a2565b61013d6107b1565b61013d6107c0565b610205600480360360208110156101f557600080fd5b50356001600160a01b03166107cf565b005b61013d6107f1565b61013d610800565b61013d61080f565b610205600480360361018081101561023657600080fd5b508035906020810135906040810135906060810135906080810135906001600160a01b0360a082013581169160c08101359160e08201351690610100810135906101208101359061014081013590610160013561081e565b61013d610a8d565b61013d600480360360208110156102ac57600080fd5b810190602081018135600160201b8111156102c657600080fd5b8201836020820111156102d857600080fd5b803590602001918460018302840111600160201b831117156102f957600080fd5b509092509050610a9c565b61030c610b30565b604080516001600160e01b03199092168252519081900360200190f35b61013d610b4b565b6103ef6004803603604081101561034757600080fd5b810190602081018135600160201b81111561036157600080fd5b82018360208201111561037357600080fd5b803590602001918460018302840111600160201b8311171561039457600080fd5b919390929091602081019035600160201b8111156103b157600080fd5b8201836020820111156103c357600080fd5b803590602001918460018302840111600160201b831117156103e457600080fd5b509092509050610b5a565b604080516001600160a01b03938416815291909216602082015281519081900390910190f35b61013d6004803603602081101561042b57600080fd5b810190602081018135600160201b81111561044557600080fd5b82018360208201111561045757600080fd5b803590602001918460018302840111600160201b8311171561047857600080fd5b509092509050610c4b565b61030c610cdf565b6001546000906001600160a01b031633146104d75760405162461bcd60e51b815260040180806020018281038252602c8152602001806110be602c913960400191505060405180910390fd5b6000606060008060009054906101000a90046001600160a01b03166001600160a01b03166303f920766040518163ffffffff1660e01b8152600401600060405180830381600087803b15801561052c57600080fd5b505af1158015610540573d6000803e3d6000fd5b505050506040513d6000823e601f3d908101601f19168201604052608081101561056957600080fd5b81516020830151604080850180519151939592948301929184600160201b82111561059357600080fd5b9083019060208201858111156105a857600080fd5b8251600160201b8111828201881017156105c157600080fd5b82525081516020918201929091019080838360005b838110156105ee5781810151838201526020016105d6565b50505050905090810190601f16801561061b5780820380516001836020036101000a031916815260200191505b5060408181526020928301518883526001600160a01b03808916858501528116606084015260809183018281528751928401929092528651989c50969a509498509496507f4791a65bd9f9dc261991a8ab2e9a4a5aae845715c8cc007393a21e377ed800c3958a958a958a95508994509092909160a084019186019080838360005b838110156106b557818101518382015260200161069d565b50505050905090810190601f1680156106e25780820380516001836020036101000a031916815260200191505b509550505050505060405180910390a150505090565b6006546001600160a01b031681565b600080546001600160a01b031633146107515760405162461bcd60e51b815260040180806020018281038252603381526020018061110d6033913960400191505060405180910390fd5b600354604080516020601f860181900481028201810190925284815261079b926001600160a01b0316918690869081908401838280828437600092019190915250610cfa92505050565b9392505050565b6004546001600160a01b031681565b6005546001600160a01b031681565b6002546001600160a01b031681565b600080546001600160a01b0319166001600160a01b0392909216919091179055565b6003546001600160a01b031681565b6000546001600160a01b031681565b6007546001600160a01b031681565b6001546001600160a01b031633146108675760405162461bcd60e51b815260040180806020018281038252602c8152602001806110be602c913960400191505060405180910390fd5b6000546001600160a01b0316156108c5576040805162461bcd60e51b815260206004820152601b60248201527f436f6e73656e73757320697320616c72656164792073657475702e0000000000604482015290519081900360640190fd5b60025460408051602081019091526000808252916108ee916001600160a01b0390911690610d6b565b90506108f981610e0f565b6060604051808061104260469139604080519182900360460182206000546001600160a01b0390811660248501528d81166044850152606484018d90528b8116608485015260a484018b905260c484018a905260e48401899052610104808501899052835180860390910181526101249094019092526020830180516001600160e01b03166001600160e01b03199092169190911790526005549193506109a292501682610d6b565b600880546001600160a01b0319166001600160a01b03929092169190911790556040516060908060366110888239603601905060405180910390208f8f8f8f8f600860009054906101000a90046001600160a01b031660405160240180878152602001868152602001858152602001848152602001838152602001826001600160a01b03166001600160a01b031681526020019650505050505050604051602081830303815290604052906001600160e01b0319166020820180516001600160e01b0383818316178352505050509050610a7c8382610e9c565b505050505050505050505050505050565b6008546001600160a01b031681565b600080546001600160a01b03163314610ae65760405162461bcd60e51b815260040180806020018281038252603381526020018061110d6033913960400191505060405180910390fd5b600654604080516020601f860181900481028201810190925284815261079b926001600160a01b0316918690869081908401838280828437600092019190915250610cfa92505050565b60405180604661104282396046019050604051809103902081565b6001546001600160a01b031681565b6000805481906001600160a01b03163314610ba65760405162461bcd60e51b815260040180806020018281038252603381526020018061110d6033913960400191505060405180910390fd5b600354604080516020601f8901819004810282018101909252878152610bf0926001600160a01b0316918990899081908401838280828437600092019190915250610cfa92505050565b600754604080516020601f8801819004810282018101909252868152929450610c40926001600160a01b0390921691908790879081908401838280828437600092019190915250610cfa92505050565b905094509492505050565b600080546001600160a01b03163314610c955760405162461bcd60e51b815260040180806020018281038252603381526020018061110d6033913960400191505060405180910390fd5b600454604080516020601f860181900481028201810190925284815261079b926001600160a01b0316918690869081908401838280828437600092019190915250610cfa92505050565b60405180603661108882396036019050604051809103902081565b60006001600160a01b038316610d57576040805162461bcd60e51b815260206004820152601960248201527f4d617374657220636f7079206164647265737320697320302e00000000000000604482015290519081900360640190fd5b6000610d638484610d6b565b949350505050565b600082604051610d7a90610ec2565b6001600160a01b03909116815260405190819003602001906000f080158015610da7573d6000803e3d6000fd5b50825190915015610dcd5760008060008451602086016000865af11415610dcd57600080fd5b604080516001600160a01b038316815290517fa38789425dbeee0239e16ff2d2567e31720127fbc6430758c1a4efc6aef29f809181900360200190a192915050565b6000546001600160a01b031615610e575760405162461bcd60e51b815260040180806020018281038252602581526020018061101d6025913960400191505060405180910390fd5b6001600160a01b0381166107cf5760405162461bcd60e51b81526004018080602001828103825260238152602001806110ea6023913960400191505060405180910390fd5b805115610ebe5760008060008351602085016000875af11415610ebe57600080fd5b5050565b61014d80610ed08339019056fe608060405234801561001057600080fd5b5060405161014d38038061014d8339818101604052602081101561003357600080fd5b50516001600160a01b038116610094576040517f08c379a00000000000000000000000000000000000000000000000000000000081526004018080602001828103825260248152602001806101296024913960400191505060405180910390fd5b600080546001600160a01b039092166001600160a01b03199092169190911790556066806100c36000396000f3fe60806040526001600160a01b03600054163660008037600080366000845af43d6000803e80602c573d6000fd5b3d6000f3fea265627a7a723158201bcbc87e2e88421c4e9851d9787d03de469d31caee30ebab16842537c81dbe6664736f6c634300050d0032496e76616c6964206d617374657220636f707920616464726573732070726f7669646564436f6e73656e737573206164647265737320697320616c72656164792070726573656e742e736574757028616464726573732c616464726573732c75696e743235362c616464726573732c75696e743235362c75696e743235362c75696e743235362c75696e743235362973657475702875696e743235362c75696e743235362c75696e743235362c75696e743235362c75696e743235362c616464726573732943616c6c6572206d75737420626520746563686e6963616c20676f7665726e616e636520616464726573732e436f6e73656e7375732061646472657373206d757374206e6f74206265206e756c6c2e4f6e6c792074686520636f6e73656e73757320636f6e74726163742063616e2063616c6c20746869732066756e6374696f6e2ea265627a7a72315820d9fd250343398c84582c2c56a8542dd09d9bfd07a40d4c2bb041ceed61f3bce764736f6c634300050d0032436f6d6d6974746565206d617374657220636f7079206164647265737320697320302e436f6e73656e7375732067617465776179206d617374657220636f7079206164647265737320697320302e52657075746174696f6e206d617374657220636f7079206164647265737320697320302e436f6e73656e737573206d617374657220636f7079206164647265737320697320302e",
  "source": "pragma solidity >=0.5.0 <0.6.0;\n\n// Copyright 2019 OpenST Ltd.\n//\n// Licensed under the Apache License, Version 2.0 (the \"License\");\n// you may not use this file except in compliance with the License.\n// You may obtain a copy of the License at\n//\n//    http://www.apache.org/licenses/LICENSE-2.0\n//\n// Unless required by applicable law or agreed to in writing, software\n// distributed under the License is distributed on an \"AS IS\" BASIS,\n// WITHOUT WARRANTIES OR CONDITIONS OF ANY KIND, either express or implied.\n// See the License for the specific language governing permissions and\n// limitations under the License.\n\nimport \"../../axiom/Axiom.sol\";\n\ncontract AxiomTest is Axiom {\n\n    /* Special Member Functions */\n\n    /**\n     * Constructor for Axiom contract\n     *\n     * @param _techGov Technical governance address.\n     * @param _consensusMasterCopy Consensus master copy contract address.\n     * @param _coreMasterCopy Core master copy contract address.\n     * @param _committeeMasterCopy Committee master copy contract address.\n     * @param _reputationMasterCopy Reputation master copy contract address.\n     * @param _anchorMasterCopy Anchor master copy contract address.\n     * @param _consensusGatewayMasterCopy Consensus gateway master copy contract address.\n     */\n    constructor(\n        address _techGov,\n        address _consensusMasterCopy,\n        address _coreMasterCopy,\n        address _committeeMasterCopy,\n        address _reputationMasterCopy,\n        address _anchorMasterCopy,\n        address _consensusGatewayMasterCopy\n    )\n        public\n        Axiom(\n            _techGov,\n            _consensusMasterCopy,\n            _coreMasterCopy,\n            _committeeMasterCopy,\n            _reputationMasterCopy,\n            _anchorMasterCopy,\n            _consensusGatewayMasterCopy\n        )\n    {\n\n    }\n    function setConsensus(ConsensusInterface _consensus) public {\n        consensus = _consensus;\n    }\n}\n",
  "sourcePath": "/Users/abhay/Documents/projects/abhayforks/mosaic-1/contracts/test/axiom/AxiomTest.sol",
  "compiler": {
    "name": "solc",
    "version": "0.5.13+commit.5b0b510c.Emscripten.clang"
  },
  "schemaVersion": "3.0.17",
  "updatedAt": "2020-03-21T06:48:34.777Z",
  "devdoc": {
    "methods": {
      "constructor": {
        "params": {
          "_anchorMasterCopy": "Anchor master copy contract address.",
          "_committeeMasterCopy": "Committee master copy contract address.",
          "_consensusGatewayMasterCopy": "Consensus gateway master copy contract address.",
          "_consensusMasterCopy": "Consensus master copy contract address.",
          "_coreMasterCopy": "Core master copy contract address.",
          "_reputationMasterCopy": "Reputation master copy contract address.",
          "_techGov": "Technical governance address."
        }
      },
      "deployAnchor(bytes)": {
        "params": {
          "_anchorSetupData": "Setup data for anchor contract."
        },
        "return": "anchor_ Address of anchor contract."
      },
      "deployMetachainProxies(bytes,bytes)": {
        "params": {
          "_consensusGatewaySetupData": "Setup data for consensus gateway contract.",
          "_coreSetupData": "Setup data for core contract."
        },
        "return": "core_ Address of core contract.consensusGateway_ Address of consensus gateway contract."
      },
      "newCommittee(bytes)": {
        "params": {
          "_data": "Setup function call data."
        },
        "return": "deployedAddress_ Deployed contract address."
      },
      "newCore(bytes)": {
        "params": {
          "_data": "Setup function call data."
        },
        "return": "Deployed contract address."
      },
      "newMetachain()": {
        "return": "metachainId_ Metachain id."
      },
      "setupConsensus(uint256,uint256,uint256,uint256,uint256,address,uint256,address,uint256,uint256,uint256,uint256)": {
        "params": {
          "_cashableEarningsPerMille": "Fraction of the total amount that can                                 be cashed by validators.",
          "_coinbaseSplitPerMille": "Coinbase split per mille.",
          "_committeeSize": "Max committee size that can be formed.",
          "_gasTargetDelta": "Gas target delta to open new metablock.",
          "_initialReputation": "Initial reputations that will be set when                          validators joins.",
          "_joinLimit": "Maximum number of validators that can join in a core.",
          "_minValidators": "Minimum number of validators that must join a                      created core to open.",
          "_most": "MOST token address.",
          "_stakeMOSTAmount": "Amount of MOST that will be staked by validators.",
          "_stakeWETHAmount": "Amount of wEth that will be staked by validators.",
          "_wETH": "wEth token address.",
          "_withdrawalCooldownPeriodInBlocks": "Cooling period for withdrawal                                         after logout."
        }
      }
    }
  },
  "userdoc": {
    "methods": {
      "constructor": "Constructor for Axiom contract",
      "deployAnchor(bytes)": {
        "notice": "Deploys proxy for anchor contract."
      },
      "deployMetachainProxies(bytes,bytes)": {
        "notice": "Deploys metachain proxies. Only consensus can call this function."
      },
      "newCommittee(bytes)": {
        "notice": "Deploy Committee proxy contract. This can be called only by consensus        contract."
      },
      "newCore(bytes)": {
        "notice": "Deploy Core proxy contract. This can be called only by consensus        contract."
      },
      "newMetachain()": {
        "notice": "Setup a new metachain. Only technical governance address can        call this function."
      },
      "setupConsensus(uint256,uint256,uint256,uint256,uint256,address,uint256,address,uint256,uint256,uint256,uint256)": {
        "notice": "Setup consensus contract, this can be only called once by        technical governance address."
      }
    }
  }
}