{
  "contractName": "CircularBufferUintTest",
  "abi": [
    {
      "constant": false,
      "inputs": [
        {
          "internalType": "uint256",
          "name": "_maxItems",
          "type": "uint256"
        }
      ],
      "name": "setupCircularBufferExternal",
      "outputs": [],
      "payable": false,
      "stateMutability": "nonpayable",
      "type": "function"
    }
  ],
  "bytecode": "0x608060405234801561001057600080fd5b506101dc806100206000396000f3fe608060405234801561001057600080fd5b506004361061002b5760003560e01c806398fb734614610030575b600080fd5b61004d6004803603602081101561004657600080fd5b503561004f565b005b6100588161005b565b50565b6000811161009a5760405162461bcd60e51b815260040180806020018281038252604d81526020018061015b604d913960600191505060405180910390fd5b600054156100d95760405162461bcd60e51b81526004018080602001828103825260278152602001806101346027913960400191505060405180910390fd5b806100e56000826100e9565b5050565b81548183558181111561010d5760008381526020902061010d918101908301610112565b505050565b61013091905b8082111561012c5760008155600101610118565b5090565b9056fe43697263756c6172206275666665722073697a652063616e206265207365747570206f6e63652e546865206d6178206e756d626572206f66206974656d7320746f2073746f726520696e20612063697263756c617220627566666572206d7573742062652067726561746572207468616e20302ea265627a7a72315820e2aae664e654f8ee594040aa297840d4b77d1352afea2f1e36569b7ed98b008c64736f6c634300050d0032",
  "source": "pragma solidity >=0.5.0 <0.6.0;\n\nimport \"../../lib/CircularBufferUint.sol\";\n\n// Copyright 2019 OpenST Ltd.\n//\n// Licensed under the Apache License, Version 2.0 (the \"License\");\n// you may not use this file except in compliance with the License.\n// You may obtain a copy of the License at\n//\n//    http://www.apache.org/licenses/LICENSE-2.0\n//\n// Unless required by applicable law or agreed to in writing, software\n// distributed under the License is distributed on an \"AS IS\" BASIS,\n// WITHOUT WARRANTIES OR CONDITIONS OF ANY KIND, either express or implied.\n// See the License for the specific language governing permissions and\n// limitations under the License.\n\n\ncontract CircularBufferUintTest is CircularBufferUint {\n\n    function setupCircularBufferExternal(uint256 _maxItems) external {\n        setupCircularBuffer(_maxItems);\n    }\n}\n",
  "sourcePath": "/Users/abhay/Documents/projects/abhayforks/mosaic-1/contracts/test/circular_buffer_uint/CircularBufferUintTest.sol",
  "compiler": {
    "name": "solc",
    "version": "0.5.13+commit.5b0b510c.Emscripten.clang"
  },
  "schemaVersion": "3.0.17",
  "updatedAt": "2020-03-21T06:48:34.780Z",
  "devdoc": {
    "methods": {}
  },
  "userdoc": {
    "methods": {}
  }
}