{
  "contractName": "Coconsensus",
  "abi": [
    {
      "constant": true,
      "inputs": [],
      "name": "DOMAIN_SEPARATOR_VERSION",
      "outputs": [
        {
          "internalType": "string",
          "name": "",
          "type": "string"
        }
      ],
      "payable": false,
      "stateMutability": "view",
      "type": "function"
    },
    {
      "constant": true,
      "inputs": [],
      "name": "KERNEL_TYPEHASH",
      "outputs": [
        {
          "internalType": "bytes32",
          "name": "",
          "type": "bytes32"
        }
      ],
      "payable": false,
      "stateMutability": "view",
      "type": "function"
    },
    {
      "constant": true,
      "inputs": [],
      "name": "SENTINEL_METACHAIN_ID",
      "outputs": [
        {
          "internalType": "bytes32",
          "name": "",
          "type": "bytes32"
        }
      ],
      "payable": false,
      "stateMutability": "view",
      "type": "function"
    },
    {
      "constant": true,
      "inputs": [],
      "name": "VOTE_MESSAGE_TYPEHASH",
      "outputs": [
        {
          "internalType": "bytes32",
          "name": "",
          "type": "bytes32"
        }
      ],
      "payable": false,
      "stateMutability": "view",
      "type": "function"
    },
    {
      "constant": true,
      "inputs": [
        {
          "internalType": "bytes32",
          "name": "",
          "type": "bytes32"
        }
      ],
      "name": "blockTips",
      "outputs": [
        {
          "internalType": "uint256",
          "name": "",
          "type": "uint256"
        }
      ],
      "payable": false,
      "stateMutability": "view",
      "type": "function"
    },
    {
      "constant": true,
      "inputs": [
        {
          "internalType": "bytes32",
          "name": "",
          "type": "bytes32"
        },
        {
          "internalType": "uint256",
          "name": "",
          "type": "uint256"
        }
      ],
      "name": "blockchains",
      "outputs": [
        {
          "internalType": "bytes32",
          "name": "blockHash",
          "type": "bytes32"
        },
        {
          "internalType": "enum Coconsensus.CheckpointCommitStatus",
          "name": "commitStatus",
          "type": "uint8"
        },
        {
          "internalType": "uint256",
          "name": "statusDynasty",
          "type": "uint256"
        }
      ],
      "payable": false,
      "stateMutability": "view",
      "type": "function"
    },
    {
      "constant": true,
      "inputs": [
        {
          "internalType": "bytes32",
          "name": "",
          "type": "bytes32"
        }
      ],
      "name": "domainSeparators",
      "outputs": [
        {
          "internalType": "bytes32",
          "name": "",
          "type": "bytes32"
        }
      ],
      "payable": false,
      "stateMutability": "view",
      "type": "function"
    },
    {
      "constant": true,
      "inputs": [
        {
          "internalType": "bytes32",
          "name": "",
          "type": "bytes32"
        }
      ],
      "name": "genesisMetachainIds",
      "outputs": [
        {
          "internalType": "bytes32",
          "name": "",
          "type": "bytes32"
        }
      ],
      "payable": false,
      "stateMutability": "view",
      "type": "function"
    },
    {
      "constant": true,
      "inputs": [
        {
          "internalType": "bytes32",
          "name": "",
          "type": "bytes32"
        }
      ],
      "name": "genesisObservers",
      "outputs": [
        {
          "internalType": "address",
          "name": "",
          "type": "address"
        }
      ],
      "payable": false,
      "stateMutability": "view",
      "type": "function"
    },
    {
      "constant": true,
      "inputs": [],
      "name": "genesisOriginMetachainId",
      "outputs": [
        {
          "internalType": "bytes32",
          "name": "",
          "type": "bytes32"
        }
      ],
      "payable": false,
      "stateMutability": "view",
      "type": "function"
    },
    {
      "constant": true,
      "inputs": [
        {
          "internalType": "bytes32",
          "name": "",
          "type": "bytes32"
        }
      ],
      "name": "genesisProtocores",
      "outputs": [
        {
          "internalType": "address",
          "name": "",
          "type": "address"
        }
      ],
      "payable": false,
      "stateMutability": "view",
      "type": "function"
    },
    {
      "constant": true,
      "inputs": [],
      "name": "genesisSelfMetachainId",
      "outputs": [
        {
          "internalType": "bytes32",
          "name": "",
          "type": "bytes32"
        }
      ],
      "payable": false,
      "stateMutability": "view",
      "type": "function"
    },
    {
      "constant": true,
      "inputs": [
        {
          "internalType": "bytes32",
          "name": "",
          "type": "bytes32"
        }
      ],
      "name": "observers",
      "outputs": [
        {
          "internalType": "contract ObserverInterface",
          "name": "",
          "type": "address"
        }
      ],
      "payable": false,
      "stateMutability": "view",
      "type": "function"
    },
    {
      "constant": true,
      "inputs": [],
      "name": "originMetachainId",
      "outputs": [
        {
          "internalType": "bytes32",
          "name": "",
          "type": "bytes32"
        }
      ],
      "payable": false,
      "stateMutability": "view",
      "type": "function"
    },
    {
      "constant": true,
      "inputs": [
        {
          "internalType": "bytes32",
          "name": "",
          "type": "bytes32"
        }
      ],
      "name": "protocores",
      "outputs": [
        {
          "internalType": "contract ProtocoreInterface",
          "name": "",
          "type": "address"
        }
      ],
      "payable": false,
      "stateMutability": "view",
      "type": "function"
    },
    {
      "constant": true,
      "inputs": [],
      "name": "relativeSelfDynasty",
      "outputs": [
        {
          "internalType": "uint256",
          "name": "",
          "type": "uint256"
        }
      ],
      "payable": false,
      "stateMutability": "view",
      "type": "function"
    },
    {
      "constant": true,
      "inputs": [],
      "name": "selfMetachainId",
      "outputs": [
        {
          "internalType": "bytes32",
          "name": "",
          "type": "bytes32"
        }
      ],
      "payable": false,
      "stateMutability": "view",
      "type": "function"
    },
    {
      "constant": false,
      "inputs": [],
      "name": "setup",
      "outputs": [],
      "payable": false,
      "stateMutability": "nonpayable",
      "type": "function"
    },
    {
      "constant": false,
      "inputs": [
        {
          "internalType": "bytes32",
          "name": "_metachainId",
          "type": "bytes32"
        },
        {
          "internalType": "uint256",
          "name": "_kernelHeight",
          "type": "uint256"
        },
        {
          "internalType": "address[]",
          "name": "_updatedValidators",
          "type": "address[]"
        },
        {
          "internalType": "uint256[]",
          "name": "_updatedReputation",
          "type": "uint256[]"
        },
        {
          "internalType": "uint256",
          "name": "_gasTarget",
          "type": "uint256"
        },
        {
          "internalType": "bytes32",
          "name": "_transitionHash",
          "type": "bytes32"
        },
        {
          "internalType": "bytes32",
          "name": "_source",
          "type": "bytes32"
        },
        {
          "internalType": "bytes32",
          "name": "_target",
          "type": "bytes32"
        },
        {
          "internalType": "uint256",
          "name": "_sourceBlockNumber",
          "type": "uint256"
        },
        {
          "internalType": "uint256",
          "name": "_targetBlockNumber",
          "type": "uint256"
        }
      ],
      "name": "commitCheckpoint",
      "outputs": [],
      "payable": false,
      "stateMutability": "nonpayable",
      "type": "function"
    },
    {
      "constant": false,
      "inputs": [
        {
          "internalType": "bytes32",
          "name": "_metachainId",
          "type": "bytes32"
        },
        {
          "internalType": "uint256",
          "name": "_blockNumber",
          "type": "uint256"
        },
        {
          "internalType": "bytes32",
          "name": "_blockHash",
          "type": "bytes32"
        }
      ],
      "name": "finaliseCheckpoint",
      "outputs": [],
      "payable": false,
      "stateMutability": "nonpayable",
      "type": "function"
    },
    {
      "constant": false,
      "inputs": [
        {
          "internalType": "bytes32",
          "name": "_metachainId",
          "type": "bytes32"
        },
        {
          "internalType": "bytes",
          "name": "_rlpBlockHeader",
          "type": "bytes"
        }
      ],
      "name": "observeBlock",
      "outputs": [],
      "payable": false,
      "stateMutability": "nonpayable",
      "type": "function"
    }
  ],
  "bytecode": "0x6080604052600e80546001600160a01b0319908116614d0117909155600f8054909116614d0217905534801561003457600080fd5b50611ee8806100446000396000f3fe608060405234801561001057600080fd5b50600436106101375760003560e01c806381673b22116100b8578063ba0bba401161007c578063ba0bba4014610400578063c74a01e914610408578063d7e6662f14610410578063e86ff41a14610487578063fe6b62cd146104a4578063fee7de65146104c157610137565b806381673b221461034e578063a1a3835114610356578063a5418f7f1461035e578063a847bbbc14610366578063b4907ddc1461038357610137565b806336c7e08d116100ff57806336c7e08d146102095780633ba7101114610226578063584aea471461022e57806367b05f5b1461031d5780636d7e4a681461032557610137565b806306023ed81461013c578063114c1f401461015657806311f8c202146101ab5780631a65aa85146101e457806321c0bc4914610201575b600080fd5b6101446104de565b60408051918252519081900360200190f35b6101796004803603604081101561016c57600080fd5b50803590602001356104e4565b6040518084815260200183600281111561018f57fe5b60ff168152602001828152602001935050505060405180910390f35b6101c8600480360360208110156101c157600080fd5b5035610513565b604080516001600160a01b039092168252519081900360200190f35b610144600480360360208110156101fa57600080fd5b503561052e565b610144610540565b6101446004803603602081101561021f57600080fd5b503561055b565b61014461056d565b61031b600480360361014081101561024557600080fd5b81359160208101359181019060608101604082013564010000000081111561026c57600080fd5b82018360208201111561027e57600080fd5b803590602001918460208302840111640100000000831117156102a057600080fd5b9193909290916020810190356401000000008111156102be57600080fd5b8201836020820111156102d057600080fd5b803590602001918460208302840111640100000000831117156102f257600080fd5b919350915080359060208101359060408101359060608101359060808101359060a00135610588565b005b61014461077e565b61031b6004803603606081101561033b57600080fd5b5080359060208101359060400135610784565b610144610901565b610144610907565b61014461090d565b6101446004803603602081101561037c57600080fd5b5035610913565b61038b610925565b6040805160208082528351818301528351919283929083019185019080838360005b838110156103c55781810151838201526020016103ad565b50505050905090810190601f1680156103f25780820380516001836020036101000a031916815260200191505b509250505060405180910390f35b61031b610942565b6101446109ed565b61031b6004803603604081101561042657600080fd5b8135919081019060408101602082013564010000000081111561044857600080fd5b82018360208201111561045a57600080fd5b8035906020019184600183028401116401000000008311171561047c57600080fd5b5090925090506109f3565b6101c86004803603602081101561049d57600080fd5b5035610ccd565b6101c8600480360360208110156104ba57600080fd5b5035610ce8565b6101c8600480360360208110156104d757600080fd5b5035610d03565b60075481565b6009602090815260009283526040808420909152908252902080546001820154600290920154909160ff169083565b6005602052600090815260409020546001600160a01b031681565b600a6020526000908152604090205481565b604051806087611c3182396087019050604051809103902081565b600d6020526000908152604090205481565b604051806080611cf682396080019050604051809103902081565b6007548c146105c85760405162461bcd60e51b8152600401808060200182810382526027815260200180611dcd6027913960400191505060405180910390fd5b6105d28c83610d1e565b600061065b8c8c8c80806020026020016040519081016040528093929190818152602001838360200280828437600081840152601f19601f820116905080830192505050505050508b8b808060200260200160405190810160405280939291908181526020018383602002808284376000920191909152508d92508c91508b90508a8a8a610d99565b90506000600b60008f815260200190815260200160002060009054906101000a90046001600160a01b03169050610708818e8e8e80806020026020016040519081016040528093929190818152602001838360200280828437600081840152601f19601f820116905080830192505050505050508d8d80806020026020016040519081016040528093929190818152602001838360200280828437600092019190915250610e9d92505050565b806001600160a01b03166309673c1d8e846040518363ffffffff1660e01b81526004018083815260200182815260200192505050600060405180830381600087803b15801561075657600080fd5b505af115801561076a573d6000803e3d6000fd5b505050505050505050505050505050505050565b60085481565b6000838152600b602052604090205483906001600160a01b031633146107db5760405162461bcd60e51b8152600401808060200182810382526036815260200180611d976036913960400191505060405180910390fd5b8361082d576040805162461bcd60e51b815260206004820152601e60248201527f4d657461636861696e206964206d757374206e6f74206265206e756c6c2e0000604482015290519081900360640190fd5b8161087f576040805162461bcd60e51b815260206004820152601b60248201527f426c6f636b68617368206d757374206e6f74206265206e756c6c2e0000000000604482015290519081900360640190fd5b6000848152600a602052604090205480841161089757fe5b6007548514156108b9576008546108b590600163ffffffff610ff516565b6008555b5050600083815260096020908152604080832085845282528083209384556001808501805460ff19169091179055600854600290940193909355938152600a90935290912055565b60015481565b60001981565b60065481565b60036020526000908152604090205481565b604051806040016040528060018152602001600360fc1b81525081565b600754156109815760405162461bcd60e51b815260040180806020018281038252602c815260200180611df4602c913960400191505060405180910390fd5b60015460065560025460075560001960005260036020527fb1ee3b3d0d99532dd9f14b22c0b908d4eec0e052c3827bbed2d6c3986954d08c545b60001981146109ea576109cd8161100e565b6109d6816111b4565b6000908152600360205260409020546109bb565b50565b60025481565b82610a45576040805162461bcd60e51b815260206004820152601e60248201527f4d657461636861696e206964206d757374206e6f74206265206e756c6c2e0000604482015290519081900360640190fd5b80610a815760405162461bcd60e51b8152600401808060200182810382526022815260200180611e446022913960400191505060405180910390fd5b600754831415610ac25760405162461bcd60e51b815260040180806020018281038252602b815260200180611e89602b913960400191505060405180910390fd5b610aca611b26565b610b0983838080601f01602080910402602001604051908101604052809392919081815260200183838082843760009201919091525061124a92505050565b9050610b13611ba9565b60008581526009602090815260408083206101208601518452825291829020825160608101909352805483526001810154909183019060ff166002811115610b5757fe5b6002811115610b6257fe5b8152600291909101546020909101528251815191925014610bb45760405162461bcd60e51b8152600401808060200182810382526023815260200180611e666023913960400191505060405180910390fd5b600181602001516002811115610bc657fe5b1015610c035760405162461bcd60e51b8152600401808060200182810382526021815260200180611d766021913960400191505060405180910390fd5b806040015160085411610c475760405162461bcd60e51b815260040180806020018281038252603e815260200180611cb8603e913960400191505060405180910390fd5b6000858152600c60205260408082205461012085015160808601518351630b9e258f60e31b81526004810192909252602482015291516001600160a01b03909116928392635cf12c78926044808301939282900301818387803b158015610cad57600080fd5b505af1158015610cc1573d6000803e3d6000fd5b50505050505050505050565b600b602052600090815260409020546001600160a01b031681565b600c602052600090815260409020546001600160a01b031681565b6004602052600090815260409020546001600160a01b031681565b6000828152600960209081526040808320848452909152902060018082015460ff166002811115610d4b57fe5b14610d875760405162461bcd60e51b8152600401808060200182810382526024815260200180611e206024913960400191505060405180910390fd5b600101805460ff191660021790555050565b6007546000908152600d602052604081205481610dba82898989898961141d565b9050610dca828d838e8e8e6114c4565b92506000610dd6611628565b90506000816001600160a01b0316639d9ea0f58f6040518263ffffffff1660e01b815260040180828152602001915050602060405180830381600087803b158015610e2057600080fd5b505af1158015610e34573d6000803e3d6000fd5b505050506040513d6020811015610e4a57600080fd5b50519050848114610e8c5760405162461bcd60e51b8152600401808060200182810382526037815260200180611bfa6037913960400191505060405180910390fd5b505050509998505050505050505050565b836000610ea8611637565b905060005b8451811015610fec576000858281518110610ec457fe5b602002602001015190506000858381518110610edc57fe5b60200260200101519050836001600160a01b0316635a0738b283836040518363ffffffff1660e01b815260040180836001600160a01b03166001600160a01b0316815260200182815260200192505050600060405180830381600087803b158015610f4657600080fd5b505af1158015610f5a573d6000803e3d6000fd5b505060408051637de1a74360e11b81526001600160a01b038681166004830152602482018d9052604482018690529151918916935063fbc34e86925060648082019260009290919082900301818387803b158015610fb757600080fd5b505af1158015610fcb573d6000803e3d6000fd5b505050505050610fe5600182610ff590919063ffffffff16565b9050610ead565b50505050505050565b60008282018381101561100757600080fd5b9392505050565b600081815260056020908152604080832054600b90925280832080546001600160a01b0319166001600160a01b03909316928317905580516302e82ee960e61b815281519293849390928392859263ba0bba409260048084019391929182900301818787803b15801561108057600080fd5b505af1158015611094573d6000803e3d6000fd5b505050506040513d60408110156110aa57600080fd5b5080516020918201516040805163f698da2560e01b815290519295509093506001600160a01b0386169263f698da25926004808401938290030181600087803b1580156110f657600080fd5b505af115801561110a573d6000803e3d6000fd5b505050506040513d602081101561112057600080fd5b50516000868152600d60209081526040918290209290925580516060810190915283815290810160018152600854602091820152600087815260098252604080822085835283529020825181559082015160018083018054909160ff199091169083600281111561118d57fe5b02179055506040918201516002909101556000958652600a60205290942093909355505050565b6000818152600460205260409020546001600160a01b03168015611246576000828152600c602052604080822080546001600160a01b0319166001600160a01b03851690811790915581516302e82ee960e61b815291518493919263ba0bba4092600480830193919282900301818387803b15801561123257600080fd5b505af1158015610fec573d6000803e3d6000fd5b5050565b611252611b26565b81516020830120611261611bcc565b61126a84611646565b905060606112778261168f565b90506040518061020001604052808481526020016112a88360008151811061129b57fe5b6020026020010151611741565b81526020016112bd8360018151811061129b57fe5b81526020016112df836002815181106112d257fe5b6020026020010151611752565b6001600160a01b031681526020016112fd8360038151811061129b57fe5b81526020016113128360048151811061129b57fe5b81526020016113278360058151811061129b57fe5b81526020016113498360068151811061133c57fe5b6020026020010151611793565b815260200161136b8360078151811061135e57fe5b60200260200101516117e9565b81526020016113808360088151811061135e57fe5b81526020016113958360098151811061135e57fe5b67ffffffffffffffff1681526020016113b483600a8151811061135e57fe5b67ffffffffffffffff1681526020016113d383600b8151811061135e57fe5b81526020016113e883600c8151811061133c57fe5b81526020016113fd83600d8151811061129b57fe5b815260200161141283600e8151811061135e57fe5b905295945050505050565b6000806040518080611c3160879139604080519182900360870182206020808401919091528282019a909a526060820198909852608081019690965250505060a083019190915260c0808301919091528251808303909101815260e082018352805190840120601960f81b610100830152600160f81b6101018301526101028201949094526101228082019490945281518082039094018452610142019052815191012090565b6000806040518080611cf660809139608001905060405180910390208787878787604051602001808781526020018681526020018581526020018060200180602001848152602001838103835286818151815260200191508051906020019060200280838360005b8381101561154457818101518382015260200161152c565b50505050905001838103825285818151815260200191508051906020019060200280838360005b8381101561158357818101518382015260200161156b565b5050505090500198505050505050505050604051602081830303815290604052805190602001209050601960f81b600160f81b898360405160200180856001600160f81b0319166001600160f81b0319168152600101846001600160f81b0319166001600160f81b0319168152600101838152602001828152602001945050505050604051602081830303815290604052805190602001209150509695505050505050565b600f546001600160a01b031690565b600e546001600160a01b031690565b61164e611bcc565b815180611670575050604080518082019091526000808252602082015261168a565b604080518082019091526020848101825281019190915290505b919050565b606061169a82611839565b6116a357600080fd5b60006116ae83611860565b9050806040519080825280602002602001820160405280156116ea57816020015b6116d7611bcc565b8152602001906001900390816116cf5790505b5091506116f5611be6565b6116fe846118c4565b905060005b61170c826118fb565b156117395761171a8261191a565b84828151811061172657fe5b6020908102919091010152600101611703565b505050919050565b600061174c826117e9565b92915050565b600061175d8261195e565b61176657600080fd5b60008061177284611984565b90925090506014811461178457600080fd5b5051600160601b900492915050565b6020810151606090806117a6575061168a565b806040519080825280601f01601f1916602001820160405280156117d1576020820181803883390190505b5091506117e3836000015183836119f4565b50919050565b60006117f48261195e565b6117fd57600080fd5b60008061180984611984565b9092509050602081118061181b575080155b1561182557600080fd5b806020036101000a82510492505050919050565b60008160200151600014156118505750600061168a565b50515160c060009190911a101590565b600061186b82611839565b6118775750600061168a565b81518051600090811a919061188b85611a1b565b6020860151908301915082016000190160005b8183116118ba576118ae83611a99565b9092019160010161189e565b9695505050505050565b6118cc611be6565b6118d582611839565b6118de57600080fd5b60006118e983611a1b565b83519383529092016020820152919050565b6000611905611bcc565b50508051602080820151915192015191011190565b611922611bcc565b61192b826118fb565b61193457600080fd5b6020820151600061194482611a99565b828452602080850182905292019390910192909252919050565b60008160200151600014156119755750600061168a565b50515160c060009190911a1090565b6000806119908361195e565b61199957600080fd5b8251805160001a9060808210156119b7579250600191506119ef9050565b60b88210156119d557600185602001510392508060010193506119ec565b602085015182820160b51901945082900360b60192505b50505b915091565b6000601f820184602085015b82841015610fec578382015184820152602084019350611a00565b6000816020015160001415611a325750600061168a565b8151805160001a906080821015611a4e5760009250505061168a565b60b8821080611a69575060c08210158015611a69575060f882105b15611a795760019250505061168a565b60c0821015611a8e575060b51901905061168a565b5060f5190192915050565b8051600090811a6080811015611ab257600191506117e3565b60b8811015611ac757607e19810191506117e3565b60c0811015611af057600183015160b76020839003016101000a9004810160b5190191506117e3565b60f8811015611b055760be19810191506117e3565b6001929092015160f76020849003016101000a900490910160f51901919050565b604080516102008101825260008082526020820181905291810182905260608082018390526080820183905260a0820183905260c0820183905260e08201819052610100820183905261012082018390526101408201839052610160820183905261018082018390526101a08201526101c081018290526101e081019190915290565b6040805160608101909152600080825260208201905b8152602001600081525090565b604051806040016040528060008152602001600081525090565b6040518060400160405280611bbf611bcc56fe47656e657261746564206b65726e656c2068617368206973206e6f7420657175616c20746f206f70656e206b65726e656c20686173682e566f74654d6573736167652862797465733332207472616e736974696f6e486173682c6279746573333220736f75726365426c6f636b486173682c6279746573333220746172676574426c6f636b486173682c75696e7432353620736f75726365426c6f636b4e756d6265722c75696e7432353620746172676574426c6f636b4e756d6265722952656c61746976652073656c662064796e61737479206d7573742062652067726561746572207468616e20746865207374617475732064796e617374792e4b65726e656c2875696e74323536206865696768742c6279746573333220706172656e742c616464726573735b5d207570646174656456616c696461746f72732c75696e743235365b5d207570646174656452657075746174696f6e2c75696e74323536206761735461726765742c75696e7432353620676173507269636529426c6f636b206d757374206265206174206c656173742066696e616c697a65642e50726f746f636f7265206973206e6f7420617661696c61626c6520666f722074686520676976656e206d657461636861696e2069642e4d657461636861696e206964206d7573742062652073656c66206d657461636861696e2069642e436f636f6e73656e73757320636f6e747261637420697320616c726561647920696e697469616c697a65642e536f7572636520636865636b706f696e74206d7573742062652066696e616c697a65642e524c5020626c6f636b20686561646572206d757374206e6f74206265206e756c6c2e50726f766964656420626c6f636b20686561646572206973206e6f742076616c69642e4d657461636861696e206964206d757374206e6f742062652073656c66206d657461636861696e2069642ea265627a7a72315820b190105ff71ba6b9ade017d4ce949bd583c57ac2e55eb02592b0d48ad37904e864736f6c634300050d0032",
  "source": "pragma solidity >=0.5.0 <0.6.0;\n\n// Copyright 2020 OpenST Ltd.\n//\n// Licensed under the Apache License, Version 2.0 (the \"License\");\n// you may not use this file except in compliance with the License.\n// You may obtain a copy of the License at\n//\n//    http://www.apache.org/licenses/LICENSE-2.0\n//\n// Unless required by applicable law or agreed to in writing, software\n// distributed under the License is distributed on an \"AS IS\" BASIS,\n// WITHOUT WARRANTIES OR CONDITIONS OF ANY KIND, either express or implied.\n// See the License for the specific language governing permissions and\n// limitations under the License.\n\nimport \"../anchor/ObserverInterface.sol\";\nimport \"../block/BlockHeader.sol\";\nimport \"../consensus/GenesisCoconsensus.sol\";\nimport \"../consensus-gateway/ConsensusCogatewayInterface.sol\";\nimport \"../protocore/ProtocoreInterface.sol\";\nimport \"../protocore/SelfProtocoreInterface.sol\";\nimport \"../proxies/MasterCopyNonUpgradable.sol\";\nimport \"../reputation/CoreputationInterface.sol\";\nimport \"../version/MosaicVersion.sol\";\nimport \"../vote-message/VoteMessage.sol\";\n\nimport \"openzeppelin-solidity/contracts/math/SafeMath.sol\";\n\n/**\n * @title Coconsensus contract - This mirrors the consensus contract on\n *        the auxiliary chain.\n */\ncontract Coconsensus is\n    MasterCopyNonUpgradable,\n    GenesisCoconsensus,\n    VoteMessage,\n    MosaicVersion\n{\n    /* Usings */\n\n    using SafeMath for uint256;\n\n\n    /* Enums */\n\n    /** Enum for status of committed checkpoint. */\n    enum CheckpointCommitStatus {\n        Undefined,\n        Finalized,\n        Committed\n    }\n\n\n    /* Structs */\n\n    /** Struct to track dynasty and checkpoint commit status of a block. */\n    struct Block {\n        bytes32 blockHash;\n        CheckpointCommitStatus commitStatus;\n        uint256 statusDynasty;\n    }\n\n\n    /* Constants */\n\n    /** EIP-712 type hash for Kernel. */\n    bytes32 public constant KERNEL_TYPEHASH = keccak256(\n        \"Kernel(uint256 height,bytes32 parent,address[] updatedValidators,uint256[] updatedReputation,uint256 gasTarget,uint256 gasPrice)\"\n    );\n\n    /**\n     * Sentinel pointer for marking the ending of circular,\n     * linked-list of genesis metachain ids.\n     */\n    bytes32 public constant SENTINEL_METACHAIN_ID = bytes32(\n        0xffffffffffffffffffffffffffffffffffffffffffffffffffffffffffffffff\n    );\n\n\n    /* Storage */\n\n    /** Metachain id of the origin chain. */\n    bytes32 public originMetachainId;\n\n    /** Metachain id of the auxiliary chain (self). */\n    bytes32 public selfMetachainId;\n\n    /**\n     * Relative self dynasty of self protocore. This will be incremented when the\n     * self protocore contract will call `finalizeCheckpoint`\n     */\n    uint256 public relativeSelfDynasty;\n\n    /** Mapping to track the finalised blocks of each metachain. */\n    mapping (bytes32 /* metachainId */ =>\n        mapping(uint256 /* blocknumber */ => Block)\n    ) public blockchains;\n\n    /**\n     * Mapping of metachain id to latest block number(tip) stored\n     * in blockchains.\n     */\n    mapping (bytes32 /* metachainId */ => uint256 /* blocknumber */) public blockTips;\n\n    /** Mapping of metachain id to the protocore contract address. */\n    mapping (bytes32 /* metachainId */ => ProtocoreInterface) public protocores;\n\n    /** Mapping of metachain id to the observers contract address. */\n    mapping (bytes32 /* metachainId */ => ObserverInterface) public observers;\n\n    /** Mapping of metachain id to the domain separators. */\n    mapping (bytes32 /* metachainId */ => bytes32 /* domain separator */) public domainSeparators;\n\n    /** Coreputation contract address. */\n    address private COREPUTATION = address(\n        0x0000000000000000000000000000000000004D01\n    );\n\n    /** Consensus cogateway contract address. */\n    address private CONSENSUS_COGATEWAY = address(\n        0x0000000000000000000000000000000000004d02\n    );\n\n\n    /* Modifiers */\n\n    modifier onlyRunningProtocore(bytes32 _metachainId)\n    {\n        require(\n            msg.sender == address(protocores[_metachainId]),\n            \"Protocore is not available for the given metachain id.\"\n        );\n\n        _;\n    }\n\n\n    /* Special Functions */\n\n    /**\n     * @notice Setup function does the initialization of all the mosaic\n     *         contracts on the auxiliary chain.\n     *\n     * @dev This function can be called only once.\n     */\n    function setup() public {\n\n        require(\n            selfMetachainId == bytes32(0),\n            \"Coconsensus contract is already initialized.\"\n        );\n\n        originMetachainId = genesisOriginMetachainId;\n\n        selfMetachainId = genesisSelfMetachainId;\n\n        bytes32 currentMetachainId = genesisMetachainIds[SENTINEL_METACHAIN_ID];\n\n        // Loop through the genesis metachainId link list.\n        while (currentMetachainId != SENTINEL_METACHAIN_ID) {\n\n            // Setup protocore contract for the given metachain id.\n            setupProtocore(currentMetachainId);\n\n            // Setup observer contract for the given metachain id.\n            setupObserver(currentMetachainId);\n\n            // Traverse to next metachain id from the link list mapping.\n            currentMetachainId = genesisMetachainIds[currentMetachainId];\n        }\n    }\n\n\n    /* External Functions */\n\n    /**\n     * @notice Updates the validator set and its reputations with opening of\n     *         a new metablock.\n     *\n     * @param _metachainId Metachain Id.\n     * @param _kernelHeight New kernel height\n     * @param _updatedValidators  The array of addresses of the updated validators.\n     * @param _updatedReputation The array of reputation that corresponds to\n     *                        the updated validators.\n     * @param _gasTarget The gas target for the metablock\n     * @param _transitionHash Transition hash.\n     * @param _source Blockhash of source checkpoint.\n     * @param _target Blockhash of target checkpoint.\n     * @param _sourceBlockNumber Block number of source checkpoint.\n     * @param _targetBlockNumber Block number af target checkpoint.\n     *\n     * \\pre `_metachainId` is self metachain id.\n     * \\pre `_source` is not 0.\n     * \\pre `_target` is not 0.\n     * \\pre `_sourceBlockNumber` is a checkpoint.\n     * \\pre `_targetBlockNumber` is a checkpoint.\n     * \\pre `_targetBlockNumber` is greater than `_sourceBlockNumber`.\n     * \\pre Source checkpoint is finalized.\n     * \\pre Open kernel hash exists in `ConsensusCogateway` contract for the\n     *      given `_kernelHeight`.\n     *\n     * \\post Updates the validator set in self protocore.\n     * \\post Updates the reputation of validators.\n     * \\post Opens a new metablock in self protocore.\n     */\n    function commitCheckpoint(\n        bytes32 _metachainId,\n        uint256 _kernelHeight,\n        address[] calldata _updatedValidators,\n        uint256[] calldata _updatedReputation,\n        uint256 _gasTarget,\n        bytes32 _transitionHash,\n        bytes32 _source,\n        bytes32 _target,\n        uint256 _sourceBlockNumber,\n        uint256 _targetBlockNumber\n    )\n        external\n    {\n        require(\n            _metachainId == selfMetachainId,\n            \"Metachain id must be self metachain id.\"\n        );\n\n        // Change the status of source block to committed.\n        commitCheckpointInternal(_metachainId, _sourceBlockNumber);\n\n        // Assert that the kernel hash is opened.\n        bytes32 openKernelHash = assertOpenKernel(\n            _kernelHeight,\n            _updatedValidators,\n            _updatedReputation,\n            _gasTarget,\n            _transitionHash,\n            _source,\n            _target,\n            _sourceBlockNumber,\n            _targetBlockNumber\n        );\n\n        ProtocoreInterface protocore = protocores[_metachainId];\n\n        /*\n         * Update reputation of validators and update the validator set in self\n         * protocore contract.\n         */\n        updateValidatorSet(\n            address(protocore),\n            _kernelHeight,\n            _updatedValidators,\n            _updatedReputation\n        );\n\n        // Open new kernel on self protocore contract.\n        protocore.openKernel(\n            _kernelHeight,\n            openKernelHash\n        );\n    }\n\n    /**\n     * @notice finaliseCheckpoint() function finalizes a checkpoint at\n     *         a metachain.\n     *\n     * @param _metachainId A metachain id to finalize a checkpoint.\n     * @param _blockNumber A block number of a checkpoint.\n     * @param _blockHash A block hash of a checkpoint.\n     *\n     * \\pre `_metachainId` is not 0.\n     * \\pre `_blockHash` is not 0.\n     * \\pre `msg.sender` should be the protocore contract.\n     * \\pre `_blockNumber` must be multiple of epoch length.\n     * \\pre `_blockNumber` must be greater than the last finalized block number.\n     *\n     * \\post Increment the `relativeSelfDynasty` storage value by one if the\n     *       `msg.sender` is self protocore contract address.\n     * \\post Adds a new `Block` in the `blockchains` mapping.\n     * \\post Updates the `blockTips` mapping with provided `_blockNumber`.\n     */\n    function finaliseCheckpoint(\n        bytes32 _metachainId,\n        uint256 _blockNumber,\n        bytes32 _blockHash\n    )\n        external\n        onlyRunningProtocore(_metachainId)\n    {\n        // Check if the metachain id is not null.\n        require(\n            _metachainId != bytes32(0),\n            \"Metachain id must not be null.\"\n        );\n        // Check if the blockhash is not null.\n        require(\n            _blockHash != bytes32(0),\n            \"Blockhash must not be null.\"\n        );\n\n        /*\n         * Assert that the new block number is greater than the last\n         * finalised block number.\n         */\n        uint256 lastFinalisedBlockNumber = blockTips[_metachainId];\n        assert(_blockNumber > lastFinalisedBlockNumber);\n\n        /*\n         * If the `_metachainId` is `selfMetachainId`, increment the\n         * `relativeSelfDynasty` by one.\n         */\n        if(_metachainId == selfMetachainId) {\n            relativeSelfDynasty = relativeSelfDynasty.add(1);\n        }\n\n        // Store the finalised block in the mapping.\n        Block storage finalisedBlock = blockchains[_metachainId][_blockNumber];\n        finalisedBlock.blockHash = _blockHash;\n        finalisedBlock.commitStatus = CheckpointCommitStatus.Finalized;\n        finalisedBlock.statusDynasty = relativeSelfDynasty;\n\n        // Store the tip.\n        blockTips[_metachainId] = _blockNumber;\n    }\n\n    /**\n     * @notice Observes the given block by anchoring its state root into the\n     *         corresponding observer.\n     *\n     * @param _metachainId Metachain id.\n     * @param _rlpBlockHeader RLP encoded block header.\n     *\n     * \\pre `_metachainId` is not 0.\n     * \\pre `_rlpBlockHeader` is not 0.\n     * \\pre `_metachainId` is not `selfMetachainId`.\n     * \\pre A block must exist in `blockchains` storage for the given\n     *      `_metachainid` and block number from the decoded `_rlpBlockHeader`.\n     * \\pre The commit status of the block must be at least `Finalized`.\n     * \\pre The status dynasty of the block is less than `relativeSelfDynasty`.\n     *\n     * \\post Anchors the state root in the observer contract.\n     */\n    function observeBlock(\n        bytes32 _metachainId,\n        bytes calldata _rlpBlockHeader\n    )\n        external\n    {\n        require(\n            _metachainId != bytes32(0),\n            \"Metachain id must not be null.\"\n        );\n\n        require(\n            _rlpBlockHeader.length != 0,\n            \"RLP block header must not be null.\"\n        );\n\n        require(\n            _metachainId != selfMetachainId,\n            \"Metachain id must not be self metachain id.\"\n        );\n\n        // Decode the rlp encoded block header.\n        BlockHeader.Header memory blockHeader = BlockHeader.decodeHeader(_rlpBlockHeader);\n\n        Block memory finalizedBlock = blockchains[_metachainId][blockHeader.height];\n\n        require(\n            finalizedBlock.blockHash == blockHeader.blockHash,\n            \"Provided block header is not valid.\"\n        );\n\n        require(\n            finalizedBlock.commitStatus >= CheckpointCommitStatus.Finalized,\n            \"Block must be at least finalized.\"\n        );\n\n        require(\n            relativeSelfDynasty > finalizedBlock.statusDynasty,\n            \"Relative self dynasty must be greater than the status dynasty.\"\n        );\n\n        // Get the observer contract.\n        ObserverInterface observer = observers[_metachainId];\n\n        // Anchor the state root.\n        observer.anchorStateRoot(blockHeader.height, blockHeader.stateRoot);\n    }\n\n\n    /* Internal Functions */\n\n    /** @notice Get the coreputation contract address. */\n    function getCoreputation()\n        internal\n        view\n        returns (CoreputationInterface)\n    {\n        return CoreputationInterface(COREPUTATION);\n    }\n\n    /** @notice Get the consensus cogateway contract address. */\n    function getConsensusCogateway()\n        internal\n        view\n        returns (ConsensusCogatewayInterface)\n    {\n        return ConsensusCogatewayInterface(CONSENSUS_COGATEWAY);\n    }\n\n    /**\n     * @notice Takes the parameters of a kernel object and returns the\n     *         typed hash of it.\n     *\n     * @param _domainSeparator Domain separator.\n     * @param _height The height of metablock.\n     * @param _parent The hash of this metablock's parent.\n     * @param _updatedValidators  The array of addresses of the updated validators.\n     * @param _updatedReputation The array of reputation that corresponds to\n     *                        the updated validators.\n     * @param _gasTarget The gas target for this metablock.\n     *\n     * @return hash_ The hash of kernel.\n     */\n    function hashKernel(\n        bytes32 _domainSeparator,\n        uint256 _height,\n        bytes32 _parent,\n        address[] memory _updatedValidators,\n        uint256[] memory _updatedReputation,\n        uint256 _gasTarget\n    )\n        internal\n        pure\n        returns (bytes32 hash_)\n    {\n        bytes32 typedKernelHash = keccak256(\n            abi.encode(\n                KERNEL_TYPEHASH,\n                _height,\n                _parent,\n                _updatedValidators,\n                _updatedReputation,\n                _gasTarget\n            )\n        );\n\n        hash_ = keccak256(\n            abi.encodePacked(\n                byte(0x19),\n                byte(0x01),\n                _domainSeparator,\n                typedKernelHash\n            )\n        );\n    }\n\n\n    /* Private Functions */\n\n    /**\n     * @notice Do the initial setup of protocore contract and initialize the\n     *         storage of coconsensus contract.\n     *\n     * @param _metachainId Metachain id.\n     *\n     * \\post Adds newly setup protocore's address into protocores storage variable.\n     * \\post Adds newly setup protocore's domain separator into domainSeparators\n     *       storage variable.\n     * \\post Adds a new Block into blockchain storage variable.\n     * \\post Updates blockTips storage variable with the latest finalized\n     *       checkpoint's block number of the newly setup protocore.\n     */\n    function setupProtocore(bytes32 _metachainId) private {\n\n        // Get the protocore contract address from the genesis storage.\n        address protocoreAddress = genesisProtocores[_metachainId];\n\n        ProtocoreInterface protocore = ProtocoreInterface(protocoreAddress);\n\n        // Store the protocore address in protocores mapping.\n        protocores[_metachainId] = protocore;\n\n        // Setup protocore.\n        ( bytes32 blockHash, uint256 blockNumber ) = protocore.setup();\n\n        // Get the domain separator and store it in domainSeparators mapping.\n        domainSeparators[_metachainId] = protocore.domainSeparator();\n\n        // Store the block informations in blockchains mapping.\n        blockchains[_metachainId][blockNumber] = Block(\n            blockHash,\n            CheckpointCommitStatus.Finalized,\n            relativeSelfDynasty\n        );\n\n        // Store the blocknumber as tip.\n        blockTips[_metachainId] = blockNumber;\n    }\n\n    /**\n     * @notice Do the initial setup of observer contract and initialize the\n     *         storage of coconsensus contract.\n     *\n     * @param _metachainId Metachain id\n     *\n     * \\post If observer contract address exists for the given metachain id\n     *       then it adds newly setup observer's address into observers\n     *       storage variable, otherwise does nothing.\n     */\n    function setupObserver(bytes32 _metachainId) private {\n\n        // Get the observer contract address from the genesis storage.\n        address observerAddress = genesisObservers[_metachainId];\n        if(observerAddress != address(0)) {\n            ObserverInterface observer = ObserverInterface(observerAddress);\n\n            // Update the observers mapping.\n            observers[_metachainId] = observer;\n\n            // Call the setup function.\n            observer.setup();\n        }\n    }\n\n    /**\n     * @notice Assert the opening of kernel in consensus cogateway.\n     *\n     * @param _kernelHeight New kernel height\n     * @param _updatedValidators  The array of addresses of the updated validators.\n     * @param _updatedReputation The array of reputation that corresponds to\n     *                        the updated validators.\n     * @param _gasTarget The gas target for this metablock\n     * @param _transitionHash Transition hash.\n     * @param _source Blockhash of source checkpoint.\n     * @param _target Blockhash of target checkpoint.\n     * @param _sourceBlockNumber Block number of source checkpoint.\n     * @param _targetBlockNumber Block number af target checkpoint.\n     *\n     * \\pre Kernel hash generated from given input parameters is equal to the\n     *      kernel hash form consensus cogateway contract for the given\n     *      `_kernelHeight`.\n     *\n     * \\post return the kernel hash.\n     */\n    function assertOpenKernel(\n        uint256 _kernelHeight,\n        address[] memory _updatedValidators,\n        uint256[] memory _updatedReputation,\n        uint256 _gasTarget,\n        bytes32 _transitionHash,\n        bytes32 _source,\n        bytes32 _target,\n        uint256 _sourceBlockNumber,\n        uint256 _targetBlockNumber\n    )\n        private\n        returns (bytes32 kernelHash_)\n    {\n        // Get the domain separator for the protocore.\n        bytes32 domainSeparator = domainSeparators[selfMetachainId];\n\n        /*\n         * Get the metablock hash from the input parameters. This will be the\n         * parent hash for the new kernel.\n         */\n        bytes32 metablockHash = VoteMessage.hashVoteMessage(\n            domainSeparator,\n            _transitionHash,\n            _source,\n            _target,\n            _sourceBlockNumber,\n            _targetBlockNumber\n        );\n\n        // Generate the kernel hash from the input params.\n        kernelHash_ = hashKernel(\n            domainSeparator,\n            _kernelHeight,\n            metablockHash,\n            _updatedValidators,\n            _updatedReputation,\n            _gasTarget\n        );\n\n        ConsensusCogatewayInterface consensusCogateway = getConsensusCogateway();\n\n        // Get the open kernel hash from the consensus cogateway contract.\n        bytes32 openKernelHash = consensusCogateway.getKernelHash(_kernelHeight);\n\n        require(\n            kernelHash_ == openKernelHash,\n            \"Generated kernel hash is not equal to open kernel hash.\"\n        );\n    }\n\n    /**\n     * @notice Change the checkpoint commit status of the block to `Committed`.\n     *\n     * @param _metachainId Metachain id.\n     * @param _blockNumber block number.\n     *\n     * \\pre The commit checkpoint status of Block at the given `_blockNumber`\n     *      is `Finalized`.\n     *\n     * \\post The checkpoint commit status of the Block at the given\n     *       `_blockNumber` is changed to `Committed`.\n     */\n    function commitCheckpointInternal(\n        bytes32 _metachainId,\n        uint256 _blockNumber\n    )\n        private\n    {\n        Block storage finalizedBlock = blockchains[_metachainId][_blockNumber];\n        require(\n            finalizedBlock.commitStatus == CheckpointCommitStatus.Finalized,\n            \"Source checkpoint must be finalized.\"\n        );\n        finalizedBlock.commitStatus = CheckpointCommitStatus.Committed;\n    }\n\n    /**\n     * @notice Add or update the reputation of the validators and also add or\n     *         update the validator set in the self protocore contract.\n     *\n     * @param _protocore Self protocore contract address.\n     * @param _kernelHeight Open kernel height.\n     * @param _updatedValidators  The array of addresses of the updated validators.\n     * @param _updatedReputation The array of reputation that corresponds to\n     *                        the updated validators.\n     *\n     * \\post Adds or updates the reputation of validators in `Coreputation` contract.\n     * \\post Adds or updates the validator set in `SelfProtocore` contract.\n     */\n    function updateValidatorSet(\n        address _protocore,\n        uint256 _kernelHeight,\n        address[] memory _updatedValidators,\n        uint256[] memory _updatedReputation\n    )\n        private\n    {\n        SelfProtocoreInterface selfProtocore = SelfProtocoreInterface(_protocore);\n        CoreputationInterface coreputation = getCoreputation();\n\n        for (uint256 i = 0; i < _updatedValidators.length; i = i.add(1)) {\n            address validator = _updatedValidators[i];\n            uint256 reputation = _updatedReputation[i];\n            coreputation.upsertValidator(validator, reputation);\n\n            selfProtocore.upsertValidator(\n                validator,\n                _kernelHeight,\n                reputation\n            );\n        }\n    }\n}\n",
  "sourcePath": "/Users/abhay/Documents/projects/abhayforks/mosaic-1/contracts/consensus/Coconsensus.sol",
  "compiler": {
    "name": "solc",
    "version": "0.5.13+commit.5b0b510c.Emscripten.clang"
  },
  "schemaVersion": "3.0.17",
  "updatedAt": "2020-03-21T06:48:34.640Z",
  "devdoc": {
    "methods": {
      "commitCheckpoint(bytes32,uint256,address[],uint256[],uint256,bytes32,bytes32,bytes32,uint256,uint256)": {
        "params": {
          "_gasTarget": "The gas target for the metablock",
          "_kernelHeight": "New kernel height",
          "_metachainId": "Metachain Id.",
          "_source": "Blockhash of source checkpoint.",
          "_sourceBlockNumber": "Block number of source checkpoint.",
          "_target": "Blockhash of target checkpoint.",
          "_targetBlockNumber": "Block number af target checkpoint.     * \\pre `_metachainId` is self metachain id. \\pre `_source` is not 0. \\pre `_target` is not 0. \\pre `_sourceBlockNumber` is a checkpoint. \\pre `_targetBlockNumber` is a checkpoint. \\pre `_targetBlockNumber` is greater than `_sourceBlockNumber`. \\pre Source checkpoint is finalized. \\pre Open kernel hash exists in `ConsensusCogateway` contract for the     given `_kernelHeight`.     * \\post Updates the validator set in self protocore. \\post Updates the reputation of validators. \\post Opens a new metablock in self protocore.",
          "_transitionHash": "Transition hash.",
          "_updatedReputation": "The array of reputation that corresponds to                       the updated validators.",
          "_updatedValidators": "The array of addresses of the updated validators."
        }
      },
      "finaliseCheckpoint(bytes32,uint256,bytes32)": {
        "params": {
          "_blockHash": "A block hash of a checkpoint.     * \\pre `_metachainId` is not 0. \\pre `_blockHash` is not 0. \\pre `msg.sender` should be the protocore contract. \\pre `_blockNumber` must be multiple of epoch length. \\pre `_blockNumber` must be greater than the last finalized block number.     * \\post Increment the `relativeSelfDynasty` storage value by one if the      `msg.sender` is self protocore contract address. \\post Adds a new `Block` in the `blockchains` mapping. \\post Updates the `blockTips` mapping with provided `_blockNumber`.",
          "_blockNumber": "A block number of a checkpoint.",
          "_metachainId": "A metachain id to finalize a checkpoint."
        }
      },
      "observeBlock(bytes32,bytes)": {
        "params": {
          "_metachainId": "Metachain id.",
          "_rlpBlockHeader": "RLP encoded block header.     * \\pre `_metachainId` is not 0. \\pre `_rlpBlockHeader` is not 0. \\pre `_metachainId` is not `selfMetachainId`. \\pre A block must exist in `blockchains` storage for the given     `_metachainid` and block number from the decoded `_rlpBlockHeader`. \\pre The commit status of the block must be at least `Finalized`. \\pre The status dynasty of the block is less than `relativeSelfDynasty`.     * \\post Anchors the state root in the observer contract."
        }
      },
      "setup()": {
        "details": "This function can be called only once."
      }
    },
    "title": "Coconsensus contract - This mirrors the consensus contract on       the auxiliary chain."
  },
  "userdoc": {
    "methods": {
      "commitCheckpoint(bytes32,uint256,address[],uint256[],uint256,bytes32,bytes32,bytes32,uint256,uint256)": {
        "notice": "Updates the validator set and its reputations with opening of        a new metablock."
      },
      "finaliseCheckpoint(bytes32,uint256,bytes32)": {
        "notice": "finaliseCheckpoint() function finalizes a checkpoint at        a metachain."
      },
      "observeBlock(bytes32,bytes)": {
        "notice": "Observes the given block by anchoring its state root into the        corresponding observer."
      },
      "setup()": {
        "notice": "Setup function does the initialization of all the mosaic        contracts on the auxiliary chain."
      }
    }
  }
}