{
  "contractName": "CoconsensusTest",
  "abi": [
    {
      "constant": true,
      "inputs": [],
      "name": "DOMAIN_SEPARATOR_VERSION",
      "outputs": [
        {
          "internalType": "string",
          "name": "",
          "type": "string"
        }
      ],
      "payable": false,
      "stateMutability": "view",
      "type": "function"
    },
    {
      "constant": true,
      "inputs": [],
      "name": "KERNEL_TYPEHASH",
      "outputs": [
        {
          "internalType": "bytes32",
          "name": "",
          "type": "bytes32"
        }
      ],
      "payable": false,
      "stateMutability": "view",
      "type": "function"
    },
    {
      "constant": true,
      "inputs": [],
      "name": "SENTINEL_METACHAIN_ID",
      "outputs": [
        {
          "internalType": "bytes32",
          "name": "",
          "type": "bytes32"
        }
      ],
      "payable": false,
      "stateMutability": "view",
      "type": "function"
    },
    {
      "constant": true,
      "inputs": [],
      "name": "VOTE_MESSAGE_TYPEHASH",
      "outputs": [
        {
          "internalType": "bytes32",
          "name": "",
          "type": "bytes32"
        }
      ],
      "payable": false,
      "stateMutability": "view",
      "type": "function"
    },
    {
      "constant": true,
      "inputs": [
        {
          "internalType": "bytes32",
          "name": "",
          "type": "bytes32"
        }
      ],
      "name": "blockTips",
      "outputs": [
        {
          "internalType": "uint256",
          "name": "",
          "type": "uint256"
        }
      ],
      "payable": false,
      "stateMutability": "view",
      "type": "function"
    },
    {
      "constant": true,
      "inputs": [
        {
          "internalType": "bytes32",
          "name": "",
          "type": "bytes32"
        },
        {
          "internalType": "uint256",
          "name": "",
          "type": "uint256"
        }
      ],
      "name": "blockchains",
      "outputs": [
        {
          "internalType": "bytes32",
          "name": "blockHash",
          "type": "bytes32"
        },
        {
          "internalType": "enum Coconsensus.CheckpointCommitStatus",
          "name": "commitStatus",
          "type": "uint8"
        },
        {
          "internalType": "uint256",
          "name": "statusDynasty",
          "type": "uint256"
        }
      ],
      "payable": false,
      "stateMutability": "view",
      "type": "function"
    },
    {
      "constant": false,
      "inputs": [
        {
          "internalType": "bytes32",
          "name": "_metachainId",
          "type": "bytes32"
        },
        {
          "internalType": "uint256",
          "name": "_kernelHeight",
          "type": "uint256"
        },
        {
          "internalType": "address[]",
          "name": "_updatedValidators",
          "type": "address[]"
        },
        {
          "internalType": "uint256[]",
          "name": "_updatedReputation",
          "type": "uint256[]"
        },
        {
          "internalType": "uint256",
          "name": "_gasTarget",
          "type": "uint256"
        },
        {
          "internalType": "bytes32",
          "name": "_transitionHash",
          "type": "bytes32"
        },
        {
          "internalType": "bytes32",
          "name": "_source",
          "type": "bytes32"
        },
        {
          "internalType": "bytes32",
          "name": "_target",
          "type": "bytes32"
        },
        {
          "internalType": "uint256",
          "name": "_sourceBlockNumber",
          "type": "uint256"
        },
        {
          "internalType": "uint256",
          "name": "_targetBlockNumber",
          "type": "uint256"
        }
      ],
      "name": "commitCheckpoint",
      "outputs": [],
      "payable": false,
      "stateMutability": "nonpayable",
      "type": "function"
    },
    {
      "constant": true,
      "inputs": [
        {
          "internalType": "bytes32",
          "name": "",
          "type": "bytes32"
        }
      ],
      "name": "domainSeparators",
      "outputs": [
        {
          "internalType": "bytes32",
          "name": "",
          "type": "bytes32"
        }
      ],
      "payable": false,
      "stateMutability": "view",
      "type": "function"
    },
    {
      "constant": false,
      "inputs": [
        {
          "internalType": "bytes32",
          "name": "_metachainId",
          "type": "bytes32"
        },
        {
          "internalType": "uint256",
          "name": "_blockNumber",
          "type": "uint256"
        },
        {
          "internalType": "bytes32",
          "name": "_blockHash",
          "type": "bytes32"
        }
      ],
      "name": "finaliseCheckpoint",
      "outputs": [],
      "payable": false,
      "stateMutability": "nonpayable",
      "type": "function"
    },
    {
      "constant": true,
      "inputs": [
        {
          "internalType": "bytes32",
          "name": "",
          "type": "bytes32"
        }
      ],
      "name": "genesisMetachainIds",
      "outputs": [
        {
          "internalType": "bytes32",
          "name": "",
          "type": "bytes32"
        }
      ],
      "payable": false,
      "stateMutability": "view",
      "type": "function"
    },
    {
      "constant": true,
      "inputs": [
        {
          "internalType": "bytes32",
          "name": "",
          "type": "bytes32"
        }
      ],
      "name": "genesisObservers",
      "outputs": [
        {
          "internalType": "address",
          "name": "",
          "type": "address"
        }
      ],
      "payable": false,
      "stateMutability": "view",
      "type": "function"
    },
    {
      "constant": true,
      "inputs": [],
      "name": "genesisOriginMetachainId",
      "outputs": [
        {
          "internalType": "bytes32",
          "name": "",
          "type": "bytes32"
        }
      ],
      "payable": false,
      "stateMutability": "view",
      "type": "function"
    },
    {
      "constant": true,
      "inputs": [
        {
          "internalType": "bytes32",
          "name": "",
          "type": "bytes32"
        }
      ],
      "name": "genesisProtocores",
      "outputs": [
        {
          "internalType": "address",
          "name": "",
          "type": "address"
        }
      ],
      "payable": false,
      "stateMutability": "view",
      "type": "function"
    },
    {
      "constant": true,
      "inputs": [],
      "name": "genesisSelfMetachainId",
      "outputs": [
        {
          "internalType": "bytes32",
          "name": "",
          "type": "bytes32"
        }
      ],
      "payable": false,
      "stateMutability": "view",
      "type": "function"
    },
    {
      "constant": false,
      "inputs": [
        {
          "internalType": "bytes32",
          "name": "_metachainId",
          "type": "bytes32"
        },
        {
          "internalType": "bytes",
          "name": "_rlpBlockHeader",
          "type": "bytes"
        }
      ],
      "name": "observeBlock",
      "outputs": [],
      "payable": false,
      "stateMutability": "nonpayable",
      "type": "function"
    },
    {
      "constant": true,
      "inputs": [
        {
          "internalType": "bytes32",
          "name": "",
          "type": "bytes32"
        }
      ],
      "name": "observers",
      "outputs": [
        {
          "internalType": "contract ObserverInterface",
          "name": "",
          "type": "address"
        }
      ],
      "payable": false,
      "stateMutability": "view",
      "type": "function"
    },
    {
      "constant": true,
      "inputs": [],
      "name": "originMetachainId",
      "outputs": [
        {
          "internalType": "bytes32",
          "name": "",
          "type": "bytes32"
        }
      ],
      "payable": false,
      "stateMutability": "view",
      "type": "function"
    },
    {
      "constant": true,
      "inputs": [
        {
          "internalType": "bytes32",
          "name": "",
          "type": "bytes32"
        }
      ],
      "name": "protocores",
      "outputs": [
        {
          "internalType": "contract ProtocoreInterface",
          "name": "",
          "type": "address"
        }
      ],
      "payable": false,
      "stateMutability": "view",
      "type": "function"
    },
    {
      "constant": true,
      "inputs": [],
      "name": "relativeSelfDynasty",
      "outputs": [
        {
          "internalType": "uint256",
          "name": "",
          "type": "uint256"
        }
      ],
      "payable": false,
      "stateMutability": "view",
      "type": "function"
    },
    {
      "constant": true,
      "inputs": [],
      "name": "selfMetachainId",
      "outputs": [
        {
          "internalType": "bytes32",
          "name": "",
          "type": "bytes32"
        }
      ],
      "payable": false,
      "stateMutability": "view",
      "type": "function"
    },
    {
      "constant": false,
      "inputs": [],
      "name": "setup",
      "outputs": [],
      "payable": false,
      "stateMutability": "nonpayable",
      "type": "function"
    },
    {
      "constant": false,
      "inputs": [
        {
          "internalType": "bytes32[]",
          "name": "_metachainIds",
          "type": "bytes32[]"
        },
        {
          "internalType": "address[]",
          "name": "_protocores",
          "type": "address[]"
        },
        {
          "internalType": "address[]",
          "name": "_observers",
          "type": "address[]"
        }
      ],
      "name": "setGenesisStorage",
      "outputs": [],
      "payable": false,
      "stateMutability": "nonpayable",
      "type": "function"
    },
    {
      "constant": false,
      "inputs": [
        {
          "internalType": "bytes32",
          "name": "_metachainId",
          "type": "bytes32"
        },
        {
          "internalType": "uint256",
          "name": "_blockNumber",
          "type": "uint256"
        },
        {
          "internalType": "bytes32",
          "name": "_blockHash",
          "type": "bytes32"
        },
        {
          "internalType": "uint256",
          "name": "_dynasty",
          "type": "uint256"
        }
      ],
      "name": "setFinaliseCheckpoint",
      "outputs": [],
      "payable": false,
      "stateMutability": "nonpayable",
      "type": "function"
    },
    {
      "constant": false,
      "inputs": [
        {
          "internalType": "uint256",
          "name": "_dynasty",
          "type": "uint256"
        }
      ],
      "name": "setRelativeSelfDynasty",
      "outputs": [],
      "payable": false,
      "stateMutability": "nonpayable",
      "type": "function"
    },
    {
      "constant": false,
      "inputs": [
        {
          "internalType": "address",
          "name": "_coreputation",
          "type": "address"
        }
      ],
      "name": "setCoreputation",
      "outputs": [],
      "payable": false,
      "stateMutability": "nonpayable",
      "type": "function"
    },
    {
      "constant": false,
      "inputs": [
        {
          "internalType": "address",
          "name": "_consensusCogateway",
          "type": "address"
        }
      ],
      "name": "setConsensusCogateway",
      "outputs": [],
      "payable": false,
      "stateMutability": "nonpayable",
      "type": "function"
    }
  ],
  "bytecode": "0x6080604052600e80546001600160a01b0319908116614d0117909155600f8054909116614d0217905534801561003457600080fd5b50612309806100446000396000f3fe608060405234801561001057600080fd5b506004361061018e5760003560e01c806381673b22116100de578063ba0bba4011610097578063e86ff41a11610071578063e86ff41a14610658578063eec3884014610675578063fe6b62cd1461069b578063fee7de65146106b85761018e565b8063ba0bba40146105d3578063c74a01e9146105db578063d7e6662f146105e35761018e565b806381673b2214610413578063950013d11461041b578063a1a3835114610529578063a5418f7f14610531578063a847bbbc14610539578063b4907ddc146105565761018e565b80631a65aa851161014b5780633ba71011116101255780633ba71011146102f1578063584aea47146102f957806367b05f5b146103e25780636d7e4a68146103ea5761018e565b80631a65aa85146102af57806321c0bc49146102cc57806336c7e08d146102d45761018e565b806302c5ee1c1461019357806306023ed8146101c45780630a75ef0c146101de578063114c1f40146101fb57806311f8c202146102505780631a3fcafa14610289575b600080fd5b6101c2600480360360808110156101a957600080fd5b50803590602081013590604081013590606001356106d5565b005b6101cc610752565b60408051918252519081900360200190f35b6101c2600480360360208110156101f457600080fd5b5035610758565b61021e6004803603604081101561021157600080fd5b508035906020013561075d565b6040518084815260200183600281111561023457fe5b60ff168152602001828152602001935050505060405180910390f35b61026d6004803603602081101561026657600080fd5b503561078c565b604080516001600160a01b039092168252519081900360200190f35b6101c26004803603602081101561029f57600080fd5b50356001600160a01b03166107a7565b6101cc600480360360208110156102c557600080fd5b50356107c9565b6101cc6107db565b6101cc600480360360208110156102ea57600080fd5b50356107f6565b6101cc610808565b6101c2600480360361014081101561031057600080fd5b813591602081013591810190606081016040820135600160201b81111561033657600080fd5b82018360208201111561034857600080fd5b803590602001918460208302840111600160201b8311171561036957600080fd5b919390929091602081019035600160201b81111561038657600080fd5b82018360208201111561039857600080fd5b803590602001918460208302840111600160201b831117156103b957600080fd5b919350915080359060208101359060408101359060608101359060808101359060a00135610823565b6101cc610a19565b6101c26004803603606081101561040057600080fd5b5080359060208101359060400135610a1f565b6101cc610b9c565b6101c26004803603606081101561043157600080fd5b810190602081018135600160201b81111561044b57600080fd5b82018360208201111561045d57600080fd5b803590602001918460208302840111600160201b8311171561047e57600080fd5b919390929091602081019035600160201b81111561049b57600080fd5b8201836020820111156104ad57600080fd5b803590602001918460208302840111600160201b831117156104ce57600080fd5b919390929091602081019035600160201b8111156104eb57600080fd5b8201836020820111156104fd57600080fd5b803590602001918460208302840111600160201b8311171561051e57600080fd5b509092509050610ba2565b6101cc610d0f565b6101cc610d15565b6101cc6004803603602081101561054f57600080fd5b5035610d1b565b61055e610d2d565b6040805160208082528351818301528351919283929083019185019080838360005b83811015610598578181015183820152602001610580565b50505050905090810190601f1680156105c55780820380516001836020036101000a031916815260200191505b509250505060405180910390f35b6101c2610d4a565b6101cc610df5565b6101c2600480360360408110156105f957600080fd5b81359190810190604081016020820135600160201b81111561061a57600080fd5b82018360208201111561062c57600080fd5b803590602001918460018302840111600160201b8311171561064d57600080fd5b509092509050610dfb565b61026d6004803603602081101561066e57600080fd5b50356110d5565b6101c26004803603602081101561068b57600080fd5b50356001600160a01b03166110f0565b61026d600480360360208110156106b157600080fd5b5035611112565b61026d600480360360208110156106ce57600080fd5b503561112d565b604080516060810190915282815260208101600181526020908101839052600086815260098252604080822087835283529020825181559082015160018083018054909160ff199091169083600281111561072c57fe5b02179055506040918201516002909101556000948552600a602052909320919091555050565b60075481565b600855565b6009602090815260009283526040808420909152908252902080546001820154600290920154909160ff169083565b6005602052600090815260409020546001600160a01b031681565b601180546001600160a01b0319166001600160a01b0392909216919091179055565b600a6020526000908152604090205481565b60405180608761205282396087019050604051809103902081565b600d6020526000908152604090205481565b60405180608061211782396080019050604051809103902081565b6007548c146108635760405162461bcd60e51b81526004018080602001828103825260278152602001806121ee6027913960400191505060405180910390fd5b61086d8c83611148565b60006108f68c8c8c80806020026020016040519081016040528093929190818152602001838360200280828437600081840152601f19601f820116905080830192505050505050508b8b808060200260200160405190810160405280939291908181526020018383602002808284376000920191909152508d92508c91508b90508a8a8a6111c3565b90506000600b60008f815260200190815260200160002060009054906101000a90046001600160a01b031690506109a3818e8e8e80806020026020016040519081016040528093929190818152602001838360200280828437600081840152601f19601f820116905080830192505050505050508d8d808060200260200160405190810160405280939291908181526020018383602002808284376000920191909152506112c792505050565b806001600160a01b03166309673c1d8e846040518363ffffffff1660e01b81526004018083815260200182815260200192505050600060405180830381600087803b1580156109f157600080fd5b505af1158015610a05573d6000803e3d6000fd5b505050505050505050505050505050505050565b60085481565b6000838152600b602052604090205483906001600160a01b03163314610a765760405162461bcd60e51b81526004018080602001828103825260368152602001806121b86036913960400191505060405180910390fd5b83610ac8576040805162461bcd60e51b815260206004820152601e60248201527f4d657461636861696e206964206d757374206e6f74206265206e756c6c2e0000604482015290519081900360640190fd5b81610b1a576040805162461bcd60e51b815260206004820152601b60248201527f426c6f636b68617368206d757374206e6f74206265206e756c6c2e0000000000604482015290519081900360640190fd5b6000848152600a6020526040902054808411610b3257fe5b600754851415610b5457600854610b5090600163ffffffff61141616565b6008555b5050600083815260096020908152604080832085845282528083209384556001808501805460ff19169091179055600854600290940193909355938152600a90935290912055565b60015481565b85856000818110610baf57fe5b9050602002013560018190555085856001818110610bc957fe5b6020908102929092013560025550600019600081815260039092527fb1ee3b3d0d99532dd9f14b22c0b908d4eec0e052c3827bbed2d6c3986954d08c555b85811015610d06576000878783818110610c1d57fe5b600360209081527fb1ee3b3d0d99532dd9f14b22c0b908d4eec0e052c3827bbed2d6c3986954d08c805491909202939093013560008181526040812094909455600019909352829055509050858583818110610c7557fe5b600084815260056020908152604090912080546001600160a01b0319166001600160a01b03929093029490940135161790915550838383818110610cb557fe5b600093845260046020908152604090942080546001600160a01b0319166001600160a01b039590920293909301359390931692909217905550610cff81600163ffffffff61141616565b9050610c07565b50505050505050565b60001981565b60065481565b60036020526000908152604090205481565b604051806040016040528060018152602001600360fc1b81525081565b60075415610d895760405162461bcd60e51b815260040180806020018281038252602c815260200180612215602c913960400191505060405180910390fd5b60015460065560025460075560001960005260036020527fb1ee3b3d0d99532dd9f14b22c0b908d4eec0e052c3827bbed2d6c3986954d08c545b6000198114610df257610dd58161142f565b610dde816115d5565b600090815260036020526040902054610dc3565b50565b60025481565b82610e4d576040805162461bcd60e51b815260206004820152601e60248201527f4d657461636861696e206964206d757374206e6f74206265206e756c6c2e0000604482015290519081900360640190fd5b80610e895760405162461bcd60e51b81526004018080602001828103825260228152602001806122656022913960400191505060405180910390fd5b600754831415610eca5760405162461bcd60e51b815260040180806020018281038252602b8152602001806122aa602b913960400191505060405180910390fd5b610ed2611f47565b610f1183838080601f01602080910402602001604051908101604052809392919081815260200183838082843760009201919091525061166b92505050565b9050610f1b611fca565b60008581526009602090815260408083206101208601518452825291829020825160608101909352805483526001810154909183019060ff166002811115610f5f57fe5b6002811115610f6a57fe5b8152600291909101546020909101528251815191925014610fbc5760405162461bcd60e51b81526004018080602001828103825260238152602001806122876023913960400191505060405180910390fd5b600181602001516002811115610fce57fe5b101561100b5760405162461bcd60e51b81526004018080602001828103825260218152602001806121976021913960400191505060405180910390fd5b80604001516008541161104f5760405162461bcd60e51b815260040180806020018281038252603e8152602001806120d9603e913960400191505060405180910390fd5b6000858152600c60205260408082205461012085015160808601518351630b9e258f60e31b81526004810192909252602482015291516001600160a01b03909116928392635cf12c78926044808301939282900301818387803b1580156110b557600080fd5b505af11580156110c9573d6000803e3d6000fd5b50505050505050505050565b600b602052600090815260409020546001600160a01b031681565b601080546001600160a01b0319166001600160a01b0392909216919091179055565b600c602052600090815260409020546001600160a01b031681565b6004602052600090815260409020546001600160a01b031681565b6000828152600960209081526040808320848452909152902060018082015460ff16600281111561117557fe5b146111b15760405162461bcd60e51b81526004018080602001828103825260248152602001806122416024913960400191505060405180910390fd5b600101805460ff191660021790555050565b6007546000908152600d6020526040812054816111e482898989898961183e565b90506111f4828d838e8e8e6118e5565b92506000611200611a49565b90506000816001600160a01b0316639d9ea0f58f6040518263ffffffff1660e01b815260040180828152602001915050602060405180830381600087803b15801561124a57600080fd5b505af115801561125e573d6000803e3d6000fd5b505050506040513d602081101561127457600080fd5b505190508481146112b65760405162461bcd60e51b815260040180806020018281038252603781526020018061201b6037913960400191505060405180910390fd5b505050509998505050505050505050565b8360006112d2611a58565b905060005b8451811015610d065760008582815181106112ee57fe5b60200260200101519050600085838151811061130657fe5b60200260200101519050836001600160a01b0316635a0738b283836040518363ffffffff1660e01b815260040180836001600160a01b03166001600160a01b0316815260200182815260200192505050600060405180830381600087803b15801561137057600080fd5b505af1158015611384573d6000803e3d6000fd5b505060408051637de1a74360e11b81526001600160a01b038681166004830152602482018d9052604482018690529151918916935063fbc34e86925060648082019260009290919082900301818387803b1580156113e157600080fd5b505af11580156113f5573d6000803e3d6000fd5b50505050505061140f60018261141690919063ffffffff16565b90506112d7565b60008282018381101561142857600080fd5b9392505050565b600081815260056020908152604080832054600b90925280832080546001600160a01b0319166001600160a01b03909316928317905580516302e82ee960e61b815281519293849390928392859263ba0bba409260048084019391929182900301818787803b1580156114a157600080fd5b505af11580156114b5573d6000803e3d6000fd5b505050506040513d60408110156114cb57600080fd5b5080516020918201516040805163f698da2560e01b815290519295509093506001600160a01b0386169263f698da25926004808401938290030181600087803b15801561151757600080fd5b505af115801561152b573d6000803e3d6000fd5b505050506040513d602081101561154157600080fd5b50516000868152600d60209081526040918290209290925580516060810190915283815290810160018152600854602091820152600087815260098252604080822085835283529020825181559082015160018083018054909160ff19909116908360028111156115ae57fe5b02179055506040918201516002909101556000958652600a60205290942093909355505050565b6000818152600460205260409020546001600160a01b03168015611667576000828152600c602052604080822080546001600160a01b0319166001600160a01b03851690811790915581516302e82ee960e61b815291518493919263ba0bba4092600480830193919282900301818387803b15801561165357600080fd5b505af1158015610d06573d6000803e3d6000fd5b5050565b611673611f47565b81516020830120611682611fed565b61168b84611a67565b9050606061169882611ab0565b90506040518061020001604052808481526020016116c9836000815181106116bc57fe5b6020026020010151611b62565b81526020016116de836001815181106116bc57fe5b8152602001611700836002815181106116f357fe5b6020026020010151611b73565b6001600160a01b0316815260200161171e836003815181106116bc57fe5b8152602001611733836004815181106116bc57fe5b8152602001611748836005815181106116bc57fe5b815260200161176a8360068151811061175d57fe5b6020026020010151611bb4565b815260200161178c8360078151811061177f57fe5b6020026020010151611c0a565b81526020016117a18360088151811061177f57fe5b81526020016117b68360098151811061177f57fe5b67ffffffffffffffff1681526020016117d583600a8151811061177f57fe5b67ffffffffffffffff1681526020016117f483600b8151811061177f57fe5b815260200161180983600c8151811061175d57fe5b815260200161181e83600d815181106116bc57fe5b815260200161183383600e8151811061177f57fe5b905295945050505050565b600080604051808061205260879139604080519182900360870182206020808401919091528282019a909a526060820198909852608081019690965250505060a083019190915260c0808301919091528251808303909101815260e082018352805190840120601960f81b610100830152600160f81b6101018301526101028201949094526101228082019490945281518082039094018452610142019052815191012090565b600080604051808061211760809139608001905060405180910390208787878787604051602001808781526020018681526020018581526020018060200180602001848152602001838103835286818151815260200191508051906020019060200280838360005b8381101561196557818101518382015260200161194d565b50505050905001838103825285818151815260200191508051906020019060200280838360005b838110156119a457818101518382015260200161198c565b5050505090500198505050505050505050604051602081830303815290604052805190602001209050601960f81b600160f81b898360405160200180856001600160f81b0319166001600160f81b0319168152600101846001600160f81b0319166001600160f81b0319168152600101838152602001828152602001945050505050604051602081830303815290604052805190602001209150509695505050505050565b6011546001600160a01b031690565b6010546001600160a01b031690565b611a6f611fed565b815180611a915750506040805180820190915260008082526020820152611aab565b604080518082019091526020848101825281019190915290505b919050565b6060611abb82611c5a565b611ac457600080fd5b6000611acf83611c81565b905080604051908082528060200260200182016040528015611b0b57816020015b611af8611fed565b815260200190600190039081611af05790505b509150611b16612007565b611b1f84611ce5565b905060005b611b2d82611d1c565b15611b5a57611b3b82611d3b565b848281518110611b4757fe5b6020908102919091010152600101611b24565b505050919050565b6000611b6d82611c0a565b92915050565b6000611b7e82611d7f565b611b8757600080fd5b600080611b9384611da5565b909250905060148114611ba557600080fd5b5051600160601b900492915050565b602081015160609080611bc75750611aab565b806040519080825280601f01601f191660200182016040528015611bf2576020820181803883390190505b509150611c0483600001518383611e15565b50919050565b6000611c1582611d7f565b611c1e57600080fd5b600080611c2a84611da5565b90925090506020811180611c3c575080155b15611c4657600080fd5b806020036101000a82510492505050919050565b6000816020015160001415611c7157506000611aab565b50515160c060009190911a101590565b6000611c8c82611c5a565b611c9857506000611aab565b81518051600090811a9190611cac85611e3c565b6020860151908301915082016000190160005b818311611cdb57611ccf83611eba565b90920191600101611cbf565b9695505050505050565b611ced612007565b611cf682611c5a565b611cff57600080fd5b6000611d0a83611e3c565b83519383529092016020820152919050565b6000611d26611fed565b50508051602080820151915192015191011190565b611d43611fed565b611d4c82611d1c565b611d5557600080fd5b60208201516000611d6582611eba565b828452602080850182905292019390910192909252919050565b6000816020015160001415611d9657506000611aab565b50515160c060009190911a1090565b600080611db183611d7f565b611dba57600080fd5b8251805160001a906080821015611dd857925060019150611e109050565b60b8821015611df65760018560200151039250806001019350611e0d565b602085015182820160b51901945082900360b60192505b50505b915091565b6000601f820184602085015b82841015610d06578382015184820152602084019350611e21565b6000816020015160001415611e5357506000611aab565b8151805160001a906080821015611e6f57600092505050611aab565b60b8821080611e8a575060c08210158015611e8a575060f882105b15611e9a57600192505050611aab565b60c0821015611eaf575060b519019050611aab565b5060f5190192915050565b8051600090811a6080811015611ed35760019150611c04565b60b8811015611ee857607e1981019150611c04565b60c0811015611f1157600183015160b76020839003016101000a9004810160b519019150611c04565b60f8811015611f265760be1981019150611c04565b6001929092015160f76020849003016101000a900490910160f51901919050565b604080516102008101825260008082526020820181905291810182905260608082018390526080820183905260a0820183905260c0820183905260e08201819052610100820183905261012082018390526101408201839052610160820183905261018082018390526101a08201526101c081018290526101e081019190915290565b6040805160608101909152600080825260208201905b8152602001600081525090565b604051806040016040528060008152602001600081525090565b6040518060400160405280611fe0611fed56fe47656e657261746564206b65726e656c2068617368206973206e6f7420657175616c20746f206f70656e206b65726e656c20686173682e566f74654d6573736167652862797465733332207472616e736974696f6e486173682c6279746573333220736f75726365426c6f636b486173682c6279746573333220746172676574426c6f636b486173682c75696e7432353620736f75726365426c6f636b4e756d6265722c75696e7432353620746172676574426c6f636b4e756d6265722952656c61746976652073656c662064796e61737479206d7573742062652067726561746572207468616e20746865207374617475732064796e617374792e4b65726e656c2875696e74323536206865696768742c6279746573333220706172656e742c616464726573735b5d207570646174656456616c696461746f72732c75696e743235365b5d207570646174656452657075746174696f6e2c75696e74323536206761735461726765742c75696e7432353620676173507269636529426c6f636b206d757374206265206174206c656173742066696e616c697a65642e50726f746f636f7265206973206e6f7420617661696c61626c6520666f722074686520676976656e206d657461636861696e2069642e4d657461636861696e206964206d7573742062652073656c66206d657461636861696e2069642e436f636f6e73656e73757320636f6e747261637420697320616c726561647920696e697469616c697a65642e536f7572636520636865636b706f696e74206d7573742062652066696e616c697a65642e524c5020626c6f636b20686561646572206d757374206e6f74206265206e756c6c2e50726f766964656420626c6f636b20686561646572206973206e6f742076616c69642e4d657461636861696e206964206d757374206e6f742062652073656c66206d657461636861696e2069642ea265627a7a723158200469c8f8ad349e09ab754f5ba0de73deea6bd28088e950b90a03b5fec090402764736f6c634300050d0032",
  "source": "pragma solidity >=0.5.0 <0.6.0;\n\n// Copyright 2019 OpenST Ltd.\n//\n// Licensed under the Apache License, Version 2.0 (the \"License\");\n// you may not use this file except in compliance with the License.\n// You may obtain a copy of the License at\n//\n//    http://www.apache.org/licenses/LICENSE-2.0\n//\n// Unless required by applicable law or agreed to in writing, software\n// distributed under the License is distributed on an \"AS IS\" BASIS,\n// WITHOUT WARRANTIES OR CONDITIONS OF ANY KIND, either express or implied.\n// See the License for the specific language governing permissions and\n// limitations under the License.\n\nimport \"../../consensus/Coconsensus.sol\";\nimport \"openzeppelin-solidity/contracts/math/SafeMath.sol\";\n\ncontract CoconsensusTest is Coconsensus {\n\n    using SafeMath for uint256;\n\n    address coreputation;\n    address consensusCogateway;\n\n    /**\n     * @notice This function stores the genesis data.\n     */\n    function setGenesisStorage(\n        bytes32[] calldata _metachainIds,\n        address[] calldata _protocores,\n        address[] calldata _observers\n    )\n        external\n    {\n        genesisOriginMetachainId = _metachainIds[0];\n        genesisSelfMetachainId = _metachainIds[1];\n\n        genesisMetachainIds[SENTINEL_METACHAIN_ID] = SENTINEL_METACHAIN_ID;\n        for (uint256 i = 0; i < _metachainIds.length; i = i.add(1)) {\n            bytes32 currentMetachainId = _metachainIds[i];\n\n            genesisMetachainIds[currentMetachainId] = genesisMetachainIds[SENTINEL_METACHAIN_ID];\n            genesisMetachainIds[SENTINEL_METACHAIN_ID] = currentMetachainId;\n\n            genesisProtocores[currentMetachainId] = _protocores[i];\n            genesisObservers[currentMetachainId] = _observers[i];\n        }\n    }\n\n    /**\n     * @notice This function is used to set the finalize checkpoint.\n     */\n    function setFinaliseCheckpoint(\n        bytes32 _metachainId,\n        uint256 _blockNumber,\n        bytes32 _blockHash,\n        uint256 _dynasty\n    )\n        external\n    {\n        blockchains[_metachainId][_blockNumber] = Block(\n            _blockHash,\n            CheckpointCommitStatus.Finalized,\n            _dynasty\n        );\n\n        // Store the blocknumber as tip.\n        blockTips[_metachainId] = _blockNumber;\n    }\n\n    /**\n     * @notice This function sets the relative self dynasty for testing purpose.\n     */\n    function setRelativeSelfDynasty(uint256 _dynasty) external {\n        relativeSelfDynasty = _dynasty;\n    }\n\n\n    function setCoreputation(address _coreputation) external {\n        coreputation = _coreputation;\n    }\n\n    function setConsensusCogateway(address _consensusCogateway) external {\n        consensusCogateway = _consensusCogateway;\n    }\n\n     /** @notice Get the coreputation contract address. */\n    function getCoreputation()\n        internal\n        view\n        returns (CoreputationInterface)\n    {\n        return CoreputationInterface(coreputation);\n    }\n\n    /** @notice Get the consensus cogateway contract address. */\n    function getConsensusCogateway()\n        internal\n        view\n        returns (ConsensusCogatewayInterface)\n    {\n        return ConsensusCogatewayInterface(consensusCogateway);\n    }\n}\n",
  "sourcePath": "/Users/abhay/Documents/projects/abhayforks/mosaic-1/contracts/test/consensus/CoconsensusTest.sol",
  "compiler": {
    "name": "solc",
    "version": "0.5.13+commit.5b0b510c.Emscripten.clang"
  },
  "schemaVersion": "3.0.17",
  "updatedAt": "2020-03-21T06:48:34.782Z",
  "devdoc": {
    "methods": {
      "commitCheckpoint(bytes32,uint256,address[],uint256[],uint256,bytes32,bytes32,bytes32,uint256,uint256)": {
        "params": {
          "_gasTarget": "The gas target for the metablock",
          "_kernelHeight": "New kernel height",
          "_metachainId": "Metachain Id.",
          "_source": "Blockhash of source checkpoint.",
          "_sourceBlockNumber": "Block number of source checkpoint.",
          "_target": "Blockhash of target checkpoint.",
          "_targetBlockNumber": "Block number af target checkpoint.     * \\pre `_metachainId` is self metachain id. \\pre `_source` is not 0. \\pre `_target` is not 0. \\pre `_sourceBlockNumber` is a checkpoint. \\pre `_targetBlockNumber` is a checkpoint. \\pre `_targetBlockNumber` is greater than `_sourceBlockNumber`. \\pre Source checkpoint is finalized. \\pre Open kernel hash exists in `ConsensusCogateway` contract for the     given `_kernelHeight`.     * \\post Updates the validator set in self protocore. \\post Updates the reputation of validators. \\post Opens a new metablock in self protocore.",
          "_transitionHash": "Transition hash.",
          "_updatedReputation": "The array of reputation that corresponds to                       the updated validators.",
          "_updatedValidators": "The array of addresses of the updated validators."
        }
      },
      "finaliseCheckpoint(bytes32,uint256,bytes32)": {
        "params": {
          "_blockHash": "A block hash of a checkpoint.     * \\pre `_metachainId` is not 0. \\pre `_blockHash` is not 0. \\pre `msg.sender` should be the protocore contract. \\pre `_blockNumber` must be multiple of epoch length. \\pre `_blockNumber` must be greater than the last finalized block number.     * \\post Increment the `relativeSelfDynasty` storage value by one if the      `msg.sender` is self protocore contract address. \\post Adds a new `Block` in the `blockchains` mapping. \\post Updates the `blockTips` mapping with provided `_blockNumber`.",
          "_blockNumber": "A block number of a checkpoint.",
          "_metachainId": "A metachain id to finalize a checkpoint."
        }
      },
      "observeBlock(bytes32,bytes)": {
        "params": {
          "_metachainId": "Metachain id.",
          "_rlpBlockHeader": "RLP encoded block header.     * \\pre `_metachainId` is not 0. \\pre `_rlpBlockHeader` is not 0. \\pre `_metachainId` is not `selfMetachainId`. \\pre A block must exist in `blockchains` storage for the given     `_metachainid` and block number from the decoded `_rlpBlockHeader`. \\pre The commit status of the block must be at least `Finalized`. \\pre The status dynasty of the block is less than `relativeSelfDynasty`.     * \\post Anchors the state root in the observer contract."
        }
      },
      "setup()": {
        "details": "This function can be called only once."
      }
    }
  },
  "userdoc": {
    "methods": {
      "commitCheckpoint(bytes32,uint256,address[],uint256[],uint256,bytes32,bytes32,bytes32,uint256,uint256)": {
        "notice": "Updates the validator set and its reputations with opening of        a new metablock."
      },
      "finaliseCheckpoint(bytes32,uint256,bytes32)": {
        "notice": "finaliseCheckpoint() function finalizes a checkpoint at        a metachain."
      },
      "observeBlock(bytes32,bytes)": {
        "notice": "Observes the given block by anchoring its state root into the        corresponding observer."
      },
      "setFinaliseCheckpoint(bytes32,uint256,bytes32,uint256)": {
        "notice": "This function is used to set the finalize checkpoint."
      },
      "setGenesisStorage(bytes32[],address[],address[])": {
        "notice": "This function stores the genesis data."
      },
      "setRelativeSelfDynasty(uint256)": {
        "notice": "This function sets the relative self dynasty for testing purpose."
      },
      "setup()": {
        "notice": "Setup function does the initialization of all the mosaic        contracts on the auxiliary chain."
      }
    }
  }
}