{
  "contractName": "CoconsensusModule",
  "abi": [
    {
      "constant": true,
      "inputs": [],
      "name": "getCoconsensus",
      "outputs": [
        {
          "internalType": "contract CoconsensusInterface",
          "name": "",
          "type": "address"
        }
      ],
      "payable": false,
      "stateMutability": "view",
      "type": "function"
    }
  ],
  "bytecode": "0x6080604052600080546001600160a01b031916614d00179055348015602357600080fd5b506093806100326000396000f3fe6080604052348015600f57600080fd5b506004361060285760003560e01c806323609af714602d575b600080fd5b6033604f565b604080516001600160a01b039092168252519081900360200190f35b6000546001600160a01b03169056fea265627a7a72315820f3bd626e928ddcf43cc282da5eb395c5e6ec7c2a28642c5b98fbd77cf7fbe16264736f6c634300050d0032",
  "source": "pragma solidity >=0.5.0 <0.6.0;\n\n// Copyright 2019 OpenST Ltd.\n//\n// Licensed under the Apache License, Version 2.0 (the \"License\");\n// you may not use this file except in compliance with the License.\n// You may obtain a copy of the License at\n//\n//    http://www.apache.org/licenses/LICENSE-2.0\n//\n// Unless required by applicable law or agreed to in writing, software\n// distributed under the License is distributed on an \"AS IS\" BASIS,\n// WITHOUT WARRANTIES OR CONDITIONS OF ANY KIND, either express or implied.\n// See the License for the specific language governing permissions and\n// limitations under the License.\n\nimport \"./CoconsensusInterface.sol\";\n\ncontract CoconsensusModule {\n\n    /* Storage */\n\n    /** Address of Coconsensus contract on auxiliary chain. */\n    address private coconsensusAddress = address(0x0000000000000000000000000000000000004D00);\n\n\n    /* Modifiers */\n\n    modifier onlyCoconsensus()\n    {\n        require(\n            msg.sender == address(getCoconsensus()),\n            \"Only the Coconsensus contract can call this function.\"\n        );\n\n        _;\n    }\n\n\n    /* Public functions */\n\n    /**\n     * @notice Gets the coconsensus contract address.\n     *\n     * @return Coconsensus contract address.\n     */\n    function getCoconsensus() public view returns (CoconsensusInterface) {\n        return CoconsensusInterface(coconsensusAddress);\n    }\n}\n",
  "sourcePath": "/Users/abhay/Documents/projects/abhayforks/mosaic-1/contracts/consensus/CoconsensusModule.sol",
  "compiler": {
    "name": "solc",
    "version": "0.5.13+commit.5b0b510c.Emscripten.clang"
  },
  "schemaVersion": "3.0.17",
  "updatedAt": "2020-03-21T06:48:34.648Z",
  "devdoc": {
    "methods": {
      "getCoconsensus()": {
        "return": "Coconsensus contract address."
      }
    }
  },
  "userdoc": {
    "methods": {
      "getCoconsensus()": {
        "notice": "Gets the coconsensus contract address."
      }
    }
  }
}