{
  "contractName": "CommitteeMockConsensus",
  "abi": [
    {
      "constant": true,
      "inputs": [
        {
          "internalType": "address",
          "name": "",
          "type": "address"
        }
      ],
      "name": "decisions",
      "outputs": [
        {
          "internalType": "bytes32",
          "name": "",
          "type": "bytes32"
        }
      ],
      "payable": false,
      "stateMutability": "view",
      "type": "function"
    },
    {
      "constant": false,
      "inputs": [
        {
          "internalType": "bytes32",
          "name": "",
          "type": "bytes32"
        },
        {
          "internalType": "bytes32",
          "name": "_committeeDecision",
          "type": "bytes32"
        }
      ],
      "name": "registerCommitteeDecision",
      "outputs": [],
      "payable": false,
      "stateMutability": "nonpayable",
      "type": "function"
    },
    {
      "constant": true,
      "inputs": [],
      "name": "reputation",
      "outputs": [
        {
          "internalType": "contract ReputationInterface",
          "name": "",
          "type": "address"
        }
      ],
      "payable": false,
      "stateMutability": "view",
      "type": "function"
    },
    {
      "constant": true,
      "inputs": [],
      "name": "coreValidatorThresholds",
      "outputs": [
        {
          "internalType": "uint256",
          "name": "",
          "type": "uint256"
        },
        {
          "internalType": "uint256",
          "name": "",
          "type": "uint256"
        }
      ],
      "payable": false,
      "stateMutability": "view",
      "type": "function"
    },
    {
      "constant": false,
      "inputs": [
        {
          "internalType": "bytes32",
          "name": "",
          "type": "bytes32"
        },
        {
          "internalType": "uint256",
          "name": "",
          "type": "uint256"
        },
        {
          "internalType": "bytes32",
          "name": "",
          "type": "bytes32"
        }
      ],
      "name": "precommitMetablock",
      "outputs": [],
      "payable": false,
      "stateMutability": "nonpayable",
      "type": "function"
    },
    {
      "constant": false,
      "inputs": [],
      "name": "newMetachain",
      "outputs": [
        {
          "internalType": "bytes32",
          "name": "metachainId_",
          "type": "bytes32"
        },
        {
          "internalType": "address",
          "name": "anchor_",
          "type": "address"
        },
        {
          "internalType": "string",
          "name": "mosaicVersion_",
          "type": "string"
        },
        {
          "internalType": "address",
          "name": "consensusGateway_",
          "type": "address"
        }
      ],
      "payable": false,
      "stateMutability": "nonpayable",
      "type": "function"
    },
    {
      "constant": false,
      "inputs": [
        {
          "internalType": "address",
          "name": "_committee",
          "type": "address"
        },
        {
          "internalType": "address",
          "name": "_validator",
          "type": "address"
        },
        {
          "internalType": "address",
          "name": "_furtherMember",
          "type": "address"
        }
      ],
      "name": "enterCommittee",
      "outputs": [],
      "payable": false,
      "stateMutability": "nonpayable",
      "type": "function"
    },
    {
      "constant": false,
      "inputs": [
        {
          "internalType": "bytes32",
          "name": "",
          "type": "bytes32"
        }
      ],
      "name": "getAnchor",
      "outputs": [
        {
          "internalType": "address",
          "name": "anchor_",
          "type": "address"
        }
      ],
      "payable": false,
      "stateMutability": "nonpayable",
      "type": "function"
    }
  ],
  "bytecode": "0x608060405234801561001057600080fd5b506103c9806100206000396000f3fe608060405234801561001057600080fd5b50600436106100885760003560e01c80637feb51d91161005b5780637feb51d9146101db578063c52164c614610214578063c8111da11461021c578063efa831ab1461024557610088565b806303f920761461008d57806324b4ef95146101465780635d4289b71461018057806375c5d58d146101a3575b600080fd5b610095610266565b60405180858152602001846001600160a01b03166001600160a01b0316815260200180602001836001600160a01b03166001600160a01b03168152602001828103825284818151815260200191508051906020019080838360005b838110156101085781810151838201526020016100f0565b50505050905090810190601f1680156101355780820380516001836020036101000a031916815260200191505b509550505050505060405180910390f35b61017e6004803603606081101561015c57600080fd5b506001600160a01b038135811691602081013582169160409091013516610273565b005b61017e6004803603604081101561019657600080fd5b50803590602001356102e3565b6101c9600480360360208110156101b957600080fd5b50356001600160a01b0316610342565b60408051918252519081900360200190f35b6101f8600480360360208110156101f157600080fd5b5035610354565b604080516001600160a01b039092168252519081900360200190f35b6101f861035a565b61017e6004803603606081101561023257600080fd5b508035906020810135906040013561035f565b61024d610364565b6040805192835260208301919091528051918290030190f35b6000806060600090919293565b6040805163bf81b13b60e01b81526001600160a01b038481166004830152838116602483015291519185169163bf81b13b9160448082019260009290919082900301818387803b1580156102c657600080fd5b505af11580156102da573d6000803e3d6000fd5b50505050505050565b336000908152602081905260409020541561032f5760405162461bcd60e51b815260040180806020018281038252602981526020018061036c6029913960400191505060405180910390fd5b3360009081526020819052604090205550565b60006020819052908152604090205481565b50600190565b600090565b505050565b600080909156fe436f6d6d69747465652773206465636973696f6e20686173206265656e20726567697374657265642ea265627a7a72315820a536892dba3d7c450f5d51da0dc30474d28445bff6ee77a20007648bca7c9daa64736f6c634300050d0032",
  "source": "pragma solidity >=0.5.0 <0.6.0;\n\n// Copyright 2019 OpenST Ltd.\n//\n// Licensed under the Apache License, Version 2.0 (the \"License\");\n// you may not use this file except in compliance with the License.\n// You may obtain a copy of the License at\n//\n//    http://www.apache.org/licenses/LICENSE-2.0\n//\n// Unless required by applicable law or agreed to in writing, software\n// distributed under the License is distributed on an \"AS IS\" BASIS,\n// WITHOUT WARRANTIES OR CONDITIONS OF ANY KIND, either express or implied.\n// See the License for the specific language governing permissions and\n// limitations under the License.\n\nimport \"../../committee/Committee.sol\";\nimport \"../../consensus/ConsensusInterface.sol\";\n\ncontract CommitteeMockConsensus is ConsensusInterface {\n\n    /* Storage */\n\n    /** Precommits under consideration of committees. */\n    mapping(address /* committee */ => bytes32 /* commit */) public decisions;\n\n\n    /* External Functions */\n\n    function registerCommitteeDecision(\n        bytes32 /* _metachainId */,\n        bytes32 _committeeDecision\n    )\n        external\n    {\n        require(\n            decisions[msg.sender] == bytes32(0),\n            \"Committee's decision has been registered.\"\n        );\n\n        decisions[msg.sender] = _committeeDecision;\n    }\n\n    function reputation()\n        external\n        view\n        returns (ReputationInterface)\n    {\n    }\n\n    function coreValidatorThresholds()\n        external\n        view\n        returns (uint256, uint256)\n    {\n    }\n\n    function precommitMetablock(\n        bytes32 /* _metachainId */,\n        uint256 /* _metablockHeight */,\n        bytes32 /* _metablockHashPrecommit */\n    )\n        external\n    {\n    }\n\n    function newMetachain()\n        external\n        returns (\n            bytes32 metachainId_,\n            address anchor_,\n            string memory mosaicVersion_,\n            address consensusGateway_\n        )\n    {\n    }\n\n    function enterCommittee(\n        address _committee,\n        address _validator,\n        address _furtherMember\n    )\n        external\n    {\n        Committee(_committee).enterCommittee(\n            _validator,\n            _furtherMember\n        );\n    }\n\n    /**\n     * @notice Get anchor address for metachain id.\n     *\n     * @return anchor_ Anchor address.\n     */\n    function getAnchor(bytes32)\n        external\n        returns (address anchor_)\n    {\n        anchor_ = address(1);\n    }\n\n}\n",
  "sourcePath": "/Users/abhay/Documents/projects/abhayforks/mosaic-1/contracts/test/committee/CommitteeMockConsensus.sol",
  "compiler": {
    "name": "solc",
    "version": "0.5.13+commit.5b0b510c.Emscripten.clang"
  },
  "schemaVersion": "3.0.17",
  "updatedAt": "2020-03-21T06:48:34.780Z",
  "devdoc": {
    "methods": {
      "getAnchor(bytes32)": {
        "return": "anchor_ Anchor address."
      }
    }
  },
  "userdoc": {
    "methods": {
      "getAnchor(bytes32)": {
        "notice": "Get anchor address for metachain id."
      }
    }
  }
}