{
  "contractName": "Committee",
  "abi": [
    {
      "anonymous": false,
      "inputs": [
        {
          "indexed": false,
          "internalType": "address",
          "name": "member",
          "type": "address"
        }
      ],
      "name": "MemberCommitted",
      "type": "event"
    },
    {
      "anonymous": false,
      "inputs": [
        {
          "indexed": false,
          "internalType": "address",
          "name": "member",
          "type": "address"
        }
      ],
      "name": "MemberEjected",
      "type": "event"
    },
    {
      "anonymous": false,
      "inputs": [
        {
          "indexed": false,
          "internalType": "address",
          "name": "member",
          "type": "address"
        }
      ],
      "name": "MemberEntered",
      "type": "event"
    },
    {
      "anonymous": false,
      "inputs": [
        {
          "indexed": false,
          "internalType": "address",
          "name": "member",
          "type": "address"
        },
        {
          "indexed": false,
          "internalType": "bytes32",
          "name": "position",
          "type": "bytes32"
        }
      ],
      "name": "MemberRevealed",
      "type": "event"
    },
    {
      "anonymous": false,
      "inputs": [
        {
          "indexed": false,
          "internalType": "enum Committee.CommitteeStatus",
          "name": "status",
          "type": "uint8"
        }
      ],
      "name": "StatusUpdated",
      "type": "event"
    },
    {
      "constant": true,
      "inputs": [],
      "name": "COMMITTEE_COMMIT_PHASE_TIMEOUT",
      "outputs": [
        {
          "internalType": "uint256",
          "name": "",
          "type": "uint256"
        }
      ],
      "payable": false,
      "stateMutability": "view",
      "type": "function"
    },
    {
      "constant": true,
      "inputs": [],
      "name": "COMMITTEE_FORMATION_COOLDOWN",
      "outputs": [
        {
          "internalType": "uint256",
          "name": "",
          "type": "uint256"
        }
      ],
      "payable": false,
      "stateMutability": "view",
      "type": "function"
    },
    {
      "constant": true,
      "inputs": [],
      "name": "COMMITTEE_REVEAL_PHASE_TIMEOUT",
      "outputs": [
        {
          "internalType": "uint256",
          "name": "",
          "type": "uint256"
        }
      ],
      "payable": false,
      "stateMutability": "view",
      "type": "function"
    },
    {
      "constant": true,
      "inputs": [],
      "name": "COMMITTEE_SUPER_MAJORITY_DENOMINATOR",
      "outputs": [
        {
          "internalType": "uint256",
          "name": "",
          "type": "uint256"
        }
      ],
      "payable": false,
      "stateMutability": "view",
      "type": "function"
    },
    {
      "constant": true,
      "inputs": [],
      "name": "COMMITTEE_SUPER_MAJORITY_NUMERATOR",
      "outputs": [
        {
          "internalType": "uint256",
          "name": "",
          "type": "uint256"
        }
      ],
      "payable": false,
      "stateMutability": "view",
      "type": "function"
    },
    {
      "constant": true,
      "inputs": [],
      "name": "COMMIT_DATA_UNAVAILABLE",
      "outputs": [
        {
          "internalType": "bytes32",
          "name": "",
          "type": "bytes32"
        }
      ],
      "payable": false,
      "stateMutability": "view",
      "type": "function"
    },
    {
      "constant": true,
      "inputs": [],
      "name": "COMMIT_REJECT_PROPOSAL",
      "outputs": [
        {
          "internalType": "bytes32",
          "name": "",
          "type": "bytes32"
        }
      ],
      "payable": false,
      "stateMutability": "view",
      "type": "function"
    },
    {
      "constant": true,
      "inputs": [],
      "name": "SENTINEL_DISTANCE",
      "outputs": [
        {
          "internalType": "uint256",
          "name": "",
          "type": "uint256"
        }
      ],
      "payable": false,
      "stateMutability": "view",
      "type": "function"
    },
    {
      "constant": true,
      "inputs": [],
      "name": "SENTINEL_MEMBERS",
      "outputs": [
        {
          "internalType": "address",
          "name": "",
          "type": "address"
        }
      ],
      "payable": false,
      "stateMutability": "view",
      "type": "function"
    },
    {
      "constant": true,
      "inputs": [],
      "name": "activationBlockHeight",
      "outputs": [
        {
          "internalType": "uint256",
          "name": "",
          "type": "uint256"
        }
      ],
      "payable": false,
      "stateMutability": "view",
      "type": "function"
    },
    {
      "constant": true,
      "inputs": [],
      "name": "commitTimeOutBlockHeight",
      "outputs": [
        {
          "internalType": "uint256",
          "name": "",
          "type": "uint256"
        }
      ],
      "payable": false,
      "stateMutability": "view",
      "type": "function"
    },
    {
      "constant": true,
      "inputs": [
        {
          "internalType": "address",
          "name": "",
          "type": "address"
        }
      ],
      "name": "commits",
      "outputs": [
        {
          "internalType": "bytes32",
          "name": "",
          "type": "bytes32"
        }
      ],
      "payable": false,
      "stateMutability": "view",
      "type": "function"
    },
    {
      "constant": true,
      "inputs": [],
      "name": "committeeDecision",
      "outputs": [
        {
          "internalType": "bytes32",
          "name": "",
          "type": "bytes32"
        }
      ],
      "payable": false,
      "stateMutability": "view",
      "type": "function"
    },
    {
      "constant": true,
      "inputs": [],
      "name": "committeeSize",
      "outputs": [
        {
          "internalType": "uint256",
          "name": "",
          "type": "uint256"
        }
      ],
      "payable": false,
      "stateMutability": "view",
      "type": "function"
    },
    {
      "constant": true,
      "inputs": [],
      "name": "committeeStatus",
      "outputs": [
        {
          "internalType": "enum Committee.CommitteeStatus",
          "name": "",
          "type": "uint8"
        }
      ],
      "payable": false,
      "stateMutability": "view",
      "type": "function"
    },
    {
      "constant": true,
      "inputs": [],
      "name": "consensus",
      "outputs": [
        {
          "internalType": "contract ConsensusInterface",
          "name": "",
          "type": "address"
        }
      ],
      "payable": false,
      "stateMutability": "view",
      "type": "function"
    },
    {
      "constant": true,
      "inputs": [],
      "name": "dislocation",
      "outputs": [
        {
          "internalType": "bytes32",
          "name": "",
          "type": "bytes32"
        }
      ],
      "payable": false,
      "stateMutability": "view",
      "type": "function"
    },
    {
      "constant": true,
      "inputs": [],
      "name": "memberCount",
      "outputs": [
        {
          "internalType": "uint256",
          "name": "",
          "type": "uint256"
        }
      ],
      "payable": false,
      "stateMutability": "view",
      "type": "function"
    },
    {
      "constant": true,
      "inputs": [],
      "name": "memberInitiatedCooldown",
      "outputs": [
        {
          "internalType": "address",
          "name": "",
          "type": "address"
        }
      ],
      "payable": false,
      "stateMutability": "view",
      "type": "function"
    },
    {
      "constant": true,
      "inputs": [
        {
          "internalType": "address",
          "name": "",
          "type": "address"
        }
      ],
      "name": "members",
      "outputs": [
        {
          "internalType": "address",
          "name": "",
          "type": "address"
        }
      ],
      "payable": false,
      "stateMutability": "view",
      "type": "function"
    },
    {
      "constant": true,
      "inputs": [],
      "name": "metachainId",
      "outputs": [
        {
          "internalType": "bytes32",
          "name": "",
          "type": "bytes32"
        }
      ],
      "payable": false,
      "stateMutability": "view",
      "type": "function"
    },
    {
      "constant": true,
      "inputs": [
        {
          "internalType": "bytes32",
          "name": "",
          "type": "bytes32"
        }
      ],
      "name": "positionCounts",
      "outputs": [
        {
          "internalType": "uint256",
          "name": "",
          "type": "uint256"
        }
      ],
      "payable": false,
      "stateMutability": "view",
      "type": "function"
    },
    {
      "constant": true,
      "inputs": [
        {
          "internalType": "address",
          "name": "",
          "type": "address"
        }
      ],
      "name": "positions",
      "outputs": [
        {
          "internalType": "bytes32",
          "name": "",
          "type": "bytes32"
        }
      ],
      "payable": false,
      "stateMutability": "view",
      "type": "function"
    },
    {
      "constant": true,
      "inputs": [
        {
          "internalType": "uint256",
          "name": "",
          "type": "uint256"
        }
      ],
      "name": "positionsTaken",
      "outputs": [
        {
          "internalType": "bytes32",
          "name": "",
          "type": "bytes32"
        }
      ],
      "payable": false,
      "stateMutability": "view",
      "type": "function"
    },
    {
      "constant": true,
      "inputs": [],
      "name": "proposal",
      "outputs": [
        {
          "internalType": "bytes32",
          "name": "",
          "type": "bytes32"
        }
      ],
      "payable": false,
      "stateMutability": "view",
      "type": "function"
    },
    {
      "constant": true,
      "inputs": [],
      "name": "quorum",
      "outputs": [
        {
          "internalType": "uint256",
          "name": "",
          "type": "uint256"
        }
      ],
      "payable": false,
      "stateMutability": "view",
      "type": "function"
    },
    {
      "constant": true,
      "inputs": [],
      "name": "revealTimeOutBlockHeight",
      "outputs": [
        {
          "internalType": "uint256",
          "name": "",
          "type": "uint256"
        }
      ],
      "payable": false,
      "stateMutability": "view",
      "type": "function"
    },
    {
      "constant": true,
      "inputs": [],
      "name": "submissionCount",
      "outputs": [
        {
          "internalType": "uint256",
          "name": "",
          "type": "uint256"
        }
      ],
      "payable": false,
      "stateMutability": "view",
      "type": "function"
    },
    {
      "constant": true,
      "inputs": [],
      "name": "totalPositionsCount",
      "outputs": [
        {
          "internalType": "uint256",
          "name": "",
          "type": "uint256"
        }
      ],
      "payable": false,
      "stateMutability": "view",
      "type": "function"
    },
    {
      "constant": false,
      "inputs": [
        {
          "internalType": "bytes32",
          "name": "_metachainId",
          "type": "bytes32"
        },
        {
          "internalType": "contract ConsensusInterface",
          "name": "_consensus",
          "type": "address"
        },
        {
          "internalType": "uint256",
          "name": "_committeeSize",
          "type": "uint256"
        },
        {
          "internalType": "bytes32",
          "name": "_dislocation",
          "type": "bytes32"
        },
        {
          "internalType": "bytes32",
          "name": "_proposal",
          "type": "bytes32"
        }
      ],
      "name": "setup",
      "outputs": [],
      "payable": false,
      "stateMutability": "nonpayable",
      "type": "function"
    },
    {
      "constant": false,
      "inputs": [
        {
          "internalType": "address",
          "name": "_validator",
          "type": "address"
        },
        {
          "internalType": "address",
          "name": "_furtherMember",
          "type": "address"
        }
      ],
      "name": "enterCommittee",
      "outputs": [],
      "payable": false,
      "stateMutability": "nonpayable",
      "type": "function"
    },
    {
      "constant": false,
      "inputs": [],
      "name": "cooldownCommittee",
      "outputs": [],
      "payable": false,
      "stateMutability": "nonpayable",
      "type": "function"
    },
    {
      "constant": false,
      "inputs": [
        {
          "internalType": "address",
          "name": "_excludedMember",
          "type": "address"
        }
      ],
      "name": "challengeCommittee",
      "outputs": [],
      "payable": false,
      "stateMutability": "nonpayable",
      "type": "function"
    },
    {
      "constant": false,
      "inputs": [],
      "name": "activateCommittee",
      "outputs": [],
      "payable": false,
      "stateMutability": "nonpayable",
      "type": "function"
    },
    {
      "constant": false,
      "inputs": [
        {
          "internalType": "bytes32",
          "name": "_sealedCommit",
          "type": "bytes32"
        }
      ],
      "name": "submitSealedCommit",
      "outputs": [],
      "payable": false,
      "stateMutability": "nonpayable",
      "type": "function"
    },
    {
      "constant": false,
      "inputs": [],
      "name": "closeCommitPhase",
      "outputs": [],
      "payable": false,
      "stateMutability": "nonpayable",
      "type": "function"
    },
    {
      "constant": false,
      "inputs": [
        {
          "internalType": "bytes32",
          "name": "_position",
          "type": "bytes32"
        },
        {
          "internalType": "bytes32",
          "name": "_salt",
          "type": "bytes32"
        }
      ],
      "name": "revealCommit",
      "outputs": [],
      "payable": false,
      "stateMutability": "nonpayable",
      "type": "function"
    },
    {
      "constant": true,
      "inputs": [],
      "name": "getMembers",
      "outputs": [
        {
          "internalType": "address[]",
          "name": "",
          "type": "address[]"
        }
      ],
      "payable": false,
      "stateMutability": "view",
      "type": "function"
    },
    {
      "constant": true,
      "inputs": [
        {
          "internalType": "address",
          "name": "_account",
          "type": "address"
        }
      ],
      "name": "distanceToProposal",
      "outputs": [
        {
          "internalType": "uint256",
          "name": "",
          "type": "uint256"
        }
      ],
      "payable": false,
      "stateMutability": "view",
      "type": "function"
    },
    {
      "constant": true,
      "inputs": [
        {
          "internalType": "address",
          "name": "_validator",
          "type": "address"
        }
      ],
      "name": "shuffle",
      "outputs": [
        {
          "internalType": "bytes32",
          "name": "",
          "type": "bytes32"
        }
      ],
      "payable": false,
      "stateMutability": "view",
      "type": "function"
    }
  ],
  "bytecode": "0x608060405234801561001057600080fd5b50611d81806100206000396000f3fe608060405234801561001057600080fd5b50600436106102485760003560e01c80636ec02be91161013b5780639eab5253116100b8578063df22ba861161007c578063df22ba8614610573578063e528a6f81461057b578063e777b9b714610583578063ed74622d1461058b578063fd720b5f1461059357610248565b80639eab5253146104b7578063bf81b13b1461050f578063c5e6a6921461053d578063c7920f8c14610545578063d23391aa1461056b57610248565b80637a02e0c8116100ff5780637a02e0c8146104715780637b43a8e6146104795780637e67d1141461049f5780638ef3f761146104a75780639cf4364b146104af57610248565b80636ec02be91461041f578063707978201461042757806370f66c8014610444578063753ec1031461044c5780637544ed3f1461045457610248565b806332f7ad27116101c9578063630935631161018d578063630935631461039157806365c3a26f1461039957806369452583146103d75780636a6eeb1f146103f45780636d1fa35b146103fc57610248565b806332f7ad271461030f57806355ea243a1461031757806355f575101461033d5780635b20a53a14610363578063627e30d31461038957610248565b80631f48d7ff116102105780631f48d7ff146102c15780631fdeaa31146102cb57806321bf03d8146102d35780632bebbc46146102db57806331d26094146102e357610248565b806308ae4b0c1461024d57806310c0012c1461028f57806311aee3801461029757806313705198146102b15780631703a018146102b9575b600080fd5b6102736004803603602081101561026357600080fd5b50356001600160a01b031661059b565b604080516001600160a01b039092168252519081900360200190f35b6102736105b6565b61029f6105bb565b60408051918252519081900360200190f35b61029f6105c1565b61029f6105c7565b6102c96105cd565b005b61029f6106ce565b61029f6106d4565b61029f6106da565b6102eb6106e0565b604051808260058111156102fb57fe5b60ff16815260200191505060405180910390f35b6102c96106e9565b61029f6004803603602081101561032d57600080fd5b50356001600160a01b0316610742565b61029f6004803603602081101561035357600080fd5b50356001600160a01b031661075e565b6102c96004803603602081101561037957600080fd5b50356001600160a01b0316610770565b61029f610914565b61029f610919565b6102c9600480360360a08110156103af57600080fd5b508035906001600160a01b03602082013516906040810135906060810135906080013561091f565b61029f600480360360208110156103ed57600080fd5b5035610afe565b6102c9610b1c565b6102c96004803603604081101561041257600080fd5b5080359060200135610c41565b61029f610f62565b61029f6004803603602081101561043d57600080fd5b5035610f68565b61029f610f7a565b61029f610f80565b6102c96004803603602081101561046a57600080fd5b5035610f86565b61029f611146565b61029f6004803603602081101561048f57600080fd5b50356001600160a01b0316611174565b61029f611186565b61027361118c565b61029f61119b565b6104bf6111a1565b60408051602080825283518183015283519192839290830191858101910280838360005b838110156104fb5781810151838201526020016104e3565b505050509050019250505060405180910390f35b6102c96004803603604081101561052557600080fd5b506001600160a01b03813581169160200135166112ca565b61029f6115b9565b61029f6004803603602081101561055b57600080fd5b50356001600160a01b03166115be565b61029f61160d565b61029f611613565b61029f611618565b61027361161e565b61029f61162d565b61029f611633565b600e602052600090815260409020546001600160a01b031681565b600181565b60055481565b61024081565b60045481565b336000908152600e60205260409020546001600160a01b03166106215760405162461bcd60e51b8152600401808060200182810382526024815260200180611cd36024913960400191505060405180910390fd5b6001600d5460ff16600581111561063457fe5b146106705760405162461bcd60e51b8152600401808060200182810382526029815260200180611c1b6029913960400191505060405180910390fd5b60115443116106b05760405162461bcd60e51b815260040180806020018281038252603c815260200180611a0f603c913960400191505060405180910390fd5b601254156106ba57fe5b6106c46002611668565b4361024001601255565b60025481565b600c5481565b60001981565b600d5460ff1681565b6002600d5460ff1660058111156106fc57fe5b146107385760405162461bcd60e51b8152600401808060200182810382526026815260200180611d276026913960400191505060405180910390fd5b6107406116d5565b565b6000610758610750836115be565b600b54611701565b92915050565b60106020526000908152604090205481565b6001546001600160a01b031633146107b95760405162461bcd60e51b8152600401808060200182810382526033815260200180611c446033913960400191505060405180910390fd5b6001600d5460ff1660058111156107cc57fe5b146108085760405162461bcd60e51b8152600401808060200182810382526029815260200180611c1b6029913960400191505060405180910390fd5b6001600160a01b038181166000908152600e6020526040902054161561085f5760405162461bcd60e51b815260040180806020018281038252602e815260200180611b9f602e913960400191505060405180910390fd5b60016000908152600e6020526000805160206119ef8339815191525461088d906001600160a01b0316610742565b9050600061089a83610742565b90508181106108f0576040805162461bcd60e51b815260206004820152601960248201527f4d656d62657220686173206265656e206578636c756465642e00000000000000604482015290519081900360640190fd5b6108fa6005611668565b60145461090f906001600160a01b0316611705565b505050565b603281565b60135481565b60025415610974576040805162461bcd60e51b815260206004820152601b60248201527f436f6d6d697474656520697320616c72656164792073657475702e0000000000604482015290519081900360640190fd5b846109bb576040805162461bcd60e51b815260206004820152601260248201527126b2ba30b1b430b4b71034b21034b990181760711b604482015290519081900360640190fd5b60038310156109fb5760405162461bcd60e51b815260040180806020018281038252602e815260200180611b34602e913960400191505060405180910390fd5b81610a4d576040805162461bcd60e51b815260206004820152601d60248201527f4469736c6f636174696f6e206d757374206e6f74206265207a65726f2e000000604482015290519081900360640190fd5b80610a9f576040805162461bcd60e51b815260206004820152601a60248201527f50726f706f73616c206d757374206e6f74206265207a65726f2e000000000000604482015290519081900360640190fd5b610aa88461175b565b6002859055610ab76000611668565b60016000819052600e6020526000805160206119ef83398151915280546001600160a01b03191690911790556003838155600c92909255600b556002909102046004555050565b600a8181548110610b0b57fe5b600091825260209091200154905081565b336000908152600e60205260409020546001600160a01b0316610b705760405162461bcd60e51b8152600401808060200182810382526024815260200180611cd36024913960400191505060405180910390fd5b6000600d5460ff166005811115610b8357fe5b14610bbf5760405162461bcd60e51b8152600401808060200182810382526021815260200180611c776021913960400191505060405180910390fd5b60035460055414610c015760405162461bcd60e51b815260040180806020018281038252603a815260200180611a4b603a913960400191505060405180910390fd5b60115415610c0b57fe5b6014546001600160a01b031615610c1e57fe5b601480546001600160a01b03191633179055436032016011556107406001611668565b336000908152600e60205260409020546001600160a01b0316610c955760405162461bcd60e51b8152600401808060200182810382526024815260200180611cd36024913960400191505060405180910390fd5b6003600d5460ff166005811115610ca857fe5b14610ce45760405162461bcd60e51b8152600401808060200182810382526026815260200180611aaa6026913960400191505060405180910390fd5b336000908152600f602052604090205480610d3f576040805162461bcd60e51b815260206004820152601660248201527521b7b6b6b4ba1031b0b73737ba10313290373ab6361760511b604482015290519081900360640190fd5b82610d91576040805162461bcd60e51b815260206004820152601860248201527f506f736974696f6e2063616e6e6f74206265206e756c6c2e0000000000000000604482015290519081900360640190fd5b610d9b838361180a565b8114610dd85760405162461bcd60e51b8152600401808060200182810382526030815260200180611cf76030913960400191505060405180910390fd5b336000818152600f6020908152604080832083905560108252918290208690558151928352820185905280517f66571dfcc869d9bdf56545b84e3d5a5ca7facd879998f6279f981df58aac0a4b9281900390910190a1600083815260086020526040902054610e4e90600163ffffffff61184116565b600084815260086020526040902081905560011415610e9d57600a80546001810182556000919091527fc65a7bb8d6351c1cf70c95a316cc6a92839c986682d98bc35f958f4883f9d2a8018390555b60045460008481526008602052604090205410610f46576009541580610ec4575082600954145b610eca57fe5b600954610f4657600983905560015460025460408051635d4289b760e01b8152600481019290925260248201869052516001600160a01b0390921691635d4289b79160448082019260009290919082900301818387803b158015610f2d57600080fd5b505af1158015610f41573d6000803e3d6000fd5b505050505b600754610f5a90600163ffffffff61184116565b600755505050565b60065481565b60086020526000908152604090205481565b60075481565b600b5481565b336000908152600e60205260409020546001600160a01b0316610fda5760405162461bcd60e51b8152600401808060200182810382526024815260200180611cd36024913960400191505060405180910390fd5b6002600d5460ff166005811115610fed57fe5b146110295760405162461bcd60e51b8152600401808060200182810382526026815260200180611d276026913960400191505060405180910390fd5b8061107b576040805162461bcd60e51b815260206004820152601d60248201527f5365616c656420636f6d6d69742063616e6e6f74206265206e756c6c2e000000604482015290519081900360640190fd5b336000908152600f6020526040902054156110dd576040805162461bcd60e51b815260206004820152601c60248201527f4d656d6265722063616e206f6e6c7920636f6d6d6974206f6e63652e00000000604482015290519081900360640190fd5b336000818152600f6020908152604091829020849055815192835290517f9768073b41f898601f740e4e92402176a3f15267fde9a1c29395f248d91a26379281900390910190a160065461113890600163ffffffff61184116565b6006556111436116d5565b50565b604080517510d3d353525517d491529150d517d41493d413d4d05360521b8152905190819003601601902081565b600f6020526000908152604090205481565b60125481565b6001546001600160a01b031681565b60035481565b60016000908152600e6020526000805160206119ef83398151915254606091906001600160a01b03165b6001600160a01b038116600114611203576001600160a01b039081166000908152600e602052604090205460019290920191166111cb565b600554821461120e57fe5b60608260405190808252806020026020018201604052801561123a578160200160208202803883390190505b5060016000908152600e6020526000805160206119ef833981519152549094506001600160a01b0316925090505b6001600160a01b0382166001146112c3578181848151811061128657fe5b6001600160a01b039283166020918202929092018101919091529281166000908152600e9093526040909220546001939093019290911690611268565b9250505090565b6001546001600160a01b031633146113135760405162461bcd60e51b8152600401808060200182810382526033815260200180611c446033913960400191505060405180910390fd5b6000600d5460ff16600581111561132657fe5b146113625760405162461bcd60e51b8152600401808060200182810382526021815260200180611c776021913960400191505060405180910390fd5b6001600160a01b038216600114156113ab5760405162461bcd60e51b815260040180806020018281038252603c815260200180611af8603c913960400191505060405180910390fd5b6001600160a01b038216611406576040805162461bcd60e51b815260206004820181905260248201527f56616c696461746f722061646472657373206d757374206e6f7420626520302e604482015290519081900360640190fd5b6001600160a01b038281166000908152600e6020526040902054161561145d5760405162461bcd60e51b8152600401808060200182810382526028815260200180611ad06028913960400191505060405180910390fd5b6001600160a01b038181166000908152600e6020526040902054166114b35760405162461bcd60e51b815260040180806020018281038252602b815260200180611bcd602b913960400191505060405180910390fd5b60006114be83610742565b90506000196001600160a01b0383166001146114e0576114dd83610742565b90505b80821061151e5760405162461bcd60e51b815260040180806020018281038252603d815260200180611b62603d913960400191505060405180910390fd5b6001600160a01b038084166000908152600e60205260409020548491165b6001600160a01b0381166001146115a457600061155882610742565b905084811115611589576001600160a01b038083166000908152600e6020526040902054929350919091169061159e565b61159487838561185a565b50505050506115b5565b5061153c565b6115b08660018461185a565b505050505b5050565b600281565b600081600c5460405160200180836001600160a01b03166001600160a01b031660601b815260140182815260200192505050604051602081830303815290604052805190602001209050919050565b60115481565b600381565b60095481565b6014546001600160a01b031681565b6101e081565b604080517f434f4d4d49545f444154415f554e415641494c41424c450000000000000000008152905190819003601701902081565b600d805482919060ff1916600183600581111561168157fe5b0217905550600d546040517f7101a660456a4e2f94e6b0ccd3d6a034724e26130a817471aaf5a3de8fba384a9160ff1690808260058111156116bf57fe5b60ff16815260200191505060405180910390a150565b60055460065414806116e8575060125443115b15610740576116f76003611668565b436101e001601355565b1890565b6001600160a01b038181166000908152600e6020526040902054166111435760405162461bcd60e51b815260040180806020018281038252603b815260200180611c98603b913960400191505060405180910390fd5b6001546001600160a01b0316156117a35760405162461bcd60e51b8152600401808060200182810382526025815260200180611a856025913960400191505060405180910390fd5b6001600160a01b0381166117e85760405162461bcd60e51b8152600401808060200182810382526023815260200180611bf86023913960400191505060405180910390fd5b600180546001600160a01b0319166001600160a01b0392909216919091179055565b604080516020808201949094528082019290925233606090811b908301528051808303605401815260749092019052805191012090565b60008282018381101561185357600080fd5b9392505050565b6001600160a01b038084166000818152600e6020908152604080832080548689166001600160a01b031991821617909155948616835291829020805490941683179093558051918252517fa3f63c240cc464a647bc97c13a0ca7cdd964e4349e65605ac08cf0c0aae6c1f5929181900390910190a161090f6005546118e690600163ffffffff61184116565b600581905560035410156118fc576118fc61190a565b600354600554111561074057fe5b60006005541161191657fe5b60016000819052600e6020526000805160206119ef833981519152546001600160a01b0316908114611143576001600160a01b038181166000908152600e6020526040902080546000805160206119ef8339815191528054919093166001600160a01b0319918216811790935581541690556005546119969060016119d9565b600555604080516001600160a01b038416815290517fffe5508998d8a80c11731bb5e07a624469049638d739ed45848d28b8234017299181900360200190a15050565b6000828211156119e857600080fd5b5090039056fea7c5ba7114a813b50159add3a36832908dc83db71d0b9a24c2ad0f83be958207436f6d6d697474656520666f726d6174696f6e206d757374206861766520636f6f6c656420646f776e206265666f72652061637469766174696f6e2e546f20636c6f736520636f6d6d6974746565206d656d62657220636f756e74206d75737420657175616c20636f6d6d69747465652073697a652e436f6e73656e737573206164647265737320697320616c72656164792070726573656e742e436f6d6d6974746565206d75737420626520696e207468652072657665616c2070686173652e56616c696461746f72206d757374206e6f7420616c7265616479206861766520656e74657265642e56616c696461746f722061646472657373206d757374206e6f742062652073656e74696e656c20666f7220636f6d6d6974746565206d656d6265722e436f6d6d69747465652073697a65206d757374206e6f7420626520736d616c6c6572207468616e2074687265652e56616c696461746f72206d757374206265206e6561726572207468616e206675727468657220617761792070726573656e742076616c696461746f722e4d656d6265722073686f756c64206e6f7420616c726561647920626520696e2074686520636f6d6d69747465652e467572746865722076616c696461746f72206d75737420626520696e2074686520636f6d6d69747465652e436f6e73656e7375732061646472657373206d757374206e6f74206265206e756c6c2e436f6d6d697474656520666f726d6174696f6e206d75737420626520636f6f6c696e6720646f776e2e4f6e6c792074686520636f6e73656e73757320636f6e74726163742063616e2063616c6c20746869732066756e6374696f6e2e436f6d6d697474656520666f726d6174696f6e206d757374206265206f70656e2e4d656d626572206d75737420626520696e2074686520636f6d6d697474656520746f20626520736c617368656420627920636f6d6d69747465652e4f6e6c79206d656d626572732063616e2063616c6c20746869732066756e6374696f6e2e506f736974696f6e206d757374206d617463682070726576696f75736c79207375626d697474656420636f6d6d69742e436f6d6d6974746565206d75737420626520696e2074686520636f6d6d69742070686173652ea265627a7a72315820d33b73c8b4f597d5560ae36b554711fb5a2c378cfb118c5a73c8a4d8f530c30864736f6c634300050d0032",
  "source": "pragma solidity >=0.5.0 <0.6.0;\n\n// Copyright 2019 OpenST Ltd.\n//\n// Licensed under the Apache License, Version 2.0 (the \"License\");\n// you may not use this file except in compliance with the License.\n// You may obtain a copy of the License at\n//\n//    http://www.apache.org/licenses/LICENSE-2.0\n//\n// Unless required by applicable law or agreed to in writing, software\n// distributed under the License is distributed on an \"AS IS\" BASIS,\n// WITHOUT WARRANTIES OR CONDITIONS OF ANY KIND, either express or implied.\n// See the License for the specific language governing permissions and\n// limitations under the License.\n\nimport \"./CommitteeInterface.sol\";\nimport \"../consensus/ConsensusModule.sol\";\nimport \"../proxies/MasterCopyNonUpgradable.sol\";\n\nimport \"openzeppelin-solidity/contracts/math/SafeMath.sol\";\n\n/**\n * @title Committee\n * @author Benjamin Bollen - <ben@ost.com>\n */\ncontract Committee is MasterCopyNonUpgradable, ConsensusModule, CommitteeInterface {\n\n    /* Usings */\n\n    using SafeMath for uint256;\n\n\n    /* Events */\n\n    event StatusUpdated(CommitteeStatus status);\n\n    event MemberEntered(address member);\n\n    event MemberEjected(address member);\n\n    event MemberCommitted(address member);\n\n    event MemberRevealed(address member, bytes32 position);\n\n\n    /* Constants */\n\n    /**\n     * Sentinel pointer for marking the ending of circular,\n     * linked-list of validators.\n     */\n    address public constant SENTINEL_MEMBERS = address(0x1);\n\n    /** Sentinel set to maximum distance from problem. */\n    uint256 public constant SENTINEL_DISTANCE = uint256(\n        0xffffffffffffffffffffffffffffffffffffffffffffffffffffffffffffffff\n    );\n\n    /**\n     * Committee formation cooldown period allows for objections to be\n     * raised against the members entered into committee. After cooldown\n     * without objections the committee is active.\n     */\n    uint256 public constant COMMITTEE_FORMATION_COOLDOWN = uint256(50);\n\n    /**\n     * Timeout for accepting commits from members\n     * The proposed value is uint256(5760) which is about a day on Ethereum.\n     * Lowering it 10 times to ease testing.\n     * @qn (pro): Should we move this into the constructor as an argument?\n     */\n    uint256 public constant COMMITTEE_COMMIT_PHASE_TIMEOUT = uint256(576);\n\n    /**\n     * Timeout for revealing positions of members. About two hours on Ethereum.\n     */\n    uint256 public constant COMMITTEE_REVEAL_PHASE_TIMEOUT = uint256(480);\n\n    /** A super-majority fraction numerator used for reaching consensus. */\n    uint256 public constant COMMITTEE_SUPER_MAJORITY_NUMERATOR = uint256(2);\n\n    /** A super-majority fraction denominator used for reaching consensus. */\n    uint256 public constant COMMITTEE_SUPER_MAJORITY_DENOMINATOR = uint256(3);\n\n    // @qn (pro): What is this for?\n    bytes32 public constant COMMIT_DATA_UNAVAILABLE = keccak256(\n        \"COMMIT_DATA_UNAVAILABLE\"\n    );\n\n    // @qn (pro): What is this for?\n    bytes32 public constant COMMIT_REJECT_PROPOSAL = keccak256(\n        \"COMMIT_REJECT_PROPOSAL\"\n    );\n\n\n    /* Enums */\n\n    /** Committee status enum. */\n    enum CommitteeStatus {\n        /** While open, validators can enter as members. */\n        Open,\n\n        /** During cooldown, the member composition can be challenged. */\n        Cooldown,\n\n        /**\n         * After unchallenged cooldown, the committee is active\n         * and accepts sealed commits.\n         */\n        CommitPhase,\n\n        /** Reveal positions and count. */\n        RevealPhase,\n\n        /** After voting completes the committee closes. */\n        Closed,\n\n        /**\n         * Committee can become invalid if successfully challenged\n         * during cooldown.\n         */\n        Invalid\n    }\n\n\n    /* Storage */\n\n    /** Metachain id of the meta-blockchain */\n    bytes32 public metachainId;\n\n    /** Committee size */\n    uint256 public committeeSize;\n\n    /** Committee super majority */\n    uint256 public quorum;\n\n    /**\n     * Committee members count.\n     * Counts members entered and reaches maximum at committeeSize.\n     */\n    uint256 public memberCount;\n\n    /** Submission count. */\n    uint256 public submissionCount;\n\n    /** Positions revealed count. */\n    uint256 public totalPositionsCount;\n\n    /** Count positions taken. */\n    mapping(bytes32 => uint256) public positionCounts;\n\n    /** Track position for which a quorum has been reached. */\n    bytes32 public committeeDecision;\n\n    /** Track array of positions taken. */\n    bytes32[] public positionsTaken;\n\n    /** Proposal under consideration. */\n    bytes32 public proposal;\n\n    /** Shuffle validators in hashed space with dislocation. */\n    bytes32 public dislocation;\n\n    /** Committee status. */\n    CommitteeStatus public committeeStatus;\n\n    /** Committee members */\n    mapping(address => address) public members;\n\n    /** Sealed commits submitted by members. */\n    mapping(address => bytes32) public commits;\n\n    /** Public positions taken by members. */\n    mapping(address => bytes32) public positions;\n\n    /**\n     * Store the block height at which the committee can activate.\n     * Height is set when cooldown commences.\n     */\n    uint256 public activationBlockHeight;\n\n    /**\n     * Store the block height at which commits can no longer be submitted.\n     */\n    uint256 public commitTimeOutBlockHeight;\n\n    /**\n     * Store the block height at which submitted commits can\n     * no longer be revealed.\n     */\n    uint256 public revealTimeOutBlockHeight;\n\n    /**\n     * Store the member who initiated the cooldown, such that it\n     * can be slashed should the committee formation be challenged.\n     */\n    address public memberInitiatedCooldown;\n\n\n    /** Modifiers */\n\n    modifier onlyMember() {\n        require(\n            members[msg.sender] != address(0),\n            \"Only members can call this function.\"\n        );\n\n        _;\n    }\n\n    modifier isOpen() {\n        require(\n            committeeStatus == CommitteeStatus.Open,\n            \"Committee formation must be open.\"\n        );\n\n        _;\n    }\n\n    modifier isCoolingDown() {\n        require(\n            committeeStatus == CommitteeStatus.Cooldown,\n            \"Committee formation must be cooling down.\"\n        );\n        _;\n    }\n\n    modifier isInCommitPhase() {\n        require(\n            committeeStatus == CommitteeStatus.CommitPhase,\n            \"Committee must be in the commit phase.\"\n        );\n\n        _;\n    }\n\n    modifier isInRevealPhase() {\n        require(\n            committeeStatus == CommitteeStatus.RevealPhase,\n            \"Committee must be in the reveal phase.\"\n        );\n\n        _;\n    }\n\n\n    /* External functions */\n\n    function setup(\n        bytes32 _metachainId,\n        ConsensusInterface _consensus,\n        uint256 _committeeSize,\n        bytes32 _dislocation,\n        bytes32 _proposal\n    )\n        external\n    {\n        require(\n            metachainId == bytes32(0),\n            \"Committee is already setup.\"\n        );\n\n        require(\n            _metachainId != bytes32(0),\n            \"Metachain id is 0.\"\n        );\n\n        require(\n            _committeeSize >= 3,\n            \"Committee size must not be smaller than three.\"\n        );\n\n        require(\n            _dislocation != 0,\n            \"Dislocation must not be zero.\"\n        );\n\n        require(\n            _proposal != 0,\n            \"Proposal must not be zero.\"\n        );\n\n        setupConsensus(_consensus);\n\n        metachainId = _metachainId;\n\n        updateCommitteeStatus(CommitteeStatus.Open);\n\n        // Initialize the members linked-list as the empty set.\n        members[SENTINEL_MEMBERS] = SENTINEL_MEMBERS;\n\n        committeeSize = _committeeSize;\n\n        dislocation = _dislocation;\n\n        proposal = _proposal;\n\n        quorum = _committeeSize * COMMITTEE_SUPER_MAJORITY_NUMERATOR /\n            COMMITTEE_SUPER_MAJORITY_DENOMINATOR;\n    }\n\n    /**\n     * @notice Enters a `_validator` into the committee.\n     *\n     * @dev Function requires:\n     *          - only the consensus contract can call\n     *          - the committe's status is open\n     *          - the specified validator distance from the proposal is less\n     *            than the specified further member one.\n     *\n     * @param _validator Validator address to enter.\n     *                   The specified address:\n     *                      - is not 0\n     *                      - is not the member-sentinel\n     *                      - has not been already entered\n     * @param _furtherMember Further member (compared with the validator)\n     *                       address. The specified address:\n     *                          - has been already entered\n     */\n    function enterCommittee(\n        address _validator,\n        address _furtherMember\n    )\n        external\n        onlyConsensus\n        isOpen\n    {\n        require(\n            _validator != SENTINEL_MEMBERS,\n            \"Validator address must not be sentinel for committee member.\"\n        );\n\n        require(\n            _validator != address(0),\n            \"Validator address must not be 0.\"\n        );\n\n        require(\n            members[_validator] == address(0),\n            \"Validator must not already have entered.\"\n        );\n\n        require(\n            members[_furtherMember] != address(0),\n            \"Further validator must be in the committee.\"\n        );\n\n        // Calculate the dislocated distance of the validator to the proposal.\n        uint256 dValidator = distanceToProposal(_validator);\n\n        // Sentinel is always at maximum distance.\n        uint256 dFurtherMember = SENTINEL_DISTANCE;\n\n        if (_furtherMember != SENTINEL_MEMBERS) {\n            // Calculate the distance of the further member to the proposal.\n            dFurtherMember = distanceToProposal(_furtherMember);\n        }\n\n        require(\n            dValidator < dFurtherMember,\n            \"Validator must be nearer than further away present validator.\"\n        );\n\n        address furtherMember = _furtherMember;\n        address nearerMember = members[_furtherMember];\n\n        while (nearerMember != SENTINEL_MEMBERS) {\n            // Calculate the distance of the nearer member, its distance\n            // should be less than the validator's distance, however,\n            // correct if not the case.\n            uint256 dNearerMember = distanceToProposal(nearerMember);\n            if (dNearerMember > dValidator) {\n                // Validator is nearer to the proposal than the supposedly\n                // nearer validator, so move validator closer to the proposal.\n                furtherMember = nearerMember;\n                nearerMember = members[nearerMember];\n            } else {\n                // Validator has found its correct nearer and further member\n                // insertMember will pop members beyond committee size.\n                insertMember(_validator, nearerMember, furtherMember);\n                return;\n            }\n        }\n\n        insertMember(_validator, SENTINEL_MEMBERS, furtherMember);\n    }\n\n    /**\n     * @notice Initiates cool down for the committee during which objections can\n     *         be raised for the members entered in the committee.\n     *\n     * @dev Function requires:\n     *          - only a member can call\n     *          - the committee is in an open state\n     *          - members' count in the committee is equal to the committee's\n     *            size\n     */\n    function cooldownCommittee()\n        external\n        onlyMember\n        isOpen\n    {\n        require(\n            memberCount == committeeSize,\n            \"To close committee member count must equal committee size.\"\n        );\n\n        assert(activationBlockHeight == uint256(0));\n\n        assert(memberInitiatedCooldown == address(0));\n\n        memberInitiatedCooldown = msg.sender;\n\n        activationBlockHeight = block.number + COMMITTEE_FORMATION_COOLDOWN;\n\n        updateCommitteeStatus(CommitteeStatus.Cooldown);\n    }\n\n    /**\n     * @notice Challenge committee members during cooldown period.\n     *\n     * @dev Must be called over Consensus to assert excluded member is\n     *      a validator. Present a member that isn't present in the\n     *      committee but should have been.\n     *      Any excluded member invalidates the committee and member who\n     *      initiated cooldown wrongly will be slashed.\n     *\n     * @param _excludedMember Excluded member of the committee. Requires that\n     *                        the specified account is not a member and\n     *                        that its distance from the proposal is less than\n     *                        furthest committee member distance.\n     */\n    function challengeCommittee(address _excludedMember)\n        external\n        onlyConsensus\n        isCoolingDown\n    {\n        require(\n            members[_excludedMember] == address(0),\n            \"Member should not already be in the committee.\"\n        );\n\n        uint256 dBoundary = distanceToProposal(members[SENTINEL_MEMBERS]);\n\n        uint256 dExcludedMember = distanceToProposal(_excludedMember);\n\n        // Member has been excluded only if distance to proposal is less\n        // than the furthest committee member.\n        require(\n            dExcludedMember < dBoundary,\n            \"Member has been excluded.\"\n        );\n\n        updateCommitteeStatus(CommitteeStatus.Invalid);\n\n        // @qn (pro): We can remove this call and let consensus to slash\n        // a member that has wrongly initiated cooldown.\n        slashMember(memberInitiatedCooldown);\n    }\n\n    /**\n     * @notice Activates the committee after formation cooled down.\n     *         After activation commits can be submitted.\n     *\n     * @dev Function requires:\n     *          - only member can call\n     *          - committee is in cooling down status\n     *          - committee activation block height is reached\n     */\n    function activateCommittee()\n        external\n        onlyMember\n        isCoolingDown\n    {\n        require(\n            block.number > activationBlockHeight,\n            \"Committee formation must have cooled down before activation.\"\n        );\n\n        assert(commitTimeOutBlockHeight == 0);\n\n        updateCommitteeStatus(CommitteeStatus.CommitPhase);\n\n        commitTimeOutBlockHeight = block.number + COMMITTEE_COMMIT_PHASE_TIMEOUT;\n    }\n\n    /**\n     * @notice Members can submit their sealed commit.\n     *         The function transitions the committee to the reveal phase\n     *         in either of the below conditions:\n     *              - all members have submitted their sealed commits\n     *              - commit timeout block height has been reached\n     *\n     * @dev Function requires:\n     *          - committee is in commit phase\n     *          - only member can call\n     *          - member can commit only once\n     *\n     * @param _sealedCommit Sealed commit of a member. Non-zero value is\n     *                      required.\n     */\n    function submitSealedCommit(bytes32 _sealedCommit)\n        external\n        onlyMember\n        isInCommitPhase\n    {\n        require(\n            _sealedCommit != bytes32(0),\n            \"Sealed commit cannot be null.\"\n        );\n\n        require(\n            commits[msg.sender] == bytes32(0),\n            \"Member can only commit once.\"\n        );\n\n        commits[msg.sender] = _sealedCommit;\n\n        emit MemberCommitted(msg.sender);\n\n        submissionCount = submissionCount.add(1);\n\n        tryStartRevealPhase();\n    }\n\n    /**\n     * @notice Allow explicit closure of commit phase to trigger\n     *         timeout condition.\n     *\n     * @dev Function requires:\n     *          - committee is in commit phase\n     */\n    function closeCommitPhase()\n        external\n        isInCommitPhase\n    {\n        tryStartRevealPhase();\n    }\n\n    /**\n     * @notice Members reveal their positions and salts.\n     *\n     * @dev Function requires:\n     *          - only member can call\n     *          - committee is in reveal phase\n     *          - member has submitted and has not reveal its commit yet\n     *          - position and salt must match with sealed commit\n     *\n     * @param _position Position of the member's commit.\n     *                  Non-zero value is required.\n     * @param _salt Salt of the member's submitted commit.\n     */\n    function revealCommit(bytes32 _position, bytes32 _salt)\n        external\n        onlyMember\n        isInRevealPhase\n    {\n        bytes32 commit = commits[msg.sender];\n\n        require(\n            commit != bytes32(0),\n            \"Commit cannot be null.\"\n        );\n\n        require(\n            _position != bytes32(0),\n            \"Position cannot be null.\"\n        );\n\n        require(\n            commit == sealPosition(_position, _salt),\n            \"Position must match previously submitted commit.\"\n        );\n\n        // note: _position can express among others data-unavailable,\n        //       disagreement for PoC just register whether _position\n        //       equals proposition.\n\n        delete commits[msg.sender];\n\n        positions[msg.sender] = _position;\n\n        emit MemberRevealed(msg.sender, _position);\n\n        positionCounts[_position] = positionCounts[_position].add(1);\n\n        if (positionCounts[_position] == 1) {\n            // For each newly seen position, push it to the array.\n            positionsTaken.push(_position);\n        }\n\n        if (positionCounts[_position] >= quorum) {\n            // Sanity check, there should not be more than one position\n            // that can achieve quorum.\n            assert(\n                committeeDecision == bytes32(0) ||\n                committeeDecision == _position\n            );\n\n            if (committeeDecision == bytes32(0)) {\n                committeeDecision = _position;\n                consensus.registerCommitteeDecision(\n                    metachainId,\n                    committeeDecision\n                );\n            }\n        }\n\n        totalPositionsCount = totalPositionsCount.add(1);\n    }\n\n    /** @notice Returns an array of committee members. */\n    function getMembers()\n        external\n        view\n        returns (address[] memory)\n    {\n        uint256 c = 0;\n        address currentMember = members[SENTINEL_MEMBERS];\n        while(currentMember != SENTINEL_MEMBERS) {\n            currentMember = members[currentMember];\n            c++;\n        }\n        assert(c == memberCount);\n        address[] memory array = new address[](c);\n\n        c = 0;\n        currentMember = members[SENTINEL_MEMBERS];\n        while(currentMember != SENTINEL_MEMBERS) {\n            array[c] = currentMember;\n            currentMember = members[currentMember];\n            c++;\n        }\n        return array;\n    }\n\n\n    /* Public Functions */\n\n    /**\n     * @notice Calculates a distance of the specified `_account` from the\n     *         `proposal`. The `_account` is shuffled/dislocated in the\n     *         hashed space before calculating a distande.\n     *\n     * @param _account The account address to calculate distance from the\n     *                 proposal.\n     *\n     */\n    function distanceToProposal(address _account)\n        public\n        view\n        returns (uint256)\n    {\n        return distance(shuffle(_account), proposal);\n    }\n\n\n    /* Private functions */\n\n    /**\n     * Try to start the reveal phase by checking submission count or timeout.\n     */\n    function tryStartRevealPhase()\n        private\n    {\n        // @qn (pro): Should reveal phase start if submitted seals' amount is\n        //            less then the quorum amount.\n        if (submissionCount == memberCount ||\n            block.number > commitTimeOutBlockHeight) {\n            updateCommitteeStatus(CommitteeStatus.RevealPhase);\n\n            revealTimeOutBlockHeight = block.number + COMMITTEE_REVEAL_PHASE_TIMEOUT;\n        }\n    }\n\n    /**\n     */\n    function slashMember(address _member)\n        private\n        view\n    {\n        require(\n            members[_member] != address(0),\n            \"Member must be in the committee to be slashed by committee.\"\n        );\n\n        // TODO: remove member from committee? or is committee now invalid?\n        // TODO: implement consensus interface to slash from committee\n        // consensus.slashValidator(_member);\n    }\n\n    /**\n     * Insert member into commitee\n     * @dev important, this private function does *not* perform\n     *      sanity checks anymore; must be done by caller\n     */\n    function insertMember(\n        address _member,\n        address _previousMember,\n        address _nextMember\n    )\n        private\n    {\n        // note that we could check whether the member inserted would be\n        // popped off later when checking the count;\n        // but also note that a sensible actor will never\n        // enter a validator that doesn't belong in the group, and so the\n        // sender incurs his own cost if he adds a wrong member when the\n        // group is already full.\n        members[_member] = _previousMember;\n        members[_nextMember] = _member;\n\n        emit MemberEntered(_member);\n\n        increaseCount();\n    }\n\n    function increaseCount()\n        private\n    {\n        memberCount = memberCount.add(1);\n        if (memberCount > committeeSize) {\n            // member count in committee has reached desired size\n            // remove furthest member\n            popFurthestMember();\n        }\n\n        // Count must be equal or less than committeeSize.\n        assert(memberCount <= committeeSize);\n    }\n\n    function popFurthestMember()\n        private\n    {\n        // assert : members list should not be empty\n        assert(memberCount > 0);\n        address furthestMember = members[SENTINEL_MEMBERS];\n        if (furthestMember != SENTINEL_MEMBERS) { // linked-list is not empty\n            address secondFurthestMember = members[furthestMember];\n            // remove furthestMember from linked-list\n            members[SENTINEL_MEMBERS] = secondFurthestMember;\n            delete members[furthestMember];\n            memberCount = memberCount.sub(1);\n\n            emit MemberEjected(furthestMember);\n        }\n    }\n\n    /**\n     * @notice Shuffles (dislocates) `_validator` in the hashed space using\n     *         `dislocation` member.\n     *\n     * @param _validator The validator address to shuffle.\n     *\n     * @return Shuffled value of the specified `_validator`.\n     */\n    function shuffle(address _validator)\n        public\n        view\n        returns (bytes32)\n    {\n        // Returns the dislocated position of the validator.\n        return keccak256(\n            // TODO: note abi.encodePacked seems unneccesary,\n            // is there an overhead?\n            abi.encodePacked(\n                _validator,\n                dislocation\n            )\n        );\n    }\n\n    /**\n     * @notice Returns a distance (by using XOR) between `_a` and `_b`\n     *         for sorting validators.\n     */\n    function distance(bytes32 _a, bytes32 _b)\n        private\n        pure\n        returns (uint256 distance_)\n    {\n        // Returns _a XOR _b as a distance.\n        distance_ = uint256(_a ^ _b);\n    }\n\n    /** Uses the salt to seal the position. */\n    function sealPosition(bytes32 _position, bytes32 _salt)\n        private\n        view\n        returns (bytes32)\n    {\n        // Returns the sealed position.\n        return keccak256(\n            abi.encodePacked(\n                _position,\n                _salt,\n                msg.sender\n            )\n        );\n    }\n\n    function updateCommitteeStatus(CommitteeStatus _status)\n        private\n    {\n        committeeStatus = _status;\n\n        emit StatusUpdated(committeeStatus);\n    }\n}\n",
  "sourcePath": "/Users/abhay/Documents/projects/abhayforks/mosaic-1/contracts/committee/Committee.sol",
  "compiler": {
    "name": "solc",
    "version": "0.5.13+commit.5b0b510c.Emscripten.clang"
  },
  "schemaVersion": "3.0.17",
  "updatedAt": "2020-03-21T06:48:34.605Z",
  "devdoc": {
    "author": "Benjamin Bollen - <ben@ost.com>",
    "methods": {
      "activateCommittee()": {
        "details": "Function requires:         - only member can call         - committee is in cooling down status         - committee activation block height is reached"
      },
      "challengeCommittee(address)": {
        "details": "Must be called over Consensus to assert excluded member is     a validator. Present a member that isn't present in the     committee but should have been.     Any excluded member invalidates the committee and member who     initiated cooldown wrongly will be slashed.",
        "params": {
          "_excludedMember": "Excluded member of the committee. Requires that                       the specified account is not a member and                       that its distance from the proposal is less than                       furthest committee member distance."
        }
      },
      "closeCommitPhase()": {
        "details": "Function requires:         - committee is in commit phase"
      },
      "cooldownCommittee()": {
        "details": "Function requires:         - only a member can call         - the committee is in an open state         - members' count in the committee is equal to the committee's           size"
      },
      "distanceToProposal(address)": {
        "params": {
          "_account": "The account address to calculate distance from the                proposal.     "
        }
      },
      "enterCommittee(address,address)": {
        "details": "Function requires:         - only the consensus contract can call         - the committe's status is open         - the specified validator distance from the proposal is less           than the specified further member one.",
        "params": {
          "_furtherMember": "Further member (compared with the validator)                      address. The specified address:                         - has been already entered",
          "_validator": "Validator address to enter.                  The specified address:                     - is not 0                     - is not the member-sentinel                     - has not been already entered"
        }
      },
      "revealCommit(bytes32,bytes32)": {
        "details": "Function requires:         - only member can call         - committee is in reveal phase         - member has submitted and has not reveal its commit yet         - position and salt must match with sealed commit",
        "params": {
          "_position": "Position of the member's commit.                 Non-zero value is required.",
          "_salt": "Salt of the member's submitted commit."
        }
      },
      "shuffle(address)": {
        "params": {
          "_validator": "The validator address to shuffle."
        },
        "return": "Shuffled value of the specified `_validator`."
      },
      "submitSealedCommit(bytes32)": {
        "details": "Function requires:         - committee is in commit phase         - only member can call         - member can commit only once",
        "params": {
          "_sealedCommit": "Sealed commit of a member. Non-zero value is                     required."
        }
      }
    },
    "title": "Committee"
  },
  "userdoc": {
    "methods": {
      "activateCommittee()": {
        "notice": "Activates the committee after formation cooled down.        After activation commits can be submitted."
      },
      "challengeCommittee(address)": {
        "notice": "Challenge committee members during cooldown period."
      },
      "closeCommitPhase()": {
        "notice": "Allow explicit closure of commit phase to trigger        timeout condition."
      },
      "cooldownCommittee()": {
        "notice": "Initiates cool down for the committee during which objections can        be raised for the members entered in the committee."
      },
      "distanceToProposal(address)": {
        "notice": "Calculates a distance of the specified `_account` from the        `proposal`. The `_account` is shuffled/dislocated in the        hashed space before calculating a distande."
      },
      "enterCommittee(address,address)": {
        "notice": "Enters a `_validator` into the committee."
      },
      "getMembers()": {
        "notice": "Returns an array of committee members. "
      },
      "revealCommit(bytes32,bytes32)": {
        "notice": "Members reveal their positions and salts."
      },
      "shuffle(address)": {
        "notice": "Shuffles (dislocates) `_validator` in the hashed space using        `dislocation` member."
      },
      "submitSealedCommit(bytes32)": {
        "notice": "Members can submit their sealed commit.        The function transitions the committee to the reveal phase        in either of the below conditions:             - all members have submitted their sealed commits             - commit timeout block height has been reached"
      }
    }
  }
}