{
  "contractName": "ConsensusTest",
  "abi": [
    {
      "inputs": [],
      "payable": false,
      "stateMutability": "nonpayable",
      "type": "constructor"
    },
    {
      "anonymous": false,
      "inputs": [
        {
          "indexed": false,
          "internalType": "address",
          "name": "core",
          "type": "address"
        },
        {
          "indexed": false,
          "internalType": "bytes32",
          "name": "metachainId",
          "type": "bytes32"
        },
        {
          "indexed": false,
          "internalType": "uint256",
          "name": "minValidators",
          "type": "uint256"
        },
        {
          "indexed": false,
          "internalType": "uint256",
          "name": "maxValidators",
          "type": "uint256"
        },
        {
          "indexed": false,
          "internalType": "uint256",
          "name": "gasTarget",
          "type": "uint256"
        }
      ],
      "name": "CoreCreated",
      "type": "event"
    },
    {
      "anonymous": false,
      "inputs": [
        {
          "indexed": false,
          "internalType": "address",
          "name": "core",
          "type": "address"
        },
        {
          "indexed": false,
          "internalType": "uint256",
          "name": "coreLifetime",
          "type": "uint256"
        }
      ],
      "name": "CoreLifetimeUpdated",
      "type": "event"
    },
    {
      "anonymous": false,
      "inputs": [
        {
          "indexed": false,
          "internalType": "bytes32",
          "name": "metachainId",
          "type": "bytes32"
        },
        {
          "indexed": false,
          "internalType": "address",
          "name": "core",
          "type": "address"
        },
        {
          "indexed": false,
          "internalType": "address",
          "name": "validator",
          "type": "address"
        },
        {
          "indexed": false,
          "internalType": "string",
          "name": "service",
          "type": "string"
        },
        {
          "indexed": false,
          "internalType": "string",
          "name": "endpoint",
          "type": "string"
        }
      ],
      "name": "EndpointPublished",
      "type": "event"
    },
    {
      "anonymous": false,
      "inputs": [
        {
          "indexed": false,
          "internalType": "bytes32",
          "name": "kernelHash",
          "type": "bytes32"
        },
        {
          "indexed": false,
          "internalType": "address",
          "name": "core",
          "type": "address"
        },
        {
          "indexed": false,
          "internalType": "bytes32",
          "name": "metachainId",
          "type": "bytes32"
        },
        {
          "indexed": false,
          "internalType": "bytes32",
          "name": "metablockHash",
          "type": "bytes32"
        }
      ],
      "name": "MetablockCommitted",
      "type": "event"
    },
    {
      "anonymous": false,
      "inputs": [
        {
          "indexed": false,
          "internalType": "address",
          "name": "committee",
          "type": "address"
        },
        {
          "indexed": false,
          "internalType": "bytes32",
          "name": "metablockHash",
          "type": "bytes32"
        },
        {
          "indexed": false,
          "internalType": "bytes32",
          "name": "metachainId",
          "type": "bytes32"
        },
        {
          "indexed": false,
          "internalType": "uint256",
          "name": "size",
          "type": "uint256"
        },
        {
          "indexed": false,
          "internalType": "bytes32",
          "name": "decision",
          "type": "bytes32"
        }
      ],
      "name": "MetablockCommitteeDecided",
      "type": "event"
    },
    {
      "anonymous": false,
      "inputs": [
        {
          "indexed": false,
          "internalType": "address",
          "name": "committee",
          "type": "address"
        },
        {
          "indexed": false,
          "internalType": "bytes32",
          "name": "metablockHash",
          "type": "bytes32"
        },
        {
          "indexed": false,
          "internalType": "bytes32",
          "name": "metachainId",
          "type": "bytes32"
        },
        {
          "indexed": false,
          "internalType": "uint256",
          "name": "formationHeight",
          "type": "uint256"
        },
        {
          "indexed": false,
          "internalType": "uint256",
          "name": "size",
          "type": "uint256"
        }
      ],
      "name": "MetablockCommitteeFormed",
      "type": "event"
    },
    {
      "anonymous": false,
      "inputs": [
        {
          "indexed": false,
          "internalType": "bytes32",
          "name": "metablockHash",
          "type": "bytes32"
        },
        {
          "indexed": false,
          "internalType": "bytes32",
          "name": "metachainId",
          "type": "bytes32"
        },
        {
          "indexed": false,
          "internalType": "uint256",
          "name": "metablockHeight",
          "type": "uint256"
        },
        {
          "indexed": false,
          "internalType": "uint256",
          "name": "roundMetablockNumber",
          "type": "uint256"
        }
      ],
      "name": "MetablockPrecommitted",
      "type": "event"
    },
    {
      "anonymous": false,
      "inputs": [
        {
          "indexed": false,
          "internalType": "address",
          "name": "validator",
          "type": "address"
        },
        {
          "indexed": false,
          "internalType": "address",
          "name": "core",
          "type": "address"
        },
        {
          "indexed": false,
          "internalType": "uint256",
          "name": "beginHeight",
          "type": "uint256"
        },
        {
          "indexed": false,
          "internalType": "uint256",
          "name": "reputation",
          "type": "uint256"
        }
      ],
      "name": "ValidatorJoined",
      "type": "event"
    },
    {
      "anonymous": false,
      "inputs": [
        {
          "indexed": false,
          "internalType": "address",
          "name": "validator",
          "type": "address"
        },
        {
          "indexed": false,
          "internalType": "uint256",
          "name": "endHeight",
          "type": "uint256"
        },
        {
          "indexed": false,
          "internalType": "uint256",
          "name": "withdrawalBlockHeight",
          "type": "uint256"
        }
      ],
      "name": "ValidatorLoggedOut",
      "type": "event"
    },
    {
      "constant": true,
      "inputs": [],
      "name": "ANCHOR_MAX_STATE_ROOTS",
      "outputs": [
        {
          "internalType": "uint256",
          "name": "",
          "type": "uint256"
        }
      ],
      "payable": false,
      "stateMutability": "view",
      "type": "function"
    },
    {
      "constant": true,
      "inputs": [],
      "name": "ANCHOR_SETUP_CALLPREFIX",
      "outputs": [
        {
          "internalType": "bytes4",
          "name": "",
          "type": "bytes4"
        }
      ],
      "payable": false,
      "stateMutability": "view",
      "type": "function"
    },
    {
      "constant": true,
      "inputs": [],
      "name": "COMMITTEE_FORMATION_DELAY",
      "outputs": [
        {
          "internalType": "uint256",
          "name": "",
          "type": "uint256"
        }
      ],
      "payable": false,
      "stateMutability": "view",
      "type": "function"
    },
    {
      "constant": true,
      "inputs": [],
      "name": "COMMITTEE_FORMATION_LENGTH",
      "outputs": [
        {
          "internalType": "uint256",
          "name": "",
          "type": "uint256"
        }
      ],
      "payable": false,
      "stateMutability": "view",
      "type": "function"
    },
    {
      "constant": true,
      "inputs": [],
      "name": "COMMITTEE_SETUP_CALLPREFIX",
      "outputs": [
        {
          "internalType": "bytes4",
          "name": "",
          "type": "bytes4"
        }
      ],
      "payable": false,
      "stateMutability": "view",
      "type": "function"
    },
    {
      "constant": true,
      "inputs": [],
      "name": "CONSENSUS_GATEWAY_SETUP_CALL_PREFIX",
      "outputs": [
        {
          "internalType": "bytes4",
          "name": "",
          "type": "bytes4"
        }
      ],
      "payable": false,
      "stateMutability": "view",
      "type": "function"
    },
    {
      "constant": true,
      "inputs": [],
      "name": "CORE_SETUP_CALLPREFIX",
      "outputs": [
        {
          "internalType": "bytes4",
          "name": "",
          "type": "bytes4"
        }
      ],
      "payable": false,
      "stateMutability": "view",
      "type": "function"
    },
    {
      "constant": true,
      "inputs": [],
      "name": "DOMAIN_SEPARATOR_VERSION",
      "outputs": [
        {
          "internalType": "string",
          "name": "",
          "type": "string"
        }
      ],
      "payable": false,
      "stateMutability": "view",
      "type": "function"
    },
    {
      "constant": true,
      "inputs": [],
      "name": "EPOCH_LENGTH",
      "outputs": [
        {
          "internalType": "uint256",
          "name": "",
          "type": "uint256"
        }
      ],
      "payable": false,
      "stateMutability": "view",
      "type": "function"
    },
    {
      "constant": true,
      "inputs": [],
      "name": "MAX_COINBASE_SPLIT_PER_MILLE",
      "outputs": [
        {
          "internalType": "uint256",
          "name": "",
          "type": "uint256"
        }
      ],
      "payable": false,
      "stateMutability": "view",
      "type": "function"
    },
    {
      "constant": true,
      "inputs": [],
      "name": "METACHAIN_ID_TYPEHASH",
      "outputs": [
        {
          "internalType": "bytes32",
          "name": "",
          "type": "bytes32"
        }
      ],
      "payable": false,
      "stateMutability": "view",
      "type": "function"
    },
    {
      "constant": true,
      "inputs": [],
      "name": "MIN_REQUIRED_VALIDATORS",
      "outputs": [
        {
          "internalType": "uint256",
          "name": "",
          "type": "uint256"
        }
      ],
      "payable": false,
      "stateMutability": "view",
      "type": "function"
    },
    {
      "constant": true,
      "inputs": [],
      "name": "MOSAIC_DOMAIN_SEPARATOR_NAME",
      "outputs": [
        {
          "internalType": "string",
          "name": "",
          "type": "string"
        }
      ],
      "payable": false,
      "stateMutability": "view",
      "type": "function"
    },
    {
      "constant": true,
      "inputs": [],
      "name": "MOSAIC_DOMAIN_SEPARATOR_TYPEHASH",
      "outputs": [
        {
          "internalType": "bytes32",
          "name": "",
          "type": "bytes32"
        }
      ],
      "payable": false,
      "stateMutability": "view",
      "type": "function"
    },
    {
      "constant": true,
      "inputs": [
        {
          "internalType": "bytes32",
          "name": "",
          "type": "bytes32"
        }
      ],
      "name": "anchors",
      "outputs": [
        {
          "internalType": "contract AnchorInterface",
          "name": "",
          "type": "address"
        }
      ],
      "payable": false,
      "stateMutability": "view",
      "type": "function"
    },
    {
      "constant": true,
      "inputs": [
        {
          "internalType": "bytes32",
          "name": "",
          "type": "bytes32"
        }
      ],
      "name": "assignments",
      "outputs": [
        {
          "internalType": "contract CoreInterface",
          "name": "",
          "type": "address"
        }
      ],
      "payable": false,
      "stateMutability": "view",
      "type": "function"
    },
    {
      "constant": true,
      "inputs": [],
      "name": "axiom",
      "outputs": [
        {
          "internalType": "contract AxiomInterface",
          "name": "",
          "type": "address"
        }
      ],
      "payable": false,
      "stateMutability": "view",
      "type": "function"
    },
    {
      "constant": true,
      "inputs": [],
      "name": "coinbaseSplitPerMille",
      "outputs": [
        {
          "internalType": "uint256",
          "name": "",
          "type": "uint256"
        }
      ],
      "payable": false,
      "stateMutability": "view",
      "type": "function"
    },
    {
      "constant": false,
      "inputs": [
        {
          "internalType": "bytes32",
          "name": "_metachainId",
          "type": "bytes32"
        },
        {
          "internalType": "bytes",
          "name": "_rlpBlockHeader",
          "type": "bytes"
        },
        {
          "internalType": "bytes32",
          "name": "_kernelHash",
          "type": "bytes32"
        },
        {
          "internalType": "bytes32",
          "name": "_originObservation",
          "type": "bytes32"
        },
        {
          "internalType": "uint256",
          "name": "_dynasty",
          "type": "uint256"
        },
        {
          "internalType": "uint256",
          "name": "_accumulatedGas",
          "type": "uint256"
        },
        {
          "internalType": "bytes32",
          "name": "_committeeLock",
          "type": "bytes32"
        },
        {
          "internalType": "bytes32",
          "name": "_source",
          "type": "bytes32"
        },
        {
          "internalType": "bytes32",
          "name": "_target",
          "type": "bytes32"
        },
        {
          "internalType": "uint256",
          "name": "_sourceBlockHeight",
          "type": "uint256"
        },
        {
          "internalType": "uint256",
          "name": "_targetBlockHeight",
          "type": "uint256"
        }
      ],
      "name": "commitMetablock",
      "outputs": [],
      "payable": false,
      "stateMutability": "nonpayable",
      "type": "function"
    },
    {
      "constant": true,
      "inputs": [],
      "name": "committeeSize",
      "outputs": [
        {
          "internalType": "uint256",
          "name": "",
          "type": "uint256"
        }
      ],
      "payable": false,
      "stateMutability": "view",
      "type": "function"
    },
    {
      "constant": true,
      "inputs": [
        {
          "internalType": "bytes32",
          "name": "",
          "type": "bytes32"
        }
      ],
      "name": "committees",
      "outputs": [
        {
          "internalType": "contract CommitteeInterface",
          "name": "",
          "type": "address"
        }
      ],
      "payable": false,
      "stateMutability": "view",
      "type": "function"
    },
    {
      "constant": true,
      "inputs": [
        {
          "internalType": "bytes32",
          "name": "",
          "type": "bytes32"
        }
      ],
      "name": "consensusGateways",
      "outputs": [
        {
          "internalType": "contract ConsensusGatewayInterface",
          "name": "",
          "type": "address"
        }
      ],
      "payable": false,
      "stateMutability": "view",
      "type": "function"
    },
    {
      "constant": true,
      "inputs": [
        {
          "internalType": "address",
          "name": "",
          "type": "address"
        }
      ],
      "name": "coreLifetimes",
      "outputs": [
        {
          "internalType": "enum CoreLifetimeEnum.CoreLifetime",
          "name": "",
          "type": "uint8"
        }
      ],
      "payable": false,
      "stateMutability": "view",
      "type": "function"
    },
    {
      "constant": true,
      "inputs": [],
      "name": "coreValidatorThresholds",
      "outputs": [
        {
          "internalType": "uint256",
          "name": "minimumValidatorCount_",
          "type": "uint256"
        },
        {
          "internalType": "uint256",
          "name": "joinLimit_",
          "type": "uint256"
        }
      ],
      "payable": false,
      "stateMutability": "view",
      "type": "function"
    },
    {
      "constant": true,
      "inputs": [
        {
          "internalType": "bytes32",
          "name": "",
          "type": "bytes32"
        }
      ],
      "name": "decisions",
      "outputs": [
        {
          "internalType": "bytes32",
          "name": "",
          "type": "bytes32"
        }
      ],
      "payable": false,
      "stateMutability": "view",
      "type": "function"
    },
    {
      "constant": false,
      "inputs": [
        {
          "internalType": "bytes32",
          "name": "_metachainId",
          "type": "bytes32"
        },
        {
          "internalType": "contract CoreInterface",
          "name": "_core",
          "type": "address"
        },
        {
          "internalType": "address",
          "name": "_validator",
          "type": "address"
        },
        {
          "internalType": "address",
          "name": "_furtherMember",
          "type": "address"
        }
      ],
      "name": "enterCommittee",
      "outputs": [],
      "payable": false,
      "stateMutability": "nonpayable",
      "type": "function"
    },
    {
      "constant": true,
      "inputs": [],
      "name": "feeGasLimit",
      "outputs": [
        {
          "internalType": "uint256",
          "name": "",
          "type": "uint256"
        }
      ],
      "payable": false,
      "stateMutability": "view",
      "type": "function"
    },
    {
      "constant": true,
      "inputs": [],
      "name": "feeGasPrice",
      "outputs": [
        {
          "internalType": "uint256",
          "name": "",
          "type": "uint256"
        }
      ],
      "payable": false,
      "stateMutability": "view",
      "type": "function"
    },
    {
      "constant": false,
      "inputs": [
        {
          "internalType": "bytes32",
          "name": "_metachainId",
          "type": "bytes32"
        }
      ],
      "name": "formCommittee",
      "outputs": [],
      "payable": false,
      "stateMutability": "nonpayable",
      "type": "function"
    },
    {
      "constant": true,
      "inputs": [],
      "name": "gasTargetDelta",
      "outputs": [
        {
          "internalType": "uint256",
          "name": "",
          "type": "uint256"
        }
      ],
      "payable": false,
      "stateMutability": "view",
      "type": "function"
    },
    {
      "constant": false,
      "inputs": [
        {
          "internalType": "bytes32",
          "name": "_metachainId",
          "type": "bytes32"
        }
      ],
      "name": "getAnchor",
      "outputs": [
        {
          "internalType": "address",
          "name": "anchor_",
          "type": "address"
        }
      ],
      "payable": false,
      "stateMutability": "nonpayable",
      "type": "function"
    },
    {
      "constant": true,
      "inputs": [
        {
          "internalType": "address",
          "name": "_anchor",
          "type": "address"
        }
      ],
      "name": "hashMetachainId",
      "outputs": [
        {
          "internalType": "bytes32",
          "name": "metachainId_",
          "type": "bytes32"
        }
      ],
      "payable": false,
      "stateMutability": "view",
      "type": "function"
    },
    {
      "constant": false,
      "inputs": [
        {
          "internalType": "bytes32",
          "name": "_metachainId",
          "type": "bytes32"
        },
        {
          "internalType": "address",
          "name": "_withdrawalAddress",
          "type": "address"
        }
      ],
      "name": "join",
      "outputs": [],
      "payable": false,
      "stateMutability": "nonpayable",
      "type": "function"
    },
    {
      "constant": false,
      "inputs": [
        {
          "internalType": "bytes32",
          "name": "_metachainId",
          "type": "bytes32"
        },
        {
          "internalType": "address",
          "name": "_withdrawalAddress",
          "type": "address"
        }
      ],
      "name": "joinDuringCreation",
      "outputs": [],
      "payable": false,
      "stateMutability": "nonpayable",
      "type": "function"
    },
    {
      "constant": true,
      "inputs": [],
      "name": "joinLimit",
      "outputs": [
        {
          "internalType": "uint256",
          "name": "",
          "type": "uint256"
        }
      ],
      "payable": false,
      "stateMutability": "view",
      "type": "function"
    },
    {
      "constant": false,
      "inputs": [
        {
          "internalType": "bytes32",
          "name": "_metachainId",
          "type": "bytes32"
        },
        {
          "internalType": "contract CoreInterface",
          "name": "_core",
          "type": "address"
        }
      ],
      "name": "logout",
      "outputs": [],
      "payable": false,
      "stateMutability": "nonpayable",
      "type": "function"
    },
    {
      "constant": true,
      "inputs": [
        {
          "internalType": "bytes32",
          "name": "",
          "type": "bytes32"
        }
      ],
      "name": "metablockTips",
      "outputs": [
        {
          "internalType": "uint256",
          "name": "",
          "type": "uint256"
        }
      ],
      "payable": false,
      "stateMutability": "view",
      "type": "function"
    },
    {
      "constant": true,
      "inputs": [
        {
          "internalType": "bytes32",
          "name": "",
          "type": "bytes32"
        },
        {
          "internalType": "uint256",
          "name": "",
          "type": "uint256"
        }
      ],
      "name": "metablockchains",
      "outputs": [
        {
          "internalType": "bytes32",
          "name": "metablockHash",
          "type": "bytes32"
        },
        {
          "internalType": "enum Consensus.MetablockRound",
          "name": "round",
          "type": "uint8"
        },
        {
          "internalType": "uint256",
          "name": "roundBlockNumber",
          "type": "uint256"
        }
      ],
      "payable": false,
      "stateMutability": "view",
      "type": "function"
    },
    {
      "constant": true,
      "inputs": [],
      "name": "minValidators",
      "outputs": [
        {
          "internalType": "uint256",
          "name": "",
          "type": "uint256"
        }
      ],
      "payable": false,
      "stateMutability": "view",
      "type": "function"
    },
    {
      "constant": true,
      "inputs": [],
      "name": "mosaicDomainSeparator",
      "outputs": [
        {
          "internalType": "bytes32",
          "name": "",
          "type": "bytes32"
        }
      ],
      "payable": false,
      "stateMutability": "view",
      "type": "function"
    },
    {
      "constant": false,
      "inputs": [],
      "name": "newMetachain",
      "outputs": [
        {
          "internalType": "bytes32",
          "name": "metachainId_",
          "type": "bytes32"
        },
        {
          "internalType": "address",
          "name": "anchor_",
          "type": "address"
        },
        {
          "internalType": "string",
          "name": "mosaicVersion_",
          "type": "string"
        },
        {
          "internalType": "address",
          "name": "consensusGateway_",
          "type": "address"
        }
      ],
      "payable": false,
      "stateMutability": "nonpayable",
      "type": "function"
    },
    {
      "constant": false,
      "inputs": [
        {
          "internalType": "bytes32",
          "name": "_metachainId",
          "type": "bytes32"
        },
        {
          "internalType": "uint256",
          "name": "_metablockHeight",
          "type": "uint256"
        },
        {
          "internalType": "bytes32",
          "name": "_metablockHashPrecommit",
          "type": "bytes32"
        }
      ],
      "name": "precommitMetablock",
      "outputs": [],
      "payable": false,
      "stateMutability": "nonpayable",
      "type": "function"
    },
    {
      "constant": false,
      "inputs": [
        {
          "internalType": "bytes32",
          "name": "_metachainId",
          "type": "bytes32"
        },
        {
          "internalType": "string",
          "name": "_service",
          "type": "string"
        },
        {
          "internalType": "string",
          "name": "_endpoint",
          "type": "string"
        }
      ],
      "name": "publishEndpoint",
      "outputs": [],
      "payable": false,
      "stateMutability": "nonpayable",
      "type": "function"
    },
    {
      "constant": false,
      "inputs": [
        {
          "internalType": "bytes32",
          "name": "_metachainId",
          "type": "bytes32"
        },
        {
          "internalType": "bytes32",
          "name": "_committeeDecision",
          "type": "bytes32"
        }
      ],
      "name": "registerCommitteeDecision",
      "outputs": [],
      "payable": false,
      "stateMutability": "nonpayable",
      "type": "function"
    },
    {
      "constant": true,
      "inputs": [],
      "name": "reputation",
      "outputs": [
        {
          "internalType": "contract ReputationInterface",
          "name": "",
          "type": "address"
        }
      ],
      "payable": false,
      "stateMutability": "view",
      "type": "function"
    },
    {
      "constant": false,
      "inputs": [
        {
          "internalType": "uint256",
          "name": "_committeeSize",
          "type": "uint256"
        },
        {
          "internalType": "uint256",
          "name": "_minValidators",
          "type": "uint256"
        },
        {
          "internalType": "uint256",
          "name": "_joinLimit",
          "type": "uint256"
        },
        {
          "internalType": "uint256",
          "name": "_gasTargetDelta",
          "type": "uint256"
        },
        {
          "internalType": "uint256",
          "name": "_coinbaseSplitPerMille",
          "type": "uint256"
        },
        {
          "internalType": "address",
          "name": "_reputation",
          "type": "address"
        }
      ],
      "name": "setup",
      "outputs": [],
      "payable": false,
      "stateMutability": "nonpayable",
      "type": "function"
    },
    {
      "constant": false,
      "inputs": [
        {
          "internalType": "address",
          "name": "_core",
          "type": "address"
        },
        {
          "internalType": "enum CoreLifetimeEnum.CoreLifetime",
          "name": "_status",
          "type": "uint8"
        }
      ],
      "name": "setCoreLifetime",
      "outputs": [],
      "payable": false,
      "stateMutability": "nonpayable",
      "type": "function"
    },
    {
      "constant": false,
      "inputs": [
        {
          "internalType": "bytes32",
          "name": "_metachainId",
          "type": "bytes32"
        },
        {
          "internalType": "bytes32",
          "name": "_precommit",
          "type": "bytes32"
        }
      ],
      "name": "setPrecommit",
      "outputs": [],
      "payable": false,
      "stateMutability": "nonpayable",
      "type": "function"
    },
    {
      "constant": false,
      "inputs": [
        {
          "internalType": "bytes32",
          "name": "_metachainId",
          "type": "bytes32"
        },
        {
          "internalType": "address",
          "name": "_committeeAddress",
          "type": "address"
        }
      ],
      "name": "setCommittee",
      "outputs": [],
      "payable": false,
      "stateMutability": "nonpayable",
      "type": "function"
    },
    {
      "constant": false,
      "inputs": [
        {
          "internalType": "address",
          "name": "_reputation",
          "type": "address"
        }
      ],
      "name": "setReputation",
      "outputs": [],
      "payable": false,
      "stateMutability": "nonpayable",
      "type": "function"
    },
    {
      "constant": false,
      "inputs": [
        {
          "internalType": "bytes32",
          "name": "_metachainId",
          "type": "bytes32"
        },
        {
          "internalType": "contract CoreInterface",
          "name": "_core",
          "type": "address"
        }
      ],
      "name": "setAssignment",
      "outputs": [],
      "payable": false,
      "stateMutability": "nonpayable",
      "type": "function"
    },
    {
      "constant": false,
      "inputs": [
        {
          "internalType": "contract CommitteeInterface",
          "name": "_committeeAddress",
          "type": "address"
        },
        {
          "internalType": "bytes32",
          "name": "_proposal",
          "type": "bytes32"
        }
      ],
      "name": "setCommitteeProposal",
      "outputs": [],
      "payable": false,
      "stateMutability": "nonpayable",
      "type": "function"
    },
    {
      "constant": false,
      "inputs": [
        {
          "internalType": "bytes32",
          "name": "_metachainId",
          "type": "bytes32"
        },
        {
          "internalType": "contract AnchorInterface",
          "name": "_anchor",
          "type": "address"
        }
      ],
      "name": "setAnchor",
      "outputs": [],
      "payable": false,
      "stateMutability": "nonpayable",
      "type": "function"
    },
    {
      "constant": false,
      "inputs": [
        {
          "internalType": "bytes32",
          "name": "_metachainId",
          "type": "bytes32"
        },
        {
          "internalType": "address",
          "name": "_consensusGateway",
          "type": "address"
        }
      ],
      "name": "setConsensusGateway",
      "outputs": [],
      "payable": false,
      "stateMutability": "nonpayable",
      "type": "function"
    }
  ],
  "bytecode": "0x608060405234801561001057600080fd5b506145b8806100206000396000f3fe608060405234801561001057600080fd5b50600436106103425760003560e01c80639cf4364b116101b8578063c8111da111610104578063e2caedff116100a2578063efa831ab1161007c578063efa831ab14610b46578063f056ecde14610999578063f7d0e04b14610b67578063fe8c132614610b8d57610342565b8063e2caedff14610aec578063e385bd1614610b36578063e861719314610b3e57610342565b8063cffc233a116100de578063cffc233a14610aa8578063e061fbc014610ad4578063e10a93d514610adc578063e172230b14610ae457610342565b8063c8111da114610a4b578063c8af57cd14610a74578063cfc1f75e14610aa057610342565b8063b01b6d5311610171578063bf15b9531161014b578063bf15b953146109f2578063c455d33914610a0f578063c52164c614610a3b578063c5ab224114610a4357610342565b8063b01b6d53146109a1578063b4907ddc146109be578063bd301921146109c657610342565b80639cf4364b146108b05780639cfcc275146108b85780639dc3205b14610981578063a0cea4b014610989578063a75778fc14610991578063ac4746ab1461099957610342565b80635b120d671161029257806377cc4a5f116102305780637feb51d91161020a5780637feb51d91461086657806382c2901c14610883578063848202f7146108a05780638552230b146108a857610342565b806377cc4a5f146107ee5780637c8137c6146107f65780637e604f5b1461083a57610342565b80635dc46e741161026c5780635dc46e7414610780578063645312a61461078857806365e102e6146107a55780636b8d11c9146107d157610342565b80635b120d67146106d95780635d4289b7146107085780635d8376af1461072b57610342565b80632822346f116102ff5780633ca52d51116102d95780633ca52d51146105145780634d41b347146105f257806351e91e1814610630578063589ecdbd1461065c57610342565b80632822346f1461049d57806333d49642146104c35780633737adc4146104f157610342565b806303234b261461034757806303f920761461036c57806304a71a6a146104255780630e139aeb1461043f5780631afd614a146104475780631dc24d0314610464575b600080fd5b61034f610b95565b604080516001600160e01b03199092168252519081900360200190f35b610374610bb0565b60405180858152602001846001600160a01b03166001600160a01b0316815260200180602001836001600160a01b03166001600160a01b03168152602001828103825284818151815260200191508051906020019080838360005b838110156103e75781810151838201526020016103cf565b50505050905090810190601f1680156104145780820380516001836020036101000a031916815260200191505b509550505050505060405180910390f35b61042d6110ef565b60408051918252519081900360200190f35b61042d6110f5565b61042d6004803603602081101561045d57600080fd5b50356110fa565b6104816004803603602081101561047a57600080fd5b503561110c565b604080516001600160a01b039092168252519081900360200190f35b61042d600480360360208110156104b357600080fd5b50356001600160a01b0316611127565b6104ef600480360360408110156104d957600080fd5b50803590602001356001600160a01b0316611223565b005b6104ef6004803603604081101561050757600080fd5b5080359060200135611251565b6104ef600480360361016081101561052b57600080fd5b8135919081019060408101602082013564010000000081111561054d57600080fd5b82018360208201111561055f57600080fd5b8035906020019184600183028401116401000000008311171561058157600080fd5b91908080601f0160208091040260200160405190810160405280939291908181526020018383808284376000920191909152509295505082359350505060208101359060408101359060608101359060808101359060a08101359060c08101359060e081013590610100013561128f565b6104ef6004803603608081101561060857600080fd5b508035906001600160a01b03602082013581169160408101358216916060909101351661144e565b6104ef6004803603604081101561064657600080fd5b50803590602001356001600160a01b0316611744565b610664611933565b6040805160208082528351818301528351919283929083019185019080838360005b8381101561069e578181015183820152602001610686565b50505050905090810190601f1680156106cb5780820380516001836020036101000a031916815260200191505b509250505060405180910390f35b6104ef600480360360408110156106ef57600080fd5b5080356001600160a01b0316906020013560ff1661195f565b6104ef6004803603604081101561071e57600080fd5b5080359060200135611997565b61074e6004803603604081101561074157600080fd5b5080359060200135611bf5565b6040518084815260200183600481111561076457fe5b60ff168152602001828152602001935050505060405180910390f35b61034f611c24565b61042d6004803603602081101561079e57600080fd5b5035611c52565b6104ef600480360360408110156107bb57600080fd5b50803590602001356001600160a01b0316611c64565b6104ef600480360360208110156107e757600080fd5b5035611f3e565b6104816120f5565b6104ef600480360360c081101561080c57600080fd5b5080359060208101359060408101359060608101359060808101359060a001356001600160a01b0316612104565b6104ef6004803603604081101561085057600080fd5b50803590602001356001600160a01b03166124d9565b6104816004803603602081101561087c57600080fd5b5035612507565b6104816004803603602081101561089957600080fd5b5035612525565b61042d612540565b61042d612575565b61042d61257b565b6104ef600480360360608110156108ce57600080fd5b813591908101906040810160208201356401000000008111156108f057600080fd5b82018360208201111561090257600080fd5b8035906020019184600183028401116401000000008311171561092457600080fd5b91939092909160208101903564010000000081111561094257600080fd5b82018360208201111561095457600080fd5b8035906020019184600183028401116401000000008311171561097657600080fd5b509092509050612581565b61034f612700565b61042d61271f565b61042d612725565b61042d61272b565b610481600480360360208110156109b757600080fd5b5035612730565b61066461274b565b6104ef600480360360408110156109dc57600080fd5b50803590602001356001600160a01b0316612768565b61048160048036036020811015610a0857600080fd5b5035612aad565b6104ef60048036036040811015610a2557600080fd5b506001600160a01b038135169060200135612ac8565b610481612af6565b61042d612b05565b6104ef60048036036060811015610a6157600080fd5b5080359060208101359060400135612b0b565b6104ef60048036036040811015610a8a57600080fd5b50803590602001356001600160a01b0316612e4a565b61042d612e78565b6104ef60048036036040811015610abe57600080fd5b50803590602001356001600160a01b0316612e7d565b61042d612eab565b61042d612ec6565b61042d612ecc565b610b1260048036036020811015610b0257600080fd5b50356001600160a01b0316612ed2565b60405180826005811115610b2257fe5b60ff16815260200191505060405180910390f35b61042d612ee7565b61042d612eed565b610b4e612ef2565b6040805192835260208301919091528051918290030190f35b6104ef60048036036020811015610b7d57600080fd5b50356001600160a01b0316612efc565b61034f612f1e565b60405180602e6141758239602e019050604051809103902081565b601154600090819060609082906001600160a01b03163314610c19576040805162461bcd60e51b815260206004820152601d60248201527f43616c6c6572206d757374206265206178696f6d20616464726573732e000000604482015290519081900360640190fd5b6060610c26606430612f39565b60115460405163653e57a360e11b81526020600482018181528451602484015284519495506000946001600160a01b039094169363ca7caf469387938392604490920191908501908083838b5b83811015610c8b578181015183820152602001610c73565b50505050905090810190601f168015610cb85780820380516001836020036101000a031916815260200191505b5092505050602060405180830381600087803b158015610cd757600080fd5b505af1158015610ceb573d6000803e3d6000fd5b505050506040513d6020811015610d0157600080fd5b50519450849050610d1181611127565b600081815260086020908152604080832083805282528083209051939950919289910180602d6144ee8239602d81810193909352604080518083039094018452604d9091018152825160209384012084556001808501805460ff1916600417905543600286015560008c81526009909452908320859055610d9491508490612fb6565b90506060610db18a60648486600001546004546000806000612fcf565b90506060610dbd61308f565b6011546040805163f468e2bb60e01b8152600481019182528551604482015285519394506000936001600160a01b039093169263f468e2bb92879287928291602481019160649091019060208701908083838d5b83811015610e29578181015183820152602001610e11565b50505050905090810190601f168015610e565780820380516001836020036101000a031916815260200191505b50838103825284518152845160209182019186019080838360005b83811015610e89578181015183820152602001610e71565b50505050905090810190601f168015610eb65780820380516001836020036101000a031916815260200191505b509450505050506040805180830381600087803b158015610ed657600080fd5b505af1158015610eea573d6000803e3d6000fd5b505050506040513d6040811015610f0057600080fd5b810190808051906020019092919080519060200190929190505050809a50819250505080600a60008e815260200190815260200160002060006101000a8154816001600160a01b0302191690836001600160a01b0316021790555086600d60008e815260200190815260200160002060006101000a8154816001600160a01b0302191690836001600160a01b0316021790555088600f60008e815260200190815260200160002060006101000a8154816001600160a01b0302191690836001600160a01b031602179055506003600e6000836001600160a01b03166001600160a01b0316815260200190815260200160002060006101000a81548160ff0219169083600581111561100d57fe5b02179055506040805180820190915260018152600360fc1b602082015299507fd5dc98c5a31138beaa181ac10162735542d80e896ab9cb39fe3e3c670283a2be816003604080516001600160a01b03909316835260208301919091528051918290030190a17f037d4c98ca5132c04d98738378b9b892b7d851ef59950cc67e6cbceae56e1b3d818d60025460035460045460405180866001600160a01b03166001600160a01b031681526020018581526020018481526020018381526020018281526020019550505050505060405180910390a1505050505050505090919293565b60065481565b600e81565b600c6020526000908152604090205481565b600f602052600090815260409020546001600160a01b031681565b60006001600160a01b038216611184576040805162461bcd60e51b815260206004820152601d60248201527f416e63686f722061646472657373206d757374206e6f7420626520302e000000604482015290519081900360640190fd5b50604080517f4d657461636861696e4964286164647265737320616e63686f722900000000008152815190819003601b0181206020808301919091526001600160a01b0390931681830152815180820383018152606082018352805190840120601254601960f81b6080840152604d60f81b6081840152608283015260a2808301919091528251808303909101815260c2909101909152805191012090565b6000918252600b602052604090912080546001600160a01b0319166001600160a01b03909216919091179055565b600091825260096020908152604080842054600883528185209085529091529091209081556001808201805460ff1916909117905543600290910155565b895160208b012084146112d35760405162461bcd60e51b81526004018080602001828103825260358152602001806142fb6035913960400191505060405180910390fd5b60006112de8c6130db565b60008d8152600a60205260409020549091506001600160a01b03166113028161316a565b611349576040805162461bcd60e51b815260206004820152601360248201527221b7b9329034b9903737ba1030b1ba34bb329760691b604482015290519081900360640190fd5b61135c81838d8d8d8d8d8d8d8d8d61319c565b6113668d8d61330d565b806001600160a01b03166362d76edf8a8a876004546040518563ffffffff1660e01b815260040180858152602001848152602001838152602001828152602001945050505050600060405180830381600087803b1580156113c657600080fd5b505af11580156113da573d6000803e3d6000fd5b505050507f2a677162a0044a5e2e7c728dc05fe5a10eae2b6ffdbcdb0a905e5b9e9c656f5a8b828f8560405180858152602001846001600160a01b03166001600160a01b0316815260200183815260200182815260200194505050505060405180910390a150505050505050505050505050565b83611495576040805162461bcd60e51b815260206004820152601260248201527126b2ba30b1b430b4b71034b21034b990181760711b604482015290519081900360640190fd5b6001600160a01b0383166114e7576040805162461bcd60e51b815260206004820152601460248201527321b7b93293b99030b2323932b9b99034b990181760611b604482015290519081900360640190fd5b6001600160a01b038216611542576040805162461bcd60e51b815260206004820152601960248201527f56616c696461746f722773206164647265737320697320302e00000000000000604482015290519081900360640190fd5b6001600160a01b0381166115875760405162461bcd60e51b81526004018080602001828103825260218152602001806144cd6021913960400191505060405180910390fd5b611590836133e9565b6115e1576040805162461bcd60e51b815260206004820152601e60248201527f54686520676976656e20636f7265206973206e6f742072756e6e696e672e0000604482015290519081900360640190fd5b6115eb8383613430565b61163c576040805162461bcd60e51b815260206004820152601c60248201527f496e76616c69642076616c696461746f722077617320676976656e2e00000000604482015290519081900360640190fd5b600084815260096020908152604080832054600883528184208185529092529091206002600182015460ff16600481111561167357fe5b146116af5760405162461bcd60e51b81526004018080602001828103825260358152602001806144986035913960400191505060405180910390fd5b80546000908152600b60205260409020546001600160a01b0316806116d057fe5b6040805163bf81b13b60e01b81526001600160a01b038781166004830152868116602483015291519183169163bf81b13b9160448082019260009290919082900301818387803b15801561172357600080fd5b505af1158015611737573d6000803e3d6000fd5b5050505050505050505050565b6000828152600a60205260409020546001600160a01b0316806117985760405162461bcd60e51b81526004018080602001828103825260288152602001806143646028913960400191505060405180910390fd5b6117a1816133e9565b6117dc5760405162461bcd60e51b815260040180806020018281038252602f815260200180614296602f913960400191505060405180910390fd5b60105460408051632021856b60e21b81523360048201526001600160a01b0385811660248301529151600093929092169163808615ac9160448082019260209290919082900301818787803b15801561183457600080fd5b505af1158015611848573d6000803e3d6000fd5b505050506040513d602081101561185e57600080fd5b50516040805163051ffcd960e31b815233600482015290519192506000916001600160a01b038516916328ffe6c891602480830192602092919082900301818787803b1580156118ad57600080fd5b505af11580156118c1573d6000803e3d6000fd5b505050506040513d60208110156118d757600080fd5b5051604080513381526001600160a01b03861660208201528082018390526060810185905290519192507fa3f856848c8d32c82f934932d06609ac500484b1ae5d385a5069c0da35950bea919081900360800190a15050505050565b6040518060400160405280601081526020016f4d6f736169632d436f6e73656e73757360801b81525081565b6001600160a01b0382166000908152600e60205260409020805482919060ff1916600183600581111561198e57fe5b02179055505050565b816119de576040805162461bcd60e51b815260206004820152601260248201527126b2ba30b1b430b4b71034b21034b990181760711b604482015290519081900360640190fd5b80611a30576040805162461bcd60e51b815260206004820152601860248201527f436f6d6d6974746565206465636973696f6e20697320302e0000000000000000604482015290519081900360640190fd5b600082815260096020908152604080832054600883528184208185529092529091206002600182015460ff166004811115611a6757fe5b14611aa35760405162461bcd60e51b815260040180806020018281038252603781526020018061451b6037913960400191505060405180910390fd5b60018101805460ff1916600317905543600282015580546000908152600b6020526040902054336001600160a01b0390911614611b20576040805162461bcd60e51b81526020600482015260166024820152752bb937b7339031b7b6b6b4ba3a32b29031b0b636399760511b604482015290519081900360640190fd5b80546000908152600c602052604090205415611b6d5760405162461bcd60e51b81526004018080602001828103825260318152602001806144316031913960400191505060405180910390fd5b80546000908152600c602090815260408083208690558354808452600b8352928190205460015482516001600160a01b03909216808352938201949094528082018890526060810193909352608083018690525190917fb0d0f8983a3a151ff08f9212ef21ab9164e053e58c356ec5c7a9495595e11573919081900360a00190a15050505050565b6008602090815260009283526040808420909152908252902080546001820154600290920154909160ff169083565b604080517573657475702875696e743235362c616464726573732960501b8152905190819003601601902081565b60096020526000908152604090205481565b81611cab576040805162461bcd60e51b815260206004820152601260248201527126b2ba30b1b430b4b71034b21034b990181760711b604482015290519081900360640190fd5b6001600160a01b038116611cf3576040805162461bcd60e51b815260206004820152600a60248201526921b7b9329034b990181760b11b604482015290519081900360640190fd5b6000828152600a60205260409020546001600160a01b03828116911614611d4b5760405162461bcd60e51b81526004018080602001828103825260348152602001806141d86034913960400191505060405180910390fd5b611d54816133e9565b611d8f5760405162461bcd60e51b815260040180806020018281038252602f815260200180614296602f913960400191505060405180910390fd5b6010546040805163212b0cfb60e21b815233600482015290516000926001600160a01b0316916384ac33ec91602480830192602092919082900301818787803b158015611ddb57600080fd5b505af1158015611def573d6000803e3d6000fd5b505050506040513d6020811015611e0557600080fd5b50516040805163cc51f9b960e01b815233600482015290519192506000916001600160a01b0385169163cc51f9b991602480830192602092919082900301818787803b158015611e5457600080fd5b505af1158015611e68573d6000803e3d6000fd5b505050506040513d6020811015611e7e57600080fd5b50516040805163cc51f9b960e01b815233600482015290519192506001600160a01b0385169163cc51f9b9916024808201926020929091908290030181600087803b158015611ecc57600080fd5b505af1158015611ee0573d6000803e3d6000fd5b505050506040513d6020811015611ef657600080fd5b5050604080513381526020810183905280820184905290517f9638503c2352ee4f21f2db29108fc64ecb93d2533c44738c762f4f937eddba779181900360600190a150505050565b80611f85576040805162461bcd60e51b815260206004820152601260248201527126b2ba30b1b430b4b71034b21034b990181760711b604482015290519081900360640190fd5b6000818152600960209081526040808320546008835281842081855290925290912060018082015460ff166004811115611fbb57fe5b14611ff75760405162461bcd60e51b81526004018080602001828103825260458152602001806141306045913960600191505060405180910390fd5b600281015460009061201090600e63ffffffff612fb616565b90508043116120505760405162461bcd60e51b81526004018080602001828103825260348152602001806143306034913960400191505060405180910390fd5b600061206083600001548361354c565b60018401805460ff191660029081179091554390850155835490915060009061208c90879084906136a1565b8454600154604080516001600160a01b038516815260208101939093528281018a9052606083018790526080830191909152519192507fc544f471de57b0c35a1207ce7f6ddb389440c8eb838ee624b2ab7ad76d9ce915919081900360a00190a1505050505050565b6011546001600160a01b031681565b6011546001600160a01b031615612162576040805162461bcd60e51b815260206004820152601b60248201527f436f6e73656e73757320697320616c72656164792073657475702e0000000000604482015290519081900360640190fd5b600086116121ae576040805162461bcd60e51b815260206004820152601460248201527321b7b6b6b4ba3a32b29039b4bd329034b990181760611b604482015290519081900360640190fd5b60058510156121ee5760405162461bcd60e51b81526004018080602001828103825260318152602001806143dc6031913960400191505060405180910390fd5b8484101561222d5760405162461bcd60e51b815260040180806020018281038252603781526020018061425f6037913960400191505060405180910390fd5b6000831161227b576040805162461bcd60e51b815260206004820152601660248201527523b0b9903a30b933b2ba103232b63a309034b990181760511b604482015290519081900360640190fd5b6103e88211156122bc5760405162461bcd60e51b81526004018080602001828103825260368152602001806142c56036913960400191505060405180910390fd5b6001600160a01b0381166123015760405162461bcd60e51b815260040180806020018281038252602181526020018061423e6021913960400191505060405180910390fd5b60018690556002859055600384905560048390556005829055601080546001600160a01b0383166001600160a01b0319918216179091556011805490911633179055600061234d613703565b9050604051808061438c60509139605001905060405180910390206040518060400160405280601081526020016f4d6f736169632d436f6e73656e73757360801b815250604051806040016040528060018152602001600360fc1b8152508330604051602001808681526020018060200180602001858152602001846001600160a01b03166001600160a01b03168152602001838103835287818151815260200191508051906020019080838360005b838110156124155781810151838201526020016123fd565b50505050905090810190601f1680156124425780820380516001836020036101000a031916815260200191505b50838103825286518152865160209182019188019080838360005b8381101561247557818101518382015260200161245d565b50505050905090810190601f1680156124a25780820380516001836020036101000a031916815260200191505b5060408051601f19818403018152919052805160209091012060125550506000600681905560075550505050505050505050505050565b6000918252600f602052604090912080546001600160a01b0319166001600160a01b03909216919091179055565b6000818152600d60205260409020546001600160a01b03165b919050565b600a602052600090815260409020546001600160a01b031681565b604080517f4d657461636861696e4964286164647265737320616e63686f722900000000008152905190819003601b01902081565b60045481565b60015481565b6000858152600a60205260409020546001600160a01b0316806125d55760405162461bcd60e51b815260040180806020018281038252602481526020018061406a6024913960400191505060405180910390fd5b6125df8133613430565b612630576040805162461bcd60e51b815260206004820152601c60248201527f496e76616c69642076616c696461746f722077617320676976656e2e00000000604482015290519081900360640190fd5b7f81e4298e8154fbb04620b49826ea6ec291596613294df8cf8df2717cdf11cf408682338888888860405180888152602001876001600160a01b03166001600160a01b03168152602001866001600160a01b03166001600160a01b0316815260200180602001806020018381038352878782818152602001925080828437600083820152601f01601f191690910184810383528581526020019050858580828437600083820152604051601f909101601f19169092018290039b50909950505050505050505050a1505050505050565b60408051667365747570282960c81b8152905190819003600701902081565b60035481565b60055481565b606481565b600d602052600090815260409020546001600160a01b031681565b604051806040016040528060018152602001600360fc1b81525081565b6000828152600a60205260409020546001600160a01b0316806127bc5760405162461bcd60e51b81526004018080602001828103825260288152602001806143646028913960400191505060405180910390fd5b60036001600160a01b0382166000908152600e602052604090205460ff1660058111156127e557fe5b146128215760405162461bcd60e51b81526004018080602001828103825260268152602001806140446026913960400191505060405180910390fd5b60105460408051632021856b60e21b81523360048201526001600160a01b0385811660248301529151600093929092169163808615ac9160448082019260209290919082900301818787803b15801561287957600080fd5b505af115801561288d573d6000803e3d6000fd5b505050506040513d60208110156128a357600080fd5b50516040805163fd6dfa4360e01b81523360048201529051919250600091829182916001600160a01b0387169163fd6dfa4391602480830192606092919082900301818787803b1580156128f657600080fd5b505af115801561290a573d6000803e3d6000fd5b505050506040513d606081101561292057600080fd5b50805160208201516040909201519094509092509050818310612a55576001600160a01b038581166000908152600e60209081526040808320805460ff191660041790558a8352600f909152902054168061297757fe5b806001600160a01b031663e5acd280876006546007546040518463ffffffff1660e01b815260040180846001600160a01b03166001600160a01b031681526020018381526020018281526020019350505050602060405180830381600087803b1580156129e357600080fd5b505af11580156129f7573d6000803e3d6000fd5b505050506040513d6020811015612a0d57600080fd5b5050604080516001600160a01b03881681526004602082015281517fd5dc98c5a31138beaa181ac10162735542d80e896ab9cb39fe3e3c670283a2be929181900390910190a1505b604080513381526001600160a01b03871660208201528082018390526060810186905290517fa3f856848c8d32c82f934932d06609ac500484b1ae5d385a5069c0da35950bea9181900360800190a150505050505050565b600b602052600090815260409020546001600160a01b031681565b6000908152600b6020526040902080546001600160a01b0319166001600160a01b0392909216919091179055565b6010546001600160a01b031681565b60025481565b82612b52576040805162461bcd60e51b815260206004820152601260248201527126b2ba30b1b430b4b71034b21034b990181760711b604482015290519081900360640190fd5b80612b9b576040805162461bcd60e51b815260206004820152601460248201527326b2ba30b13637b1b5903430b9b41034b990181760611b604482015290519081900360640190fd5b6000838152600a60205260409020546001600160a01b0316338114612bf15760405162461bcd60e51b815260040180806020018281038252603c8152602001806140f4603c913960400191505060405180910390fd5b612bfa816133e9565b612c4b576040805162461bcd60e51b815260206004820152601d60248201527f436f7265202863616c6c657229206973206e6f742072756e6e696e672e000000604482015290519081900360640190fd5b6000848152600960209081526040808320546008835281842081855290925290912084612c7f83600163ffffffff612fb616565b14612cbb5760405162461bcd60e51b815260040180806020018281038252602e815260200180613fea602e913960400191505060405180910390fd5b6004600182015460ff166004811115612cd057fe5b14612d0c5760405162461bcd60e51b815260040180806020018281038252602481526020018061440d6024913960400191505060405180910390fd5b6000868152600860209081526040808320888452909152812090600182015460ff166004811115612d3957fe5b14612d4057fe5b8481556001808201805460ff191682800217905550436002820155600087815260096020526040902086905560046001600160a01b0385166000908152600e602052604090205460ff166005811115612d9557fe5b1415612dfb576001600160a01b0384166000818152600e6020908152604091829020805460ff1916600590811790915582519384529083015280517fd5dc98c5a31138beaa181ac10162735542d80e896ab9cb39fe3e3c670283a2be9281900390910190a15b604080518681526020810189905280820188905243606082015290517fe6ae1c3ae9aa6cffd29bfd4290435349fd1b77c5d2f27d1e93534e0ed36c67019181900360800190a150505050505050565b6000918252600a602052604090912080546001600160a01b0319166001600160a01b03909216919091179055565b600581565b6000918252600d602052604090912080546001600160a01b0319166001600160a01b03909216919091179055565b60405180605061438c82396050019050604051809103902081565b60075481565b6103e881565b600e6020526000908152604090205460ff1681565b60125481565b600781565b6002546003549091565b601080546001600160a01b0319166001600160a01b0392909216919091179055565b60405180606661408e82396066019050604051809103902081565b604080517573657475702875696e743235362c616464726573732960501b8152815190819003601601812060248201949094526001600160a01b0390921660448084019190915281518084039091018152606490920190526020810180516001600160e01b03166001600160e01b03199093169290921790915290565b600082820183811015612fc857600080fd5b9392505050565b6060604051808061408e6066913960408051918290036066018220600254600354601054306024870152604486019f909f52606485019d909d52608484015260a483019b909b526001600160a01b03909b1660c482015260e4810198909852505061010486019490945261012485019290925261014484015261016483015261018480830191909152835180830390910181526101a49091019092526020820180516001600160e01b03166001600160e01b031990921691909117905290565b60408051667365747570282960c81b8152815190819003600701812060048252602482019092526020810180516001600160e01b03166001600160e01b03199093169290921790915290565b6000818152600960209081526040808320546008835281842081855290925282206003600182015460ff16600481111561311157fe5b1461314d5760405162461bcd60e51b815260040180806020018281038252602c815260200180614018602c913960400191505060405180910390fd5b60018101805460ff19166004179055436002820155549392505050565b600060056001600160a01b0383166000908152600e602052604090205460ff16600581111561319557fe5b1492915050565b60008a8152600c602090815260409182902054825180830182905283518082038401815290840190935282519290910191909120861461320d5760405162461bcd60e51b81526004018080602001828103825260368152602001806144626036913960400191505060405180910390fd5b604080516355401a5f60e01b8152600481018c9052602481018b9052604481018a9052606481018990526084810188905260a4810187905260c4810186905260e48101859052610104810184905290516000916001600160a01b038f16916355401a5f9161012480820192602092909190829003018186803b15801561329257600080fd5b505afa1580156132a6573d6000803e3d6000fd5b505050506040513d60208110156132bc57600080fd5b505190508b81146132fe5760405162461bcd60e51b81526004018080602001828103825260358152602001806141a36035913960400191505060405180910390fd5b50505050505050505050505050565b6000828152600d60205260409020546001600160a01b0316806133615760405162461bcd60e51b815260040180806020018281038252603281526020018061420c6032913960400191505060405180910390fd5b613369613f2c565b61337283613707565b9050816001600160a01b0316635cf12c7882610120015183608001516040518363ffffffff1660e01b81526004018083815260200182815260200192505050600060405180830381600087803b1580156133cb57600080fd5b505af11580156133df573d6000803e3d6000fd5b5050505050505050565b6001600160a01b0381166000908152600e602052604081205460ff16600481600581111561341357fe5b1480612fc85750600581600581111561342857fe5b149392505050565b60006001600160a01b03831661344257fe5b826001600160a01b031663facd743b836040518263ffffffff1660e01b815260040180826001600160a01b03166001600160a01b0316815260200191505060206040518083038186803b15801561349857600080fd5b505afa1580156134ac573d6000803e3d6000fd5b505050506040513d60208110156134c257600080fd5b50518015612fc8575060105460408051632de640db60e21b81526001600160a01b0385811660048301529151919092169163b799036c916024808301926020929190829003018186803b15801561351857600080fd5b505afa15801561352c573d6000803e3d6000fd5b505050506040513d602081101561354257600080fd5b5051159392505050565b600080613571600761356585600163ffffffff612fb616565b9063ffffffff6138da16565b90508243118015613592575061358f8161010063ffffffff612fb616565b43105b6135cd5760405162461bcd60e51b81526004018080602001828103825260328152602001806145526032913960400191505060405180910390fd5b60408051600780825261010082019092526060916020820160e08038833901905050905060005b600781101561363d5761360d838263ffffffff612fb616565b4082828151811061361a57fe5b602090810291909101015261363681600163ffffffff612fb616565b90506135f4565b50848160405160200180838152602001828051906020019060200280838360005b8381101561367657818101518382015260200161365e565b5050505090500192505050604051602081830303815290604052805190602001209250505092915050565b6000818152600b60205260408120546001600160a01b0316156136c057fe5b6136ce8460015485856138ef565b6000928352600b602052604090922080546001600160a01b0319166001600160a01b0393841617908190559091169392505050565b4690565b61370f613f2c565b8151602083012061371e613faf565b61372784613a49565b9050606061373482613a8c565b90506040518061020001604052808481526020016137658360008151811061375857fe5b6020026020010151613b3e565b815260200161377a8360018151811061375857fe5b815260200161379c8360028151811061378f57fe5b6020026020010151613b4f565b6001600160a01b031681526020016137ba8360038151811061375857fe5b81526020016137cf8360048151811061375857fe5b81526020016137e48360058151811061375857fe5b8152602001613806836006815181106137f957fe5b6020026020010151613b90565b81526020016138288360078151811061381b57fe5b6020026020010151613be6565b815260200161383d8360088151811061381b57fe5b81526020016138528360098151811061381b57fe5b67ffffffffffffffff16815260200161387183600a8151811061381b57fe5b67ffffffffffffffff16815260200161389083600b8151811061381b57fe5b81526020016138a583600c815181106137f957fe5b81526020016138ba83600d8151811061375857fe5b81526020016138cf83600e8151811061381b57fe5b905295945050505050565b6000828211156138e957600080fd5b50900390565b600060606040518080614175602e91396040805191829003602e01822060248084018b905230604480860191909152606485018b9052608485018a905260a48086018a90528451808703909101815260c49095018452602085810180516001600160e01b03166001600160e01b03199095169490941784526011549451637b9995c360e11b81526004810191825286519381019390935285519597506001600160a01b0394909416955063f7332b86948794938493909201919080838360005b838110156139c75781810151838201526020016139af565b50505050905090810190601f1680156139f45780820380516001836020036101000a031916815260200191505b5092505050602060405180830381600087803b158015613a1357600080fd5b505af1158015613a27573d6000803e3d6000fd5b505050506040513d6020811015613a3d57600080fd5b50519695505050505050565b613a51613faf565b815180613a735750506040805180820190915260008082526020820152612520565b6040805180820190915260209384018152928301525090565b6060613a9782613c36565b613aa057600080fd5b6000613aab83613c5d565b905080604051908082528060200260200182016040528015613ae757816020015b613ad4613faf565b815260200190600190039081613acc5790505b509150613af2613fc9565b613afb84613cc1565b905060005b613b0982613cf8565b15613b3657613b1782613d17565b848281518110613b2357fe5b6020908102919091010152600101613b00565b505050919050565b6000613b4982613be6565b92915050565b6000613b5a82613d5b565b613b6357600080fd5b600080613b6f84613d81565b909250905060148114613b8157600080fd5b5051600160601b900492915050565b602081015160609080613ba35750612520565b806040519080825280601f01601f191660200182016040528015613bce576020820181803883390190505b509150613be083600001518383613df1565b50919050565b6000613bf182613d5b565b613bfa57600080fd5b600080613c0684613d81565b90925090506020811180613c18575080155b15613c2257600080fd5b806020036101000a82510492505050919050565b6000816020015160001415613c4d57506000612520565b50515160c060009190911a101590565b6000613c6882613c36565b613c7457506000612520565b81518051600090811a9190613c8885613e21565b6020860151908301915082016000190160005b818311613cb757613cab83613e9f565b90920191600101613c9b565b9695505050505050565b613cc9613fc9565b613cd282613c36565b613cdb57600080fd5b6000613ce683613e21565b83519383529092016020820152919050565b6000613d02613faf565b50508051602080820151915192015191011190565b613d1f613faf565b613d2882613cf8565b613d3157600080fd5b60208201516000613d4182613e9f565b828452602080850182905292019390910192909252919050565b6000816020015160001415613d7257506000612520565b50515160c060009190911a1090565b600080613d8d83613d5b565b613d9657600080fd5b8251805160001a906080821015613db457925060019150613dec9050565b60b8821015613dd25760018560200151039250806001019350613de9565b602085015182820160b51901945082900360b60192505b50505b915091565b6000601f820184602085015b82841015613e18578382015184820152602084019350613dfd565b50505050505050565b6000816020015160001415613e3857506000612520565b8151805160001a906080821015613e5457600092505050612520565b60b8821080613e6f575060c08210158015613e6f575060f882105b15613e7f57600192505050612520565b60c0821015613e94575060b519019050612520565b5060f5190192915050565b8051600090811a6080811015613eb85760019150613be0565b60b8811015613ecd57607e1981019150613be0565b60c0811015613ef657600183015160b76020839003016101000a9004810160b519019150613be0565b60f8811015613f0b5760be1981019150613be0565b6001929092015160f76020849003016101000a900490910160f51901919050565b604080516102008101825260008082526020820181905291810182905260608082018390526080820183905260a0820183905260c0820183905260e08201819052610100820183905261012082018390526101408201839052610160820183905261018082018390526101a08201526101c081018290526101e081019190915290565b604051806040016040528060008152602001600081525090565b6040518060400160405280613fdc613faf565b815260200160008152509056fe4120707265636f6d6d6974206d75737420617070656e6420746f20746865206d657461626c6f636b636861696e2e436f6d6d697474656520686173206e6f742064656369646564206f6e20612070726f706f73616c207965742e436f7265206c69666574696d6520737461747573206d757374206265206372656174696f6e2e4e6f20636f72652065786973747320666f7220746865206d657461636861696e2069642e736574757028616464726573732c627974657333322c75696e743235362c75696e743235362c75696e743235362c616464726573732c75696e743235362c627974657333322c75696e743235362c75696e743235362c75696e743235362c75696e743235362943616c6c6572206973206e6f7420616e2061737369676e656420636f726520666f722074686520676976656e206d657461626c6f636b636861696e2e41737369676e656420636f7265206d757374206861766520707265636f6d6d69747465642061206d657461626c6f636b20746f20666f726d206120636f6d6d69747465652e736574757028627974657333322c616464726573732c75696e743235362c627974657333322c6279746573333229496e70757420706172616d657465727320646f206e6f74206861736820746f2074686520636f7265277320707265636f6d6d69742e436f7265206973206e6f742061737369676e656420666f722074686520737065636966696564206d657461636861696e2069642e5468657265206973206e6f20616e63686f7220666f722074686520737065636966696564206d657461636861696e2069642e52657075746174696f6e20636f6e7472616374206164647265737320697320302e4d61782076616c696461746f722073697a65206973206c657373207468616e206d696e696d756d2076616c696461746f722073697a652e436f7265206c69666574696d6520737461747573206d7573742062652067656e65736973206f72206163746976652e436f696e20626173652073706c697420706572206d696c6c652073686f756c6420626520696e2072616e67653a20302e2e313030302e426c6f636b2068656164657220646f6573206e6f74206d61746368207769746820766f7465206d65737361676520736f757263652e436f6d6d697474656520666f726d6174696f6e2068656967687420686173206e6f742079657420636f6d6520746f20706173732e436f726520646f6573206e6f7420657869737420666f7220676976656e206d657461636861696e2e4d6f73616963446f6d61696e28737472696e67206e616d652c737472696e672076657273696f6e2c75696e74323536206f726967696e436861696e49642c6164647265737320636f6e73656e737573294d696e2076616c696461746f722073697a65206d7573742062652067726561746572206f7220657175616c20746f20352e43757272656e74206d657461626c6f636b206d75737420626520636f6d6d69747465642e436f6d6d69747465652773206465636973696f6e20686173206265656e20616c726561647920726567697374657265642e436f6d6d6974746565206465636973696f6e20646f6573206e6f74206d61746368207769746820636f6d6d6974746565206c6f636b2e436f6d6d6974746565206d7573742068617665206265656e20666f726d656420746f20656e74657220612076616c696461746f722e467572746865722076616c696461746f722773206164647265737320697320302e4d6f736169632d3120546573746e65742047656e2d312047656e65736973204d657461626c6f636b2068617368436f6d6d6974746565206d7573742068617665206265656e20666f726d656420746f2072656769737465722061206465636973696f6e2e426c6f636b7365676d656e74206973206e6f7420696e20746865206d6f737420726563656e742032353620626c6f636b732ea265627a7a723158202c8f9b20f96d8820b144bde3b8f0ab4235aec416a41d4a099846e6a397cd176f64736f6c634300050d0032",
  "source": "pragma solidity >=0.5.0 <0.6.0;\n\n// Copyright 2019 OpenST Ltd.\n//\n// Licensed under the Apache License, Version 2.0 (the \"License\");\n// you may not use this file except in compliance with the License.\n// You may obtain a copy of the License at\n//\n//    http://www.apache.org/licenses/LICENSE-2.0\n//\n// Unless required by applicable law or agreed to in writing, software\n// distributed under the License is distributed on an \"AS IS\" BASIS,\n// WITHOUT WARRANTIES OR CONDITIONS OF ANY KIND, either express or implied.\n// See the License for the specific language governing permissions and\n// limitations under the License.\n\nimport \"../../consensus/Consensus.sol\";\n\ncontract ConsensusTest is Consensus {\n\n    constructor()\n        public\n        Consensus()\n    {\n\n    }\n\n    function setCoreLifetime(\n        address _core,\n        CoreLifetime _status\n    )\n        external\n    {\n        coreLifetimes[_core] = _status;\n    }\n\n    function setPrecommit(\n        bytes32 _metachainId,\n        bytes32 _precommit\n    )\n        external\n    {\n        uint256 metablockTip = metablockTips[_metachainId];\n        Metablock storage metablock = metablockchains[_metachainId][metablockTip];\n\n        metablock.metablockHash = _precommit;\n        metablock.round = MetablockRound.Precommitted;\n        metablock.roundBlockNumber = block.number;\n    }\n\n    function setCommittee(\n        bytes32 _metachainId,\n        address _committeeAddress\n    )\n        external\n    {\n        committees[_metachainId] = CommitteeInterface(_committeeAddress);\n    }\n\n    function setReputation(address _reputation) external {\n        reputation = ReputationInterface(_reputation);\n    }\n\n    function setAssignment(\n        bytes32 _metachainId,\n        CoreInterface _core\n    )\n        external\n    {\n        assignments[_metachainId] = _core;\n    }\n\n    function setCommitteeProposal(\n        CommitteeInterface _committeeAddress,\n        bytes32 _proposal\n    )\n        external\n    {\n        committees[_proposal] = _committeeAddress;\n    }\n\n    function setAnchor(\n        bytes32 _metachainId,\n        AnchorInterface _anchor\n    )\n        external\n    {\n        anchors[_metachainId] = _anchor;\n    }\n\n    function setConsensusGateway(\n        bytes32 _metachainId,\n        address _consensusGateway\n    )\n        external\n    {\n        consensusGateways[_metachainId] = ConsensusGatewayInterface(_consensusGateway);\n    }\n}\n",
  "sourcePath": "/Users/abhay/Documents/projects/abhayforks/mosaic-1/contracts/test/consensus/ConsensusTest.sol",
  "compiler": {
    "name": "solc",
    "version": "0.5.13+commit.5b0b510c.Emscripten.clang"
  },
  "schemaVersion": "3.0.17",
  "updatedAt": "2020-03-21T06:48:34.786Z",
  "devdoc": {
    "methods": {
      "commitMetablock(bytes32,bytes,bytes32,bytes32,uint256,uint256,bytes32,bytes32,bytes32,uint256,uint256)": {
        "details": "Function requires:         - block header should match with source blockhash         - metachain id should not be 0         - a core for the specified metachain id should exist         - precommit for the corresponding core should exist         - committee should have been formed for the precommit         - committee decision should match with the specified           committee lock         - committee decision should match with the core's precommit         - the given metablock parameters should match with the           core's precommit.         - anchor contract for the given metachain id should exist",
        "params": {
          "_accumulatedGas": "The total consumed gas on auxiliary within this                       meta-block.",
          "_committeeLock": "The committee lock that hashes the transaction                      root on the auxiliary chain.",
          "_dynasty": "The dynasty number where the meta-block closes                on the auxiliary chain.",
          "_kernelHash": "Kernel hash",
          "_metachainId": "Metachain id.",
          "_originObservation": "Observation of the origin chain.",
          "_rlpBlockHeader": "RLP encoded block header.",
          "_source": "Source block hash.",
          "_sourceBlockHeight": "Source block height.",
          "_target": "Target block hash.",
          "_targetBlockHeight": "Target block height."
        }
      },
      "enterCommittee(bytes32,address,address,address)": {
        "details": "Function requires:         - the given metachain id is not 0         - the given core's address is not 0         - the given validator's address is not 0         - the given 'further' validator's address is not 0         - the given core is running         - valid validator is given             - is active in the given core             - has not been slashed         - the corresponding metablock's round is 'CommitteeFormed'",
        "params": {
          "_furtherMember": "Validator address that is further member                      compared to the `_validator` address",
          "_metachainId": "Metachain id for the committee to enter.",
          "_validator": "Validator address to enter."
        }
      },
      "formCommittee(bytes32)": {
        "details": "Function requires:         - the given metachain id is not 0         - assigned core has precommitted a metablock         - committee formation height passed         - committee formation blocksegment must be in the most           recent 256 blocks."
      },
      "getAnchor(bytes32)": {
        "params": {
          "_metachainId": "Metachain Id"
        },
        "return": "anchor_ Anchor address."
      },
      "hashMetachainId(address)": {
        "params": {
          "_anchor": "Anchor address of the new metachain."
        },
        "return": "metachainId_ Metachain id."
      },
      "join(bytes32,address)": {
        "details": "Function requires:         - Core should exist for given metachain         - core lifetime status must be genesis or active",
        "params": {
          "_metachainId": "Metachain id that validator wants to join.",
          "_withdrawalAddress": "A withdrawal address of newly joined validator."
        }
      },
      "joinDuringCreation(bytes32,address)": {
        "details": "Function requires:         - core should exist for given metachain         - core life time should be in creation state",
        "params": {
          "_metachainId": "Metachain id that validator wants to join.",
          "_withdrawalAddress": "A withdrawal address of newly joined validator."
        }
      },
      "logout(bytes32,address)": {
        "details": "Function requires:         - metachain id should not be 0.         - core address should not be 0.         - core should be assigned for the specified metachain id.         - core for the specified metachain id should exist.",
        "params": {
          "_core": "Core address that validator wants to logout.",
          "_metachainId": "Metachain id that validator wants to logout."
        }
      },
      "newMetachain()": {
        "details": "Function requires:         - msg.sender should be axiom contract.         - core is not assigned to metachain.",
        "return": "metachainId_ Metachain id.anchor_ Address of anchor.mosaicVersion_ Mosaic Version.consensusGateway_ Address of Consensus Gateway."
      },
      "precommitMetablock(bytes32,uint256,bytes32)": {
        "details": "Function requires:         - the given metachain id is not 0         - the given metablock's hash is not 0         - the given metablock's height is +1 of the current           height of the metablockchain         - the caller is the assigned core of the metablockchain         - the caller (core) is running         - the current (tip) metablock of the metablockchain is committed"
      },
      "publishEndpoint(bytes32,string,string)": {
        "details": "Function requires:         - only validator can call.         - validator is not slashed.         - metachain id should be valid.",
        "params": {
          "_endpoint": "Url for the service.",
          "_metachainId": "Metachain id.",
          "_service": "Service can be ipfs, enode, etc."
        }
      },
      "registerCommitteeDecision(bytes32,bytes32)": {
        "params": {
          "_committeeDecision": "Decision of a caller committee."
        }
      },
      "setup(uint256,uint256,uint256,uint256,uint256,address)": {
        "details": "Function requires:         - Consensus contract should not be already setup.         - Committee size should be greater than 0.         - Minimum validator size must be greater or equal to 5.         - Maximum validator size should be greater or equal to minimum           validator size.         - Gas target delta should be greater than 0.         - Coin base split per mille should be in range: 0..1000.         - Reputation contract address should be 0.",
        "params": {
          "_coinbaseSplitPerMille": "Coinbase split per mille.",
          "_committeeSize": "Max committee size that can be formed.",
          "_gasTargetDelta": "Gas target delta to open new metablock.",
          "_joinLimit": "Maximum number of validators that can join a core.",
          "_minValidators": "Minimum number of validators that must join a                      created core to open.",
          "_reputation": "Reputation contract address."
        }
      }
    }
  },
  "userdoc": {
    "methods": {
      "commitMetablock(bytes32,bytes,bytes32,bytes32,uint256,uint256,bytes32,bytes32,bytes32,uint256,uint256)": {
        "notice": "Commits a metablock."
      },
      "coreValidatorThresholds()": {
        "notice": "Get minimum validator and join limit count. "
      },
      "enterCommittee(bytes32,address,address,address)": {
        "notice": "Enters a validator into a committee."
      },
      "formCommittee(bytes32)": {
        "notice": "Forms a new committee to verify the precommit."
      },
      "getAnchor(bytes32)": {
        "notice": "Get anchor address for metachain id."
      },
      "hashMetachainId(address)": {
        "notice": "Gets metachain id.        Metachain id format :        `0x19 0x4d <mosaic-domain-separator> <metachainid-typehash>` where        0x19 signed data as per EIP-191.        0x4d is version byte for Mosaic.        <mosaic-domain-separator> format is `MosaicDomain(string name,                           string version,uint256 originChainId,                           address consensus)`.        <metachainid-typehash> format is MetachainId(address anchor).     *         <mosaic-domain-separator> and <metachainid-typehash> is EIP-712        complaint."
      },
      "join(bytes32,address)": {
        "notice": "Validator joins the core, when core lifetime status is genesis        or active. This is called by validator address."
      },
      "joinDuringCreation(bytes32,address)": {
        "notice": "Validator joins the core, when core lifetime status is creation.        This is called by validator address."
      },
      "logout(bytes32,address)": {
        "notice": "Validator logs out. This is called by validator address."
      },
      "newMetachain()": {
        "notice": "Creates a new meta chain.        This can be called only by axiom."
      },
      "precommitMetablock(bytes32,uint256,bytes32)": {
        "notice": "Precommits a metablock."
      },
      "publishEndpoint(bytes32,string,string)": {
        "notice": "It publishes the endpoint."
      },
      "registerCommitteeDecision(bytes32,bytes32)": {
        "notice": "Registers committee decision."
      },
      "setup(uint256,uint256,uint256,uint256,uint256,address)": {
        "notice": "Setup consensus contract. Setup method can be called only once."
      }
    }
  }
}