{
  "contractName": "ConsensusGatewayBaseTest",
  "abi": [
    {
      "constant": true,
      "inputs": [],
      "name": "KERNEL_INTENT_TYPEHASH",
      "outputs": [
        {
          "internalType": "bytes32",
          "name": "",
          "type": "bytes32"
        }
      ],
      "payable": false,
      "stateMutability": "view",
      "type": "function"
    },
    {
      "constant": true,
      "inputs": [],
      "name": "currentMetablockHeight",
      "outputs": [
        {
          "internalType": "uint256",
          "name": "",
          "type": "uint256"
        }
      ],
      "payable": false,
      "stateMutability": "view",
      "type": "function"
    },
    {
      "constant": true,
      "inputs": [
        {
          "internalType": "uint256",
          "name": "_height",
          "type": "uint256"
        },
        {
          "internalType": "bytes32",
          "name": "_kernelHash",
          "type": "bytes32"
        }
      ],
      "name": "hashKernelIntent",
      "outputs": [
        {
          "internalType": "bytes32",
          "name": "kernelIntentHash_",
          "type": "bytes32"
        }
      ],
      "payable": false,
      "stateMutability": "pure",
      "type": "function"
    },
    {
      "constant": true,
      "inputs": [],
      "name": "most",
      "outputs": [
        {
          "internalType": "contract ERC20I",
          "name": "",
          "type": "address"
        }
      ],
      "payable": false,
      "stateMutability": "view",
      "type": "function"
    },
    {
      "constant": false,
      "inputs": [
        {
          "internalType": "contract ERC20I",
          "name": "_most",
          "type": "address"
        },
        {
          "internalType": "uint256",
          "name": "_currentMetablockHeight",
          "type": "uint256"
        }
      ],
      "name": "setupExternal",
      "outputs": [],
      "payable": false,
      "stateMutability": "nonpayable",
      "type": "function"
    }
  ],
  "bytecode": "0x608060405234801561001057600080fd5b50610264806100206000396000f3fe608060405234801561001057600080fd5b50600436106100575760003560e01c80633b7f2f191461005c5780635661a5371461007657806358d7889c146100a457806385248b8a146100c8578063befce88e146100d0575b600080fd5b6100646100f3565b60408051918252519081900360200190f35b6100a26004803603604081101561008c57600080fd5b506001600160a01b0381351690602001356100f9565b005b6100ac610107565b604080516001600160a01b039092168252519081900360200190f35b610064610116565b610064600480360360408110156100e657600080fd5b5080359060200135610131565b60015481565b6101038282610180565b5050565b6000546001600160a01b031681565b60405180602f6102018239602f019050604051809103902081565b60006040518080610201602f91396040805191829003602f0182206020808401919091528282019690965260608083019590955280518083039095018552608090910190525050805191012090565b6001600160a01b0382166101db576040805162461bcd60e51b815260206004820152601b60248201527f6d6f73742061646472657373206d757374206e6f7420626520302e0000000000604482015290519081900360640190fd5b600155600080546001600160a01b0319166001600160a01b039290921691909117905556fe4b65726e656c496e74656e742875696e74323536206865696768742c62797465733332206b65726e656c4861736829a265627a7a7231582064c505fe48411ecef607d14e9e301443dcbb483637bd0888e8d17cc7f853973864736f6c634300050d0032",
  "source": "pragma solidity >=0.5.0 <0.6.0;\n\n// Copyright 2019 OpenST Ltd.\n//\n// Licensed under the Apache License, Version 2.0 (the \"License\");\n// you may not use this file except in compliance with the License.\n// You may obtain a copy of the License at\n//\n//    http://www.apache.org/licenses/LICENSE-2.0\n//\n// Unless required by applicable law or agreed to in writing, software\n// distributed under the License is distributed on an \"AS IS\" BASIS,\n// WITHOUT WARRANTIES OR CONDITIONS OF ANY KIND, either express or implied.\n// See the License for the specific language governing permissions and\n// limitations under the License.\n\nimport \"../../consensus-gateway/ConsensusGatewayBase.sol\";\n\ncontract ConsensusGatewayBaseTest is ConsensusGatewayBase {\n\n\n    function setupExternal(\n        ERC20I _most,\n        uint256 _currentMetablockHeight\n    )\n        external\n    {\n        ConsensusGatewayBase.setup(_most, _currentMetablockHeight);\n    }\n\n}\n",
  "sourcePath": "/Users/abhay/Documents/projects/abhayforks/mosaic-1/contracts/test/consensus_gateway_base/ConsensusGatewayBaseTest.sol",
  "compiler": {
    "name": "solc",
    "version": "0.5.13+commit.5b0b510c.Emscripten.clang"
  },
  "schemaVersion": "3.0.17",
  "updatedAt": "2020-03-21T06:48:34.800Z",
  "devdoc": {
    "methods": {
      "hashKernelIntent(uint256,bytes32)": {
        "params": {
          "_height": "Height of metablock.",
          "_kernelHash": "Hash of kernel at given height."
        },
        "return": "kernelIntentHash_ Kernel intent hash."
      }
    }
  },
  "userdoc": {
    "methods": {
      "hashKernelIntent(uint256,bytes32)": {
        "notice": "Creates kernel intent hash."
      }
    }
  }
}