{
  "contractName": "ConsensusCogatewaySpy",
  "abi": [
    {
      "constant": true,
      "inputs": [],
      "name": "spyKernelHeight",
      "outputs": [
        {
          "internalType": "uint256",
          "name": "",
          "type": "uint256"
        }
      ],
      "payable": false,
      "stateMutability": "view",
      "type": "function"
    },
    {
      "constant": true,
      "inputs": [
        {
          "internalType": "uint256",
          "name": "",
          "type": "uint256"
        }
      ],
      "name": "testKernelHashes",
      "outputs": [
        {
          "internalType": "bytes32",
          "name": "",
          "type": "bytes32"
        }
      ],
      "payable": false,
      "stateMutability": "view",
      "type": "function"
    },
    {
      "constant": false,
      "inputs": [
        {
          "internalType": "bytes32",
          "name": "_kernelHash",
          "type": "bytes32"
        },
        {
          "internalType": "uint256",
          "name": "_kernelHeight",
          "type": "uint256"
        }
      ],
      "name": "setKernelHash",
      "outputs": [],
      "payable": false,
      "stateMutability": "nonpayable",
      "type": "function"
    },
    {
      "constant": false,
      "inputs": [
        {
          "internalType": "uint256",
          "name": "_kernelHeight",
          "type": "uint256"
        }
      ],
      "name": "getKernelHash",
      "outputs": [
        {
          "internalType": "bytes32",
          "name": "kernelHash_",
          "type": "bytes32"
        }
      ],
      "payable": false,
      "stateMutability": "nonpayable",
      "type": "function"
    }
  ],
  "bytecode": "0x608060405234801561001057600080fd5b5061012e806100206000396000f3fe6080604052348015600f57600080fd5b506004361060465760003560e01c806342bb501214604b578063777b1ac314606d5780639d9ea0f5146085578063a85e8b4614609f575b600080fd5b606b60048036036040811015605f57600080fd5b508035906020013560b9565b005b607360ca565b60408051918252519081900360200190f35b607360048036036020811015609957600080fd5b503560d0565b60736004803603602081101560b357600080fd5b503560e7565b600090815260208190526040902055565b60015481565b600181905560009081526020819052604090205490565b6000602081905290815260409020548156fea265627a7a723158208c8cce295b06c507c71e1e0917162e549e66750e4fe5ddd3553994719e752d9d64736f6c634300050d0032",
  "source": "pragma solidity >=0.5.0 <0.6.0;\n\n// Copyright 2020 OpenST Ltd.\n//\n// Licensed under the Apache License, Version 2.0 (the \"License\");\n// you may not use this file except in compliance with the License.\n// You may obtain a copy of the License at\n//\n//    http://www.apache.org/licenses/LICENSE-2.0\n//\n// Unless required by applicable law or agreed to in writing, software\n// distributed under the License is distributed on an \"AS IS\" BASIS,\n// WITHOUT WARRANTIES OR CONDITIONS OF ANY KIND, either express or implied.\n// See the License for the specific language governing permissions and\n// limitations under the License.\n\nimport \"../../consensus-gateway/ConsensusCogatewayInterface.sol\";\n\ncontract ConsensusCogatewaySpy is ConsensusCogatewayInterface {\n\n    mapping(uint256 => bytes32) public testKernelHashes;\n\n    uint256 public spyKernelHeight;\n\n    /**\n     * @notice Set the kernel hash for a given kernel height. For testing only.\n     */\n    function setKernelHash(\n        bytes32 _kernelHash,\n        uint256 _kernelHeight\n    )\n        external\n    {\n        testKernelHashes[_kernelHeight] = _kernelHash;\n    }\n\n    /**\n     * @notice Get the kernel hash for a given kernel height. For testing only.\n     */\n    function getKernelHash(uint256 _kernelHeight)\n        external\n        returns (bytes32 kernelHash_)\n    {\n        spyKernelHeight = _kernelHeight;\n        return testKernelHashes[_kernelHeight];\n    }\n}\n",
  "sourcePath": "/Users/abhay/Documents/projects/abhayforks/mosaic-1/contracts/test/consensus_gateway/ConsensusCogatewaySpy.sol",
  "compiler": {
    "name": "solc",
    "version": "0.5.13+commit.5b0b510c.Emscripten.clang"
  },
  "schemaVersion": "3.0.17",
  "updatedAt": "2020-03-21T06:48:34.794Z",
  "devdoc": {
    "methods": {}
  },
  "userdoc": {
    "methods": {
      "getKernelHash(uint256)": {
        "notice": "Get the kernel hash for a given kernel height. For testing only."
      },
      "setKernelHash(bytes32,uint256)": {
        "notice": "Set the kernel hash for a given kernel height. For testing only."
      }
    }
  }
}