{
  "contractName": "ConsensusGatewayTest",
  "abi": [
    {
      "anonymous": false,
      "inputs": [
        {
          "indexed": false,
          "internalType": "address",
          "name": "remoteGateway",
          "type": "address"
        },
        {
          "indexed": false,
          "internalType": "uint256",
          "name": "blockNumber",
          "type": "uint256"
        }
      ],
      "name": "GatewayProven",
      "type": "event"
    },
    {
      "constant": true,
      "inputs": [],
      "name": "DEPOSIT_INTENT_TYPEHASH",
      "outputs": [
        {
          "internalType": "bytes32",
          "name": "",
          "type": "bytes32"
        }
      ],
      "payable": false,
      "stateMutability": "view",
      "type": "function"
    },
    {
      "constant": true,
      "inputs": [],
      "name": "DOMAIN_SEPARATOR_VERSION",
      "outputs": [
        {
          "internalType": "string",
          "name": "",
          "type": "string"
        }
      ],
      "payable": false,
      "stateMutability": "view",
      "type": "function"
    },
    {
      "constant": true,
      "inputs": [],
      "name": "INBOX_OFFSET",
      "outputs": [
        {
          "internalType": "uint8",
          "name": "",
          "type": "uint8"
        }
      ],
      "payable": false,
      "stateMutability": "view",
      "type": "function"
    },
    {
      "constant": true,
      "inputs": [],
      "name": "KERNEL_INTENT_TYPEHASH",
      "outputs": [
        {
          "internalType": "bytes32",
          "name": "",
          "type": "bytes32"
        }
      ],
      "payable": false,
      "stateMutability": "view",
      "type": "function"
    },
    {
      "constant": true,
      "inputs": [],
      "name": "MESSAGE_TYPEHASH",
      "outputs": [
        {
          "internalType": "bytes32",
          "name": "",
          "type": "bytes32"
        }
      ],
      "payable": false,
      "stateMutability": "view",
      "type": "function"
    },
    {
      "constant": true,
      "inputs": [],
      "name": "MMB_CHANNEL_TYPEHASH",
      "outputs": [
        {
          "internalType": "bytes32",
          "name": "",
          "type": "bytes32"
        }
      ],
      "payable": false,
      "stateMutability": "view",
      "type": "function"
    },
    {
      "constant": true,
      "inputs": [],
      "name": "MMB_DOMAIN_SEPARATOR_NAME",
      "outputs": [
        {
          "internalType": "string",
          "name": "",
          "type": "string"
        }
      ],
      "payable": false,
      "stateMutability": "view",
      "type": "function"
    },
    {
      "constant": true,
      "inputs": [],
      "name": "MMB_DOMAIN_SEPARATOR_TYPEHASH",
      "outputs": [
        {
          "internalType": "bytes32",
          "name": "",
          "type": "bytes32"
        }
      ],
      "payable": false,
      "stateMutability": "view",
      "type": "function"
    },
    {
      "constant": true,
      "inputs": [],
      "name": "MMB_DOMAIN_SEPARATOR_VERSION",
      "outputs": [
        {
          "internalType": "string",
          "name": "",
          "type": "string"
        }
      ],
      "payable": false,
      "stateMutability": "view",
      "type": "function"
    },
    {
      "constant": true,
      "inputs": [],
      "name": "OUTBOX_OFFSET",
      "outputs": [
        {
          "internalType": "uint8",
          "name": "",
          "type": "uint8"
        }
      ],
      "payable": false,
      "stateMutability": "view",
      "type": "function"
    },
    {
      "constant": true,
      "inputs": [],
      "name": "WITHDRAW_INTENT_TYPEHASH",
      "outputs": [
        {
          "internalType": "bytes32",
          "name": "",
          "type": "bytes32"
        }
      ],
      "payable": false,
      "stateMutability": "view",
      "type": "function"
    },
    {
      "constant": false,
      "inputs": [
        {
          "internalType": "uint256",
          "name": "_amount",
          "type": "uint256"
        },
        {
          "internalType": "address",
          "name": "_beneficiary",
          "type": "address"
        },
        {
          "internalType": "uint256",
          "name": "_feeGasPrice",
          "type": "uint256"
        },
        {
          "internalType": "uint256",
          "name": "_feeGasLimit",
          "type": "uint256"
        },
        {
          "internalType": "address",
          "name": "_withdrawer",
          "type": "address"
        },
        {
          "internalType": "uint256",
          "name": "_blockNumber",
          "type": "uint256"
        },
        {
          "internalType": "bytes",
          "name": "_rlpParentNodes",
          "type": "bytes"
        }
      ],
      "name": "confirmWithdraw",
      "outputs": [
        {
          "internalType": "bytes32",
          "name": "messageHash_",
          "type": "bytes32"
        }
      ],
      "payable": false,
      "stateMutability": "nonpayable",
      "type": "function"
    },
    {
      "constant": true,
      "inputs": [],
      "name": "consensus",
      "outputs": [
        {
          "internalType": "contract ConsensusInterface",
          "name": "",
          "type": "address"
        }
      ],
      "payable": false,
      "stateMutability": "view",
      "type": "function"
    },
    {
      "constant": true,
      "inputs": [],
      "name": "currentMetablockHeight",
      "outputs": [
        {
          "internalType": "uint256",
          "name": "",
          "type": "uint256"
        }
      ],
      "payable": false,
      "stateMutability": "view",
      "type": "function"
    },
    {
      "constant": false,
      "inputs": [
        {
          "internalType": "address",
          "name": "_core",
          "type": "address"
        },
        {
          "internalType": "uint256",
          "name": "_feeGasPrice",
          "type": "uint256"
        },
        {
          "internalType": "uint256",
          "name": "_feeGasLimit",
          "type": "uint256"
        }
      ],
      "name": "declareOpenKernel",
      "outputs": [
        {
          "internalType": "bytes32",
          "name": "messageHash_",
          "type": "bytes32"
        }
      ],
      "payable": false,
      "stateMutability": "nonpayable",
      "type": "function"
    },
    {
      "constant": false,
      "inputs": [
        {
          "internalType": "uint256",
          "name": "_amount",
          "type": "uint256"
        },
        {
          "internalType": "address",
          "name": "_beneficiary",
          "type": "address"
        },
        {
          "internalType": "uint256",
          "name": "_feeGasPrice",
          "type": "uint256"
        },
        {
          "internalType": "uint256",
          "name": "_feeGasLimit",
          "type": "uint256"
        }
      ],
      "name": "deposit",
      "outputs": [
        {
          "internalType": "bytes32",
          "name": "messageHash_",
          "type": "bytes32"
        }
      ],
      "payable": false,
      "stateMutability": "nonpayable",
      "type": "function"
    },
    {
      "constant": true,
      "inputs": [],
      "name": "encodedAccountPath",
      "outputs": [
        {
          "internalType": "bytes",
          "name": "",
          "type": "bytes"
        }
      ],
      "payable": false,
      "stateMutability": "view",
      "type": "function"
    },
    {
      "constant": true,
      "inputs": [],
      "name": "getRemoteGatewayLatestProvenBlockNumber",
      "outputs": [
        {
          "internalType": "uint256",
          "name": "blockNumber_",
          "type": "uint256"
        }
      ],
      "payable": false,
      "stateMutability": "view",
      "type": "function"
    },
    {
      "constant": true,
      "inputs": [
        {
          "internalType": "bytes32",
          "name": "_metachainId",
          "type": "bytes32"
        },
        {
          "internalType": "address",
          "name": "_outbox",
          "type": "address"
        },
        {
          "internalType": "address",
          "name": "_inbox",
          "type": "address"
        }
      ],
      "name": "hashChannelIdentifier",
      "outputs": [
        {
          "internalType": "bytes32",
          "name": "channelIdentifier_",
          "type": "bytes32"
        }
      ],
      "payable": false,
      "stateMutability": "pure",
      "type": "function"
    },
    {
      "constant": true,
      "inputs": [
        {
          "internalType": "address",
          "name": "_valueToken",
          "type": "address"
        },
        {
          "internalType": "uint256",
          "name": "_amount",
          "type": "uint256"
        },
        {
          "internalType": "address",
          "name": "_beneficiary",
          "type": "address"
        }
      ],
      "name": "hashDepositIntent",
      "outputs": [
        {
          "internalType": "bytes32",
          "name": "depositIntentHash_",
          "type": "bytes32"
        }
      ],
      "payable": false,
      "stateMutability": "pure",
      "type": "function"
    },
    {
      "constant": true,
      "inputs": [
        {
          "internalType": "uint256",
          "name": "_height",
          "type": "uint256"
        },
        {
          "internalType": "bytes32",
          "name": "_kernelHash",
          "type": "bytes32"
        }
      ],
      "name": "hashKernelIntent",
      "outputs": [
        {
          "internalType": "bytes32",
          "name": "kernelIntentHash_",
          "type": "bytes32"
        }
      ],
      "payable": false,
      "stateMutability": "pure",
      "type": "function"
    },
    {
      "constant": true,
      "inputs": [
        {
          "internalType": "address",
          "name": "_valueToken",
          "type": "address"
        },
        {
          "internalType": "address",
          "name": "_utilityToken",
          "type": "address"
        },
        {
          "internalType": "uint256",
          "name": "_amount",
          "type": "uint256"
        },
        {
          "internalType": "address",
          "name": "_beneficiary",
          "type": "address"
        }
      ],
      "name": "hashWithdrawIntent",
      "outputs": [
        {
          "internalType": "bytes32",
          "name": "withdrawIntentHash_",
          "type": "bytes32"
        }
      ],
      "payable": false,
      "stateMutability": "pure",
      "type": "function"
    },
    {
      "constant": true,
      "inputs": [],
      "name": "inboundChannelIdentifier",
      "outputs": [
        {
          "internalType": "bytes32",
          "name": "",
          "type": "bytes32"
        }
      ],
      "payable": false,
      "stateMutability": "view",
      "type": "function"
    },
    {
      "constant": true,
      "inputs": [
        {
          "internalType": "bytes32",
          "name": "",
          "type": "bytes32"
        }
      ],
      "name": "inbox",
      "outputs": [
        {
          "internalType": "bool",
          "name": "",
          "type": "bool"
        }
      ],
      "payable": false,
      "stateMutability": "view",
      "type": "function"
    },
    {
      "constant": true,
      "inputs": [
        {
          "internalType": "bytes32",
          "name": "_intentHash",
          "type": "bytes32"
        },
        {
          "internalType": "uint256",
          "name": "_nonce",
          "type": "uint256"
        },
        {
          "internalType": "uint256",
          "name": "_feeGasPrice",
          "type": "uint256"
        },
        {
          "internalType": "uint256",
          "name": "_feeGasLimit",
          "type": "uint256"
        },
        {
          "internalType": "address",
          "name": "_sender",
          "type": "address"
        }
      ],
      "name": "inboxMessageHash",
      "outputs": [
        {
          "internalType": "bytes32",
          "name": "messageHash_",
          "type": "bytes32"
        }
      ],
      "payable": false,
      "stateMutability": "view",
      "type": "function"
    },
    {
      "constant": true,
      "inputs": [
        {
          "internalType": "address",
          "name": "",
          "type": "address"
        }
      ],
      "name": "inboxNonces",
      "outputs": [
        {
          "internalType": "uint256",
          "name": "",
          "type": "uint256"
        }
      ],
      "payable": false,
      "stateMutability": "view",
      "type": "function"
    },
    {
      "constant": true,
      "inputs": [],
      "name": "messageInbox",
      "outputs": [
        {
          "internalType": "address",
          "name": "",
          "type": "address"
        }
      ],
      "payable": false,
      "stateMutability": "view",
      "type": "function"
    },
    {
      "constant": true,
      "inputs": [],
      "name": "messageOutbox",
      "outputs": [
        {
          "internalType": "address",
          "name": "",
          "type": "address"
        }
      ],
      "payable": false,
      "stateMutability": "view",
      "type": "function"
    },
    {
      "constant": true,
      "inputs": [],
      "name": "most",
      "outputs": [
        {
          "internalType": "contract ERC20I",
          "name": "",
          "type": "address"
        }
      ],
      "payable": false,
      "stateMutability": "view",
      "type": "function"
    },
    {
      "constant": true,
      "inputs": [],
      "name": "outboundChannelIdentifier",
      "outputs": [
        {
          "internalType": "bytes32",
          "name": "",
          "type": "bytes32"
        }
      ],
      "payable": false,
      "stateMutability": "view",
      "type": "function"
    },
    {
      "constant": true,
      "inputs": [
        {
          "internalType": "bytes32",
          "name": "",
          "type": "bytes32"
        }
      ],
      "name": "outbox",
      "outputs": [
        {
          "internalType": "bool",
          "name": "",
          "type": "bool"
        }
      ],
      "payable": false,
      "stateMutability": "view",
      "type": "function"
    },
    {
      "constant": true,
      "inputs": [
        {
          "internalType": "bytes32",
          "name": "_intentHash",
          "type": "bytes32"
        },
        {
          "internalType": "uint256",
          "name": "_nonce",
          "type": "uint256"
        },
        {
          "internalType": "uint256",
          "name": "_feeGasPrice",
          "type": "uint256"
        },
        {
          "internalType": "uint256",
          "name": "_feeGasLimit",
          "type": "uint256"
        },
        {
          "internalType": "address",
          "name": "_sender",
          "type": "address"
        }
      ],
      "name": "outboxMessageHash",
      "outputs": [
        {
          "internalType": "bytes32",
          "name": "messageHash_",
          "type": "bytes32"
        }
      ],
      "payable": false,
      "stateMutability": "view",
      "type": "function"
    },
    {
      "constant": true,
      "inputs": [
        {
          "internalType": "address",
          "name": "",
          "type": "address"
        }
      ],
      "name": "outboxNonces",
      "outputs": [
        {
          "internalType": "uint256",
          "name": "",
          "type": "uint256"
        }
      ],
      "payable": false,
      "stateMutability": "view",
      "type": "function"
    },
    {
      "constant": true,
      "inputs": [],
      "name": "outboxStorageIndex",
      "outputs": [
        {
          "internalType": "uint8",
          "name": "",
          "type": "uint8"
        }
      ],
      "payable": false,
      "stateMutability": "view",
      "type": "function"
    },
    {
      "constant": false,
      "inputs": [
        {
          "internalType": "bytes32",
          "name": "_metachainId",
          "type": "bytes32"
        },
        {
          "internalType": "contract ConsensusInterface",
          "name": "_consensus",
          "type": "address"
        },
        {
          "internalType": "contract ERC20I",
          "name": "_most",
          "type": "address"
        },
        {
          "internalType": "address",
          "name": "_consensusCogateway",
          "type": "address"
        },
        {
          "internalType": "uint256",
          "name": "_maxStorageRootItems",
          "type": "uint256"
        },
        {
          "internalType": "uint8",
          "name": "_outboxStorageIndex",
          "type": "uint8"
        }
      ],
      "name": "setup",
      "outputs": [],
      "payable": false,
      "stateMutability": "nonpayable",
      "type": "function"
    },
    {
      "constant": true,
      "inputs": [],
      "name": "stateRootProvider",
      "outputs": [
        {
          "internalType": "contract StateRootInterface",
          "name": "",
          "type": "address"
        }
      ],
      "payable": false,
      "stateMutability": "view",
      "type": "function"
    },
    {
      "constant": true,
      "inputs": [],
      "name": "storageAccount",
      "outputs": [
        {
          "internalType": "address",
          "name": "",
          "type": "address"
        }
      ],
      "payable": false,
      "stateMutability": "view",
      "type": "function"
    },
    {
      "constant": true,
      "inputs": [
        {
          "internalType": "uint256",
          "name": "",
          "type": "uint256"
        }
      ],
      "name": "storageRoots",
      "outputs": [
        {
          "internalType": "bytes32",
          "name": "",
          "type": "bytes32"
        }
      ],
      "payable": false,
      "stateMutability": "view",
      "type": "function"
    },
    {
      "constant": true,
      "inputs": [],
      "name": "utilityToken",
      "outputs": [
        {
          "internalType": "address",
          "name": "",
          "type": "address"
        }
      ],
      "payable": false,
      "stateMutability": "view",
      "type": "function"
    },
    {
      "constant": false,
      "inputs": [
        {
          "internalType": "contract ConsensusInterface",
          "name": "_consensus",
          "type": "address"
        }
      ],
      "name": "setConsensus",
      "outputs": [],
      "payable": false,
      "stateMutability": "nonpayable",
      "type": "function"
    }
  ],
  "bytecode": "0x6080604052601280546001600160a01b031916905534801561002057600080fd5b506131c3806100306000396000f3fe608060405234801561001057600080fd5b50600436106102485760003560e01c8063928a735a1161013b578063d31b5968116100b8578063efefe0eb1161007c578063efefe0eb14610710578063f02a0e9014610718578063f0df1e7314610720578063f732ecff14610728578063fe08d8181461073057610248565b8063d31b59681461066a578063d4d1118514610690578063ddd335eb14610698578063e5acd280146106d6578063efa9c7c91461070857610248565b8063b1c91e21116100ff578063b1c91e21146105e6578063b4907ddc146105e6578063bd362374146105ee578063befce88e1461060b578063c9a29f3c1461062e57610248565b8063928a735a14610592578063965ef01b1461059a5780639f0b7dfe146105a2578063ae640285146105d6578063ae86ed89146105de57610248565b8063523ce242116101c9578063610ebfe21161018d578063610ebfe2146105255780636f0372af146105425780637ddcca171461057a57806385248b8a146105825780638ef3f7611461058a57610248565b8063523ce2421461049857806358d7889c146104c95780635c1dc83a146104d15780635da7560c146104f75780635ecec5641461051d57610248565b806320e1855f1161021057806320e1855f1461040e5780632fe05ad9146104325780633b7f2f191461043a57806346e356b114610442578063506fba061461044a57610248565b806302369ae01461024d57806302de1ba9146102ff57806309bf5f38146103355780630e31eb601461035357806316ad76b814610391575b600080fd5b6102ed600480360360e081101561026357600080fd5b8135916001600160a01b0360208201358116926040830135926060810135926080820135169160a0820135919081019060e0810160c08201356401000000008111156102ae57600080fd5b8201836020820111156102c057600080fd5b803590602001918460018302840111640100000000831117156102e257600080fd5b509092509050610738565b60408051918252519081900360200190f35b6102ed6004803603606081101561031557600080fd5b506001600160a01b03813581169160208101359160409091013516610a91565b61033d610af6565b6040805160ff9092168252519081900360200190f35b6102ed600480360360a081101561036957600080fd5b50803590602081013590604081013590606081013590608001356001600160a01b0316610b06565b610399610b22565b6040805160208082528351818301528351919283929083019185019080838360005b838110156103d35781810151838201526020016103bb565b50505050905090810190601f1680156104005780820380516001836020036101000a031916815260200191505b509250505060405180910390f35b610416610bb0565b604080516001600160a01b039092168252519081900360200190f35b6102ed610bbf565b6102ed610bda565b6102ed610be0565b610496600480360360c081101561046057600080fd5b5080359060208101356001600160a01b039081169160408101358216916060820135169060808101359060a0013560ff16610bfb565b005b6104b5600480360360208110156104ae57600080fd5b5035610ca5565b604080519115158252519081900360200190f35b610416610cba565b6102ed600480360360208110156104e757600080fd5b50356001600160a01b0316610cc9565b6104966004803603602081101561050d57600080fd5b50356001600160a01b0316610cdb565b6102ed610ce7565b6102ed6004803603602081101561053b57600080fd5b5035610ced565b6102ed6004803603608081101561055857600080fd5b508035906001600160a01b036020820135169060408101359060600135610cff565b6102ed610f15565b6102ed610f24565b610416610f3f565b61033d610f4e565b610416610f53565b6102ed600480360360608110156105b857600080fd5b508035906001600160a01b0360208201358116916040013516610f62565b610399611121565b610416611147565b610399611156565b6104b56004803603602081101561060457600080fd5b5035611173565b6102ed6004803603604081101561062157600080fd5b5080359060200135611188565b6102ed6004803603608081101561064457600080fd5b506001600160a01b038135811691602081013582169160408201359160600135166111d7565b6102ed6004803603602081101561068057600080fd5b50356001600160a01b0316611243565b610416611255565b6102ed600480360360a08110156106ae57600080fd5b50803590602081013590604081013590606081013590608001356001600160a01b0316611264565b6102ed600480360360608110156106ec57600080fd5b506001600160a01b038135169060208101359060400135611276565b6102ed611449565b610416611464565b6102ed611473565b6102ed611479565b6102ed611494565b61033d6114af565b6000805a90508961077a5760405162461bcd60e51b8152600401808060200182810382526029815260200180612e616029913960400191505060405180910390fd5b6001600160a01b0389166107bf5760405162461bcd60e51b8152600401808060200182810382526022815260200180612e8a6022913960400191505060405180910390fd5b6001600160a01b0386166108045760405162461bcd60e51b8152600401808060200182810382526021815260200180612fbf6021913960400191505060405180910390fd5b336000908152600e602052604090205461082581600163ffffffff6114b416565b336000908152600e6020526040902055600f5460125461089891610857916001600160a01b0391821691168e8e6111d7565b828b8b8b8b8b8b8080601f0160208091040260200160405190810160405280939291908181526020018383808284376000920191909152506114cf92505050565b925060006108ad5a849063ffffffff6115aa16565b905060006108bc828c8c6115bf565b905060006108d08e8363ffffffff6115aa16565b600f546040805163a9059cbb60e01b81523360048201526024810186905290519293506001600160a01b039091169163a9059cbb916044808201926020929091908290030181600087803b15801561092757600080fd5b505af115801561093b573d6000803e3d6000fd5b505050506040513d602081101561095157600080fd5b50516109a4576040805162461bcd60e51b815260206004820152601d60248201527f526577617264207472616e73666572206d75737420737563636565642e000000604482015290519081900360640190fd5b600f60009054906101000a90046001600160a01b03166001600160a01b031663a9059cbb8e836040518363ffffffff1660e01b815260040180836001600160a01b03166001600160a01b0316815260200182815260200192505050602060405180830381600087803b158015610a1957600080fd5b505af1158015610a2d573d6000803e3d6000fd5b505050506040513d6020811015610a4357600080fd5b5051610a805760405162461bcd60e51b815260040180806020018281038252602f815260200180612f50602f913960400191505060405180910390fd5b505050505098975050505050505050565b60006040518080612f0c60449139604080519182900360440182206020808401919091526001600160a01b03978816838301526060830196909652959093166080808501919091528551808503909101815260a0909301909452508051910120919050565b600d54600160a01b900460ff1681565b6000610b1886868686866002546115fa565b9695505050505050565b6009805460408051602060026001851615610100026000190190941693909304601f81018490048402820184019092528181529291830182828015610ba85780601f10610b7d57610100808354040283529160200191610ba8565b820191906000526020600020905b815481529060010190602001808311610b8b57829003601f168201915b505050505081565b6007546001600160a01b031681565b604051806036612ddf82396036019050604051809103902081565b60105481565b604051806060612eac82396060019050604051809103902081565b610c04856116ad565b610c0f84600061175c565b6000856001600160a01b0316637feb51d9886040518263ffffffff1660e01b815260040180828152602001915050602060405180830381600087803b158015610c5757600080fd5b505af1158015610c6b573d6000803e3d6000fd5b505050506040513d6020811015610c8157600080fd5b50519050610c8f87856117dc565b610c9c8785848487611909565b50505050505050565b60016020526000908152604090205460ff1681565b600f546001600160a01b031681565b600e6020526000908152604090205481565b610ce4816116ad565b50565b600c5481565b600a6020526000908152604090205481565b600084610d3d5760405162461bcd60e51b8152600401808060200182810382526027815260200180612e156027913960400191505060405180910390fd5b6001600160a01b038416610d825760405162461bcd60e51b8152600401808060200182810382526022815260200180612e8a6022913960400191505060405180910390fd5b610d92838363ffffffff611a9116565b8511610dcf5760405162461bcd60e51b8152600401808060200182810382526031815260200180612d266031913960400191505060405180910390fd5b600f54600090610de9906001600160a01b03168787610a91565b33600090815260046020526040902054909150610e0d81600163ffffffff6114b416565b33600081815260046020526040902091909155610e31908390839088908890611ab8565b600f54604080516323b872dd60e01b8152336004820152306024820152604481018b905290519295506001600160a01b03909116916323b872dd916064808201926020929091908290030181600087803b158015610e8e57600080fd5b505af1158015610ea2573d6000803e3d6000fd5b505050506040513d6020811015610eb857600080fd5b5051610f0b576040805162461bcd60e51b815260206004820152601f60248201527f4d4f5354207472616e7366657246726f6d206d75737420737563636565642e00604482015290519081900360640190fd5b5050949350505050565b6000610f1f611b40565b905090565b60405180602f612d578239602f019050604051809103902081565b6011546001600160a01b031681565b600481565b6003546001600160a01b031681565b6000806040518080612ddf60369139604080519182900360360182206020808401919091526001600160a01b0380891684840152871660608085019190915282518085039091018152608090930191829052825192019190912092509050806059612d868239605901905060405180910390206040518060400160405280600a8152602001694d6f736169632d42757360b01b815250604051806040016040528060018152602001600360fc1b8152508784604051602001808681526020018060200180602001858152602001848152602001838103835287818151815260200191508051906020019080838360005b8381101561106a578181015183820152602001611052565b50505050905090810190601f1680156110975780820380516001836020036101000a031916815260200191505b50838103825286518152865160209182019188019080838360005b838110156110ca5781810151838201526020016110b2565b50505050905090810190601f1680156110f75780820380516001836020036101000a031916815260200191505b50975050505050505050604051602081830303815290604052805190602001209150509392505050565b6040518060400160405280600a8152602001694d6f736169632d42757360b01b81525081565b6012546001600160a01b031681565b604051806040016040528060018152602001600360fc1b81525081565b600b6020526000908152604090205460ff1681565b60006040518080612d57602f91396040805191829003602f0182206020808401919091528282019690965260608083019590955280518083039095018552608090910190525050805191012090565b60006040518080613028605a91396040805191829003605a0182206020808401919091526001600160a01b0398891683830152968816606083015260808201959095529590921660a0808701919091528351808703909101815260c09095019092525050815191012090565b60046020526000908152604090205481565b6008546001600160a01b031681565b6000610b188686868686600c546115fa565b6011546000906001600160a01b031633146112c25760405162461bcd60e51b81526004018080602001828103825260338152602001806130826033913960400191505060405180910390fd5b6001600160a01b038416611312576040805162461bcd60e51b815260206004820152601260248201527121b7b9329030b2323932b9b99034b990181760711b604482015290519081900360640190fd5b600080856001600160a01b031663823a89716040518163ffffffff1660e01b81526004016040805180830381600087803b15801561134f57600080fd5b505af1158015611363573d6000803e3d6000fd5b505050506040513d604081101561137957600080fd5b508051602090910151601054919350915061139b90600163ffffffff6114b416565b8114806113a9575060105481145b6113e45760405162461bcd60e51b8152600401808060200182810382526040815260200180612f7f6040913960400191505060405180910390fd5b601081905560006113f58284611188565b3360009081526004602052604090205490915061141981600163ffffffff6114b416565b3360008181526004602052604090209190915561143d90839083908a908a90611ab8565b98975050505050505050565b604051806044612f0c82396044019050604051809103902081565b600d546001600160a01b031681565b60025481565b60405180605a6130288239605a019050604051809103902081565b604051806059612d8682396059019050604051809103902081565b600181565b6000828201838110156114c657600080fd5b90505b92915050565b60006114e18888888888600c546115fa565b6000818152600b602052604090205490915060ff16156115325760405162461bcd60e51b81526004018080602001828103825260248152602001806130f76024913960400191505060405180910390fd5b6000818152600b60205260409020805460ff19166001179055600d5460609061156590600160a01b900460ff1683611b61565b60408051600160f81b602080830191909152825180830360010181526021909201909252805191012090915061159e9082908686611c34565b50979650505050505050565b6000828211156115b957600080fd5b50900390565b6000818411156115e0576115d9838363ffffffff611a9116565b90506115f3565b6115f0838563ffffffff611a9116565b90505b9392505050565b6000806040518080612eac606091396040805191829003606090810183206020808501919091528383019c909c52820199909952608081019790975250505060a08401929092526001600160a01b031660c0808401919091528351808403909101815260e083018452805190850120601960f81b610100840152604d60f81b6101018401526101028301919091526101228083019190915282518083039091018152610142909101909152805191012090565b6011546001600160a01b0316156116f55760405162461bcd60e51b8152600401808060200182810382526025815260200180612e3c6025913960400191505060405180910390fd5b6001600160a01b03811661173a5760405162461bcd60e51b8152600401808060200182810382526023815260200180612fe06023913960400191505060405180910390fd5b601180546001600160a01b0319166001600160a01b0392909216919091179055565b6001600160a01b0382166117b7576040805162461bcd60e51b815260206004820152601b60248201527f6d6f73742061646472657373206d757374206e6f7420626520302e0000000000604482015290519081900360640190fd5b601055600f80546001600160a01b0319166001600160a01b0392909216919091179055565b60025415611831576040805162461bcd60e51b815260206004820181905260248201527f4d657373616765206f7574626f7820697320616c72656164792073657475702e604482015290519081900360640190fd5b81611878576040805162461bcd60e51b815260206004820152601260248201527126b2ba30b1b430b4b71034b21034b990181760711b604482015290519081900360640190fd5b6001600160a01b0381166118d3576040805162461bcd60e51b815260206004820152601b60248201527f4d65737361676520696e626f78206164647265737320697320302e0000000000604482015290519081900360640190fd5b600380546001600160a01b0319166001600160a01b038381169190911791829055611902918491309116610f62565b6002555050565b600c541561195e576040805162461bcd60e51b815260206004820152601f60248201527f4d65737361676520696e626f7820697320616c72656164792073657475702e00604482015290519081900360640190fd5b846119a5576040805162461bcd60e51b815260206004820152601260248201527136b2ba30b1b430b4b71034b21034b990181760711b604482015290519081900360640190fd5b6001600160a01b0384166119f7576040805162461bcd60e51b815260206004820152601460248201527327baba3137bc1030b2323932b9b99034b990181760611b604482015290519081900360640190fd5b6001600160a01b038216611a3c5760405162461bcd60e51b81526004018080602001828103825260218152602001806130d66021913960400191505060405180910390fd5b600d80546001600160a01b0319166001600160a01b038681169190911760ff60a01b1916600160a01b60ff8716021791829055611a7c9187911630610f62565b600c55611a8a848383611d2f565b5050505050565b600082611aa0575060006114c9565b82820282848281611aad57fe5b04146114c657600080fd5b6000611aca86868686866002546115fa565b60008181526001602052604090205490915060ff1615611b1b5760405162461bcd60e51b81526004018080602001828103825260258152602001806130036025913960400191505060405180910390fd5b6000818152600160208190526040909120805460ff1916909117905595945050505050565b6000600560065481548110611b5157fe5b9060005260206000200154905090565b606080611b78611b7360ff8616611eba565b611ee4565b90506060611b88611b7385611eba565b90506060611b968284611f1f565b9050610b18816040516020018082805190602001908083835b60208310611bce5780518252601f199092019160209182019101611baf565b6001836020036101000a038019825116818451168082178552505050505050905001915050604051602081830303815290604052805190602001206040516020018082815260200191505060405160208183030381529060405280519060200120611eba565b8051611c87576040805162461bcd60e51b815260206004820181905260248201527f4c656e677468206f6620524c5020706172656e74206e6f64657320697320302e604482015290519081900360640190fd5b6000828152600a602052604090205480611ce8576040805162461bcd60e51b815260206004820152601d60248201527f53746f7261676520726f6f74206d757374206e6f74206265207a65726f000000604482015290519081900360640190fd5b611cf484868484611f97565b611a8a5760405162461bcd60e51b81526004018080602001828103825260218152602001806130b56021913960400191505060405180910390fd5b6008546001600160a01b031615611d86576040805162461bcd60e51b815260206004820152601660248201527529b2ba3ab81034b99030b63932b0b23c903237b7329760511b604482015290519081900360640190fd5b6001600160a01b038316611de1576040805162461bcd60e51b815260206004820152601d60248201527f53746f72616765206163636f756e74206164647265737320697320302e000000604482015290519081900360640190fd5b6001600160a01b038216611e265760405162461bcd60e51b81526004018080602001828103825260218152602001806130d66021913960400191505060405180910390fd5b611e2f81612316565b600780546001600160a01b038086166001600160a01b0319928316179092556008805492851692909116919091179055604080516bffffffffffffffffffffffff19606086901b166020808301919091528251808303601401815260349092019092528051910120611ea090611eba565b8051611eb491600991602090910190612c27565b50505050565b60408051602080825281830190925260609160208201818038833950505060208101929092525090565b60608082516020036040519080825280601f01601f191660200182016040528015611f16576020820181803883390190505b5090506115f381845b60606040519050825180825260208201818101602086015b81831015611f4f578051835260209283019201611f37565b50845184518101855292509050808201602085015b81831015611f7c578051835260209283019201611f64565b50601f19601f87518501158301011660405250505092915050565b6000611fa1612ca5565b611faa846123a4565b90506060611fb7826123ed565b905060608085600082611fc98b61249f565b9050805160001415611fe557600097505050505050505061230e565b60005b865181101561230557815183111561200b5760009850505050505050505061230e565b61202787828151811061201a57fe5b602002602001015161251a565b9550856040516020018082805190602001908083835b6020831061205c5780518252601f19909201916020918201910161203d565b6001836020036101000a0380198251168184511680821785525050505050509050019150506040516020818303038152906040528051906020012084146120ae5760009850505050505050505061230e565b6120ca8782815181106120bd57fe5b60200260200101516123ed565b94508451601114156121e5578151831415612185578c6120f08660108151811061201a57fe5b6040516020018082805190602001908083835b602083106121225780518252601f199092019160209182019101612103565b6001836020036101000a0380198251168184511680821785525050505050509050019150506040516020818303038152906040528051906020012014156121745760019850505050505050505061230e565b60009850505050505050505061230e565b600082848151811061219357fe5b016020015160f81c905060108111156121b8576000995050505050505050505061230e565b6121d7868260ff16815181106121ca57fe5b602002602001015161256a565b9450600184019350506122fd565b8451600214156121745760006122186122118760008151811061220457fe5b6020026020010151612575565b84866125da565b9050825181850114156122cd578d6122368760018151811061220457fe5b6040516020018082805190602001908083835b602083106122685780518252601f199092019160209182019101612249565b6001836020036101000a0380198251168184511680821785525050505050509050019150506040516020818303038152906040528051906020012014156122bb576001995050505050505050505061230e565b6000995050505050505050505061230e565b806122e4576000995050505050505050505061230e565b80840193506122f9866001815181106121ca57fe5b9450505b600101611fe8565b50505050505050505b949350505050565b600081116123555760405162461bcd60e51b815260040180806020018281038252604d815260200180613142604d913960600191505060405180910390fd5b600554156123945760405162461bcd60e51b815260040180806020018281038252602781526020018061311b6027913960400191505060405180910390fd5b806123a0600582612cbf565b5050565b6123ac612ca5565b8151806123ce57505060408051808201909152600080825260208201526123e8565b604080518082019091526020848101825281019190915290505b919050565b60606123f88261276b565b61240157600080fd5b600061240c83612792565b90508060405190808252806020026020018201604052801561244857816020015b612435612ca5565b81526020019060019003908161242d5790505b509150612453612ce8565b61245c846127ec565b905060005b61246a82612823565b156124975761247882612842565b84828151811061248457fe5b6020908102919091010152600101612461565b505050919050565b606081516002026040519080825280601f01601f1916602001820160405280156124d0576020820181803883390190505b50905060005b8151811015612514576124e98184612886565b8282815181106124f557fe5b60200101906001600160f81b031916908160001a9053506001016124d6565b50919050565b60208101516060908061252d57506123e8565b806040519080825280601f01601f191660200182016040528015612558576020820181803883390190505b509150612514836000015183836128e3565b60006114c98261290a565b60606125808261295a565b61258957600080fd5b60008061259584612980565b60408051828152601f19601f840116810160200190915291935091508180156125c5576020820181803883390190505b5092506125d38284836128e3565b5050919050565b600060606125e7856129f0565b9050606081516040519080825280601f01601f191660200182016040528015612617576020820181803883390190505b509050835b8251850181101561267157600086828151811061263557fe5b602001015160f81c60f81b905080838784038151811061265157fe5b60200101906001600160f81b031916908160001a9053505060010161261c565b50806040516020018082805190602001908083835b602083106126a55780518252601f199092019160209182019101612686565b6001836020036101000a03801982511681845116808217855250505050505090500191505060405160208183030381529060405280519060200120826040516020018082805190602001908083835b602083106127135780518252601f1990920191602091820191016126f4565b6001836020036101000a03801982511681845116808217855250505050505090500191505060405160208183030381529060405280519060200120141561275d5781519250612762565b600092505b50509392505050565b6000816020015160001415612782575060006123e8565b50515160c060009190911a101590565b600061279d8261276b565b6127a9575060006123e8565b81518051600090811a91906127bd85612b1c565b6020860151908301915082016000190160005b818311610b18576127e083612b9a565b909201916001016127d0565b6127f4612ce8565b6127fd8261276b565b61280657600080fd5b600061281183612b1c565b83519383529092016020820152919050565b600061282d612ca5565b50508051602080820151915192015191011190565b61284a612ca5565b61285382612823565b61285c57600080fd5b6020820151600061286c82612b9a565b828452602080850182905292019390910192909252919050565b600060028306156128b75760108260028504815181106128a257fe5b016020015160f81c816128b157fe5b066128d9565b60108260028504815181106128c857fe5b016020015160f81c816128d757fe5b045b60f81b9392505050565b6000601f820184602085015b82841015610c9c5783820151848201526020840193506128ef565b60006129158261295a565b61291e57600080fd5b60008061292a84612980565b9092509050602081118061293c575080155b1561294657600080fd5b806020036101000a82510492505050919050565b6000816020015160001415612971575060006123e8565b50515160c060009190911a1090565b60008061298c8361295a565b61299557600080fd5b8251805160001a9060808210156129b3579250600191506129eb9050565b60b88210156129d157600185602001510392508060010193506129e8565b602085015182820160b51901945082900360b60192505b50505b915091565b8051606090156123e857600080612a08600085612886565b60f81c90506001811480612a1f57508060ff166003145b15612a975760018451600202036040519080825280601f01601f191660200182016040528015612a56576020820181803883390190505b5092506000612a66600186612886565b90508084600081518110612a7657fe5b60200101906001600160f81b031916908160001a9053506001925050612ad1565b60028451600202036040519080825280601f01601f191660200182016040528015612ac9576020820181803883390190505b509250600091505b60ff82165b835181101561249757612af18360ff16820360020186612886565b848281518110612afd57fe5b60200101906001600160f81b031916908160001a905350600101612ad6565b6000816020015160001415612b33575060006123e8565b8151805160001a906080821015612b4f576000925050506123e8565b60b8821080612b6a575060c08210158015612b6a575060f882105b15612b7a576001925050506123e8565b60c0821015612b8f575060b5190190506123e8565b5060f5190192915050565b8051600090811a6080811015612bb35760019150612514565b60b8811015612bc857607e1981019150612514565b60c0811015612bf157600183015160b76020839003016101000a9004810160b519019150612514565b60f8811015612c065760be1981019150612514565b6001929092015160f76020849003016101000a900490910160f51901919050565b828054600181600116156101000203166002900490600052602060002090601f016020900481019282601f10612c6857805160ff1916838001178555612c95565b82800160010185558215612c95579182015b82811115612c95578251825591602001919060010190612c7a565b50612ca1929150612d08565b5090565b604051806040016040528060008152602001600081525090565b815481835581811115612ce357600083815260209020612ce3918101908301612d08565b505050565b6040518060400160405280612cfb612ca5565b8152602001600081525090565b612d2291905b80821115612ca15760008155600101612d0e565b9056fe4465706f73697420616d6f756e742073686f756c642062652067726561746572207468616e206d6178207265776172642e4b65726e656c496e74656e742875696e74323536206865696768742c62797465733332206b65726e656c48617368294d6f736169634d65737361676542757328737472696e67206e616d652c737472696e672076657273696f6e2c62797465733332206d657461636861696e49642c62797465733332206368616e6e656c536570617261746f72294d6f736169634d6573736167654275734368616e6e656c2861646472657373206f7574626f782c206164647265737320696e626f78294465706f73697420616d6f756e742073686f756c642062652067726561746572207468616e2030436f6e73656e737573206164647265737320697320616c72656164792070726573656e742e576974686472617720616d6f756e742073686f756c642062652067726561746572207468616e20302e42656e65666963696172792061646472657373206d757374206e6f7420626520302e4d657373616765286279746573333220696e74656e74486173682c75696e74323536206e6f6e63652c75696e743235362066656547617350726963652c75696e74323536206665654761734c696d69742c616464726573732073656e646572294465706f736974496e74656e7428616464726573732076616c7565546f6b656e2c75696e7432353620616d6f756e742c616464726573732062656e656669636961727929546f6b656e207472616e7366657220746f207468652062656e6566696369617279206d75737420737563636565642e4b65726e656c2063616e206265206f70656e65642061742073616d6520686569676874206f722063757272656e744d657461626c6f636b4865696768742b312e576974686472617765722061646472657373206d757374206e6f7420626520302e436f6e73656e7375732061646472657373206d757374206e6f74206265206e756c6c2e4d65737361676520616c72656164792065786973747320696e20746865206f7574626f782e5769746864726177496e74656e7428616464726573732076616c7565546f6b656e2c61646472657373207574696c697479546f6b656e2c75696e7432353620616d6f756e742c616464726573732062656e6566696369617279294f6e6c792074686520636f6e73656e73757320636f6e74726163742063616e2063616c6c20746869732066756e6374696f6e2e4d65726b6c652070726f6f6620766572696669636174696f6e206661696c65642e537461746520726f6f742070726f7669646572206164647265737320697320302e4d65737361676520616c72656164792065786973747320696e2074686520696e626f782e43697263756c6172206275666665722073697a652063616e206265207365747570206f6e63652e546865206d6178206e756d626572206f66206974656d7320746f2073746f726520696e20612063697263756c617220627566666572206d7573742062652067726561746572207468616e20302ea265627a7a7231582047b3e8a6d9ec19147d623308897651c50afc315dae6c2b78434132f6cb18a4e564736f6c634300050d0032",
  "source": "pragma solidity >=0.5.0 <0.6.0;\n\n// Copyright 2019 OpenST Ltd.\n//\n// Licensed under the Apache License, Version 2.0 (the \"License\");\n// you may not use this file except in compliance with the License.\n// You may obtain a copy of the License at\n//\n//    http://www.apache.org/licenses/LICENSE-2.0\n//\n// Unless required by applicable law or agreed to in writing, software\n// distributed under the License is distributed on an \"AS IS\" BASIS,\n// WITHOUT WARRANTIES OR CONDITIONS OF ANY KIND, either express or implied.\n// See the License for the specific language governing permissions and\n// limitations under the License.\n\nimport \"../../consensus-gateway/ConsensusGateway.sol\";\n\ncontract ConsensusGatewayTest is ConsensusGateway {\n\n    function setConsensus(\n        ConsensusInterface _consensus\n    )\n        external\n    {\n        ConsensusModule.setupConsensus(\n            ConsensusInterface(_consensus)\n        );\n    }\n}\n",
  "sourcePath": "/Users/abhay/Documents/projects/abhayforks/mosaic-1/contracts/test/consensus_gateway/ConsensusGatewayTest.sol",
  "compiler": {
    "name": "solc",
    "version": "0.5.13+commit.5b0b510c.Emscripten.clang"
  },
  "schemaVersion": "3.0.17",
  "updatedAt": "2020-03-21T06:48:34.797Z",
  "devdoc": {
    "methods": {
      "confirmWithdraw(uint256,address,uint256,uint256,address,uint256,bytes)": {
        "params": {
          "_amount": "MOST token amount for withdrawal",
          "_beneficiary": "Address of beneficiary where tokens will be withdrawn.",
          "_blockNumber": "Block number of Aux chain against which storage proof is generated.",
          "_feeGasLimit": "Gas limit at which fee will be capped.",
          "_feeGasPrice": "Gas price at which fee will be calculated.",
          "_rlpParentNodes": "Storage merkle proof to verify message declaration on the origin chain.",
          "_withdrawer": "Address of the withdrawer account."
        },
        "return": "messageHash_ Message Hash     * \\pre `_amount` is not 0. \\pre `_beneficiary` address is not 0. \\pre `_withdrawer` address is not 0. \\pre `_rlpParentNodes` is not 0     * \\post Adds a new entry in `inbox` mapping storage variable. The value is      set as `true` for `messagehash_` in `inbox` mapping. The      `messageHash_` is calculated by `MessageInbox.confirmMessage`. \\post Update the MessageInbox.inboxNonces storage mapping variable by      incrementing the value for `msg.sender` by one. \\post Transfers the `most` token to the `msg.sender` address as a fees.      The `fees` amount is calculated by `ERC20GatewayBase::reward()` \\post Transfer the `most` token to the `_beneficiary` address. The      transfer amount calculated as `_amount-fees`"
      },
      "declareOpenKernel(address,uint256,uint256)": {
        "details": "In case of chain halting when new Core is created, then new kernel     can be opened at the same height.     In normal cases, since this function is called by consensus, we can     trust that same height will not be passed.     *      Function requires:         - Only consensus can call         - Core address should not be 0         - Either Kernel height should equal currentMetablockHeight plus           one or kernel can be opened at same height in case of chain           halting.",
        "params": {
          "_core": "Core contract address.",
          "_feeGasLimit": "Fee gas limit.",
          "_feeGasPrice": "Fee gas price."
        },
        "return": "messageHash_ Message hash."
      },
      "deposit(uint256,address,uint256,uint256)": {
        "params": {
          "_amount": "MOST token deposit amount in atto.",
          "_beneficiary": "Address of beneficiary on auxiliary chain.",
          "_feeGasLimit": "Fee gas limit at which rewards will be calculated.",
          "_feeGasPrice": "Fee gas price at which rewards will be calculated."
        },
        "return": "messageHash_ Message hash."
      },
      "getRemoteGatewayLatestProvenBlockNumber()": {
        "return": "blockNumber_ Remote gateway latest proven block number."
      },
      "hashChannelIdentifier(bytes32,address,address)": {
        "params": {
          "_inbox": "Inbox address.",
          "_metachainId": "Metachain identifier.",
          "_outbox": "Outbox address."
        }
      },
      "hashDepositIntent(address,uint256,address)": {
        "params": {
          "_amount": "Amount of tokens.",
          "_beneficiary": "Beneficiary address.",
          "_valueToken": "Value token Address."
        },
        "return": "depositIntentHash_ Hash of deposit intent."
      },
      "hashKernelIntent(uint256,bytes32)": {
        "params": {
          "_height": "Height of metablock.",
          "_kernelHash": "Hash of kernel at given height."
        },
        "return": "kernelIntentHash_ Kernel intent hash."
      },
      "hashWithdrawIntent(address,address,uint256,address)": {
        "params": {
          "_amount": "Amount of tokens.",
          "_beneficiary": "Beneficiary address.",
          "_utilityToken": "Utility token address.",
          "_valueToken": "Value token address."
        },
        "return": "withdrawIntentHash_ Hash of withdraw intent."
      },
      "inboxMessageHash(bytes32,uint256,uint256,uint256,address)": {
        "params": {
          "_feeGasLimit": "Fee gas limit.",
          "_feeGasPrice": "Fee gas price.",
          "_intentHash": "Intent hash of message.",
          "_nonce": "Nonce of sender.",
          "_sender": "Sender address."
        },
        "return": "messageHash_ Message hash."
      },
      "outboxMessageHash(bytes32,uint256,uint256,uint256,address)": {
        "params": {
          "_feeGasLimit": "Fee gas limit.",
          "_feeGasPrice": "Fee gas price.",
          "_intentHash": "Intent hash of message.",
          "_nonce": "Nonce of sender.",
          "_sender": "Sender address."
        },
        "return": "messageHash_ Message hash."
      },
      "setup(bytes32,address,address,address,uint256,uint8)": {
        "details": "- Function can only be called once is ensured by setup function of       message box.     - Validations for input parameters are done in message box setup method.",
        "params": {
          "_consensus": "Address of consensus contract.",
          "_consensusCogateway": "Address of consensus cogateway contract.",
          "_maxStorageRootItems": "Maximum number of storage roots stored.",
          "_metachainId": "Metachain Id",
          "_most": "Address of MOST contract.",
          "_outboxStorageIndex": "Outbox storage index of consensus cogateway."
        }
      }
    }
  },
  "userdoc": {
    "methods": {
      "confirmWithdraw(uint256,address,uint256,uint256,address,uint256,bytes)": {
        "notice": "Confirm withdraw in order to transfer most."
      },
      "declareOpenKernel(address,uint256,uint256)": {
        "notice": "Function to declare open kernel in consensus gateway."
      },
      "deposit(uint256,address,uint256,uint256)": {
        "notice": "Deposit funds to mint on auxiliary chain. Depositor needs to        approve this contract with the deposit amount."
      },
      "getRemoteGatewayLatestProvenBlockNumber()": {
        "notice": "Gets the remote gateway latest proven block number."
      },
      "hashChannelIdentifier(bytes32,address,address)": {
        "notice": "Generate channel identifier hash from the input params"
      },
      "hashDepositIntent(address,uint256,address)": {
        "notice": "It returns hash of deposit intent."
      },
      "hashKernelIntent(uint256,bytes32)": {
        "notice": "Creates kernel intent hash."
      },
      "hashWithdrawIntent(address,address,uint256,address)": {
        "notice": "It returns hash of withdraw intent."
      },
      "inboxMessageHash(bytes32,uint256,uint256,uint256,address)": {
        "notice": "Generate inbox message hash from the input params"
      },
      "outboxMessageHash(bytes32,uint256,uint256,uint256,address)": {
        "notice": "Generate outbox message hash from the input params"
      },
      "setup(bytes32,address,address,address,uint256,uint8)": {
        "notice": "Setup function for consensus gateway."
      }
    }
  }
}