{
  "contractName": "ConsensusModule",
  "abi": [
    {
      "constant": true,
      "inputs": [],
      "name": "consensus",
      "outputs": [
        {
          "internalType": "contract ConsensusInterface",
          "name": "",
          "type": "address"
        }
      ],
      "payable": false,
      "stateMutability": "view",
      "type": "function"
    }
  ],
  "bytecode": "0x6080604052348015600f57600080fd5b5060938061001e6000396000f3fe6080604052348015600f57600080fd5b506004361060285760003560e01c80638ef3f76114602d575b600080fd5b6033604f565b604080516001600160a01b039092168252519081900360200190f35b6000546001600160a01b03168156fea265627a7a7231582014d25424dcc906967ecf418dd2afe2081a55347d9395472ac6fbe1fb62aa6b9e64736f6c634300050d0032",
  "source": "pragma solidity >=0.5.0 <0.6.0;\n\n// Copyright 2019 OpenST Ltd.\n//\n// Licensed under the Apache License, Version 2.0 (the \"License\");\n// you may not use this file except in compliance with the License.\n// You may obtain a copy of the License at\n//\n//    http://www.apache.org/licenses/LICENSE-2.0\n//\n// Unless required by applicable law or agreed to in writing, software\n// distributed under the License is distributed on an \"AS IS\" BASIS,\n// WITHOUT WARRANTIES OR CONDITIONS OF ANY KIND, either express or implied.\n// See the License for the specific language governing permissions and\n// limitations under the License.\n\nimport \"./ConsensusInterface.sol\";\n\ncontract ConsensusModule {\n\n    /** Consensus contract for which this committee was formed. */\n    ConsensusInterface public consensus;\n\n    /**\n     * @notice It sets address for consensus contract.\n     * @param _consensus Address of consensus contract.\n     */\n    function setupConsensus(ConsensusInterface _consensus) internal {\n        require(\n            address(consensus) == address(0),\n            \"Consensus address is already present.\"\n        );\n        require(\n            address(_consensus) != address(0),\n            \"Consensus address must not be null.\"\n        );\n        consensus = _consensus;\n    }\n\n    modifier onlyConsensus()\n    {\n        require(\n            msg.sender == address(consensus),\n            \"Only the consensus contract can call this function.\"\n        );\n\n        _;\n    }\n}\n",
  "sourcePath": "/Users/abhay/Documents/projects/abhayforks/mosaic-1/contracts/consensus/ConsensusModule.sol",
  "compiler": {
    "name": "solc",
    "version": "0.5.13+commit.5b0b510c.Emscripten.clang"
  },
  "schemaVersion": "3.0.17",
  "updatedAt": "2020-03-21T06:48:34.675Z",
  "devdoc": {
    "methods": {}
  },
  "userdoc": {
    "methods": {}
  }
}