{
  "contractName": "Consensus",
  "abi": [
    {
      "anonymous": false,
      "inputs": [
        {
          "indexed": false,
          "internalType": "address",
          "name": "core",
          "type": "address"
        },
        {
          "indexed": false,
          "internalType": "bytes32",
          "name": "metachainId",
          "type": "bytes32"
        },
        {
          "indexed": false,
          "internalType": "uint256",
          "name": "minValidators",
          "type": "uint256"
        },
        {
          "indexed": false,
          "internalType": "uint256",
          "name": "maxValidators",
          "type": "uint256"
        },
        {
          "indexed": false,
          "internalType": "uint256",
          "name": "gasTarget",
          "type": "uint256"
        }
      ],
      "name": "CoreCreated",
      "type": "event"
    },
    {
      "anonymous": false,
      "inputs": [
        {
          "indexed": false,
          "internalType": "address",
          "name": "core",
          "type": "address"
        },
        {
          "indexed": false,
          "internalType": "uint256",
          "name": "coreLifetime",
          "type": "uint256"
        }
      ],
      "name": "CoreLifetimeUpdated",
      "type": "event"
    },
    {
      "anonymous": false,
      "inputs": [
        {
          "indexed": false,
          "internalType": "bytes32",
          "name": "metachainId",
          "type": "bytes32"
        },
        {
          "indexed": false,
          "internalType": "address",
          "name": "core",
          "type": "address"
        },
        {
          "indexed": false,
          "internalType": "address",
          "name": "validator",
          "type": "address"
        },
        {
          "indexed": false,
          "internalType": "string",
          "name": "service",
          "type": "string"
        },
        {
          "indexed": false,
          "internalType": "string",
          "name": "endpoint",
          "type": "string"
        }
      ],
      "name": "EndpointPublished",
      "type": "event"
    },
    {
      "anonymous": false,
      "inputs": [
        {
          "indexed": false,
          "internalType": "bytes32",
          "name": "kernelHash",
          "type": "bytes32"
        },
        {
          "indexed": false,
          "internalType": "address",
          "name": "core",
          "type": "address"
        },
        {
          "indexed": false,
          "internalType": "bytes32",
          "name": "metachainId",
          "type": "bytes32"
        },
        {
          "indexed": false,
          "internalType": "bytes32",
          "name": "metablockHash",
          "type": "bytes32"
        }
      ],
      "name": "MetablockCommitted",
      "type": "event"
    },
    {
      "anonymous": false,
      "inputs": [
        {
          "indexed": false,
          "internalType": "address",
          "name": "committee",
          "type": "address"
        },
        {
          "indexed": false,
          "internalType": "bytes32",
          "name": "metablockHash",
          "type": "bytes32"
        },
        {
          "indexed": false,
          "internalType": "bytes32",
          "name": "metachainId",
          "type": "bytes32"
        },
        {
          "indexed": false,
          "internalType": "uint256",
          "name": "size",
          "type": "uint256"
        },
        {
          "indexed": false,
          "internalType": "bytes32",
          "name": "decision",
          "type": "bytes32"
        }
      ],
      "name": "MetablockCommitteeDecided",
      "type": "event"
    },
    {
      "anonymous": false,
      "inputs": [
        {
          "indexed": false,
          "internalType": "address",
          "name": "committee",
          "type": "address"
        },
        {
          "indexed": false,
          "internalType": "bytes32",
          "name": "metablockHash",
          "type": "bytes32"
        },
        {
          "indexed": false,
          "internalType": "bytes32",
          "name": "metachainId",
          "type": "bytes32"
        },
        {
          "indexed": false,
          "internalType": "uint256",
          "name": "formationHeight",
          "type": "uint256"
        },
        {
          "indexed": false,
          "internalType": "uint256",
          "name": "size",
          "type": "uint256"
        }
      ],
      "name": "MetablockCommitteeFormed",
      "type": "event"
    },
    {
      "anonymous": false,
      "inputs": [
        {
          "indexed": false,
          "internalType": "bytes32",
          "name": "metablockHash",
          "type": "bytes32"
        },
        {
          "indexed": false,
          "internalType": "bytes32",
          "name": "metachainId",
          "type": "bytes32"
        },
        {
          "indexed": false,
          "internalType": "uint256",
          "name": "metablockHeight",
          "type": "uint256"
        },
        {
          "indexed": false,
          "internalType": "uint256",
          "name": "roundMetablockNumber",
          "type": "uint256"
        }
      ],
      "name": "MetablockPrecommitted",
      "type": "event"
    },
    {
      "anonymous": false,
      "inputs": [
        {
          "indexed": false,
          "internalType": "address",
          "name": "validator",
          "type": "address"
        },
        {
          "indexed": false,
          "internalType": "address",
          "name": "core",
          "type": "address"
        },
        {
          "indexed": false,
          "internalType": "uint256",
          "name": "beginHeight",
          "type": "uint256"
        },
        {
          "indexed": false,
          "internalType": "uint256",
          "name": "reputation",
          "type": "uint256"
        }
      ],
      "name": "ValidatorJoined",
      "type": "event"
    },
    {
      "anonymous": false,
      "inputs": [
        {
          "indexed": false,
          "internalType": "address",
          "name": "validator",
          "type": "address"
        },
        {
          "indexed": false,
          "internalType": "uint256",
          "name": "endHeight",
          "type": "uint256"
        },
        {
          "indexed": false,
          "internalType": "uint256",
          "name": "withdrawalBlockHeight",
          "type": "uint256"
        }
      ],
      "name": "ValidatorLoggedOut",
      "type": "event"
    },
    {
      "constant": true,
      "inputs": [],
      "name": "ANCHOR_MAX_STATE_ROOTS",
      "outputs": [
        {
          "internalType": "uint256",
          "name": "",
          "type": "uint256"
        }
      ],
      "payable": false,
      "stateMutability": "view",
      "type": "function"
    },
    {
      "constant": true,
      "inputs": [],
      "name": "ANCHOR_SETUP_CALLPREFIX",
      "outputs": [
        {
          "internalType": "bytes4",
          "name": "",
          "type": "bytes4"
        }
      ],
      "payable": false,
      "stateMutability": "view",
      "type": "function"
    },
    {
      "constant": true,
      "inputs": [],
      "name": "COMMITTEE_FORMATION_DELAY",
      "outputs": [
        {
          "internalType": "uint256",
          "name": "",
          "type": "uint256"
        }
      ],
      "payable": false,
      "stateMutability": "view",
      "type": "function"
    },
    {
      "constant": true,
      "inputs": [],
      "name": "COMMITTEE_FORMATION_LENGTH",
      "outputs": [
        {
          "internalType": "uint256",
          "name": "",
          "type": "uint256"
        }
      ],
      "payable": false,
      "stateMutability": "view",
      "type": "function"
    },
    {
      "constant": true,
      "inputs": [],
      "name": "COMMITTEE_SETUP_CALLPREFIX",
      "outputs": [
        {
          "internalType": "bytes4",
          "name": "",
          "type": "bytes4"
        }
      ],
      "payable": false,
      "stateMutability": "view",
      "type": "function"
    },
    {
      "constant": true,
      "inputs": [],
      "name": "CONSENSUS_GATEWAY_SETUP_CALL_PREFIX",
      "outputs": [
        {
          "internalType": "bytes4",
          "name": "",
          "type": "bytes4"
        }
      ],
      "payable": false,
      "stateMutability": "view",
      "type": "function"
    },
    {
      "constant": true,
      "inputs": [],
      "name": "CORE_SETUP_CALLPREFIX",
      "outputs": [
        {
          "internalType": "bytes4",
          "name": "",
          "type": "bytes4"
        }
      ],
      "payable": false,
      "stateMutability": "view",
      "type": "function"
    },
    {
      "constant": true,
      "inputs": [],
      "name": "DOMAIN_SEPARATOR_VERSION",
      "outputs": [
        {
          "internalType": "string",
          "name": "",
          "type": "string"
        }
      ],
      "payable": false,
      "stateMutability": "view",
      "type": "function"
    },
    {
      "constant": true,
      "inputs": [],
      "name": "EPOCH_LENGTH",
      "outputs": [
        {
          "internalType": "uint256",
          "name": "",
          "type": "uint256"
        }
      ],
      "payable": false,
      "stateMutability": "view",
      "type": "function"
    },
    {
      "constant": true,
      "inputs": [],
      "name": "MAX_COINBASE_SPLIT_PER_MILLE",
      "outputs": [
        {
          "internalType": "uint256",
          "name": "",
          "type": "uint256"
        }
      ],
      "payable": false,
      "stateMutability": "view",
      "type": "function"
    },
    {
      "constant": true,
      "inputs": [],
      "name": "METACHAIN_ID_TYPEHASH",
      "outputs": [
        {
          "internalType": "bytes32",
          "name": "",
          "type": "bytes32"
        }
      ],
      "payable": false,
      "stateMutability": "view",
      "type": "function"
    },
    {
      "constant": true,
      "inputs": [],
      "name": "MIN_REQUIRED_VALIDATORS",
      "outputs": [
        {
          "internalType": "uint256",
          "name": "",
          "type": "uint256"
        }
      ],
      "payable": false,
      "stateMutability": "view",
      "type": "function"
    },
    {
      "constant": true,
      "inputs": [],
      "name": "MOSAIC_DOMAIN_SEPARATOR_NAME",
      "outputs": [
        {
          "internalType": "string",
          "name": "",
          "type": "string"
        }
      ],
      "payable": false,
      "stateMutability": "view",
      "type": "function"
    },
    {
      "constant": true,
      "inputs": [],
      "name": "MOSAIC_DOMAIN_SEPARATOR_TYPEHASH",
      "outputs": [
        {
          "internalType": "bytes32",
          "name": "",
          "type": "bytes32"
        }
      ],
      "payable": false,
      "stateMutability": "view",
      "type": "function"
    },
    {
      "constant": true,
      "inputs": [
        {
          "internalType": "bytes32",
          "name": "",
          "type": "bytes32"
        }
      ],
      "name": "anchors",
      "outputs": [
        {
          "internalType": "contract AnchorInterface",
          "name": "",
          "type": "address"
        }
      ],
      "payable": false,
      "stateMutability": "view",
      "type": "function"
    },
    {
      "constant": true,
      "inputs": [
        {
          "internalType": "bytes32",
          "name": "",
          "type": "bytes32"
        }
      ],
      "name": "assignments",
      "outputs": [
        {
          "internalType": "contract CoreInterface",
          "name": "",
          "type": "address"
        }
      ],
      "payable": false,
      "stateMutability": "view",
      "type": "function"
    },
    {
      "constant": true,
      "inputs": [],
      "name": "axiom",
      "outputs": [
        {
          "internalType": "contract AxiomInterface",
          "name": "",
          "type": "address"
        }
      ],
      "payable": false,
      "stateMutability": "view",
      "type": "function"
    },
    {
      "constant": true,
      "inputs": [],
      "name": "coinbaseSplitPerMille",
      "outputs": [
        {
          "internalType": "uint256",
          "name": "",
          "type": "uint256"
        }
      ],
      "payable": false,
      "stateMutability": "view",
      "type": "function"
    },
    {
      "constant": true,
      "inputs": [],
      "name": "committeeSize",
      "outputs": [
        {
          "internalType": "uint256",
          "name": "",
          "type": "uint256"
        }
      ],
      "payable": false,
      "stateMutability": "view",
      "type": "function"
    },
    {
      "constant": true,
      "inputs": [
        {
          "internalType": "bytes32",
          "name": "",
          "type": "bytes32"
        }
      ],
      "name": "committees",
      "outputs": [
        {
          "internalType": "contract CommitteeInterface",
          "name": "",
          "type": "address"
        }
      ],
      "payable": false,
      "stateMutability": "view",
      "type": "function"
    },
    {
      "constant": true,
      "inputs": [
        {
          "internalType": "bytes32",
          "name": "",
          "type": "bytes32"
        }
      ],
      "name": "consensusGateways",
      "outputs": [
        {
          "internalType": "contract ConsensusGatewayInterface",
          "name": "",
          "type": "address"
        }
      ],
      "payable": false,
      "stateMutability": "view",
      "type": "function"
    },
    {
      "constant": true,
      "inputs": [
        {
          "internalType": "address",
          "name": "",
          "type": "address"
        }
      ],
      "name": "coreLifetimes",
      "outputs": [
        {
          "internalType": "enum CoreLifetimeEnum.CoreLifetime",
          "name": "",
          "type": "uint8"
        }
      ],
      "payable": false,
      "stateMutability": "view",
      "type": "function"
    },
    {
      "constant": true,
      "inputs": [
        {
          "internalType": "bytes32",
          "name": "",
          "type": "bytes32"
        }
      ],
      "name": "decisions",
      "outputs": [
        {
          "internalType": "bytes32",
          "name": "",
          "type": "bytes32"
        }
      ],
      "payable": false,
      "stateMutability": "view",
      "type": "function"
    },
    {
      "constant": true,
      "inputs": [],
      "name": "feeGasLimit",
      "outputs": [
        {
          "internalType": "uint256",
          "name": "",
          "type": "uint256"
        }
      ],
      "payable": false,
      "stateMutability": "view",
      "type": "function"
    },
    {
      "constant": true,
      "inputs": [],
      "name": "feeGasPrice",
      "outputs": [
        {
          "internalType": "uint256",
          "name": "",
          "type": "uint256"
        }
      ],
      "payable": false,
      "stateMutability": "view",
      "type": "function"
    },
    {
      "constant": true,
      "inputs": [],
      "name": "gasTargetDelta",
      "outputs": [
        {
          "internalType": "uint256",
          "name": "",
          "type": "uint256"
        }
      ],
      "payable": false,
      "stateMutability": "view",
      "type": "function"
    },
    {
      "constant": true,
      "inputs": [],
      "name": "joinLimit",
      "outputs": [
        {
          "internalType": "uint256",
          "name": "",
          "type": "uint256"
        }
      ],
      "payable": false,
      "stateMutability": "view",
      "type": "function"
    },
    {
      "constant": true,
      "inputs": [
        {
          "internalType": "bytes32",
          "name": "",
          "type": "bytes32"
        }
      ],
      "name": "metablockTips",
      "outputs": [
        {
          "internalType": "uint256",
          "name": "",
          "type": "uint256"
        }
      ],
      "payable": false,
      "stateMutability": "view",
      "type": "function"
    },
    {
      "constant": true,
      "inputs": [
        {
          "internalType": "bytes32",
          "name": "",
          "type": "bytes32"
        },
        {
          "internalType": "uint256",
          "name": "",
          "type": "uint256"
        }
      ],
      "name": "metablockchains",
      "outputs": [
        {
          "internalType": "bytes32",
          "name": "metablockHash",
          "type": "bytes32"
        },
        {
          "internalType": "enum Consensus.MetablockRound",
          "name": "round",
          "type": "uint8"
        },
        {
          "internalType": "uint256",
          "name": "roundBlockNumber",
          "type": "uint256"
        }
      ],
      "payable": false,
      "stateMutability": "view",
      "type": "function"
    },
    {
      "constant": true,
      "inputs": [],
      "name": "minValidators",
      "outputs": [
        {
          "internalType": "uint256",
          "name": "",
          "type": "uint256"
        }
      ],
      "payable": false,
      "stateMutability": "view",
      "type": "function"
    },
    {
      "constant": true,
      "inputs": [],
      "name": "mosaicDomainSeparator",
      "outputs": [
        {
          "internalType": "bytes32",
          "name": "",
          "type": "bytes32"
        }
      ],
      "payable": false,
      "stateMutability": "view",
      "type": "function"
    },
    {
      "constant": true,
      "inputs": [],
      "name": "reputation",
      "outputs": [
        {
          "internalType": "contract ReputationInterface",
          "name": "",
          "type": "address"
        }
      ],
      "payable": false,
      "stateMutability": "view",
      "type": "function"
    },
    {
      "constant": false,
      "inputs": [
        {
          "internalType": "uint256",
          "name": "_committeeSize",
          "type": "uint256"
        },
        {
          "internalType": "uint256",
          "name": "_minValidators",
          "type": "uint256"
        },
        {
          "internalType": "uint256",
          "name": "_joinLimit",
          "type": "uint256"
        },
        {
          "internalType": "uint256",
          "name": "_gasTargetDelta",
          "type": "uint256"
        },
        {
          "internalType": "uint256",
          "name": "_coinbaseSplitPerMille",
          "type": "uint256"
        },
        {
          "internalType": "address",
          "name": "_reputation",
          "type": "address"
        }
      ],
      "name": "setup",
      "outputs": [],
      "payable": false,
      "stateMutability": "nonpayable",
      "type": "function"
    },
    {
      "constant": false,
      "inputs": [
        {
          "internalType": "bytes32",
          "name": "_metachainId",
          "type": "bytes32"
        },
        {
          "internalType": "uint256",
          "name": "_metablockHeight",
          "type": "uint256"
        },
        {
          "internalType": "bytes32",
          "name": "_metablockHashPrecommit",
          "type": "bytes32"
        }
      ],
      "name": "precommitMetablock",
      "outputs": [],
      "payable": false,
      "stateMutability": "nonpayable",
      "type": "function"
    },
    {
      "constant": false,
      "inputs": [
        {
          "internalType": "bytes32",
          "name": "_metachainId",
          "type": "bytes32"
        }
      ],
      "name": "formCommittee",
      "outputs": [],
      "payable": false,
      "stateMutability": "nonpayable",
      "type": "function"
    },
    {
      "constant": false,
      "inputs": [
        {
          "internalType": "bytes32",
          "name": "_metachainId",
          "type": "bytes32"
        },
        {
          "internalType": "contract CoreInterface",
          "name": "_core",
          "type": "address"
        },
        {
          "internalType": "address",
          "name": "_validator",
          "type": "address"
        },
        {
          "internalType": "address",
          "name": "_furtherMember",
          "type": "address"
        }
      ],
      "name": "enterCommittee",
      "outputs": [],
      "payable": false,
      "stateMutability": "nonpayable",
      "type": "function"
    },
    {
      "constant": false,
      "inputs": [
        {
          "internalType": "bytes32",
          "name": "_metachainId",
          "type": "bytes32"
        },
        {
          "internalType": "bytes32",
          "name": "_committeeDecision",
          "type": "bytes32"
        }
      ],
      "name": "registerCommitteeDecision",
      "outputs": [],
      "payable": false,
      "stateMutability": "nonpayable",
      "type": "function"
    },
    {
      "constant": false,
      "inputs": [
        {
          "internalType": "bytes32",
          "name": "_metachainId",
          "type": "bytes32"
        },
        {
          "internalType": "bytes",
          "name": "_rlpBlockHeader",
          "type": "bytes"
        },
        {
          "internalType": "bytes32",
          "name": "_kernelHash",
          "type": "bytes32"
        },
        {
          "internalType": "bytes32",
          "name": "_originObservation",
          "type": "bytes32"
        },
        {
          "internalType": "uint256",
          "name": "_dynasty",
          "type": "uint256"
        },
        {
          "internalType": "uint256",
          "name": "_accumulatedGas",
          "type": "uint256"
        },
        {
          "internalType": "bytes32",
          "name": "_committeeLock",
          "type": "bytes32"
        },
        {
          "internalType": "bytes32",
          "name": "_source",
          "type": "bytes32"
        },
        {
          "internalType": "bytes32",
          "name": "_target",
          "type": "bytes32"
        },
        {
          "internalType": "uint256",
          "name": "_sourceBlockHeight",
          "type": "uint256"
        },
        {
          "internalType": "uint256",
          "name": "_targetBlockHeight",
          "type": "uint256"
        }
      ],
      "name": "commitMetablock",
      "outputs": [],
      "payable": false,
      "stateMutability": "nonpayable",
      "type": "function"
    },
    {
      "constant": false,
      "inputs": [
        {
          "internalType": "bytes32",
          "name": "_metachainId",
          "type": "bytes32"
        },
        {
          "internalType": "address",
          "name": "_withdrawalAddress",
          "type": "address"
        }
      ],
      "name": "join",
      "outputs": [],
      "payable": false,
      "stateMutability": "nonpayable",
      "type": "function"
    },
    {
      "constant": false,
      "inputs": [
        {
          "internalType": "bytes32",
          "name": "_metachainId",
          "type": "bytes32"
        },
        {
          "internalType": "address",
          "name": "_withdrawalAddress",
          "type": "address"
        }
      ],
      "name": "joinDuringCreation",
      "outputs": [],
      "payable": false,
      "stateMutability": "nonpayable",
      "type": "function"
    },
    {
      "constant": false,
      "inputs": [
        {
          "internalType": "bytes32",
          "name": "_metachainId",
          "type": "bytes32"
        },
        {
          "internalType": "contract CoreInterface",
          "name": "_core",
          "type": "address"
        }
      ],
      "name": "logout",
      "outputs": [],
      "payable": false,
      "stateMutability": "nonpayable",
      "type": "function"
    },
    {
      "constant": false,
      "inputs": [],
      "name": "newMetachain",
      "outputs": [
        {
          "internalType": "bytes32",
          "name": "metachainId_",
          "type": "bytes32"
        },
        {
          "internalType": "address",
          "name": "anchor_",
          "type": "address"
        },
        {
          "internalType": "string",
          "name": "mosaicVersion_",
          "type": "string"
        },
        {
          "internalType": "address",
          "name": "consensusGateway_",
          "type": "address"
        }
      ],
      "payable": false,
      "stateMutability": "nonpayable",
      "type": "function"
    },
    {
      "constant": true,
      "inputs": [],
      "name": "coreValidatorThresholds",
      "outputs": [
        {
          "internalType": "uint256",
          "name": "minimumValidatorCount_",
          "type": "uint256"
        },
        {
          "internalType": "uint256",
          "name": "joinLimit_",
          "type": "uint256"
        }
      ],
      "payable": false,
      "stateMutability": "view",
      "type": "function"
    },
    {
      "constant": false,
      "inputs": [
        {
          "internalType": "bytes32",
          "name": "_metachainId",
          "type": "bytes32"
        },
        {
          "internalType": "string",
          "name": "_service",
          "type": "string"
        },
        {
          "internalType": "string",
          "name": "_endpoint",
          "type": "string"
        }
      ],
      "name": "publishEndpoint",
      "outputs": [],
      "payable": false,
      "stateMutability": "nonpayable",
      "type": "function"
    },
    {
      "constant": false,
      "inputs": [
        {
          "internalType": "bytes32",
          "name": "_metachainId",
          "type": "bytes32"
        }
      ],
      "name": "getAnchor",
      "outputs": [
        {
          "internalType": "address",
          "name": "anchor_",
          "type": "address"
        }
      ],
      "payable": false,
      "stateMutability": "nonpayable",
      "type": "function"
    },
    {
      "constant": true,
      "inputs": [
        {
          "internalType": "address",
          "name": "_anchor",
          "type": "address"
        }
      ],
      "name": "hashMetachainId",
      "outputs": [
        {
          "internalType": "bytes32",
          "name": "metachainId_",
          "type": "bytes32"
        }
      ],
      "payable": false,
      "stateMutability": "view",
      "type": "function"
    }
  ],
  "bytecode": "0x608060405234801561001057600080fd5b5061422e806100206000396000f3fe608060405234801561001057600080fd5b506004361061028a5760003560e01c80639cf4364b1161015c578063c5ab2241116100ce578063e2caedff11610087578063e2caedff14610906578063e385bd1614610950578063e861719314610958578063efa831ab14610960578063f056ecde14610837578063fe8c1326146109815761028a565b8063c5ab2241146108b5578063c8111da1146108bd578063cfc1f75e146108e6578063e061fbc0146108ee578063e10a93d5146108f6578063e172230b146108fe5761028a565b8063ac4746ab11610120578063ac4746ab14610837578063b01b6d531461083f578063b4907ddc1461085c578063bd30192114610864578063bf15b95314610890578063c52164c6146108ad5761028a565b80639cf4364b1461074e5780639cfcc275146107565780639dc3205b1461081f578063a0cea4b014610827578063a75778fc1461082f5761028a565b80635d4289b71161020057806377cc4a5f116101b957806377cc4a5f146106b85780637c8137c6146106c05780637feb51d91461070457806382c2901c14610721578063848202f71461073e5780638552230b146107465761028a565b80635d4289b7146105d25780635d8376af146105f55780635dc46e741461064a578063645312a61461065257806365e102e61461066f5780636b8d11c91461069b5761028a565b80631dc24d03116102525780631dc24d03146103ac5780632822346f146103e55780633ca52d511461040b5780634d41b347146104eb57806351e91e1814610529578063589ecdbd146105555761028a565b806303234b261461028f57806303f92076146102b457806304a71a6a1461036d5780630e139aeb146103875780631afd614a1461038f575b600080fd5b610297610989565b604080516001600160e01b03199092168252519081900360200190f35b6102bc6109a4565b60405180858152602001846001600160a01b03166001600160a01b0316815260200180602001836001600160a01b03166001600160a01b03168152602001828103825284818151815260200191508051906020019080838360005b8381101561032f578181015183820152602001610317565b50505050905090810190601f16801561035c5780820380516001836020036101000a031916815260200191505b509550505050505060405180910390f35b610375610ee3565b60408051918252519081900360200190f35b610375610ee9565b610375600480360360208110156103a557600080fd5b5035610eee565b6103c9600480360360208110156103c257600080fd5b5035610f00565b604080516001600160a01b039092168252519081900360200190f35b610375600480360360208110156103fb57600080fd5b50356001600160a01b0316610f1b565b6104e9600480360361016081101561042257600080fd5b8135919081019060408101602082013564010000000081111561044457600080fd5b82018360208201111561045657600080fd5b8035906020019184600183028401116401000000008311171561047857600080fd5b91908080601f0160208091040260200160405190810160405280939291908181526020018383808284376000920191909152509295505082359350505060208101359060408101359060608101359060808101359060a08101359060c08101359060e0810135906101000135611017565b005b6104e96004803603608081101561050157600080fd5b508035906001600160a01b0360208201358116916040810135821691606090910135166111d6565b6104e96004803603604081101561053f57600080fd5b50803590602001356001600160a01b03166114cc565b61055d6116bb565b6040805160208082528351818301528351919283929083019185019080838360005b8381101561059757818101518382015260200161057f565b50505050905090810190601f1680156105c45780820380516001836020036101000a031916815260200191505b509250505060405180910390f35b6104e9600480360360408110156105e857600080fd5b50803590602001356116e7565b6106186004803603604081101561060b57600080fd5b5080359060200135611945565b6040518084815260200183600481111561062e57fe5b60ff168152602001828152602001935050505060405180910390f35b610297611974565b6103756004803603602081101561066857600080fd5b50356119a2565b6104e96004803603604081101561068557600080fd5b50803590602001356001600160a01b03166119b4565b6104e9600480360360208110156106b157600080fd5b5035611c8e565b6103c9611e45565b6104e9600480360360c08110156106d657600080fd5b5080359060208101359060408101359060608101359060808101359060a001356001600160a01b0316611e54565b6103c96004803603602081101561071a57600080fd5b5035612229565b6103c96004803603602081101561073757600080fd5b5035612247565b610375612262565b610375612297565b61037561229d565b6104e96004803603606081101561076c57600080fd5b8135919081019060408101602082013564010000000081111561078e57600080fd5b8201836020820111156107a057600080fd5b803590602001918460018302840111640100000000831117156107c257600080fd5b9193909290916020810190356401000000008111156107e057600080fd5b8201836020820111156107f257600080fd5b8035906020019184600183028401116401000000008311171561081457600080fd5b5090925090506122a3565b610297612422565b610375612441565b610375612447565b61037561244d565b6103c96004803603602081101561085557600080fd5b5035612452565b61055d61246d565b6104e96004803603604081101561087a57600080fd5b50803590602001356001600160a01b031661248a565b6103c9600480360360208110156108a657600080fd5b50356127cf565b6103c96127ea565b6103756127f9565b6104e9600480360360608110156108d357600080fd5b50803590602081013590604001356127ff565b610375612b3e565b610375612b43565b610375612b5e565b610375612b64565b61092c6004803603602081101561091c57600080fd5b50356001600160a01b0316612b6a565b6040518082600581111561093c57fe5b60ff16815260200191505060405180910390f35b610375612b7f565b610375612b85565b610968612b8a565b6040805192835260208301919091528051918290030190f35b610297612b94565b60405180602e613deb8239602e019050604051809103902081565b601154600090819060609082906001600160a01b03163314610a0d576040805162461bcd60e51b815260206004820152601d60248201527f43616c6c6572206d757374206265206178696f6d20616464726573732e000000604482015290519081900360640190fd5b6060610a1a606430612baf565b60115460405163653e57a360e11b81526020600482018181528451602484015284519495506000946001600160a01b039094169363ca7caf469387938392604490920191908501908083838b5b83811015610a7f578181015183820152602001610a67565b50505050905090810190601f168015610aac5780820380516001836020036101000a031916815260200191505b5092505050602060405180830381600087803b158015610acb57600080fd5b505af1158015610adf573d6000803e3d6000fd5b505050506040513d6020811015610af557600080fd5b50519450849050610b0581610f1b565b600081815260086020908152604080832083805282528083209051939950919289910180602d6141648239602d81810193909352604080518083039094018452604d9091018152825160209384012084556001808501805460ff1916600417905543600286015560008c81526009909452908320859055610b8891508490612c2c565b90506060610ba58a60648486600001546004546000806000612c45565b90506060610bb1612d05565b6011546040805163f468e2bb60e01b8152600481019182528551604482015285519394506000936001600160a01b039093169263f468e2bb92879287928291602481019160649091019060208701908083838d5b83811015610c1d578181015183820152602001610c05565b50505050905090810190601f168015610c4a5780820380516001836020036101000a031916815260200191505b50838103825284518152845160209182019186019080838360005b83811015610c7d578181015183820152602001610c65565b50505050905090810190601f168015610caa5780820380516001836020036101000a031916815260200191505b509450505050506040805180830381600087803b158015610cca57600080fd5b505af1158015610cde573d6000803e3d6000fd5b505050506040513d6040811015610cf457600080fd5b810190808051906020019092919080519060200190929190505050809a50819250505080600a60008e815260200190815260200160002060006101000a8154816001600160a01b0302191690836001600160a01b0316021790555086600d60008e815260200190815260200160002060006101000a8154816001600160a01b0302191690836001600160a01b0316021790555088600f60008e815260200190815260200160002060006101000a8154816001600160a01b0302191690836001600160a01b031602179055506003600e6000836001600160a01b03166001600160a01b0316815260200190815260200160002060006101000a81548160ff02191690836005811115610e0157fe5b02179055506040805180820190915260018152600360fc1b602082015299507fd5dc98c5a31138beaa181ac10162735542d80e896ab9cb39fe3e3c670283a2be816003604080516001600160a01b03909316835260208301919091528051918290030190a17f037d4c98ca5132c04d98738378b9b892b7d851ef59950cc67e6cbceae56e1b3d818d60025460035460045460405180866001600160a01b03166001600160a01b031681526020018581526020018481526020018381526020018281526020019550505050505060405180910390a1505050505050505090919293565b60065481565b600e81565b600c6020526000908152604090205481565b600f602052600090815260409020546001600160a01b031681565b60006001600160a01b038216610f78576040805162461bcd60e51b815260206004820152601d60248201527f416e63686f722061646472657373206d757374206e6f7420626520302e000000604482015290519081900360640190fd5b50604080517f4d657461636861696e4964286164647265737320616e63686f722900000000008152815190819003601b0181206020808301919091526001600160a01b0390931681830152815180820383018152606082018352805190840120601254601960f81b6080840152604d60f81b6081840152608283015260a2808301919091528251808303909101815260c2909101909152805191012090565b895160208b0120841461105b5760405162461bcd60e51b8152600401808060200182810382526035815260200180613f716035913960400191505060405180910390fd5b60006110668c612d51565b60008d8152600a60205260409020549091506001600160a01b031661108a81612de0565b6110d1576040805162461bcd60e51b815260206004820152601360248201527221b7b9329034b9903737ba1030b1ba34bb329760691b604482015290519081900360640190fd5b6110e481838d8d8d8d8d8d8d8d8d612e12565b6110ee8d8d612f83565b806001600160a01b03166362d76edf8a8a876004546040518563ffffffff1660e01b815260040180858152602001848152602001838152602001828152602001945050505050600060405180830381600087803b15801561114e57600080fd5b505af1158015611162573d6000803e3d6000fd5b505050507f2a677162a0044a5e2e7c728dc05fe5a10eae2b6ffdbcdb0a905e5b9e9c656f5a8b828f8560405180858152602001846001600160a01b03166001600160a01b0316815260200183815260200182815260200194505050505060405180910390a150505050505050505050505050565b8361121d576040805162461bcd60e51b815260206004820152601260248201527126b2ba30b1b430b4b71034b21034b990181760711b604482015290519081900360640190fd5b6001600160a01b03831661126f576040805162461bcd60e51b815260206004820152601460248201527321b7b93293b99030b2323932b9b99034b990181760611b604482015290519081900360640190fd5b6001600160a01b0382166112ca576040805162461bcd60e51b815260206004820152601960248201527f56616c696461746f722773206164647265737320697320302e00000000000000604482015290519081900360640190fd5b6001600160a01b03811661130f5760405162461bcd60e51b81526004018080602001828103825260218152602001806141436021913960400191505060405180910390fd5b6113188361305f565b611369576040805162461bcd60e51b815260206004820152601e60248201527f54686520676976656e20636f7265206973206e6f742072756e6e696e672e0000604482015290519081900360640190fd5b61137383836130a6565b6113c4576040805162461bcd60e51b815260206004820152601c60248201527f496e76616c69642076616c696461746f722077617320676976656e2e00000000604482015290519081900360640190fd5b600084815260096020908152604080832054600883528184208185529092529091206002600182015460ff1660048111156113fb57fe5b146114375760405162461bcd60e51b815260040180806020018281038252603581526020018061410e6035913960400191505060405180910390fd5b80546000908152600b60205260409020546001600160a01b03168061145857fe5b6040805163bf81b13b60e01b81526001600160a01b038781166004830152868116602483015291519183169163bf81b13b9160448082019260009290919082900301818387803b1580156114ab57600080fd5b505af11580156114bf573d6000803e3d6000fd5b5050505050505050505050565b6000828152600a60205260409020546001600160a01b0316806115205760405162461bcd60e51b8152600401808060200182810382526028815260200180613fda6028913960400191505060405180910390fd5b6115298161305f565b6115645760405162461bcd60e51b815260040180806020018281038252602f815260200180613f0c602f913960400191505060405180910390fd5b60105460408051632021856b60e21b81523360048201526001600160a01b0385811660248301529151600093929092169163808615ac9160448082019260209290919082900301818787803b1580156115bc57600080fd5b505af11580156115d0573d6000803e3d6000fd5b505050506040513d60208110156115e657600080fd5b50516040805163051ffcd960e31b815233600482015290519192506000916001600160a01b038516916328ffe6c891602480830192602092919082900301818787803b15801561163557600080fd5b505af1158015611649573d6000803e3d6000fd5b505050506040513d602081101561165f57600080fd5b5051604080513381526001600160a01b03861660208201528082018390526060810185905290519192507fa3f856848c8d32c82f934932d06609ac500484b1ae5d385a5069c0da35950bea919081900360800190a15050505050565b6040518060400160405280601081526020016f4d6f736169632d436f6e73656e73757360801b81525081565b8161172e576040805162461bcd60e51b815260206004820152601260248201527126b2ba30b1b430b4b71034b21034b990181760711b604482015290519081900360640190fd5b80611780576040805162461bcd60e51b815260206004820152601860248201527f436f6d6d6974746565206465636973696f6e20697320302e0000000000000000604482015290519081900360640190fd5b600082815260096020908152604080832054600883528184208185529092529091206002600182015460ff1660048111156117b757fe5b146117f35760405162461bcd60e51b81526004018080602001828103825260378152602001806141916037913960400191505060405180910390fd5b60018101805460ff1916600317905543600282015580546000908152600b6020526040902054336001600160a01b0390911614611870576040805162461bcd60e51b81526020600482015260166024820152752bb937b7339031b7b6b6b4ba3a32b29031b0b636399760511b604482015290519081900360640190fd5b80546000908152600c6020526040902054156118bd5760405162461bcd60e51b81526004018080602001828103825260318152602001806140a76031913960400191505060405180910390fd5b80546000908152600c602090815260408083208690558354808452600b8352928190205460015482516001600160a01b03909216808352938201949094528082018890526060810193909352608083018690525190917fb0d0f8983a3a151ff08f9212ef21ab9164e053e58c356ec5c7a9495595e11573919081900360a00190a15050505050565b6008602090815260009283526040808420909152908252902080546001820154600290920154909160ff169083565b604080517573657475702875696e743235362c616464726573732960501b8152905190819003601601902081565b60096020526000908152604090205481565b816119fb576040805162461bcd60e51b815260206004820152601260248201527126b2ba30b1b430b4b71034b21034b990181760711b604482015290519081900360640190fd5b6001600160a01b038116611a43576040805162461bcd60e51b815260206004820152600a60248201526921b7b9329034b990181760b11b604482015290519081900360640190fd5b6000828152600a60205260409020546001600160a01b03828116911614611a9b5760405162461bcd60e51b8152600401808060200182810382526034815260200180613e4e6034913960400191505060405180910390fd5b611aa48161305f565b611adf5760405162461bcd60e51b815260040180806020018281038252602f815260200180613f0c602f913960400191505060405180910390fd5b6010546040805163212b0cfb60e21b815233600482015290516000926001600160a01b0316916384ac33ec91602480830192602092919082900301818787803b158015611b2b57600080fd5b505af1158015611b3f573d6000803e3d6000fd5b505050506040513d6020811015611b5557600080fd5b50516040805163cc51f9b960e01b815233600482015290519192506000916001600160a01b0385169163cc51f9b991602480830192602092919082900301818787803b158015611ba457600080fd5b505af1158015611bb8573d6000803e3d6000fd5b505050506040513d6020811015611bce57600080fd5b50516040805163cc51f9b960e01b815233600482015290519192506001600160a01b0385169163cc51f9b9916024808201926020929091908290030181600087803b158015611c1c57600080fd5b505af1158015611c30573d6000803e3d6000fd5b505050506040513d6020811015611c4657600080fd5b5050604080513381526020810183905280820184905290517f9638503c2352ee4f21f2db29108fc64ecb93d2533c44738c762f4f937eddba779181900360600190a150505050565b80611cd5576040805162461bcd60e51b815260206004820152601260248201527126b2ba30b1b430b4b71034b21034b990181760711b604482015290519081900360640190fd5b6000818152600960209081526040808320546008835281842081855290925290912060018082015460ff166004811115611d0b57fe5b14611d475760405162461bcd60e51b8152600401808060200182810382526045815260200180613da66045913960600191505060405180910390fd5b6002810154600090611d6090600e63ffffffff612c2c16565b9050804311611da05760405162461bcd60e51b8152600401808060200182810382526034815260200180613fa66034913960400191505060405180910390fd5b6000611db08360000154836131c2565b60018401805460ff1916600290811790915543908501558354909150600090611ddc9087908490613317565b8454600154604080516001600160a01b038516815260208101939093528281018a9052606083018790526080830191909152519192507fc544f471de57b0c35a1207ce7f6ddb389440c8eb838ee624b2ab7ad76d9ce915919081900360a00190a1505050505050565b6011546001600160a01b031681565b6011546001600160a01b031615611eb2576040805162461bcd60e51b815260206004820152601b60248201527f436f6e73656e73757320697320616c72656164792073657475702e0000000000604482015290519081900360640190fd5b60008611611efe576040805162461bcd60e51b815260206004820152601460248201527321b7b6b6b4ba3a32b29039b4bd329034b990181760611b604482015290519081900360640190fd5b6005851015611f3e5760405162461bcd60e51b81526004018080602001828103825260318152602001806140526031913960400191505060405180910390fd5b84841015611f7d5760405162461bcd60e51b8152600401808060200182810382526037815260200180613ed56037913960400191505060405180910390fd5b60008311611fcb576040805162461bcd60e51b815260206004820152601660248201527523b0b9903a30b933b2ba103232b63a309034b990181760511b604482015290519081900360640190fd5b6103e882111561200c5760405162461bcd60e51b8152600401808060200182810382526036815260200180613f3b6036913960400191505060405180910390fd5b6001600160a01b0381166120515760405162461bcd60e51b8152600401808060200182810382526021815260200180613eb46021913960400191505060405180910390fd5b60018690556002859055600384905560048390556005829055601080546001600160a01b0383166001600160a01b0319918216179091556011805490911633179055600061209d613379565b9050604051808061400260509139605001905060405180910390206040518060400160405280601081526020016f4d6f736169632d436f6e73656e73757360801b815250604051806040016040528060018152602001600360fc1b8152508330604051602001808681526020018060200180602001858152602001846001600160a01b03166001600160a01b03168152602001838103835287818151815260200191508051906020019080838360005b8381101561216557818101518382015260200161214d565b50505050905090810190601f1680156121925780820380516001836020036101000a031916815260200191505b50838103825286518152865160209182019188019080838360005b838110156121c55781810151838201526020016121ad565b50505050905090810190601f1680156121f25780820380516001836020036101000a031916815260200191505b5060408051601f19818403018152919052805160209091012060125550506000600681905560075550505050505050505050505050565b6000818152600d60205260409020546001600160a01b03165b919050565b600a602052600090815260409020546001600160a01b031681565b604080517f4d657461636861696e4964286164647265737320616e63686f722900000000008152905190819003601b01902081565b60045481565b60015481565b6000858152600a60205260409020546001600160a01b0316806122f75760405162461bcd60e51b8152600401808060200182810382526024815260200180613ce06024913960400191505060405180910390fd5b61230181336130a6565b612352576040805162461bcd60e51b815260206004820152601c60248201527f496e76616c69642076616c696461746f722077617320676976656e2e00000000604482015290519081900360640190fd5b7f81e4298e8154fbb04620b49826ea6ec291596613294df8cf8df2717cdf11cf408682338888888860405180888152602001876001600160a01b03166001600160a01b03168152602001866001600160a01b03166001600160a01b0316815260200180602001806020018381038352878782818152602001925080828437600083820152601f01601f191690910184810383528581526020019050858580828437600083820152604051601f909101601f19169092018290039b50909950505050505050505050a1505050505050565b60408051667365747570282960c81b8152905190819003600701902081565b60035481565b60055481565b606481565b600d602052600090815260409020546001600160a01b031681565b604051806040016040528060018152602001600360fc1b81525081565b6000828152600a60205260409020546001600160a01b0316806124de5760405162461bcd60e51b8152600401808060200182810382526028815260200180613fda6028913960400191505060405180910390fd5b60036001600160a01b0382166000908152600e602052604090205460ff16600581111561250757fe5b146125435760405162461bcd60e51b8152600401808060200182810382526026815260200180613cba6026913960400191505060405180910390fd5b60105460408051632021856b60e21b81523360048201526001600160a01b0385811660248301529151600093929092169163808615ac9160448082019260209290919082900301818787803b15801561259b57600080fd5b505af11580156125af573d6000803e3d6000fd5b505050506040513d60208110156125c557600080fd5b50516040805163fd6dfa4360e01b81523360048201529051919250600091829182916001600160a01b0387169163fd6dfa4391602480830192606092919082900301818787803b15801561261857600080fd5b505af115801561262c573d6000803e3d6000fd5b505050506040513d606081101561264257600080fd5b50805160208201516040909201519094509092509050818310612777576001600160a01b038581166000908152600e60209081526040808320805460ff191660041790558a8352600f909152902054168061269957fe5b806001600160a01b031663e5acd280876006546007546040518463ffffffff1660e01b815260040180846001600160a01b03166001600160a01b031681526020018381526020018281526020019350505050602060405180830381600087803b15801561270557600080fd5b505af1158015612719573d6000803e3d6000fd5b505050506040513d602081101561272f57600080fd5b5050604080516001600160a01b03881681526004602082015281517fd5dc98c5a31138beaa181ac10162735542d80e896ab9cb39fe3e3c670283a2be929181900390910190a1505b604080513381526001600160a01b03871660208201528082018390526060810186905290517fa3f856848c8d32c82f934932d06609ac500484b1ae5d385a5069c0da35950bea9181900360800190a150505050505050565b600b602052600090815260409020546001600160a01b031681565b6010546001600160a01b031681565b60025481565b82612846576040805162461bcd60e51b815260206004820152601260248201527126b2ba30b1b430b4b71034b21034b990181760711b604482015290519081900360640190fd5b8061288f576040805162461bcd60e51b815260206004820152601460248201527326b2ba30b13637b1b5903430b9b41034b990181760611b604482015290519081900360640190fd5b6000838152600a60205260409020546001600160a01b03163381146128e55760405162461bcd60e51b815260040180806020018281038252603c815260200180613d6a603c913960400191505060405180910390fd5b6128ee8161305f565b61293f576040805162461bcd60e51b815260206004820152601d60248201527f436f7265202863616c6c657229206973206e6f742072756e6e696e672e000000604482015290519081900360640190fd5b600084815260096020908152604080832054600883528184208185529092529091208461297383600163ffffffff612c2c16565b146129af5760405162461bcd60e51b815260040180806020018281038252602e815260200180613c60602e913960400191505060405180910390fd5b6004600182015460ff1660048111156129c457fe5b14612a005760405162461bcd60e51b81526004018080602001828103825260248152602001806140836024913960400191505060405180910390fd5b6000868152600860209081526040808320888452909152812090600182015460ff166004811115612a2d57fe5b14612a3457fe5b8481556001808201805460ff191682800217905550436002820155600087815260096020526040902086905560046001600160a01b0385166000908152600e602052604090205460ff166005811115612a8957fe5b1415612aef576001600160a01b0384166000818152600e6020908152604091829020805460ff1916600590811790915582519384529083015280517fd5dc98c5a31138beaa181ac10162735542d80e896ab9cb39fe3e3c670283a2be9281900390910190a15b604080518681526020810189905280820188905243606082015290517fe6ae1c3ae9aa6cffd29bfd4290435349fd1b77c5d2f27d1e93534e0ed36c67019181900360800190a150505050505050565b600581565b60405180605061400282396050019050604051809103902081565b60075481565b6103e881565b600e6020526000908152604090205460ff1681565b60125481565b600781565b6002546003549091565b604051806066613d0482396066019050604051809103902081565b604080517573657475702875696e743235362c616464726573732960501b8152815190819003601601812060248201949094526001600160a01b0390921660448084019190915281518084039091018152606490920190526020810180516001600160e01b03166001600160e01b03199093169290921790915290565b600082820183811015612c3e57600080fd5b9392505050565b60606040518080613d046066913960408051918290036066018220600254600354601054306024870152604486019f909f52606485019d909d52608484015260a483019b909b526001600160a01b03909b1660c482015260e4810198909852505061010486019490945261012485019290925261014484015261016483015261018480830191909152835180830390910181526101a49091019092526020820180516001600160e01b03166001600160e01b031990921691909117905290565b60408051667365747570282960c81b8152815190819003600701812060048252602482019092526020810180516001600160e01b03166001600160e01b03199093169290921790915290565b6000818152600960209081526040808320546008835281842081855290925282206003600182015460ff166004811115612d8757fe5b14612dc35760405162461bcd60e51b815260040180806020018281038252602c815260200180613c8e602c913960400191505060405180910390fd5b60018101805460ff19166004179055436002820155549392505050565b600060056001600160a01b0383166000908152600e602052604090205460ff166005811115612e0b57fe5b1492915050565b60008a8152600c6020908152604091829020548251808301829052835180820384018152908401909352825192909101919091208614612e835760405162461bcd60e51b81526004018080602001828103825260368152602001806140d86036913960400191505060405180910390fd5b604080516355401a5f60e01b8152600481018c9052602481018b9052604481018a9052606481018990526084810188905260a4810187905260c4810186905260e48101859052610104810184905290516000916001600160a01b038f16916355401a5f9161012480820192602092909190829003018186803b158015612f0857600080fd5b505afa158015612f1c573d6000803e3d6000fd5b505050506040513d6020811015612f3257600080fd5b505190508b8114612f745760405162461bcd60e51b8152600401808060200182810382526035815260200180613e196035913960400191505060405180910390fd5b50505050505050505050505050565b6000828152600d60205260409020546001600160a01b031680612fd75760405162461bcd60e51b8152600401808060200182810382526032815260200180613e826032913960400191505060405180910390fd5b612fdf613ba2565b612fe88361337d565b9050816001600160a01b0316635cf12c7882610120015183608001516040518363ffffffff1660e01b81526004018083815260200182815260200192505050600060405180830381600087803b15801561304157600080fd5b505af1158015613055573d6000803e3d6000fd5b5050505050505050565b6001600160a01b0381166000908152600e602052604081205460ff16600481600581111561308957fe5b1480612c3e5750600581600581111561309e57fe5b149392505050565b60006001600160a01b0383166130b857fe5b826001600160a01b031663facd743b836040518263ffffffff1660e01b815260040180826001600160a01b03166001600160a01b0316815260200191505060206040518083038186803b15801561310e57600080fd5b505afa158015613122573d6000803e3d6000fd5b505050506040513d602081101561313857600080fd5b50518015612c3e575060105460408051632de640db60e21b81526001600160a01b0385811660048301529151919092169163b799036c916024808301926020929190829003018186803b15801561318e57600080fd5b505afa1580156131a2573d6000803e3d6000fd5b505050506040513d60208110156131b857600080fd5b5051159392505050565b6000806131e760076131db85600163ffffffff612c2c16565b9063ffffffff61355016565b9050824311801561320857506132058161010063ffffffff612c2c16565b43105b6132435760405162461bcd60e51b81526004018080602001828103825260328152602001806141c86032913960400191505060405180910390fd5b60408051600780825261010082019092526060916020820160e08038833901905050905060005b60078110156132b357613283838263ffffffff612c2c16565b4082828151811061329057fe5b60209081029190910101526132ac81600163ffffffff612c2c16565b905061326a565b50848160405160200180838152602001828051906020019060200280838360005b838110156132ec5781810151838201526020016132d4565b5050505090500192505050604051602081830303815290604052805190602001209250505092915050565b6000818152600b60205260408120546001600160a01b03161561333657fe5b613344846001548585613565565b6000928352600b602052604090922080546001600160a01b0319166001600160a01b0393841617908190559091169392505050565b4690565b613385613ba2565b81516020830120613394613c25565b61339d846136bf565b905060606133aa82613702565b90506040518061020001604052808481526020016133db836000815181106133ce57fe5b60200260200101516137b4565b81526020016133f0836001815181106133ce57fe5b81526020016134128360028151811061340557fe5b60200260200101516137c5565b6001600160a01b03168152602001613430836003815181106133ce57fe5b8152602001613445836004815181106133ce57fe5b815260200161345a836005815181106133ce57fe5b815260200161347c8360068151811061346f57fe5b6020026020010151613806565b815260200161349e8360078151811061349157fe5b602002602001015161385c565b81526020016134b38360088151811061349157fe5b81526020016134c88360098151811061349157fe5b67ffffffffffffffff1681526020016134e783600a8151811061349157fe5b67ffffffffffffffff16815260200161350683600b8151811061349157fe5b815260200161351b83600c8151811061346f57fe5b815260200161353083600d815181106133ce57fe5b815260200161354583600e8151811061349157fe5b905295945050505050565b60008282111561355f57600080fd5b50900390565b600060606040518080613deb602e91396040805191829003602e01822060248084018b905230604480860191909152606485018b9052608485018a905260a48086018a90528451808703909101815260c49095018452602085810180516001600160e01b03166001600160e01b03199095169490941784526011549451637b9995c360e11b81526004810191825286519381019390935285519597506001600160a01b0394909416955063f7332b86948794938493909201919080838360005b8381101561363d578181015183820152602001613625565b50505050905090810190601f16801561366a5780820380516001836020036101000a031916815260200191505b5092505050602060405180830381600087803b15801561368957600080fd5b505af115801561369d573d6000803e3d6000fd5b505050506040513d60208110156136b357600080fd5b50519695505050505050565b6136c7613c25565b8151806136e95750506040805180820190915260008082526020820152612242565b6040805180820190915260209384018152928301525090565b606061370d826138ac565b61371657600080fd5b6000613721836138d3565b90508060405190808252806020026020018201604052801561375d57816020015b61374a613c25565b8152602001906001900390816137425790505b509150613768613c3f565b61377184613937565b905060005b61377f8261396e565b156137ac5761378d8261398d565b84828151811061379957fe5b6020908102919091010152600101613776565b505050919050565b60006137bf8261385c565b92915050565b60006137d0826139d1565b6137d957600080fd5b6000806137e5846139f7565b9092509050601481146137f757600080fd5b5051600160601b900492915050565b6020810151606090806138195750612242565b806040519080825280601f01601f191660200182016040528015613844576020820181803883390190505b50915061385683600001518383613a67565b50919050565b6000613867826139d1565b61387057600080fd5b60008061387c846139f7565b9092509050602081118061388e575080155b1561389857600080fd5b806020036101000a82510492505050919050565b60008160200151600014156138c357506000612242565b50515160c060009190911a101590565b60006138de826138ac565b6138ea57506000612242565b81518051600090811a91906138fe85613a97565b6020860151908301915082016000190160005b81831161392d5761392183613b15565b90920191600101613911565b9695505050505050565b61393f613c3f565b613948826138ac565b61395157600080fd5b600061395c83613a97565b83519383529092016020820152919050565b6000613978613c25565b50508051602080820151915192015191011190565b613995613c25565b61399e8261396e565b6139a757600080fd5b602082015160006139b782613b15565b828452602080850182905292019390910192909252919050565b60008160200151600014156139e857506000612242565b50515160c060009190911a1090565b600080613a03836139d1565b613a0c57600080fd5b8251805160001a906080821015613a2a57925060019150613a629050565b60b8821015613a485760018560200151039250806001019350613a5f565b602085015182820160b51901945082900360b60192505b50505b915091565b6000601f820184602085015b82841015613a8e578382015184820152602084019350613a73565b50505050505050565b6000816020015160001415613aae57506000612242565b8151805160001a906080821015613aca57600092505050612242565b60b8821080613ae5575060c08210158015613ae5575060f882105b15613af557600192505050612242565b60c0821015613b0a575060b519019050612242565b5060f5190192915050565b8051600090811a6080811015613b2e5760019150613856565b60b8811015613b4357607e1981019150613856565b60c0811015613b6c57600183015160b76020839003016101000a9004810160b519019150613856565b60f8811015613b815760be1981019150613856565b6001929092015160f76020849003016101000a900490910160f51901919050565b604080516102008101825260008082526020820181905291810182905260608082018390526080820183905260a0820183905260c0820183905260e08201819052610100820183905261012082018390526101408201839052610160820183905261018082018390526101a08201526101c081018290526101e081019190915290565b604051806040016040528060008152602001600081525090565b6040518060400160405280613c52613c25565b815260200160008152509056fe4120707265636f6d6d6974206d75737420617070656e6420746f20746865206d657461626c6f636b636861696e2e436f6d6d697474656520686173206e6f742064656369646564206f6e20612070726f706f73616c207965742e436f7265206c69666574696d6520737461747573206d757374206265206372656174696f6e2e4e6f20636f72652065786973747320666f7220746865206d657461636861696e2069642e736574757028616464726573732c627974657333322c75696e743235362c75696e743235362c75696e743235362c616464726573732c75696e743235362c627974657333322c75696e743235362c75696e743235362c75696e743235362c75696e743235362943616c6c6572206973206e6f7420616e2061737369676e656420636f726520666f722074686520676976656e206d657461626c6f636b636861696e2e41737369676e656420636f7265206d757374206861766520707265636f6d6d69747465642061206d657461626c6f636b20746f20666f726d206120636f6d6d69747465652e736574757028627974657333322c616464726573732c75696e743235362c627974657333322c6279746573333229496e70757420706172616d657465727320646f206e6f74206861736820746f2074686520636f7265277320707265636f6d6d69742e436f7265206973206e6f742061737369676e656420666f722074686520737065636966696564206d657461636861696e2069642e5468657265206973206e6f20616e63686f7220666f722074686520737065636966696564206d657461636861696e2069642e52657075746174696f6e20636f6e7472616374206164647265737320697320302e4d61782076616c696461746f722073697a65206973206c657373207468616e206d696e696d756d2076616c696461746f722073697a652e436f7265206c69666574696d6520737461747573206d7573742062652067656e65736973206f72206163746976652e436f696e20626173652073706c697420706572206d696c6c652073686f756c6420626520696e2072616e67653a20302e2e313030302e426c6f636b2068656164657220646f6573206e6f74206d61746368207769746820766f7465206d65737361676520736f757263652e436f6d6d697474656520666f726d6174696f6e2068656967687420686173206e6f742079657420636f6d6520746f20706173732e436f726520646f6573206e6f7420657869737420666f7220676976656e206d657461636861696e2e4d6f73616963446f6d61696e28737472696e67206e616d652c737472696e672076657273696f6e2c75696e74323536206f726967696e436861696e49642c6164647265737320636f6e73656e737573294d696e2076616c696461746f722073697a65206d7573742062652067726561746572206f7220657175616c20746f20352e43757272656e74206d657461626c6f636b206d75737420626520636f6d6d69747465642e436f6d6d69747465652773206465636973696f6e20686173206265656e20616c726561647920726567697374657265642e436f6d6d6974746565206465636973696f6e20646f6573206e6f74206d61746368207769746820636f6d6d6974746565206c6f636b2e436f6d6d6974746565206d7573742068617665206265656e20666f726d656420746f20656e74657220612076616c696461746f722e467572746865722076616c696461746f722773206164647265737320697320302e4d6f736169632d3120546573746e65742047656e2d312047656e65736973204d657461626c6f636b2068617368436f6d6d6974746565206d7573742068617665206265656e20666f726d656420746f2072656769737465722061206465636973696f6e2e426c6f636b7365676d656e74206973206e6f7420696e20746865206d6f737420726563656e742032353620626c6f636b732ea265627a7a72315820e5c3f8a6adc5ab4a6414d5de70e5d7cb66fa9ce9093585185d458849e95d817e64736f6c634300050d0032",
  "source": "pragma solidity >=0.5.0 <0.6.0;\n\n// Copyright 2019 OpenST Ltd.\n//\n// Licensed under the Apache License, Version 2.0 (the \"License\");\n// you may not use this file except in compliance with the License.\n// You may obtain a copy of the License at\n//\n//    http://www.apache.org/licenses/LICENSE-2.0\n//\n// Unless required by applicable law or agreed to in writing, software\n// distributed under the License is distributed on an \"AS IS\" BASIS,\n// WITHOUT WARRANTIES OR CONDITIONS OF ANY KIND, either express or implied.\n// See the License for the specific language governing permissions and\n// limitations under the License.\n\nimport \"./ConsensusInterface.sol\";\nimport \"./CoreLifetime.sol\";\nimport \"../anchor/AnchorInterface.sol\";\nimport \"../axiom/AxiomInterface.sol\";\nimport \"../block/BlockHeader.sol\";\nimport \"../committee/CommitteeInterface.sol\";\nimport \"../consensus-gateway/ConsensusGatewayInterface.sol\";\nimport \"../core/CoreInterface.sol\";\nimport \"../reputation/ReputationInterface.sol\";\nimport \"../proxies/MasterCopyNonUpgradable.sol\";\nimport \"../version/MosaicVersion.sol\";\n\nimport \"openzeppelin-solidity/contracts/math/SafeMath.sol\";\n\ncontract Consensus is MasterCopyNonUpgradable, CoreLifetimeEnum, MosaicVersion, ConsensusInterface {\n\n    /* Usings */\n\n    using SafeMath for uint256;\n    using SafeMath for uint8;\n\n\n    /* Events */\n\n    /** Emitted when endpoint is published */\n    event EndpointPublished(\n        bytes32 metachainId,\n        address core,\n        address validator,\n        string service,\n        string endpoint\n    );\n\n    /** Emitted when validator logs out*/\n    event ValidatorLoggedOut(\n        address validator,\n        uint256 endHeight,\n        uint256 withdrawalBlockHeight\n    );\n\n    /** Emitted when core is created */\n    event CoreCreated(\n        address core,\n        bytes32 metachainId,\n        uint256 minValidators,\n        uint256 maxValidators,\n        uint256 gasTarget\n    );\n\n    /** Emitted when validator joins */\n    event ValidatorJoined(\n        address validator,\n        address core,\n        uint256 beginHeight,\n        uint256 reputation\n    );\n\n    /** Emitted when core lifetime is updated */\n    event CoreLifetimeUpdated(\n        address core,\n        uint256 coreLifetime\n    );\n\n    /** Emitted when metablock is precommitted */\n    event MetablockPrecommitted(\n        bytes32 metablockHash,\n        bytes32 metachainId,\n        uint256 metablockHeight,\n        uint256 roundMetablockNumber\n    );\n\n    /** Emitted when committee is formed */\n    event MetablockCommitteeFormed(\n        address committee,\n        bytes32 metablockHash,\n        bytes32 metachainId,\n        uint256 formationHeight,\n        uint256 size\n    );\n\n    /** Emitted when committee is decided */\n    event MetablockCommitteeDecided(\n        address committee,\n        bytes32 metablockHash,\n        bytes32 metachainId,\n        uint256 size,\n        bytes32 decision\n    );\n\n    /** Emitted when metablock is committed*/\n    event MetablockCommitted(\n        bytes32 kernelHash,\n        address core,\n        bytes32 metachainId,\n        bytes32 metablockHash\n    );\n\n\n    /* Enums */\n\n    /** Used to define the current round of a metablock. */\n    enum MetablockRound {\n        Undefined,\n        Precommitted,\n        CommitteeFormed,\n        CommitteeDecided,\n        Committed\n    }\n\n\n    /* Constants */\n\n    /** Committee formation block delay */\n    uint256 public constant COMMITTEE_FORMATION_DELAY = uint8(14);\n\n    /** Committee formation mixing length */\n    uint256 public constant COMMITTEE_FORMATION_LENGTH = uint8(7);\n\n    /** Minimum required validators */\n    uint256 public constant MIN_REQUIRED_VALIDATORS = uint8(5);\n\n    /** Maximum coinbase split per mille */\n    uint256 public constant MAX_COINBASE_SPLIT_PER_MILLE = uint16(1000);\n\n    /** The callprefix of the Core::setup function. */\n    bytes4 public constant CORE_SETUP_CALLPREFIX = bytes4(\n        keccak256(\n            \"setup(address,bytes32,uint256,uint256,uint256,address,uint256,bytes32,uint256,uint256,uint256,uint256)\"\n        )\n    );\n\n    string public constant MOSAIC_DOMAIN_SEPARATOR_NAME = \"Mosaic-Consensus\";\n\n    /** It is domain separator typehash used to calculate metachain id. */\n    bytes32 public constant MOSAIC_DOMAIN_SEPARATOR_TYPEHASH = keccak256(\n        \"MosaicDomain(string name,string version,uint256 originChainId,address consensus)\"\n    );\n\n    /** It is metachain id typehash used to calculate metachain id. */\n    bytes32 public constant METACHAIN_ID_TYPEHASH = keccak256(\n        \"MetachainId(address anchor)\"\n    );\n\n    /** The callprefix of the Committee::setup function. */\n    bytes4 public constant COMMITTEE_SETUP_CALLPREFIX = bytes4(\n        keccak256(\n            \"setup(bytes32,address,uint256,bytes32,bytes32)\"\n        )\n    );\n\n    //todo fix this when consensus gateway is implemented.\n    /** The callprefix of the ConsensusGateway::setup function. */\n    bytes4 public constant CONSENSUS_GATEWAY_SETUP_CALL_PREFIX = bytes4(\n        keccak256(\n            \"setup()\"\n        )\n    );\n\n    /** The callprefix of the Anchor::setup function.\n     *\n     *  uint256 - maxStateRoots Max number of state root stored in anchor contract.\n     *  address - address of consensus contract.\n     */\n    bytes4 public constant ANCHOR_SETUP_CALLPREFIX = bytes4(\n        keccak256(\n            \"setup(uint256,address)\"\n        )\n    );\n\n    /* Max number of state roots anchor stores. */\n    uint256 public constant ANCHOR_MAX_STATE_ROOTS = 100;\n\n    /** Epoch length */\n    uint256 public constant EPOCH_LENGTH = uint256(100);\n\n\n    /* Structs */\n\n    struct Metablock {\n        bytes32 metablockHash;\n        MetablockRound round;\n        uint256 roundBlockNumber;\n    }\n\n\n    /* Storage */\n\n    /** Committee size */\n    uint256 public committeeSize;\n\n    /** Minimum number of validators that must join a created core to open */\n    uint256 public minValidators;\n\n    /** Maximum number of validators that can join in a core */\n    uint256 public joinLimit;\n\n    /** Gas target delta to open new metablock */\n    uint256 public gasTargetDelta;\n\n    /** Coinbase split per mille */\n    uint256 public coinbaseSplitPerMille;\n\n    /** Gas price to calculate reward */\n    uint256 public feeGasPrice;\n\n    /** Gas limit to calculate reward */\n    uint256 public feeGasLimit;\n\n    /** Mapping of a metablock number to a metablock (per metachain).  */\n    mapping(bytes32 /* metachain id */ => mapping(uint256 /* metablock height */ => Metablock)) public metablockchains;\n\n    /** Metablocks' tips per metachain. */\n    mapping(bytes32 /* metachain id */ => uint256 /* metablock tip */) public metablockTips;\n\n    /** Assigned core for a given metachain id */\n    mapping(bytes32 /* metachain id */ => CoreInterface) public assignments;\n\n    /** Committees per metablock. */\n    mapping(bytes32 /* metablock hash */ => CommitteeInterface) public committees;\n\n    /** Committees' decisions per metablock. */\n    mapping(bytes32 /* metablock hash */ => bytes32 /* decision */) public decisions;\n\n    /** Assigned anchor per metachain. */\n    mapping(bytes32 /* metachain id */ => AnchorInterface) public anchors;\n\n    /** Core lifetimes. */\n    mapping(address /* core */ => CoreLifetime /* coreLifetime */) public coreLifetimes;\n\n    /** Assigned consensus gateways for a given metachain id */\n    mapping(bytes32 => ConsensusGatewayInterface) public consensusGateways;\n\n    /** Reputation contract for validators */\n    ReputationInterface public reputation;\n\n    /** Axiom contract address */\n    AxiomInterface public axiom;\n\n    /** Mosaic domain separator */\n    bytes32 public mosaicDomainSeparator;\n\n\n    /* Modifiers */\n\n    modifier onlyAxiom()\n    {\n        require(\n            address(axiom) == msg.sender,\n            \"Caller must be axiom address.\"\n        );\n\n        _;\n    }\n\n\n    /* External functions */\n\n    /**\n     * @notice Setup consensus contract. Setup method can be called only once.\n     *\n     * @dev Function requires:\n     *          - Consensus contract should not be already setup.\n     *          - Committee size should be greater than 0.\n     *          - Minimum validator size must be greater or equal to 5.\n     *          - Maximum validator size should be greater or equal to minimum\n     *            validator size.\n     *          - Gas target delta should be greater than 0.\n     *          - Coin base split per mille should be in range: 0..1000.\n     *          - Reputation contract address should be 0.\n     *\n     * @param _committeeSize Max committee size that can be formed.\n     * @param _minValidators Minimum number of validators that must join a\n     *                       created core to open.\n     * @param _joinLimit Maximum number of validators that can join a core.\n     * @param _gasTargetDelta Gas target delta to open new metablock.\n     * @param _coinbaseSplitPerMille Coinbase split per mille.\n     * @param _reputation Reputation contract address.\n     */\n    function setup(\n        uint256 _committeeSize,\n        uint256 _minValidators,\n        uint256 _joinLimit,\n        uint256 _gasTargetDelta,\n        uint256 _coinbaseSplitPerMille,\n        address _reputation\n    )\n        external\n    {\n        // This function must be called only once.\n        require(\n            address(axiom) == address(0),\n            \"Consensus is already setup.\"\n        );\n\n        require(\n            _committeeSize > 0,\n            \"Committee size is 0.\"\n        );\n\n        require(\n            _minValidators >= uint256(MIN_REQUIRED_VALIDATORS),\n            \"Min validator size must be greater or equal to 5.\"\n        );\n\n        require(\n            _joinLimit >= _minValidators,\n            \"Max validator size is less than minimum validator size.\"\n        );\n\n        require(\n            _gasTargetDelta > 0,\n            \"Gas target delta is 0.\"\n        );\n\n        require(\n            _coinbaseSplitPerMille <= MAX_COINBASE_SPLIT_PER_MILLE,\n            \"Coin base split per mille should be in range: 0..1000.\"\n        );\n\n        require(\n            _reputation != address(0),\n            \"Reputation contract address is 0.\"\n        );\n\n        committeeSize = _committeeSize;\n        minValidators = _minValidators;\n        joinLimit = _joinLimit;\n        gasTargetDelta = _gasTargetDelta;\n        coinbaseSplitPerMille = _coinbaseSplitPerMille;\n        reputation = ReputationInterface(_reputation);\n\n        axiom = AxiomInterface(msg.sender);\n\n        uint256 chainId = getChainId();\n\n        mosaicDomainSeparator = keccak256(\n            abi.encode(\n                MOSAIC_DOMAIN_SEPARATOR_TYPEHASH,\n                MOSAIC_DOMAIN_SEPARATOR_NAME,\n                DOMAIN_SEPARATOR_VERSION,\n                chainId,\n                address(this)\n            )\n        );\n\n        feeGasPrice = uint256(0);\n        feeGasLimit = uint256(0);\n    }\n\n    /**\n     * @notice Precommits a metablock.\n     *\n     * @dev Function requires:\n     *          - the given metachain id is not 0\n     *          - the given metablock's hash is not 0\n     *          - the given metablock's height is +1 of the current\n     *            height of the metablockchain\n     *          - the caller is the assigned core of the metablockchain\n     *          - the caller (core) is running\n     *          - the current (tip) metablock of the metablockchain is committed\n     */\n    function precommitMetablock(\n        bytes32 _metachainId,\n        uint256 _metablockHeight,\n        bytes32 _metablockHashPrecommit\n    )\n        external\n    {\n        require(\n            _metachainId != bytes32(0),\n            \"Metachain id is 0.\"\n        );\n\n        require(\n            _metablockHashPrecommit != bytes32(0),\n            \"Metablock hash is 0.\"\n        );\n\n        CoreInterface core = assignments[_metachainId];\n\n        require(\n            msg.sender == address(core),\n            \"Caller is not an assigned core for the given metablockchain.\"\n        );\n\n        require(\n            isCoreRunning(core),\n            \"Core (caller) is not running.\"\n        );\n\n        uint256 currentHeight = metablockTips[_metachainId];\n        Metablock storage currentMetablock = metablockchains[_metachainId][currentHeight];\n\n        require(\n            currentHeight.add(1) == _metablockHeight,\n            \"A precommit must append to the metablockchain.\"\n        );\n\n        require(\n            currentMetablock.round == MetablockRound.Committed,\n            \"Current metablock must be committed.\"\n        );\n\n        Metablock storage nextMetablock = metablockchains[_metachainId][_metablockHeight];\n\n        assert(nextMetablock.round == MetablockRound.Undefined);\n\n        nextMetablock.metablockHash = _metablockHashPrecommit;\n        nextMetablock.round = MetablockRound.Precommitted;\n        nextMetablock.roundBlockNumber = block.number;\n\n        metablockTips[_metachainId] = _metablockHeight;\n\n        // On first precommit by a core, CoreLifetime state will change to active.\n        if (coreLifetimes[address(core)] == CoreLifetime.genesis) {\n            coreLifetimes[address(core)] = CoreLifetime.active;\n            emit CoreLifetimeUpdated(\n                address(core),\n                uint256(CoreLifetime.active)\n            );\n        }\n\n        emit MetablockPrecommitted(\n            _metablockHashPrecommit,\n            _metachainId,\n            _metablockHeight,\n            block.number\n        );\n    }\n\n    /**\n     * @notice Forms a new committee to verify the precommit.\n     *\n     * @dev Function requires:\n     *          - the given metachain id is not 0\n     *          - assigned core has precommitted a metablock\n     *          - committee formation height passed\n     *          - committee formation blocksegment must be in the most\n     *            recent 256 blocks.\n     */\n    function formCommittee(bytes32 _metachainId)\n        external\n    {\n        require(\n            _metachainId != bytes32(0),\n            \"Metachain id is 0.\"\n        );\n\n        uint256 currentHeight = metablockTips[_metachainId];\n        Metablock storage currentMetablock = metablockchains[_metachainId][currentHeight];\n\n        require(\n            currentMetablock.round == MetablockRound.Precommitted,\n            \"Assigned core must have precommitted a metablock to form a committee.\"\n        );\n\n        uint256 committeeFormationBlockHeight = currentMetablock.roundBlockNumber.add(\n            COMMITTEE_FORMATION_DELAY\n        );\n\n        require(\n            block.number > committeeFormationBlockHeight,\n            \"Committee formation height has not yet come to pass.\"\n        );\n\n        bytes32 seed = hashBlockSegment(\n            currentMetablock.metablockHash,\n            committeeFormationBlockHeight\n        );\n\n        currentMetablock.round = MetablockRound.CommitteeFormed;\n        currentMetablock.roundBlockNumber = block.number;\n\n        address committee = startCommittee(\n            _metachainId,\n            seed,\n            currentMetablock.metablockHash\n        );\n\n        emit MetablockCommitteeFormed(\n            committee,\n            currentMetablock.metablockHash,\n            _metachainId,\n            committeeFormationBlockHeight,\n            committeeSize\n        );\n    }\n\n    /**\n     * @notice Enters a validator into a committee.\n     *\n     * @dev Function requires:\n     *          - the given metachain id is not 0\n     *          - the given core's address is not 0\n     *          - the given validator's address is not 0\n     *          - the given 'further' validator's address is not 0\n     *          - the given core is running\n     *          - valid validator is given\n     *              - is active in the given core\n     *              - has not been slashed\n     *          - the corresponding metablock's round is 'CommitteeFormed'\n     *\n     * @param _metachainId Metachain id for the committee to enter.\n     * @param _validator Validator address to enter.\n     * @param _furtherMember Validator address that is further member\n     *                       compared to the `_validator` address\n     */\n    function enterCommittee(\n        bytes32 _metachainId,\n        CoreInterface _core,\n        address _validator,\n        address _furtherMember\n    )\n        external\n    {\n        require(\n            _metachainId != bytes32(0),\n            \"Metachain id is 0.\"\n        );\n\n        require(\n            _core != CoreInterface(0),\n            \"Core's address is 0.\"\n        );\n\n        require(\n            _validator != address(0),\n            \"Validator's address is 0.\"\n        );\n\n        require(\n            _furtherMember != address(0),\n            \"Further validator's address is 0.\"\n        );\n\n        require(\n            isCoreRunning(_core),\n            \"The given core is not running.\"\n        );\n\n        require(\n            isValidator(_core, _validator),\n            \"Invalid validator was given.\"\n        );\n\n        uint256 currentHeight = metablockTips[_metachainId];\n        Metablock storage currentMetablock = metablockchains[_metachainId][currentHeight];\n\n        require(\n            currentMetablock.round == MetablockRound.CommitteeFormed,\n            \"Committee must have been formed to enter a validator.\"\n        );\n\n        CommitteeInterface committee = committees[currentMetablock.metablockHash];\n        assert(committee != CommitteeInterface(0));\n\n        committee.enterCommittee(_validator, _furtherMember);\n    }\n\n    /**\n     * @notice Registers committee decision.\n     *\n     * @param _committeeDecision Decision of a caller committee.\n     */\n    function registerCommitteeDecision(\n        bytes32 _metachainId,\n        bytes32 _committeeDecision\n    )\n        external\n    {\n        require(\n            _metachainId != bytes32(0),\n            \"Metachain id is 0.\"\n        );\n\n        require(\n            _committeeDecision != bytes32(0),\n            \"Committee decision is 0.\"\n        );\n\n        uint256 currentHeight = metablockTips[_metachainId];\n        Metablock storage currentMetablock = metablockchains[_metachainId][currentHeight];\n\n        require(\n            currentMetablock.round == MetablockRound.CommitteeFormed,\n            \"Committee must have been formed to register a decision.\"\n        );\n\n        currentMetablock.round = MetablockRound.CommitteeDecided;\n        currentMetablock.roundBlockNumber = block.number;\n\n        require(\n            msg.sender == address(committees[currentMetablock.metablockHash]),\n            \"Wrong committee calls.\"\n        );\n\n        require(\n            decisions[currentMetablock.metablockHash] == bytes32(0),\n            \"Committee's decision has been already registered.\"\n        );\n\n        decisions[currentMetablock.metablockHash] = _committeeDecision;\n\n        CommitteeInterface committee = committees[currentMetablock.metablockHash];\n\n        emit MetablockCommitteeDecided(\n            address(committee),\n            currentMetablock.metablockHash,\n            _metachainId,\n            committeeSize,\n            _committeeDecision\n        );\n    }\n\n    /**\n     * @notice Commits a metablock.\n     *\n     * @dev Function requires:\n     *          - block header should match with source blockhash\n     *          - metachain id should not be 0\n     *          - a core for the specified metachain id should exist\n     *          - precommit for the corresponding core should exist\n     *          - committee should have been formed for the precommit\n     *          - committee decision should match with the specified\n     *            committee lock\n     *          - committee decision should match with the core's precommit\n     *          - the given metablock parameters should match with the\n     *            core's precommit.\n     *          - anchor contract for the given metachain id should exist\n     *\n     * @param _metachainId Metachain id.\n     * @param _rlpBlockHeader RLP encoded block header.\n     * @param _kernelHash Kernel hash\n     * @param _originObservation Observation of the origin chain.\n     * @param _dynasty The dynasty number where the meta-block closes\n     *                 on the auxiliary chain.\n     * @param _accumulatedGas The total consumed gas on auxiliary within this\n     *                        meta-block.\n     * @param _committeeLock The committee lock that hashes the transaction\n     *                       root on the auxiliary chain.\n     * @param _source Source block hash.\n     * @param _target Target block hash.\n     * @param _sourceBlockHeight Source block height.\n     * @param _targetBlockHeight Target block height.\n     */\n    function commitMetablock(\n        bytes32 _metachainId,\n        bytes memory _rlpBlockHeader,\n        bytes32 _kernelHash,\n        bytes32 _originObservation,\n        uint256 _dynasty,\n        uint256 _accumulatedGas,\n        bytes32 _committeeLock,\n        bytes32 _source,\n        bytes32 _target,\n        uint256 _sourceBlockHeight,\n        uint256 _targetBlockHeight\n    )\n        public\n    {\n        require(\n            _source == keccak256(_rlpBlockHeader),\n            \"Block header does not match with vote message source.\"\n        );\n\n        bytes32 metablockHash = goToCommittedRound(_metachainId);\n\n        CoreInterface core = assignments[_metachainId];\n        require(\n            isCoreActive(core),\n            \"Core is not active.\"\n        );\n\n        assertCommit(\n            core,\n            metablockHash,\n            _kernelHash,\n            _originObservation,\n            _dynasty,\n            _accumulatedGas,\n            _committeeLock,\n            _source,\n            _target,\n            _sourceBlockHeight,\n            _targetBlockHeight\n        );\n\n        // Anchor state root.\n        anchorStateRoot(_metachainId, _rlpBlockHeader);\n\n        // Open a new metablock.\n        core.openMetablock(\n            _dynasty,\n            _accumulatedGas,\n            _sourceBlockHeight,\n            gasTargetDelta\n        );\n\n        emit MetablockCommitted(\n            _kernelHash,\n            address(core),\n            _metachainId,\n            metablockHash\n        );\n    }\n\n    /**\n     * @notice Validator joins the core, when core lifetime status is genesis\n     *         or active. This is called by validator address.\n     *\n     * @dev Function requires:\n     *          - Core should exist for given metachain\n     *          - core lifetime status must be genesis or active\n     *\n     * @param _metachainId Metachain id that validator wants to join.\n     * @param _withdrawalAddress A withdrawal address of newly joined validator.\n     */\n    function join(\n        bytes32 _metachainId,\n        address _withdrawalAddress\n    )\n        external\n    {\n        CoreInterface core = assignments[_metachainId];\n\n        require(\n            core != CoreInterface(0),\n            \"Core does not exist for given metachain.\"\n        );\n\n        require(\n            isCoreRunning(core),\n            \"Core lifetime status must be genesis or active.\"\n        );\n\n        // Stake in reputation contract.\n        uint256 validatorReputation = reputation.stake(\n            msg.sender,\n            _withdrawalAddress\n        );\n\n        // Join in core contract.\n        uint256 beginHeight = core.join(msg.sender);\n\n        emit ValidatorJoined(\n            msg.sender,\n            address(core),\n            beginHeight,\n            validatorReputation\n        );\n    }\n\n    /**\n     * @notice Validator joins the core, when core lifetime status is creation.\n     *         This is called by validator address.\n     *\n     * @dev Function requires:\n     *          - core should exist for given metachain\n     *          - core life time should be in creation state\n     *\n     * @param _metachainId Metachain id that validator wants to join.\n     * @param _withdrawalAddress A withdrawal address of newly joined validator.\n     */\n\n    function joinDuringCreation(\n        bytes32 _metachainId,\n        address _withdrawalAddress\n    )\n        external\n    {\n        CoreInterface core = assignments[_metachainId];\n\n        require(\n            core != CoreInterface(0),\n            \"Core does not exist for given metachain.\"\n        );\n\n        // Specified core must have creation lifetime status.\n        require(\n            coreLifetimes[address(core)] == CoreLifetime.creation,\n            \"Core lifetime status must be creation.\"\n        );\n\n        // Stake in reputation contract.\n        uint256 validatorReputation = reputation.stake(\n            msg.sender,\n            _withdrawalAddress\n        );\n\n        // Join in core contract.\n        (\n            uint256 validatorCount,\n            uint256 minValidatorCount,\n            uint256 beginHeight\n        ) = core.joinBeforeOpen(msg.sender);\n\n        if (validatorCount >= minValidatorCount) {\n            coreLifetimes[address(core)] = CoreLifetime.genesis;\n            ConsensusGatewayInterface consensusGateway = consensusGateways[_metachainId];\n            assert(address(consensusGateway) != address(0));\n            consensusGateway.declareOpenKernel(\n                address(core),\n                feeGasPrice,\n                feeGasLimit\n            );\n\n            emit CoreLifetimeUpdated(\n                address(core),\n                uint256(CoreLifetime.genesis)\n            );\n        }\n\n        emit ValidatorJoined(\n            msg.sender,\n            address(core),\n            beginHeight,\n            validatorReputation\n        );\n    }\n\n    /**\n     * @notice Validator logs out. This is called by validator address.\n     *\n     * @dev Function requires:\n     *          - metachain id should not be 0.\n     *          - core address should not be 0.\n     *          - core should be assigned for the specified metachain id.\n     *          - core for the specified metachain id should exist.\n     *\n     * @param _metachainId Metachain id that validator wants to logout.\n     * @param _core Core address that validator wants to logout.\n     */\n    function logout(\n        bytes32 _metachainId,\n        CoreInterface _core\n    )\n        external\n    {\n        require(\n            _metachainId != bytes32(0),\n            \"Metachain id is 0.\"\n        );\n\n        require(\n            _core != CoreInterface(0),\n            \"Core is 0.\"\n        );\n\n        require(\n            assignments[_metachainId] == _core,\n            \"Core is not assigned for the specified metachain id.\"\n        );\n\n        require(\n            isCoreRunning(_core),\n            \"Core lifetime status must be genesis or active.\"\n        );\n\n        uint256 withdrawalBlockHeight = reputation.deregister(msg.sender);\n\n        uint256 endHeight = _core.logout(msg.sender);\n\n        _core.logout(msg.sender);\n\n        emit ValidatorLoggedOut(msg.sender, endHeight, withdrawalBlockHeight);\n    }\n\n    /** @notice Creates a new meta chain.\n     *         This can be called only by axiom.\n     *\n     * @dev Function requires:\n     *          - msg.sender should be axiom contract.\n     *          - core is not assigned to metachain.\n     *\n     * @return metachainId_ Metachain id.\n     * @return anchor_ Address of anchor.\n     * @return mosaicVersion_ Mosaic Version.\n     * @return consensusGateway_ Address of Consensus Gateway.\n     */\n    function newMetachain()\n        external\n        onlyAxiom\n        returns (\n            bytes32 metachainId_,\n            address anchor_,\n            string memory mosaicVersion_,\n            address consensusGateway_\n        )\n    {\n\n        bytes memory anchorSetupCallData = anchorSetupData(\n            ANCHOR_MAX_STATE_ROOTS,\n            address(this)\n        );\n\n        AnchorInterface anchor = AnchorInterface(axiom.deployAnchor(anchorSetupCallData));\n\n        anchor_ = address(anchor);\n        metachainId_ = hashMetachainId(anchor_);\n\n        uint256 genesisMetablockHeight = uint256(0);\n\n        Metablock storage genesisMetablock = metablockchains[metachainId_][genesisMetablockHeight];\n        genesisMetablock.metablockHash = keccak256(\n            abi.encodePacked(\n                \"Mosaic-1 Testnet Gen-1 Genesis Metablock hash\",\n                metachainId_\n            ));\n        genesisMetablock.round = MetablockRound.Committed;\n        genesisMetablock.roundBlockNumber = block.number;\n\n        metablockTips[metachainId_] = genesisMetablockHeight;\n\n        uint256 coreCreationKernelHeight = genesisMetablockHeight.add(1);\n\n        bytes memory coreSetupCallData = coreSetupData(\n            metachainId_,\n            EPOCH_LENGTH,\n            coreCreationKernelHeight, // metablock height\n            genesisMetablock.metablockHash, // parent hash\n            gasTargetDelta, // gas target\n            uint256(0), // dynasty\n            uint256(0), // accumulated gas\n            uint256(0)  // source block height\n        );\n\n        bytes memory consensusGatewaySetupCallData = consensusGatewaySetupData();\n\n        address core;\n\n        (\n            core,\n            consensusGateway_\n        ) = axiom.deployMetachainProxies(\n                coreSetupCallData,\n                consensusGatewaySetupCallData\n            );\n\n        assignments[metachainId_] = CoreInterface(core);\n        anchors[metachainId_] = anchor;\n        consensusGateways[metachainId_] = ConsensusGatewayInterface(consensusGateway_);\n\n        coreLifetimes[core] = CoreLifetime.creation;\n        mosaicVersion_ = DOMAIN_SEPARATOR_VERSION;\n\n        emit CoreLifetimeUpdated(\n            address(core),\n            uint256(CoreLifetime.creation)\n        );\n\n        emit CoreCreated(\n            address(core),\n            metachainId_,\n            minValidators,\n            joinLimit,\n            gasTargetDelta\n        );\n    }\n\n    /** Get minimum validator and join limit count. */\n    function coreValidatorThresholds()\n        external\n        view\n        returns (uint256 minimumValidatorCount_, uint256 joinLimit_)\n    {\n        minimumValidatorCount_ = minValidators;\n        joinLimit_ = joinLimit;\n    }\n    // Task: Pending functions related to halting and corrupting of core.\n\n    /**\n     * @notice It publishes the endpoint.\n     *\n     * @dev Function requires:\n     *          - only validator can call.\n     *          - validator is not slashed.\n     *          - metachain id should be valid.\n     *\n     * @param _metachainId Metachain id.\n     * @param _service Service can be ipfs, enode, etc.\n     * @param _endpoint Url for the service.\n     */\n    function publishEndpoint(\n        bytes32 _metachainId,\n        string calldata _service,\n        string calldata _endpoint\n    )\n        external\n    {\n        CoreInterface core = assignments[_metachainId];\n\n        require(\n            core != CoreInterface(0),\n            \"No core exists for the metachain id.\"\n        );\n\n        require(\n            isValidator(core, msg.sender),\n            \"Invalid validator was given.\"\n        );\n\n        emit EndpointPublished(\n            _metachainId,\n            address(core),\n            msg.sender,\n            _service,\n            _endpoint\n        );\n    }\n\n    /**\n     * @notice Get anchor address for metachain id.\n     *\n     * @param _metachainId Metachain Id\n     *\n     * @return anchor_ Anchor address.\n     */\n    function getAnchor(bytes32 _metachainId)\n        external\n        returns (address anchor_)\n    {\n        return address(anchors[_metachainId]);\n    }\n\n    /* Public functions */\n\n    /**\n     * @notice Gets metachain id.\n     *         Metachain id format :\n     *         `0x19 0x4d <mosaic-domain-separator> <metachainid-typehash>` where\n     *         0x19 signed data as per EIP-191.\n     *         0x4d is version byte for Mosaic.\n     *         <mosaic-domain-separator> format is `MosaicDomain(string name,\n     *                            string version,uint256 originChainId,\n     *                            address consensus)`.\n     *         <metachainid-typehash> format is MetachainId(address anchor).\n     *\n     *         <mosaic-domain-separator> and <metachainid-typehash> is EIP-712\n     *         complaint.\n     * @param _anchor Anchor address of the new metachain.\n     *\n     * @return metachainId_ Metachain id.\n     */\n    function hashMetachainId(address _anchor)\n        public\n        view\n        returns(bytes32 metachainId_)\n    {\n        require(\n            address(_anchor) != address(0),\n            \"Anchor address must not be 0.\"\n        );\n\n        bytes32 metachainIdHash = keccak256(\n            abi.encode(\n                METACHAIN_ID_TYPEHASH,\n                _anchor\n            )\n        );\n\n        metachainId_ = keccak256(\n            abi.encodePacked(\n                byte(0x19), // Standard ethereum prefix as per EIP-191.\n                byte(0x4d), // 'M' for Mosaic.\n                mosaicDomainSeparator,\n                metachainIdHash\n            )\n        );\n    }\n\n\n    /* Internal functions */\n\n    /**\n     * @notice Check if the core lifetime state is genesis or active.\n     * @param _core Core contract address.\n     * Returns true if the specified address is a core.\n     */\n    function isCoreRunning(CoreInterface _core)\n        internal\n        view\n        returns (bool)\n    {\n        CoreLifetime lifeTimeStatus = coreLifetimes[address(_core)];\n        return lifeTimeStatus == CoreLifetime.genesis ||\n            lifeTimeStatus == CoreLifetime.active;\n    }\n\n    function isCoreActive(CoreInterface _core)\n        internal\n        view\n        returns (bool isActive_)\n    {\n        isActive_ = coreLifetimes[address(_core)] == CoreLifetime.active;\n    }\n\n    function getChainId()\n        internal\n        pure\n        returns(uint256 chainId_)\n    {\n        assembly {\n            chainId_ := chainid()\n        }\n    }\n\n    /**\n     * @notice Starts a new committee.\n     *\n     * @param _metachainId Metachain id of a proposed metablock.\n     * @param _dislocation Hash to shuffle validators.\n     * @param _metablockHash Proposal under consideration for committee.\n     *\n     * @return committeeAddress_ Address of the committee\n     */\n    function startCommittee(\n        bytes32 _metachainId,\n        bytes32 _dislocation,\n        bytes32 _metablockHash\n    )\n        internal\n        returns (address committeeAddress_)\n    {\n        assert(committees[_metablockHash] == CommitteeInterface(0));\n\n        committees[_metablockHash] = newCommittee(\n            _metachainId,\n            committeeSize,\n            _dislocation,\n            _metablockHash\n        );\n\n        CommitteeInterface committee = committees[_metablockHash];\n\n        committeeAddress_ = address(committee);\n    }\n\n    /**\n     * @notice isValidator() function checks if the given validator is an\n     *         active validator in the given core and has not been slashed.\n     *\n     * @param _core Core to check the validator against.\n     * @param _validator Validator's address to check.\n     *\n     * @return Returns true, if the given validator is an active validator\n     *         in the given core and has not been slashed.\n     */\n    function isValidator(CoreInterface _core, address _validator)\n        internal\n        view\n        returns (bool isValidator_)\n    {\n        assert(_core != CoreInterface(0));\n\n        isValidator_ = _core.isValidator(_validator)\n            && !reputation.isSlashed(_validator);\n    }\n\n\n    /* Private functions */\n\n    function goToCommittedRound(bytes32 _metachainId)\n        private\n        returns (bytes32 metablockHash_)\n    {\n        uint256 currentHeight = metablockTips[_metachainId];\n        Metablock storage currentMetablock = metablockchains[_metachainId][currentHeight];\n\n        require(\n            currentMetablock.round == MetablockRound.CommitteeDecided,\n            \"Committee has not decided on a proposal yet.\"\n        );\n\n        currentMetablock.round = MetablockRound.Committed;\n        currentMetablock.roundBlockNumber = block.number;\n\n        metablockHash_ = currentMetablock.metablockHash;\n    }\n\n    function assertCommit(\n        CoreInterface _core,\n        bytes32 _precommit,\n        bytes32 _kernelHash,\n        bytes32 _originObservation,\n        uint256 _dynasty,\n        uint256 _accumulatedGas,\n        bytes32 _committeeLock,\n        bytes32 _source,\n        bytes32 _target,\n        uint256 _sourceBlockHeight,\n        uint256 _targetBlockHeight\n    )\n        private\n        view\n    {\n        bytes32 decision = decisions[_precommit];\n\n        require(\n            _committeeLock == keccak256(abi.encode(decision)),\n            \"Committee decision does not match with committee lock.\"\n        );\n\n        bytes32 metablockHash = CoreInterface(_core).hashMetablock(\n            _kernelHash,\n            _originObservation,\n            _dynasty,\n            _accumulatedGas,\n            _committeeLock,\n            _source,\n            _target,\n            _sourceBlockHeight,\n            _targetBlockHeight\n        );\n\n        require(\n            metablockHash == _precommit,\n            \"Input parameters do not hash to the core's precommit.\"\n        );\n    }\n\n    /**\n     * @notice Anchor a new state root for specified metachain id.\n\n     * @dev Function requires:\n     *          - anchor for specified metachain id should exist.\n     *\n     * @param _metachainId Metachain id.\n     * @param _rlpBlockHeader RLP encoded block header\n     */\n    function anchorStateRoot(\n        bytes32 _metachainId,\n        bytes memory _rlpBlockHeader\n    )\n        private\n    {\n        AnchorInterface anchor = anchors[_metachainId];\n\n        require(\n            anchor != AnchorInterface(0),\n            \"There is no anchor for the specified metachain id.\"\n        );\n\n        BlockHeader.Header memory blockHeader = BlockHeader.decodeHeader(_rlpBlockHeader);\n\n        // Anchor state root.\n        anchor.anchorStateRoot(\n            blockHeader.height,\n            blockHeader.stateRoot\n        );\n    }\n\n    /**\n     * @notice Deploys a new core contract.\n     * @param _metachainId Metachain id for which the core should be deployed.\n     * @param _epochLength Epoch length for new core.\n     * @param _height Kernel height.\n     * @param _parent Kernel parent hash.\n     * @param _gasTarget Gas target to close the meta block.\n     * @param _dynasty Committed dynasty number.\n     * @param _accumulatedGas Accumulated gas.\n     * @param _sourceBlockHeight Source block height.\n     *\n     * returns Deployed core contract address.\n     */\n    function coreSetupData(\n        bytes32 _metachainId,\n        uint256 _epochLength,\n        uint256 _height,\n        bytes32 _parent,\n        uint256 _gasTarget,\n        uint256 _dynasty,\n        uint256 _accumulatedGas,\n        uint256 _sourceBlockHeight\n    )\n        private\n        view\n        returns (bytes memory coreSetupCallData_)\n    {\n        coreSetupCallData_ = abi.encodeWithSelector(\n            CORE_SETUP_CALLPREFIX,\n            address(this),\n            _metachainId,\n            _epochLength,\n            minValidators,\n            joinLimit,\n            address(reputation),\n            _height,\n            _parent,\n            _gasTarget,\n            _dynasty,\n            _accumulatedGas,\n            _sourceBlockHeight\n        );\n    }\n\n    /**\n     * Creates anchor setup data.\n     *\n     * @param _maxStateRoots Maximum stateroots core can store.\n     * @param _consensus Address of consensus contract.\n     */\n    function anchorSetupData(\n        uint256 _maxStateRoots,\n        address _consensus\n    )\n        private\n        pure\n        returns (bytes memory anchorSetupCallData_)\n    {\n        anchorSetupCallData_ = abi.encodeWithSelector(\n            ANCHOR_SETUP_CALLPREFIX,\n            _maxStateRoots,\n            _consensus\n        );\n    }\n\n    /**\n     * Creates consensus gateway setup data.\n     */\n    function consensusGatewaySetupData()\n        private\n        pure\n        returns(bytes memory consensusGatewaySetupCallData_)\n    {\n        // todo implement this after consensus gateway implementation.\n        consensusGatewaySetupCallData_ = abi.encodeWithSelector(\n            CONSENSUS_GATEWAY_SETUP_CALL_PREFIX\n        );\n    }\n\n    /**\n     * @notice Deploys a new committee contract.\n     *\n     * @param _metachainId Metachain id of the proposed metablock.\n     * @param _committeeSize Committee size.\n     * @param _dislocation Hash to shuffle validators.\n     * @param _proposal Proposal under consideration for committee.\n     *\n     * @return Contract address of new deployed committee contract.\n     */\n    function newCommittee(\n        bytes32 _metachainId,\n        uint256 _committeeSize,\n        bytes32 _dislocation,\n        bytes32 _proposal\n    )\n        private\n        returns (CommitteeInterface committee_)\n    {\n        bytes memory committeeSetupData = abi.encodeWithSelector(\n            COMMITTEE_SETUP_CALLPREFIX,\n            _metachainId,\n            address(this),\n            _committeeSize,\n            _dislocation,\n            _proposal\n        );\n\n        committee_ = CommitteeInterface(axiom.newCommittee(committeeSetupData));\n    }\n\n    /**\n     * @notice Hashes the blocksegment [end - COMMITTEE_FORMATION_LENGTH + 1, end]\n     *         and the given metablock hash to generate a seed for committee.\n     *\n     * @param _metablockHash Metablock hash to be included in hash generation.\n     * @param _end Ending block number of the blocksegment.\n     */\n    function hashBlockSegment(\n        bytes32 _metablockHash,\n        uint256 _end\n    )\n        private\n        view\n        returns (bytes32 seed_)\n    {\n        uint256 begin = _end.add(uint256(1)).sub(COMMITTEE_FORMATION_LENGTH);\n\n        require(\n            block.number > _end && block.number < begin.add(uint256(256)),\n            \"Blocksegment is not in the most recent 256 blocks.\"\n        );\n\n        bytes32[] memory seedGenerator = new bytes32[](COMMITTEE_FORMATION_LENGTH);\n        for (uint256 i = 0; i < COMMITTEE_FORMATION_LENGTH; i = i.add(1)) {\n            seedGenerator[i] = blockhash(begin.add(i));\n        }\n\n        seed_ = keccak256(\n            abi.encodePacked(\n                _metablockHash,\n                seedGenerator\n            )\n        );\n    }\n}\n",
  "sourcePath": "/Users/abhay/Documents/projects/abhayforks/mosaic-1/contracts/consensus/Consensus.sol",
  "compiler": {
    "name": "solc",
    "version": "0.5.13+commit.5b0b510c.Emscripten.clang"
  },
  "schemaVersion": "3.0.17",
  "updatedAt": "2020-03-21T06:48:34.648Z",
  "devdoc": {
    "methods": {
      "commitMetablock(bytes32,bytes,bytes32,bytes32,uint256,uint256,bytes32,bytes32,bytes32,uint256,uint256)": {
        "details": "Function requires:         - block header should match with source blockhash         - metachain id should not be 0         - a core for the specified metachain id should exist         - precommit for the corresponding core should exist         - committee should have been formed for the precommit         - committee decision should match with the specified           committee lock         - committee decision should match with the core's precommit         - the given metablock parameters should match with the           core's precommit.         - anchor contract for the given metachain id should exist",
        "params": {
          "_accumulatedGas": "The total consumed gas on auxiliary within this                       meta-block.",
          "_committeeLock": "The committee lock that hashes the transaction                      root on the auxiliary chain.",
          "_dynasty": "The dynasty number where the meta-block closes                on the auxiliary chain.",
          "_kernelHash": "Kernel hash",
          "_metachainId": "Metachain id.",
          "_originObservation": "Observation of the origin chain.",
          "_rlpBlockHeader": "RLP encoded block header.",
          "_source": "Source block hash.",
          "_sourceBlockHeight": "Source block height.",
          "_target": "Target block hash.",
          "_targetBlockHeight": "Target block height."
        }
      },
      "enterCommittee(bytes32,address,address,address)": {
        "details": "Function requires:         - the given metachain id is not 0         - the given core's address is not 0         - the given validator's address is not 0         - the given 'further' validator's address is not 0         - the given core is running         - valid validator is given             - is active in the given core             - has not been slashed         - the corresponding metablock's round is 'CommitteeFormed'",
        "params": {
          "_furtherMember": "Validator address that is further member                      compared to the `_validator` address",
          "_metachainId": "Metachain id for the committee to enter.",
          "_validator": "Validator address to enter."
        }
      },
      "formCommittee(bytes32)": {
        "details": "Function requires:         - the given metachain id is not 0         - assigned core has precommitted a metablock         - committee formation height passed         - committee formation blocksegment must be in the most           recent 256 blocks."
      },
      "getAnchor(bytes32)": {
        "params": {
          "_metachainId": "Metachain Id"
        },
        "return": "anchor_ Anchor address."
      },
      "hashMetachainId(address)": {
        "params": {
          "_anchor": "Anchor address of the new metachain."
        },
        "return": "metachainId_ Metachain id."
      },
      "join(bytes32,address)": {
        "details": "Function requires:         - Core should exist for given metachain         - core lifetime status must be genesis or active",
        "params": {
          "_metachainId": "Metachain id that validator wants to join.",
          "_withdrawalAddress": "A withdrawal address of newly joined validator."
        }
      },
      "joinDuringCreation(bytes32,address)": {
        "details": "Function requires:         - core should exist for given metachain         - core life time should be in creation state",
        "params": {
          "_metachainId": "Metachain id that validator wants to join.",
          "_withdrawalAddress": "A withdrawal address of newly joined validator."
        }
      },
      "logout(bytes32,address)": {
        "details": "Function requires:         - metachain id should not be 0.         - core address should not be 0.         - core should be assigned for the specified metachain id.         - core for the specified metachain id should exist.",
        "params": {
          "_core": "Core address that validator wants to logout.",
          "_metachainId": "Metachain id that validator wants to logout."
        }
      },
      "newMetachain()": {
        "details": "Function requires:         - msg.sender should be axiom contract.         - core is not assigned to metachain.",
        "return": "metachainId_ Metachain id.anchor_ Address of anchor.mosaicVersion_ Mosaic Version.consensusGateway_ Address of Consensus Gateway."
      },
      "precommitMetablock(bytes32,uint256,bytes32)": {
        "details": "Function requires:         - the given metachain id is not 0         - the given metablock's hash is not 0         - the given metablock's height is +1 of the current           height of the metablockchain         - the caller is the assigned core of the metablockchain         - the caller (core) is running         - the current (tip) metablock of the metablockchain is committed"
      },
      "publishEndpoint(bytes32,string,string)": {
        "details": "Function requires:         - only validator can call.         - validator is not slashed.         - metachain id should be valid.",
        "params": {
          "_endpoint": "Url for the service.",
          "_metachainId": "Metachain id.",
          "_service": "Service can be ipfs, enode, etc."
        }
      },
      "registerCommitteeDecision(bytes32,bytes32)": {
        "params": {
          "_committeeDecision": "Decision of a caller committee."
        }
      },
      "setup(uint256,uint256,uint256,uint256,uint256,address)": {
        "details": "Function requires:         - Consensus contract should not be already setup.         - Committee size should be greater than 0.         - Minimum validator size must be greater or equal to 5.         - Maximum validator size should be greater or equal to minimum           validator size.         - Gas target delta should be greater than 0.         - Coin base split per mille should be in range: 0..1000.         - Reputation contract address should be 0.",
        "params": {
          "_coinbaseSplitPerMille": "Coinbase split per mille.",
          "_committeeSize": "Max committee size that can be formed.",
          "_gasTargetDelta": "Gas target delta to open new metablock.",
          "_joinLimit": "Maximum number of validators that can join a core.",
          "_minValidators": "Minimum number of validators that must join a                      created core to open.",
          "_reputation": "Reputation contract address."
        }
      }
    }
  },
  "userdoc": {
    "methods": {
      "commitMetablock(bytes32,bytes,bytes32,bytes32,uint256,uint256,bytes32,bytes32,bytes32,uint256,uint256)": {
        "notice": "Commits a metablock."
      },
      "coreValidatorThresholds()": {
        "notice": "Get minimum validator and join limit count. "
      },
      "enterCommittee(bytes32,address,address,address)": {
        "notice": "Enters a validator into a committee."
      },
      "formCommittee(bytes32)": {
        "notice": "Forms a new committee to verify the precommit."
      },
      "getAnchor(bytes32)": {
        "notice": "Get anchor address for metachain id."
      },
      "hashMetachainId(address)": {
        "notice": "Gets metachain id.        Metachain id format :        `0x19 0x4d <mosaic-domain-separator> <metachainid-typehash>` where        0x19 signed data as per EIP-191.        0x4d is version byte for Mosaic.        <mosaic-domain-separator> format is `MosaicDomain(string name,                           string version,uint256 originChainId,                           address consensus)`.        <metachainid-typehash> format is MetachainId(address anchor).     *         <mosaic-domain-separator> and <metachainid-typehash> is EIP-712        complaint."
      },
      "join(bytes32,address)": {
        "notice": "Validator joins the core, when core lifetime status is genesis        or active. This is called by validator address."
      },
      "joinDuringCreation(bytes32,address)": {
        "notice": "Validator joins the core, when core lifetime status is creation.        This is called by validator address."
      },
      "logout(bytes32,address)": {
        "notice": "Validator logs out. This is called by validator address."
      },
      "newMetachain()": {
        "notice": "Creates a new meta chain.        This can be called only by axiom."
      },
      "precommitMetablock(bytes32,uint256,bytes32)": {
        "notice": "Precommits a metablock."
      },
      "publishEndpoint(bytes32,string,string)": {
        "notice": "It publishes the endpoint."
      },
      "registerCommitteeDecision(bytes32,bytes32)": {
        "notice": "Registers committee decision."
      },
      "setup(uint256,uint256,uint256,uint256,uint256,address)": {
        "notice": "Setup consensus contract. Setup method can be called only once."
      }
    }
  }
}