{
  "contractName": "ConsensusCogatewayDouble",
  "abi": [
    {
      "anonymous": false,
      "inputs": [
        {
          "indexed": false,
          "internalType": "address",
          "name": "remoteGateway",
          "type": "address"
        },
        {
          "indexed": false,
          "internalType": "uint256",
          "name": "blockNumber",
          "type": "uint256"
        }
      ],
      "name": "GatewayProven",
      "type": "event"
    },
    {
      "constant": true,
      "inputs": [],
      "name": "DEPOSIT_INTENT_TYPEHASH",
      "outputs": [
        {
          "internalType": "bytes32",
          "name": "",
          "type": "bytes32"
        }
      ],
      "payable": false,
      "stateMutability": "view",
      "type": "function"
    },
    {
      "constant": true,
      "inputs": [],
      "name": "DOMAIN_SEPARATOR_VERSION",
      "outputs": [
        {
          "internalType": "string",
          "name": "",
          "type": "string"
        }
      ],
      "payable": false,
      "stateMutability": "view",
      "type": "function"
    },
    {
      "constant": true,
      "inputs": [],
      "name": "INBOX_OFFSET",
      "outputs": [
        {
          "internalType": "uint8",
          "name": "",
          "type": "uint8"
        }
      ],
      "payable": false,
      "stateMutability": "view",
      "type": "function"
    },
    {
      "constant": true,
      "inputs": [],
      "name": "KERNEL_INTENT_TYPEHASH",
      "outputs": [
        {
          "internalType": "bytes32",
          "name": "",
          "type": "bytes32"
        }
      ],
      "payable": false,
      "stateMutability": "view",
      "type": "function"
    },
    {
      "constant": true,
      "inputs": [],
      "name": "MESSAGE_TYPEHASH",
      "outputs": [
        {
          "internalType": "bytes32",
          "name": "",
          "type": "bytes32"
        }
      ],
      "payable": false,
      "stateMutability": "view",
      "type": "function"
    },
    {
      "constant": true,
      "inputs": [],
      "name": "MMB_CHANNEL_TYPEHASH",
      "outputs": [
        {
          "internalType": "bytes32",
          "name": "",
          "type": "bytes32"
        }
      ],
      "payable": false,
      "stateMutability": "view",
      "type": "function"
    },
    {
      "constant": true,
      "inputs": [],
      "name": "MMB_DOMAIN_SEPARATOR_NAME",
      "outputs": [
        {
          "internalType": "string",
          "name": "",
          "type": "string"
        }
      ],
      "payable": false,
      "stateMutability": "view",
      "type": "function"
    },
    {
      "constant": true,
      "inputs": [],
      "name": "MMB_DOMAIN_SEPARATOR_TYPEHASH",
      "outputs": [
        {
          "internalType": "bytes32",
          "name": "",
          "type": "bytes32"
        }
      ],
      "payable": false,
      "stateMutability": "view",
      "type": "function"
    },
    {
      "constant": true,
      "inputs": [],
      "name": "MMB_DOMAIN_SEPARATOR_VERSION",
      "outputs": [
        {
          "internalType": "string",
          "name": "",
          "type": "string"
        }
      ],
      "payable": false,
      "stateMutability": "view",
      "type": "function"
    },
    {
      "constant": true,
      "inputs": [],
      "name": "OUTBOX_OFFSET",
      "outputs": [
        {
          "internalType": "uint8",
          "name": "",
          "type": "uint8"
        }
      ],
      "payable": false,
      "stateMutability": "view",
      "type": "function"
    },
    {
      "constant": true,
      "inputs": [],
      "name": "WITHDRAW_INTENT_TYPEHASH",
      "outputs": [
        {
          "internalType": "bytes32",
          "name": "",
          "type": "bytes32"
        }
      ],
      "payable": false,
      "stateMutability": "view",
      "type": "function"
    },
    {
      "constant": false,
      "inputs": [
        {
          "internalType": "uint256",
          "name": "_amount",
          "type": "uint256"
        },
        {
          "internalType": "address payable",
          "name": "_beneficiary",
          "type": "address"
        },
        {
          "internalType": "uint256",
          "name": "_feeGasPrice",
          "type": "uint256"
        },
        {
          "internalType": "uint256",
          "name": "_feeGasLimit",
          "type": "uint256"
        },
        {
          "internalType": "address",
          "name": "_depositor",
          "type": "address"
        },
        {
          "internalType": "uint256",
          "name": "_blockNumber",
          "type": "uint256"
        },
        {
          "internalType": "bytes",
          "name": "_rlpParentNodes",
          "type": "bytes"
        }
      ],
      "name": "confirmDeposit",
      "outputs": [
        {
          "internalType": "bytes32",
          "name": "messageHash_",
          "type": "bytes32"
        }
      ],
      "payable": false,
      "stateMutability": "nonpayable",
      "type": "function"
    },
    {
      "constant": false,
      "inputs": [
        {
          "internalType": "uint256",
          "name": "_kernelHeight",
          "type": "uint256"
        },
        {
          "internalType": "bytes32",
          "name": "_kernelHash",
          "type": "bytes32"
        },
        {
          "internalType": "uint256",
          "name": "_feeGasPrice",
          "type": "uint256"
        },
        {
          "internalType": "uint256",
          "name": "_feeGasLimit",
          "type": "uint256"
        },
        {
          "internalType": "address",
          "name": "_sender",
          "type": "address"
        },
        {
          "internalType": "uint256",
          "name": "_blockNumber",
          "type": "uint256"
        },
        {
          "internalType": "bytes",
          "name": "_rlpParentNodes",
          "type": "bytes"
        }
      ],
      "name": "confirmOpenKernel",
      "outputs": [
        {
          "internalType": "bytes32",
          "name": "messageHash_",
          "type": "bytes32"
        }
      ],
      "payable": false,
      "stateMutability": "nonpayable",
      "type": "function"
    },
    {
      "constant": true,
      "inputs": [],
      "name": "currentMetablockHeight",
      "outputs": [
        {
          "internalType": "uint256",
          "name": "",
          "type": "uint256"
        }
      ],
      "payable": false,
      "stateMutability": "view",
      "type": "function"
    },
    {
      "constant": true,
      "inputs": [],
      "name": "encodedAccountPath",
      "outputs": [
        {
          "internalType": "bytes",
          "name": "",
          "type": "bytes"
        }
      ],
      "payable": false,
      "stateMutability": "view",
      "type": "function"
    },
    {
      "constant": true,
      "inputs": [],
      "name": "getCoconsensus",
      "outputs": [
        {
          "internalType": "contract CoconsensusInterface",
          "name": "",
          "type": "address"
        }
      ],
      "payable": false,
      "stateMutability": "view",
      "type": "function"
    },
    {
      "constant": true,
      "inputs": [],
      "name": "getRemoteGatewayLatestProvenBlockNumber",
      "outputs": [
        {
          "internalType": "uint256",
          "name": "blockNumber_",
          "type": "uint256"
        }
      ],
      "payable": false,
      "stateMutability": "view",
      "type": "function"
    },
    {
      "constant": true,
      "inputs": [
        {
          "internalType": "bytes32",
          "name": "_metachainId",
          "type": "bytes32"
        },
        {
          "internalType": "address",
          "name": "_outbox",
          "type": "address"
        },
        {
          "internalType": "address",
          "name": "_inbox",
          "type": "address"
        }
      ],
      "name": "hashChannelIdentifier",
      "outputs": [
        {
          "internalType": "bytes32",
          "name": "channelIdentifier_",
          "type": "bytes32"
        }
      ],
      "payable": false,
      "stateMutability": "pure",
      "type": "function"
    },
    {
      "constant": true,
      "inputs": [
        {
          "internalType": "address",
          "name": "_valueToken",
          "type": "address"
        },
        {
          "internalType": "uint256",
          "name": "_amount",
          "type": "uint256"
        },
        {
          "internalType": "address",
          "name": "_beneficiary",
          "type": "address"
        }
      ],
      "name": "hashDepositIntent",
      "outputs": [
        {
          "internalType": "bytes32",
          "name": "depositIntentHash_",
          "type": "bytes32"
        }
      ],
      "payable": false,
      "stateMutability": "pure",
      "type": "function"
    },
    {
      "constant": true,
      "inputs": [
        {
          "internalType": "uint256",
          "name": "_height",
          "type": "uint256"
        },
        {
          "internalType": "bytes32",
          "name": "_kernelHash",
          "type": "bytes32"
        }
      ],
      "name": "hashKernelIntent",
      "outputs": [
        {
          "internalType": "bytes32",
          "name": "kernelIntentHash_",
          "type": "bytes32"
        }
      ],
      "payable": false,
      "stateMutability": "pure",
      "type": "function"
    },
    {
      "constant": true,
      "inputs": [
        {
          "internalType": "address",
          "name": "_valueToken",
          "type": "address"
        },
        {
          "internalType": "address",
          "name": "_utilityToken",
          "type": "address"
        },
        {
          "internalType": "uint256",
          "name": "_amount",
          "type": "uint256"
        },
        {
          "internalType": "address",
          "name": "_beneficiary",
          "type": "address"
        }
      ],
      "name": "hashWithdrawIntent",
      "outputs": [
        {
          "internalType": "bytes32",
          "name": "withdrawIntentHash_",
          "type": "bytes32"
        }
      ],
      "payable": false,
      "stateMutability": "pure",
      "type": "function"
    },
    {
      "constant": true,
      "inputs": [],
      "name": "inboundChannelIdentifier",
      "outputs": [
        {
          "internalType": "bytes32",
          "name": "",
          "type": "bytes32"
        }
      ],
      "payable": false,
      "stateMutability": "view",
      "type": "function"
    },
    {
      "constant": true,
      "inputs": [
        {
          "internalType": "bytes32",
          "name": "",
          "type": "bytes32"
        }
      ],
      "name": "inbox",
      "outputs": [
        {
          "internalType": "bool",
          "name": "",
          "type": "bool"
        }
      ],
      "payable": false,
      "stateMutability": "view",
      "type": "function"
    },
    {
      "constant": true,
      "inputs": [
        {
          "internalType": "bytes32",
          "name": "_intentHash",
          "type": "bytes32"
        },
        {
          "internalType": "uint256",
          "name": "_nonce",
          "type": "uint256"
        },
        {
          "internalType": "uint256",
          "name": "_feeGasPrice",
          "type": "uint256"
        },
        {
          "internalType": "uint256",
          "name": "_feeGasLimit",
          "type": "uint256"
        },
        {
          "internalType": "address",
          "name": "_sender",
          "type": "address"
        }
      ],
      "name": "inboxMessageHash",
      "outputs": [
        {
          "internalType": "bytes32",
          "name": "messageHash_",
          "type": "bytes32"
        }
      ],
      "payable": false,
      "stateMutability": "view",
      "type": "function"
    },
    {
      "constant": true,
      "inputs": [
        {
          "internalType": "address",
          "name": "",
          "type": "address"
        }
      ],
      "name": "inboxNonces",
      "outputs": [
        {
          "internalType": "uint256",
          "name": "",
          "type": "uint256"
        }
      ],
      "payable": false,
      "stateMutability": "view",
      "type": "function"
    },
    {
      "constant": true,
      "inputs": [
        {
          "internalType": "uint256",
          "name": "",
          "type": "uint256"
        }
      ],
      "name": "kernelHashes",
      "outputs": [
        {
          "internalType": "bytes32",
          "name": "",
          "type": "bytes32"
        }
      ],
      "payable": false,
      "stateMutability": "view",
      "type": "function"
    },
    {
      "constant": true,
      "inputs": [],
      "name": "messageInbox",
      "outputs": [
        {
          "internalType": "address",
          "name": "",
          "type": "address"
        }
      ],
      "payable": false,
      "stateMutability": "view",
      "type": "function"
    },
    {
      "constant": true,
      "inputs": [],
      "name": "messageOutbox",
      "outputs": [
        {
          "internalType": "address",
          "name": "",
          "type": "address"
        }
      ],
      "payable": false,
      "stateMutability": "view",
      "type": "function"
    },
    {
      "constant": true,
      "inputs": [],
      "name": "most",
      "outputs": [
        {
          "internalType": "contract ERC20I",
          "name": "",
          "type": "address"
        }
      ],
      "payable": false,
      "stateMutability": "view",
      "type": "function"
    },
    {
      "constant": true,
      "inputs": [],
      "name": "outboundChannelIdentifier",
      "outputs": [
        {
          "internalType": "bytes32",
          "name": "",
          "type": "bytes32"
        }
      ],
      "payable": false,
      "stateMutability": "view",
      "type": "function"
    },
    {
      "constant": true,
      "inputs": [
        {
          "internalType": "bytes32",
          "name": "",
          "type": "bytes32"
        }
      ],
      "name": "outbox",
      "outputs": [
        {
          "internalType": "bool",
          "name": "",
          "type": "bool"
        }
      ],
      "payable": false,
      "stateMutability": "view",
      "type": "function"
    },
    {
      "constant": true,
      "inputs": [
        {
          "internalType": "bytes32",
          "name": "_intentHash",
          "type": "bytes32"
        },
        {
          "internalType": "uint256",
          "name": "_nonce",
          "type": "uint256"
        },
        {
          "internalType": "uint256",
          "name": "_feeGasPrice",
          "type": "uint256"
        },
        {
          "internalType": "uint256",
          "name": "_feeGasLimit",
          "type": "uint256"
        },
        {
          "internalType": "address",
          "name": "_sender",
          "type": "address"
        }
      ],
      "name": "outboxMessageHash",
      "outputs": [
        {
          "internalType": "bytes32",
          "name": "messageHash_",
          "type": "bytes32"
        }
      ],
      "payable": false,
      "stateMutability": "view",
      "type": "function"
    },
    {
      "constant": true,
      "inputs": [
        {
          "internalType": "address",
          "name": "",
          "type": "address"
        }
      ],
      "name": "outboxNonces",
      "outputs": [
        {
          "internalType": "uint256",
          "name": "",
          "type": "uint256"
        }
      ],
      "payable": false,
      "stateMutability": "view",
      "type": "function"
    },
    {
      "constant": true,
      "inputs": [],
      "name": "outboxStorageIndex",
      "outputs": [
        {
          "internalType": "uint8",
          "name": "",
          "type": "uint8"
        }
      ],
      "payable": false,
      "stateMutability": "view",
      "type": "function"
    },
    {
      "constant": false,
      "inputs": [
        {
          "internalType": "uint256",
          "name": "_blockNumber",
          "type": "uint256"
        },
        {
          "internalType": "bytes",
          "name": "_rlpAccount",
          "type": "bytes"
        },
        {
          "internalType": "bytes",
          "name": "_rlpParentNodes",
          "type": "bytes"
        }
      ],
      "name": "proveConsensusGateway",
      "outputs": [],
      "payable": false,
      "stateMutability": "nonpayable",
      "type": "function"
    },
    {
      "constant": false,
      "inputs": [
        {
          "internalType": "bytes32",
          "name": "_metachainId",
          "type": "bytes32"
        },
        {
          "internalType": "address",
          "name": "_coconsensus",
          "type": "address"
        },
        {
          "internalType": "contract ERC20I",
          "name": "_utBase",
          "type": "address"
        },
        {
          "internalType": "address",
          "name": "_consensusGateway",
          "type": "address"
        },
        {
          "internalType": "uint8",
          "name": "_outboxStorageIndex",
          "type": "uint8"
        },
        {
          "internalType": "uint256",
          "name": "_maxStorageRootItems",
          "type": "uint256"
        },
        {
          "internalType": "uint256",
          "name": "_metablockHeight",
          "type": "uint256"
        }
      ],
      "name": "setup",
      "outputs": [],
      "payable": false,
      "stateMutability": "nonpayable",
      "type": "function"
    },
    {
      "constant": true,
      "inputs": [],
      "name": "stateRootProvider",
      "outputs": [
        {
          "internalType": "contract StateRootInterface",
          "name": "",
          "type": "address"
        }
      ],
      "payable": false,
      "stateMutability": "view",
      "type": "function"
    },
    {
      "constant": true,
      "inputs": [],
      "name": "storageAccount",
      "outputs": [
        {
          "internalType": "address",
          "name": "",
          "type": "address"
        }
      ],
      "payable": false,
      "stateMutability": "view",
      "type": "function"
    },
    {
      "constant": true,
      "inputs": [
        {
          "internalType": "uint256",
          "name": "",
          "type": "uint256"
        }
      ],
      "name": "storageRoots",
      "outputs": [
        {
          "internalType": "bytes32",
          "name": "",
          "type": "bytes32"
        }
      ],
      "payable": false,
      "stateMutability": "view",
      "type": "function"
    },
    {
      "constant": true,
      "inputs": [],
      "name": "valueToken",
      "outputs": [
        {
          "internalType": "address",
          "name": "",
          "type": "address"
        }
      ],
      "payable": false,
      "stateMutability": "view",
      "type": "function"
    },
    {
      "constant": false,
      "inputs": [
        {
          "internalType": "uint256",
          "name": "_amount",
          "type": "uint256"
        },
        {
          "internalType": "address",
          "name": "_beneficiary",
          "type": "address"
        },
        {
          "internalType": "uint256",
          "name": "_feeGasPrice",
          "type": "uint256"
        },
        {
          "internalType": "uint256",
          "name": "_feeGasLimit",
          "type": "uint256"
        }
      ],
      "name": "withdraw",
      "outputs": [
        {
          "internalType": "bytes32",
          "name": "messageHash_",
          "type": "bytes32"
        }
      ],
      "payable": false,
      "stateMutability": "nonpayable",
      "type": "function"
    },
    {
      "constant": false,
      "inputs": [
        {
          "internalType": "uint256",
          "name": "_blockNumber",
          "type": "uint256"
        },
        {
          "internalType": "bytes32",
          "name": "_storageRoot",
          "type": "bytes32"
        }
      ],
      "name": "setStorageRoot",
      "outputs": [],
      "payable": false,
      "stateMutability": "nonpayable",
      "type": "function"
    },
    {
      "constant": false,
      "inputs": [
        {
          "internalType": "bytes32",
          "name": "_inboundChannelIdentifier",
          "type": "bytes32"
        }
      ],
      "name": "setInboundChannelIdentifier",
      "outputs": [],
      "payable": false,
      "stateMutability": "nonpayable",
      "type": "function"
    },
    {
      "constant": false,
      "inputs": [
        {
          "internalType": "uint256",
          "name": "_metablockHeight",
          "type": "uint256"
        }
      ],
      "name": "setMetablock",
      "outputs": [],
      "payable": false,
      "stateMutability": "nonpayable",
      "type": "function"
    },
    {
      "constant": false,
      "inputs": [
        {
          "internalType": "address",
          "name": "_valueToken",
          "type": "address"
        }
      ],
      "name": "setValueToken",
      "outputs": [],
      "payable": false,
      "stateMutability": "nonpayable",
      "type": "function"
    }
  ],
  "bytecode": "0x6080604052601180546001600160a01b031916614d0017905534801561002457600080fd5b506135bd806100346000396000f3fe608060405234801561001057600080fd5b506004361061027f5760003560e01c8063928a735a1161015c578063d31b5968116100ce578063effff82f11610087578063effff82f146108d5578063f02a0e90146108dd578063f0df1e73146108e5578063f11a2979146108ed578063f732ecff1461090a578063fe08d818146109125761027f565b8063d31b596814610821578063d4d1118514610847578063ddd335eb1461084f578063e2aa85591461088d578063efa9c7c9146108c5578063efefe0eb146108cd5761027f565b8063b1c91e2111610120578063b1c91e2114610777578063b4907ddc14610777578063bd3623741461077f578063befce88e1461079c578063bf4dc22f146107bf578063c9a29f3c146107e55761027f565b8063928a735a146106905780639605795014610698578063965ef01b146107335780639f0b7dfe1461073b578063ae6402851461076f5761027f565b8063523ce242116101f5578063610ebfe2116101b9578063610ebfe21461058b5780637b6ba003146105a85780637ddcca171461064657806382b302791461064e57806385248b8a1461066b5780638b7519f0146106735761027f565b8063523ce242146104d357806352605a741461050457806358d7889c146105555780635c1dc83a1461055d5780635ecec564146105835761027f565b806320e1855f1161024757806320e1855f1461046c57806323609af7146104905780632fe05ad91461049857806336c41330146104a05780633b7f2f19146104c357806346e356b1146104cb5761027f565b806302de1ba9146102845780630847901d146102cc57806309bf5f38146103935780630e31eb60146103b157806316ad76b8146103ef575b600080fd5b6102ba6004803603606081101561029a57600080fd5b506001600160a01b0381358116916020810135916040909101351661091a565b60408051918252519081900360200190f35b610391600480360360608110156102e257600080fd5b81359190810190604081016020820135600160201b81111561030357600080fd5b82018360208201111561031557600080fd5b803590602001918460018302840111600160201b8311171561033657600080fd5b919390929091602081019035600160201b81111561035357600080fd5b82018360208201111561036557600080fd5b803590602001918460018302840111600160201b8311171561038657600080fd5b50909250905061097f565b005b61039b6109fa565b6040805160ff9092168252519081900360200190f35b6102ba600480360360a08110156103c757600080fd5b50803590602081013590604081013590606081013590608001356001600160a01b0316610a0a565b6103f7610a26565b6040805160208082528351818301528351919283929083019185019080838360005b83811015610431578181015183820152602001610419565b50505050905090810190601f16801561045e5780820380516001836020036101000a031916815260200191505b509250505060405180910390f35b610474610ab4565b604080516001600160a01b039092168252519081900360200190f35b610474610ac3565b6102ba610ad3565b610391600480360360408110156104b657600080fd5b5080359060200135610aee565b6102ba610b00565b6102ba610b06565b6104f0600480360360208110156104e957600080fd5b5035610b21565b604080519115158252519081900360200190f35b610391600480360360e081101561051a57600080fd5b508035906001600160a01b03602082013581169160408101358216916060820135169060ff6080820135169060a08101359060c00135610b36565b610474610c32565b6102ba6004803603602081101561057357600080fd5b50356001600160a01b0316610c41565b6102ba610c53565b6102ba600480360360208110156105a157600080fd5b5035610c59565b6102ba600480360360e08110156105be57600080fd5b8135916001600160a01b0360208201358116926040830135926060810135926080820135169160a0820135919081019060e0810160c0820135600160201b81111561060857600080fd5b82018360208201111561061a57600080fd5b803590602001918460018302840111600160201b8311171561063b57600080fd5b509092509050610c6b565b6102ba610f1e565b6103916004803603602081101561066457600080fd5b5035610f2d565b6102ba610f32565b6103916004803603602081101561068957600080fd5b5035610f4d565b61039b610f52565b6102ba600480360360e08110156106ae57600080fd5b8135916020810135916040820135916060810135916001600160a01b036080830135169160a08101359181019060e0810160c0820135600160201b8111156106f557600080fd5b82018360208201111561070757600080fd5b803590602001918460018302840111600160201b8311171561072857600080fd5b509092509050610f57565b61047461110f565b6102ba6004803603606081101561075157600080fd5b508035906001600160a01b036020820135811691604001351661111e565b6103f76112dd565b6103f7611303565b6104f06004803603602081101561079557600080fd5b5035611320565b6102ba600480360360408110156107b257600080fd5b5080359060200135611335565b610391600480360360208110156107d557600080fd5b50356001600160a01b0316611384565b6102ba600480360360808110156107fb57600080fd5b506001600160a01b038135811691602081013582169160408201359160600135166113a6565b6102ba6004803603602081101561083757600080fd5b50356001600160a01b0316611412565b610474611424565b6102ba600480360360a081101561086557600080fd5b50803590602081013590604081013590606081013590608001356001600160a01b0316611433565b6102ba600480360360808110156108a357600080fd5b508035906001600160a01b036020820135169060408101359060600135611445565b6102ba6115f6565b610474611611565b610474611620565b6102ba61162f565b6102ba611635565b6102ba6004803603602081101561090357600080fd5b5035611650565b6102ba611662565b61039b61167d565b600060405180806133b860449139604080519182900360440182206020808401919091526001600160a01b03978816838301526060830196909652959093166080808501919091528551808503909101815260a0909301909452508051910120919050565b6109f38585858080601f01602080910402602001604051908101604052809392919081815260200183838082843760009201919091525050604080516020601f8901819004810282018101909252878152925087915086908190840183828082843760009201919091525061168292505050565b5050505050565b600d54600160a01b900460ff1681565b6000610a1c8686868686600254611692565b9695505050505050565b6009805460408051602060026001851615610100026000190190941693909304601f81018490048402820184019092528181529291830182828015610aac5780601f10610a8157610100808354040283529160200191610aac565b820191906000526020600020905b815481529060010190602001808311610a8f57829003601f168201915b505050505081565b6007546001600160a01b031681565b6011546001600160a01b03165b90565b6040518060366132b182396036019050604051809103902081565b6000918252600a602052604090912055565b60105481565b60405180606061332d82396060019050604051809103902081565b60016020526000908152604090205460ff1681565b610b408582611745565b610b4a87856117c5565b6000866001600160a01b0316637feb51d9896040518263ffffffff1660e01b815260040180828152602001915050602060405180830381600087803b158015610b9257600080fd5b505af1158015610ba6573d6000803e3d6000fd5b505050506040513d6020811015610bbc57600080fd5b505190506001600160a01b038116610c1b576040805162461bcd60e51b815260206004820152601d60248201527f416e63686f722061646472657373206d757374206e6f7420626520302e000000604482015290519081900360640190fd5b610c2888868684876118f2565b5050505050505050565b600f546001600160a01b031681565b600e6020526000908152604090205481565b600c5481565b600a6020526000908152604090205481565b6000805a905089610cad5760405162461bcd60e51b81526004018080602001828103825260288152602001806132016028913960400191505060405180910390fd5b6001600160a01b038916610cf25760405162461bcd60e51b815260040180806020018281038252602281526020018061330b6022913960400191505060405180910390fd5b6001600160a01b038616610d4d576040805162461bcd60e51b815260206004820181905260248201527f4465706f7369746f722061646472657373206d757374206e6f7420626520302e604482015290519081900360640190fd5b336000908152600e6020526040902054610d6e81600163ffffffff611a7316565b336000908152600e6020526040902055601254610dda90610d99906001600160a01b03168d8d61091a565b828b8b8b8b8b8b8080601f016020809104026020016040519081016040528093929190818152602001838380828437600092019190915250611a8e92505050565b92506000610def5a849063ffffffff611b6916565b90506000610dfe828c8c611b7e565b90506000610e128e8363ffffffff611b6916565b600f54604080516340c10f1960e01b81523360048201526024810186905290519293506001600160a01b03909116916340c10f199160448082019260009290919082900301818387803b158015610e6857600080fd5b505af1158015610e7c573d6000803e3d6000fd5b50505050600f60009054906101000a90046001600160a01b03166001600160a01b03166340c10f198e836040518363ffffffff1660e01b815260040180836001600160a01b03166001600160a01b0316815260200182815260200192505050600060405180830381600087803b158015610ef557600080fd5b505af1158015610f09573d6000803e3d6000fd5b50505050505050505098975050505050505050565b6000610f28611bb9565b905090565b600c55565b60405180602f6132298239602f019050604051809103902081565b601055565b600481565b60006001600160a01b038516610fab576040805162461bcd60e51b815260206004820152601460248201527329b2b73232b91030b2323932b9b99034b990181760611b604482015290519081900360640190fd5b87610ff1576040805162461bcd60e51b815260206004820152601160248201527025b2b93732b6103430b9b41034b990181760791b604482015290519081900360640190fd5b601054611005908a9063ffffffff611b6916565b600114611052576040805162461bcd60e51b815260206004820152601660248201527524b73b30b634b21035b2b93732b6103432b4b3b43a1760511b604482015290519081900360640190fd5b60108990556001600160a01b0385166000908152600e602052604090205461108181600163ffffffff611a7316565b6001600160a01b0387166000908152600e60205260408120919091556110a78b8b611335565b90506110ee81838b8b8b8b8b8b8080601f016020809104026020016040519081016040528093929190818152602001838380828437600092019190915250611a8e92505050565b60009b8c5260136020526040909b2099909955509798975050505050505050565b6003546001600160a01b031681565b60008060405180806132b160369139604080519182900360360182206020808401919091526001600160a01b03808916848401528716606080850191909152825180850390910181526080909301918290528251920191909120925090508060596132588239605901905060405180910390206040518060400160405280600a8152602001694d6f736169632d42757360b01b815250604051806040016040528060018152602001600360fc1b8152508784604051602001808681526020018060200180602001858152602001848152602001838103835287818151815260200191508051906020019080838360005b8381101561122657818101518382015260200161120e565b50505050905090810190601f1680156112535780820380516001836020036101000a031916815260200191505b50838103825286518152865160209182019188019080838360005b8381101561128657818101518382015260200161126e565b50505050905090810190601f1680156112b35780820380516001836020036101000a031916815260200191505b50975050505050505050604051602081830303815290604052805190602001209150509392505050565b6040518060400160405280600a8152602001694d6f736169632d42757360b01b81525081565b604051806040016040528060018152602001600360fc1b81525081565b600b6020526000908152604090205460ff1681565b60006040518080613229602f91396040805191829003602f0182206020808401919091528282019690965260608083019590955280518083039095018552608090910190525050805191012090565b601280546001600160a01b0319166001600160a01b0392909216919091179055565b60006040518080613455605a91396040805191829003605a0182206020808401919091526001600160a01b0398891683830152968816606083015260808201959095529590921660a0808701919091528351808703909101815260c09095019092525050815191012090565b60046020526000908152604090205481565b6008546001600160a01b031681565b6000610a1c8686868686600c54611692565b6000846114835760405162461bcd60e51b815260040180806020018281038252602b81526020018061338d602b913960400191505060405180910390fd5b6001600160a01b0384166114c85760405162461bcd60e51b815260040180806020018281038252602281526020018061330b6022913960400191505060405180910390fd5b6114d8838363ffffffff611bda16565b85116115155760405162461bcd60e51b81526004018080602001828103825260348152602001806133fc6034913960400191505060405180910390fd5b601254600f54600091611536916001600160a01b03918216911688886113a6565b3360009081526004602052604090205490915061155a81600163ffffffff611a7316565b3360008181526004602052604090209190915561157e908390839088908890611c01565b600f546040805163079cc67960e41b8152336004820152602481018b905290519295506001600160a01b03909116916379cc67909160448082019260009290919082900301818387803b1580156115d457600080fd5b505af11580156115e8573d6000803e3d6000fd5b505050505050949350505050565b6040518060446133b882396044019050604051809103902081565b600d546001600160a01b031681565b6012546001600160a01b031681565b60025481565b60405180605a6134558239605a019050604051809103902081565b60136020526000908152604090205481565b60405180605961325882396059019050604051809103902081565b600181565b61168d838383611c89565b505050565b600080604051808061332d606091396040805191829003606090810183206020808501919091528383019c909c52820199909952608081019790975250505060a08401929092526001600160a01b031660c0808401919091528351808403909101815260e083018452805190850120601960f81b610100840152604d60f81b6101018401526101028301919091526101228083019190915282518083039091018152610142909101909152805191012090565b6001600160a01b0382166117a0576040805162461bcd60e51b815260206004820152601b60248201527f6d6f73742061646472657373206d757374206e6f7420626520302e0000000000604482015290519081900360640190fd5b601055600f80546001600160a01b0319166001600160a01b0392909216919091179055565b6002541561181a576040805162461bcd60e51b815260206004820181905260248201527f4d657373616765206f7574626f7820697320616c72656164792073657475702e604482015290519081900360640190fd5b81611861576040805162461bcd60e51b815260206004820152601260248201527126b2ba30b1b430b4b71034b21034b990181760711b604482015290519081900360640190fd5b6001600160a01b0381166118bc576040805162461bcd60e51b815260206004820152601b60248201527f4d65737361676520696e626f78206164647265737320697320302e0000000000604482015290519081900360640190fd5b600380546001600160a01b0319166001600160a01b0383811691909117918290556118eb91849130911661111e565b6002555050565b600c5415611947576040805162461bcd60e51b815260206004820152601f60248201527f4d65737361676520696e626f7820697320616c72656164792073657475702e00604482015290519081900360640190fd5b8461198e576040805162461bcd60e51b815260206004820152601260248201527136b2ba30b1b430b4b71034b21034b990181760711b604482015290519081900360640190fd5b6001600160a01b0384166119e0576040805162461bcd60e51b815260206004820152601460248201527327baba3137bc1030b2323932b9b99034b990181760611b604482015290519081900360640190fd5b6001600160a01b038216611a255760405162461bcd60e51b81526004018080602001828103825260218152602001806134d06021913960400191505060405180910390fd5b600d80546001600160a01b0319166001600160a01b038681169190911760ff60a01b1916600160a01b60ff8716021791829055611a65918791163061111e565b600c556109f3848383611eca565b600082820183811015611a8557600080fd5b90505b92915050565b6000611aa08888888888600c54611692565b6000818152600b602052604090205490915060ff1615611af15760405162461bcd60e51b81526004018080602001828103825260248152602001806134f16024913960400191505060405180910390fd5b6000818152600b60205260409020805460ff19166001179055600d54606090611b2490600160a01b900460ff1683612055565b60408051600160f81b6020808301919091528251808303600101815260219092019092528051910120909150611b5d9082908686612128565b50979650505050505050565b600082821115611b7857600080fd5b50900390565b600081841115611b9f57611b98838363ffffffff611bda16565b9050611bb2565b611baf838563ffffffff611bda16565b90505b9392505050565b6000600560065481548110611bca57fe5b9060005260206000200154905090565b600082611be957506000611a88565b82820282848281611bf657fe5b0414611a8557600080fd5b6000611c138686868686600254611692565b60008181526001602052604090205490915060ff1615611c645760405162461bcd60e51b81526004018080602001828103825260258152602001806134306025913960400191505060405180910390fd5b6000818152600160208190526040909120805460ff1916909117905595945050505050565b8151611cc65760405162461bcd60e51b81526004018080602001828103825260248152602001806132e76024913960400191505060405180910390fd5b8051611d19576040805162461bcd60e51b815260206004820152601f60248201527f4c656e677468206f6620524c5020706172656e74206e6f646573206973203000604482015290519081900360640190fd5b60085460408051631870032760e31b81526004810186905290516000926001600160a01b03169163c3801938916024808301926020929190829003018186803b158015611d6557600080fd5b505afa158015611d79573d6000803e3d6000fd5b505050506040513d6020811015611d8f57600080fd5b5051905080611de5576040805162461bcd60e51b815260206004820152601b60248201527f537461746520726f6f74206d757374206e6f74206265207a65726f0000000000604482015290519081900360640190fd5b6000848152600a6020526040902054806109f3576009805460408051602060026001851615610100026000190190941693909304601f8101849004840282018401909252818152600093611e9593899389939291830182828015611e8a5780601f10611e5f57610100808354040283529160200191611e8a565b820191906000526020600020905b815481529060010190602001808311611e6d57829003601f168201915b505050505086612223565b6000878152600a60205260408120829055909150611eb28761233e565b6000908152600a602052604081205550505050505050565b6008546001600160a01b031615611f21576040805162461bcd60e51b815260206004820152601660248201527529b2ba3ab81034b99030b63932b0b23c903237b7329760511b604482015290519081900360640190fd5b6001600160a01b038316611f7c576040805162461bcd60e51b815260206004820152601d60248201527f53746f72616765206163636f756e74206164647265737320697320302e000000604482015290519081900360640190fd5b6001600160a01b038216611fc15760405162461bcd60e51b81526004018080602001828103825260218152602001806134d06021913960400191505060405180910390fd5b611fca81612385565b600780546001600160a01b038086166001600160a01b0319928316179092556008805492851692909116919091179055604080516bffffffffffffffffffffffff19606086901b16602080830191909152825180830360140181526034909201909252805191012061203b90612413565b805161204f9160099160209091019061310a565b50505050565b60608061206c61206760ff8616612413565b61243d565b9050606061207c61206785612413565b9050606061208a8284612478565b9050610a1c816040516020018082805190602001908083835b602083106120c25780518252601f1990920191602091820191016120a3565b6001836020036101000a038019825116818451168082178552505050505050905001915050604051602081830303815290604052805190602001206040516020018082815260200191505060405160208183030381529060405280519060200120612413565b805161217b576040805162461bcd60e51b815260206004820181905260248201527f4c656e677468206f6620524c5020706172656e74206e6f64657320697320302e604482015290519081900360640190fd5b6000828152600a6020526040902054806121dc576040805162461bcd60e51b815260206004820152601d60248201527f53746f7261676520726f6f74206d757374206e6f74206265207a65726f000000604482015290519081900360640190fd5b6121e8848684846124f0565b6109f35760405162461bcd60e51b81526004018080602001828103825260218152602001806134af6021913960400191505060405180910390fd5b600061222d613188565b61223686612862565b90506060612243826128ab565b90506122628160028151811061225557fe5b602002602001015161295d565b92506000876040516020018082805190602001908083835b602083106122995780518252601f19909201916020918201910161227a565b6001836020036101000a0380198251168184511680821785525050505050509050019150506040516020818303038152906040528051906020012090506122e2818789886124f0565b612333576040805162461bcd60e51b815260206004820152601e60248201527f4163636f756e742070726f6f66206973206e6f742076657269666965642e0000604482015290519081900360640190fd5b505050949350505050565b6000612348612968565b60056006548154811061235757fe5b906000526020600020015490508160056006548154811061237457fe5b600091825260209091200155919050565b600081116123c45760405162461bcd60e51b815260040180806020018281038252604d81526020018061353c604d913960600191505060405180910390fd5b600554156124035760405162461bcd60e51b81526004018080602001828103825260278152602001806135156027913960400191505060405180910390fd5b8061240f6005826131a2565b5050565b60408051602080825281830190925260609160208201818038833950505060208101929092525090565b60608082516020036040519080825280601f01601f19166020018201604052801561246f576020820181803883390190505b509050611bb281845b60606040519050825180825260208201818101602086015b818310156124a8578051835260209283019201612490565b50845184518101855292509050808201602085015b818310156124d55780518352602092830192016124bd565b50601f19601f87518501158301011660405250505092915050565b60006124fa613188565b61250384612862565b90506060612510826128ab565b9050606080856000826125228b612984565b905080516000141561253e57600097505050505050505061285a565b60005b86518110156128515781518311156125645760009850505050505050505061285a565b61258087828151811061257357fe5b60200260200101516129ff565b9550856040516020018082805190602001908083835b602083106125b55780518252601f199092019160209182019101612596565b6001836020036101000a0380198251168184511680821785525050505050509050019150506040516020818303038152906040528051906020012084146126075760009850505050505050505061285a565b61262387828151811061261657fe5b60200260200101516128ab565b94508451601114156127315781518314156126de578c6126498660108151811061257357fe5b6040516020018082805190602001908083835b6020831061267b5780518252601f19909201916020918201910161265c565b6001836020036101000a0380198251168184511680821785525050505050509050019150506040516020818303038152906040528051906020012014156126cd5760019850505050505050505061285a565b60009850505050505050505061285a565b60008284815181106126ec57fe5b016020015160f81c90506010811115612711576000995050505050505050505061285a565b612723868260ff168151811061225557fe5b945060018401935050612849565b8451600214156126cd57600061276461275d8760008151811061275057fe5b6020026020010151612a4f565b8486612ab4565b905082518185011415612819578d6127828760018151811061275057fe5b6040516020018082805190602001908083835b602083106127b45780518252601f199092019160209182019101612795565b6001836020036101000a038019825116818451168082178552505050505050905001915050604051602081830303815290604052805190602001201415612807576001995050505050505050505061285a565b6000995050505050505050505061285a565b80612830576000995050505050505050505061285a565b80840193506128458660018151811061225557fe5b9450505b600101612541565b50505050505050505b949350505050565b61286a613188565b81518061288c57505060408051808201909152600080825260208201526128a6565b604080518082019091526020848101825281019190915290505b919050565b60606128b682612c45565b6128bf57600080fd5b60006128ca83612c6c565b90508060405190808252806020026020018201604052801561290657816020015b6128f3613188565b8152602001906001900390816128eb5790505b5091506129116131c6565b61291a84612cc6565b905060005b61292882612cfd565b156129555761293682612d1c565b84828151811061294257fe5b602090810291909101015260010161291f565b505050919050565b6000611a8882612d60565b600680546001019081905560055414156129825760006006555b565b606081516002026040519080825280601f01601f1916602001820160405280156129b5576020820181803883390190505b50905060005b81518110156129f9576129ce8184612db0565b8282815181106129da57fe5b60200101906001600160f81b031916908160001a9053506001016129bb565b50919050565b602081015160609080612a1257506128a6565b806040519080825280601f01601f191660200182016040528015612a3d576020820181803883390190505b5091506129f983600001518383612e0d565b6060612a5a82612e3d565b612a6357600080fd5b600080612a6f84612e63565b60408051828152601f19601f84011681016020019091529193509150818015612a9f576020820181803883390190505b509250612aad828483612e0d565b5050919050565b60006060612ac185612ed3565b9050606081516040519080825280601f01601f191660200182016040528015612af1576020820181803883390190505b509050835b82518501811015612b4b576000868281518110612b0f57fe5b602001015160f81c60f81b9050808387840381518110612b2b57fe5b60200101906001600160f81b031916908160001a90535050600101612af6565b50806040516020018082805190602001908083835b60208310612b7f5780518252601f199092019160209182019101612b60565b6001836020036101000a03801982511681845116808217855250505050505090500191505060405160208183030381529060405280519060200120826040516020018082805190602001908083835b60208310612bed5780518252601f199092019160209182019101612bce565b6001836020036101000a038019825116818451168082178552505050505050905001915050604051602081830303815290604052805190602001201415612c375781519250612c3c565b600092505b50509392505050565b6000816020015160001415612c5c575060006128a6565b50515160c060009190911a101590565b6000612c7782612c45565b612c83575060006128a6565b81518051600090811a9190612c9785612fff565b6020860151908301915082016000190160005b818311610a1c57612cba8361307d565b90920191600101612caa565b612cce6131c6565b612cd782612c45565b612ce057600080fd5b6000612ceb83612fff565b83519383529092016020820152919050565b6000612d07613188565b50508051602080820151915192015191011190565b612d24613188565b612d2d82612cfd565b612d3657600080fd5b60208201516000612d468261307d565b828452602080850182905292019390910192909252919050565b6000612d6b82612e3d565b612d7457600080fd5b600080612d8084612e63565b90925090506020811180612d92575080155b15612d9c57600080fd5b806020036101000a82510492505050919050565b60006002830615612de1576010826002850481518110612dcc57fe5b016020015160f81c81612ddb57fe5b06612e03565b6010826002850481518110612df257fe5b016020015160f81c81612e0157fe5b045b60f81b9392505050565b6000601f820184602085015b82841015612e34578382015184820152602084019350612e19565b50505050505050565b6000816020015160001415612e54575060006128a6565b50515160c060009190911a1090565b600080612e6f83612e3d565b612e7857600080fd5b8251805160001a906080821015612e9657925060019150612ece9050565b60b8821015612eb45760018560200151039250806001019350612ecb565b602085015182820160b51901945082900360b60192505b50505b915091565b8051606090156128a657600080612eeb600085612db0565b60f81c90506001811480612f0257508060ff166003145b15612f7a5760018451600202036040519080825280601f01601f191660200182016040528015612f39576020820181803883390190505b5092506000612f49600186612db0565b90508084600081518110612f5957fe5b60200101906001600160f81b031916908160001a9053506001925050612fb4565b60028451600202036040519080825280601f01601f191660200182016040528015612fac576020820181803883390190505b509250600091505b60ff82165b835181101561295557612fd48360ff16820360020186612db0565b848281518110612fe057fe5b60200101906001600160f81b031916908160001a905350600101612fb9565b6000816020015160001415613016575060006128a6565b8151805160001a906080821015613032576000925050506128a6565b60b882108061304d575060c0821015801561304d575060f882105b1561305d576001925050506128a6565b60c0821015613072575060b5190190506128a6565b5060f5190192915050565b8051600090811a608081101561309657600191506129f9565b60b88110156130ab57607e19810191506129f9565b60c08110156130d457600183015160b76020839003016101000a9004810160b5190191506129f9565b60f88110156130e95760be19810191506129f9565b6001929092015160f76020849003016101000a900490910160f51901919050565b828054600181600116156101000203166002900490600052602060002090601f016020900481019282601f1061314b57805160ff1916838001178555613178565b82800160010185558215613178579182015b8281111561317857825182559160200191906001019061315d565b506131849291506131e6565b5090565b604051806040016040528060008152602001600081525090565b81548183558181111561168d5760008381526020902061168d9181019083016131e6565b60405180604001604052806131d9613188565b8152602001600081525090565b610ad091905b8082111561318457600081556001016131ec56fe4465706f73697420616d6f756e742073686f756c642062652067726561746572207468616e20302e4b65726e656c496e74656e742875696e74323536206865696768742c62797465733332206b65726e656c48617368294d6f736169634d65737361676542757328737472696e67206e616d652c737472696e672076657273696f6e2c62797465733332206d657461636861696e49642c62797465733332206368616e6e656c536570617261746f72294d6f736169634d6573736167654275734368616e6e656c2861646472657373206f7574626f782c206164647265737320696e626f78294c656e677468206f6620524c50206163636f756e74206d757374206e6f7420626520302e42656e65666963696172792061646472657373206d757374206e6f7420626520302e4d657373616765286279746573333220696e74656e74486173682c75696e74323536206e6f6e63652c75696e743235362066656547617350726963652c75696e74323536206665654761734c696d69742c616464726573732073656e646572295769746864726177616c20616d6f756e742073686f756c642062652067726561746572207468616e20302e4465706f736974496e74656e7428616464726573732076616c7565546f6b656e2c75696e7432353620616d6f756e742c616464726573732062656e6566696369617279295769746864726177616c20616d6f756e742073686f756c642062652067726561746572207468616e206d6178207265776172642e4d65737361676520616c72656164792065786973747320696e20746865206f7574626f782e5769746864726177496e74656e7428616464726573732076616c7565546f6b656e2c61646472657373207574696c697479546f6b656e2c75696e7432353620616d6f756e742c616464726573732062656e6566696369617279294d65726b6c652070726f6f6620766572696669636174696f6e206661696c65642e537461746520726f6f742070726f7669646572206164647265737320697320302e4d65737361676520616c72656164792065786973747320696e2074686520696e626f782e43697263756c6172206275666665722073697a652063616e206265207365747570206f6e63652e546865206d6178206e756d626572206f66206974656d7320746f2073746f726520696e20612063697263756c617220627566666572206d7573742062652067726561746572207468616e20302ea265627a7a723158201eaa450b80c66ea01c239baac98c139e30b47c55ad06197b497aad8ef973221d64736f6c634300050d0032",
  "source": "pragma solidity >=0.5.0 <0.6.0;\n\n// Copyright 2020 OpenST Ltd.\n//\n// Licensed under the Apache License, Version 2.0 (the \"License\");\n// you may not use this file except in compliance with the License.\n// You may obtain a copy of the License at\n//\n//    http://www.apache.org/licenses/LICENSE-2.0\n//\n// Unless required by applicable law or agreed to in writing, software\n// distributed under the License is distributed on an \"AS IS\" BASIS,\n// WITHOUT WARRANTIES OR CONDITIONS OF ANY KIND, either express or implied.\n// See the License for the specific language governing permissions and\n// limitations under the License.\n\nimport \"../../consensus-gateway/ConsensusCogateway.sol\";\n\n/**\n * @title ConsensusCogatewayDouble contract.\n *\n * @notice It is used for testing ConsensusCogateway contract.\n */\ncontract ConsensusCogatewayDouble is ConsensusCogateway {\n\n    /* External Functions. */\n\n    /**\n     * @notice Sets storage root at specific block number.\n     */\n    function setStorageRoot(\n        uint256 _blockNumber,\n        bytes32 _storageRoot\n    )\n        external\n    {\n        storageRoots[_blockNumber] = _storageRoot;\n    }\n\n    /**\n     * @notice Sets inbound channel identifier.\n     */\n    function setInboundChannelIdentifier(bytes32 _inboundChannelIdentifier)\n        external\n    {\n        inboundChannelIdentifier = _inboundChannelIdentifier;\n    }\n\n    /**\n     * @notice It sets current metablock height.\n     *\n     * @param _metablockHeight Current metablock height.\n     */\n    function setMetablock(uint256 _metablockHeight) external {\n        currentMetablockHeight = _metablockHeight;\n    }\n\n    /**\n     * @notice It sets value token address.\n     *\n     * @param _valueToken Value token address.\n     */\n    function setValueToken(address _valueToken) external {\n        valueToken = _valueToken;\n    }\n}\n",
  "sourcePath": "/Users/abhay/Documents/projects/abhayforks/mosaic-1/contracts/test/consensus_gateway/ConsensusCogatewayDouble.sol",
  "compiler": {
    "name": "solc",
    "version": "0.5.13+commit.5b0b510c.Emscripten.clang"
  },
  "schemaVersion": "3.0.17",
  "updatedAt": "2020-03-21T06:48:34.793Z",
  "devdoc": {
    "methods": {
      "confirmDeposit(uint256,address,uint256,uint256,address,uint256,bytes)": {
        "params": {
          "_amount": "MOST token deposit amount in atto.",
          "_beneficiary": "Address of beneficiary on target metachain.",
          "_blockNumber": "Block number of origin chain against which storage proof is generated.",
          "_depositor": "Address of depositor on the origin chain.",
          "_feeGasLimit": "Gas limit at which fee will be capped.",
          "_feeGasPrice": "Gas price at which fee will be calculated.",
          "_rlpParentNodes": "Storage merkle proof to verify message declaration                       on the origin chain."
        },
        "return": "messageHash_ Message hash."
      },
      "confirmOpenKernel(uint256,bytes32,uint256,uint256,address,uint256,bytes)": {
        "details": "Function requires:         - Sender address must not be 0.         - Kernel hash must not be 0.         - Difference between kernelheight and current metablock height           must be 1.",
        "params": {
          "_blockNumber": "Block number at which proof is valid.",
          "_feeGasLimit": "Gas limit which the sender is willing to pay.",
          "_feeGasPrice": "Gas price which the sender is willing to pay.",
          "_kernelHash": "Hash of the kernel.",
          "_kernelHeight": "Height of the kernel.",
          "_rlpParentNodes": "RLP encoded parent node data to prove message                       exists in outbox of ConsensusGateway.",
          "_sender": "Sender address."
        },
        "return": "messageHash_ Message hash."
      },
      "getCoconsensus()": {
        "return": "Coconsensus contract address."
      },
      "getRemoteGatewayLatestProvenBlockNumber()": {
        "return": "blockNumber_ Remote gateway latest proven block number."
      },
      "hashChannelIdentifier(bytes32,address,address)": {
        "params": {
          "_inbox": "Inbox address.",
          "_metachainId": "Metachain identifier.",
          "_outbox": "Outbox address."
        }
      },
      "hashDepositIntent(address,uint256,address)": {
        "params": {
          "_amount": "Amount of tokens.",
          "_beneficiary": "Beneficiary address.",
          "_valueToken": "Value token Address."
        },
        "return": "depositIntentHash_ Hash of deposit intent."
      },
      "hashKernelIntent(uint256,bytes32)": {
        "params": {
          "_height": "Height of metablock.",
          "_kernelHash": "Hash of kernel at given height."
        },
        "return": "kernelIntentHash_ Kernel intent hash."
      },
      "hashWithdrawIntent(address,address,uint256,address)": {
        "params": {
          "_amount": "Amount of tokens.",
          "_beneficiary": "Beneficiary address.",
          "_utilityToken": "Utility token address.",
          "_valueToken": "Value token address."
        },
        "return": "withdrawIntentHash_ Hash of withdraw intent."
      },
      "inboxMessageHash(bytes32,uint256,uint256,uint256,address)": {
        "params": {
          "_feeGasLimit": "Fee gas limit.",
          "_feeGasPrice": "Fee gas price.",
          "_intentHash": "Intent hash of message.",
          "_nonce": "Nonce of sender.",
          "_sender": "Sender address."
        },
        "return": "messageHash_ Message hash."
      },
      "outboxMessageHash(bytes32,uint256,uint256,uint256,address)": {
        "params": {
          "_feeGasLimit": "Fee gas limit.",
          "_feeGasPrice": "Fee gas price.",
          "_intentHash": "Intent hash of message.",
          "_nonce": "Nonce of sender.",
          "_sender": "Sender address."
        },
        "return": "messageHash_ Message hash."
      },
      "proveConsensusGateway(uint256,bytes,bytes)": {
        "params": {
          "_blockNumber": "Block number at which consensus gateway is to be proven.",
          "_rlpAccount": "RLP encoded account node object.",
          "_rlpParentNodes": "RLP encoded value of account proof node array."
        }
      },
      "setMetablock(uint256)": {
        "params": {
          "_metablockHeight": "Current metablock height."
        }
      },
      "setValueToken(address)": {
        "params": {
          "_valueToken": "Value token address."
        }
      },
      "setup(bytes32,address,address,address,uint8,uint256,uint256)": {
        "params": {
          "_coconsensus": "Address of Coconsensus contract.",
          "_consensusGateway": "Address of consensus cogateway contract at auxiliary chain.",
          "_maxStorageRootItems": "Max storage roots to be stored.",
          "_metablockHeight": "Height of the metablock.",
          "_metachainId": "Metachain id of a metablock.",
          "_outboxStorageIndex": "Outbox Storage index of ConsensusGateway.",
          "_utBase": "Address of UtBase contract at auxiliary chain."
        }
      },
      "withdraw(uint256,address,uint256,uint256)": {
        "details": "Function requires :         - Amount must not be 0.         - Beneficiary must not be 0.         - Withdrawal amount must be greater than multiplication of           gas price and gas limit.",
        "params": {
          "_amount": "Amount of tokens to be redeemed.",
          "_beneficiary": "The address in the origin chain where the value                    where the tokens will be withdrawn.",
          "_feeGasLimit": "Gas limit at which fee will be capped.",
          "_feeGasPrice": "Gas price at which fee will be calculated."
        },
        "return": "messageHash_ Message hash."
      }
    },
    "title": "ConsensusCogatewayDouble contract."
  },
  "userdoc": {
    "methods": {
      "confirmDeposit(uint256,address,uint256,uint256,address,uint256,bytes)": {
        "notice": "Confirm deposit in order to mint tokens."
      },
      "confirmOpenKernel(uint256,bytes32,uint256,uint256,address,uint256,bytes)": {
        "notice": "Confirms the initiation of opening a kernel at auxiliary chain."
      },
      "getCoconsensus()": {
        "notice": "Gets the coconsensus contract address."
      },
      "getRemoteGatewayLatestProvenBlockNumber()": {
        "notice": "Gets the remote gateway latest proven block number."
      },
      "hashChannelIdentifier(bytes32,address,address)": {
        "notice": "Generate channel identifier hash from the input params"
      },
      "hashDepositIntent(address,uint256,address)": {
        "notice": "It returns hash of deposit intent."
      },
      "hashKernelIntent(uint256,bytes32)": {
        "notice": "Creates kernel intent hash."
      },
      "hashWithdrawIntent(address,address,uint256,address)": {
        "notice": "It returns hash of withdraw intent."
      },
      "inboxMessageHash(bytes32,uint256,uint256,uint256,address)": {
        "notice": "Generate inbox message hash from the input params"
      },
      "outboxMessageHash(bytes32,uint256,uint256,uint256,address)": {
        "notice": "Generate outbox message hash from the input params"
      },
      "proveConsensusGateway(uint256,bytes,bytes)": {
        "notice": "This method will be called by anyone to verify merkle proof of         consensus gateway contract address."
      },
      "setInboundChannelIdentifier(bytes32)": {
        "notice": "Sets inbound channel identifier."
      },
      "setMetablock(uint256)": {
        "notice": "It sets current metablock height."
      },
      "setStorageRoot(uint256,bytes32)": {
        "notice": "Sets storage root at specific block number."
      },
      "setValueToken(address)": {
        "notice": "It sets value token address."
      },
      "setup(bytes32,address,address,address,uint8,uint256,uint256)": {
        "notice": "It sets up consensus cogateway. It can only be called once."
      },
      "withdraw(uint256,address,uint256,uint256)": {
        "notice": "It allows withdrawing UtBase tokens. Withdrawer needs to        approve consensus cogateway contract for the amount to        be withdrawn."
      }
    },
    "notice": "It is used for testing ConsensusCogateway contract."
  }
}