{
  "contractName": "ConsensusModuleTest",
  "abi": [
    {
      "constant": true,
      "inputs": [],
      "name": "consensus",
      "outputs": [
        {
          "internalType": "contract ConsensusInterface",
          "name": "",
          "type": "address"
        }
      ],
      "payable": false,
      "stateMutability": "view",
      "type": "function"
    },
    {
      "constant": false,
      "inputs": [
        {
          "internalType": "contract ConsensusInterface",
          "name": "_consensus",
          "type": "address"
        }
      ],
      "name": "setupConsensusExternal",
      "outputs": [],
      "payable": false,
      "stateMutability": "nonpayable",
      "type": "function"
    }
  ],
  "bytecode": "0x608060405234801561001057600080fd5b506101ce806100206000396000f3fe608060405234801561001057600080fd5b50600436106100365760003560e01c80632ff83ebb1461003b5780638ef3f76114610063575b600080fd5b6100616004803603602081101561005157600080fd5b50356001600160a01b0316610087565b005b61006b610093565b604080516001600160a01b039092168252519081900360200190f35b610090816100a2565b50565b6000546001600160a01b031681565b6000546001600160a01b0316156100ea5760405162461bcd60e51b81526004018080602001828103825260258152602001806101526025913960400191505060405180910390fd5b6001600160a01b03811661012f5760405162461bcd60e51b81526004018080602001828103825260238152602001806101776023913960400191505060405180910390fd5b600080546001600160a01b0319166001600160a01b039290921691909117905556fe436f6e73656e737573206164647265737320697320616c72656164792070726573656e742e436f6e73656e7375732061646472657373206d757374206e6f74206265206e756c6c2ea265627a7a7231582028edfe708cbca719363f6289c90caae0389444b3a969bb1d6468cea259949ea864736f6c634300050d0032",
  "source": "pragma solidity >=0.5.0 <0.6.0;\n\nimport \"../../consensus/ConsensusModule.sol\";\n\n// Copyright 2019 OpenST Ltd.\n//\n// Licensed under the Apache License, Version 2.0 (the \"License\");\n// you may not use this file except in compliance with the License.\n// You may obtain a copy of the License at\n//\n//    http://www.apache.org/licenses/LICENSE-2.0\n//\n// Unless required by applicable law or agreed to in writing, software\n// distributed under the License is distributed on an \"AS IS\" BASIS,\n// WITHOUT WARRANTIES OR CONDITIONS OF ANY KIND, either express or implied.\n// See the License for the specific language governing permissions and\n// limitations under the License.\n\n\ncontract ConsensusModuleTest is ConsensusModule{\n\n\n    /**\n     * @notice This method is created to test setupConsensus method.\n     * @param _consensus Address of consensus contract.\n     */\n    function setupConsensusExternal(ConsensusInterface _consensus) public\n    {\n        ConsensusModule.setupConsensus(_consensus);\n    }\n\n}\n",
  "sourcePath": "/Users/abhay/Documents/projects/abhayforks/mosaic-1/contracts/test/consensus/ConsensusModuleTest.sol",
  "compiler": {
    "name": "solc",
    "version": "0.5.13+commit.5b0b510c.Emscripten.clang"
  },
  "schemaVersion": "3.0.17",
  "updatedAt": "2020-03-21T06:48:34.785Z",
  "devdoc": {
    "methods": {
      "setupConsensusExternal(address)": {
        "params": {
          "_consensus": "Address of consensus contract."
        }
      }
    }
  },
  "userdoc": {
    "methods": {
      "setupConsensusExternal(address)": {
        "notice": "This method is created to test setupConsensus method."
      }
    }
  }
}