{
  "contractName": "ConsensusCogateway",
  "abi": [
    {
      "anonymous": false,
      "inputs": [
        {
          "indexed": false,
          "internalType": "address",
          "name": "remoteGateway",
          "type": "address"
        },
        {
          "indexed": false,
          "internalType": "uint256",
          "name": "blockNumber",
          "type": "uint256"
        }
      ],
      "name": "GatewayProven",
      "type": "event"
    },
    {
      "constant": true,
      "inputs": [],
      "name": "DEPOSIT_INTENT_TYPEHASH",
      "outputs": [
        {
          "internalType": "bytes32",
          "name": "",
          "type": "bytes32"
        }
      ],
      "payable": false,
      "stateMutability": "view",
      "type": "function"
    },
    {
      "constant": true,
      "inputs": [],
      "name": "DOMAIN_SEPARATOR_VERSION",
      "outputs": [
        {
          "internalType": "string",
          "name": "",
          "type": "string"
        }
      ],
      "payable": false,
      "stateMutability": "view",
      "type": "function"
    },
    {
      "constant": true,
      "inputs": [],
      "name": "INBOX_OFFSET",
      "outputs": [
        {
          "internalType": "uint8",
          "name": "",
          "type": "uint8"
        }
      ],
      "payable": false,
      "stateMutability": "view",
      "type": "function"
    },
    {
      "constant": true,
      "inputs": [],
      "name": "KERNEL_INTENT_TYPEHASH",
      "outputs": [
        {
          "internalType": "bytes32",
          "name": "",
          "type": "bytes32"
        }
      ],
      "payable": false,
      "stateMutability": "view",
      "type": "function"
    },
    {
      "constant": true,
      "inputs": [],
      "name": "MESSAGE_TYPEHASH",
      "outputs": [
        {
          "internalType": "bytes32",
          "name": "",
          "type": "bytes32"
        }
      ],
      "payable": false,
      "stateMutability": "view",
      "type": "function"
    },
    {
      "constant": true,
      "inputs": [],
      "name": "MMB_CHANNEL_TYPEHASH",
      "outputs": [
        {
          "internalType": "bytes32",
          "name": "",
          "type": "bytes32"
        }
      ],
      "payable": false,
      "stateMutability": "view",
      "type": "function"
    },
    {
      "constant": true,
      "inputs": [],
      "name": "MMB_DOMAIN_SEPARATOR_NAME",
      "outputs": [
        {
          "internalType": "string",
          "name": "",
          "type": "string"
        }
      ],
      "payable": false,
      "stateMutability": "view",
      "type": "function"
    },
    {
      "constant": true,
      "inputs": [],
      "name": "MMB_DOMAIN_SEPARATOR_TYPEHASH",
      "outputs": [
        {
          "internalType": "bytes32",
          "name": "",
          "type": "bytes32"
        }
      ],
      "payable": false,
      "stateMutability": "view",
      "type": "function"
    },
    {
      "constant": true,
      "inputs": [],
      "name": "MMB_DOMAIN_SEPARATOR_VERSION",
      "outputs": [
        {
          "internalType": "string",
          "name": "",
          "type": "string"
        }
      ],
      "payable": false,
      "stateMutability": "view",
      "type": "function"
    },
    {
      "constant": true,
      "inputs": [],
      "name": "OUTBOX_OFFSET",
      "outputs": [
        {
          "internalType": "uint8",
          "name": "",
          "type": "uint8"
        }
      ],
      "payable": false,
      "stateMutability": "view",
      "type": "function"
    },
    {
      "constant": true,
      "inputs": [],
      "name": "WITHDRAW_INTENT_TYPEHASH",
      "outputs": [
        {
          "internalType": "bytes32",
          "name": "",
          "type": "bytes32"
        }
      ],
      "payable": false,
      "stateMutability": "view",
      "type": "function"
    },
    {
      "constant": true,
      "inputs": [],
      "name": "currentMetablockHeight",
      "outputs": [
        {
          "internalType": "uint256",
          "name": "",
          "type": "uint256"
        }
      ],
      "payable": false,
      "stateMutability": "view",
      "type": "function"
    },
    {
      "constant": true,
      "inputs": [],
      "name": "encodedAccountPath",
      "outputs": [
        {
          "internalType": "bytes",
          "name": "",
          "type": "bytes"
        }
      ],
      "payable": false,
      "stateMutability": "view",
      "type": "function"
    },
    {
      "constant": true,
      "inputs": [],
      "name": "getCoconsensus",
      "outputs": [
        {
          "internalType": "contract CoconsensusInterface",
          "name": "",
          "type": "address"
        }
      ],
      "payable": false,
      "stateMutability": "view",
      "type": "function"
    },
    {
      "constant": true,
      "inputs": [
        {
          "internalType": "bytes32",
          "name": "_metachainId",
          "type": "bytes32"
        },
        {
          "internalType": "address",
          "name": "_outbox",
          "type": "address"
        },
        {
          "internalType": "address",
          "name": "_inbox",
          "type": "address"
        }
      ],
      "name": "hashChannelIdentifier",
      "outputs": [
        {
          "internalType": "bytes32",
          "name": "channelIdentifier_",
          "type": "bytes32"
        }
      ],
      "payable": false,
      "stateMutability": "pure",
      "type": "function"
    },
    {
      "constant": true,
      "inputs": [
        {
          "internalType": "address",
          "name": "_valueToken",
          "type": "address"
        },
        {
          "internalType": "uint256",
          "name": "_amount",
          "type": "uint256"
        },
        {
          "internalType": "address",
          "name": "_beneficiary",
          "type": "address"
        }
      ],
      "name": "hashDepositIntent",
      "outputs": [
        {
          "internalType": "bytes32",
          "name": "depositIntentHash_",
          "type": "bytes32"
        }
      ],
      "payable": false,
      "stateMutability": "pure",
      "type": "function"
    },
    {
      "constant": true,
      "inputs": [
        {
          "internalType": "uint256",
          "name": "_height",
          "type": "uint256"
        },
        {
          "internalType": "bytes32",
          "name": "_kernelHash",
          "type": "bytes32"
        }
      ],
      "name": "hashKernelIntent",
      "outputs": [
        {
          "internalType": "bytes32",
          "name": "kernelIntentHash_",
          "type": "bytes32"
        }
      ],
      "payable": false,
      "stateMutability": "pure",
      "type": "function"
    },
    {
      "constant": true,
      "inputs": [
        {
          "internalType": "address",
          "name": "_valueToken",
          "type": "address"
        },
        {
          "internalType": "address",
          "name": "_utilityToken",
          "type": "address"
        },
        {
          "internalType": "uint256",
          "name": "_amount",
          "type": "uint256"
        },
        {
          "internalType": "address",
          "name": "_beneficiary",
          "type": "address"
        }
      ],
      "name": "hashWithdrawIntent",
      "outputs": [
        {
          "internalType": "bytes32",
          "name": "withdrawIntentHash_",
          "type": "bytes32"
        }
      ],
      "payable": false,
      "stateMutability": "pure",
      "type": "function"
    },
    {
      "constant": true,
      "inputs": [],
      "name": "inboundChannelIdentifier",
      "outputs": [
        {
          "internalType": "bytes32",
          "name": "",
          "type": "bytes32"
        }
      ],
      "payable": false,
      "stateMutability": "view",
      "type": "function"
    },
    {
      "constant": true,
      "inputs": [
        {
          "internalType": "bytes32",
          "name": "",
          "type": "bytes32"
        }
      ],
      "name": "inbox",
      "outputs": [
        {
          "internalType": "bool",
          "name": "",
          "type": "bool"
        }
      ],
      "payable": false,
      "stateMutability": "view",
      "type": "function"
    },
    {
      "constant": true,
      "inputs": [
        {
          "internalType": "bytes32",
          "name": "_intentHash",
          "type": "bytes32"
        },
        {
          "internalType": "uint256",
          "name": "_nonce",
          "type": "uint256"
        },
        {
          "internalType": "uint256",
          "name": "_feeGasPrice",
          "type": "uint256"
        },
        {
          "internalType": "uint256",
          "name": "_feeGasLimit",
          "type": "uint256"
        },
        {
          "internalType": "address",
          "name": "_sender",
          "type": "address"
        }
      ],
      "name": "inboxMessageHash",
      "outputs": [
        {
          "internalType": "bytes32",
          "name": "messageHash_",
          "type": "bytes32"
        }
      ],
      "payable": false,
      "stateMutability": "view",
      "type": "function"
    },
    {
      "constant": true,
      "inputs": [
        {
          "internalType": "address",
          "name": "",
          "type": "address"
        }
      ],
      "name": "inboxNonces",
      "outputs": [
        {
          "internalType": "uint256",
          "name": "",
          "type": "uint256"
        }
      ],
      "payable": false,
      "stateMutability": "view",
      "type": "function"
    },
    {
      "constant": true,
      "inputs": [
        {
          "internalType": "uint256",
          "name": "",
          "type": "uint256"
        }
      ],
      "name": "kernelHashes",
      "outputs": [
        {
          "internalType": "bytes32",
          "name": "",
          "type": "bytes32"
        }
      ],
      "payable": false,
      "stateMutability": "view",
      "type": "function"
    },
    {
      "constant": true,
      "inputs": [],
      "name": "messageInbox",
      "outputs": [
        {
          "internalType": "address",
          "name": "",
          "type": "address"
        }
      ],
      "payable": false,
      "stateMutability": "view",
      "type": "function"
    },
    {
      "constant": true,
      "inputs": [],
      "name": "messageOutbox",
      "outputs": [
        {
          "internalType": "address",
          "name": "",
          "type": "address"
        }
      ],
      "payable": false,
      "stateMutability": "view",
      "type": "function"
    },
    {
      "constant": true,
      "inputs": [],
      "name": "most",
      "outputs": [
        {
          "internalType": "contract ERC20I",
          "name": "",
          "type": "address"
        }
      ],
      "payable": false,
      "stateMutability": "view",
      "type": "function"
    },
    {
      "constant": true,
      "inputs": [],
      "name": "outboundChannelIdentifier",
      "outputs": [
        {
          "internalType": "bytes32",
          "name": "",
          "type": "bytes32"
        }
      ],
      "payable": false,
      "stateMutability": "view",
      "type": "function"
    },
    {
      "constant": true,
      "inputs": [
        {
          "internalType": "bytes32",
          "name": "",
          "type": "bytes32"
        }
      ],
      "name": "outbox",
      "outputs": [
        {
          "internalType": "bool",
          "name": "",
          "type": "bool"
        }
      ],
      "payable": false,
      "stateMutability": "view",
      "type": "function"
    },
    {
      "constant": true,
      "inputs": [
        {
          "internalType": "bytes32",
          "name": "_intentHash",
          "type": "bytes32"
        },
        {
          "internalType": "uint256",
          "name": "_nonce",
          "type": "uint256"
        },
        {
          "internalType": "uint256",
          "name": "_feeGasPrice",
          "type": "uint256"
        },
        {
          "internalType": "uint256",
          "name": "_feeGasLimit",
          "type": "uint256"
        },
        {
          "internalType": "address",
          "name": "_sender",
          "type": "address"
        }
      ],
      "name": "outboxMessageHash",
      "outputs": [
        {
          "internalType": "bytes32",
          "name": "messageHash_",
          "type": "bytes32"
        }
      ],
      "payable": false,
      "stateMutability": "view",
      "type": "function"
    },
    {
      "constant": true,
      "inputs": [
        {
          "internalType": "address",
          "name": "",
          "type": "address"
        }
      ],
      "name": "outboxNonces",
      "outputs": [
        {
          "internalType": "uint256",
          "name": "",
          "type": "uint256"
        }
      ],
      "payable": false,
      "stateMutability": "view",
      "type": "function"
    },
    {
      "constant": true,
      "inputs": [],
      "name": "outboxStorageIndex",
      "outputs": [
        {
          "internalType": "uint8",
          "name": "",
          "type": "uint8"
        }
      ],
      "payable": false,
      "stateMutability": "view",
      "type": "function"
    },
    {
      "constant": true,
      "inputs": [],
      "name": "stateRootProvider",
      "outputs": [
        {
          "internalType": "contract StateRootInterface",
          "name": "",
          "type": "address"
        }
      ],
      "payable": false,
      "stateMutability": "view",
      "type": "function"
    },
    {
      "constant": true,
      "inputs": [],
      "name": "storageAccount",
      "outputs": [
        {
          "internalType": "address",
          "name": "",
          "type": "address"
        }
      ],
      "payable": false,
      "stateMutability": "view",
      "type": "function"
    },
    {
      "constant": true,
      "inputs": [
        {
          "internalType": "uint256",
          "name": "",
          "type": "uint256"
        }
      ],
      "name": "storageRoots",
      "outputs": [
        {
          "internalType": "bytes32",
          "name": "",
          "type": "bytes32"
        }
      ],
      "payable": false,
      "stateMutability": "view",
      "type": "function"
    },
    {
      "constant": true,
      "inputs": [],
      "name": "valueToken",
      "outputs": [
        {
          "internalType": "address",
          "name": "",
          "type": "address"
        }
      ],
      "payable": false,
      "stateMutability": "view",
      "type": "function"
    },
    {
      "constant": false,
      "inputs": [
        {
          "internalType": "bytes32",
          "name": "_metachainId",
          "type": "bytes32"
        },
        {
          "internalType": "address",
          "name": "_coconsensus",
          "type": "address"
        },
        {
          "internalType": "contract ERC20I",
          "name": "_utBase",
          "type": "address"
        },
        {
          "internalType": "address",
          "name": "_consensusGateway",
          "type": "address"
        },
        {
          "internalType": "uint8",
          "name": "_outboxStorageIndex",
          "type": "uint8"
        },
        {
          "internalType": "uint256",
          "name": "_maxStorageRootItems",
          "type": "uint256"
        },
        {
          "internalType": "uint256",
          "name": "_metablockHeight",
          "type": "uint256"
        }
      ],
      "name": "setup",
      "outputs": [],
      "payable": false,
      "stateMutability": "nonpayable",
      "type": "function"
    },
    {
      "constant": false,
      "inputs": [
        {
          "internalType": "uint256",
          "name": "_amount",
          "type": "uint256"
        },
        {
          "internalType": "address payable",
          "name": "_beneficiary",
          "type": "address"
        },
        {
          "internalType": "uint256",
          "name": "_feeGasPrice",
          "type": "uint256"
        },
        {
          "internalType": "uint256",
          "name": "_feeGasLimit",
          "type": "uint256"
        },
        {
          "internalType": "address",
          "name": "_depositor",
          "type": "address"
        },
        {
          "internalType": "uint256",
          "name": "_blockNumber",
          "type": "uint256"
        },
        {
          "internalType": "bytes",
          "name": "_rlpParentNodes",
          "type": "bytes"
        }
      ],
      "name": "confirmDeposit",
      "outputs": [
        {
          "internalType": "bytes32",
          "name": "messageHash_",
          "type": "bytes32"
        }
      ],
      "payable": false,
      "stateMutability": "nonpayable",
      "type": "function"
    },
    {
      "constant": false,
      "inputs": [
        {
          "internalType": "uint256",
          "name": "_blockNumber",
          "type": "uint256"
        },
        {
          "internalType": "bytes",
          "name": "_rlpAccount",
          "type": "bytes"
        },
        {
          "internalType": "bytes",
          "name": "_rlpParentNodes",
          "type": "bytes"
        }
      ],
      "name": "proveConsensusGateway",
      "outputs": [],
      "payable": false,
      "stateMutability": "nonpayable",
      "type": "function"
    },
    {
      "constant": true,
      "inputs": [],
      "name": "getRemoteGatewayLatestProvenBlockNumber",
      "outputs": [
        {
          "internalType": "uint256",
          "name": "blockNumber_",
          "type": "uint256"
        }
      ],
      "payable": false,
      "stateMutability": "view",
      "type": "function"
    },
    {
      "constant": false,
      "inputs": [
        {
          "internalType": "uint256",
          "name": "_kernelHeight",
          "type": "uint256"
        },
        {
          "internalType": "bytes32",
          "name": "_kernelHash",
          "type": "bytes32"
        },
        {
          "internalType": "uint256",
          "name": "_feeGasPrice",
          "type": "uint256"
        },
        {
          "internalType": "uint256",
          "name": "_feeGasLimit",
          "type": "uint256"
        },
        {
          "internalType": "address",
          "name": "_sender",
          "type": "address"
        },
        {
          "internalType": "uint256",
          "name": "_blockNumber",
          "type": "uint256"
        },
        {
          "internalType": "bytes",
          "name": "_rlpParentNodes",
          "type": "bytes"
        }
      ],
      "name": "confirmOpenKernel",
      "outputs": [
        {
          "internalType": "bytes32",
          "name": "messageHash_",
          "type": "bytes32"
        }
      ],
      "payable": false,
      "stateMutability": "nonpayable",
      "type": "function"
    },
    {
      "constant": false,
      "inputs": [
        {
          "internalType": "uint256",
          "name": "_amount",
          "type": "uint256"
        },
        {
          "internalType": "address",
          "name": "_beneficiary",
          "type": "address"
        },
        {
          "internalType": "uint256",
          "name": "_feeGasPrice",
          "type": "uint256"
        },
        {
          "internalType": "uint256",
          "name": "_feeGasLimit",
          "type": "uint256"
        }
      ],
      "name": "withdraw",
      "outputs": [
        {
          "internalType": "bytes32",
          "name": "messageHash_",
          "type": "bytes32"
        }
      ],
      "payable": false,
      "stateMutability": "nonpayable",
      "type": "function"
    }
  ],
  "bytecode": "0x6080604052601180546001600160a01b031916614d0017905534801561002457600080fd5b506134d0806100346000396000f3fe608060405234801561001057600080fd5b50600436106102535760003560e01c80639605795011610146578063d4d11185116100c3578063effff82f11610087578063effff82f14610826578063f02a0e901461082e578063f0df1e7314610836578063f11a29791461083e578063f732ecff1461085b578063fe08d8181461086357610253565b8063d4d1118514610798578063ddd335eb146107a0578063e2aa8559146107de578063efa9c7c914610816578063efefe0eb1461081e57610253565b8063b4907ddc1161010a578063b4907ddc146106ee578063bd362374146106f6578063befce88e14610713578063c9a29f3c14610736578063d31b59681461077257610253565b8063960579501461060f578063965ef01b146106aa5780639f0b7dfe146106b2578063ae640285146106e6578063b1c91e21146106ee57610253565b8063523ce242116101d4578063610ebfe211610198578063610ebfe21461053c5780637b6ba003146105595780637ddcca17146105f757806385248b8a146105ff578063928a735a1461060757610253565b8063523ce2421461048457806352605a74146104b557806358d7889c146105065780635c1dc83a1461050e5780635ecec5641461053457610253565b806320e1855f1161021b57806320e1855f1461044057806323609af7146104645780632fe05ad91461046c5780633b7f2f191461047457806346e356b11461047c57610253565b806302de1ba9146102585780630847901d146102a057806309bf5f38146103675780630e31eb601461038557806316ad76b8146103c3575b600080fd5b61028e6004803603606081101561026e57600080fd5b506001600160a01b0381358116916020810135916040909101351661086b565b60408051918252519081900360200190f35b610365600480360360608110156102b657600080fd5b81359190810190604081016020820135600160201b8111156102d757600080fd5b8201836020820111156102e957600080fd5b803590602001918460018302840111600160201b8311171561030a57600080fd5b919390929091602081019035600160201b81111561032757600080fd5b82018360208201111561033957600080fd5b803590602001918460018302840111600160201b8311171561035a57600080fd5b5090925090506108d0565b005b61036f61094b565b6040805160ff9092168252519081900360200190f35b61028e600480360360a081101561039b57600080fd5b50803590602081013590604081013590606081013590608001356001600160a01b031661095b565b6103cb610977565b6040805160208082528351818301528351919283929083019185019080838360005b838110156104055781810151838201526020016103ed565b50505050905090810190601f1680156104325780820380516001836020036101000a031916815260200191505b509250505060405180910390f35b610448610a05565b604080516001600160a01b039092168252519081900360200190f35b610448610a14565b61028e610a24565b61028e610a3f565b61028e610a45565b6104a16004803603602081101561049a57600080fd5b5035610a60565b604080519115158252519081900360200190f35b610365600480360360e08110156104cb57600080fd5b508035906001600160a01b03602082013581169160408101358216916060820135169060ff6080820135169060a08101359060c00135610a75565b610448610b71565b61028e6004803603602081101561052457600080fd5b50356001600160a01b0316610b80565b61028e610b92565b61028e6004803603602081101561055257600080fd5b5035610b98565b61028e600480360360e081101561056f57600080fd5b8135916001600160a01b0360208201358116926040830135926060810135926080820135169160a0820135919081019060e0810160c0820135600160201b8111156105b957600080fd5b8201836020820111156105cb57600080fd5b803590602001918460018302840111600160201b831117156105ec57600080fd5b509092509050610baa565b61028e610e5d565b61028e610e6c565b61036f610e87565b61028e600480360360e081101561062557600080fd5b8135916020810135916040820135916060810135916001600160a01b036080830135169160a08101359181019060e0810160c0820135600160201b81111561066c57600080fd5b82018360208201111561067e57600080fd5b803590602001918460018302840111600160201b8311171561069f57600080fd5b509092509050610e8c565b610448611044565b61028e600480360360608110156106c857600080fd5b508035906001600160a01b0360208201358116916040013516611053565b6103cb611212565b6103cb611238565b6104a16004803603602081101561070c57600080fd5b5035611255565b61028e6004803603604081101561072957600080fd5b508035906020013561126a565b61028e6004803603608081101561074c57600080fd5b506001600160a01b038135811691602081013582169160408201359160600135166112b9565b61028e6004803603602081101561078857600080fd5b50356001600160a01b0316611325565b610448611337565b61028e600480360360a08110156107b657600080fd5b50803590602081013590604081013590606081013590608001356001600160a01b0316611346565b61028e600480360360808110156107f457600080fd5b508035906001600160a01b036020820135169060408101359060600135611358565b61028e611509565b610448611524565b610448611533565b61028e611542565b61028e611548565b61028e6004803603602081101561085457600080fd5b5035611563565b61028e611575565b61036f611590565b600060405180806132cb60449139604080519182900360440182206020808401919091526001600160a01b03978816838301526060830196909652959093166080808501919091528551808503909101815260a0909301909452508051910120919050565b6109448585858080601f01602080910402602001604051908101604052809392919081815260200183838082843760009201919091525050604080516020601f8901819004810282018101909252878152925087915086908190840183828082843760009201919091525061159592505050565b5050505050565b600d54600160a01b900460ff1681565b600061096d86868686866002546115a5565b9695505050505050565b6009805460408051602060026001851615610100026000190190941693909304601f810184900484028201840190925281815292918301828280156109fd5780601f106109d2576101008083540402835291602001916109fd565b820191906000526020600020905b8154815290600101906020018083116109e057829003601f168201915b505050505081565b6007546001600160a01b031681565b6011546001600160a01b03165b90565b6040518060366131c482396036019050604051809103902081565b60105481565b60405180606061324082396060019050604051809103902081565b60016020526000908152604090205460ff1681565b610a7f8582611658565b610a8987856116d8565b6000866001600160a01b0316637feb51d9896040518263ffffffff1660e01b815260040180828152602001915050602060405180830381600087803b158015610ad157600080fd5b505af1158015610ae5573d6000803e3d6000fd5b505050506040513d6020811015610afb57600080fd5b505190506001600160a01b038116610b5a576040805162461bcd60e51b815260206004820152601d60248201527f416e63686f722061646472657373206d757374206e6f7420626520302e000000604482015290519081900360640190fd5b610b678886868487611805565b5050505050505050565b600f546001600160a01b031681565b600e6020526000908152604090205481565b600c5481565b600a6020526000908152604090205481565b6000805a905089610bec5760405162461bcd60e51b81526004018080602001828103825260288152602001806131146028913960400191505060405180910390fd5b6001600160a01b038916610c315760405162461bcd60e51b815260040180806020018281038252602281526020018061321e6022913960400191505060405180910390fd5b6001600160a01b038616610c8c576040805162461bcd60e51b815260206004820181905260248201527f4465706f7369746f722061646472657373206d757374206e6f7420626520302e604482015290519081900360640190fd5b336000908152600e6020526040902054610cad81600163ffffffff61198616565b336000908152600e6020526040902055601254610d1990610cd8906001600160a01b03168d8d61086b565b828b8b8b8b8b8b8080601f0160208091040260200160405190810160405280939291908181526020018383808284376000920191909152506119a192505050565b92506000610d2e5a849063ffffffff611a7c16565b90506000610d3d828c8c611a91565b90506000610d518e8363ffffffff611a7c16565b600f54604080516340c10f1960e01b81523360048201526024810186905290519293506001600160a01b03909116916340c10f199160448082019260009290919082900301818387803b158015610da757600080fd5b505af1158015610dbb573d6000803e3d6000fd5b50505050600f60009054906101000a90046001600160a01b03166001600160a01b03166340c10f198e836040518363ffffffff1660e01b815260040180836001600160a01b03166001600160a01b0316815260200182815260200192505050600060405180830381600087803b158015610e3457600080fd5b505af1158015610e48573d6000803e3d6000fd5b50505050505050505098975050505050505050565b6000610e67611acc565b905090565b60405180602f61313c8239602f019050604051809103902081565b600481565b60006001600160a01b038516610ee0576040805162461bcd60e51b815260206004820152601460248201527329b2b73232b91030b2323932b9b99034b990181760611b604482015290519081900360640190fd5b87610f26576040805162461bcd60e51b815260206004820152601160248201527025b2b93732b6103430b9b41034b990181760791b604482015290519081900360640190fd5b601054610f3a908a9063ffffffff611a7c16565b600114610f87576040805162461bcd60e51b815260206004820152601660248201527524b73b30b634b21035b2b93732b6103432b4b3b43a1760511b604482015290519081900360640190fd5b60108990556001600160a01b0385166000908152600e6020526040902054610fb681600163ffffffff61198616565b6001600160a01b0387166000908152600e6020526040812091909155610fdc8b8b61126a565b905061102381838b8b8b8b8b8b8080601f0160208091040260200160405190810160405280939291908181526020018383808284376000920191909152506119a192505050565b60009b8c5260136020526040909b2099909955509798975050505050505050565b6003546001600160a01b031681565b60008060405180806131c460369139604080519182900360360182206020808401919091526001600160a01b038089168484015287166060808501919091528251808503909101815260809093019182905282519201919091209250905080605961316b8239605901905060405180910390206040518060400160405280600a8152602001694d6f736169632d42757360b01b815250604051806040016040528060018152602001600360fc1b8152508784604051602001808681526020018060200180602001858152602001848152602001838103835287818151815260200191508051906020019080838360005b8381101561115b578181015183820152602001611143565b50505050905090810190601f1680156111885780820380516001836020036101000a031916815260200191505b50838103825286518152865160209182019188019080838360005b838110156111bb5781810151838201526020016111a3565b50505050905090810190601f1680156111e85780820380516001836020036101000a031916815260200191505b50975050505050505050604051602081830303815290604052805190602001209150509392505050565b6040518060400160405280600a8152602001694d6f736169632d42757360b01b81525081565b604051806040016040528060018152602001600360fc1b81525081565b600b6020526000908152604090205460ff1681565b6000604051808061313c602f91396040805191829003602f0182206020808401919091528282019690965260608083019590955280518083039095018552608090910190525050805191012090565b60006040518080613368605a91396040805191829003605a0182206020808401919091526001600160a01b0398891683830152968816606083015260808201959095529590921660a0808701919091528351808703909101815260c09095019092525050815191012090565b60046020526000908152604090205481565b6008546001600160a01b031681565b600061096d8686868686600c546115a5565b6000846113965760405162461bcd60e51b815260040180806020018281038252602b8152602001806132a0602b913960400191505060405180910390fd5b6001600160a01b0384166113db5760405162461bcd60e51b815260040180806020018281038252602281526020018061321e6022913960400191505060405180910390fd5b6113eb838363ffffffff611aed16565b85116114285760405162461bcd60e51b815260040180806020018281038252603481526020018061330f6034913960400191505060405180910390fd5b601254600f54600091611449916001600160a01b03918216911688886112b9565b3360009081526004602052604090205490915061146d81600163ffffffff61198616565b33600081815260046020526040902091909155611491908390839088908890611b14565b600f546040805163079cc67960e41b8152336004820152602481018b905290519295506001600160a01b03909116916379cc67909160448082019260009290919082900301818387803b1580156114e757600080fd5b505af11580156114fb573d6000803e3d6000fd5b505050505050949350505050565b6040518060446132cb82396044019050604051809103902081565b600d546001600160a01b031681565b6012546001600160a01b031681565b60025481565b60405180605a6133688239605a019050604051809103902081565b60136020526000908152604090205481565b60405180605961316b82396059019050604051809103902081565b600181565b6115a0838383611b9c565b505050565b6000806040518080613240606091396040805191829003606090810183206020808501919091528383019c909c52820199909952608081019790975250505060a08401929092526001600160a01b031660c0808401919091528351808403909101815260e083018452805190850120601960f81b610100840152604d60f81b6101018401526101028301919091526101228083019190915282518083039091018152610142909101909152805191012090565b6001600160a01b0382166116b3576040805162461bcd60e51b815260206004820152601b60248201527f6d6f73742061646472657373206d757374206e6f7420626520302e0000000000604482015290519081900360640190fd5b601055600f80546001600160a01b0319166001600160a01b0392909216919091179055565b6002541561172d576040805162461bcd60e51b815260206004820181905260248201527f4d657373616765206f7574626f7820697320616c72656164792073657475702e604482015290519081900360640190fd5b81611774576040805162461bcd60e51b815260206004820152601260248201527126b2ba30b1b430b4b71034b21034b990181760711b604482015290519081900360640190fd5b6001600160a01b0381166117cf576040805162461bcd60e51b815260206004820152601b60248201527f4d65737361676520696e626f78206164647265737320697320302e0000000000604482015290519081900360640190fd5b600380546001600160a01b0319166001600160a01b0383811691909117918290556117fe918491309116611053565b6002555050565b600c541561185a576040805162461bcd60e51b815260206004820152601f60248201527f4d65737361676520696e626f7820697320616c72656164792073657475702e00604482015290519081900360640190fd5b846118a1576040805162461bcd60e51b815260206004820152601260248201527136b2ba30b1b430b4b71034b21034b990181760711b604482015290519081900360640190fd5b6001600160a01b0384166118f3576040805162461bcd60e51b815260206004820152601460248201527327baba3137bc1030b2323932b9b99034b990181760611b604482015290519081900360640190fd5b6001600160a01b0382166119385760405162461bcd60e51b81526004018080602001828103825260218152602001806133e36021913960400191505060405180910390fd5b600d80546001600160a01b0319166001600160a01b038681169190911760ff60a01b1916600160a01b60ff87160217918290556119789187911630611053565b600c55610944848383611ddd565b60008282018381101561199857600080fd5b90505b92915050565b60006119b38888888888600c546115a5565b6000818152600b602052604090205490915060ff1615611a045760405162461bcd60e51b81526004018080602001828103825260248152602001806134046024913960400191505060405180910390fd5b6000818152600b60205260409020805460ff19166001179055600d54606090611a3790600160a01b900460ff1683611f68565b60408051600160f81b6020808301919091528251808303600101815260219092019092528051910120909150611a70908290868661203b565b50979650505050505050565b600082821115611a8b57600080fd5b50900390565b600081841115611ab257611aab838363ffffffff611aed16565b9050611ac5565b611ac2838563ffffffff611aed16565b90505b9392505050565b6000600560065481548110611add57fe5b9060005260206000200154905090565b600082611afc5750600061199b565b82820282848281611b0957fe5b041461199857600080fd5b6000611b2686868686866002546115a5565b60008181526001602052604090205490915060ff1615611b775760405162461bcd60e51b81526004018080602001828103825260258152602001806133436025913960400191505060405180910390fd5b6000818152600160208190526040909120805460ff1916909117905595945050505050565b8151611bd95760405162461bcd60e51b81526004018080602001828103825260248152602001806131fa6024913960400191505060405180910390fd5b8051611c2c576040805162461bcd60e51b815260206004820152601f60248201527f4c656e677468206f6620524c5020706172656e74206e6f646573206973203000604482015290519081900360640190fd5b60085460408051631870032760e31b81526004810186905290516000926001600160a01b03169163c3801938916024808301926020929190829003018186803b158015611c7857600080fd5b505afa158015611c8c573d6000803e3d6000fd5b505050506040513d6020811015611ca257600080fd5b5051905080611cf8576040805162461bcd60e51b815260206004820152601b60248201527f537461746520726f6f74206d757374206e6f74206265207a65726f0000000000604482015290519081900360640190fd5b6000848152600a602052604090205480610944576009805460408051602060026001851615610100026000190190941693909304601f8101849004840282018401909252818152600093611da893899389939291830182828015611d9d5780601f10611d7257610100808354040283529160200191611d9d565b820191906000526020600020905b815481529060010190602001808311611d8057829003601f168201915b505050505086612136565b6000878152600a60205260408120829055909150611dc587612251565b6000908152600a602052604081205550505050505050565b6008546001600160a01b031615611e34576040805162461bcd60e51b815260206004820152601660248201527529b2ba3ab81034b99030b63932b0b23c903237b7329760511b604482015290519081900360640190fd5b6001600160a01b038316611e8f576040805162461bcd60e51b815260206004820152601d60248201527f53746f72616765206163636f756e74206164647265737320697320302e000000604482015290519081900360640190fd5b6001600160a01b038216611ed45760405162461bcd60e51b81526004018080602001828103825260218152602001806133e36021913960400191505060405180910390fd5b611edd81612298565b600780546001600160a01b038086166001600160a01b0319928316179092556008805492851692909116919091179055604080516bffffffffffffffffffffffff19606086901b166020808301919091528251808303601401815260349092019092528051910120611f4e90612326565b8051611f629160099160209091019061301d565b50505050565b606080611f7f611f7a60ff8616612326565b612350565b90506060611f8f611f7a85612326565b90506060611f9d828461238b565b905061096d816040516020018082805190602001908083835b60208310611fd55780518252601f199092019160209182019101611fb6565b6001836020036101000a038019825116818451168082178552505050505050905001915050604051602081830303815290604052805190602001206040516020018082815260200191505060405160208183030381529060405280519060200120612326565b805161208e576040805162461bcd60e51b815260206004820181905260248201527f4c656e677468206f6620524c5020706172656e74206e6f64657320697320302e604482015290519081900360640190fd5b6000828152600a6020526040902054806120ef576040805162461bcd60e51b815260206004820152601d60248201527f53746f7261676520726f6f74206d757374206e6f74206265207a65726f000000604482015290519081900360640190fd5b6120fb84868484612403565b6109445760405162461bcd60e51b81526004018080602001828103825260218152602001806133c26021913960400191505060405180910390fd5b600061214061309b565b61214986612775565b90506060612156826127be565b90506121758160028151811061216857fe5b6020026020010151612870565b92506000876040516020018082805190602001908083835b602083106121ac5780518252601f19909201916020918201910161218d565b6001836020036101000a0380198251168184511680821785525050505050509050019150506040516020818303038152906040528051906020012090506121f581878988612403565b612246576040805162461bcd60e51b815260206004820152601e60248201527f4163636f756e742070726f6f66206973206e6f742076657269666965642e0000604482015290519081900360640190fd5b505050949350505050565b600061225b61287b565b60056006548154811061226a57fe5b906000526020600020015490508160056006548154811061228757fe5b600091825260209091200155919050565b600081116122d75760405162461bcd60e51b815260040180806020018281038252604d81526020018061344f604d913960600191505060405180910390fd5b600554156123165760405162461bcd60e51b81526004018080602001828103825260278152602001806134286027913960400191505060405180910390fd5b806123226005826130b5565b5050565b60408051602080825281830190925260609160208201818038833950505060208101929092525090565b60608082516020036040519080825280601f01601f191660200182016040528015612382576020820181803883390190505b509050611ac581845b60606040519050825180825260208201818101602086015b818310156123bb5780518352602092830192016123a3565b50845184518101855292509050808201602085015b818310156123e85780518352602092830192016123d0565b50601f19601f87518501158301011660405250505092915050565b600061240d61309b565b61241684612775565b90506060612423826127be565b9050606080856000826124358b612897565b905080516000141561245157600097505050505050505061276d565b60005b86518110156127645781518311156124775760009850505050505050505061276d565b61249387828151811061248657fe5b6020026020010151612912565b9550856040516020018082805190602001908083835b602083106124c85780518252601f1990920191602091820191016124a9565b6001836020036101000a03801982511681845116808217855250505050505090500191505060405160208183030381529060405280519060200120841461251a5760009850505050505050505061276d565b61253687828151811061252957fe5b60200260200101516127be565b94508451601114156126445781518314156125f1578c61255c8660108151811061248657fe5b6040516020018082805190602001908083835b6020831061258e5780518252601f19909201916020918201910161256f565b6001836020036101000a0380198251168184511680821785525050505050509050019150506040516020818303038152906040528051906020012014156125e05760019850505050505050505061276d565b60009850505050505050505061276d565b60008284815181106125ff57fe5b016020015160f81c90506010811115612624576000995050505050505050505061276d565b612636868260ff168151811061216857fe5b94506001840193505061275c565b8451600214156125e05760006126776126708760008151811061266357fe5b6020026020010151612962565b84866129c7565b90508251818501141561272c578d6126958760018151811061266357fe5b6040516020018082805190602001908083835b602083106126c75780518252601f1990920191602091820191016126a8565b6001836020036101000a03801982511681845116808217855250505050505090500191505060405160208183030381529060405280519060200120141561271a576001995050505050505050505061276d565b6000995050505050505050505061276d565b80612743576000995050505050505050505061276d565b80840193506127588660018151811061216857fe5b9450505b600101612454565b50505050505050505b949350505050565b61277d61309b565b81518061279f57505060408051808201909152600080825260208201526127b9565b604080518082019091526020848101825281019190915290505b919050565b60606127c982612b58565b6127d257600080fd5b60006127dd83612b7f565b90508060405190808252806020026020018201604052801561281957816020015b61280661309b565b8152602001906001900390816127fe5790505b5091506128246130d9565b61282d84612bd9565b905060005b61283b82612c10565b156128685761284982612c2f565b84828151811061285557fe5b6020908102919091010152600101612832565b505050919050565b600061199b82612c73565b600680546001019081905560055414156128955760006006555b565b606081516002026040519080825280601f01601f1916602001820160405280156128c8576020820181803883390190505b50905060005b815181101561290c576128e18184612cc3565b8282815181106128ed57fe5b60200101906001600160f81b031916908160001a9053506001016128ce565b50919050565b60208101516060908061292557506127b9565b806040519080825280601f01601f191660200182016040528015612950576020820181803883390190505b50915061290c83600001518383612d20565b606061296d82612d50565b61297657600080fd5b60008061298284612d76565b60408051828152601f19601f840116810160200190915291935091508180156129b2576020820181803883390190505b5092506129c0828483612d20565b5050919050565b600060606129d485612de6565b9050606081516040519080825280601f01601f191660200182016040528015612a04576020820181803883390190505b509050835b82518501811015612a5e576000868281518110612a2257fe5b602001015160f81c60f81b9050808387840381518110612a3e57fe5b60200101906001600160f81b031916908160001a90535050600101612a09565b50806040516020018082805190602001908083835b60208310612a925780518252601f199092019160209182019101612a73565b6001836020036101000a03801982511681845116808217855250505050505090500191505060405160208183030381529060405280519060200120826040516020018082805190602001908083835b60208310612b005780518252601f199092019160209182019101612ae1565b6001836020036101000a038019825116818451168082178552505050505050905001915050604051602081830303815290604052805190602001201415612b4a5781519250612b4f565b600092505b50509392505050565b6000816020015160001415612b6f575060006127b9565b50515160c060009190911a101590565b6000612b8a82612b58565b612b96575060006127b9565b81518051600090811a9190612baa85612f12565b6020860151908301915082016000190160005b81831161096d57612bcd83612f90565b90920191600101612bbd565b612be16130d9565b612bea82612b58565b612bf357600080fd5b6000612bfe83612f12565b83519383529092016020820152919050565b6000612c1a61309b565b50508051602080820151915192015191011190565b612c3761309b565b612c4082612c10565b612c4957600080fd5b60208201516000612c5982612f90565b828452602080850182905292019390910192909252919050565b6000612c7e82612d50565b612c8757600080fd5b600080612c9384612d76565b90925090506020811180612ca5575080155b15612caf57600080fd5b806020036101000a82510492505050919050565b60006002830615612cf4576010826002850481518110612cdf57fe5b016020015160f81c81612cee57fe5b06612d16565b6010826002850481518110612d0557fe5b016020015160f81c81612d1457fe5b045b60f81b9392505050565b6000601f820184602085015b82841015612d47578382015184820152602084019350612d2c565b50505050505050565b6000816020015160001415612d67575060006127b9565b50515160c060009190911a1090565b600080612d8283612d50565b612d8b57600080fd5b8251805160001a906080821015612da957925060019150612de19050565b60b8821015612dc75760018560200151039250806001019350612dde565b602085015182820160b51901945082900360b60192505b50505b915091565b8051606090156127b957600080612dfe600085612cc3565b60f81c90506001811480612e1557508060ff166003145b15612e8d5760018451600202036040519080825280601f01601f191660200182016040528015612e4c576020820181803883390190505b5092506000612e5c600186612cc3565b90508084600081518110612e6c57fe5b60200101906001600160f81b031916908160001a9053506001925050612ec7565b60028451600202036040519080825280601f01601f191660200182016040528015612ebf576020820181803883390190505b509250600091505b60ff82165b835181101561286857612ee78360ff16820360020186612cc3565b848281518110612ef357fe5b60200101906001600160f81b031916908160001a905350600101612ecc565b6000816020015160001415612f29575060006127b9565b8151805160001a906080821015612f45576000925050506127b9565b60b8821080612f60575060c08210158015612f60575060f882105b15612f70576001925050506127b9565b60c0821015612f85575060b5190190506127b9565b5060f5190192915050565b8051600090811a6080811015612fa9576001915061290c565b60b8811015612fbe57607e198101915061290c565b60c0811015612fe757600183015160b76020839003016101000a9004810160b51901915061290c565b60f8811015612ffc5760be198101915061290c565b6001929092015160f76020849003016101000a900490910160f51901919050565b828054600181600116156101000203166002900490600052602060002090601f016020900481019282601f1061305e57805160ff191683800117855561308b565b8280016001018555821561308b579182015b8281111561308b578251825591602001919060010190613070565b506130979291506130f9565b5090565b604051806040016040528060008152602001600081525090565b8154818355818111156115a0576000838152602090206115a09181019083016130f9565b60405180604001604052806130ec61309b565b8152602001600081525090565b610a2191905b8082111561309757600081556001016130ff56fe4465706f73697420616d6f756e742073686f756c642062652067726561746572207468616e20302e4b65726e656c496e74656e742875696e74323536206865696768742c62797465733332206b65726e656c48617368294d6f736169634d65737361676542757328737472696e67206e616d652c737472696e672076657273696f6e2c62797465733332206d657461636861696e49642c62797465733332206368616e6e656c536570617261746f72294d6f736169634d6573736167654275734368616e6e656c2861646472657373206f7574626f782c206164647265737320696e626f78294c656e677468206f6620524c50206163636f756e74206d757374206e6f7420626520302e42656e65666963696172792061646472657373206d757374206e6f7420626520302e4d657373616765286279746573333220696e74656e74486173682c75696e74323536206e6f6e63652c75696e743235362066656547617350726963652c75696e74323536206665654761734c696d69742c616464726573732073656e646572295769746864726177616c20616d6f756e742073686f756c642062652067726561746572207468616e20302e4465706f736974496e74656e7428616464726573732076616c7565546f6b656e2c75696e7432353620616d6f756e742c616464726573732062656e6566696369617279295769746864726177616c20616d6f756e742073686f756c642062652067726561746572207468616e206d6178207265776172642e4d65737361676520616c72656164792065786973747320696e20746865206f7574626f782e5769746864726177496e74656e7428616464726573732076616c7565546f6b656e2c61646472657373207574696c697479546f6b656e2c75696e7432353620616d6f756e742c616464726573732062656e6566696369617279294d65726b6c652070726f6f6620766572696669636174696f6e206661696c65642e537461746520726f6f742070726f7669646572206164647265737320697320302e4d65737361676520616c72656164792065786973747320696e2074686520696e626f782e43697263756c6172206275666665722073697a652063616e206265207365747570206f6e63652e546865206d6178206e756d626572206f66206974656d7320746f2073746f726520696e20612063697263756c617220627566666572206d7573742062652067726561746572207468616e20302ea265627a7a72315820924ba19386b3f2ea4f892bca0cdf4e1360d88a2d63456151485444bc5c2c647c64736f6c634300050d0032",
  "source": "pragma solidity >=0.5.0 <0.6.0;\n\n// Copyright 2019 OpenST Ltd.\n//\n// Licensed under the Apache License, Version 2.0 (the \"License\");\n// you may not use this file except in compliance with the License.\n// You may obtain a copy of the License at\n//\n//    http://www.apache.org/licenses/LICENSE-2.0\n//\n// Unless required by applicable law or agreed to in writing, software\n// distributed under the License is distributed on an \"AS IS\" BASIS,\n// WITHOUT WARRANTIES OR CONDITIONS OF ANY KIND, either express or implied.\n// See the License for the specific language governing permissions and\n// limitations under the License.\n\n\nimport \"../consensus/CoconsensusInterface.sol\";\nimport \"../consensus/CoconsensusModule.sol\";\nimport \"../consensus-gateway/ConsensusGatewayBase.sol\";\nimport \"../erc20-gateway/ERC20GatewayBase.sol\";\nimport \"../message-bus/MessageBus.sol\";\nimport \"../message-bus/StateRootInterface.sol\";\nimport \"../proxies/MasterCopyNonUpgradable.sol\";\nimport \"../utility-token/UtilityTokenInterface.sol\";\n\nimport \"openzeppelin-solidity/contracts/math/SafeMath.sol\";\n\ncontract ConsensusCogateway is MasterCopyNonUpgradable, MessageBus, ConsensusGatewayBase, ERC20GatewayBase, CoconsensusModule {\n\n    /* Usings */\n\n    using SafeMath for uint256;\n\n\n    /* Constants */\n\n    /* Storage offset of message outbox. */\n    uint8 constant public OUTBOX_OFFSET = uint8(1);\n\n    /* Storage offset of message inbox. */\n    uint8 constant public INBOX_OFFSET = uint8(4);\n\n\n    /* Storage */\n\n    /* Value token address. */\n    address public valueToken;\n\n    /** Mapping of kernel height and kernel hash. */\n    mapping(uint256 /* Kernel Height */ => bytes32 /* Kernel Hash */) public  kernelHashes;\n\n\n    /* External functions */\n\n    /**\n     * @notice It sets up consensus cogateway. It can only be called once.\n     *\n     * @param _metachainId Metachain id of a metablock.\n     * @param _coconsensus Address of Coconsensus contract.\n     * @param _utBase Address of UtBase contract at auxiliary chain.\n     * @param _consensusGateway Address of consensus cogateway contract at auxiliary chain.\n     * @param _outboxStorageIndex Outbox Storage index of ConsensusGateway.\n     * @param _maxStorageRootItems Max storage roots to be stored.\n     * @param _metablockHeight Height of the metablock.\n     */\n    function setup(\n        bytes32 _metachainId,\n        address _coconsensus,\n        ERC20I _utBase,\n        address _consensusGateway,\n        uint8 _outboxStorageIndex,\n        uint256 _maxStorageRootItems,\n        uint256 _metablockHeight\n    )\n        external\n    {\n        /*\n         * Setup method can only be called once because of the check for\n         * outboundMessageIdentifier in setupMessageOutbox method of\n         * MessageOutbox contract.\n         */\n\n        ConsensusGatewayBase.setup(_utBase, _metablockHeight);\n\n        MessageOutbox.setupMessageOutbox(\n            _metachainId,\n            _consensusGateway\n        );\n\n        address anchor = CoconsensusInterface(_coconsensus).getAnchor(_metachainId);\n\n        require(\n            anchor != address(0),\n            \"Anchor address must not be 0.\"\n        );\n\n        MessageInbox.setupMessageInbox(\n            _metachainId,\n            _consensusGateway,\n            _outboxStorageIndex,\n            StateRootInterface(anchor),\n            _maxStorageRootItems\n        );\n    }\n\n    /**\n     * @notice Confirm deposit in order to mint tokens.\n     *\n     * @param _amount MOST token deposit amount in atto.\n     * @param _beneficiary Address of beneficiary on target metachain.\n     * @param _feeGasPrice Gas price at which fee will be calculated.\n     * @param _feeGasLimit Gas limit at which fee will be capped.\n     * @param _depositor Address of depositor on the origin chain.\n     * @param _blockNumber Block number of origin chain against which storage\n                           proof is generated.\n     * @param _rlpParentNodes Storage merkle proof to verify message declaration\n     *                        on the origin chain.\n     *\n     * @return messageHash_ Message hash.\n     */\n    function confirmDeposit(\n        uint256 _amount,\n        address payable _beneficiary,\n        uint256 _feeGasPrice,\n        uint256 _feeGasLimit,\n        address _depositor,\n        uint256 _blockNumber,\n        bytes calldata _rlpParentNodes\n    )\n        external\n        returns (bytes32 messageHash_)\n    {\n\n        uint256 initialGas = gasleft();\n\n        require(\n            _amount != 0,\n            \"Deposit amount should be greater than 0.\"\n        );\n        require(\n            _beneficiary != address(0),\n            \"Beneficiary address must not be 0.\"\n        );\n        require(\n            _depositor != address(0),\n            \"Depositor address must not be 0.\"\n        );\n\n        uint256 nonce = MessageInbox.inboxNonces[msg.sender];\n        MessageInbox.inboxNonces[msg.sender] = nonce.add(1);\n\n        messageHash_ = MessageInbox.confirmMessage(\n            ERC20GatewayBase.hashDepositIntent(\n                valueToken,\n                _amount,\n                _beneficiary\n            ),\n            nonce,\n            _feeGasPrice,\n            _feeGasLimit,\n            _depositor,\n            _blockNumber,\n            _rlpParentNodes\n        );\n\n        // Additional gas consumption after this statement can be adjusted with\n        // the gas price value.\n        uint256 gasConsumed = initialGas.sub(gasleft());\n        uint256 feeAmount = ERC20GatewayBase.reward(gasConsumed, _feeGasPrice, _feeGasLimit);\n\n        uint256 mintAmount = _amount.sub(feeAmount);\n\n        UtilityTokenInterface(address(most)).mint(msg.sender, feeAmount);\n\n        UtilityTokenInterface(address(most)).mint(_beneficiary, mintAmount);\n    }\n\n    /**\n     * @notice This method will be called by anyone to verify merkle proof of\n     *          consensus gateway contract address.\n     *\n     *  @param _blockNumber Block number at which consensus gateway is to be proven.\n     *  @param _rlpAccount RLP encoded account node object.\n     *  @param _rlpParentNodes RLP encoded value of account proof node array.\n     */\n    function proveConsensusGateway(\n        uint256 _blockNumber,\n        bytes calldata _rlpAccount,\n        bytes calldata _rlpParentNodes\n    )\n        external\n    {\n        MessageInbox.proveStorageAccount(\n            _blockNumber,\n            _rlpAccount,\n            _rlpParentNodes\n        );\n    }\n\n    /**\n     * @notice Gets the remote gateway latest proven block number.\n     *\n     * @return blockNumber_ Remote gateway latest proven block number.\n     */\n    function getRemoteGatewayLatestProvenBlockNumber()\n        external\n        view\n        returns (uint256 blockNumber_)\n    {\n        blockNumber_ = CircularBufferUint.head();\n    }\n\n    /**\n     * @notice Confirms the initiation of opening a kernel at auxiliary chain.\n     *\n     * @dev Function requires:\n     *          - Sender address must not be 0.\n     *          - Kernel hash must not be 0.\n     *          - Difference between kernelheight and current metablock height\n     *            must be 1.\n     *\n     * @param _kernelHeight Height of the kernel.\n     * @param _kernelHash Hash of the kernel.\n     * @param _feeGasPrice Gas price which the sender is willing to pay.\n     * @param _feeGasLimit Gas limit which the sender is willing to pay.\n     * @param _sender Sender address.\n     * @param _blockNumber Block number at which proof is valid.\n     * @param _rlpParentNodes RLP encoded parent node data to prove message\n     *                        exists in outbox of ConsensusGateway.\n     *\n     * @return messageHash_ Message hash.\n     */\n    function confirmOpenKernel(\n        uint256 _kernelHeight,\n        bytes32 _kernelHash,\n        uint256 _feeGasPrice,\n        uint256 _feeGasLimit,\n        address _sender,\n        uint256 _blockNumber,\n        bytes calldata _rlpParentNodes\n    )\n        external\n        returns (bytes32 messageHash_)\n    {\n        require(\n            _sender != address(0),\n            \"Sender address is 0.\"\n        );\n        require(\n            _kernelHash != bytes32(0),\n            \"Kernel hash is 0.\"\n        );\n        require(\n            _kernelHeight.sub(currentMetablockHeight) == 1,\n            \"Invalid kernel height.\"\n        );\n\n        currentMetablockHeight = _kernelHeight;\n\n        uint256 nonce = MessageInbox.inboxNonces[_sender];\n        MessageInbox.inboxNonces[_sender] = nonce.add(1);\n\n        bytes32 kernelIntentHash = hashKernelIntent(\n            _kernelHeight,\n            _kernelHash\n        );\n\n        messageHash_ = MessageInbox.confirmMessage(\n            kernelIntentHash,\n            nonce,\n            _feeGasPrice,\n            _feeGasLimit,\n            _sender,\n            _blockNumber,\n            _rlpParentNodes\n        );\n\n        kernelHashes[_kernelHeight] = _kernelHash;\n    }\n\n    /**\n     * @notice It allows withdrawing UtBase tokens. Withdrawer needs to\n     *         approve consensus cogateway contract for the amount to\n     *         be withdrawn.\n     *\n     * @dev Function requires :\n     *          - Amount must not be 0.\n     *          - Beneficiary must not be 0.\n     *          - Withdrawal amount must be greater than multiplication of\n     *            gas price and gas limit.\n     * @param _amount Amount of tokens to be redeemed.\n     * @param _beneficiary The address in the origin chain where the value\n     *                     where the tokens will be withdrawn.\n     * @param _feeGasPrice Gas price at which fee will be calculated.\n     * @param _feeGasLimit Gas limit at which fee will be capped.\n     *\n     * @return messageHash_ Message hash.\n     */\n    function withdraw(\n        uint256 _amount,\n        address _beneficiary,\n        uint256 _feeGasPrice,\n        uint256 _feeGasLimit\n    )\n        external\n        returns(bytes32 messageHash_)\n    {\n        require(\n            _amount != 0,\n            \"Withdrawal amount should be greater than 0.\"\n        );\n        require(\n            _beneficiary != address(0),\n            \"Beneficiary address must not be 0.\"\n        );\n        require(\n            _amount > _feeGasPrice.mul(_feeGasLimit),\n            \"Withdrawal amount should be greater than max reward.\"\n        );\n\n        bytes32 withdrawIntentHash = hashWithdrawIntent(\n            valueToken,\n            address(most),\n            _amount,\n            _beneficiary\n        );\n\n        uint256 nonce = MessageOutbox.outboxNonces[msg.sender];\n        MessageOutbox.outboxNonces[msg.sender] = nonce.add(1);\n\n        messageHash_ = MessageOutbox.declareMessage(\n            withdrawIntentHash,\n            nonce,\n            _feeGasPrice,\n            _feeGasLimit,\n            msg.sender\n        );\n\n        UtilityTokenInterface(address(most)).burnFrom(msg.sender, _amount);\n    }\n}\n",
  "sourcePath": "/Users/abhay/Documents/projects/abhayforks/mosaic-1/contracts/consensus-gateway/ConsensusCogateway.sol",
  "compiler": {
    "name": "solc",
    "version": "0.5.13+commit.5b0b510c.Emscripten.clang"
  },
  "schemaVersion": "3.0.17",
  "updatedAt": "2020-03-21T06:48:34.626Z",
  "devdoc": {
    "methods": {
      "confirmDeposit(uint256,address,uint256,uint256,address,uint256,bytes)": {
        "params": {
          "_amount": "MOST token deposit amount in atto.",
          "_beneficiary": "Address of beneficiary on target metachain.",
          "_blockNumber": "Block number of origin chain against which storage proof is generated.",
          "_depositor": "Address of depositor on the origin chain.",
          "_feeGasLimit": "Gas limit at which fee will be capped.",
          "_feeGasPrice": "Gas price at which fee will be calculated.",
          "_rlpParentNodes": "Storage merkle proof to verify message declaration                       on the origin chain."
        },
        "return": "messageHash_ Message hash."
      },
      "confirmOpenKernel(uint256,bytes32,uint256,uint256,address,uint256,bytes)": {
        "details": "Function requires:         - Sender address must not be 0.         - Kernel hash must not be 0.         - Difference between kernelheight and current metablock height           must be 1.",
        "params": {
          "_blockNumber": "Block number at which proof is valid.",
          "_feeGasLimit": "Gas limit which the sender is willing to pay.",
          "_feeGasPrice": "Gas price which the sender is willing to pay.",
          "_kernelHash": "Hash of the kernel.",
          "_kernelHeight": "Height of the kernel.",
          "_rlpParentNodes": "RLP encoded parent node data to prove message                       exists in outbox of ConsensusGateway.",
          "_sender": "Sender address."
        },
        "return": "messageHash_ Message hash."
      },
      "getCoconsensus()": {
        "return": "Coconsensus contract address."
      },
      "getRemoteGatewayLatestProvenBlockNumber()": {
        "return": "blockNumber_ Remote gateway latest proven block number."
      },
      "hashChannelIdentifier(bytes32,address,address)": {
        "params": {
          "_inbox": "Inbox address.",
          "_metachainId": "Metachain identifier.",
          "_outbox": "Outbox address."
        }
      },
      "hashDepositIntent(address,uint256,address)": {
        "params": {
          "_amount": "Amount of tokens.",
          "_beneficiary": "Beneficiary address.",
          "_valueToken": "Value token Address."
        },
        "return": "depositIntentHash_ Hash of deposit intent."
      },
      "hashKernelIntent(uint256,bytes32)": {
        "params": {
          "_height": "Height of metablock.",
          "_kernelHash": "Hash of kernel at given height."
        },
        "return": "kernelIntentHash_ Kernel intent hash."
      },
      "hashWithdrawIntent(address,address,uint256,address)": {
        "params": {
          "_amount": "Amount of tokens.",
          "_beneficiary": "Beneficiary address.",
          "_utilityToken": "Utility token address.",
          "_valueToken": "Value token address."
        },
        "return": "withdrawIntentHash_ Hash of withdraw intent."
      },
      "inboxMessageHash(bytes32,uint256,uint256,uint256,address)": {
        "params": {
          "_feeGasLimit": "Fee gas limit.",
          "_feeGasPrice": "Fee gas price.",
          "_intentHash": "Intent hash of message.",
          "_nonce": "Nonce of sender.",
          "_sender": "Sender address."
        },
        "return": "messageHash_ Message hash."
      },
      "outboxMessageHash(bytes32,uint256,uint256,uint256,address)": {
        "params": {
          "_feeGasLimit": "Fee gas limit.",
          "_feeGasPrice": "Fee gas price.",
          "_intentHash": "Intent hash of message.",
          "_nonce": "Nonce of sender.",
          "_sender": "Sender address."
        },
        "return": "messageHash_ Message hash."
      },
      "proveConsensusGateway(uint256,bytes,bytes)": {
        "params": {
          "_blockNumber": "Block number at which consensus gateway is to be proven.",
          "_rlpAccount": "RLP encoded account node object.",
          "_rlpParentNodes": "RLP encoded value of account proof node array."
        }
      },
      "setup(bytes32,address,address,address,uint8,uint256,uint256)": {
        "params": {
          "_coconsensus": "Address of Coconsensus contract.",
          "_consensusGateway": "Address of consensus cogateway contract at auxiliary chain.",
          "_maxStorageRootItems": "Max storage roots to be stored.",
          "_metablockHeight": "Height of the metablock.",
          "_metachainId": "Metachain id of a metablock.",
          "_outboxStorageIndex": "Outbox Storage index of ConsensusGateway.",
          "_utBase": "Address of UtBase contract at auxiliary chain."
        }
      },
      "withdraw(uint256,address,uint256,uint256)": {
        "details": "Function requires :         - Amount must not be 0.         - Beneficiary must not be 0.         - Withdrawal amount must be greater than multiplication of           gas price and gas limit.",
        "params": {
          "_amount": "Amount of tokens to be redeemed.",
          "_beneficiary": "The address in the origin chain where the value                    where the tokens will be withdrawn.",
          "_feeGasLimit": "Gas limit at which fee will be capped.",
          "_feeGasPrice": "Gas price at which fee will be calculated."
        },
        "return": "messageHash_ Message hash."
      }
    }
  },
  "userdoc": {
    "methods": {
      "confirmDeposit(uint256,address,uint256,uint256,address,uint256,bytes)": {
        "notice": "Confirm deposit in order to mint tokens."
      },
      "confirmOpenKernel(uint256,bytes32,uint256,uint256,address,uint256,bytes)": {
        "notice": "Confirms the initiation of opening a kernel at auxiliary chain."
      },
      "getCoconsensus()": {
        "notice": "Gets the coconsensus contract address."
      },
      "getRemoteGatewayLatestProvenBlockNumber()": {
        "notice": "Gets the remote gateway latest proven block number."
      },
      "hashChannelIdentifier(bytes32,address,address)": {
        "notice": "Generate channel identifier hash from the input params"
      },
      "hashDepositIntent(address,uint256,address)": {
        "notice": "It returns hash of deposit intent."
      },
      "hashKernelIntent(uint256,bytes32)": {
        "notice": "Creates kernel intent hash."
      },
      "hashWithdrawIntent(address,address,uint256,address)": {
        "notice": "It returns hash of withdraw intent."
      },
      "inboxMessageHash(bytes32,uint256,uint256,uint256,address)": {
        "notice": "Generate inbox message hash from the input params"
      },
      "outboxMessageHash(bytes32,uint256,uint256,uint256,address)": {
        "notice": "Generate outbox message hash from the input params"
      },
      "proveConsensusGateway(uint256,bytes,bytes)": {
        "notice": "This method will be called by anyone to verify merkle proof of         consensus gateway contract address."
      },
      "setup(bytes32,address,address,address,uint8,uint256,uint256)": {
        "notice": "It sets up consensus cogateway. It can only be called once."
      },
      "withdraw(uint256,address,uint256,uint256)": {
        "notice": "It allows withdrawing UtBase tokens. Withdrawer needs to        approve consensus cogateway contract for the amount to        be withdrawn."
      }
    }
  }
}