{
  "contractName": "ConsensusGateway",
  "abi": [
    {
      "anonymous": false,
      "inputs": [
        {
          "indexed": false,
          "internalType": "address",
          "name": "remoteGateway",
          "type": "address"
        },
        {
          "indexed": false,
          "internalType": "uint256",
          "name": "blockNumber",
          "type": "uint256"
        }
      ],
      "name": "GatewayProven",
      "type": "event"
    },
    {
      "constant": true,
      "inputs": [],
      "name": "DEPOSIT_INTENT_TYPEHASH",
      "outputs": [
        {
          "internalType": "bytes32",
          "name": "",
          "type": "bytes32"
        }
      ],
      "payable": false,
      "stateMutability": "view",
      "type": "function"
    },
    {
      "constant": true,
      "inputs": [],
      "name": "DOMAIN_SEPARATOR_VERSION",
      "outputs": [
        {
          "internalType": "string",
          "name": "",
          "type": "string"
        }
      ],
      "payable": false,
      "stateMutability": "view",
      "type": "function"
    },
    {
      "constant": true,
      "inputs": [],
      "name": "INBOX_OFFSET",
      "outputs": [
        {
          "internalType": "uint8",
          "name": "",
          "type": "uint8"
        }
      ],
      "payable": false,
      "stateMutability": "view",
      "type": "function"
    },
    {
      "constant": true,
      "inputs": [],
      "name": "KERNEL_INTENT_TYPEHASH",
      "outputs": [
        {
          "internalType": "bytes32",
          "name": "",
          "type": "bytes32"
        }
      ],
      "payable": false,
      "stateMutability": "view",
      "type": "function"
    },
    {
      "constant": true,
      "inputs": [],
      "name": "MESSAGE_TYPEHASH",
      "outputs": [
        {
          "internalType": "bytes32",
          "name": "",
          "type": "bytes32"
        }
      ],
      "payable": false,
      "stateMutability": "view",
      "type": "function"
    },
    {
      "constant": true,
      "inputs": [],
      "name": "MMB_CHANNEL_TYPEHASH",
      "outputs": [
        {
          "internalType": "bytes32",
          "name": "",
          "type": "bytes32"
        }
      ],
      "payable": false,
      "stateMutability": "view",
      "type": "function"
    },
    {
      "constant": true,
      "inputs": [],
      "name": "MMB_DOMAIN_SEPARATOR_NAME",
      "outputs": [
        {
          "internalType": "string",
          "name": "",
          "type": "string"
        }
      ],
      "payable": false,
      "stateMutability": "view",
      "type": "function"
    },
    {
      "constant": true,
      "inputs": [],
      "name": "MMB_DOMAIN_SEPARATOR_TYPEHASH",
      "outputs": [
        {
          "internalType": "bytes32",
          "name": "",
          "type": "bytes32"
        }
      ],
      "payable": false,
      "stateMutability": "view",
      "type": "function"
    },
    {
      "constant": true,
      "inputs": [],
      "name": "MMB_DOMAIN_SEPARATOR_VERSION",
      "outputs": [
        {
          "internalType": "string",
          "name": "",
          "type": "string"
        }
      ],
      "payable": false,
      "stateMutability": "view",
      "type": "function"
    },
    {
      "constant": true,
      "inputs": [],
      "name": "OUTBOX_OFFSET",
      "outputs": [
        {
          "internalType": "uint8",
          "name": "",
          "type": "uint8"
        }
      ],
      "payable": false,
      "stateMutability": "view",
      "type": "function"
    },
    {
      "constant": true,
      "inputs": [],
      "name": "WITHDRAW_INTENT_TYPEHASH",
      "outputs": [
        {
          "internalType": "bytes32",
          "name": "",
          "type": "bytes32"
        }
      ],
      "payable": false,
      "stateMutability": "view",
      "type": "function"
    },
    {
      "constant": true,
      "inputs": [],
      "name": "consensus",
      "outputs": [
        {
          "internalType": "contract ConsensusInterface",
          "name": "",
          "type": "address"
        }
      ],
      "payable": false,
      "stateMutability": "view",
      "type": "function"
    },
    {
      "constant": true,
      "inputs": [],
      "name": "currentMetablockHeight",
      "outputs": [
        {
          "internalType": "uint256",
          "name": "",
          "type": "uint256"
        }
      ],
      "payable": false,
      "stateMutability": "view",
      "type": "function"
    },
    {
      "constant": true,
      "inputs": [],
      "name": "encodedAccountPath",
      "outputs": [
        {
          "internalType": "bytes",
          "name": "",
          "type": "bytes"
        }
      ],
      "payable": false,
      "stateMutability": "view",
      "type": "function"
    },
    {
      "constant": true,
      "inputs": [
        {
          "internalType": "bytes32",
          "name": "_metachainId",
          "type": "bytes32"
        },
        {
          "internalType": "address",
          "name": "_outbox",
          "type": "address"
        },
        {
          "internalType": "address",
          "name": "_inbox",
          "type": "address"
        }
      ],
      "name": "hashChannelIdentifier",
      "outputs": [
        {
          "internalType": "bytes32",
          "name": "channelIdentifier_",
          "type": "bytes32"
        }
      ],
      "payable": false,
      "stateMutability": "pure",
      "type": "function"
    },
    {
      "constant": true,
      "inputs": [
        {
          "internalType": "address",
          "name": "_valueToken",
          "type": "address"
        },
        {
          "internalType": "uint256",
          "name": "_amount",
          "type": "uint256"
        },
        {
          "internalType": "address",
          "name": "_beneficiary",
          "type": "address"
        }
      ],
      "name": "hashDepositIntent",
      "outputs": [
        {
          "internalType": "bytes32",
          "name": "depositIntentHash_",
          "type": "bytes32"
        }
      ],
      "payable": false,
      "stateMutability": "pure",
      "type": "function"
    },
    {
      "constant": true,
      "inputs": [
        {
          "internalType": "uint256",
          "name": "_height",
          "type": "uint256"
        },
        {
          "internalType": "bytes32",
          "name": "_kernelHash",
          "type": "bytes32"
        }
      ],
      "name": "hashKernelIntent",
      "outputs": [
        {
          "internalType": "bytes32",
          "name": "kernelIntentHash_",
          "type": "bytes32"
        }
      ],
      "payable": false,
      "stateMutability": "pure",
      "type": "function"
    },
    {
      "constant": true,
      "inputs": [
        {
          "internalType": "address",
          "name": "_valueToken",
          "type": "address"
        },
        {
          "internalType": "address",
          "name": "_utilityToken",
          "type": "address"
        },
        {
          "internalType": "uint256",
          "name": "_amount",
          "type": "uint256"
        },
        {
          "internalType": "address",
          "name": "_beneficiary",
          "type": "address"
        }
      ],
      "name": "hashWithdrawIntent",
      "outputs": [
        {
          "internalType": "bytes32",
          "name": "withdrawIntentHash_",
          "type": "bytes32"
        }
      ],
      "payable": false,
      "stateMutability": "pure",
      "type": "function"
    },
    {
      "constant": true,
      "inputs": [],
      "name": "inboundChannelIdentifier",
      "outputs": [
        {
          "internalType": "bytes32",
          "name": "",
          "type": "bytes32"
        }
      ],
      "payable": false,
      "stateMutability": "view",
      "type": "function"
    },
    {
      "constant": true,
      "inputs": [
        {
          "internalType": "bytes32",
          "name": "",
          "type": "bytes32"
        }
      ],
      "name": "inbox",
      "outputs": [
        {
          "internalType": "bool",
          "name": "",
          "type": "bool"
        }
      ],
      "payable": false,
      "stateMutability": "view",
      "type": "function"
    },
    {
      "constant": true,
      "inputs": [
        {
          "internalType": "bytes32",
          "name": "_intentHash",
          "type": "bytes32"
        },
        {
          "internalType": "uint256",
          "name": "_nonce",
          "type": "uint256"
        },
        {
          "internalType": "uint256",
          "name": "_feeGasPrice",
          "type": "uint256"
        },
        {
          "internalType": "uint256",
          "name": "_feeGasLimit",
          "type": "uint256"
        },
        {
          "internalType": "address",
          "name": "_sender",
          "type": "address"
        }
      ],
      "name": "inboxMessageHash",
      "outputs": [
        {
          "internalType": "bytes32",
          "name": "messageHash_",
          "type": "bytes32"
        }
      ],
      "payable": false,
      "stateMutability": "view",
      "type": "function"
    },
    {
      "constant": true,
      "inputs": [
        {
          "internalType": "address",
          "name": "",
          "type": "address"
        }
      ],
      "name": "inboxNonces",
      "outputs": [
        {
          "internalType": "uint256",
          "name": "",
          "type": "uint256"
        }
      ],
      "payable": false,
      "stateMutability": "view",
      "type": "function"
    },
    {
      "constant": true,
      "inputs": [],
      "name": "messageInbox",
      "outputs": [
        {
          "internalType": "address",
          "name": "",
          "type": "address"
        }
      ],
      "payable": false,
      "stateMutability": "view",
      "type": "function"
    },
    {
      "constant": true,
      "inputs": [],
      "name": "messageOutbox",
      "outputs": [
        {
          "internalType": "address",
          "name": "",
          "type": "address"
        }
      ],
      "payable": false,
      "stateMutability": "view",
      "type": "function"
    },
    {
      "constant": true,
      "inputs": [],
      "name": "most",
      "outputs": [
        {
          "internalType": "contract ERC20I",
          "name": "",
          "type": "address"
        }
      ],
      "payable": false,
      "stateMutability": "view",
      "type": "function"
    },
    {
      "constant": true,
      "inputs": [],
      "name": "outboundChannelIdentifier",
      "outputs": [
        {
          "internalType": "bytes32",
          "name": "",
          "type": "bytes32"
        }
      ],
      "payable": false,
      "stateMutability": "view",
      "type": "function"
    },
    {
      "constant": true,
      "inputs": [
        {
          "internalType": "bytes32",
          "name": "",
          "type": "bytes32"
        }
      ],
      "name": "outbox",
      "outputs": [
        {
          "internalType": "bool",
          "name": "",
          "type": "bool"
        }
      ],
      "payable": false,
      "stateMutability": "view",
      "type": "function"
    },
    {
      "constant": true,
      "inputs": [
        {
          "internalType": "bytes32",
          "name": "_intentHash",
          "type": "bytes32"
        },
        {
          "internalType": "uint256",
          "name": "_nonce",
          "type": "uint256"
        },
        {
          "internalType": "uint256",
          "name": "_feeGasPrice",
          "type": "uint256"
        },
        {
          "internalType": "uint256",
          "name": "_feeGasLimit",
          "type": "uint256"
        },
        {
          "internalType": "address",
          "name": "_sender",
          "type": "address"
        }
      ],
      "name": "outboxMessageHash",
      "outputs": [
        {
          "internalType": "bytes32",
          "name": "messageHash_",
          "type": "bytes32"
        }
      ],
      "payable": false,
      "stateMutability": "view",
      "type": "function"
    },
    {
      "constant": true,
      "inputs": [
        {
          "internalType": "address",
          "name": "",
          "type": "address"
        }
      ],
      "name": "outboxNonces",
      "outputs": [
        {
          "internalType": "uint256",
          "name": "",
          "type": "uint256"
        }
      ],
      "payable": false,
      "stateMutability": "view",
      "type": "function"
    },
    {
      "constant": true,
      "inputs": [],
      "name": "outboxStorageIndex",
      "outputs": [
        {
          "internalType": "uint8",
          "name": "",
          "type": "uint8"
        }
      ],
      "payable": false,
      "stateMutability": "view",
      "type": "function"
    },
    {
      "constant": true,
      "inputs": [],
      "name": "stateRootProvider",
      "outputs": [
        {
          "internalType": "contract StateRootInterface",
          "name": "",
          "type": "address"
        }
      ],
      "payable": false,
      "stateMutability": "view",
      "type": "function"
    },
    {
      "constant": true,
      "inputs": [],
      "name": "storageAccount",
      "outputs": [
        {
          "internalType": "address",
          "name": "",
          "type": "address"
        }
      ],
      "payable": false,
      "stateMutability": "view",
      "type": "function"
    },
    {
      "constant": true,
      "inputs": [
        {
          "internalType": "uint256",
          "name": "",
          "type": "uint256"
        }
      ],
      "name": "storageRoots",
      "outputs": [
        {
          "internalType": "bytes32",
          "name": "",
          "type": "bytes32"
        }
      ],
      "payable": false,
      "stateMutability": "view",
      "type": "function"
    },
    {
      "constant": true,
      "inputs": [],
      "name": "utilityToken",
      "outputs": [
        {
          "internalType": "address",
          "name": "",
          "type": "address"
        }
      ],
      "payable": false,
      "stateMutability": "view",
      "type": "function"
    },
    {
      "constant": false,
      "inputs": [
        {
          "internalType": "bytes32",
          "name": "_metachainId",
          "type": "bytes32"
        },
        {
          "internalType": "contract ConsensusInterface",
          "name": "_consensus",
          "type": "address"
        },
        {
          "internalType": "contract ERC20I",
          "name": "_most",
          "type": "address"
        },
        {
          "internalType": "address",
          "name": "_consensusCogateway",
          "type": "address"
        },
        {
          "internalType": "uint256",
          "name": "_maxStorageRootItems",
          "type": "uint256"
        },
        {
          "internalType": "uint8",
          "name": "_outboxStorageIndex",
          "type": "uint8"
        }
      ],
      "name": "setup",
      "outputs": [],
      "payable": false,
      "stateMutability": "nonpayable",
      "type": "function"
    },
    {
      "constant": false,
      "inputs": [
        {
          "internalType": "uint256",
          "name": "_amount",
          "type": "uint256"
        },
        {
          "internalType": "address",
          "name": "_beneficiary",
          "type": "address"
        },
        {
          "internalType": "uint256",
          "name": "_feeGasPrice",
          "type": "uint256"
        },
        {
          "internalType": "uint256",
          "name": "_feeGasLimit",
          "type": "uint256"
        }
      ],
      "name": "deposit",
      "outputs": [
        {
          "internalType": "bytes32",
          "name": "messageHash_",
          "type": "bytes32"
        }
      ],
      "payable": false,
      "stateMutability": "nonpayable",
      "type": "function"
    },
    {
      "constant": false,
      "inputs": [
        {
          "internalType": "address",
          "name": "_core",
          "type": "address"
        },
        {
          "internalType": "uint256",
          "name": "_feeGasPrice",
          "type": "uint256"
        },
        {
          "internalType": "uint256",
          "name": "_feeGasLimit",
          "type": "uint256"
        }
      ],
      "name": "declareOpenKernel",
      "outputs": [
        {
          "internalType": "bytes32",
          "name": "messageHash_",
          "type": "bytes32"
        }
      ],
      "payable": false,
      "stateMutability": "nonpayable",
      "type": "function"
    },
    {
      "constant": false,
      "inputs": [
        {
          "internalType": "uint256",
          "name": "_amount",
          "type": "uint256"
        },
        {
          "internalType": "address",
          "name": "_beneficiary",
          "type": "address"
        },
        {
          "internalType": "uint256",
          "name": "_feeGasPrice",
          "type": "uint256"
        },
        {
          "internalType": "uint256",
          "name": "_feeGasLimit",
          "type": "uint256"
        },
        {
          "internalType": "address",
          "name": "_withdrawer",
          "type": "address"
        },
        {
          "internalType": "uint256",
          "name": "_blockNumber",
          "type": "uint256"
        },
        {
          "internalType": "bytes",
          "name": "_rlpParentNodes",
          "type": "bytes"
        }
      ],
      "name": "confirmWithdraw",
      "outputs": [
        {
          "internalType": "bytes32",
          "name": "messageHash_",
          "type": "bytes32"
        }
      ],
      "payable": false,
      "stateMutability": "nonpayable",
      "type": "function"
    },
    {
      "constant": true,
      "inputs": [],
      "name": "getRemoteGatewayLatestProvenBlockNumber",
      "outputs": [
        {
          "internalType": "uint256",
          "name": "blockNumber_",
          "type": "uint256"
        }
      ],
      "payable": false,
      "stateMutability": "view",
      "type": "function"
    }
  ],
  "bytecode": "0x6080604052601280546001600160a01b031916905534801561002057600080fd5b50613186806100306000396000f3fe608060405234801561001057600080fd5b506004361061023d5760003560e01c8063928a735a1161013b578063d31b5968116100b8578063efefe0eb1161007c578063efefe0eb146106df578063f02a0e90146106e7578063f0df1e73146106ef578063f732ecff146106f7578063fe08d818146106ff5761023d565b8063d31b596814610639578063d4d111851461065f578063ddd335eb14610667578063e5acd280146106a5578063efa9c7c9146106d75761023d565b8063b1c91e21116100ff578063b1c91e21146105b5578063b4907ddc146105b5578063bd362374146105bd578063befce88e146105da578063c9a29f3c146105fd5761023d565b8063928a735a14610561578063965ef01b146105695780639f0b7dfe14610571578063ae640285146105a5578063ae86ed89146105ad5761023d565b8063506fba06116101c9578063610ebfe21161018d578063610ebfe2146104f45780636f0372af146105115780637ddcca171461054957806385248b8a146105515780638ef3f761146105595761023d565b8063506fba061461043f578063523ce2421461048d57806358d7889c146104be5780635c1dc83a146104c65780635ecec564146104ec5761023d565b806316ad76b81161021057806316ad76b81461038657806320e1855f146104035780632fe05ad9146104275780633b7f2f191461042f57806346e356b1146104375761023d565b806302369ae01461024257806302de1ba9146102f457806309bf5f381461032a5780630e31eb6014610348575b600080fd5b6102e2600480360360e081101561025857600080fd5b8135916001600160a01b0360208201358116926040830135926060810135926080820135169160a0820135919081019060e0810160c08201356401000000008111156102a357600080fd5b8201836020820111156102b557600080fd5b803590602001918460018302840111640100000000831117156102d757600080fd5b509092509050610707565b60408051918252519081900360200190f35b6102e26004803603606081101561030a57600080fd5b506001600160a01b03813581169160208101359160409091013516610a60565b610332610ac5565b6040805160ff9092168252519081900360200190f35b6102e2600480360360a081101561035e57600080fd5b50803590602081013590604081013590606081013590608001356001600160a01b0316610ad5565b61038e610af1565b6040805160208082528351818301528351919283929083019185019080838360005b838110156103c85781810151838201526020016103b0565b50505050905090810190601f1680156103f55780820380516001836020036101000a031916815260200191505b509250505060405180910390f35b61040b610b7f565b604080516001600160a01b039092168252519081900360200190f35b6102e2610b8e565b6102e2610ba9565b6102e2610baf565b61048b600480360360c081101561045557600080fd5b5080359060208101356001600160a01b039081169160408101358216916060820135169060808101359060a0013560ff16610bca565b005b6104aa600480360360208110156104a357600080fd5b5035610c74565b604080519115158252519081900360200190f35b61040b610c89565b6102e2600480360360208110156104dc57600080fd5b50356001600160a01b0316610c98565b6102e2610caa565b6102e26004803603602081101561050a57600080fd5b5035610cb0565b6102e26004803603608081101561052757600080fd5b508035906001600160a01b036020820135169060408101359060600135610cc2565b6102e2610ed8565b6102e2610ee7565b61040b610f02565b610332610f11565b61040b610f16565b6102e26004803603606081101561058757600080fd5b508035906001600160a01b0360208201358116916040013516610f25565b61038e6110e4565b61040b61110a565b61038e611119565b6104aa600480360360208110156105d357600080fd5b5035611136565b6102e2600480360360408110156105f057600080fd5b508035906020013561114b565b6102e26004803603608081101561061357600080fd5b506001600160a01b0381358116916020810135821691604082013591606001351661119a565b6102e26004803603602081101561064f57600080fd5b50356001600160a01b0316611206565b61040b611218565b6102e2600480360360a081101561067d57600080fd5b50803590602081013590604081013590606081013590608001356001600160a01b0316611227565b6102e2600480360360608110156106bb57600080fd5b506001600160a01b038135169060208101359060400135611239565b6102e261140c565b61040b611427565b6102e2611436565b6102e261143c565b6102e2611457565b610332611472565b6000805a9050896107495760405162461bcd60e51b8152600401808060200182810382526029815260200180612e246029913960400191505060405180910390fd5b6001600160a01b03891661078e5760405162461bcd60e51b8152600401808060200182810382526022815260200180612e4d6022913960400191505060405180910390fd5b6001600160a01b0386166107d35760405162461bcd60e51b8152600401808060200182810382526021815260200180612f826021913960400191505060405180910390fd5b336000908152600e60205260409020546107f481600163ffffffff61147716565b336000908152600e6020526040902055600f5460125461086791610826916001600160a01b0391821691168e8e61119a565b828b8b8b8b8b8b8080601f01602080910402602001604051908101604052809392919081815260200183838082843760009201919091525061149292505050565b9250600061087c5a849063ffffffff61156d16565b9050600061088b828c8c611582565b9050600061089f8e8363ffffffff61156d16565b600f546040805163a9059cbb60e01b81523360048201526024810186905290519293506001600160a01b039091169163a9059cbb916044808201926020929091908290030181600087803b1580156108f657600080fd5b505af115801561090a573d6000803e3d6000fd5b505050506040513d602081101561092057600080fd5b5051610973576040805162461bcd60e51b815260206004820152601d60248201527f526577617264207472616e73666572206d75737420737563636565642e000000604482015290519081900360640190fd5b600f60009054906101000a90046001600160a01b03166001600160a01b031663a9059cbb8e836040518363ffffffff1660e01b815260040180836001600160a01b03166001600160a01b0316815260200182815260200192505050602060405180830381600087803b1580156109e857600080fd5b505af11580156109fc573d6000803e3d6000fd5b505050506040513d6020811015610a1257600080fd5b5051610a4f5760405162461bcd60e51b815260040180806020018281038252602f815260200180612f13602f913960400191505060405180910390fd5b505050505098975050505050505050565b60006040518080612ecf60449139604080519182900360440182206020808401919091526001600160a01b03978816838301526060830196909652959093166080808501919091528551808503909101815260a0909301909452508051910120919050565b600d54600160a01b900460ff1681565b6000610ae786868686866002546115bd565b9695505050505050565b6009805460408051602060026001851615610100026000190190941693909304601f81018490048402820184019092528181529291830182828015610b775780601f10610b4c57610100808354040283529160200191610b77565b820191906000526020600020905b815481529060010190602001808311610b5a57829003601f168201915b505050505081565b6007546001600160a01b031681565b604051806036612da282396036019050604051809103902081565b60105481565b604051806060612e6f82396060019050604051809103902081565b610bd385611670565b610bde84600061171f565b6000856001600160a01b0316637feb51d9886040518263ffffffff1660e01b815260040180828152602001915050602060405180830381600087803b158015610c2657600080fd5b505af1158015610c3a573d6000803e3d6000fd5b505050506040513d6020811015610c5057600080fd5b50519050610c5e878561179f565b610c6b87858484876118cc565b50505050505050565b60016020526000908152604090205460ff1681565b600f546001600160a01b031681565b600e6020526000908152604090205481565b600c5481565b600a6020526000908152604090205481565b600084610d005760405162461bcd60e51b8152600401808060200182810382526027815260200180612dd86027913960400191505060405180910390fd5b6001600160a01b038416610d455760405162461bcd60e51b8152600401808060200182810382526022815260200180612e4d6022913960400191505060405180910390fd5b610d55838363ffffffff611a5416565b8511610d925760405162461bcd60e51b8152600401808060200182810382526031815260200180612ce96031913960400191505060405180910390fd5b600f54600090610dac906001600160a01b03168787610a60565b33600090815260046020526040902054909150610dd081600163ffffffff61147716565b33600081815260046020526040902091909155610df4908390839088908890611a7b565b600f54604080516323b872dd60e01b8152336004820152306024820152604481018b905290519295506001600160a01b03909116916323b872dd916064808201926020929091908290030181600087803b158015610e5157600080fd5b505af1158015610e65573d6000803e3d6000fd5b505050506040513d6020811015610e7b57600080fd5b5051610ece576040805162461bcd60e51b815260206004820152601f60248201527f4d4f5354207472616e7366657246726f6d206d75737420737563636565642e00604482015290519081900360640190fd5b5050949350505050565b6000610ee2611b03565b905090565b60405180602f612d1a8239602f019050604051809103902081565b6011546001600160a01b031681565b600481565b6003546001600160a01b031681565b6000806040518080612da260369139604080519182900360360182206020808401919091526001600160a01b0380891684840152871660608085019190915282518085039091018152608090930191829052825192019190912092509050806059612d498239605901905060405180910390206040518060400160405280600a8152602001694d6f736169632d42757360b01b815250604051806040016040528060018152602001600360fc1b8152508784604051602001808681526020018060200180602001858152602001848152602001838103835287818151815260200191508051906020019080838360005b8381101561102d578181015183820152602001611015565b50505050905090810190601f16801561105a5780820380516001836020036101000a031916815260200191505b50838103825286518152865160209182019188019080838360005b8381101561108d578181015183820152602001611075565b50505050905090810190601f1680156110ba5780820380516001836020036101000a031916815260200191505b50975050505050505050604051602081830303815290604052805190602001209150509392505050565b6040518060400160405280600a8152602001694d6f736169632d42757360b01b81525081565b6012546001600160a01b031681565b604051806040016040528060018152602001600360fc1b81525081565b600b6020526000908152604090205460ff1681565b60006040518080612d1a602f91396040805191829003602f0182206020808401919091528282019690965260608083019590955280518083039095018552608090910190525050805191012090565b60006040518080612feb605a91396040805191829003605a0182206020808401919091526001600160a01b0398891683830152968816606083015260808201959095529590921660a0808701919091528351808703909101815260c09095019092525050815191012090565b60046020526000908152604090205481565b6008546001600160a01b031681565b6000610ae78686868686600c546115bd565b6011546000906001600160a01b031633146112855760405162461bcd60e51b81526004018080602001828103825260338152602001806130456033913960400191505060405180910390fd5b6001600160a01b0384166112d5576040805162461bcd60e51b815260206004820152601260248201527121b7b9329030b2323932b9b99034b990181760711b604482015290519081900360640190fd5b600080856001600160a01b031663823a89716040518163ffffffff1660e01b81526004016040805180830381600087803b15801561131257600080fd5b505af1158015611326573d6000803e3d6000fd5b505050506040513d604081101561133c57600080fd5b508051602090910151601054919350915061135e90600163ffffffff61147716565b81148061136c575060105481145b6113a75760405162461bcd60e51b8152600401808060200182810382526040815260200180612f426040913960400191505060405180910390fd5b601081905560006113b8828461114b565b336000908152600460205260409020549091506113dc81600163ffffffff61147716565b3360008181526004602052604090209190915561140090839083908a908a90611a7b565b98975050505050505050565b604051806044612ecf82396044019050604051809103902081565b600d546001600160a01b031681565b60025481565b60405180605a612feb8239605a019050604051809103902081565b604051806059612d4982396059019050604051809103902081565b600181565b60008282018381101561148957600080fd5b90505b92915050565b60006114a48888888888600c546115bd565b6000818152600b602052604090205490915060ff16156114f55760405162461bcd60e51b81526004018080602001828103825260248152602001806130ba6024913960400191505060405180910390fd5b6000818152600b60205260409020805460ff19166001179055600d5460609061152890600160a01b900460ff1683611b24565b60408051600160f81b60208083019190915282518083036001018152602190920190925280519101209091506115619082908686611bf7565b50979650505050505050565b60008282111561157c57600080fd5b50900390565b6000818411156115a35761159c838363ffffffff611a5416565b90506115b6565b6115b3838563ffffffff611a5416565b90505b9392505050565b6000806040518080612e6f606091396040805191829003606090810183206020808501919091528383019c909c52820199909952608081019790975250505060a08401929092526001600160a01b031660c0808401919091528351808403909101815260e083018452805190850120601960f81b610100840152604d60f81b6101018401526101028301919091526101228083019190915282518083039091018152610142909101909152805191012090565b6011546001600160a01b0316156116b85760405162461bcd60e51b8152600401808060200182810382526025815260200180612dff6025913960400191505060405180910390fd5b6001600160a01b0381166116fd5760405162461bcd60e51b8152600401808060200182810382526023815260200180612fa36023913960400191505060405180910390fd5b601180546001600160a01b0319166001600160a01b0392909216919091179055565b6001600160a01b03821661177a576040805162461bcd60e51b815260206004820152601b60248201527f6d6f73742061646472657373206d757374206e6f7420626520302e0000000000604482015290519081900360640190fd5b601055600f80546001600160a01b0319166001600160a01b0392909216919091179055565b600254156117f4576040805162461bcd60e51b815260206004820181905260248201527f4d657373616765206f7574626f7820697320616c72656164792073657475702e604482015290519081900360640190fd5b8161183b576040805162461bcd60e51b815260206004820152601260248201527126b2ba30b1b430b4b71034b21034b990181760711b604482015290519081900360640190fd5b6001600160a01b038116611896576040805162461bcd60e51b815260206004820152601b60248201527f4d65737361676520696e626f78206164647265737320697320302e0000000000604482015290519081900360640190fd5b600380546001600160a01b0319166001600160a01b0383811691909117918290556118c5918491309116610f25565b6002555050565b600c5415611921576040805162461bcd60e51b815260206004820152601f60248201527f4d65737361676520696e626f7820697320616c72656164792073657475702e00604482015290519081900360640190fd5b84611968576040805162461bcd60e51b815260206004820152601260248201527136b2ba30b1b430b4b71034b21034b990181760711b604482015290519081900360640190fd5b6001600160a01b0384166119ba576040805162461bcd60e51b815260206004820152601460248201527327baba3137bc1030b2323932b9b99034b990181760611b604482015290519081900360640190fd5b6001600160a01b0382166119ff5760405162461bcd60e51b81526004018080602001828103825260218152602001806130996021913960400191505060405180910390fd5b600d80546001600160a01b0319166001600160a01b038681169190911760ff60a01b1916600160a01b60ff8716021791829055611a3f9187911630610f25565b600c55611a4d848383611cf2565b5050505050565b600082611a635750600061148c565b82820282848281611a7057fe5b041461148957600080fd5b6000611a8d86868686866002546115bd565b60008181526001602052604090205490915060ff1615611ade5760405162461bcd60e51b8152600401808060200182810382526025815260200180612fc66025913960400191505060405180910390fd5b6000818152600160208190526040909120805460ff1916909117905595945050505050565b6000600560065481548110611b1457fe5b9060005260206000200154905090565b606080611b3b611b3660ff8616611e7d565b611ea7565b90506060611b4b611b3685611e7d565b90506060611b598284611ee2565b9050610ae7816040516020018082805190602001908083835b60208310611b915780518252601f199092019160209182019101611b72565b6001836020036101000a038019825116818451168082178552505050505050905001915050604051602081830303815290604052805190602001206040516020018082815260200191505060405160208183030381529060405280519060200120611e7d565b8051611c4a576040805162461bcd60e51b815260206004820181905260248201527f4c656e677468206f6620524c5020706172656e74206e6f64657320697320302e604482015290519081900360640190fd5b6000828152600a602052604090205480611cab576040805162461bcd60e51b815260206004820152601d60248201527f53746f7261676520726f6f74206d757374206e6f74206265207a65726f000000604482015290519081900360640190fd5b611cb784868484611f5a565b611a4d5760405162461bcd60e51b81526004018080602001828103825260218152602001806130786021913960400191505060405180910390fd5b6008546001600160a01b031615611d49576040805162461bcd60e51b815260206004820152601660248201527529b2ba3ab81034b99030b63932b0b23c903237b7329760511b604482015290519081900360640190fd5b6001600160a01b038316611da4576040805162461bcd60e51b815260206004820152601d60248201527f53746f72616765206163636f756e74206164647265737320697320302e000000604482015290519081900360640190fd5b6001600160a01b038216611de95760405162461bcd60e51b81526004018080602001828103825260218152602001806130996021913960400191505060405180910390fd5b611df2816122d9565b600780546001600160a01b038086166001600160a01b0319928316179092556008805492851692909116919091179055604080516bffffffffffffffffffffffff19606086901b166020808301919091528251808303601401815260349092019092528051910120611e6390611e7d565b8051611e7791600991602090910190612bea565b50505050565b60408051602080825281830190925260609160208201818038833950505060208101929092525090565b60608082516020036040519080825280601f01601f191660200182016040528015611ed9576020820181803883390190505b5090506115b681845b60606040519050825180825260208201818101602086015b81831015611f12578051835260209283019201611efa565b50845184518101855292509050808201602085015b81831015611f3f578051835260209283019201611f27565b50601f19601f87518501158301011660405250505092915050565b6000611f64612c68565b611f6d84612367565b90506060611f7a826123b0565b905060608085600082611f8c8b612462565b9050805160001415611fa85760009750505050505050506122d1565b60005b86518110156122c8578151831115611fce576000985050505050505050506122d1565b611fea878281518110611fdd57fe5b60200260200101516124dd565b9550856040516020018082805190602001908083835b6020831061201f5780518252601f199092019160209182019101612000565b6001836020036101000a038019825116818451168082178552505050505050905001915050604051602081830303815290604052805190602001208414612071576000985050505050505050506122d1565b61208d87828151811061208057fe5b60200260200101516123b0565b94508451601114156121a8578151831415612148578c6120b386601081518110611fdd57fe5b6040516020018082805190602001908083835b602083106120e55780518252601f1990920191602091820191016120c6565b6001836020036101000a038019825116818451168082178552505050505050905001915050604051602081830303815290604052805190602001201415612137576001985050505050505050506122d1565b6000985050505050505050506122d1565b600082848151811061215657fe5b016020015160f81c9050601081111561217b57600099505050505050505050506122d1565b61219a868260ff168151811061218d57fe5b602002602001015161252d565b9450600184019350506122c0565b8451600214156121375760006121db6121d4876000815181106121c757fe5b6020026020010151612538565b848661259d565b905082518185011415612290578d6121f9876001815181106121c757fe5b6040516020018082805190602001908083835b6020831061222b5780518252601f19909201916020918201910161220c565b6001836020036101000a03801982511681845116808217855250505050505090500191505060405160208183030381529060405280519060200120141561227e57600199505050505050505050506122d1565b600099505050505050505050506122d1565b806122a757600099505050505050505050506122d1565b80840193506122bc8660018151811061218d57fe5b9450505b600101611fab565b50505050505050505b949350505050565b600081116123185760405162461bcd60e51b815260040180806020018281038252604d815260200180613105604d913960600191505060405180910390fd5b600554156123575760405162461bcd60e51b81526004018080602001828103825260278152602001806130de6027913960400191505060405180910390fd5b80612363600582612c82565b5050565b61236f612c68565b81518061239157505060408051808201909152600080825260208201526123ab565b604080518082019091526020848101825281019190915290505b919050565b60606123bb8261272e565b6123c457600080fd5b60006123cf83612755565b90508060405190808252806020026020018201604052801561240b57816020015b6123f8612c68565b8152602001906001900390816123f05790505b509150612416612cab565b61241f846127af565b905060005b61242d826127e6565b1561245a5761243b82612805565b84828151811061244757fe5b6020908102919091010152600101612424565b505050919050565b606081516002026040519080825280601f01601f191660200182016040528015612493576020820181803883390190505b50905060005b81518110156124d7576124ac8184612849565b8282815181106124b857fe5b60200101906001600160f81b031916908160001a905350600101612499565b50919050565b6020810151606090806124f057506123ab565b806040519080825280601f01601f19166020018201604052801561251b576020820181803883390190505b5091506124d7836000015183836128a6565b600061148c826128cd565b60606125438261291d565b61254c57600080fd5b60008061255884612943565b60408051828152601f19601f84011681016020019091529193509150818015612588576020820181803883390190505b5092506125968284836128a6565b5050919050565b600060606125aa856129b3565b9050606081516040519080825280601f01601f1916602001820160405280156125da576020820181803883390190505b509050835b825185018110156126345760008682815181106125f857fe5b602001015160f81c60f81b905080838784038151811061261457fe5b60200101906001600160f81b031916908160001a905350506001016125df565b50806040516020018082805190602001908083835b602083106126685780518252601f199092019160209182019101612649565b6001836020036101000a03801982511681845116808217855250505050505090500191505060405160208183030381529060405280519060200120826040516020018082805190602001908083835b602083106126d65780518252601f1990920191602091820191016126b7565b6001836020036101000a0380198251168184511680821785525050505050509050019150506040516020818303038152906040528051906020012014156127205781519250612725565b600092505b50509392505050565b6000816020015160001415612745575060006123ab565b50515160c060009190911a101590565b60006127608261272e565b61276c575060006123ab565b81518051600090811a919061278085612adf565b6020860151908301915082016000190160005b818311610ae7576127a383612b5d565b90920191600101612793565b6127b7612cab565b6127c08261272e565b6127c957600080fd5b60006127d483612adf565b83519383529092016020820152919050565b60006127f0612c68565b50508051602080820151915192015191011190565b61280d612c68565b612816826127e6565b61281f57600080fd5b6020820151600061282f82612b5d565b828452602080850182905292019390910192909252919050565b6000600283061561287a57601082600285048151811061286557fe5b016020015160f81c8161287457fe5b0661289c565b601082600285048151811061288b57fe5b016020015160f81c8161289a57fe5b045b60f81b9392505050565b6000601f820184602085015b82841015610c6b5783820151848201526020840193506128b2565b60006128d88261291d565b6128e157600080fd5b6000806128ed84612943565b909250905060208111806128ff575080155b1561290957600080fd5b806020036101000a82510492505050919050565b6000816020015160001415612934575060006123ab565b50515160c060009190911a1090565b60008061294f8361291d565b61295857600080fd5b8251805160001a906080821015612976579250600191506129ae9050565b60b882101561299457600185602001510392508060010193506129ab565b602085015182820160b51901945082900360b60192505b50505b915091565b8051606090156123ab576000806129cb600085612849565b60f81c905060018114806129e257508060ff166003145b15612a5a5760018451600202036040519080825280601f01601f191660200182016040528015612a19576020820181803883390190505b5092506000612a29600186612849565b90508084600081518110612a3957fe5b60200101906001600160f81b031916908160001a9053506001925050612a94565b60028451600202036040519080825280601f01601f191660200182016040528015612a8c576020820181803883390190505b509250600091505b60ff82165b835181101561245a57612ab48360ff16820360020186612849565b848281518110612ac057fe5b60200101906001600160f81b031916908160001a905350600101612a99565b6000816020015160001415612af6575060006123ab565b8151805160001a906080821015612b12576000925050506123ab565b60b8821080612b2d575060c08210158015612b2d575060f882105b15612b3d576001925050506123ab565b60c0821015612b52575060b5190190506123ab565b5060f5190192915050565b8051600090811a6080811015612b7657600191506124d7565b60b8811015612b8b57607e19810191506124d7565b60c0811015612bb457600183015160b76020839003016101000a9004810160b5190191506124d7565b60f8811015612bc95760be19810191506124d7565b6001929092015160f76020849003016101000a900490910160f51901919050565b828054600181600116156101000203166002900490600052602060002090601f016020900481019282601f10612c2b57805160ff1916838001178555612c58565b82800160010185558215612c58579182015b82811115612c58578251825591602001919060010190612c3d565b50612c64929150612ccb565b5090565b604051806040016040528060008152602001600081525090565b815481835581811115612ca657600083815260209020612ca6918101908301612ccb565b505050565b6040518060400160405280612cbe612c68565b8152602001600081525090565b612ce591905b80821115612c645760008155600101612cd1565b9056fe4465706f73697420616d6f756e742073686f756c642062652067726561746572207468616e206d6178207265776172642e4b65726e656c496e74656e742875696e74323536206865696768742c62797465733332206b65726e656c48617368294d6f736169634d65737361676542757328737472696e67206e616d652c737472696e672076657273696f6e2c62797465733332206d657461636861696e49642c62797465733332206368616e6e656c536570617261746f72294d6f736169634d6573736167654275734368616e6e656c2861646472657373206f7574626f782c206164647265737320696e626f78294465706f73697420616d6f756e742073686f756c642062652067726561746572207468616e2030436f6e73656e737573206164647265737320697320616c72656164792070726573656e742e576974686472617720616d6f756e742073686f756c642062652067726561746572207468616e20302e42656e65666963696172792061646472657373206d757374206e6f7420626520302e4d657373616765286279746573333220696e74656e74486173682c75696e74323536206e6f6e63652c75696e743235362066656547617350726963652c75696e74323536206665654761734c696d69742c616464726573732073656e646572294465706f736974496e74656e7428616464726573732076616c7565546f6b656e2c75696e7432353620616d6f756e742c616464726573732062656e656669636961727929546f6b656e207472616e7366657220746f207468652062656e6566696369617279206d75737420737563636565642e4b65726e656c2063616e206265206f70656e65642061742073616d6520686569676874206f722063757272656e744d657461626c6f636b4865696768742b312e576974686472617765722061646472657373206d757374206e6f7420626520302e436f6e73656e7375732061646472657373206d757374206e6f74206265206e756c6c2e4d65737361676520616c72656164792065786973747320696e20746865206f7574626f782e5769746864726177496e74656e7428616464726573732076616c7565546f6b656e2c61646472657373207574696c697479546f6b656e2c75696e7432353620616d6f756e742c616464726573732062656e6566696369617279294f6e6c792074686520636f6e73656e73757320636f6e74726163742063616e2063616c6c20746869732066756e6374696f6e2e4d65726b6c652070726f6f6620766572696669636174696f6e206661696c65642e537461746520726f6f742070726f7669646572206164647265737320697320302e4d65737361676520616c72656164792065786973747320696e2074686520696e626f782e43697263756c6172206275666665722073697a652063616e206265207365747570206f6e63652e546865206d6178206e756d626572206f66206974656d7320746f2073746f726520696e20612063697263756c617220627566666572206d7573742062652067726561746572207468616e20302ea265627a7a72315820b5074ba73181d90bf6f6670e9b08ad50a4b33f1db59cfd99ab12b3209882b16064736f6c634300050d0032",
  "source": "pragma solidity >=0.5.0 <0.6.0;\n\n// Copyright 2019 OpenST Ltd.\n//\n// Licensed under the Apache License, Version 2.0 (the \"License\");\n// you may not use this file except in compliance with the License.\n// You may obtain a copy of the License at\n//\n//    http://www.apache.org/licenses/LICENSE-2.0\n//\n// Unless required by applicable law or agreed to in writing, software\n// distributed under the License is distributed on an \"AS IS\" BASIS,\n// WITHOUT WARRANTIES OR CONDITIONS OF ANY KIND, either express or implied.\n// See the License for the specific language governing permissions and\n// limitations under the License.\n\nimport \"./ConsensusGatewayBase.sol\";\nimport \"./ConsensusGatewayInterface.sol\";\nimport \"../consensus/ConsensusInterface.sol\";\nimport \"../consensus/ConsensusModule.sol\";\nimport \"../core/CoreInterface.sol\";\nimport \"../erc20-gateway/ERC20GatewayBase.sol\";\nimport \"../message-bus/MessageBus.sol\";\nimport \"../proxies/MasterCopyNonUpgradable.sol\";\nimport \"../utility-token/UtilityTokenInterface.sol\";\n\nimport \"openzeppelin-solidity/contracts/math/SafeMath.sol\";\n\ncontract ConsensusGateway is\n    MasterCopyNonUpgradable,\n    MessageBus,\n    ConsensusGatewayBase,\n    ERC20GatewayBase,\n    ConsensusModule,\n    ConsensusGatewayInterface\n{\n\n    /* Usings */\n\n    using SafeMath for uint256;\n\n\n    /* Constants */\n\n    /* Storage offset of message outbox. */\n    uint8 constant public OUTBOX_OFFSET = uint8(1);\n\n    /* Storage offset of message inbox. */\n    uint8 constant public INBOX_OFFSET = uint8(4);\n\n\n    /* Storage */\n\n    /* Utility token address. */\n    address public utilityToken = address(0);\n\n\n    /* External Functions */\n\n    /**\n     * @notice Setup function for consensus gateway.\n     *\n     * @dev - Function can only be called once is ensured by setup function of\n     *        message box.\n     *      - Validations for input parameters are done in message box setup method.\n     *\n     * @param _metachainId Metachain Id\n     * @param _consensus Address of consensus contract.\n     * @param _most Address of MOST contract.\n     * @param _consensusCogateway Address of consensus cogateway contract.\n     * @param _maxStorageRootItems Maximum number of storage roots stored.\n     * @param _outboxStorageIndex Outbox storage index of consensus cogateway.\n     */\n    function setup(\n        bytes32 _metachainId,\n        ConsensusInterface _consensus,\n        ERC20I _most,\n        address _consensusCogateway,\n        uint256 _maxStorageRootItems,\n        uint8 _outboxStorageIndex\n    )\n        external\n    {\n        ConsensusModule.setupConsensus(\n            _consensus\n        );\n\n        ConsensusGatewayBase.setup(\n            _most,\n            uint256(0) // Current meta-block height\n        );\n\n        address stateRootProvider = _consensus.getAnchor(_metachainId);\n\n        MessageOutbox.setupMessageOutbox(\n            _metachainId,\n            _consensusCogateway\n        );\n\n        MessageInbox.setupMessageInbox(\n            _metachainId,\n            _consensusCogateway,\n            _outboxStorageIndex,\n            StateRootInterface(stateRootProvider),\n            _maxStorageRootItems\n        );\n    }\n\n    /**\n     * @notice Deposit funds to mint on auxiliary chain. Depositor needs to\n     *         approve this contract with the deposit amount.\n     *\n     * @param _amount MOST token deposit amount in atto.\n     * @param _beneficiary Address of beneficiary on auxiliary chain.\n     * @param _feeGasPrice Fee gas price at which rewards will be calculated.\n     * @param _feeGasLimit Fee gas limit at which rewards will be calculated.\n     *\n     * @return messageHash_ Message hash.\n     */\n    function deposit(\n        uint256 _amount,\n        address _beneficiary,\n        uint256 _feeGasPrice,\n        uint256 _feeGasLimit\n    )\n        external\n        returns(bytes32 messageHash_)\n    {\n        require(\n            _amount != 0,\n            \"Deposit amount should be greater than 0\"\n        );\n        require(\n            _beneficiary != address(0),\n            \"Beneficiary address must not be 0.\"\n        );\n        require(\n            _amount > _feeGasPrice.mul(_feeGasLimit),\n            \"Deposit amount should be greater than max reward.\"\n        );\n\n        bytes32 depositIntentHash = hashDepositIntent(address(most), _amount, _beneficiary);\n\n        uint256 nonce = MessageOutbox.outboxNonces[msg.sender];\n        MessageOutbox.outboxNonces[msg.sender] = nonce.add(1);\n\n        messageHash_ = MessageOutbox.declareMessage(\n            depositIntentHash,\n            nonce,\n            _feeGasPrice,\n            _feeGasLimit,\n            msg.sender\n        );\n\n        require(\n            ERC20I(most).transferFrom(msg.sender, address(this), _amount),\n            \"MOST transferFrom must succeed.\"\n        );\n    }\n\n    /**\n     * @notice Function to declare open kernel in consensus gateway.\n     *\n     * @dev In case of chain halting when new Core is created, then new kernel\n     *      can be opened at the same height.\n     *      In normal cases, since this function is called by consensus, we can\n     *      trust that same height will not be passed.\n     *\n     *      Function requires:\n     *          - Only consensus can call\n     *          - Core address should not be 0\n     *          - Either Kernel height should equal currentMetablockHeight plus\n     *            one or kernel can be opened at same height in case of chain\n     *            halting.\n     *\n     * @param _core Core contract address.\n     * @param _feeGasPrice Fee gas price.\n     * @param _feeGasLimit Fee gas limit.\n     *\n     * @return messageHash_ Message hash.\n     */\n    function declareOpenKernel(\n        address _core,\n        uint256 _feeGasPrice,\n        uint256 _feeGasLimit\n    )\n        external\n        onlyConsensus\n        returns (bytes32 messageHash_)\n    {\n        require(\n            address(_core) != address(0),\n            \"Core address is 0.\"\n        );\n\n        (bytes32 openKernelHash, uint256 openKernelHeight) = CoreInterface(_core).getOpenKernel();\n\n        require(\n            (openKernelHeight == currentMetablockHeight.add(1)) ||\n            (openKernelHeight == currentMetablockHeight),\n            \"Kernel can be opened at same height or currentMetablockHeight+1.\"\n        );\n\n        currentMetablockHeight = openKernelHeight;\n\n        bytes32 kernelIntentHash = hashKernelIntent(\n            openKernelHeight,\n            openKernelHash\n        );\n\n        uint256 nonce = MessageOutbox.outboxNonces[msg.sender];\n        MessageOutbox.outboxNonces[msg.sender] = nonce.add(1);\n\n        messageHash_ = MessageOutbox.declareMessage(\n            kernelIntentHash,\n            nonce,\n            _feeGasPrice,\n            _feeGasLimit,\n            msg.sender\n        );\n    }\n\n    /**\n     * @notice Confirm withdraw in order to transfer most.\n     *\n     * @param _amount MOST token amount for withdrawal\n     * @param _beneficiary Address of beneficiary where tokens will be withdrawn.\n     * @param _feeGasPrice Gas price at which fee will be calculated.\n     * @param _feeGasLimit Gas limit at which fee will be capped.\n     * @param _blockNumber Block number of Aux chain against which storage\n                           proof is generated.\n     * @param _withdrawer Address of the withdrawer account.\n     * @param _rlpParentNodes Storage merkle proof to verify message declaration\n                              on the origin chain.\n     *\n     * @return messageHash_ Message Hash\n     *\n     * \\pre `_amount` is not 0.\n     * \\pre `_beneficiary` address is not 0.\n     * \\pre `_withdrawer` address is not 0.\n     * \\pre `_rlpParentNodes` is not 0\n     *\n     * \\post Adds a new entry in `inbox` mapping storage variable. The value is\n     *       set as `true` for `messagehash_` in `inbox` mapping. The\n     *       `messageHash_` is calculated by `MessageInbox.confirmMessage`.\n     * \\post Update the MessageInbox.inboxNonces storage mapping variable by\n     *       incrementing the value for `msg.sender` by one.\n     * \\post Transfers the `most` token to the `msg.sender` address as a fees.\n     *       The `fees` amount is calculated by `ERC20GatewayBase::reward()`\n     * \\post Transfer the `most` token to the `_beneficiary` address. The\n     *       transfer amount calculated as `_amount-fees`\n     */\n    function confirmWithdraw(\n        uint256 _amount,\n        address _beneficiary,\n        uint256 _feeGasPrice,\n        uint256 _feeGasLimit,\n        address _withdrawer,\n        uint256 _blockNumber,\n        bytes calldata _rlpParentNodes\n    )\n        external\n        returns (bytes32 messageHash_)\n    {\n        uint256 initialGas = gasleft();\n        require(\n            _amount != 0,\n            \"Withdraw amount should be greater than 0.\"\n        );\n        require(\n            _beneficiary != address(0),\n            \"Beneficiary address must not be 0.\"\n        );\n        require(\n            _withdrawer != address(0),\n            \"Withdrawer address must not be 0.\"\n        );\n\n        uint256 nonce = MessageInbox.inboxNonces[msg.sender];\n        MessageInbox.inboxNonces[msg.sender] = nonce.add(1);\n\n        messageHash_ = MessageInbox.confirmMessage(\n            ERC20GatewayBase.hashWithdrawIntent(\n                address(most),\n                utilityToken,\n                _amount,\n                _beneficiary\n            ),\n            nonce,\n            _feeGasPrice,\n            _feeGasLimit,\n            _withdrawer,\n            _blockNumber,\n            _rlpParentNodes\n        );\n\n        uint256 gasConsumed = initialGas.sub(gasleft());\n        uint256 feeAmount = ERC20GatewayBase.reward(\n            gasConsumed,\n            _feeGasPrice,\n            _feeGasLimit\n        );\n        uint256 withdrawAmount = _amount.sub(feeAmount);\n\n        require(\n            ERC20I(most).transfer(msg.sender, feeAmount),\n            \"Reward transfer must succeed.\"\n        );\n        require(\n            ERC20I(most).transfer(_beneficiary, withdrawAmount),\n            \"Token transfer to the beneficiary must succeed.\"\n        );\n    }\n\n    /**\n     * @notice Gets the remote gateway latest proven block number.\n     *\n     * @return blockNumber_ Remote gateway latest proven block number.\n     */\n    function getRemoteGatewayLatestProvenBlockNumber()\n        external\n        view\n        returns (uint256 blockNumber_)\n    {\n        blockNumber_ = CircularBufferUint.head();\n    }\n}\n",
  "sourcePath": "/Users/abhay/Documents/projects/abhayforks/mosaic-1/contracts/consensus-gateway/ConsensusGateway.sol",
  "compiler": {
    "name": "solc",
    "version": "0.5.13+commit.5b0b510c.Emscripten.clang"
  },
  "schemaVersion": "3.0.17",
  "updatedAt": "2020-03-21T06:48:34.632Z",
  "devdoc": {
    "methods": {
      "confirmWithdraw(uint256,address,uint256,uint256,address,uint256,bytes)": {
        "params": {
          "_amount": "MOST token amount for withdrawal",
          "_beneficiary": "Address of beneficiary where tokens will be withdrawn.",
          "_blockNumber": "Block number of Aux chain against which storage proof is generated.",
          "_feeGasLimit": "Gas limit at which fee will be capped.",
          "_feeGasPrice": "Gas price at which fee will be calculated.",
          "_rlpParentNodes": "Storage merkle proof to verify message declaration on the origin chain.",
          "_withdrawer": "Address of the withdrawer account."
        },
        "return": "messageHash_ Message Hash     * \\pre `_amount` is not 0. \\pre `_beneficiary` address is not 0. \\pre `_withdrawer` address is not 0. \\pre `_rlpParentNodes` is not 0     * \\post Adds a new entry in `inbox` mapping storage variable. The value is      set as `true` for `messagehash_` in `inbox` mapping. The      `messageHash_` is calculated by `MessageInbox.confirmMessage`. \\post Update the MessageInbox.inboxNonces storage mapping variable by      incrementing the value for `msg.sender` by one. \\post Transfers the `most` token to the `msg.sender` address as a fees.      The `fees` amount is calculated by `ERC20GatewayBase::reward()` \\post Transfer the `most` token to the `_beneficiary` address. The      transfer amount calculated as `_amount-fees`"
      },
      "declareOpenKernel(address,uint256,uint256)": {
        "details": "In case of chain halting when new Core is created, then new kernel     can be opened at the same height.     In normal cases, since this function is called by consensus, we can     trust that same height will not be passed.     *      Function requires:         - Only consensus can call         - Core address should not be 0         - Either Kernel height should equal currentMetablockHeight plus           one or kernel can be opened at same height in case of chain           halting.",
        "params": {
          "_core": "Core contract address.",
          "_feeGasLimit": "Fee gas limit.",
          "_feeGasPrice": "Fee gas price."
        },
        "return": "messageHash_ Message hash."
      },
      "deposit(uint256,address,uint256,uint256)": {
        "params": {
          "_amount": "MOST token deposit amount in atto.",
          "_beneficiary": "Address of beneficiary on auxiliary chain.",
          "_feeGasLimit": "Fee gas limit at which rewards will be calculated.",
          "_feeGasPrice": "Fee gas price at which rewards will be calculated."
        },
        "return": "messageHash_ Message hash."
      },
      "getRemoteGatewayLatestProvenBlockNumber()": {
        "return": "blockNumber_ Remote gateway latest proven block number."
      },
      "hashChannelIdentifier(bytes32,address,address)": {
        "params": {
          "_inbox": "Inbox address.",
          "_metachainId": "Metachain identifier.",
          "_outbox": "Outbox address."
        }
      },
      "hashDepositIntent(address,uint256,address)": {
        "params": {
          "_amount": "Amount of tokens.",
          "_beneficiary": "Beneficiary address.",
          "_valueToken": "Value token Address."
        },
        "return": "depositIntentHash_ Hash of deposit intent."
      },
      "hashKernelIntent(uint256,bytes32)": {
        "params": {
          "_height": "Height of metablock.",
          "_kernelHash": "Hash of kernel at given height."
        },
        "return": "kernelIntentHash_ Kernel intent hash."
      },
      "hashWithdrawIntent(address,address,uint256,address)": {
        "params": {
          "_amount": "Amount of tokens.",
          "_beneficiary": "Beneficiary address.",
          "_utilityToken": "Utility token address.",
          "_valueToken": "Value token address."
        },
        "return": "withdrawIntentHash_ Hash of withdraw intent."
      },
      "inboxMessageHash(bytes32,uint256,uint256,uint256,address)": {
        "params": {
          "_feeGasLimit": "Fee gas limit.",
          "_feeGasPrice": "Fee gas price.",
          "_intentHash": "Intent hash of message.",
          "_nonce": "Nonce of sender.",
          "_sender": "Sender address."
        },
        "return": "messageHash_ Message hash."
      },
      "outboxMessageHash(bytes32,uint256,uint256,uint256,address)": {
        "params": {
          "_feeGasLimit": "Fee gas limit.",
          "_feeGasPrice": "Fee gas price.",
          "_intentHash": "Intent hash of message.",
          "_nonce": "Nonce of sender.",
          "_sender": "Sender address."
        },
        "return": "messageHash_ Message hash."
      },
      "setup(bytes32,address,address,address,uint256,uint8)": {
        "details": "- Function can only be called once is ensured by setup function of       message box.     - Validations for input parameters are done in message box setup method.",
        "params": {
          "_consensus": "Address of consensus contract.",
          "_consensusCogateway": "Address of consensus cogateway contract.",
          "_maxStorageRootItems": "Maximum number of storage roots stored.",
          "_metachainId": "Metachain Id",
          "_most": "Address of MOST contract.",
          "_outboxStorageIndex": "Outbox storage index of consensus cogateway."
        }
      }
    }
  },
  "userdoc": {
    "methods": {
      "confirmWithdraw(uint256,address,uint256,uint256,address,uint256,bytes)": {
        "notice": "Confirm withdraw in order to transfer most."
      },
      "declareOpenKernel(address,uint256,uint256)": {
        "notice": "Function to declare open kernel in consensus gateway."
      },
      "deposit(uint256,address,uint256,uint256)": {
        "notice": "Deposit funds to mint on auxiliary chain. Depositor needs to        approve this contract with the deposit amount."
      },
      "getRemoteGatewayLatestProvenBlockNumber()": {
        "notice": "Gets the remote gateway latest proven block number."
      },
      "hashChannelIdentifier(bytes32,address,address)": {
        "notice": "Generate channel identifier hash from the input params"
      },
      "hashDepositIntent(address,uint256,address)": {
        "notice": "It returns hash of deposit intent."
      },
      "hashKernelIntent(uint256,bytes32)": {
        "notice": "Creates kernel intent hash."
      },
      "hashWithdrawIntent(address,address,uint256,address)": {
        "notice": "It returns hash of withdraw intent."
      },
      "inboxMessageHash(bytes32,uint256,uint256,uint256,address)": {
        "notice": "Generate inbox message hash from the input params"
      },
      "outboxMessageHash(bytes32,uint256,uint256,uint256,address)": {
        "notice": "Generate outbox message hash from the input params"
      },
      "setup(bytes32,address,address,address,uint256,uint8)": {
        "notice": "Setup function for consensus gateway."
      }
    }
  }
}