{
  "contractName": "ConsensusGatewayBase",
  "abi": [
    {
      "constant": true,
      "inputs": [],
      "name": "KERNEL_INTENT_TYPEHASH",
      "outputs": [
        {
          "internalType": "bytes32",
          "name": "",
          "type": "bytes32"
        }
      ],
      "payable": false,
      "stateMutability": "view",
      "type": "function"
    },
    {
      "constant": true,
      "inputs": [],
      "name": "currentMetablockHeight",
      "outputs": [
        {
          "internalType": "uint256",
          "name": "",
          "type": "uint256"
        }
      ],
      "payable": false,
      "stateMutability": "view",
      "type": "function"
    },
    {
      "constant": true,
      "inputs": [],
      "name": "most",
      "outputs": [
        {
          "internalType": "contract ERC20I",
          "name": "",
          "type": "address"
        }
      ],
      "payable": false,
      "stateMutability": "view",
      "type": "function"
    },
    {
      "constant": true,
      "inputs": [
        {
          "internalType": "uint256",
          "name": "_height",
          "type": "uint256"
        },
        {
          "internalType": "bytes32",
          "name": "_kernelHash",
          "type": "bytes32"
        }
      ],
      "name": "hashKernelIntent",
      "outputs": [
        {
          "internalType": "bytes32",
          "name": "kernelIntentHash_",
          "type": "bytes32"
        }
      ],
      "payable": false,
      "stateMutability": "pure",
      "type": "function"
    }
  ],
  "bytecode": "0x608060405234801561001057600080fd5b5061019d806100206000396000f3fe608060405234801561001057600080fd5b506004361061004c5760003560e01c80633b7f2f191461005157806358d7889c1461006b57806385248b8a1461008f578063befce88e14610097575b600080fd5b6100596100ba565b60408051918252519081900360200190f35b6100736100c0565b604080516001600160a01b039092168252519081900360200190f35b6100596100cf565b610059600480360360408110156100ad57600080fd5b50803590602001356100ea565b60015481565b6000546001600160a01b031681565b60405180602f61013a8239602f019050604051809103902081565b6000604051808061013a602f91396040805191829003602f018220602080840191909152828201969096526060808301959095528051808303909501855260809091019052505080519101209056fe4b65726e656c496e74656e742875696e74323536206865696768742c62797465733332206b65726e656c4861736829a265627a7a723158204bf9a07f135d9182cb8cbdfc2bd74156b6a393c36e8f3ace60b462931b17c81864736f6c634300050d0032",
  "source": "pragma solidity >=0.5.0 <0.6.0;\n\n// Copyright 2019 OpenST Ltd.\n//\n// Licensed under the Apache License, Version 2.0 (the \"License\");\n// you may not use this file except in compliance with the License.\n// You may obtain a copy of the License at\n//\n//    http://www.apache.org/licenses/LICENSE-2.0\n//\n// Unless required by applicable law or agreed to in writing, software\n// distributed under the License is distributed on an \"AS IS\" BASIS,\n// WITHOUT WARRANTIES OR CONDITIONS OF ANY KIND, either express or implied.\n// See the License for the specific language governing permissions and\n// limitations under the License.\n\nimport \"../ERC20I.sol\";\n\n/** Base contract for ConsensusGateway and ConsensusCogateway contracts. */\ncontract ConsensusGatewayBase {\n\n    /* Constants */\n\n    bytes32 public constant KERNEL_INTENT_TYPEHASH = keccak256(\n        \"KernelIntent(uint256 height,bytes32 kernelHash)\"\n    );\n\n\n    /* Storage */\n\n    /** Address of most contract on origin or auxiliary chain. */\n    ERC20I public most;\n\n    /** Height of current metablock */\n    uint256 public currentMetablockHeight;\n\n\n    /* Public function */\n\n    /**\n     * @notice Creates kernel intent hash.\n     *\n     * @param _height Height of metablock.\n     * @param _kernelHash Hash of kernel at given height.\n     *\n     * @return kernelIntentHash_ Kernel intent hash.\n     */\n    function hashKernelIntent(\n        uint256 _height,\n        bytes32 _kernelHash\n    )\n        public\n        pure\n        returns(bytes32 kernelIntentHash_)\n    {\n        kernelIntentHash_ = keccak256(\n            abi.encode(\n                KERNEL_INTENT_TYPEHASH,\n                _height,\n                _kernelHash\n            )\n        );\n    }\n\n    /* Internal functions. */\n\n    function setup(\n        ERC20I _most,\n        uint256 _currentMetablockHeight\n    )\n        internal\n    {\n        require(\n            address(_most) != address(0),\n            \"most address must not be 0.\"\n        );\n\n        currentMetablockHeight = _currentMetablockHeight;\n        most = _most;\n    }\n}\n",
  "sourcePath": "/Users/abhay/Documents/projects/abhayforks/mosaic-1/contracts/consensus-gateway/ConsensusGatewayBase.sol",
  "compiler": {
    "name": "solc",
    "version": "0.5.13+commit.5b0b510c.Emscripten.clang"
  },
  "schemaVersion": "3.0.17",
  "updatedAt": "2020-03-21T06:48:34.638Z",
  "devdoc": {
    "methods": {
      "hashKernelIntent(uint256,bytes32)": {
        "params": {
          "_height": "Height of metablock.",
          "_kernelHash": "Hash of kernel at given height."
        },
        "return": "kernelIntentHash_ Kernel intent hash."
      }
    }
  },
  "userdoc": {
    "methods": {
      "hashKernelIntent(uint256,bytes32)": {
        "notice": "Creates kernel intent hash."
      }
    },
    "notice": "Base contract for ConsensusGateway and ConsensusCogateway contracts. "
  }
}