{
  "contractName": "Coreputation",
  "abi": [
    {
      "constant": true,
      "inputs": [],
      "name": "getCoconsensus",
      "outputs": [
        {
          "internalType": "contract CoconsensusInterface",
          "name": "",
          "type": "address"
        }
      ],
      "payable": false,
      "stateMutability": "view",
      "type": "function"
    },
    {
      "constant": true,
      "inputs": [
        {
          "internalType": "address",
          "name": "",
          "type": "address"
        }
      ],
      "name": "validators",
      "outputs": [
        {
          "internalType": "enum Coreputation.ValidatorStatus",
          "name": "status",
          "type": "uint8"
        },
        {
          "internalType": "uint256",
          "name": "reputation",
          "type": "uint256"
        }
      ],
      "payable": false,
      "stateMutability": "view",
      "type": "function"
    },
    {
      "constant": false,
      "inputs": [
        {
          "internalType": "address",
          "name": "_validator",
          "type": "address"
        },
        {
          "internalType": "uint256",
          "name": "_reputation",
          "type": "uint256"
        }
      ],
      "name": "upsertValidator",
      "outputs": [],
      "payable": false,
      "stateMutability": "nonpayable",
      "type": "function"
    },
    {
      "constant": true,
      "inputs": [
        {
          "internalType": "address",
          "name": "_validator",
          "type": "address"
        }
      ],
      "name": "getReputation",
      "outputs": [
        {
          "internalType": "uint256",
          "name": "",
          "type": "uint256"
        }
      ],
      "payable": false,
      "stateMutability": "view",
      "type": "function"
    },
    {
      "constant": true,
      "inputs": [
        {
          "internalType": "address",
          "name": "_validator",
          "type": "address"
        }
      ],
      "name": "isSlashed",
      "outputs": [
        {
          "internalType": "bool",
          "name": "",
          "type": "bool"
        }
      ],
      "payable": false,
      "stateMutability": "view",
      "type": "function"
    }
  ],
  "bytecode": "0x6080604052600180546001600160a01b031916614d0017905534801561002457600080fd5b50610326806100346000396000f3fe608060405234801561001057600080fd5b50600436106100575760003560e01c806323609af71461005c5780635a0738b2146100805780639c89a0e2146100ae578063b799036c146100e6578063fa52c7d814610120575b600080fd5b610064610171565b604080516001600160a01b039092168252519081900360200190f35b6100ac6004803603604081101561009657600080fd5b506001600160a01b038135169060200135610180565b005b6100d4600480360360208110156100c457600080fd5b50356001600160a01b031661024d565b60408051918252519081900360200190f35b61010c600480360360208110156100fc57600080fd5b50356001600160a01b031661026b565b604080519115158252519081900360200190f35b6101466004803603602081101561013657600080fd5b50356001600160a01b031661029d565b6040518083600381111561015657fe5b60ff1681526020018281526020019250505060405180910390f35b6001546001600160a01b031690565b610188610171565b6001600160a01b0316336001600160a01b0316146101d75760405162461bcd60e51b81526004018080602001828103825260358152602001806102bd6035913960400191505060405180910390fd5b6001600160a01b03821660009081526002602052604090206001815460ff16600381111561020157fe5b1461024857600181018290558161022257805460ff19166003178155610248565b6002815460ff16600381111561023457fe5b111561023c57fe5b805460ff191660021781555b505050565b6001600160a01b031660009081526002602052604090206001015490565b600060016001600160a01b03831660009081526002602052604090205460ff16600381111561029657fe5b1492915050565b6002602052600090815260409020805460019091015460ff909116908256fe4f6e6c792074686520436f636f6e73656e73757320636f6e74726163742063616e2063616c6c20746869732066756e6374696f6e2ea265627a7a723158208b1d3a8a45fe1ac816703266347dc59875772f2b1010ecfd3608c96c9983178764736f6c634300050d0032",
  "source": "pragma solidity >=0.5.0 <0.6.0;\n\n// Copyright 2020 OpenST Ltd.\n//\n// Licensed under the Apache License, Version 2.0 (the \"License\");\n// you may not use this file except in compliance with the License.\n// You may obtain a copy of the License at\n//\n//    http://www.apache.org/licenses/LICENSE-2.0\n//\n// Unless required by applicable law or agreed to in writing, software\n// distributed under the License is distributed on an \"AS IS\" BASIS,\n// WITHOUT WARRANTIES OR CONDITIONS OF ANY KIND, either express or implied.\n// See the License for the specific language governing permissions and\n// limitations under the License.\n\nimport \"../consensus/CoconsensusModule.sol\";\nimport \"../proxies/MasterCopyNonUpgradable.sol\";\n\n/**\n * @title Coreputation contract.\n *\n * @notice Coreputation contract stores validator status and reputation value\n *         for validators.\n */\ncontract Coreputation is MasterCopyNonUpgradable, CoconsensusModule {\n\n    /** Validator status enum */\n    enum ValidatorStatus {\n\n        /** Undefined as null value */\n        Undefined,\n\n        /** Validator has been slashed and lost stake and earnings */\n        Slashed,\n\n        /** Validator has put up stake and participates in consensus */\n        Staked,\n\n        /** Validator has been deregistered and no longer participates in consensus */\n        Deregistered\n    }\n\n\n    /* Structs */\n\n    struct ValidatorInfo {\n        ValidatorStatus status;\n        uint256 reputation;\n    }\n\n\n    /* Storage */\n\n    /** Validators info */\n    mapping(address => ValidatorInfo) public validators;\n\n\n    /* External functions */\n\n    /**\n     * @notice Insert or update validator information.\n     *\n     * @dev Validator information is not updated when his status is Slashed.\n     *      Validator is marked Deregistered if provided reputation is zero.\n     *      Validator is marked Staked, if he has non zero reputation value.\n     *\n     *      Function requires:\n     *          - msg.sender should be Coconsensus\n     *\n     * @param _validator Validator address to upsert.\n     * @param _reputation Validator reputation value.\n     */\n    function upsertValidator(\n        address _validator,\n        uint256 _reputation\n    )\n        external\n        onlyCoconsensus\n    {\n        ValidatorInfo storage vInfo = validators[_validator];\n        if (vInfo.status != ValidatorStatus.Slashed) {\n            vInfo.reputation = _reputation;\n            if (_reputation == uint256(0)) {\n                vInfo.status = ValidatorStatus.Deregistered;\n            } else {\n                assert(vInfo.status <= ValidatorStatus.Staked);\n                vInfo.status = ValidatorStatus.Staked;\n            }\n        }\n    }\n\n    /**\n     * @notice Returns reputation of a validator.\n     *\n     * @param _validator An address of a validator.\n     * Returns validator reputation.\n     */\n    function getReputation(address _validator)\n        external\n        view\n        returns (uint256)\n    {\n        return validators[_validator].reputation;\n    }\n\n\n    /* Public Functions */\n\n    /**\n     * @notice Check if the validator address is slashed or not.\n     *\n     * @param _validator An address of a validator.\n     * Returns true if the specified address is slashed.\n     */\n    function isSlashed(address _validator)\n        public\n        view\n        returns(bool)\n    {\n        return validators[_validator].status == ValidatorStatus.Slashed;\n    }\n}\n",
  "sourcePath": "/Users/abhay/Documents/projects/abhayforks/mosaic-1/contracts/reputation/Coreputation.sol",
  "compiler": {
    "name": "solc",
    "version": "0.5.13+commit.5b0b510c.Emscripten.clang"
  },
  "schemaVersion": "3.0.17",
  "updatedAt": "2020-03-21T06:48:34.764Z",
  "devdoc": {
    "methods": {
      "getCoconsensus()": {
        "return": "Coconsensus contract address."
      },
      "getReputation(address)": {
        "params": {
          "_validator": "An address of a validator. Returns validator reputation."
        }
      },
      "isSlashed(address)": {
        "params": {
          "_validator": "An address of a validator. Returns true if the specified address is slashed."
        }
      },
      "upsertValidator(address,uint256)": {
        "details": "Validator information is not updated when his status is Slashed.     Validator is marked Deregistered if provided reputation is zero.     Validator is marked Staked, if he has non zero reputation value.     *      Function requires:         - msg.sender should be Coconsensus",
        "params": {
          "_reputation": "Validator reputation value.",
          "_validator": "Validator address to upsert."
        }
      }
    },
    "title": "Coreputation contract."
  },
  "userdoc": {
    "methods": {
      "getCoconsensus()": {
        "notice": "Gets the coconsensus contract address."
      },
      "getReputation(address)": {
        "notice": "Returns reputation of a validator."
      },
      "isSlashed(address)": {
        "notice": "Check if the validator address is slashed or not."
      },
      "upsertValidator(address,uint256)": {
        "notice": "Insert or update validator information."
      }
    },
    "notice": "Coreputation contract stores validator status and reputation value        for validators."
  }
}