{
  "contractName": "CoreputationSpy",
  "abi": [
    {
      "constant": true,
      "inputs": [],
      "name": "upsertValidatorCallCount",
      "outputs": [
        {
          "internalType": "uint256",
          "name": "",
          "type": "uint256"
        }
      ],
      "payable": false,
      "stateMutability": "view",
      "type": "function"
    },
    {
      "constant": false,
      "inputs": [
        {
          "internalType": "address",
          "name": "_validator",
          "type": "address"
        },
        {
          "internalType": "uint256",
          "name": "_reputation",
          "type": "uint256"
        }
      ],
      "name": "upsertValidator",
      "outputs": [],
      "payable": false,
      "stateMutability": "nonpayable",
      "type": "function"
    }
  ],
  "bytecode": "0x608060405234801561001057600080fd5b5060fe8061001f6000396000f3fe6080604052348015600f57600080fd5b506004361060325760003560e01c80632f360bf61460375780635a0738b214604f575b600080fd5b603d607a565b60408051918252519081900360200190f35b607860048036036040811015606357600080fd5b506001600160a01b0381351690602001356080565b005b60005481565b600054609290600163ffffffff60b116565b60009081556001600160a01b0390921682526001602052604090912055565b60008282018381101560c257600080fd5b939250505056fea265627a7a72315820b514c18db935d3c468662ef004f34f5adb40eee219dce24bc8260cef7bb2597364736f6c634300050d0032",
  "source": "pragma solidity >=0.5.0 <0.6.0;\n\n// Copyright 2020 OpenST Ltd.\n//\n// Licensed under the Apache License, Version 2.0 (the \"License\");\n// you may not use this file except in compliance with the License.\n// You may obtain a copy of the License at\n//\n//    http://www.apache.org/licenses/LICENSE-2.0\n//\n// Unless required by applicable law or agreed to in writing, software\n// distributed under the License is distributed on an \"AS IS\" BASIS,\n// WITHOUT WARRANTIES OR CONDITIONS OF ANY KIND, either express or implied.\n// See the License for the specific language governing permissions and\n// limitations under the License.\n\nimport \"../../reputation/CoreputationInterface.sol\";\n\nimport \"openzeppelin-solidity/contracts/math/SafeMath.sol\";\n\ncontract CoreputationSpy is CoreputationInterface {\n\n    using SafeMath for uint256;\n\n    uint256 public upsertValidatorCallCount;\n\n    mapping(address => uint256) spyUpsertValidators;\n\n    /**\n     * @notice Spy the call of upsertValidator function.\n     */\n    function upsertValidator(\n        address _validator,\n        uint256 _reputation\n    )\n        external\n    {\n        upsertValidatorCallCount = upsertValidatorCallCount.add(1);\n        spyUpsertValidators[_validator] = _reputation;\n    }\n}\n",
  "sourcePath": "/Users/abhay/Documents/projects/abhayforks/mosaic-1/contracts/test/reputation/CoreputationSpy.sol",
  "compiler": {
    "name": "solc",
    "version": "0.5.13+commit.5b0b510c.Emscripten.clang"
  },
  "schemaVersion": "3.0.17",
  "updatedAt": "2020-03-21T06:48:34.824Z",
  "devdoc": {
    "methods": {}
  },
  "userdoc": {
    "methods": {
      "upsertValidator(address,uint256)": {
        "notice": "Spy the call of upsertValidator function."
      }
    }
  }
}