{
  "contractName": "CoreputationTest",
  "abi": [
    {
      "inputs": [
        {
          "internalType": "contract CoconsensusInterface",
          "name": "_coconsensus",
          "type": "address"
        }
      ],
      "payable": false,
      "stateMutability": "nonpayable",
      "type": "constructor"
    },
    {
      "constant": true,
      "inputs": [],
      "name": "coconsensus",
      "outputs": [
        {
          "internalType": "contract CoconsensusInterface",
          "name": "",
          "type": "address"
        }
      ],
      "payable": false,
      "stateMutability": "view",
      "type": "function"
    },
    {
      "constant": true,
      "inputs": [
        {
          "internalType": "address",
          "name": "_validator",
          "type": "address"
        }
      ],
      "name": "getReputation",
      "outputs": [
        {
          "internalType": "uint256",
          "name": "",
          "type": "uint256"
        }
      ],
      "payable": false,
      "stateMutability": "view",
      "type": "function"
    },
    {
      "constant": true,
      "inputs": [
        {
          "internalType": "address",
          "name": "_validator",
          "type": "address"
        }
      ],
      "name": "isSlashed",
      "outputs": [
        {
          "internalType": "bool",
          "name": "",
          "type": "bool"
        }
      ],
      "payable": false,
      "stateMutability": "view",
      "type": "function"
    },
    {
      "constant": false,
      "inputs": [
        {
          "internalType": "address",
          "name": "_validator",
          "type": "address"
        },
        {
          "internalType": "uint256",
          "name": "_reputation",
          "type": "uint256"
        }
      ],
      "name": "upsertValidator",
      "outputs": [],
      "payable": false,
      "stateMutability": "nonpayable",
      "type": "function"
    },
    {
      "constant": true,
      "inputs": [
        {
          "internalType": "address",
          "name": "",
          "type": "address"
        }
      ],
      "name": "validators",
      "outputs": [
        {
          "internalType": "enum Coreputation.ValidatorStatus",
          "name": "status",
          "type": "uint8"
        },
        {
          "internalType": "uint256",
          "name": "reputation",
          "type": "uint256"
        }
      ],
      "payable": false,
      "stateMutability": "view",
      "type": "function"
    },
    {
      "constant": false,
      "inputs": [
        {
          "internalType": "address",
          "name": "_validator",
          "type": "address"
        }
      ],
      "name": "setValidatorSlashed",
      "outputs": [],
      "payable": false,
      "stateMutability": "nonpayable",
      "type": "function"
    },
    {
      "constant": true,
      "inputs": [],
      "name": "getCoconsensus",
      "outputs": [
        {
          "internalType": "contract CoconsensusInterface",
          "name": "",
          "type": "address"
        }
      ],
      "payable": false,
      "stateMutability": "view",
      "type": "function"
    }
  ],
  "bytecode": "0x6080604052600180546001600160a01b031916614d0017905534801561002457600080fd5b506040516104283803806104288339818101604052602081101561004757600080fd5b5051600380546001600160a01b0319166001600160a01b039092169190911790556103b1806100776000396000f3fe608060405234801561001057600080fd5b506004361061007d5760003560e01c80639c89a0e21161005b5780639c89a0e2146100fa578063a032006f14610132578063b799036c1461013a578063fa52c7d8146101745761007d565b806323609af7146100825780635a0738b2146100a6578063773feeaf146100d4575b600080fd5b61008a6101c5565b604080516001600160a01b039092168252519081900360200190f35b6100d2600480360360408110156100bc57600080fd5b506001600160a01b0381351690602001356101d4565b005b6100d2600480360360208110156100ea57600080fd5b50356001600160a01b03166102a1565b6101206004803603602081101561011057600080fd5b50356001600160a01b03166102c9565b60408051918252519081900360200190f35b61008a6102e7565b6101606004803603602081101561015057600080fd5b50356001600160a01b03166102f6565b604080519115158252519081900360200190f35b61019a6004803603602081101561018a57600080fd5b50356001600160a01b0316610328565b604051808360038111156101aa57fe5b60ff1681526020018281526020019250505060405180910390f35b6003546001600160a01b031690565b6101dc6101c5565b6001600160a01b0316336001600160a01b03161461022b5760405162461bcd60e51b81526004018080602001828103825260358152602001806103486035913960400191505060405180910390fd5b6001600160a01b03821660009081526002602052604090206001815460ff16600381111561025557fe5b1461029c57600181018290558161027657805460ff1916600317815561029c565b6002815460ff16600381111561028857fe5b111561029057fe5b805460ff191660021781555b505050565b6001600160a01b03166000908152600260205260408120805460ff1916600190811782550155565b6001600160a01b031660009081526002602052604090206001015490565b6003546001600160a01b031681565b600060016001600160a01b03831660009081526002602052604090205460ff16600381111561032157fe5b1492915050565b6002602052600090815260409020805460019091015460ff909116908256fe4f6e6c792074686520436f636f6e73656e73757320636f6e74726163742063616e2063616c6c20746869732066756e6374696f6e2ea265627a7a723158206af8c1938d2156114b80d773012e96fb9f3a40698af33f917e4f85670744ff7164736f6c634300050d0032",
  "source": "pragma solidity >=0.5.0 <0.6.0;\n\n// Copyright 2020 OpenST Ltd.\n//\n// Licensed under the Apache License, Version 2.0 (the \"License\");\n// you may not use this file except in compliance with the License.\n// You may obtain a copy of the License at\n//\n//    http://www.apache.org/licenses/LICENSE-2.0\n//\n// Unless required by applicable law or agreed to in writing, software\n// distributed under the License is distributed on an \"AS IS\" BASIS,\n// WITHOUT WARRANTIES OR CONDITIONS OF ANY KIND, either express or implied.\n// See the License for the specific language governing permissions and\n// limitations under the License.\n\nimport \"../../reputation/Coreputation.sol\";\n\n/**\n * @title CoreputationTest contract.\n */\ncontract CoreputationTest is Coreputation {\n\n    CoconsensusInterface public coconsensus;\n\n\n    /* Special Functions */\n\n    constructor(\n        CoconsensusInterface _coconsensus\n    )\n        public\n    {\n        coconsensus = _coconsensus;\n    }\n\n\n    /* External Functions */\n\n    function setValidatorSlashed(\n        address _validator\n    )\n        external\n    {\n        ValidatorInfo storage vInfo = validators[_validator];\n        vInfo.status = ValidatorStatus.Slashed;\n        vInfo.reputation = uint256(0);\n    }\n\n\n     /* Public Functions */\n\n    function getCoconsensus() public view returns (CoconsensusInterface) {\n        return coconsensus;\n    }\n}\n",
  "sourcePath": "/Users/abhay/Documents/projects/abhayforks/mosaic-1/contracts/test/reputation/CoreputationTest.sol",
  "compiler": {
    "name": "solc",
    "version": "0.5.13+commit.5b0b510c.Emscripten.clang"
  },
  "schemaVersion": "3.0.17",
  "updatedAt": "2020-03-21T06:48:34.825Z",
  "devdoc": {
    "methods": {
      "getReputation(address)": {
        "params": {
          "_validator": "An address of a validator. Returns validator reputation."
        }
      },
      "isSlashed(address)": {
        "params": {
          "_validator": "An address of a validator. Returns true if the specified address is slashed."
        }
      },
      "upsertValidator(address,uint256)": {
        "details": "Validator information is not updated when his status is Slashed.     Validator is marked Deregistered if provided reputation is zero.     Validator is marked Staked, if he has non zero reputation value.     *      Function requires:         - msg.sender should be Coconsensus",
        "params": {
          "_reputation": "Validator reputation value.",
          "_validator": "Validator address to upsert."
        }
      }
    },
    "title": "CoreputationTest contract."
  },
  "userdoc": {
    "methods": {
      "getReputation(address)": {
        "notice": "Returns reputation of a validator."
      },
      "isSlashed(address)": {
        "notice": "Check if the validator address is slashed or not."
      },
      "upsertValidator(address,uint256)": {
        "notice": "Insert or update validator information."
      }
    }
  }
}