{
  "contractName": "Core",
  "abi": [
    {
      "anonymous": false,
      "inputs": [
        {
          "indexed": false,
          "internalType": "enum CoreStatusEnum.CoreStatus",
          "name": "status",
          "type": "uint8"
        }
      ],
      "name": "CoreStatusUpdated",
      "type": "event"
    },
    {
      "anonymous": false,
      "inputs": [
        {
          "indexed": false,
          "internalType": "uint256",
          "name": "genesisOriginObservationBlockNumber",
          "type": "uint256"
        }
      ],
      "name": "GenesisOriginObservationStored",
      "type": "event"
    },
    {
      "anonymous": false,
      "inputs": [
        {
          "indexed": false,
          "internalType": "bytes32",
          "name": "proposal",
          "type": "bytes32"
        }
      ],
      "name": "MetablockProposed",
      "type": "event"
    },
    {
      "constant": true,
      "inputs": [],
      "name": "CORE_LAST_VOTES_WINDOW",
      "outputs": [
        {
          "internalType": "uint256",
          "name": "",
          "type": "uint256"
        }
      ],
      "payable": false,
      "stateMutability": "view",
      "type": "function"
    },
    {
      "constant": true,
      "inputs": [],
      "name": "CORE_OPEN_VOTES_WINDOW",
      "outputs": [
        {
          "internalType": "uint256",
          "name": "",
          "type": "uint256"
        }
      ],
      "payable": false,
      "stateMutability": "view",
      "type": "function"
    },
    {
      "constant": true,
      "inputs": [],
      "name": "CORE_SUPER_MAJORITY_DENOMINATOR",
      "outputs": [
        {
          "internalType": "uint256",
          "name": "",
          "type": "uint256"
        }
      ],
      "payable": false,
      "stateMutability": "view",
      "type": "function"
    },
    {
      "constant": true,
      "inputs": [],
      "name": "CORE_SUPER_MAJORITY_NUMERATOR",
      "outputs": [
        {
          "internalType": "uint256",
          "name": "",
          "type": "uint256"
        }
      ],
      "payable": false,
      "stateMutability": "view",
      "type": "function"
    },
    {
      "constant": true,
      "inputs": [],
      "name": "DOMAIN_SEPARATOR_NAME",
      "outputs": [
        {
          "internalType": "string",
          "name": "",
          "type": "string"
        }
      ],
      "payable": false,
      "stateMutability": "view",
      "type": "function"
    },
    {
      "constant": true,
      "inputs": [],
      "name": "DOMAIN_SEPARATOR_TYPEHASH",
      "outputs": [
        {
          "internalType": "bytes32",
          "name": "",
          "type": "bytes32"
        }
      ],
      "payable": false,
      "stateMutability": "view",
      "type": "function"
    },
    {
      "constant": true,
      "inputs": [],
      "name": "DOMAIN_SEPARATOR_VERSION",
      "outputs": [
        {
          "internalType": "string",
          "name": "",
          "type": "string"
        }
      ],
      "payable": false,
      "stateMutability": "view",
      "type": "function"
    },
    {
      "constant": true,
      "inputs": [],
      "name": "KERNEL_TYPEHASH",
      "outputs": [
        {
          "internalType": "bytes32",
          "name": "",
          "type": "bytes32"
        }
      ],
      "payable": false,
      "stateMutability": "view",
      "type": "function"
    },
    {
      "constant": true,
      "inputs": [],
      "name": "MAX_DELTA_VALIDATORS",
      "outputs": [
        {
          "internalType": "uint256",
          "name": "",
          "type": "uint256"
        }
      ],
      "payable": false,
      "stateMutability": "view",
      "type": "function"
    },
    {
      "constant": true,
      "inputs": [],
      "name": "MAX_FUTURE_END_HEIGHT",
      "outputs": [
        {
          "internalType": "uint256",
          "name": "",
          "type": "uint256"
        }
      ],
      "payable": false,
      "stateMutability": "view",
      "type": "function"
    },
    {
      "constant": true,
      "inputs": [],
      "name": "SENTINEL_PROPOSALS",
      "outputs": [
        {
          "internalType": "bytes32",
          "name": "",
          "type": "bytes32"
        }
      ],
      "payable": false,
      "stateMutability": "view",
      "type": "function"
    },
    {
      "constant": true,
      "inputs": [],
      "name": "SENTINEL_VALIDATORS",
      "outputs": [
        {
          "internalType": "address",
          "name": "",
          "type": "address"
        }
      ],
      "payable": false,
      "stateMutability": "view",
      "type": "function"
    },
    {
      "constant": true,
      "inputs": [],
      "name": "TRANSITION_TYPEHASH",
      "outputs": [
        {
          "internalType": "bytes32",
          "name": "",
          "type": "bytes32"
        }
      ],
      "payable": false,
      "stateMutability": "view",
      "type": "function"
    },
    {
      "constant": true,
      "inputs": [],
      "name": "VOTE_MESSAGE_TYPEHASH",
      "outputs": [
        {
          "internalType": "bytes32",
          "name": "",
          "type": "bytes32"
        }
      ],
      "payable": false,
      "stateMutability": "view",
      "type": "function"
    },
    {
      "constant": true,
      "inputs": [],
      "name": "committedAccumulatedGas",
      "outputs": [
        {
          "internalType": "uint256",
          "name": "",
          "type": "uint256"
        }
      ],
      "payable": false,
      "stateMutability": "view",
      "type": "function"
    },
    {
      "constant": true,
      "inputs": [],
      "name": "committedDynasty",
      "outputs": [
        {
          "internalType": "uint256",
          "name": "",
          "type": "uint256"
        }
      ],
      "payable": false,
      "stateMutability": "view",
      "type": "function"
    },
    {
      "constant": true,
      "inputs": [],
      "name": "committedSourceBlockNumber",
      "outputs": [
        {
          "internalType": "uint256",
          "name": "",
          "type": "uint256"
        }
      ],
      "payable": false,
      "stateMutability": "view",
      "type": "function"
    },
    {
      "constant": true,
      "inputs": [],
      "name": "consensus",
      "outputs": [
        {
          "internalType": "contract ConsensusInterface",
          "name": "",
          "type": "address"
        }
      ],
      "payable": false,
      "stateMutability": "view",
      "type": "function"
    },
    {
      "constant": true,
      "inputs": [],
      "name": "coreStatus",
      "outputs": [
        {
          "internalType": "enum CoreStatusEnum.CoreStatus",
          "name": "",
          "type": "uint8"
        }
      ],
      "payable": false,
      "stateMutability": "view",
      "type": "function"
    },
    {
      "constant": true,
      "inputs": [],
      "name": "countJoinMessages",
      "outputs": [
        {
          "internalType": "uint256",
          "name": "",
          "type": "uint256"
        }
      ],
      "payable": false,
      "stateMutability": "view",
      "type": "function"
    },
    {
      "constant": true,
      "inputs": [],
      "name": "countLogOutMessages",
      "outputs": [
        {
          "internalType": "uint256",
          "name": "",
          "type": "uint256"
        }
      ],
      "payable": false,
      "stateMutability": "view",
      "type": "function"
    },
    {
      "constant": true,
      "inputs": [],
      "name": "countValidators",
      "outputs": [
        {
          "internalType": "uint256",
          "name": "",
          "type": "uint256"
        }
      ],
      "payable": false,
      "stateMutability": "view",
      "type": "function"
    },
    {
      "constant": true,
      "inputs": [],
      "name": "creationKernelHeight",
      "outputs": [
        {
          "internalType": "uint256",
          "name": "",
          "type": "uint256"
        }
      ],
      "payable": false,
      "stateMutability": "view",
      "type": "function"
    },
    {
      "constant": true,
      "inputs": [],
      "name": "domainSeparator",
      "outputs": [
        {
          "internalType": "bytes32",
          "name": "",
          "type": "bytes32"
        }
      ],
      "payable": false,
      "stateMutability": "view",
      "type": "function"
    },
    {
      "constant": true,
      "inputs": [],
      "name": "epochLength",
      "outputs": [
        {
          "internalType": "uint256",
          "name": "",
          "type": "uint256"
        }
      ],
      "payable": false,
      "stateMutability": "view",
      "type": "function"
    },
    {
      "constant": true,
      "inputs": [
        {
          "internalType": "uint256",
          "name": "_height",
          "type": "uint256"
        }
      ],
      "name": "forwardValidatorSetCount",
      "outputs": [
        {
          "internalType": "uint256",
          "name": "",
          "type": "uint256"
        }
      ],
      "payable": false,
      "stateMutability": "view",
      "type": "function"
    },
    {
      "constant": true,
      "inputs": [],
      "name": "genesisOriginObservationBlockNumber",
      "outputs": [
        {
          "internalType": "uint256",
          "name": "",
          "type": "uint256"
        }
      ],
      "payable": false,
      "stateMutability": "view",
      "type": "function"
    },
    {
      "constant": true,
      "inputs": [
        {
          "internalType": "address",
          "name": "_validator",
          "type": "address"
        },
        {
          "internalType": "uint256",
          "name": "_height",
          "type": "uint256"
        }
      ],
      "name": "inForwardValidatorSet",
      "outputs": [
        {
          "internalType": "bool",
          "name": "",
          "type": "bool"
        }
      ],
      "payable": false,
      "stateMutability": "view",
      "type": "function"
    },
    {
      "constant": true,
      "inputs": [
        {
          "internalType": "address",
          "name": "_validator",
          "type": "address"
        },
        {
          "internalType": "uint256",
          "name": "_height",
          "type": "uint256"
        }
      ],
      "name": "inValidatorSet",
      "outputs": [
        {
          "internalType": "bool",
          "name": "",
          "type": "bool"
        }
      ],
      "payable": false,
      "stateMutability": "view",
      "type": "function"
    },
    {
      "constant": true,
      "inputs": [],
      "name": "joinLimit",
      "outputs": [
        {
          "internalType": "uint256",
          "name": "",
          "type": "uint256"
        }
      ],
      "payable": false,
      "stateMutability": "view",
      "type": "function"
    },
    {
      "constant": true,
      "inputs": [
        {
          "internalType": "uint256",
          "name": "",
          "type": "uint256"
        }
      ],
      "name": "kernels",
      "outputs": [
        {
          "internalType": "bytes32",
          "name": "parent",
          "type": "bytes32"
        },
        {
          "internalType": "uint256",
          "name": "gasTarget",
          "type": "uint256"
        }
      ],
      "payable": false,
      "stateMutability": "view",
      "type": "function"
    },
    {
      "constant": true,
      "inputs": [],
      "name": "metachainId",
      "outputs": [
        {
          "internalType": "bytes32",
          "name": "",
          "type": "bytes32"
        }
      ],
      "payable": false,
      "stateMutability": "view",
      "type": "function"
    },
    {
      "constant": true,
      "inputs": [],
      "name": "minimumValidatorCount",
      "outputs": [
        {
          "internalType": "uint256",
          "name": "",
          "type": "uint256"
        }
      ],
      "payable": false,
      "stateMutability": "view",
      "type": "function"
    },
    {
      "constant": true,
      "inputs": [],
      "name": "openKernelHash",
      "outputs": [
        {
          "internalType": "bytes32",
          "name": "",
          "type": "bytes32"
        }
      ],
      "payable": false,
      "stateMutability": "view",
      "type": "function"
    },
    {
      "constant": true,
      "inputs": [],
      "name": "openKernelHeight",
      "outputs": [
        {
          "internalType": "uint256",
          "name": "",
          "type": "uint256"
        }
      ],
      "payable": false,
      "stateMutability": "view",
      "type": "function"
    },
    {
      "constant": true,
      "inputs": [],
      "name": "precommit",
      "outputs": [
        {
          "internalType": "bytes32",
          "name": "",
          "type": "bytes32"
        }
      ],
      "payable": false,
      "stateMutability": "view",
      "type": "function"
    },
    {
      "constant": true,
      "inputs": [],
      "name": "precommitClosureBlockNumber",
      "outputs": [
        {
          "internalType": "uint256",
          "name": "",
          "type": "uint256"
        }
      ],
      "payable": false,
      "stateMutability": "view",
      "type": "function"
    },
    {
      "constant": true,
      "inputs": [],
      "name": "quorum",
      "outputs": [
        {
          "internalType": "uint256",
          "name": "",
          "type": "uint256"
        }
      ],
      "payable": false,
      "stateMutability": "view",
      "type": "function"
    },
    {
      "constant": true,
      "inputs": [],
      "name": "reputation",
      "outputs": [
        {
          "internalType": "contract ReputationInterface",
          "name": "",
          "type": "address"
        }
      ],
      "payable": false,
      "stateMutability": "view",
      "type": "function"
    },
    {
      "constant": true,
      "inputs": [
        {
          "internalType": "address",
          "name": "",
          "type": "address"
        }
      ],
      "name": "validatorBeginHeight",
      "outputs": [
        {
          "internalType": "uint256",
          "name": "",
          "type": "uint256"
        }
      ],
      "payable": false,
      "stateMutability": "view",
      "type": "function"
    },
    {
      "constant": true,
      "inputs": [
        {
          "internalType": "address",
          "name": "",
          "type": "address"
        }
      ],
      "name": "validatorEndHeight",
      "outputs": [
        {
          "internalType": "uint256",
          "name": "",
          "type": "uint256"
        }
      ],
      "payable": false,
      "stateMutability": "view",
      "type": "function"
    },
    {
      "constant": true,
      "inputs": [
        {
          "internalType": "uint256",
          "name": "_height",
          "type": "uint256"
        }
      ],
      "name": "validatorSetCount",
      "outputs": [
        {
          "internalType": "uint256",
          "name": "",
          "type": "uint256"
        }
      ],
      "payable": false,
      "stateMutability": "view",
      "type": "function"
    },
    {
      "constant": true,
      "inputs": [
        {
          "internalType": "address",
          "name": "",
          "type": "address"
        }
      ],
      "name": "validators",
      "outputs": [
        {
          "internalType": "address",
          "name": "",
          "type": "address"
        }
      ],
      "payable": false,
      "stateMutability": "view",
      "type": "function"
    },
    {
      "constant": true,
      "inputs": [
        {
          "internalType": "bytes32",
          "name": "",
          "type": "bytes32"
        }
      ],
      "name": "voteCounts",
      "outputs": [
        {
          "internalType": "uint256",
          "name": "height",
          "type": "uint256"
        },
        {
          "internalType": "uint256",
          "name": "dynasty",
          "type": "uint256"
        },
        {
          "internalType": "uint256",
          "name": "count",
          "type": "uint256"
        }
      ],
      "payable": false,
      "stateMutability": "view",
      "type": "function"
    },
    {
      "constant": true,
      "inputs": [
        {
          "internalType": "address",
          "name": "",
          "type": "address"
        }
      ],
      "name": "votes",
      "outputs": [
        {
          "internalType": "bytes32",
          "name": "",
          "type": "bytes32"
        }
      ],
      "payable": false,
      "stateMutability": "view",
      "type": "function"
    },
    {
      "constant": false,
      "inputs": [
        {
          "internalType": "contract ConsensusInterface",
          "name": "_consensus",
          "type": "address"
        },
        {
          "internalType": "bytes32",
          "name": "_metachainId",
          "type": "bytes32"
        },
        {
          "internalType": "uint256",
          "name": "_epochLength",
          "type": "uint256"
        },
        {
          "internalType": "uint256",
          "name": "_minValidators",
          "type": "uint256"
        },
        {
          "internalType": "uint256",
          "name": "_joinLimit",
          "type": "uint256"
        },
        {
          "internalType": "contract ReputationInterface",
          "name": "_reputation",
          "type": "address"
        },
        {
          "internalType": "uint256",
          "name": "_height",
          "type": "uint256"
        },
        {
          "internalType": "bytes32",
          "name": "_parent",
          "type": "bytes32"
        },
        {
          "internalType": "uint256",
          "name": "_gasTarget",
          "type": "uint256"
        },
        {
          "internalType": "uint256",
          "name": "_dynasty",
          "type": "uint256"
        },
        {
          "internalType": "uint256",
          "name": "_accumulatedGas",
          "type": "uint256"
        },
        {
          "internalType": "uint256",
          "name": "_sourceBlockNumber",
          "type": "uint256"
        }
      ],
      "name": "setup",
      "outputs": [],
      "payable": false,
      "stateMutability": "nonpayable",
      "type": "function"
    },
    {
      "constant": false,
      "inputs": [
        {
          "internalType": "bytes32",
          "name": "_kernelHash",
          "type": "bytes32"
        },
        {
          "internalType": "bytes32",
          "name": "_originObservation",
          "type": "bytes32"
        },
        {
          "internalType": "uint256",
          "name": "_dynasty",
          "type": "uint256"
        },
        {
          "internalType": "uint256",
          "name": "_accumulatedGas",
          "type": "uint256"
        },
        {
          "internalType": "bytes32",
          "name": "_committeeLock",
          "type": "bytes32"
        },
        {
          "internalType": "bytes32",
          "name": "_source",
          "type": "bytes32"
        },
        {
          "internalType": "bytes32",
          "name": "_target",
          "type": "bytes32"
        },
        {
          "internalType": "uint256",
          "name": "_sourceBlockNumber",
          "type": "uint256"
        },
        {
          "internalType": "uint256",
          "name": "_targetBlockNumber",
          "type": "uint256"
        }
      ],
      "name": "proposeMetablock",
      "outputs": [
        {
          "internalType": "bytes32",
          "name": "proposal_",
          "type": "bytes32"
        }
      ],
      "payable": false,
      "stateMutability": "nonpayable",
      "type": "function"
    },
    {
      "constant": false,
      "inputs": [
        {
          "internalType": "bytes32",
          "name": "_proposal",
          "type": "bytes32"
        },
        {
          "internalType": "bytes32",
          "name": "_r",
          "type": "bytes32"
        },
        {
          "internalType": "bytes32",
          "name": "_s",
          "type": "bytes32"
        },
        {
          "internalType": "uint8",
          "name": "_v",
          "type": "uint8"
        }
      ],
      "name": "registerVote",
      "outputs": [],
      "payable": false,
      "stateMutability": "nonpayable",
      "type": "function"
    },
    {
      "constant": true,
      "inputs": [
        {
          "internalType": "bytes32",
          "name": "_kernelHash",
          "type": "bytes32"
        },
        {
          "internalType": "bytes32",
          "name": "_originObservation",
          "type": "bytes32"
        },
        {
          "internalType": "uint256",
          "name": "_dynasty",
          "type": "uint256"
        },
        {
          "internalType": "uint256",
          "name": "_accumulatedGas",
          "type": "uint256"
        },
        {
          "internalType": "bytes32",
          "name": "_committeeLock",
          "type": "bytes32"
        },
        {
          "internalType": "bytes32",
          "name": "_source",
          "type": "bytes32"
        },
        {
          "internalType": "bytes32",
          "name": "_target",
          "type": "bytes32"
        },
        {
          "internalType": "uint256",
          "name": "_sourceBlockNumber",
          "type": "uint256"
        },
        {
          "internalType": "uint256",
          "name": "_targetBlockNumber",
          "type": "uint256"
        }
      ],
      "name": "hashMetablock",
      "outputs": [
        {
          "internalType": "bytes32",
          "name": "metablockHash_",
          "type": "bytes32"
        }
      ],
      "payable": false,
      "stateMutability": "view",
      "type": "function"
    },
    {
      "constant": false,
      "inputs": [
        {
          "internalType": "uint256",
          "name": "_committedDynasty",
          "type": "uint256"
        },
        {
          "internalType": "uint256",
          "name": "_committedAccumulatedGas",
          "type": "uint256"
        },
        {
          "internalType": "uint256",
          "name": "_committedSourceBlockNumber",
          "type": "uint256"
        },
        {
          "internalType": "uint256",
          "name": "_deltaGasTarget",
          "type": "uint256"
        }
      ],
      "name": "openMetablock",
      "outputs": [],
      "payable": false,
      "stateMutability": "nonpayable",
      "type": "function"
    },
    {
      "constant": false,
      "inputs": [
        {
          "internalType": "address",
          "name": "_validator",
          "type": "address"
        }
      ],
      "name": "removeVote",
      "outputs": [],
      "payable": false,
      "stateMutability": "nonpayable",
      "type": "function"
    },
    {
      "constant": false,
      "inputs": [
        {
          "internalType": "address",
          "name": "_validator",
          "type": "address"
        }
      ],
      "name": "joinBeforeOpen",
      "outputs": [
        {
          "internalType": "uint256",
          "name": "validatorCount_",
          "type": "uint256"
        },
        {
          "internalType": "uint256",
          "name": "minValidatorCount_",
          "type": "uint256"
        },
        {
          "internalType": "uint256",
          "name": "beginHeight_",
          "type": "uint256"
        }
      ],
      "payable": false,
      "stateMutability": "nonpayable",
      "type": "function"
    },
    {
      "constant": false,
      "inputs": [
        {
          "internalType": "address",
          "name": "_validator",
          "type": "address"
        }
      ],
      "name": "join",
      "outputs": [
        {
          "internalType": "uint256",
          "name": "beginHeight_",
          "type": "uint256"
        }
      ],
      "payable": false,
      "stateMutability": "nonpayable",
      "type": "function"
    },
    {
      "constant": false,
      "inputs": [
        {
          "internalType": "address",
          "name": "_validator",
          "type": "address"
        }
      ],
      "name": "logout",
      "outputs": [
        {
          "internalType": "uint256",
          "name": "nextKernelHeight_",
          "type": "uint256"
        }
      ],
      "payable": false,
      "stateMutability": "nonpayable",
      "type": "function"
    },
    {
      "constant": false,
      "inputs": [],
      "name": "getOpenKernel",
      "outputs": [
        {
          "internalType": "bytes32",
          "name": "openKernelHash_",
          "type": "bytes32"
        },
        {
          "internalType": "uint256",
          "name": "openKernelHeight_",
          "type": "uint256"
        }
      ],
      "payable": false,
      "stateMutability": "nonpayable",
      "type": "function"
    },
    {
      "constant": true,
      "inputs": [
        {
          "internalType": "address",
          "name": "_account",
          "type": "address"
        }
      ],
      "name": "isValidator",
      "outputs": [
        {
          "internalType": "bool",
          "name": "",
          "type": "bool"
        }
      ],
      "payable": false,
      "stateMutability": "view",
      "type": "function"
    },
    {
      "constant": true,
      "inputs": [
        {
          "internalType": "uint256",
          "name": "_count",
          "type": "uint256"
        }
      ],
      "name": "calculateQuorum",
      "outputs": [
        {
          "internalType": "uint256",
          "name": "quorum_",
          "type": "uint256"
        }
      ],
      "payable": false,
      "stateMutability": "pure",
      "type": "function"
    },
    {
      "constant": true,
      "inputs": [
        {
          "internalType": "uint256",
          "name": "_height",
          "type": "uint256"
        },
        {
          "internalType": "bytes32",
          "name": "_parent",
          "type": "bytes32"
        },
        {
          "internalType": "address[]",
          "name": "_updatedValidators",
          "type": "address[]"
        },
        {
          "internalType": "uint256[]",
          "name": "_updatedReputation",
          "type": "uint256[]"
        },
        {
          "internalType": "uint256",
          "name": "_gasTarget",
          "type": "uint256"
        }
      ],
      "name": "hashKernel",
      "outputs": [
        {
          "internalType": "bytes32",
          "name": "hash_",
          "type": "bytes32"
        }
      ],
      "payable": false,
      "stateMutability": "view",
      "type": "function"
    }
  ],
  "bytecode": "0x608060405234801561001057600080fd5b5061386b806100206000396000f3fe608060405234801561001057600080fd5b506004361061038e5760003560e01c806397f3c806116101de578063d7f301f01161010f578063ed39cded116100ad578063fa52c7d81161007c578063fa52c7d814610a19578063facd743b14610a3f578063fcced56114610a65578063fd6dfa4314610a6d5761038e565b8063ed39cded146106ff578063f173034a146109e5578063f35a2635146108a5578063f698da2514610a115761038e565b8063dcf1c34a116100e9578063dcf1c34a1461099a578063dfa8b87e146109b7578063e4eaf14e146108a5578063e9c18a5d146109dd5761038e565b8063d7f301f014610940578063d8bb83b91461096c578063d8bff5a5146109745761038e565b8063b70a3e0e1161017c578063c52164c611610156578063c52164c6146108b5578063cc51f9b9146108bd578063d1a976da146108e3578063d4f6ab79146109235761038e565b8063b70a3e0e1461089d578063bce02611146108a5578063bebf5b0c146108ad5761038e565b8063b2fec593116101b8578063b2fec59314610835578063b4907ddc14610867578063b5b9e4291461086f578063b6735be4146108775761038e565b806397f3c8061461081d5780639f81b8a114610825578063a0cea4b01461082d5761038e565b80634adba1ce116102c35780637ad6e5aa1161026157806387265c951161023057806387265c95146107885780638bc23037146108055780638ef3f7611461080d57806390cbdd69146108155761038e565b80637ad6e5aa146107075780637ec9d7531461072457806381d0e37b1461072c578063823a8971146107675761038e565b806357d775f81161029d57806357d775f8146106c05780635be70152146106c857806362d76edf146106d05780637279fce8146106ff5761038e565b80634adba1ce1461064c5780634ff92af31461066957806355401a5f146106715761038e565b806321c0bc4911610330578063385d265e1161030a578063385d265e146104765780633ba71011146104e95780633ccc1f53146104f157806344fbc8b3146105175761038e565b806321c0bc491461044057806328ffe6c8146104485780632fea42151461046e5761038e565b806318ea883d1161036c57806318ea883d146103d95780631db61b54146104285780631df69c71146104305780631fdeaa31146104385761038e565b8063102c0ca714610393578063149fbab9146103ad5780631703a018146103d1575b600080fd5b61039b610a93565b60408051918252519081900360200190f35b6103b5610a99565b604080516001600160a01b039092168252519081900360200190f35b61039b610a9e565b61039b60048036036101208110156103f057600080fd5b5080359060208101359060408101359060608101359060808101359060a08101359060c08101359060e0810135906101000135610aa4565b61039b610e18565b61039b610e33565b61039b610e39565b61039b610e3f565b61039b6004803603602081101561045e57600080fd5b50356001600160a01b0316610e5a565b61039b6110f9565b6104e7600480360361018081101561048d57600080fd5b506001600160a01b03813581169160208101359160408201359160608101359160808201359160a08101359091169060c08101359060e08101359061010081013590610120810135906101408101359061016001356110ff565b005b61039b61150e565b6104e76004803603602081101561050757600080fd5b50356001600160a01b0316611529565b61039b600480360360a081101561052d57600080fd5b81359160208101359181019060608101604082013564010000000081111561055457600080fd5b82018360208201111561056657600080fd5b8035906020019184602083028401116401000000008311171561058857600080fd5b91908080602002602001604051908101604052809392919081815260200183836020028082843760009201919091525092959493602081019350359150506401000000008111156105d857600080fd5b8201836020820111156105ea57600080fd5b8035906020019184602083028401116401000000008311171561060c57600080fd5b919080806020026020016040519081016040528093929190818152602001838360200280828437600092019190915250929550509135925061165a915050565b61039b6004803603602081101561066257600080fd5b50356117bf565b61039b611814565b61039b600480360361012081101561068857600080fd5b5080359060208101359060408101359060608101359060808101359060a08101359060c08101359060e081013590610100013561181a565b61039b61184b565b61039b611851565b6104e7600480360360808110156106e657600080fd5b5080359060208101359060408101359060600135611857565b61039b611a77565b61039b6004803603602081101561071d57600080fd5b5035611a7c565b61039b611aa6565b6107496004803603602081101561074257600080fd5b5035611aab565b60408051938452602084019290925282820152519081900360600190f35b61076f611acc565b6040805192835260208301919091528051918290030190f35b610790611ad6565b6040805160208082528351818301528351919283929083019185019080838360005b838110156107ca5781810151838201526020016107b2565b50505050905090810190601f1680156107f75780820380516001836020036101000a031916815260200191505b509250505060405180910390f35b61039b611afd565b6103b5611b03565b61039b611b12565b61039b611b2d565b61039b611b33565b61039b611b39565b6104e76004803603608081101561084b57600080fd5b508035906020810135906040810135906060013560ff16611b3f565b610790611f2e565b61039b611f4b565b61039b6004803603602081101561088d57600080fd5b50356001600160a01b0316611f51565b61039b611f63565b61039b611f69565b61039b611f6f565b6103b5611f75565b61039b600480360360208110156108d357600080fd5b50356001600160a01b0316611f84565b61090f600480360360408110156108f957600080fd5b506001600160a01b0381351690602001356122aa565b604080519115158252519081900360200190f35b61076f6004803603602081101561093957600080fd5b5035612314565b61094861232d565b6040518082600481111561095857fe5b60ff16815260200191505060405180910390f35b61039b612336565b61039b6004803603602081101561098a57600080fd5b50356001600160a01b031661233b565b61039b600480360360208110156109b057600080fd5b503561234d565b61039b600480360360208110156109cd57600080fd5b50356001600160a01b03166123a2565b61039b6123b4565b61090f600480360360408110156109fb57600080fd5b506001600160a01b0381351690602001356123ba565b61039b61241e565b6103b560048036036020811015610a2f57600080fd5b50356001600160a01b0316612424565b61090f60048036036020811015610a5557600080fd5b50356001600160a01b031661243f565b61039b61244d565b61074960048036036020811015610a8357600080fd5b50356001600160a01b0316612453565b601d5481565b600181565b60105481565b60006003600a5460ff166004811115610ab957fe5b14610af55760405162461bcd60e51b815260040180806020018281038252602c815260200180613546602c913960400191505060405180910390fd5b6016548a14610b355760405162461bcd60e51b81526004018080602001828103825260428152602001806133e36042913960600191505060405180910390fd5b88610b715760405162461bcd60e51b81526004018080602001828103825260228152602001806135c86022913960400191505060405180910390fd5b6018548811610bc7576040805162461bcd60e51b815260206004820152601f60248201527f44796e61737479206d757374207374726963746c7920696e6372656173652e00604482015290519081900360640190fd5b6017548711610c075760405162461bcd60e51b81526004018080602001828103825260278152602001806131126027913960400191505060405180910390fd5b85610c59576040805162461bcd60e51b815260206004820152601e60248201527f436f6d6d6974746565206c6f636b2063616e6e6f74206265206e756c6c2e0000604482015290519081900360640190fd5b84610c955760405162461bcd60e51b81526004018080602001828103825260228152602001806134fe6022913960400191505060405180910390fd5b83610cd15760405162461bcd60e51b81526004018080602001828103825260228152602001806136556022913960400191505060405180910390fd5b6019548311610d115760405162461bcd60e51b815260040180806020018281038252602b81526020018061323a602b913960400191505060405180910390fd5b600b548381610d1c57fe5b0615610d595760405162461bcd60e51b81526004018080602001828103825260298152602001806137ae6029913960400191505060405180910390fd5b600b54610d6d90849063ffffffff6127c816565b8214610daa5760405162461bcd60e51b815260040180806020018281038252603c81526020018061373f603c913960400191505060405180910390fd5b6000610db98b8b8b8b8b6127da565b9050610dcb6008548288888888612884565b9150610dd7898361292b565b6040805183815290517f32e535cacf2527edfd5416eec14808e6f5c6ba11517efef220397f4175c5e5bb9181900360200190a1509998505050505050505050565b60405180605661357282396056019050604051809103902081565b60165481565b60095481565b6040518060876131b382396087019050604051809103902081565b6001546000906001600160a01b03163314610ea65760405162461bcd60e51b815260040180806020018281038252603381526020018061377b6033913960400191505060405180910390fd5b6003600a5460ff166004811115610eb957fe5b1480610ed557506004600a5460ff166004811115610ed357fe5b145b610f22576040805162461bcd60e51b81526020600482015260196024820152782a34329031b7b9329036bab9ba10313290393ab73734b7339760391b604482015290519081900360640190fd5b6001600160a01b038216610f675760405162461bcd60e51b81526004018080602001828103825260238152602001806133c06023913960400191505060405180910390fd5b6001600160a01b03821660009081526004602052604090205415610fbc5760405162461bcd60e51b81526004018080602001828103825260308152602001806131836030913960400191505060405180910390fd5b600f54610fe8601254610fdc601154600d546127c890919063ffffffff16565b9063ffffffff612a7216565b106110245760405162461bcd60e51b81526004018080602001828103825260248152602001806134256024913960400191505060405180910390fd5b600a601154106110655760405162461bcd60e51b81526004018080602001828103825260478152602001806136ac6047913960600191505060405180910390fd5b60115461107990600163ffffffff6127c816565b60115560155460009061109390600163ffffffff6127c816565b905061109f8382612a87565b6000818152600c6020908152604082206001808201805480830182559085528385200180546001600160a01b0319166001600160a01b03989098169790971790965560020180548087018255908352912001929092555090565b60195481565b6009541561114d576040805162461bcd60e51b815260206004820152601660248201527521b7b9329034b99030b63932b0b23c9039b2ba3ab81760511b604482015290519081900360640190fd5b8a611194576040805162461bcd60e51b815260206004820152601260248201527126b2ba30b1b430b4b71034b21034b990181760711b604482015290519081900360640190fd5b896111db576040805162461bcd60e51b815260206004820152601260248201527122b837b1b4103632b733ba341034b990181760711b604482015290519081900360640190fd5b8861122d576040805162461bcd60e51b815260206004820152601a60248201527f4d696e2076616c696461746f727320636f756e7420697320302e000000000000604482015290519081900360640190fd5b8761127f576040805162461bcd60e51b815260206004820152601c60248201527f56616c696461746f722773206a6f696e206c696d697420697320302e00000000604482015290519081900360640190fd5b6001600160a01b0387166112c45760405162461bcd60e51b81526004018080602001828103825260268152602001806135206026913960400191505060405180910390fd5b6040518060566135728239605601905060405180910390206040518060400160405280600b81526020016a4d6f736169632d436f726560a81b815250604051806040016040528060018152602001600360fc1b8152508d30604051602001808681526020018060200180602001858152602001846001600160a01b03166001600160a01b03168152602001838103835287818151815260200191508051906020019080838360005b8381101561138457818101518382015260200161136c565b50505050905090810190601f1680156113b15780820380516001836020036101000a031916815260200191505b50838103825286518152865160209182019188019080838360005b838110156113e45781810151838201526020016113cc565b50505050905090810190601f1680156114115780820380516001836020036101000a031916815260200191505b50975050505050505050604051602081830303815290604052805190602001206008819055506114408c612c62565b61144986612d11565b600a805460ff19166002178155600b8b9055601380546001600160a01b038a166001600160a01b0319909116179055600e8a9055600f899055601487905560158790556000878152600c60205260409081902087815560038101879055601886905560178590556019849055915490517fdbf46c633e4def8d327b654eb824a71a651789f871526b90e48e71a7a4ef691c9160ff1690808260048111156114ec57fe5b60ff16815260200191505060405180910390a150505050505050505050505050565b6040518060806132cb82396080019050604051809103902081565b6001546001600160a01b031633146115725760405162461bcd60e51b815260040180806020018281038252603381526020018061377b6033913960400191505060405180910390fd5b6003600a5460ff16600481111561158557fe5b14806115a157506004600a5460ff16600481111561159f57fe5b145b6115ee576040805162461bcd60e51b81526020600482015260196024820152782a34329031b7b9329036bab9ba10313290393ab73734b7339760391b604482015290519081900360640190fd5b6001600160a01b0381166000908152601c6020908152604080832054808452601b90925290912060155481541415611655576001600160a01b0383166000908152601c6020526040812055600281015461164f90600163ffffffff612a7216565b60028201555b505050565b60008060405180806132cb60809139608001905060405180910390208787878787604051602001808781526020018681526020018581526020018060200180602001848152602001838103835286818151815260200191508051906020019060200280838360005b838110156116da5781810151838201526020016116c2565b50505050905001838103825285818151815260200191508051906020019060200280838360005b83811015611719578181015183820152602001611701565b5050505090500198505050505050505050604051602081830303815290604052805190602001209050601960f81b600160f81b6008548360405160200180856001600160f81b0319166001600160f81b0319168152600101846001600160f81b0319166001600160f81b03191681526001018381526020018281526020019450505050506040516020818303038152906040528051906020012091505095945050505050565b600060075482106118015760405162461bcd60e51b815260040180806020018281038252604081526020018061346c6040913960400191505060405180910390fd5b5060009081526006602052604090205490565b60155481565b60008061182a8b8b8b8b8b6127da565b905061183c6008548288888888612884565b9b9a5050505050505050505050565b600b5481565b601f5481565b6001546001600160a01b031633146118a05760405162461bcd60e51b815260040180806020018281038252603381526020018061377b6033913960400191505060405180910390fd5b6004600a5460ff1660048111156118b357fe5b14611905576040805162461bcd60e51b815260206004820152601e60248201527f54686520636f7265206d75737420626520707265636f6d6d69747465642e0000604482015290519081900360640190fd5b601d5461190e57fe5b60188490556017839055601982905560155460009061193490600163ffffffff6127c816565b6000818152600c60205260409020601d5481556017549192509061195e908463ffffffff6127c816565b60038201556015829055805460018201805460408051602080840282018101909252828152611a2b948794909391929091908301828280156119c957602002820191906000526020600020905b81546001600160a01b031681526001909101906020018083116119ab575b505050505084600201805480602002602001604051908101604052809291908181526020018280548015611a1c57602002820191906000526020600020905b815481526020019060010190808311611a08575b5050505050856003015461165a565b601655601254601154600d54611a4c9291610fdc919063ffffffff6127c816565b600d819055611a5a90611a7c565b60105560006011819055601255611a6f612d54565b505050505050565b600381565b6000611aa06003611a9484600263ffffffff612d9c16565b9063ffffffff612dc316565b92915050565b600281565b601b6020526000908152604090208054600182015460029092015490919083565b6016546015549091565b6040518060400160405280600b81526020016a4d6f736169632d436f726560a81b81525081565b60185481565b6001546001600160a01b031681565b60405180607561334b82396075019050604051809103902081565b600d5481565b601e5481565b600f5481565b601e54431115611b805760405162461bcd60e51b81526004018080602001828103825260268152602001806138116026913960400191505060405180910390fd5b83611bd2576040805162461bcd60e51b815260206004820152601960248201527f50726f706f73616c2063616e206e6f74206265206e756c6c2e00000000000000604482015290519081900360640190fd5b601d5415611c1a57601d548414611c1a5760405162461bcd60e51b815260040180806020018281038252604181526020018061328a6041913960600191505060405180910390fd5b6015546000908152601a60209081526040808320878452909152902054611c725760405162461bcd60e51b81526004018080602001828103825260358152602001806136776035913960400191505060405180910390fd5b604080516000808252602080830180855288905260ff85168385015260608301879052608083018690529251909260019260a080820193601f1981019281900390910190855afa158015611cca573d6000803e3d6000fd5b505050602060405103519050611cdf8161243f565b611d1a5760405162461bcd60e51b81526004018080602001828103825260268152602001806134d86026913960400191505060405180910390fd5b60135460408051632de640db60e21b81526001600160a01b0384811660048301529151919092169163b799036c916024808301926020929190829003018186803b158015611d6757600080fd5b505afa158015611d7b573d6000803e3d6000fd5b505050506040513d6020811015611d9157600080fd5b505115611ddd576040805162461bcd60e51b81526020600482015260156024820152742b30b634b230ba37b91034b99039b630b9b432b21760591b604482015290519081900360640190fd5b6001600160a01b0381166000908152601c602052604090205485811415611e4b576040805162461bcd60e51b815260206004820152601b60248201527f566f74652068617320616c7265616479206265656e20636173742e0000000000604482015290519081900360640190fd5b6000818152601b60205260408082208883529120600282015415801590611e7457506015548254145b15611edb578060010154826001015410611ebf5760405162461bcd60e51b81526004018080602001828103825260338152602001806135ea6033913960400191505060405180910390fd5b6002820154611ed590600163ffffffff612a7216565b60028301555b6001600160a01b0384166000908152601c602052604090208890556002810154611f0c90600163ffffffff6127c816565b6002820181905560105411611f2457611f2488612de5565b5050505050505050565b604051806040016040528060018152602001600360fc1b81525081565b60115481565b60036020526000908152604090205481565b60125481565b60001981565b60145481565b6013546001600160a01b031681565b6001546000906001600160a01b03163314611fd05760405162461bcd60e51b815260040180806020018281038252603381526020018061377b6033913960400191505060405180910390fd5b6003600a5460ff166004811115611fe357fe5b1480611fff57506004600a5460ff166004811115611ffd57fe5b145b61204c576040805162461bcd60e51b81526020600482015260196024820152782a34329031b7b9329036bab9ba10313290393ab73734b7339760391b604482015290519081900360640190fd5b6001600160a01b0382166120915760405162461bcd60e51b81526004018080602001828103825260238152602001806133c06023913960400191505060405180910390fd5b6015546001600160a01b0383166000908152600360205260409020541115612100576040805162461bcd60e51b815260206004820152601a60248201527f56616c696461746f72206d757374206861766520626567756e2e000000000000604482015290519081900360640190fd5b6001600160a01b0382166000908152600460205260409020546000191461216e576040805162461bcd60e51b815260206004820152601960248201527f56616c696461746f72206d757374206265206163746976652e00000000000000604482015290519081900360640190fd5b600e5461218e601254610fdc601154600d546127c890919063ffffffff16565b116121e0576040805162461bcd60e51b815260206004820181905260248201527f56616c696461746f72206d696e696d756d206c696d697420726561636865642e604482015290519081900360640190fd5b600a601254106122215760405162461bcd60e51b815260040180806020018281038252604a815260200180613139604a913960600191505060405180910390fd5b60155461223590600163ffffffff6127c816565b90506122418282612f35565b6000818152600c6020908152604082206001808201805480830182559085528385200180546001600160a01b0319166001600160a01b0388161790556002820180548083018255908552928420909201929092556012546122a1916127c8565b60125550919050565b6001600160a01b03821660009081526003602052604081205482108015906122ea57506001600160a01b0383166000908152600460205260409020548211155b801561230d57506001600160a01b03831660009081526004602052604090205415155b9392505050565b600c602052600090815260409020805460039091015482565b600a5460ff1681565b600a81565b601c6020526000908152604090205481565b6000600754821061238f5760405162461bcd60e51b815260040180806020018281038252603881526020018061361d6038913960400191505060405180910390fd5b5060009081526005602052604090205490565b60046020526000908152604090205481565b60175481565b6001600160a01b03821660009081526003602052604081205482108015906122ea57506001600160a01b0383166000908152600460205260409020548210801561230d575050506001600160a01b0316600090815260046020526040902054151590565b60085481565b6002602052600090815260409020546001600160a01b031681565b6000611aa0826015546122aa565b600e5481565b600154600090819081906001600160a01b031633146124a35760405162461bcd60e51b815260040180806020018281038252603381526020018061377b6033913960400191505060405180910390fd5b6002600a5460ff1660048111156124b657fe5b14612508576040805162461bcd60e51b815260206004820152601960248201527f54686520636f7265206d75737420626520637265617465642e00000000000000604482015290519081900360640190fd5b6001600160a01b03841661254d5760405162461bcd60e51b81526004018080602001828103825260238152602001806133c06023913960400191505060405180910390fd5b6001600160a01b038416600090815260046020526040902054156125a25760405162461bcd60e51b81526004018080602001828103825260308152602001806131836030913960400191505060405180910390fd5b6125ae84601454612a87565b6014546000908152600c602090815260408220600180820180548083018083559186528486200180546001600160a01b0319166001600160a01b038b16179055600d90815560028301805480840182559086529390942090920191909155600e5491549091116127b157600e54600d541461262557fe5b612630600d54611a7c565b601055600019601e556014548154600183018054604080516020808402820181019092528281526126f8959493909290918301828280156119c9576020028201919060005260206000209081546001600160a01b031681526001909101906020018083116119ab57505050505084600201805480602002602001604051908101604052809291908181526020018280548015611a1c5760200282019190600052602060002090815481526020019060010190808311611a08575050505050856003015461165a565b60165543601f5560145461271c9061271790600163ffffffff6127c816565b6130a0565b601f5460408051918252517f6d2d47704d5f5f118b0780c42ab4b2150125b21de5265094986654269b68822a9181900360200190a1600a805460ff1916600317908190556040517fdbf46c633e4def8d327b654eb824a71a651789f871526b90e48e71a7a4ef691c9160ff16908082600481111561279657fe5b60ff16815260200191505060405180910390a16127b1612d54565b600d549350600e5492506014549150509193909250565b60008282018381101561230d57600080fd5b600080604051808061334b60759139604080519182900360750182206020808401919091528282019a909a526060820198909852608081019690965250505060a083019190915260c0808301919091528251808303909101815260e082018352805190840120600854601960f81b610100840152600160f81b6101018401526101028301526101228083019190915282518083039091018152610142909101909152805191012090565b60008060405180806131b360879139604080519182900360870182206020808401919091528282019a909a526060820198909852608081019690965250505060a083019190915260c0808301919091528251808303909101815260e082018352805190840120601960f81b610100830152600160f81b6101018301526101028201949094526101228082019490945281518082039094018452610142019052815191012090565b8061297d576040805162461bcd60e51b815260206004820152601a60248201527f50726f706f73616c206d757374206e6f74206265206e756c6c2e000000000000604482015290519081900360640190fd5b6000198114156129be5760405162461bcd60e51b815260040180806020018281038252602c8152602001806134ac602c913960400191505060405180910390fd5b6015546000908152601a6020908152604080832084845290915290205415612a175760405162461bcd60e51b81526004018080602001828103825260238152602001806134496023913960400191505060405180910390fd5b6000818152601b60209081526040808320601580548255600182019690965560020183905584548352601a80835281842060001980865290845282852054868652838620559554845282528083209483529390529190912055565b600082821115612a8157600080fd5b50900390565b808060075414612ade576040805162461bcd60e51b815260206004820181905260248201527f486569676874206d75737420657175616c20616374697665206865696768742e604482015290519081900360640190fd5b6001600160a01b038316612aee57fe5b6001600160a01b038381166000908152600260205260409020541615612b1057fe5b600160005260026020527fe90b7bceb6e7df5418fb78d8ee546e97c83a08bbccc01a0644d599ccd2a7c2e0546001600160a01b031680612b4c57fe5b6001600160a01b03808516600081815260026020908152604080832080549587166001600160a01b03199687161790557fe90b7bceb6e7df5418fb78d8ee546e97c83a08bbccc01a0644d599ccd2a7c2e080549095168417909455918152600382528281208690556004825282812060001990556007548152600590915290812054612bdf90600163ffffffff6127c816565b600780546000908152600560208190526040822084905591549293508392612c0e90600163ffffffff6127c816565b815260200190815260200160002081905550612c496001600660006007548152602001908152602001600020546127c890919063ffffffff16565b6007546000908152600660205260409020555050505050565b6001546001600160a01b031615612caa5760405162461bcd60e51b81526004018080602001828103825260258152602001806132656025913960400191505060405180910390fd5b6001600160a01b038116612cef5760405162461bcd60e51b815260040180806020018281038252602381526020018061371c6023913960400191505060405180910390fd5b600180546001600160a01b0319166001600160a01b0392909216919091179055565b6007556001600081905260026020527fe90b7bceb6e7df5418fb78d8ee546e97c83a08bbccc01a0644d599ccd2a7c2e080546001600160a01b0319169091179055565b6015546000908152601a60209081526040808320600019845290915290205415612d7a57fe5b6015546000908152601a60209081526040808320600019808552925290912055565b600082612dab57506000611aa0565b82820282848281612db857fe5b041461230d57600080fd5b6000808211612dd157600080fd5b6000828481612ddc57fe5b04949350505050565b601d541580612df5575080601d54145b612e305760405162461bcd60e51b81526004018080602001828103825260298152602001806136f36029913960400191505060405180910390fd5b6003600a5460ff166004811115612e4357fe5b1415612f3257600a805460ff19166004179055601d819055612e664360036127c8565b601e556001546009546015546040805163c8111da160e01b81526004810193909352602483019190915260448201849052516001600160a01b039092169163c8111da19160648082019260009290919082900301818387803b158015612ecb57600080fd5b505af1158015612edf573d6000803e3d6000fd5b5050600a546040517fdbf46c633e4def8d327b654eb824a71a651789f871526b90e48e71a7a4ef691c935060ff909116915080826004811115612f1e57fe5b60ff16815260200191505060405180910390a15b50565b808060075414612f8c576040805162461bcd60e51b815260206004820181905260248201527f486569676874206d75737420657175616c20616374697665206865696768742e604482015290519081900360640190fd5b6001600160a01b03831660009081526004602052604090205460001914612faf57fe5b6001600160a01b03831660009081526003602052604090205482116130055760405162461bcd60e51b815260040180806020018281038252603a8152602001806137d7603a913960400191505060405180910390fd5b6001600160a01b038316600090815260046020526040812083905560075461303490600163ffffffff6127c816565b60008181526005602052604090205490915061305790600163ffffffff612a7216565b600082815260056020908152604080832093909355600754825260069052205461308890600163ffffffff612a7216565b60075460009081526006602052604090205550505050565b6007546130b490600163ffffffff6127c816565b81146130bc57fe5b6000818152600560208190526040822054916130df84600163ffffffff6127c816565b81526020808201929092526040908101600090812093909355838352600582528083205460069092529091205560075556fe416363756d756c6174656420676173206d757374207374726963746c7920696e6372656173652e4d6178696d756d206e756d626572206f662076616c696461746f727320746861742063616e206c6f67206f757420696e206f6e65206d657461626c6f636b20697320726561636865642e56616c696461746f72206d757374206e6f7420616c72656164792062652070617274206f66207468697320636f72652e566f74654d6573736167652862797465733332207472616e736974696f6e486173682c6279746573333220736f75726365426c6f636b486173682c6279746573333220746172676574426c6f636b486173682c75696e7432353620736f75726365426c6f636b4e756d6265722c75696e7432353620746172676574426c6f636b4e756d62657229536f7572636520626c6f636b206e756d626572206d757374207374726963746c7920696e6372656173652e436f6e73656e737573206164647265737320697320616c72656164792070726573656e742e436f72652068617320707265636f6d6d69747465642c206f6e6c7920766f74657320666f7220707265636f6d6d69746d656e74206172652072656c6576616e742e4b65726e656c2875696e74323536206865696768742c6279746573333220706172656e742c616464726573735b5d207570646174656456616c696461746f72732c75696e743235365b5d207570646174656452657075746174696f6e2c75696e74323536206761735461726765742c75696e74323536206761735072696365295472616e736974696f6e2862797465733332206b65726e656c486173682c62797465733332206f726967696e4f62736572766174696f6e2c75696e743235362064796e617374792c75696e7432353620616363756d756c617465644761732c6279746573333220636f6d6d69747465654c6f636b2956616c696461746f72206d757374206e6f74206265206e756c6c20616464726573732e41206d657461626c6f636b2063616e206f6e6c792062652070726f706f73656420666f7220746865206f70656e204b65726e656c20696e207468697320636f72652e4a6f696e206c696d6974206973207265616368656420666f72207468697320636f72652e50726f706f73616c2063616e206f6e6c7920626520696e736572746564206f6e63652e466f72776172642076616c696461746f722073657420636f756e74206973206f6e6c7920646566696e656420757020746f20616374697665206865696768742e50726f706f73616c206d757374206e6f742062652073656e74696e656c20666f722070726f706f73616c732e56616c696461746f72206d7573742062652061637469766520696e207468697320636f72652e536f7572636520626c6f636b68617368206d757374206e6f74206265206e756c6c2e52657075746174696f6e20636f6e747261637427732061646472657373206973206e756c6c2e54686520636f7265206d757374206861766520616e206f70656e206d657461626c6f636b206b65726e656c2e454950373132446f6d61696e28737472696e67206e616d652c737472696e672076657273696f6e2c62797465733332206d657461636861696e49642c6164647265737320766572696679696e67436f6e7472616374294f726967696e206f62736572766174696f6e2063616e6e6f74206265206e756c6c2e566f74652063616e206f6e6c792062652072656361737420666f72206869676865722064796e61737479206e756d626572732e56616c696461746f722073657420636f756e74206973206f6e6c7920646566696e656420757020746f20616374697665206865696768742e54617267657420626c6f636b68617368206d757374206e6f74206265206e756c6c2e50726f706f73616c206d7573742062652072656769737465726564206174206f70656e206d657461626c6f636b206865696768742e4d6178696d756d206e756d626572206f662076616c696461746f727320746861742063616e206a6f696e20696e206f6e65206d657461626c6f636b20697320726561636865642e4f6e6365206c6f636b65642c20707265636f6d6d69742063616e6e6f74206265206368616e6765642e436f6e73656e7375732061646472657373206d757374206e6f74206265206e756c6c2e54617267657420626c6f636b206e756d626572206d75737420657175616c20736f7572636520626c6f636b206e756d62657220706c7573206f6e652e4f6e6c792074686520636f6e73656e73757320636f6e74726163742063616e2063616c6c20746869732066756e6374696f6e2e536f7572636520626c6f636b206e756d626572206d757374206265206120636865636b706f696e742e456e6420686569676874206d757374206265207374726963746c792067726561746572207468616e20746865207374617274206865696768742e54686520707265636f6d6d69746d656e742077696e646f77206d757374206265206f70656e2ea265627a7a72315820c98d897d5280aec2c04fc3ccbefc626ede12ef455073b95cbadb39aa1cbffa5564736f6c634300050d0032",
  "source": "pragma solidity >=0.5.0 <0.6.0;\n\n// Copyright 2019 OpenST Ltd.\n//\n// Licensed under the Apache License, Version 2.0 (the \"License\");\n// you may not use this file except in compliance with the License.\n// You may obtain a copy of the License at\n//\n//    http://www.apache.org/licenses/LICENSE-2.0\n//\n// Unless required by applicable law or agreed to in writing, software\n// distributed under the License is distributed on an \"AS IS\" BASIS,\n// WITHOUT WARRANTIES OR CONDITIONS OF ANY KIND, either express or implied.\n// See the License for the specific language governing permissions and\n// limitations under the License.\n\nimport \"./CoreInterface.sol\";\nimport \"./CoreStatusEnum.sol\";\nimport \"../consensus/ConsensusModule.sol\";\nimport \"../reputation/ReputationInterface.sol\";\nimport \"../proxies/MasterCopyNonUpgradable.sol\";\nimport \"../validator-set/ValidatorSet.sol\";\nimport \"../version/MosaicVersion.sol\";\nimport \"../vote-message/VoteMessage.sol\";\n\nimport \"openzeppelin-solidity/contracts/math/SafeMath.sol\";\n\ncontract Core is\n    MasterCopyNonUpgradable,\n    ConsensusModule,\n    ValidatorSet,\n    MosaicVersion,\n    CoreStatusEnum,\n    VoteMessage,\n    CoreInterface\n{\n\n    /* Usings */\n\n    using SafeMath for uint256;\n\n\n    /* Events */\n\n    /** Emitted when new metablock is proposed */\n    event MetablockProposed(bytes32 proposal);\n\n    /** Emitted when core status is changed. */\n    event CoreStatusUpdated(CoreStatus status);\n\n    /**  Emitted when core is opened for a first time after creation. */\n    event GenesisOriginObservationStored(uint256 genesisOriginObservationBlockNumber);\n\n\n    /* Structs */\n\n    /** The kernel of a meta-block header */\n    struct Kernel {\n        // Note the height of the metablock in the metachain is omitted in the struct\n\n        /** Hash of the metablock's parent */\n        bytes32 parent;\n        /** Added validators */\n        address[] updatedValidators;\n        /** Removed validators */\n        uint256[] updatedReputation;\n        /** Gas target to close the metablock */\n        uint256 gasTarget;\n    }\n\n    struct VoteCount {\n        /** Kernel height for proposed metablock */\n        uint256 height;\n        /** Transition dynasty number for proposed metablock */\n        uint256 dynasty;\n        /** Vote count for the proposal */\n        uint256 count;\n    }\n\n\n    /* Storage */\n\n    /** EIP-712 domain separator name for Core */\n    string public constant DOMAIN_SEPARATOR_NAME = \"Mosaic-Core\";\n\n    /** EIP-712 domain separator for Core */\n    bytes32 public constant DOMAIN_SEPARATOR_TYPEHASH = keccak256(\n        \"EIP712Domain(string name,string version,bytes32 metachainId,address verifyingContract)\"\n    );\n\n    /** EIP-712 type hash for Kernel. */\n    bytes32 public constant KERNEL_TYPEHASH = keccak256(\n        \"Kernel(uint256 height,bytes32 parent,address[] updatedValidators,uint256[] updatedReputation,uint256 gasTarget,uint256 gasPrice)\"\n    );\n\n    /** EIP-712 type hash for a Transition. */\n    bytes32 public constant TRANSITION_TYPEHASH = keccak256(\n        \"Transition(bytes32 kernelHash,bytes32 originObservation,uint256 dynasty,uint256 accumulatedGas,bytes32 committeeLock)\"\n    );\n\n    /** Sentinel pointer for marking end of linked-list of proposals */\n    bytes32 public constant SENTINEL_PROPOSALS = bytes32(0xffffffffffffffffffffffffffffffffffffffffffffffffffffffffffffffff);\n\n    /** Maximum validators that can join or logout in one metablock */\n    uint256 public constant MAX_DELTA_VALIDATORS = uint256(10);\n\n    /**\n     * Define a super-majority fraction used for reaching consensus;\n     */\n    uint256 public constant CORE_SUPER_MAJORITY_NUMERATOR = uint256(2);\n    uint256 public constant CORE_SUPER_MAJORITY_DENOMINATOR = uint256(3);\n\n    /** For open metablocks the voting window is reset to future infinity */\n    uint256 public constant CORE_OPEN_VOTES_WINDOW = uint256(0xffffffffffffffffffffffffffffffffffffffffffffffffffffffffffffffff);\n\n    /** Closing window for reporting last votes on precommitment */\n    uint256 public constant CORE_LAST_VOTES_WINDOW = uint256(3);\n\n    /** Domain separator */\n    bytes32 public domainSeparator;\n\n    /** Metachain Id of the meta-blockchain */\n    bytes32 public metachainId;\n\n    /** Core status */\n    CoreStatus public coreStatus;\n\n    /** Epoch length */\n    uint256 public epochLength;\n\n    /** mapping of metablock height to Kernels */\n    mapping(uint256 => Kernel) public kernels;\n\n    /** Validator count in core */\n    uint256 public countValidators;\n\n    /** Validator minimum count required set by consensus */\n    uint256 public minimumValidatorCount;\n\n    /** Join limit for validators */\n    uint256 public joinLimit;\n\n    /** Quorum needed for valid proposal */\n    uint256 public quorum;\n\n    /** Count of join messages */\n    uint256 public countJoinMessages;\n\n    /** Count of log out messages */\n    uint256 public countLogOutMessages;\n\n    /** Reputation contract */\n    ReputationInterface public reputation;\n\n    /** Creation kernel height */\n    uint256 public creationKernelHeight;\n\n    /** Open kernel height */\n    uint256 public openKernelHeight;\n\n    /** Open kernel hash */\n    bytes32 public openKernelHash;\n\n    /** Committed accumulated gas */\n    uint256 public committedAccumulatedGas;\n\n    /** Committed dynasty number */\n    uint256 public committedDynasty;\n\n    /** Committed sourceBlockNumber */\n    uint256 public committedSourceBlockNumber;\n\n    /** Map kernel height to linked list of proposals */\n    mapping(uint256 => mapping(bytes32 => bytes32)) proposals;\n\n    /** Map proposal hash to VoteCount struct */\n    mapping(bytes32 => VoteCount) public voteCounts;\n\n    /** Map validator to proposal hash */\n    mapping(address => bytes32) public votes;\n\n    /** Precommitment to a proposal */\n    bytes32 public precommit;\n\n    /** Precommitment closure block number */\n    uint256 public precommitClosureBlockNumber;\n\n    /**\n     * Block number at which core status is changed from creation to opened.\n     * The initial validators are now known and they can create the genesis file.\n     */\n    uint256 public genesisOriginObservationBlockNumber;\n\n\n    /* Modifiers */\n\n    modifier beforeOpen()\n    {\n        require(\n            coreStatus == CoreStatus.created,\n            \"The core must be created.\"\n        );\n        _;\n    }\n\n    modifier whileRunning()\n    {\n        require(\n            coreStatus == CoreStatus.opened ||\n            coreStatus == CoreStatus.precommitted,\n            \"The core must be running.\"\n        );\n        _;\n    }\n\n    modifier whileMetablockOpen()\n    {\n        require(\n            coreStatus == CoreStatus.opened,\n            \"The core must have an open metablock kernel.\"\n        );\n        _;\n    }\n\n    modifier whileMetablockPrecommitted()\n    {\n        require(\n            coreStatus == CoreStatus.precommitted,\n            \"The core must be precommitted.\"\n        );\n        _;\n    }\n\n    modifier duringPrecommitmentWindow()\n    {\n        require(\n            block.number <= precommitClosureBlockNumber,\n            \"The precommitment window must be open.\"\n        );\n        _;\n    }\n\n\n    /* Special Functions */\n\n    function setup(\n        ConsensusInterface _consensus,\n        bytes32 _metachainId,\n        uint256 _epochLength,\n        uint256 _minValidators,\n        uint256 _joinLimit,\n        ReputationInterface _reputation,\n        uint256 _height,\n        bytes32 _parent,\n        uint256 _gasTarget,\n        uint256 _dynasty,\n        uint256 _accumulatedGas,\n        uint256 _sourceBlockNumber\n    )\n        external\n    {\n        require(\n            metachainId == bytes32(0),\n            \"Core is already setup.\"\n        );\n\n        require(\n            _metachainId != bytes32(0),\n            \"Metachain id is 0.\"\n        );\n\n        require(\n            _epochLength != uint256(0),\n            \"Epoch length is 0.\"\n        );\n\n        require(\n            _minValidators != uint256(0),\n            \"Min validators count is 0.\"\n        );\n\n        require(\n            _joinLimit != uint256(0),\n            \"Validator's join limit is 0.\"\n        );\n\n        require(\n            _reputation != ReputationInterface(0),\n            \"Reputation contract's address is null.\"\n        );\n\n        domainSeparator = keccak256(\n            abi.encode(\n                DOMAIN_SEPARATOR_TYPEHASH,\n                DOMAIN_SEPARATOR_NAME,\n                DOMAIN_SEPARATOR_VERSION,\n                _metachainId,\n                address(this)\n            )\n        );\n\n        setupConsensus(_consensus);\n\n        setupValidatorSet(_height);\n\n        coreStatus = CoreStatus.created;\n\n        epochLength = _epochLength;\n\n        reputation = _reputation;\n\n        minimumValidatorCount = _minValidators;\n        joinLimit = _joinLimit;\n\n        creationKernelHeight = _height;\n        openKernelHeight = _height;\n\n        Kernel storage creationKernel = kernels[_height];\n        creationKernel.parent = _parent;\n        creationKernel.gasTarget = _gasTarget;\n        // before the Kernel can be opened, initial validators need to join\n\n        committedDynasty = _dynasty;\n        committedAccumulatedGas = _accumulatedGas;\n        committedSourceBlockNumber = _sourceBlockNumber;\n\n        emit CoreStatusUpdated(coreStatus);\n    }\n\n\n    /* External and public functions */\n\n    /**\n     * @notice Propose transition object and vote message from seal\n     *         for the open kernel.\n     *\n     * @dev Function requires:\n     *          - core is opened\n     *          - the given kernel hash matches to the opened kernel hash in core\n     *          - origin observation is not 0\n     *          - dynasty is strictly greater than committed dynasty\n     *          - accumulated gas is strictly greater than committed\n     *            accumulated gas\n     *          - committee lock (transition root hash) is not 0\n     *          - source blockhash is not 0\n     *          - target blockhash is not 0\n     *          - source block number is strictly greater than committed\n     *            block number\n     *          - source block number is a checkpoint\n     *          - target block number is +1 epoch of the source block number\n     *          - a proposal matching with the input parameters does\n     *            not exist in the core\n     *\n     * @param _kernelHash Kernel hash of a proposed metablock.\n     * @param _originObservation Origin observation of a proposed metablock.\n     * @param _dynasty Dynasty of a proposed metablock.\n     * @param _accumulatedGas Accumulated gas in a proposed metablock.\n     * @param _committeeLock Committee lock (transition root hash) of a proposed\n     *                       metablock.\n     * @param _source Source blockhash of a vote message for a proposed metablock.\n     * @param _target Target blockhash of a vote message for a proposed metablock.\n     * @param _sourceBlockNumber Source block number of a vote message for a\n     *                           proposed metablock.\n     * @param _targetBlockNumber Target block number of a vote message for a\n     *                           proposed metablock.\n     *\n     * @return proposal_ Returns a proposal based on input parameters.\n     */\n    function proposeMetablock(\n        bytes32 _kernelHash,\n        bytes32 _originObservation,\n        uint256 _dynasty,\n        uint256 _accumulatedGas,\n        bytes32 _committeeLock,\n        bytes32 _source,\n        bytes32 _target,\n        uint256 _sourceBlockNumber,\n        uint256 _targetBlockNumber\n    )\n        external\n        whileMetablockOpen\n        returns (bytes32 proposal_)\n    {\n        require(\n            _kernelHash == openKernelHash,\n            \"A metablock can only be proposed for the open Kernel in this core.\"\n        );\n        require(\n            _originObservation != bytes32(0),\n            \"Origin observation cannot be null.\"\n        );\n        require(\n            _dynasty > committedDynasty,\n            \"Dynasty must strictly increase.\"\n        );\n        require(\n            _accumulatedGas > committedAccumulatedGas,\n            \"Accumulated gas must strictly increase.\"\n        );\n        require(\n            _committeeLock != bytes32(0),\n            \"Committee lock cannot be null.\"\n        );\n        require(\n            _source != bytes32(0),\n            \"Source blockhash must not be null.\"\n        );\n        require(\n            _target != bytes32(0),\n            \"Target blockhash must not be null.\"\n        );\n        require(\n            _sourceBlockNumber > committedSourceBlockNumber,\n            \"Source block number must strictly increase.\"\n        );\n        require(\n            (_sourceBlockNumber % epochLength) == 0,\n            \"Source block number must be a checkpoint.\"\n        );\n        require(\n            _targetBlockNumber == _sourceBlockNumber.add(epochLength),\n            \"Target block number must equal source block number plus one.\"\n        );\n\n        bytes32 transitionHash = hashTransition(\n            _kernelHash,\n            _originObservation,\n            _dynasty,\n            _accumulatedGas,\n            _committeeLock\n        );\n\n        proposal_ = VoteMessage.hashVoteMessage(\n            domainSeparator,\n            transitionHash,\n            _source,\n            _target,\n            _sourceBlockNumber,\n            _targetBlockNumber\n        );\n\n        // insert proposal, reverts if proposal already inserted\n        insertProposal(_dynasty, proposal_);\n\n        emit MetablockProposed(proposal_);\n    }\n\n    /**\n     * @notice Registers a validator's vote for the given proposal.\n     *         If the validator has already registered a vote for currently\n     *         opened kernel height, it gets updated (only if dynasty number\n     *         of the new vote is higher then the previous one).\n     *\n     * @dev Function requires:\n     *          - core is in precommitment window\n     *          - proposal is not 0\n     *          - if core has precommitted, the given proposal matches with it\n     *          - proposal exists at open kernel height\n     *          - validator active in this core\n     *          - validator should not be slashed in reputation contract\n     *          - validator has not already cast the same vote\n     *          - vote gets updated only if the new vote is at higher dynasty\n     */\n    function registerVote(\n        bytes32 _proposal,\n        bytes32 _r,\n        bytes32 _s,\n        uint8 _v\n    )\n        external\n        duringPrecommitmentWindow\n    {\n        require(\n            _proposal != bytes32(0),\n            \"Proposal can not be null.\"\n        );\n        if (precommit != bytes32(0)) {\n            require(\n                _proposal == precommit,\n                \"Core has precommitted, only votes for precommitment are relevant.\"\n            );\n        }\n\n        require(\n            proposals[openKernelHeight][_proposal] != bytes32(0),\n            \"Proposal must be registered at open metablock height.\"\n        );\n\n        address validator = ecrecover(_proposal, _v, _r, _s);\n        // check validator is registered to this core\n        require(\n            isValidator(validator),\n            \"Validator must be active in this core.\"\n        );\n        require(\n            !reputation.isSlashed(validator),\n            \"Validator is slashed.\"\n        );\n\n        bytes32 castVote = votes[validator];\n        require(\n            castVote != _proposal,\n            \"Vote has already been cast.\"\n        );\n\n        VoteCount storage castVoteCount = voteCounts[castVote];\n        VoteCount storage registerVoteCount = voteCounts[_proposal];\n        if (castVoteCount.count != 0 && castVoteCount.height == openKernelHeight) {\n            require(\n                castVoteCount.dynasty < registerVoteCount.dynasty,\n                \"Vote can only be recast for higher dynasty numbers.\"\n            );\n            castVoteCount.count = castVoteCount.count.sub(1);\n        }\n        votes[validator] = _proposal;\n        registerVoteCount.count = registerVoteCount.count.add(1);\n        if (registerVoteCount.count >= quorum) {\n            registerPrecommit(_proposal);\n        }\n    }\n\n    /**\n     * @notice Hashes given parameters of a metablock.\n     *\n     * @param _kernelHash Kernel hash of a provided metablock.\n     * @param _originObservation Origin observation of a provided metablock.\n     * @param _dynasty Dynasty of a provided metablock.\n     * @param _accumulatedGas Accumulated gas in a provided metablock.\n     * @param _committeeLock Committee lock (transition root hash) of a provided\n     *                       metablock.\n     * @param _source Source blockhash of a vote message for a\n     *                provided metablock.\n     * @param _target Target blockhash of a vote message for a\n     *                provided metablock.\n     * @param _sourceBlockNumber Source block number of a vote message for a\n     *                           provided metablock.\n     * @param _targetBlockNumber Target block number of a vote message for a\n     *                           provided metablock.\n     *\n     * @return The precommit's hash.\n     */\n    function hashMetablock(\n        bytes32 _kernelHash,\n        bytes32 _originObservation,\n        uint256 _dynasty,\n        uint256 _accumulatedGas,\n        bytes32 _committeeLock,\n        bytes32 _source,\n        bytes32 _target,\n        uint256 _sourceBlockNumber,\n        uint256 _targetBlockNumber\n    )\n        public\n        view\n        returns (bytes32 metablockHash_)\n    {\n        bytes32 transitionHash = hashTransition(\n            _kernelHash,\n            _originObservation,\n            _dynasty,\n            _accumulatedGas,\n            _committeeLock\n        );\n\n        metablockHash_ = VoteMessage.hashVoteMessage(\n            domainSeparator,\n            transitionHash,\n            _source,\n            _target,\n            _sourceBlockNumber,\n            _targetBlockNumber\n        );\n    }\n\n    /**\n     * @notice Opens a new metablock if a proposal is precommitted.\n     *\n     * @dev Function requires:\n     *          - core has precommitted\n     *          - only consensus can call\n     *          - input parameters match to an open metablock\n     *\n     * @param _committedDynasty Dynasty of an open metablock.\n     * @param _committedAccumulatedGas Accumulated gas in an open metablock.\n     * @param _committedSourceBlockNumber Source block number of a vote message\n     *                                    for an open metablock.\n     * @param _deltaGasTarget Gas target delta for a new metablock.\n     */\n    function openMetablock(\n        uint256 _committedDynasty,\n        uint256 _committedAccumulatedGas,\n        uint256 _committedSourceBlockNumber,\n        uint256 _deltaGasTarget\n    )\n        external\n        onlyConsensus\n        whileMetablockPrecommitted\n    {\n        assert(precommit != bytes32(0));\n\n        committedDynasty = _committedDynasty;\n        committedAccumulatedGas = _committedAccumulatedGas;\n        committedSourceBlockNumber = _committedSourceBlockNumber;\n\n        uint256 nextKernelHeight = openKernelHeight.add(1);\n        Kernel storage nextKernel = kernels[nextKernelHeight];\n        nextKernel.parent = precommit;\n        nextKernel.gasTarget = committedAccumulatedGas\n            .add(_deltaGasTarget);\n        // updated validators are already written to nextKernel\n\n        openKernelHeight = nextKernelHeight;\n\n        openKernelHash = hashKernel(\n            nextKernelHeight,\n            nextKernel.parent,\n            nextKernel.updatedValidators,\n            nextKernel.updatedReputation,\n            nextKernel.gasTarget\n        );\n\n        countValidators = countValidators\n            .add(countJoinMessages)\n            .sub(countLogOutMessages);\n        quorum = calculateQuorum(countValidators);\n        countJoinMessages = 0;\n        countLogOutMessages = 0;\n\n        newProposalSet();\n    }\n\n    /**\n     * @notice Remove vote can be called by consensus when a validator\n     *         is slashed, to retro-actively remove the vote from the\n     *         current open metablock.\n     *\n     * @dev Function requires:\n     *          - only consensus can call\n     *          - core is in running state\n     *\n     * @param _validator Address of a validator to remove a vote.\n     */\n    function removeVote(\n        address _validator\n    )\n        external\n        onlyConsensus\n        whileRunning\n    {\n        bytes32 castVote = votes[_validator];\n        VoteCount storage castVoteCount = voteCounts[castVote];\n        if (castVoteCount.height == openKernelHeight) {\n            delete votes[_validator];\n            castVoteCount.count = castVoteCount.count.sub(1);\n        }\n    }\n\n    /**\n     * @notice Joins a validator before core is opened.\n     *         Once the minimum number of validators has joined, core is opened,\n     *         with the metablock parameters specified in the constructor.\n     *\n     * @dev Function requires:\n     *          - only consensus can call\n     *          - core is created state and not open\n     *          - a validator's address is not null\n     *          - a validator has not already joined\n     *\n     * @param _validator A validator's address to join.\n     *\n     * @return validatorCount_ The total count of validators.\n     * @return minValidatorCount_ Minimum validator count required set by consensus.\n     * @return beginHeight_ Begin height of validator.\n     */\n    function joinBeforeOpen(\n        address _validator\n    )\n        external\n        onlyConsensus\n        beforeOpen\n        returns (\n            uint256 validatorCount_,\n            uint256 minValidatorCount_,\n            uint256 beginHeight_\n        )\n    {\n        require(\n            _validator != address(0),\n            \"Validator must not be null address.\"\n        );\n        require(\n            validatorEndHeight[_validator] == 0,\n            \"Validator must not already be part of this core.\"\n        );\n\n        // during created state, validators join at creation kernel height\n        insertValidatorInternal(_validator, creationKernelHeight);\n\n        Kernel storage creationKernel = kernels[creationKernelHeight];\n        countValidators = creationKernel.updatedValidators.push(_validator);\n        // TASK: reputation can be uint64, and initial rep set properly\n        creationKernel.updatedReputation.push(uint256(1));\n        if (countValidators >= minimumValidatorCount) {\n            assert(countValidators == minimumValidatorCount);\n            quorum = calculateQuorum(countValidators);\n            precommitClosureBlockNumber = CORE_OPEN_VOTES_WINDOW;\n            openKernelHash = hashKernel(\n                creationKernelHeight,\n                creationKernel.parent,\n                creationKernel.updatedValidators,\n                creationKernel.updatedReputation,\n                creationKernel.gasTarget\n            );\n            genesisOriginObservationBlockNumber = block.number;\n            // with the initial validator set determined, move the active height for joining up.\n            ValidatorSet.incrementActiveHeightInternal(creationKernelHeight.add(1));\n            emit GenesisOriginObservationStored(genesisOriginObservationBlockNumber);\n\n            coreStatus = CoreStatus.opened;\n            emit CoreStatusUpdated(coreStatus);\n\n            newProposalSet();\n        }\n\n        // TODO (ben): clean up redundant variables\n        validatorCount_ = countValidators;\n        minValidatorCount_ = minimumValidatorCount;\n        beginHeight_ = creationKernelHeight;\n    }\n\n    /**\n     * @notice Joins a validator.\n     *\n     * @dev Function requires:\n     *          - only consensus can call\n     *          - core is in a running state\n     *          - validators' join limit for the core has not been reached\n     *          - maximum number of validators to join in a single metablock\n     *            has not been reached\n     *          - given validator address is not 0\n     *          - validator has not joined\n     *\n     * @param _validator Address of a validator to join.\n     *\n     * @return beginHeight_ Begin height of the validator\n     */\n    function join(address _validator)\n        external\n        onlyConsensus\n        whileRunning\n        returns (uint256 beginHeight_)\n    {\n        require(\n            _validator != address(0),\n            \"Validator must not be null address.\"\n        );\n        require(\n            validatorEndHeight[_validator] == 0,\n            \"Validator must not already be part of this core.\"\n        );\n        require(\n            countValidators\n            .add(countJoinMessages)\n            .sub(countLogOutMessages) < joinLimit,\n            \"Join limit is reached for this core.\"\n        );\n        require(\n            countJoinMessages < MAX_DELTA_VALIDATORS,\n            \"Maximum number of validators that can join in one metablock is reached.\"\n        );\n\n        countJoinMessages = countJoinMessages.add(1);\n\n        uint256 nextKernelHeight = openKernelHeight.add(1);\n\n        // insertValidatorInternal asserts validator cannot join twice\n        // insert validator starting from next metablock height\n        insertValidatorInternal(_validator, nextKernelHeight);\n        Kernel storage nextKernel = kernels[nextKernelHeight];\n        nextKernel.updatedValidators.push(_validator);\n        // TASK: reputation can be uint64, and initial rep set properly.\n        nextKernel.updatedReputation.push(uint256(1));\n\n        beginHeight_ = nextKernelHeight;\n    }\n\n    /**\n     * @notice Logs out the validator.\n     *\n     * @dev Function requires:\n     *          - only consensus can call\n     *          - core is in a running state\n     *          - validators' minimum limit has not been reached\n     *          - maximum number of validators to logout in a single metablock\n     *            has not been reached\n     *          - given validator address is not 0\n     *          - validator has joined\n     *\n     * @param _validator An address of the validator to logout.\n     *\n     * @return nextKernelHeight_ Next kernel height.\n     */\n    function logout(address _validator)\n        external\n        onlyConsensus\n        whileRunning\n        returns (uint256 nextKernelHeight_)\n    {\n        require(\n            _validator != address(0),\n            \"Validator must not be null address.\"\n        );\n        require(\n            validatorBeginHeight[_validator] <= openKernelHeight,\n            \"Validator must have begun.\"\n        );\n        require(\n            validatorEndHeight[_validator] == MAX_FUTURE_END_HEIGHT,\n            \"Validator must be active.\"\n        );\n        require(\n            countValidators\n            .add(countJoinMessages)\n            .sub(countLogOutMessages) > minimumValidatorCount,\n            \"Validator minimum limit reached.\"\n        );\n        require(\n            countLogOutMessages < MAX_DELTA_VALIDATORS,\n            \"Maximum number of validators that can log out in one metablock is reached.\"\n        );\n\n        nextKernelHeight_ = openKernelHeight.add(1);\n\n        // removeValidatorInternal() asserts validator is currently in the\n        // validator set and not already logged out.\n        // Removes validator from next metablock height.\n        removeValidatorInternal(_validator, nextKernelHeight_);\n\n        Kernel storage nextKernel = kernels[nextKernelHeight_];\n        nextKernel.updatedValidators.push(_validator);\n        nextKernel.updatedReputation.push(uint256(0));\n\n        countLogOutMessages = countLogOutMessages.add(1);\n    }\n\n    /**\n     * It returns open kernel hash and height.\n     *\n     * @return Metablock's openKernelHash and openKernelHeight.\n     */\n    function getOpenKernel()\n        external\n        returns(bytes32 openKernelHash_, uint256 openKernelHeight_)\n    {\n        openKernelHash_ = openKernelHash;\n        openKernelHeight_ = openKernelHeight;\n    }\n\n\n    /* Public functions */\n\n    /**\n     * @notice Validator is active if it is validator set at open kernel height.\n     */\n    function isValidator(address _account)\n        public\n        view\n        returns (bool)\n    {\n        return inValidatorSet(_account, openKernelHeight);\n    }\n\n    function calculateQuorum(uint256 _count)\n        public\n        pure\n        returns (uint256 quorum_)\n    {\n        quorum_ = _count\n            .mul(CORE_SUPER_MAJORITY_NUMERATOR)\n            .div(CORE_SUPER_MAJORITY_DENOMINATOR);\n    }\n\n\n    /* Internal and private functions */\n\n    /**\n     * @notice Precommits to a given proposal and lock core validators\n     *         to associated responsibility.\n     */\n    function registerPrecommit(bytes32 _proposal)\n        internal\n    {\n        require(\n            precommit == bytes32(0) || precommit == _proposal,\n            \"Once locked, precommit cannot be changed.\"\n        );\n\n        if (coreStatus == CoreStatus.opened) {\n            coreStatus = CoreStatus.precommitted;\n            precommit = _proposal;\n            precommitClosureBlockNumber = block.number.add(CORE_LAST_VOTES_WINDOW);\n            consensus.precommitMetablock(metachainId, openKernelHeight, _proposal);\n\n            emit CoreStatusUpdated(coreStatus);\n        }\n    }\n\n    /**\n     * @notice Starts new linked list for proposals at open kernel height.\n     */\n    function newProposalSet()\n        internal\n    {\n        assert(proposals[openKernelHeight][SENTINEL_PROPOSALS] == bytes32(0));\n        proposals[openKernelHeight][SENTINEL_PROPOSALS] = SENTINEL_PROPOSALS;\n    }\n\n    /**\n     * @notice Inserts a proposal.\n     *\n     * @dev Function requires:\n     *          - proposal hash is not 0\n     *          - proposal does not exist\n     *          - proposal is not a sentinel proposal\n     *\n     * @param _dynasty Dynasty of a metablock of a proposal.\n     * @param _proposal Proposal hash.\n     */\n    function insertProposal(\n        uint256 _dynasty,\n        bytes32 _proposal\n    )\n        internal\n    {\n        // note: redundant because we always calculate the proposal hash\n        require(\n            _proposal != bytes32(0),\n            \"Proposal must not be null.\"\n        );\n        require(\n            _proposal != SENTINEL_PROPOSALS,\n            \"Proposal must not be sentinel for proposals.\"\n        );\n        require(\n            proposals[openKernelHeight][_proposal] == bytes32(0),\n            \"Proposal can only be inserted once.\"\n        );\n\n        VoteCount storage voteCount = voteCounts[_proposal];\n\n        // vote registered for open kernel\n        voteCount.height = openKernelHeight;\n        // register dynasty of transition\n        voteCount.dynasty = _dynasty;\n        // vote count is zero\n        voteCount.count = 0;\n\n        proposals[openKernelHeight][_proposal] = proposals[openKernelHeight][SENTINEL_PROPOSALS];\n        proposals[openKernelHeight][SENTINEL_PROPOSALS] = _proposal;\n    }\n\n    /**\n     * @notice Clean proposals.\n     *\n     * note: improve logic, to be done partially in case too much gas needed\n     *       double-check if logic is correct.\n     */\n    function cleanProposals(uint256 _height)\n        internal\n    {\n        require(\n            _height < openKernelHeight,\n            \"Only proposals of older kernels can be cleaned out.\"\n        );\n        bytes32 currentProposal = proposals[_height][SENTINEL_PROPOSALS];\n        bytes32 deleteProposal = SENTINEL_PROPOSALS;\n        require(\n            currentProposal != bytes32(0),\n            \"There are no proposals to clear out.\"\n        );\n        while (currentProposal != SENTINEL_PROPOSALS) {\n            delete proposals[_height][deleteProposal];\n            delete voteCounts[deleteProposal];\n            deleteProposal = currentProposal;\n            currentProposal = proposals[_height][currentProposal];\n        }\n        delete proposals[_height][deleteProposal];\n        delete voteCounts[deleteProposal];\n    }\n\n    /**\n     * @notice Takes the parameters of a kernel object and returns the\n     *         typed hash of it.\n     *\n     * @param _height The height of meta-block.\n     * @param _parent The hash of this block's parent.\n     * @param _updatedValidators  The array of addresses of the updated validators.\n     * @param _updatedReputation The array of reputation that corresponds to\n     *                        the updated validators.\n     * @param _gasTarget The gas target for this metablock\n     *\n     * @return hash_ The hash of kernel.\n     */\n    function hashKernel(\n        uint256 _height,\n        bytes32 _parent,\n        address[] memory _updatedValidators,\n        uint256[] memory _updatedReputation,\n        uint256 _gasTarget\n    )\n        public\n        view\n        returns (bytes32 hash_)\n    {\n        bytes32 typedKernelHash = keccak256(\n            abi.encode(\n                KERNEL_TYPEHASH,\n                _height,\n                _parent,\n                _updatedValidators,\n                _updatedReputation,\n                _gasTarget\n            )\n        );\n\n        hash_ = keccak256(\n            abi.encodePacked(\n                byte(0x19),\n                byte(0x01),\n                domainSeparator,\n                typedKernelHash\n            )\n        );\n    }\n\n    /**\n     * @notice Takes the parameters of an transition object and returns the\n     *         typed hash of it.\n     *\n     * @param _kernelHash Kernel hash\n     * @param _originObservation Observation of the origin chain.\n     * @param _dynasty The dynasty number where the meta-block closes\n     *                 on the auxiliary chain.\n     * @param _accumulatedGas The total consumed gas on auxiliary within this\n     *                        meta-block.\n     * @param _committeeLock The committee lock that hashes the transaction\n     *                       root on the auxiliary chain.\n     * @return hash_ The hash of this transition object.\n     */\n    function hashTransition(\n        bytes32 _kernelHash,\n        bytes32 _originObservation,\n        uint256 _dynasty,\n        uint256 _accumulatedGas,\n        bytes32 _committeeLock\n    )\n        internal\n        view\n        returns (bytes32 hash_)\n    {\n        bytes32 typedTransitionHash = keccak256(\n            abi.encode(\n                TRANSITION_TYPEHASH,\n                _kernelHash,\n                _originObservation,\n                _dynasty,\n                _accumulatedGas,\n                _committeeLock\n            )\n        );\n\n        hash_ = keccak256(\n            abi.encodePacked(\n                byte(0x19),\n                byte(0x01),\n                domainSeparator,\n                typedTransitionHash\n            )\n        );\n    }\n}\n",
  "sourcePath": "/Users/abhay/Documents/projects/abhayforks/mosaic-1/contracts/core/Core.sol",
  "compiler": {
    "name": "solc",
    "version": "0.5.13+commit.5b0b510c.Emscripten.clang"
  },
  "schemaVersion": "3.0.17",
  "updatedAt": "2020-03-21T06:48:34.676Z",
  "devdoc": {
    "methods": {
      "forwardValidatorSetCount(uint256)": {
        "details": "Function requires:         - height is less than active height",
        "params": {
          "_height": "Height for which to return the forward validator set count."
        }
      },
      "getOpenKernel()": {
        "return": "Metablock's openKernelHash and openKernelHeight."
      },
      "hashKernel(uint256,bytes32,address[],uint256[],uint256)": {
        "params": {
          "_gasTarget": "The gas target for this metablock",
          "_height": "The height of meta-block.",
          "_parent": "The hash of this block's parent.",
          "_updatedReputation": "The array of reputation that corresponds to                       the updated validators.",
          "_updatedValidators": "The array of addresses of the updated validators."
        },
        "return": "hash_ The hash of kernel."
      },
      "hashMetablock(bytes32,bytes32,uint256,uint256,bytes32,bytes32,bytes32,uint256,uint256)": {
        "params": {
          "_accumulatedGas": "Accumulated gas in a provided metablock.",
          "_committeeLock": "Committee lock (transition root hash) of a provided                      metablock.",
          "_dynasty": "Dynasty of a provided metablock.",
          "_kernelHash": "Kernel hash of a provided metablock.",
          "_originObservation": "Origin observation of a provided metablock.",
          "_source": "Source blockhash of a vote message for a               provided metablock.",
          "_sourceBlockNumber": "Source block number of a vote message for a                          provided metablock.",
          "_target": "Target blockhash of a vote message for a               provided metablock.",
          "_targetBlockNumber": "Target block number of a vote message for a                          provided metablock."
        },
        "return": "The precommit's hash."
      },
      "inForwardValidatorSet(address,uint256)": {
        "params": {
          "_height": "Metablock height.",
          "_validator": "Address of validator."
        }
      },
      "inValidatorSet(address,uint256)": {
        "params": {
          "_height": "Metablock height.",
          "_validator": "Address of validator."
        }
      },
      "join(address)": {
        "details": "Function requires:         - only consensus can call         - core is in a running state         - validators' join limit for the core has not been reached         - maximum number of validators to join in a single metablock           has not been reached         - given validator address is not 0         - validator has not joined",
        "params": {
          "_validator": "Address of a validator to join."
        },
        "return": "beginHeight_ Begin height of the validator"
      },
      "joinBeforeOpen(address)": {
        "details": "Function requires:         - only consensus can call         - core is created state and not open         - a validator's address is not null         - a validator has not already joined",
        "params": {
          "_validator": "A validator's address to join."
        },
        "return": "validatorCount_ The total count of validators.minValidatorCount_ Minimum validator count required set by consensus.beginHeight_ Begin height of validator."
      },
      "logout(address)": {
        "details": "Function requires:         - only consensus can call         - core is in a running state         - validators' minimum limit has not been reached         - maximum number of validators to logout in a single metablock           has not been reached         - given validator address is not 0         - validator has joined",
        "params": {
          "_validator": "An address of the validator to logout."
        },
        "return": "nextKernelHeight_ Next kernel height."
      },
      "openMetablock(uint256,uint256,uint256,uint256)": {
        "details": "Function requires:         - core has precommitted         - only consensus can call         - input parameters match to an open metablock",
        "params": {
          "_committedAccumulatedGas": "Accumulated gas in an open metablock.",
          "_committedDynasty": "Dynasty of an open metablock.",
          "_committedSourceBlockNumber": "Source block number of a vote message                                   for an open metablock.",
          "_deltaGasTarget": "Gas target delta for a new metablock."
        }
      },
      "proposeMetablock(bytes32,bytes32,uint256,uint256,bytes32,bytes32,bytes32,uint256,uint256)": {
        "details": "Function requires:         - core is opened         - the given kernel hash matches to the opened kernel hash in core         - origin observation is not 0         - dynasty is strictly greater than committed dynasty         - accumulated gas is strictly greater than committed           accumulated gas         - committee lock (transition root hash) is not 0         - source blockhash is not 0         - target blockhash is not 0         - source block number is strictly greater than committed           block number         - source block number is a checkpoint         - target block number is +1 epoch of the source block number         - a proposal matching with the input parameters does           not exist in the core",
        "params": {
          "_accumulatedGas": "Accumulated gas in a proposed metablock.",
          "_committeeLock": "Committee lock (transition root hash) of a proposed                      metablock.",
          "_dynasty": "Dynasty of a proposed metablock.",
          "_kernelHash": "Kernel hash of a proposed metablock.",
          "_originObservation": "Origin observation of a proposed metablock.",
          "_source": "Source blockhash of a vote message for a proposed metablock.",
          "_sourceBlockNumber": "Source block number of a vote message for a                          proposed metablock.",
          "_target": "Target blockhash of a vote message for a proposed metablock.",
          "_targetBlockNumber": "Target block number of a vote message for a                          proposed metablock."
        },
        "return": "proposal_ Returns a proposal based on input parameters."
      },
      "registerVote(bytes32,bytes32,bytes32,uint8)": {
        "details": "Function requires:         - core is in precommitment window         - proposal is not 0         - if core has precommitted, the given proposal matches with it         - proposal exists at open kernel height         - validator active in this core         - validator should not be slashed in reputation contract         - validator has not already cast the same vote         - vote gets updated only if the new vote is at higher dynasty"
      },
      "removeVote(address)": {
        "details": "Function requires:         - only consensus can call         - core is in running state",
        "params": {
          "_validator": "Address of a validator to remove a vote."
        }
      },
      "validatorSetCount(uint256)": {
        "details": "Function requires:         - height is less than active height",
        "params": {
          "_height": "Height for which to return the validator set count."
        }
      }
    }
  },
  "userdoc": {
    "methods": {
      "forwardValidatorSetCount(uint256)": {
        "notice": "returns the forward validator set count for heights up to active height, but not included."
      },
      "getOpenKernel()": {
        "notice": "It returns open kernel hash and height."
      },
      "hashKernel(uint256,bytes32,address[],uint256[],uint256)": {
        "notice": "Takes the parameters of a kernel object and returns the        typed hash of it."
      },
      "hashMetablock(bytes32,bytes32,uint256,uint256,bytes32,bytes32,bytes32,uint256,uint256)": {
        "notice": "Hashes given parameters of a metablock."
      },
      "inForwardValidatorSet(address,uint256)": {
        "notice": "Checks if validator is in forward validator set or not."
      },
      "inValidatorSet(address,uint256)": {
        "notice": "Checks if validator is in validator set or not."
      },
      "isValidator(address)": {
        "notice": "Validator is active if it is validator set at open kernel height."
      },
      "join(address)": {
        "notice": "Joins a validator."
      },
      "joinBeforeOpen(address)": {
        "notice": "Joins a validator before core is opened.        Once the minimum number of validators has joined, core is opened,        with the metablock parameters specified in the constructor."
      },
      "logout(address)": {
        "notice": "Logs out the validator."
      },
      "openMetablock(uint256,uint256,uint256,uint256)": {
        "notice": "Opens a new metablock if a proposal is precommitted."
      },
      "proposeMetablock(bytes32,bytes32,uint256,uint256,bytes32,bytes32,bytes32,uint256,uint256)": {
        "notice": "Propose transition object and vote message from seal        for the open kernel."
      },
      "registerVote(bytes32,bytes32,bytes32,uint8)": {
        "notice": "Registers a validator's vote for the given proposal.        If the validator has already registered a vote for currently        opened kernel height, it gets updated (only if dynasty number        of the new vote is higher then the previous one)."
      },
      "removeVote(address)": {
        "notice": "Remove vote can be called by consensus when a validator        is slashed, to retro-actively remove the vote from the        current open metablock."
      },
      "validatorSetCount(uint256)": {
        "notice": "returns the validator set count for heights up to active height, but not included."
      }
    }
  }
}