{
  "contractName": "ERC20Cogateway",
  "abi": [
    {
      "anonymous": false,
      "inputs": [
        {
          "indexed": false,
          "internalType": "bytes32",
          "name": "messageHash",
          "type": "bytes32"
        }
      ],
      "name": "DepositIntentConfirmed",
      "type": "event"
    },
    {
      "anonymous": false,
      "inputs": [
        {
          "indexed": false,
          "internalType": "address",
          "name": "remoteGateway",
          "type": "address"
        },
        {
          "indexed": false,
          "internalType": "uint256",
          "name": "blockNumber",
          "type": "uint256"
        }
      ],
      "name": "GatewayProven",
      "type": "event"
    },
    {
      "anonymous": false,
      "inputs": [
        {
          "indexed": false,
          "internalType": "contract Proxy",
          "name": "proxy",
          "type": "address"
        }
      ],
      "name": "ProxyCreation",
      "type": "event"
    },
    {
      "anonymous": false,
      "inputs": [
        {
          "indexed": false,
          "internalType": "address",
          "name": "valueToken",
          "type": "address"
        },
        {
          "indexed": false,
          "internalType": "address",
          "name": "utilityToken",
          "type": "address"
        }
      ],
      "name": "UtilityTokenCreated",
      "type": "event"
    },
    {
      "anonymous": false,
      "inputs": [
        {
          "indexed": false,
          "internalType": "uint256",
          "name": "amount",
          "type": "uint256"
        },
        {
          "indexed": false,
          "internalType": "uint256",
          "name": "nonce",
          "type": "uint256"
        },
        {
          "indexed": false,
          "internalType": "address",
          "name": "beneficiary",
          "type": "address"
        },
        {
          "indexed": false,
          "internalType": "uint256",
          "name": "feeGasPrice",
          "type": "uint256"
        },
        {
          "indexed": false,
          "internalType": "uint256",
          "name": "feeGasLimit",
          "type": "uint256"
        },
        {
          "indexed": false,
          "internalType": "address",
          "name": "withdrawer",
          "type": "address"
        },
        {
          "indexed": false,
          "internalType": "address",
          "name": "utilityToken",
          "type": "address"
        },
        {
          "indexed": false,
          "internalType": "bytes32",
          "name": "messageHash",
          "type": "bytes32"
        }
      ],
      "name": "WithdrawIntentDeclared",
      "type": "event"
    },
    {
      "constant": true,
      "inputs": [],
      "name": "DEPOSIT_INTENT_TYPEHASH",
      "outputs": [
        {
          "internalType": "bytes32",
          "name": "",
          "type": "bytes32"
        }
      ],
      "payable": false,
      "stateMutability": "view",
      "type": "function"
    },
    {
      "constant": true,
      "inputs": [],
      "name": "DOMAIN_SEPARATOR_VERSION",
      "outputs": [
        {
          "internalType": "string",
          "name": "",
          "type": "string"
        }
      ],
      "payable": false,
      "stateMutability": "view",
      "type": "function"
    },
    {
      "constant": true,
      "inputs": [],
      "name": "INBOX_OFFSET",
      "outputs": [
        {
          "internalType": "uint8",
          "name": "",
          "type": "uint8"
        }
      ],
      "payable": false,
      "stateMutability": "view",
      "type": "function"
    },
    {
      "constant": true,
      "inputs": [],
      "name": "MESSAGE_TYPEHASH",
      "outputs": [
        {
          "internalType": "bytes32",
          "name": "",
          "type": "bytes32"
        }
      ],
      "payable": false,
      "stateMutability": "view",
      "type": "function"
    },
    {
      "constant": true,
      "inputs": [],
      "name": "MMB_CHANNEL_TYPEHASH",
      "outputs": [
        {
          "internalType": "bytes32",
          "name": "",
          "type": "bytes32"
        }
      ],
      "payable": false,
      "stateMutability": "view",
      "type": "function"
    },
    {
      "constant": true,
      "inputs": [],
      "name": "MMB_DOMAIN_SEPARATOR_NAME",
      "outputs": [
        {
          "internalType": "string",
          "name": "",
          "type": "string"
        }
      ],
      "payable": false,
      "stateMutability": "view",
      "type": "function"
    },
    {
      "constant": true,
      "inputs": [],
      "name": "MMB_DOMAIN_SEPARATOR_TYPEHASH",
      "outputs": [
        {
          "internalType": "bytes32",
          "name": "",
          "type": "bytes32"
        }
      ],
      "payable": false,
      "stateMutability": "view",
      "type": "function"
    },
    {
      "constant": true,
      "inputs": [],
      "name": "MMB_DOMAIN_SEPARATOR_VERSION",
      "outputs": [
        {
          "internalType": "string",
          "name": "",
          "type": "string"
        }
      ],
      "payable": false,
      "stateMutability": "view",
      "type": "function"
    },
    {
      "constant": true,
      "inputs": [],
      "name": "OUTBOX_OFFSET",
      "outputs": [
        {
          "internalType": "uint8",
          "name": "",
          "type": "uint8"
        }
      ],
      "payable": false,
      "stateMutability": "view",
      "type": "function"
    },
    {
      "constant": true,
      "inputs": [],
      "name": "UTILITY_TOKEN_SETUP_CALLPREFIX",
      "outputs": [
        {
          "internalType": "bytes4",
          "name": "",
          "type": "bytes4"
        }
      ],
      "payable": false,
      "stateMutability": "view",
      "type": "function"
    },
    {
      "constant": true,
      "inputs": [],
      "name": "WITHDRAW_INTENT_TYPEHASH",
      "outputs": [
        {
          "internalType": "bytes32",
          "name": "",
          "type": "bytes32"
        }
      ],
      "payable": false,
      "stateMutability": "view",
      "type": "function"
    },
    {
      "constant": true,
      "inputs": [],
      "name": "encodedAccountPath",
      "outputs": [
        {
          "internalType": "bytes",
          "name": "",
          "type": "bytes"
        }
      ],
      "payable": false,
      "stateMutability": "view",
      "type": "function"
    },
    {
      "constant": true,
      "inputs": [],
      "name": "genesisERC20Gateway",
      "outputs": [
        {
          "internalType": "address",
          "name": "",
          "type": "address"
        }
      ],
      "payable": false,
      "stateMutability": "view",
      "type": "function"
    },
    {
      "constant": true,
      "inputs": [],
      "name": "genesisMaxStorageRootItems",
      "outputs": [
        {
          "internalType": "uint256",
          "name": "",
          "type": "uint256"
        }
      ],
      "payable": false,
      "stateMutability": "view",
      "type": "function"
    },
    {
      "constant": true,
      "inputs": [],
      "name": "genesisMetachainId",
      "outputs": [
        {
          "internalType": "bytes32",
          "name": "",
          "type": "bytes32"
        }
      ],
      "payable": false,
      "stateMutability": "view",
      "type": "function"
    },
    {
      "constant": true,
      "inputs": [],
      "name": "genesisOutboxStorageIndex",
      "outputs": [
        {
          "internalType": "uint8",
          "name": "",
          "type": "uint8"
        }
      ],
      "payable": false,
      "stateMutability": "view",
      "type": "function"
    },
    {
      "constant": true,
      "inputs": [],
      "name": "genesisStateRootProvider",
      "outputs": [
        {
          "internalType": "address",
          "name": "",
          "type": "address"
        }
      ],
      "payable": false,
      "stateMutability": "view",
      "type": "function"
    },
    {
      "constant": true,
      "inputs": [],
      "name": "genesisUtilityTokenMastercopy",
      "outputs": [
        {
          "internalType": "address",
          "name": "",
          "type": "address"
        }
      ],
      "payable": false,
      "stateMutability": "view",
      "type": "function"
    },
    {
      "constant": true,
      "inputs": [
        {
          "internalType": "bytes32",
          "name": "_metachainId",
          "type": "bytes32"
        },
        {
          "internalType": "address",
          "name": "_outbox",
          "type": "address"
        },
        {
          "internalType": "address",
          "name": "_inbox",
          "type": "address"
        }
      ],
      "name": "hashChannelIdentifier",
      "outputs": [
        {
          "internalType": "bytes32",
          "name": "channelIdentifier_",
          "type": "bytes32"
        }
      ],
      "payable": false,
      "stateMutability": "pure",
      "type": "function"
    },
    {
      "constant": true,
      "inputs": [
        {
          "internalType": "address",
          "name": "_valueToken",
          "type": "address"
        },
        {
          "internalType": "uint256",
          "name": "_amount",
          "type": "uint256"
        },
        {
          "internalType": "address",
          "name": "_beneficiary",
          "type": "address"
        }
      ],
      "name": "hashDepositIntent",
      "outputs": [
        {
          "internalType": "bytes32",
          "name": "depositIntentHash_",
          "type": "bytes32"
        }
      ],
      "payable": false,
      "stateMutability": "pure",
      "type": "function"
    },
    {
      "constant": true,
      "inputs": [
        {
          "internalType": "address",
          "name": "_valueToken",
          "type": "address"
        },
        {
          "internalType": "address",
          "name": "_utilityToken",
          "type": "address"
        },
        {
          "internalType": "uint256",
          "name": "_amount",
          "type": "uint256"
        },
        {
          "internalType": "address",
          "name": "_beneficiary",
          "type": "address"
        }
      ],
      "name": "hashWithdrawIntent",
      "outputs": [
        {
          "internalType": "bytes32",
          "name": "withdrawIntentHash_",
          "type": "bytes32"
        }
      ],
      "payable": false,
      "stateMutability": "pure",
      "type": "function"
    },
    {
      "constant": true,
      "inputs": [],
      "name": "inboundChannelIdentifier",
      "outputs": [
        {
          "internalType": "bytes32",
          "name": "",
          "type": "bytes32"
        }
      ],
      "payable": false,
      "stateMutability": "view",
      "type": "function"
    },
    {
      "constant": true,
      "inputs": [
        {
          "internalType": "bytes32",
          "name": "",
          "type": "bytes32"
        }
      ],
      "name": "inbox",
      "outputs": [
        {
          "internalType": "bool",
          "name": "",
          "type": "bool"
        }
      ],
      "payable": false,
      "stateMutability": "view",
      "type": "function"
    },
    {
      "constant": true,
      "inputs": [
        {
          "internalType": "bytes32",
          "name": "_intentHash",
          "type": "bytes32"
        },
        {
          "internalType": "uint256",
          "name": "_nonce",
          "type": "uint256"
        },
        {
          "internalType": "uint256",
          "name": "_feeGasPrice",
          "type": "uint256"
        },
        {
          "internalType": "uint256",
          "name": "_feeGasLimit",
          "type": "uint256"
        },
        {
          "internalType": "address",
          "name": "_sender",
          "type": "address"
        }
      ],
      "name": "inboxMessageHash",
      "outputs": [
        {
          "internalType": "bytes32",
          "name": "messageHash_",
          "type": "bytes32"
        }
      ],
      "payable": false,
      "stateMutability": "view",
      "type": "function"
    },
    {
      "constant": true,
      "inputs": [
        {
          "internalType": "address",
          "name": "",
          "type": "address"
        }
      ],
      "name": "inboxNonces",
      "outputs": [
        {
          "internalType": "uint256",
          "name": "",
          "type": "uint256"
        }
      ],
      "payable": false,
      "stateMutability": "view",
      "type": "function"
    },
    {
      "constant": true,
      "inputs": [],
      "name": "messageInbox",
      "outputs": [
        {
          "internalType": "address",
          "name": "",
          "type": "address"
        }
      ],
      "payable": false,
      "stateMutability": "view",
      "type": "function"
    },
    {
      "constant": true,
      "inputs": [],
      "name": "messageOutbox",
      "outputs": [
        {
          "internalType": "address",
          "name": "",
          "type": "address"
        }
      ],
      "payable": false,
      "stateMutability": "view",
      "type": "function"
    },
    {
      "constant": true,
      "inputs": [],
      "name": "outboundChannelIdentifier",
      "outputs": [
        {
          "internalType": "bytes32",
          "name": "",
          "type": "bytes32"
        }
      ],
      "payable": false,
      "stateMutability": "view",
      "type": "function"
    },
    {
      "constant": true,
      "inputs": [
        {
          "internalType": "bytes32",
          "name": "",
          "type": "bytes32"
        }
      ],
      "name": "outbox",
      "outputs": [
        {
          "internalType": "bool",
          "name": "",
          "type": "bool"
        }
      ],
      "payable": false,
      "stateMutability": "view",
      "type": "function"
    },
    {
      "constant": true,
      "inputs": [
        {
          "internalType": "bytes32",
          "name": "_intentHash",
          "type": "bytes32"
        },
        {
          "internalType": "uint256",
          "name": "_nonce",
          "type": "uint256"
        },
        {
          "internalType": "uint256",
          "name": "_feeGasPrice",
          "type": "uint256"
        },
        {
          "internalType": "uint256",
          "name": "_feeGasLimit",
          "type": "uint256"
        },
        {
          "internalType": "address",
          "name": "_sender",
          "type": "address"
        }
      ],
      "name": "outboxMessageHash",
      "outputs": [
        {
          "internalType": "bytes32",
          "name": "messageHash_",
          "type": "bytes32"
        }
      ],
      "payable": false,
      "stateMutability": "view",
      "type": "function"
    },
    {
      "constant": true,
      "inputs": [
        {
          "internalType": "address",
          "name": "",
          "type": "address"
        }
      ],
      "name": "outboxNonces",
      "outputs": [
        {
          "internalType": "uint256",
          "name": "",
          "type": "uint256"
        }
      ],
      "payable": false,
      "stateMutability": "view",
      "type": "function"
    },
    {
      "constant": true,
      "inputs": [],
      "name": "outboxStorageIndex",
      "outputs": [
        {
          "internalType": "uint8",
          "name": "",
          "type": "uint8"
        }
      ],
      "payable": false,
      "stateMutability": "view",
      "type": "function"
    },
    {
      "constant": true,
      "inputs": [],
      "name": "stateRootProvider",
      "outputs": [
        {
          "internalType": "contract StateRootInterface",
          "name": "",
          "type": "address"
        }
      ],
      "payable": false,
      "stateMutability": "view",
      "type": "function"
    },
    {
      "constant": true,
      "inputs": [],
      "name": "storageAccount",
      "outputs": [
        {
          "internalType": "address",
          "name": "",
          "type": "address"
        }
      ],
      "payable": false,
      "stateMutability": "view",
      "type": "function"
    },
    {
      "constant": true,
      "inputs": [
        {
          "internalType": "uint256",
          "name": "",
          "type": "uint256"
        }
      ],
      "name": "storageRoots",
      "outputs": [
        {
          "internalType": "bytes32",
          "name": "",
          "type": "bytes32"
        }
      ],
      "payable": false,
      "stateMutability": "view",
      "type": "function"
    },
    {
      "constant": true,
      "inputs": [],
      "name": "utilityTokenMasterCopy",
      "outputs": [
        {
          "internalType": "address",
          "name": "",
          "type": "address"
        }
      ],
      "payable": false,
      "stateMutability": "view",
      "type": "function"
    },
    {
      "constant": true,
      "inputs": [
        {
          "internalType": "address",
          "name": "",
          "type": "address"
        }
      ],
      "name": "utilityTokens",
      "outputs": [
        {
          "internalType": "address",
          "name": "",
          "type": "address"
        }
      ],
      "payable": false,
      "stateMutability": "view",
      "type": "function"
    },
    {
      "constant": false,
      "inputs": [],
      "name": "setup",
      "outputs": [],
      "payable": false,
      "stateMutability": "nonpayable",
      "type": "function"
    },
    {
      "constant": false,
      "inputs": [
        {
          "internalType": "uint256",
          "name": "_blockNumber",
          "type": "uint256"
        },
        {
          "internalType": "bytes",
          "name": "_rlpAccount",
          "type": "bytes"
        },
        {
          "internalType": "bytes",
          "name": "_rlpParentNodes",
          "type": "bytes"
        }
      ],
      "name": "proveGateway",
      "outputs": [],
      "payable": false,
      "stateMutability": "nonpayable",
      "type": "function"
    },
    {
      "constant": true,
      "inputs": [],
      "name": "getRemoteGatewayLatestProvenBlockNumber",
      "outputs": [
        {
          "internalType": "uint256",
          "name": "blockNumber_",
          "type": "uint256"
        }
      ],
      "payable": false,
      "stateMutability": "view",
      "type": "function"
    },
    {
      "constant": false,
      "inputs": [
        {
          "internalType": "uint256",
          "name": "_amount",
          "type": "uint256"
        },
        {
          "internalType": "address",
          "name": "_beneficiary",
          "type": "address"
        },
        {
          "internalType": "uint256",
          "name": "_feeGasPrice",
          "type": "uint256"
        },
        {
          "internalType": "uint256",
          "name": "_feeGasLimit",
          "type": "uint256"
        },
        {
          "internalType": "contract UtilityTokenInterface",
          "name": "_utilityToken",
          "type": "address"
        }
      ],
      "name": "withdraw",
      "outputs": [
        {
          "internalType": "bytes32",
          "name": "messageHash_",
          "type": "bytes32"
        }
      ],
      "payable": false,
      "stateMutability": "nonpayable",
      "type": "function"
    },
    {
      "constant": false,
      "inputs": [
        {
          "internalType": "address",
          "name": "_valueToken",
          "type": "address"
        },
        {
          "internalType": "uint256",
          "name": "_amount",
          "type": "uint256"
        },
        {
          "internalType": "address payable",
          "name": "_beneficiary",
          "type": "address"
        },
        {
          "internalType": "uint256",
          "name": "_feeGasPrice",
          "type": "uint256"
        },
        {
          "internalType": "uint256",
          "name": "_feeGasLimit",
          "type": "uint256"
        },
        {
          "internalType": "address",
          "name": "_depositor",
          "type": "address"
        },
        {
          "internalType": "uint256",
          "name": "_blockNumber",
          "type": "uint256"
        },
        {
          "internalType": "bytes",
          "name": "_rlpParentNodes",
          "type": "bytes"
        }
      ],
      "name": "confirmDeposit",
      "outputs": [
        {
          "internalType": "bytes32",
          "name": "messageHash_",
          "type": "bytes32"
        }
      ],
      "payable": false,
      "stateMutability": "nonpayable",
      "type": "function"
    }
  ],
  "bytecode": "0x608060405234801561001057600080fd5b50613852806100206000396000f3fe60806040523480156200001157600080fd5b5060043610620002985760003560e01c80638be050381162000165578063c9a29f3c11620000d5578063efa9c7c91162000093578063efa9c7c91462000831578063efefe0eb146200083b578063f02a0e901462000845578063f0df1e73146200084f578063f732ecff1462000859578063fe08d81814620008635762000298565b8063c9a29f3c1462000774578063d31b596814620007b3578063d4d1118514620007dc578063ddd335eb14620007e6578063ec943dec14620008275762000298565b8063b1c91e211162000123578063b1c91e211462000736578063b4907ddc1462000736578063ba0bba401462000740578063bd362374146200074a578063c4fec67a146200076a5762000298565b80638be0503814620006d7578063928a735a14620006e1578063965ef01b14620006eb5780639f0b7dfe14620006f5578063ae640285146200072c5762000298565b80633eb3d9a3116200020d57806360cf858511620001cb57806360cf85851462000668578063610ebfe2146200067257806363630ae014620006925780636cf4053a146200069c57806373c61ff414620006c35780637ddcca1714620006cd5762000298565b80633eb3d9a314620005b457806346e356b114620005f7578063523ce24214620006015780635c1dc83a14620006355780635ecec564146200065e5762000298565b806321ea7ee1116200025b57806321ea7ee114620003f15780632f70e81814620004c55780632fe05ad914620004ee578063357d6c8514620004f85780633ad2268114620005aa5762000298565b806302de1ba9146200029d57806309bf5f3814620002e85780630e31eb60146200030857806316ad76b8146200034957806320e1855f14620003cb575b600080fd5b620002d660048036036060811015620002b557600080fd5b506001600160a01b038135811691602081013591604090910135166200086d565b60408051918252519081900360200190f35b620002f2620008d3565b6040805160ff9092168252519081900360200190f35b620002d6600480360360a08110156200032057600080fd5b50803590602081013590604081013590606081013590608001356001600160a01b0316620008e3565b6200035362000901565b6040805160208082528351818301528351919283929083019185019080838360005b838110156200038f57818101518382015260200162000375565b50505050905090810190601f168015620003bd5780820380516001836020036101000a031916815260200191505b509250505060405180910390f35b620003d562000993565b604080516001600160a01b039092168252519081900360200190f35b620004c3600480360360608110156200040957600080fd5b813591908101906040810160208201356401000000008111156200042c57600080fd5b8201836020820111156200043f57600080fd5b803590602001918460018302840111640100000000831117156200046257600080fd5b9193909290916020810190356401000000008111156200048157600080fd5b8201836020820111156200049457600080fd5b80359060200191846001830284011164010000000083111715620004b757600080fd5b509092509050620009a2565b005b620003d560048036036020811015620004dd57600080fd5b50356001600160a01b031662000a66565b620002d662000a81565b620002d660048036036101008110156200051157600080fd5b6001600160a01b038235811692602081013592604082013583169260608301359260808101359260a08201359092169160c08201359190810190610100810160e08201356401000000008111156200056857600080fd5b8201836020820111156200057b57600080fd5b803590602001918460018302840111640100000000831117156200059e57600080fd5b50909250905062000a9d565b620003d562000ded565b620002d6600480360360a0811015620005cc57600080fd5b508035906001600160a01b036020820135811691604081013591606082013591608001351662000e01565b620002d662001091565b62000621600480360360208110156200061957600080fd5b5035620010ad565b604080519115158252519081900360200190f35b620002d6600480360360208110156200064d57600080fd5b50356001600160a01b0316620010c2565b620002d6620010d4565b620002f2620010da565b620002d6600480360360208110156200068a57600080fd5b5035620010e3565b620003d5620010f5565b620006a662001104565b604080516001600160e01b03199092168252519081900360200190f35b620003d562001120565b620002d66200112f565b620003d562001140565b620002f26200114f565b620003d562001154565b620002d6600480360360608110156200070d57600080fd5b508035906001600160a01b036020820135811691604001351662001163565b620003536200132a565b6200035362001350565b620004c36200136d565b62000621600480360360208110156200076257600080fd5b5035620013df565b620002d6620013f4565b620002d6600480360360808110156200078c57600080fd5b506001600160a01b03813581169160208101358216916040820135916060013516620013fa565b620002d660048036036020811015620007cb57600080fd5b50356001600160a01b031662001467565b620003d562001479565b620002d6600480360360a0811015620007fe57600080fd5b50803590602081013590604081013590606081013590608001356001600160a01b031662001488565b620002d66200149c565b620002d6620014a2565b620003d5620014be565b620002d6620014cd565b620002d6620014d3565b620002d6620014ef565b620002f26200150b565b60006040518080620035d560449139604080519182900360440182206020808401919091526001600160a01b03978816838301526060830196909652959093166080808501919091528551808503909101815260a0909301909452508051910120919050565b601254600160a01b900460ff1681565b6000620008f7868686868660075462001510565b9695505050505050565b600e805460408051602060026001851615610100026000190190941693909304601f810184900484028201840190925281815292918301828280156200098b5780601f106200095f576101008083540402835291602001916200098b565b820191906000526020600020905b8154815290600101906020018083116200096d57829003601f168201915b505050505081565b600c546001600160a01b031681565b62000a188585858080601f01602080910402602001604051908101604052809392919081815260200183838082843760009201919091525050604080516020601f89018190048102820181019092528781529250879150869081908401838280828437600092019190915250620015c492505050565b600854604080516001600160a01b0390921682526020820187905280517fb73458fd9d18500409beead43bcd51b06626f19116a5e1f7a094d03e1b55538d9281900390910190a15050505050565b6015602052600090815260409020546001600160a01b031681565b604051806036620034f982396036019050604051809103902081565b6000805a90506001600160a01b038b1662000aea5760405162461bcd60e51b8152600401808060200182810382526022815260200180620037af6022913960400191505060405180910390fd5b8962000b3d576040805162461bcd60e51b815260206004820152601d60248201527f4465706f73697420616d6f756e74206d757374206e6f7420626520302e000000604482015290519081900360640190fd5b6001600160a01b03891662000b845760405162461bcd60e51b8152600401808060200182810382526022815260200180620035536022913960400191505060405180910390fd5b6001600160a01b03861662000be0576040805162461bcd60e51b815260206004820181905260248201527f4465706f7369746f722061646472657373206d757374206e6f7420626520302e604482015290519081900360640190fd5b600062000bed8c620015d6565b6001600160a01b03881660009081526013602052604090205490915062000c1c81600163ffffffff6200171416565b6001600160a01b03891660009081526013602052604090205562000c8862000c468e8e8e6200086d565b828c8c8c8c8c8c8080601f0160208091040260200160405190810160405280939291908181526020018383808284376000920191909152506200173092505050565b9350600062000cab62000ca35a869063ffffffff6200181316565b8c8c62001829565b9050600062000cc18e8363ffffffff6200181316565b604080516340c10f1960e01b81523360048201526024810185905290519192506001600160a01b038616916340c10f199160448082019260009290919082900301818387803b15801562000d1457600080fd5b505af115801562000d29573d6000803e3d6000fd5b50505050836001600160a01b03166340c10f198e836040518363ffffffff1660e01b815260040180836001600160a01b03166001600160a01b0316815260200182815260200192505050600060405180830381600087803b15801562000d8e57600080fd5b505af115801562000da3573d6000803e3d6000fd5b50506040805189815290517fc59b26ee33944690e53eadbee80f9b49dca067cd4978563dc4a6f5218cdb68219350908190036020019150a150505050509998505050505050505050565b60055461010090046001600160a01b031681565b60006001600160a01b03821662000e4a5760405162461bcd60e51b81526004018080602001828103825260248152602001806200367f6024913960400191505060405180910390fd5b6001600160a01b03851662000e915760405162461bcd60e51b8152600401808060200182810382526022815260200180620035536022913960400191505060405180910390fd5b62000ea3848463ffffffff6200186a16565b861162000ee25760405162461bcd60e51b8152600401808060200182810382526034815260200180620036196034913960400191505060405180910390fd5b6000826001600160a01b031663effff82f6040518163ffffffff1660e01b8152600401602060405180830381600087803b15801562000f2057600080fd5b505af115801562000f35573d6000803e3d6000fd5b505050506040513d602081101562000f4c57600080fd5b50519050600062000f6082858a8a620013fa565b3360009081526009602052604090205490915062000f8681600163ffffffff6200171416565b3360008181526009602052604090209190915562000fac90839083908a908a9062001895565b6040805163079cc67960e41b8152336004820152602481018c905290519195506001600160a01b038716916379cc67909160448082019260009290919082900301818387803b15801562000fff57600080fd5b505af115801562001014573d6000803e3d6000fd5b5050604080518c8152602081018590526001600160a01b03808d1682840152606082018c9052608082018b90523360a0830152891660c082015260e0810188905290517f976d81963620793952f53cff406abbbc8e1f613fac99ffe8a8b94f54c401caf0935090819003610100019150a150505095945050505050565b6040518060606200357582396060019050604051809103902081565b60066020526000908152604090205460ff1681565b60136020526000908152604090205481565b60115481565b60055460ff1681565b600f6020526000908152604090205481565b6002546001600160a01b031681565b6040518060326200364d82396032019050604051809103902081565b6003546001600160a01b031681565b60006200113b6200191e565b905090565b6014546001600160a01b031681565b600981565b6008546001600160a01b031681565b6000806040518080620034f960369139604080519182900360360182206020808401919091526001600160a01b0380891684840152871660608085019190915282518085039091018152608090930191829052825192019190912092509050806059620034a08239605901905060405180910390206040518060400160405280600a8152602001694d6f736169632d42757360b01b815250604051806040016040528060018152602001600360fc1b8152508784604051602001808681526020018060200180602001858152602001848152602001838103835287818151815260200191508051906020019080838360005b838110156200126f57818101518382015260200162001255565b50505050905090810190601f1680156200129d5780820380516001836020036101000a031916815260200191505b50838103825286518152865160209182019188019080838360005b83811015620012d2578181015183820152602001620012b8565b50505050905090810190601f168015620013005780820380516001836020036101000a031916815260200191505b50975050505050505050604051602081830303815290604052805190602001209150509392505050565b6040518060400160405280600a8152602001694d6f736169632d42757360b01b81525081565b604051806040016040528060018152602001600360fc1b81525081565b6001546002546200138891906001600160a01b031662001940565b600154600254600554600354600454620013b594936001600160a01b039081169360ff1692169062001a72565b600554601480546101009092046001600160a01b03166001600160a01b0319909216919091179055565b60106020526000908152604090205460ff1681565b60015481565b60006040518080620036c8605a91396040805191829003605a0182206020808401919091526001600160a01b0398891683830152968816606083015260808201959095529590921660a0808701919091528351808703909101815260c09095019092525050815191012090565b60096020526000908152604090205481565b600d546001600160a01b031681565b6000620008f7868686868660115462001510565b60045481565b604051806044620035d582396044019050604051809103902081565b6012546001600160a01b031681565b60075481565b60405180605a620036c88239605a019050604051809103902081565b604051806059620034a082396059019050604051809103902081565b600681565b600080604051808062003575606091396040805191829003606090810183206020808501919091528383019c909c52820199909952608081019790975250505060a08401929092526001600160a01b031660c0808401919091528351808403909101815260e083018452805190850120601960f81b610100840152604d60f81b6101018401526101028301919091526101228083019190915282518083039091018152610142909101909152805191012090565b620015d183838362001c03565b505050565b6001600160a01b0380821660009081526015602052604090205416806200170f57606060405180806200364d6032913960408051918290036032018220600060648401819052608484018190523060a48501526001600160a01b0380891660c486015260c0602486015260e48501829052610100604486015261012485019190915282518085036101440181526101649094019092526020830180516001600160e01b03166001600160e01b0319909216919091179052601454919350620016a19250168262001e54565b6001600160a01b0384811660008181526015602090815260409182902080546001600160a01b0319169486169485179055815192835282019290925281519294507fc2565f0ade5e0997b015f4c88815685f8900f048bc81e49f551f38239c97044c929081900390910190a1505b919050565b6000828201838110156200172757600080fd5b90505b92915050565b600062001744888888888860115462001510565b60008181526010602052604090205490915060ff1615620017975760405162461bcd60e51b8152600401808060200182810382526024815260200180620037646024913960400191505060405180910390fd5b6000818152601060205260409020805460ff19166001179055601254606090620017cc90600160a01b900460ff168362001efd565b60408051600160f81b602080830191909152825180830360010181526021909201909252805191012090915062001807908290868662001fdd565b50979650505050505050565b6000828211156200182357600080fd5b50900390565b6000818411156200184e5762001846838363ffffffff6200186a16565b905062001863565b62001860838563ffffffff6200186a16565b90505b9392505050565b6000826200187b575060006200172a565b828202828482816200188957fe5b04146200172757600080fd5b6000620018a9868686868660075462001510565b60008181526006602052604090205490915060ff1615620018fc5760405162461bcd60e51b8152600401808060200182810382526025815260200180620036a36025913960400191505060405180910390fd5b6000818152600660205260409020805460ff1916600117905595945050505050565b6000600a600b54815481106200193057fe5b9060005260206000200154905090565b6007541562001996576040805162461bcd60e51b815260206004820181905260248201527f4d657373616765206f7574626f7820697320616c72656164792073657475702e604482015290519081900360640190fd5b81620019de576040805162461bcd60e51b815260206004820152601260248201527126b2ba30b1b430b4b71034b21034b990181760711b604482015290519081900360640190fd5b6001600160a01b03811662001a3a576040805162461bcd60e51b815260206004820152601b60248201527f4d65737361676520696e626f78206164647265737320697320302e0000000000604482015290519081900360640190fd5b600880546001600160a01b0319166001600160a01b03838116919091179182905562001a6b91849130911662001163565b6007555050565b6011541562001ac8576040805162461bcd60e51b815260206004820152601f60248201527f4d65737361676520696e626f7820697320616c72656164792073657475702e00604482015290519081900360640190fd5b8462001b10576040805162461bcd60e51b815260206004820152601260248201527136b2ba30b1b430b4b71034b21034b990181760711b604482015290519081900360640190fd5b6001600160a01b03841662001b63576040805162461bcd60e51b815260206004820152601460248201527327baba3137bc1030b2323932b9b99034b990181760611b604482015290519081900360640190fd5b6001600160a01b03821662001baa5760405162461bcd60e51b8152600401808060200182810382526021815260200180620037436021913960400191505060405180910390fd5b601280546001600160a01b0319166001600160a01b038681169190911760ff60a01b1916600160a01b60ff871602179182905562001bec918791163062001163565b60115562001bfc848383620020de565b5050505050565b815162001c425760405162461bcd60e51b81526004018080602001828103825260248152602001806200352f6024913960400191505060405180910390fd5b805162001c96576040805162461bcd60e51b815260206004820152601f60248201527f4c656e677468206f6620524c5020706172656e74206e6f646573206973203000604482015290519081900360640190fd5b600d5460408051631870032760e31b81526004810186905290516000926001600160a01b03169163c3801938916024808301926020929190829003018186803b15801562001ce357600080fd5b505afa15801562001cf8573d6000803e3d6000fd5b505050506040513d602081101562001d0f57600080fd5b505190508062001d66576040805162461bcd60e51b815260206004820152601b60248201527f537461746520726f6f74206d757374206e6f74206265207a65726f0000000000604482015290519081900360640190fd5b6000848152600f60205260409020548062001bfc57600e805460408051602060026001851615610100026000190190941693909304601f810184900484028201840190925281815260009362001e1d9389938993929183018282801562001e115780601f1062001de55761010080835404028352916020019162001e11565b820191906000526020600020905b81548152906001019060200180831162001df357829003601f168201915b50505050508662002273565b6000878152600f6020526040812082905590915062001e3c876200239c565b6000908152600f602052604081205550505050505050565b60008260405162001e65906200323c565b6001600160a01b03909116815260405190819003602001906000f08015801562001e93573d6000803e3d6000fd5b5082519091501562001ebb5760008060008451602086016000865af1141562001ebb57600080fd5b604080516001600160a01b038316815290517fa38789425dbeee0239e16ff2d2567e31720127fbc6430758c1a4efc6aef29f809181900360200190a192915050565b60608062001f1862001f1260ff8616620023e7565b62002411565b9050606062001f2b62001f1285620023e7565b9050606062001f3b82846200244e565b9050620008f7816040516020018082805190602001908083835b6020831062001f765780518252601f19909201916020918201910162001f55565b6001836020036101000a038019825116818451168082178552505050505050905001915050604051602081830303815290604052805190602001206040516020018082815260200191505060405160208183030381529060405280519060200120620023e7565b805162002031576040805162461bcd60e51b815260206004820181905260248201527f4c656e677468206f6620524c5020706172656e74206e6f64657320697320302e604482015290519081900360640190fd5b6000828152600f60205260409020548062002093576040805162461bcd60e51b815260206004820152601d60248201527f53746f7261676520726f6f74206d757374206e6f74206265207a65726f000000604482015290519081900360640190fd5b620020a184868484620024ca565b62001bfc5760405162461bcd60e51b8152600401808060200182810382526021815260200180620037226021913960400191505060405180910390fd5b600d546001600160a01b03161562002136576040805162461bcd60e51b815260206004820152601660248201527529b2ba3ab81034b99030b63932b0b23c903237b7329760511b604482015290519081900360640190fd5b6001600160a01b03831662002192576040805162461bcd60e51b815260206004820152601d60248201527f53746f72616765206163636f756e74206164647265737320697320302e000000604482015290519081900360640190fd5b6001600160a01b038216620021d95760405162461bcd60e51b8152600401808060200182810382526021815260200180620037436021913960400191505060405180910390fd5b620021e48162002875565b600c80546001600160a01b038086166001600160a01b031992831617909255600d805492851692909116919091179055604080516bffffffffffffffffffffffff19606086901b1660208083019190915282518083036014018152603490920190925280519101206200225790620023e7565b80516200226d91600e916020909101906200324a565b50505050565b60006200227f620032cf565b6200228a8662002909565b90506060620022998262002950565b9050620022bb81600281518110620022ad57fe5b602002602001015162002a16565b92506000876040516020018082805190602001908083835b60208310620022f45780518252601f199092019160209182019101620022d3565b6001836020036101000a0380198251168184511680821785525050505050509050019150506040516020818303038152906040528051906020012090506200233f81878988620024ca565b62002391576040805162461bcd60e51b815260206004820152601e60248201527f4163636f756e742070726f6f66206973206e6f742076657269666965642e0000604482015290519081900360640190fd5b505050949350505050565b6000620023a862002a23565b600a600b5481548110620023b857fe5b9060005260206000200154905081600a600b5481548110620023d657fe5b600091825260209091200155919050565b60408051602080825281830190925260609160208201818038833950505060208101929092525090565b60608082516020036040519080825280601f01601f19166020018201604052801562002444576020820181803883390190505b5090506200186381845b60606040519050825180825260208201818101602086015b818310156200248057805183526020928301920162002466565b50845184518101855292509050808201602085015b81831015620024af57805183526020928301920162002495565b50601f19601f87518501158301011660405250505092915050565b6000620024d6620032cf565b620024e18462002909565b90506060620024f08262002950565b905060608085600082620025048b62002a40565b9050805160001415620025225760009750505050505050506200286d565b60005b8651811015620028645781518311156200254b576000985050505050505050506200286d565b6200256a8782815181106200255c57fe5b602002602001015162002ac1565b9550856040516020018082805190602001908083835b60208310620025a15780518252601f19909201916020918201910162002580565b6001836020036101000a038019825116818451168082178552505050505050905001915050604051602081830303815290604052805190602001208414620025f5576000985050505050505050506200286d565b620026148782815181106200260657fe5b602002602001015162002950565b945084516011141562002731578151831415620026d8578c6200263e866010815181106200255c57fe5b6040516020018082805190602001908083835b60208310620026725780518252601f19909201916020918201910162002651565b6001836020036101000a038019825116818451168082178552505050505050905001915050604051602081830303815290604052805190602001201415620026c6576001985050505050505050506200286d565b6000985050505050505050506200286d565b6000828481518110620026e757fe5b016020015160f81c905060108111156200270e57600099505050505050505050506200286d565b62002722868260ff1681518110620022ad57fe5b9450600184019350506200285b565b845160021415620026c65760006200276a62002762876000815181106200275457fe5b602002602001015162002b16565b848662002b83565b90508251818501141562002827578d6200278b876001815181106200275457fe5b6040516020018082805190602001908083835b60208310620027bf5780518252601f1990920191602091820191016200279e565b6001836020036101000a0380198251168184511680821785525050505050509050019150506040516020818303038152906040528051906020012014156200281457600199505050505050505050506200286d565b600099505050505050505050506200286d565b806200284057600099505050505050505050506200286d565b80840193506200285786600181518110620022ad57fe5b9450505b60010162002525565b50505050505050505b949350505050565b60008111620028b65760405162461bcd60e51b815260040180806020018281038252604d815260200180620037d1604d913960600191505060405180910390fd5b600a5415620028f75760405162461bcd60e51b8152600401808060200182810382526027815260200180620037886027913960400191505060405180910390fd5b8062002905600a82620032e9565b5050565b62002913620032cf565b8151806200293757505060408051808201909152600080825260208201526200170f565b6040805180820190915260209384018152928301525090565b60606200295d8262002d21565b6200296757600080fd5b6000620029748362002d4a565b905080604051908082528060200260200182016040528015620029b457816020015b620029a0620032cf565b815260200190600190039081620029965790505b509150620029c162003310565b620029cc8462002dae565b905060005b620029dc8262002dec565b1562002a0e57620029ed8262002e0d565b848281518110620029fa57fe5b6020908102919091010152600101620029d1565b505050919050565b60006200172a8262002e58565b600b805460010190819055600a54141562002a3e576000600b555b565b606081516002026040519080825280601f01601f19166020018201604052801562002a72576020820181803883390190505b50905060005b815181101562002abb5762002a8e818462002eaf565b82828151811062002a9b57fe5b60200101906001600160f81b031916908160001a90535060010162002a78565b50919050565b60208101516060908062002ad657506200170f565b806040519080825280601f01601f19166020018201604052801562002b02576020820181803883390190505b50915062002abb8360000151838362002f12565b606062002b238262002f44565b62002b2d57600080fd5b60008062002b3b8462002f6c565b60408051828152601f19601f8401168101602001909152919350915081801562002b6c576020820181803883390190505b50925062002b7c82848362002f12565b5050919050565b6000606062002b928562002fe3565b9050606081516040519080825280601f01601f19166020018201604052801562002bc3576020820181803883390190505b509050835b8251850181101562002c2157600086828151811062002be357fe5b602001015160f81c60f81b905080838784038151811062002c0057fe5b60200101906001600160f81b031916908160001a9053505060010162002bc8565b50806040516020018082805190602001908083835b6020831062002c575780518252601f19909201916020918201910162002c36565b6001836020036101000a03801982511681845116808217855250505050505090500191505060405160208183030381529060405280519060200120826040516020018082805190602001908083835b6020831062002cc75780518252601f19909201916020918201910162002ca6565b6001836020036101000a03801982511681845116808217855250505050505090500191505060405160208183030381529060405280519060200120141562002d13578151925062002d18565b600092505b50509392505050565b600081602001516000141562002d3a575060006200170f565b50515160c060009190911a101590565b600062002d578262002d21565b62002d65575060006200170f565b81518051600090811a919062002d7b856200311f565b6020860151908301915082016000190160005b818311620008f75762002da183620031a7565b9092019160010162002d8e565b62002db862003310565b62002dc38262002d21565b62002dcd57600080fd5b600062002dda836200311f565b83519383529092016020820152919050565b600062002df8620032cf565b50508051602080820151915192015191011190565b62002e17620032cf565b62002e228262002dec565b62002e2c57600080fd5b6020820151600062002e3e82620031a7565b828452602080850182905292019390910192909252919050565b600062002e658262002f44565b62002e6f57600080fd5b60008062002e7d8462002f6c565b9092509050602081118062002e90575080155b1562002e9b57600080fd5b806020036101000a82510492505050919050565b6000600283061562002ee457601082600285048151811062002ecd57fe5b016020015160f81c8162002edd57fe5b0662002f08565b601082600285048151811062002ef657fe5b016020015160f81c8162002f0657fe5b045b60f81b9392505050565b6000601f820184602085015b8284101562002f3b57838201518482015260208401935062002f1e565b50505050505050565b600081602001516000141562002f5d575060006200170f565b50515160c060009190911a1090565b60008062002f7a8362002f44565b62002f8457600080fd5b8251805160001a90608082101562002fa45792506001915062002fde9050565b60b882101562002fc4576001856020015103925080600101935062002fdb565b602085015182820160b51901945082900360b60192505b50505b915091565b8051606090156200170f5760008062002ffe60008562002eaf565b60f81c905060018114806200301657508060ff166003145b15620030945760018451600202036040519080825280601f01601f1916602001820160405280156200304f576020820181803883390190505b50925060006200306160018662002eaf565b905080846000815181106200307257fe5b60200101906001600160f81b031916908160001a9053506001925050620030cf565b60028451600202036040519080825280601f01601f191660200182016040528015620030c7576020820181803883390190505b509250600091505b60ff82165b835181101562002a0e57620030f28360ff1682036002018662002eaf565b848281518110620030ff57fe5b60200101906001600160f81b031916908160001a905350600101620030d4565b600081602001516000141562003138575060006200170f565b8151805160001a90608082101562003156576000925050506200170f565b60b882108062003173575060c0821015801562003173575060f882105b1562003185576001925050506200170f565b60c08210156200319c575060b5190190506200170f565b5060f5190192915050565b8051600090811a6080811015620031c2576001915062002abb565b60b8811015620031d957607e198101915062002abb565b60c08110156200320457600183015160b76020839003016101000a9004810160b51901915062002abb565b60f88110156200321b5760be198101915062002abb565b6001929092015160f76020849003016101000a900490910160f51901919050565b61014d806200335383390190565b828054600181600116156101000203166002900490600052602060002090601f016020900481019282601f106200328d57805160ff1916838001178555620032bd565b82800160010185558215620032bd579182015b82811115620032bd578251825591602001919060010190620032a0565b50620032cb92915062003332565b5090565b604051806040016040528060008152602001600081525090565b815481835581811115620015d157600083815260209020620015d191810190830162003332565b604051806040016040528062003325620032cf565b8152602001600081525090565b6200334f91905b80821115620032cb576000815560010162003339565b9056fe608060405234801561001057600080fd5b5060405161014d38038061014d8339818101604052602081101561003357600080fd5b50516001600160a01b038116610094576040517f08c379a00000000000000000000000000000000000000000000000000000000081526004018080602001828103825260248152602001806101296024913960400191505060405180910390fd5b600080546001600160a01b039092166001600160a01b03199092169190911790556066806100c36000396000f3fe60806040526001600160a01b03600054163660008037600080366000845af43d6000803e80602c573d6000fd5b3d6000f3fea265627a7a723158201bcbc87e2e88421c4e9851d9787d03de469d31caee30ebab16842537c81dbe6664736f6c634300050d0032496e76616c6964206d617374657220636f707920616464726573732070726f76696465644d6f736169634d65737361676542757328737472696e67206e616d652c737472696e672076657273696f6e2c62797465733332206d657461636861696e49642c62797465733332206368616e6e656c536570617261746f72294d6f736169634d6573736167654275734368616e6e656c2861646472657373206f7574626f782c206164647265737320696e626f78294c656e677468206f6620524c50206163636f756e74206d757374206e6f7420626520302e42656e65666963696172792061646472657373206d757374206e6f7420626520302e4d657373616765286279746573333220696e74656e74486173682c75696e74323536206e6f6e63652c75696e743235362066656547617350726963652c75696e74323536206665654761734c696d69742c616464726573732073656e646572294465706f736974496e74656e7428616464726573732076616c7565546f6b656e2c75696e7432353620616d6f756e742c616464726573732062656e6566696369617279295769746864726177616c20616d6f756e742073686f756c642062652067726561746572207468616e206d6178207265776172642e736574757028737472696e672c737472696e672c75696e74382c75696e743235362c616464726573732c61646472657373295574696c69747920546f6b656e2061646472657373206d757374206e6f7420626520302e4d65737361676520616c72656164792065786973747320696e20746865206f7574626f782e5769746864726177496e74656e7428616464726573732076616c7565546f6b656e2c61646472657373207574696c697479546f6b656e2c75696e7432353620616d6f756e742c616464726573732062656e6566696369617279294d65726b6c652070726f6f6620766572696669636174696f6e206661696c65642e537461746520726f6f742070726f7669646572206164647265737320697320302e4d65737361676520616c72656164792065786973747320696e2074686520696e626f782e43697263756c6172206275666665722073697a652063616e206265207365747570206f6e63652e56616c756520746f6b656e2061646472657373206d757374206e6f7420626520302e546865206d6178206e756d626572206f66206974656d7320746f2073746f726520696e20612063697263756c617220627566666572206d7573742062652067726561746572207468616e20302ea265627a7a72315820181995a8dcbd59cfe618f83dde830b845718163462e96ba49a7594cc76e2ca0364736f6c634300050d0032",
  "source": "pragma solidity >=0.5.0 <0.6.0;\n\n// Copyright 2020 OpenST Ltd.\n//\n// Licensed under the Apache License, Version 2.0 (the \"License\");\n// you may not use this file except in compliance with the License.\n// You may obtain a copy of the License at\n//\n//    http://www.apache.org/licenses/LICENSE-2.0\n//\n// Unless required by applicable law or agreed to in writing, software\n// distributed under the License is distributed on an \"AS IS\" BASIS,\n// WITHOUT WARRANTIES OR CONDITIONS OF ANY KIND, either express or implied.\n// See the License for the specific language governing permissions and\n// limitations under the License.\n\nimport \"./GenesisERC20Cogateway.sol\";\nimport \"./ERC20GatewayBase.sol\";\nimport \"../message-bus/MessageBus.sol\";\nimport \"../message-bus/StateRootInterface.sol\";\nimport \"../proxies/MasterCopyNonUpgradable.sol\";\nimport \"../proxies/ProxyFactory.sol\";\nimport \"../utility-token/UtilityTokenInterface.sol\";\n\n/**\n * @title ERC20Cogateway confirms the deposit intent and mint utility tokens.\n *        Also initiates the withdrawal of token.\n */\ncontract ERC20Cogateway is\n    MasterCopyNonUpgradable,\n    GenesisERC20Cogateway,\n    MessageBus,\n    ProxyFactory,\n    ERC20GatewayBase {\n\n    /* Events */\n\n    /** Emitted when withdraw message is declared */\n    event WithdrawIntentDeclared(\n        uint256 amount,\n        uint256 nonce,\n        address beneficiary,\n        uint256 feeGasPrice,\n        uint256 feeGasLimit,\n        address withdrawer,\n        address utilityToken,\n        bytes32 messageHash\n    );\n\n    /** Emitted when deposit message is confirmed. */\n    event DepositIntentConfirmed(\n        bytes32 messageHash\n    );\n\n    /** Emitted when utility token proxy is deployed. */\n    event UtilityTokenCreated(\n        address valueToken,\n        address utilityToken\n    );\n\n    /* Constants */\n\n    /** Storage offset of message outbox. */\n    uint8 constant public OUTBOX_OFFSET = uint8(6);\n\n    /** Storage offset of message inbox. */\n    uint8 constant public INBOX_OFFSET = uint8(9);\n\n    /** The callprefix of the UtilityToken::setup(). */\n    bytes4 public constant UTILITY_TOKEN_SETUP_CALLPREFIX = bytes4(\n        keccak256(\n            \"setup(string,string,uint8,uint256,address,address)\"\n        )\n    );\n\n\n    /* Storage */\n\n    /** Address of Utility token contract master copy. */\n    address public utilityTokenMasterCopy;\n\n    /* Mapping for utility token addresses */\n    mapping (address => address) public utilityTokens;\n\n\n    /* Public Functions */\n\n    /**\n     * @notice It initializes ERC20Cogateway contract.\n     *\n     * \\pre Setup function can be called only once.\n     *\n     * \\post Calls `MessageOutbox.setupMessageOutbox()` with parameters\n     *       `genesisMetachainId` and `genesisERC20Gateway`.\n     * \\post Calls `MessageInbox.setupMessageInbox` with parameters\n     *       `genesisMetachainId`, `genesisERC20Gateway`,\n     *       `genesisOutboxStorageIndex`, `genesisStateRootProvider` and\n     *       `genesisOutboxStorageIndex`.\n     * \\post Sets `utilityTokenMasterCopy` storage variable with\n     *       `genesisUtilityTokenMastercopy` value.\n     */\n    function setup()\n        public\n    {\n        MessageOutbox.setupMessageOutbox(\n            genesisMetachainId,\n            genesisERC20Gateway\n        );\n\n        MessageInbox.setupMessageInbox(\n            genesisMetachainId,\n            genesisERC20Gateway,\n            genesisOutboxStorageIndex,\n            StateRootInterface(genesisStateRootProvider),\n            genesisMaxStorageRootItems\n        );\n\n        utilityTokenMasterCopy = genesisUtilityTokenMastercopy;\n    }\n\n\n    /* External Functions */\n\n    /**\n     * @notice It verifies that ERC20Gateway contract exists on origin chain\n     *         using merkle account proof.\n     *\n     * @param _blockNumber Block number at which ERC20Gateway contract is to\n     *                     be proven.\n     * @param _rlpAccount RLP encoded account node object.\n     * @param _rlpParentNodes RLP encoded value of account proof node array.\n     *\n     * \\post Calls `MessageInbox.proveStorageAccount()` function with\n     *       `_blockNumber`, `_rlpAccount`, `_rlpParentNodes` as input\n     *       parameters.\n     * \\post Emits `GatewayProven` event with the address of `messageInbox`\n     *       and `_blockNumber` parameters.\n     */\n    function proveGateway(\n        uint256 _blockNumber,\n        bytes calldata _rlpAccount,\n        bytes calldata _rlpParentNodes\n    )\n        external\n    {\n        MessageInbox.proveStorageAccount(\n            _blockNumber,\n            _rlpAccount,\n            _rlpParentNodes\n        );\n\n        emit GatewayProven(messageInbox, _blockNumber);\n    }\n\n    /**\n     * @notice Gets the remote gateway latest proven block number.\n     *\n     * @return blockNumber_ Remote gateway latest proven block number.\n     */\n    function getRemoteGatewayLatestProvenBlockNumber()\n        external\n        view\n        returns (uint256 blockNumber_)\n    {\n        blockNumber_ = CircularBufferUint.head();\n    }\n\n    /**\n     * @notice It allows withdrawing Utility tokens. Withdrawer needs to\n     *       approve erc20 cogateway contract for the amount to be\n     *       withdrawn.\n     *\n     * @param _amount Amount of tokens to be withdrawn.\n     * @param _beneficiary The address in the origin chain where the value\n     *                     where the tokens will be withdrawn.\n     * @param _feeGasPrice Gas price at which fee will be calculated.\n     * @param _feeGasLimit Gas limit at which fee will be capped.\n     * @param _utilityToken Address of utility token.\n     *\n     * @return messageHash_ Message hash.\n     *\n     * \\pre `_utilityToken` is not 0.\n     * \\pre `_amount` is not 0.\n     * \\pre `_beneficiary` is not 0.\n     * \\pre `_amount` should be greater than maximum reward.\n     * \\pre `msg.sender` should approve erc20 cogateway contract.\n     *\n     * \\post Adds a new entry in `outbox` mapping storage variable. The value is\n     *       set as `true` for `messagehash_` in `outbox` mapping. The\n     *       `messageHash_` is obtained by calling `MessageOutbox.declareMessage`\n     *       with the parameters `withdrawIntentHash`,\n     *       `MessageOutbox.outboxNonces[msg.sender]`, `_feeGasPrice`,\n     *       `_feeGasLimit` and `msg.sender`. `withdrawIntentHash` is calculated\n     *       by calling `ERC20GatewayBase.hashWithdrawIntent` with parameters\n     *       `valueToken`, `_utilityToken`, `_amount`, `_beneficiary`.\n     * \\post `_amount` number of utility tokens will be burned from `msg.sender`\n     *       account by erc20 cogateway.\n     * \\post Update the `MessageOutbox.outboxNonces` storage mapping variable\n     *       by incrementing the value for `msg.sender` by one.\n     * \\post Emits `WithdrawIntentDeclared` event with the `_amount`, address of\n     *       `_beneficiary`, `_feeGasPrice`, `_feeGasLimit`, address of\n     *       `msg.sender`, address of `_utilityToken` and `messageHash_`.\n     */\n    function withdraw(\n        uint256 _amount,\n        address _beneficiary,\n        uint256 _feeGasPrice,\n        uint256 _feeGasLimit,\n        UtilityTokenInterface _utilityToken\n    )\n        external\n        returns(bytes32 messageHash_)\n    {\n        require(\n            address(_utilityToken) != address(0),\n            \"Utility Token address must not be 0.\"\n        );\n        require(\n            _beneficiary != address(0),\n            \"Beneficiary address must not be 0.\"\n        );\n        require(\n            _amount > _feeGasPrice.mul(_feeGasLimit),\n            \"Withdrawal amount should be greater than max reward.\"\n        );\n\n        address valueToken = _utilityToken.valueToken();\n        bytes32 withdrawIntentHash = ERC20GatewayBase.hashWithdrawIntent(\n            valueToken,\n            address(_utilityToken),\n            _amount,\n            _beneficiary\n        );\n\n        uint256 nonce = MessageOutbox.outboxNonces[msg.sender];\n        MessageOutbox.outboxNonces[msg.sender] = nonce.add(1);\n\n        messageHash_ = MessageOutbox.declareMessage(\n            withdrawIntentHash,\n            nonce,\n            _feeGasPrice,\n            _feeGasLimit,\n            msg.sender\n        );\n\n        _utilityToken.burnFrom(msg.sender, _amount);\n\n        emit WithdrawIntentDeclared(\n            _amount,\n            nonce,\n            _beneficiary,\n            _feeGasPrice,\n            _feeGasLimit,\n            msg.sender,\n            address(_utilityToken),\n            messageHash_\n        );\n    }\n\n    /**\n     * @notice Confirm deposit in order to mint tokens.\n     *\n     * @param _valueToken ERC20 token address on the origin chain.\n     * @param _amount ERC20 token deposit amount in atto.\n     * @param _beneficiary Address of beneficiary on the target chain.\n     * @param _feeGasPrice Gas price at which fee will be calculated.\n     * @param _feeGasLimit Gas limit at which fee will be capped.\n     * @param _depositor Address of depositor on the origin chain.\n     * @param _blockNumber Block number of origin chain against which storage\n                           proof is generated.\n     * @param _rlpParentNodes Storage merkle proof to verify message declaration\n     *                        on the origin chain.\n     *\n     * @return messageHash_ Message hash.\n     *\n     * \\pre `_valueToken` address is not 0.\n     * \\pre `_amount` is not 0.\n     * \\pre `_beneficiary` address is not 0.\n     * \\pre `_depositor` address is not 0.\n     * \\pre `_rlpParentNodes` is not 0.\n     *\n     * \\post Adds a new entry in `inbox` mapping storage variable. The value is\n     *       set as `true` for `messagehash_` in `inbox` mapping. The\n     *       `messageHash_` is calculated by calling `MessageInbox.confirmMessage`\n     *       function with parameters `depositIntentHash`, `nonce`,\n     *       `_feeGasPrice`, `_feeGasLimit`, `_depositor`, `_blockNumber` and\n     *       `_rlpParentNodes`. `depositIntentHash` is calculated by calling\n     *       `ERC20GatewayBase.hashDepositIntent` functions with the parameters\n     *       `_valueToken`, `_amount` and `_beneficiary`.\n     * \\post Deploys a new utility token contract by calling\n     *       `deployUtilityToken()` with parameter `_valueToken`.\n     * \\post Transfers the tokens to the `msg.sender` address as a fees.\n     *       The `fees` amount is calculated by calling\n     *       `ERC20GatewayBase::reward()` with parameters `gasConsumed`,\n     *       `_feeGasPrice` and `_feeGasLimit`. `gasConsumed` is the approximate\n     *       gas used in this transaction.\n     * \\post Transfer the `_amount-fees` amount of token to the `_beneficiary`\n     *       address.\n     * \\post Update the MessageInbox.inboxNonces storage mapping variable by\n     *       incrementing the\n     *       value for `_withdrawer` by one.\n     * \\post Emits `DepositIntentConfirmed` event with the `messageHash_` as a\n     *       parameter.\n     */\n    function confirmDeposit(\n        address _valueToken,\n        uint256 _amount,\n        address payable _beneficiary,\n        uint256 _feeGasPrice,\n        uint256 _feeGasLimit,\n        address _depositor,\n        uint256 _blockNumber,\n        bytes calldata _rlpParentNodes\n     )\n        external\n        returns (bytes32 messageHash_)\n    {\n        uint256 initialGas = gasleft();\n\n        require(\n            _valueToken != address(0),\n            \"Value token address must not be 0.\"\n        );\n        require(\n            _amount != 0,\n            \"Deposit amount must not be 0.\"\n        );\n        require(\n            _beneficiary != address(0),\n            \"Beneficiary address must not be 0.\"\n        );\n        require(\n            _depositor != address(0),\n            \"Depositor address must not be 0.\"\n        );\n\n        address utilityToken = getUtilityToken(_valueToken);\n\n        uint256 nonce = MessageInbox.inboxNonces[_depositor];\n        MessageInbox.inboxNonces[_depositor] = nonce.add(1);\n\n        messageHash_ = MessageInbox.confirmMessage(\n            ERC20GatewayBase.hashDepositIntent(\n                _valueToken,\n                _amount,\n                _beneficiary\n            ),\n            nonce,\n            _feeGasPrice,\n            _feeGasLimit,\n            _depositor,\n            _blockNumber,\n            _rlpParentNodes\n        );\n\n        /*\n         * Calculate the reward fees based on the actual gas usage. The value\n         * of gas price can be adjusted to accommodate the additional gas usage\n         * after this statement.\n         */\n        uint256 feeAmount = ERC20GatewayBase.reward(\n            initialGas.sub(gasleft()),\n            _feeGasPrice,\n            _feeGasLimit\n        );\n\n        uint256 mintAmount = _amount.sub(feeAmount);\n\n        UtilityTokenInterface(utilityToken).mint(msg.sender, feeAmount);\n\n        UtilityTokenInterface(utilityToken).mint(_beneficiary, mintAmount);\n\n        emit DepositIntentConfirmed(messageHash_);\n    }\n\n\n    /* Private Functions */\n\n    /**\n     * @notice Returns the utility token proxy contract.\n     *\n     * @param _valueToken Value token contract address.\n     *\n     * @return utilityToken_ Utility token contract address.\n     *\n     * \\post Deploys a new proxy contract for utility token, if utility token\n     *       address does not exists in `utilityTokens` mapping storage for the\n     *       `_valueToken` key .\n     * \\post Updates the `utilityTokens` mapping storage by setting the values\n     *       as address of newly deployed contract for `_valueToken` key.\n     * \\post Emits `UtilityTokenCreated` event with the `_valueToken`and\n     *       `utilityToken_` as parameters.\n     */\n    function getUtilityToken(\n        address _valueToken\n    )\n        private\n        returns (address utilityToken_)\n    {\n        utilityToken_ = utilityTokens[_valueToken];\n\n        if(utilityToken_ == address(0)) {\n            bytes memory utilityTokenSetupCalldata = abi.encodeWithSelector(\n                UTILITY_TOKEN_SETUP_CALLPREFIX,\n                \"\",\n                \"\",\n                uint8(0),\n                uint256(0),\n                address(this),\n                _valueToken\n            );\n\n            utilityToken_ = address(\n                createProxy(\n                    utilityTokenMasterCopy,\n                    utilityTokenSetupCalldata\n                )\n            );\n\n            utilityTokens[_valueToken] = utilityToken_;\n\n            emit UtilityTokenCreated(\n                _valueToken,\n                utilityToken_\n            );\n        }\n    }\n}\n",
  "sourcePath": "/Users/abhay/Documents/projects/abhayforks/mosaic-1/contracts/erc20-gateway/ERC20Cogateway.sol",
  "compiler": {
    "name": "solc",
    "version": "0.5.13+commit.5b0b510c.Emscripten.clang"
  },
  "schemaVersion": "3.0.17",
  "updatedAt": "2020-03-21T06:48:34.695Z",
  "devdoc": {
    "methods": {
      "confirmDeposit(address,uint256,address,uint256,uint256,address,uint256,bytes)": {
        "params": {
          "_amount": "ERC20 token deposit amount in atto.",
          "_beneficiary": "Address of beneficiary on the target chain.",
          "_blockNumber": "Block number of origin chain against which storage proof is generated.",
          "_depositor": "Address of depositor on the origin chain.",
          "_feeGasLimit": "Gas limit at which fee will be capped.",
          "_feeGasPrice": "Gas price at which fee will be calculated.",
          "_rlpParentNodes": "Storage merkle proof to verify message declaration                       on the origin chain.",
          "_valueToken": "ERC20 token address on the origin chain."
        },
        "return": "messageHash_ Message hash.     * \\pre `_valueToken` address is not 0. \\pre `_amount` is not 0. \\pre `_beneficiary` address is not 0. \\pre `_depositor` address is not 0. \\pre `_rlpParentNodes` is not 0.     * \\post Adds a new entry in `inbox` mapping storage variable. The value is      set as `true` for `messagehash_` in `inbox` mapping. The      `messageHash_` is calculated by calling `MessageInbox.confirmMessage`      function with parameters `depositIntentHash`, `nonce`,      `_feeGasPrice`, `_feeGasLimit`, `_depositor`, `_blockNumber` and      `_rlpParentNodes`. `depositIntentHash` is calculated by calling      `ERC20GatewayBase.hashDepositIntent` functions with the parameters      `_valueToken`, `_amount` and `_beneficiary`. \\post Deploys a new utility token contract by calling      `deployUtilityToken()` with parameter `_valueToken`. \\post Transfers the tokens to the `msg.sender` address as a fees.      The `fees` amount is calculated by calling      `ERC20GatewayBase::reward()` with parameters `gasConsumed`,      `_feeGasPrice` and `_feeGasLimit`. `gasConsumed` is the approximate      gas used in this transaction. \\post Transfer the `_amount-fees` amount of token to the `_beneficiary`      address. \\post Update the MessageInbox.inboxNonces storage mapping variable by      incrementing the      value for `_withdrawer` by one. \\post Emits `DepositIntentConfirmed` event with the `messageHash_` as a      parameter."
      },
      "getRemoteGatewayLatestProvenBlockNumber()": {
        "return": "blockNumber_ Remote gateway latest proven block number."
      },
      "hashChannelIdentifier(bytes32,address,address)": {
        "params": {
          "_inbox": "Inbox address.",
          "_metachainId": "Metachain identifier.",
          "_outbox": "Outbox address."
        }
      },
      "hashDepositIntent(address,uint256,address)": {
        "params": {
          "_amount": "Amount of tokens.",
          "_beneficiary": "Beneficiary address.",
          "_valueToken": "Value token Address."
        },
        "return": "depositIntentHash_ Hash of deposit intent."
      },
      "hashWithdrawIntent(address,address,uint256,address)": {
        "params": {
          "_amount": "Amount of tokens.",
          "_beneficiary": "Beneficiary address.",
          "_utilityToken": "Utility token address.",
          "_valueToken": "Value token address."
        },
        "return": "withdrawIntentHash_ Hash of withdraw intent."
      },
      "inboxMessageHash(bytes32,uint256,uint256,uint256,address)": {
        "params": {
          "_feeGasLimit": "Fee gas limit.",
          "_feeGasPrice": "Fee gas price.",
          "_intentHash": "Intent hash of message.",
          "_nonce": "Nonce of sender.",
          "_sender": "Sender address."
        },
        "return": "messageHash_ Message hash."
      },
      "outboxMessageHash(bytes32,uint256,uint256,uint256,address)": {
        "params": {
          "_feeGasLimit": "Fee gas limit.",
          "_feeGasPrice": "Fee gas price.",
          "_intentHash": "Intent hash of message.",
          "_nonce": "Nonce of sender.",
          "_sender": "Sender address."
        },
        "return": "messageHash_ Message hash."
      },
      "proveGateway(uint256,bytes,bytes)": {
        "params": {
          "_blockNumber": "Block number at which ERC20Gateway contract is to                    be proven.",
          "_rlpAccount": "RLP encoded account node object.",
          "_rlpParentNodes": "RLP encoded value of account proof node array.     * \\post Calls `MessageInbox.proveStorageAccount()` function with      `_blockNumber`, `_rlpAccount`, `_rlpParentNodes` as input      parameters. \\post Emits `GatewayProven` event with the address of `messageInbox`      and `_blockNumber` parameters."
        }
      },
      "withdraw(uint256,address,uint256,uint256,address)": {
        "params": {
          "_amount": "Amount of tokens to be withdrawn.",
          "_beneficiary": "The address in the origin chain where the value                    where the tokens will be withdrawn.",
          "_feeGasLimit": "Gas limit at which fee will be capped.",
          "_feeGasPrice": "Gas price at which fee will be calculated.",
          "_utilityToken": "Address of utility token."
        },
        "return": "messageHash_ Message hash.     * \\pre `_utilityToken` is not 0. \\pre `_amount` is not 0. \\pre `_beneficiary` is not 0. \\pre `_amount` should be greater than maximum reward. \\pre `msg.sender` should approve erc20 cogateway contract.     * \\post Adds a new entry in `outbox` mapping storage variable. The value is      set as `true` for `messagehash_` in `outbox` mapping. The      `messageHash_` is obtained by calling `MessageOutbox.declareMessage`      with the parameters `withdrawIntentHash`,      `MessageOutbox.outboxNonces[msg.sender]`, `_feeGasPrice`,      `_feeGasLimit` and `msg.sender`. `withdrawIntentHash` is calculated      by calling `ERC20GatewayBase.hashWithdrawIntent` with parameters      `valueToken`, `_utilityToken`, `_amount`, `_beneficiary`. \\post `_amount` number of utility tokens will be burned from `msg.sender`      account by erc20 cogateway. \\post Update the `MessageOutbox.outboxNonces` storage mapping variable      by incrementing the value for `msg.sender` by one. \\post Emits `WithdrawIntentDeclared` event with the `_amount`, address of      `_beneficiary`, `_feeGasPrice`, `_feeGasLimit`, address of      `msg.sender`, address of `_utilityToken` and `messageHash_`."
      }
    },
    "title": "ERC20Cogateway confirms the deposit intent and mint utility tokens.       Also initiates the withdrawal of token."
  },
  "userdoc": {
    "methods": {
      "confirmDeposit(address,uint256,address,uint256,uint256,address,uint256,bytes)": {
        "notice": "Confirm deposit in order to mint tokens."
      },
      "getRemoteGatewayLatestProvenBlockNumber()": {
        "notice": "Gets the remote gateway latest proven block number."
      },
      "hashChannelIdentifier(bytes32,address,address)": {
        "notice": "Generate channel identifier hash from the input params"
      },
      "hashDepositIntent(address,uint256,address)": {
        "notice": "It returns hash of deposit intent."
      },
      "hashWithdrawIntent(address,address,uint256,address)": {
        "notice": "It returns hash of withdraw intent."
      },
      "inboxMessageHash(bytes32,uint256,uint256,uint256,address)": {
        "notice": "Generate inbox message hash from the input params"
      },
      "outboxMessageHash(bytes32,uint256,uint256,uint256,address)": {
        "notice": "Generate outbox message hash from the input params"
      },
      "proveGateway(uint256,bytes,bytes)": {
        "notice": "It verifies that ERC20Gateway contract exists on origin chain        using merkle account proof."
      },
      "setup()": {
        "notice": "It initializes ERC20Cogateway contract.     * \\pre Setup function can be called only once.     * \\post Calls `MessageOutbox.setupMessageOutbox()` with parameters      `genesisMetachainId` and `genesisERC20Gateway`. \\post Calls `MessageInbox.setupMessageInbox` with parameters      `genesisMetachainId`, `genesisERC20Gateway`,      `genesisOutboxStorageIndex`, `genesisStateRootProvider` and      `genesisOutboxStorageIndex`. \\post Sets `utilityTokenMasterCopy` storage variable with      `genesisUtilityTokenMastercopy` value."
      },
      "withdraw(uint256,address,uint256,uint256,address)": {
        "notice": "It allows withdrawing Utility tokens. Withdrawer needs to      approve erc20 cogateway contract for the amount to be      withdrawn."
      }
    }
  }
}