{
  "contractName": "ERC20Gateway",
  "abi": [
    {
      "anonymous": false,
      "inputs": [
        {
          "indexed": false,
          "internalType": "uint256",
          "name": "amount",
          "type": "uint256"
        },
        {
          "indexed": false,
          "internalType": "uint256",
          "name": "nonce",
          "type": "uint256"
        },
        {
          "indexed": false,
          "internalType": "address",
          "name": "beneficiary",
          "type": "address"
        },
        {
          "indexed": false,
          "internalType": "uint256",
          "name": "feeGasPrice",
          "type": "uint256"
        },
        {
          "indexed": false,
          "internalType": "uint256",
          "name": "feeGasLimit",
          "type": "uint256"
        },
        {
          "indexed": false,
          "internalType": "address",
          "name": "depositor",
          "type": "address"
        },
        {
          "indexed": false,
          "internalType": "address",
          "name": "valueToken",
          "type": "address"
        },
        {
          "indexed": false,
          "internalType": "bytes32",
          "name": "messageHash",
          "type": "bytes32"
        }
      ],
      "name": "DepositIntentDeclared",
      "type": "event"
    },
    {
      "anonymous": false,
      "inputs": [
        {
          "indexed": false,
          "internalType": "address",
          "name": "remoteGateway",
          "type": "address"
        },
        {
          "indexed": false,
          "internalType": "uint256",
          "name": "blockNumber",
          "type": "uint256"
        }
      ],
      "name": "GatewayProven",
      "type": "event"
    },
    {
      "anonymous": false,
      "inputs": [
        {
          "indexed": false,
          "internalType": "bytes32",
          "name": "messageHash",
          "type": "bytes32"
        }
      ],
      "name": "WithdrawIntentConfirmed",
      "type": "event"
    },
    {
      "constant": true,
      "inputs": [],
      "name": "DEPOSIT_INTENT_TYPEHASH",
      "outputs": [
        {
          "internalType": "bytes32",
          "name": "",
          "type": "bytes32"
        }
      ],
      "payable": false,
      "stateMutability": "view",
      "type": "function"
    },
    {
      "constant": true,
      "inputs": [],
      "name": "DOMAIN_SEPARATOR_VERSION",
      "outputs": [
        {
          "internalType": "string",
          "name": "",
          "type": "string"
        }
      ],
      "payable": false,
      "stateMutability": "view",
      "type": "function"
    },
    {
      "constant": true,
      "inputs": [],
      "name": "INBOX_OFFSET",
      "outputs": [
        {
          "internalType": "uint8",
          "name": "",
          "type": "uint8"
        }
      ],
      "payable": false,
      "stateMutability": "view",
      "type": "function"
    },
    {
      "constant": true,
      "inputs": [],
      "name": "MESSAGE_TYPEHASH",
      "outputs": [
        {
          "internalType": "bytes32",
          "name": "",
          "type": "bytes32"
        }
      ],
      "payable": false,
      "stateMutability": "view",
      "type": "function"
    },
    {
      "constant": true,
      "inputs": [],
      "name": "MMB_CHANNEL_TYPEHASH",
      "outputs": [
        {
          "internalType": "bytes32",
          "name": "",
          "type": "bytes32"
        }
      ],
      "payable": false,
      "stateMutability": "view",
      "type": "function"
    },
    {
      "constant": true,
      "inputs": [],
      "name": "MMB_DOMAIN_SEPARATOR_NAME",
      "outputs": [
        {
          "internalType": "string",
          "name": "",
          "type": "string"
        }
      ],
      "payable": false,
      "stateMutability": "view",
      "type": "function"
    },
    {
      "constant": true,
      "inputs": [],
      "name": "MMB_DOMAIN_SEPARATOR_TYPEHASH",
      "outputs": [
        {
          "internalType": "bytes32",
          "name": "",
          "type": "bytes32"
        }
      ],
      "payable": false,
      "stateMutability": "view",
      "type": "function"
    },
    {
      "constant": true,
      "inputs": [],
      "name": "MMB_DOMAIN_SEPARATOR_VERSION",
      "outputs": [
        {
          "internalType": "string",
          "name": "",
          "type": "string"
        }
      ],
      "payable": false,
      "stateMutability": "view",
      "type": "function"
    },
    {
      "constant": true,
      "inputs": [],
      "name": "OUTBOX_OFFSET",
      "outputs": [
        {
          "internalType": "uint8",
          "name": "",
          "type": "uint8"
        }
      ],
      "payable": false,
      "stateMutability": "view",
      "type": "function"
    },
    {
      "constant": true,
      "inputs": [],
      "name": "WITHDRAW_INTENT_TYPEHASH",
      "outputs": [
        {
          "internalType": "bytes32",
          "name": "",
          "type": "bytes32"
        }
      ],
      "payable": false,
      "stateMutability": "view",
      "type": "function"
    },
    {
      "constant": true,
      "inputs": [],
      "name": "encodedAccountPath",
      "outputs": [
        {
          "internalType": "bytes",
          "name": "",
          "type": "bytes"
        }
      ],
      "payable": false,
      "stateMutability": "view",
      "type": "function"
    },
    {
      "constant": true,
      "inputs": [
        {
          "internalType": "bytes32",
          "name": "_metachainId",
          "type": "bytes32"
        },
        {
          "internalType": "address",
          "name": "_outbox",
          "type": "address"
        },
        {
          "internalType": "address",
          "name": "_inbox",
          "type": "address"
        }
      ],
      "name": "hashChannelIdentifier",
      "outputs": [
        {
          "internalType": "bytes32",
          "name": "channelIdentifier_",
          "type": "bytes32"
        }
      ],
      "payable": false,
      "stateMutability": "pure",
      "type": "function"
    },
    {
      "constant": true,
      "inputs": [
        {
          "internalType": "address",
          "name": "_valueToken",
          "type": "address"
        },
        {
          "internalType": "uint256",
          "name": "_amount",
          "type": "uint256"
        },
        {
          "internalType": "address",
          "name": "_beneficiary",
          "type": "address"
        }
      ],
      "name": "hashDepositIntent",
      "outputs": [
        {
          "internalType": "bytes32",
          "name": "depositIntentHash_",
          "type": "bytes32"
        }
      ],
      "payable": false,
      "stateMutability": "pure",
      "type": "function"
    },
    {
      "constant": true,
      "inputs": [
        {
          "internalType": "address",
          "name": "_valueToken",
          "type": "address"
        },
        {
          "internalType": "address",
          "name": "_utilityToken",
          "type": "address"
        },
        {
          "internalType": "uint256",
          "name": "_amount",
          "type": "uint256"
        },
        {
          "internalType": "address",
          "name": "_beneficiary",
          "type": "address"
        }
      ],
      "name": "hashWithdrawIntent",
      "outputs": [
        {
          "internalType": "bytes32",
          "name": "withdrawIntentHash_",
          "type": "bytes32"
        }
      ],
      "payable": false,
      "stateMutability": "pure",
      "type": "function"
    },
    {
      "constant": true,
      "inputs": [],
      "name": "inboundChannelIdentifier",
      "outputs": [
        {
          "internalType": "bytes32",
          "name": "",
          "type": "bytes32"
        }
      ],
      "payable": false,
      "stateMutability": "view",
      "type": "function"
    },
    {
      "constant": true,
      "inputs": [
        {
          "internalType": "bytes32",
          "name": "",
          "type": "bytes32"
        }
      ],
      "name": "inbox",
      "outputs": [
        {
          "internalType": "bool",
          "name": "",
          "type": "bool"
        }
      ],
      "payable": false,
      "stateMutability": "view",
      "type": "function"
    },
    {
      "constant": true,
      "inputs": [
        {
          "internalType": "bytes32",
          "name": "_intentHash",
          "type": "bytes32"
        },
        {
          "internalType": "uint256",
          "name": "_nonce",
          "type": "uint256"
        },
        {
          "internalType": "uint256",
          "name": "_feeGasPrice",
          "type": "uint256"
        },
        {
          "internalType": "uint256",
          "name": "_feeGasLimit",
          "type": "uint256"
        },
        {
          "internalType": "address",
          "name": "_sender",
          "type": "address"
        }
      ],
      "name": "inboxMessageHash",
      "outputs": [
        {
          "internalType": "bytes32",
          "name": "messageHash_",
          "type": "bytes32"
        }
      ],
      "payable": false,
      "stateMutability": "view",
      "type": "function"
    },
    {
      "constant": true,
      "inputs": [
        {
          "internalType": "address",
          "name": "",
          "type": "address"
        }
      ],
      "name": "inboxNonces",
      "outputs": [
        {
          "internalType": "uint256",
          "name": "",
          "type": "uint256"
        }
      ],
      "payable": false,
      "stateMutability": "view",
      "type": "function"
    },
    {
      "constant": true,
      "inputs": [],
      "name": "messageInbox",
      "outputs": [
        {
          "internalType": "address",
          "name": "",
          "type": "address"
        }
      ],
      "payable": false,
      "stateMutability": "view",
      "type": "function"
    },
    {
      "constant": true,
      "inputs": [],
      "name": "messageOutbox",
      "outputs": [
        {
          "internalType": "address",
          "name": "",
          "type": "address"
        }
      ],
      "payable": false,
      "stateMutability": "view",
      "type": "function"
    },
    {
      "constant": true,
      "inputs": [],
      "name": "outboundChannelIdentifier",
      "outputs": [
        {
          "internalType": "bytes32",
          "name": "",
          "type": "bytes32"
        }
      ],
      "payable": false,
      "stateMutability": "view",
      "type": "function"
    },
    {
      "constant": true,
      "inputs": [
        {
          "internalType": "bytes32",
          "name": "",
          "type": "bytes32"
        }
      ],
      "name": "outbox",
      "outputs": [
        {
          "internalType": "bool",
          "name": "",
          "type": "bool"
        }
      ],
      "payable": false,
      "stateMutability": "view",
      "type": "function"
    },
    {
      "constant": true,
      "inputs": [
        {
          "internalType": "bytes32",
          "name": "_intentHash",
          "type": "bytes32"
        },
        {
          "internalType": "uint256",
          "name": "_nonce",
          "type": "uint256"
        },
        {
          "internalType": "uint256",
          "name": "_feeGasPrice",
          "type": "uint256"
        },
        {
          "internalType": "uint256",
          "name": "_feeGasLimit",
          "type": "uint256"
        },
        {
          "internalType": "address",
          "name": "_sender",
          "type": "address"
        }
      ],
      "name": "outboxMessageHash",
      "outputs": [
        {
          "internalType": "bytes32",
          "name": "messageHash_",
          "type": "bytes32"
        }
      ],
      "payable": false,
      "stateMutability": "view",
      "type": "function"
    },
    {
      "constant": true,
      "inputs": [
        {
          "internalType": "address",
          "name": "",
          "type": "address"
        }
      ],
      "name": "outboxNonces",
      "outputs": [
        {
          "internalType": "uint256",
          "name": "",
          "type": "uint256"
        }
      ],
      "payable": false,
      "stateMutability": "view",
      "type": "function"
    },
    {
      "constant": true,
      "inputs": [],
      "name": "outboxStorageIndex",
      "outputs": [
        {
          "internalType": "uint8",
          "name": "",
          "type": "uint8"
        }
      ],
      "payable": false,
      "stateMutability": "view",
      "type": "function"
    },
    {
      "constant": true,
      "inputs": [],
      "name": "stateRootProvider",
      "outputs": [
        {
          "internalType": "contract StateRootInterface",
          "name": "",
          "type": "address"
        }
      ],
      "payable": false,
      "stateMutability": "view",
      "type": "function"
    },
    {
      "constant": true,
      "inputs": [],
      "name": "storageAccount",
      "outputs": [
        {
          "internalType": "address",
          "name": "",
          "type": "address"
        }
      ],
      "payable": false,
      "stateMutability": "view",
      "type": "function"
    },
    {
      "constant": true,
      "inputs": [
        {
          "internalType": "uint256",
          "name": "",
          "type": "uint256"
        }
      ],
      "name": "storageRoots",
      "outputs": [
        {
          "internalType": "bytes32",
          "name": "",
          "type": "bytes32"
        }
      ],
      "payable": false,
      "stateMutability": "view",
      "type": "function"
    },
    {
      "constant": false,
      "inputs": [
        {
          "internalType": "bytes32",
          "name": "_metachainId",
          "type": "bytes32"
        },
        {
          "internalType": "address",
          "name": "_erc20Cogateway",
          "type": "address"
        },
        {
          "internalType": "contract StateRootInterface",
          "name": "_stateRootProvider",
          "type": "address"
        },
        {
          "internalType": "uint256",
          "name": "_maxStorageRootItems",
          "type": "uint256"
        },
        {
          "internalType": "uint8",
          "name": "_outboxStorageIndex",
          "type": "uint8"
        }
      ],
      "name": "setup",
      "outputs": [],
      "payable": false,
      "stateMutability": "nonpayable",
      "type": "function"
    },
    {
      "constant": false,
      "inputs": [
        {
          "internalType": "uint256",
          "name": "_blockNumber",
          "type": "uint256"
        },
        {
          "internalType": "bytes",
          "name": "_rlpAccount",
          "type": "bytes"
        },
        {
          "internalType": "bytes",
          "name": "_rlpParentNodes",
          "type": "bytes"
        }
      ],
      "name": "proveGateway",
      "outputs": [],
      "payable": false,
      "stateMutability": "nonpayable",
      "type": "function"
    },
    {
      "constant": true,
      "inputs": [],
      "name": "getRemoteGatewayLatestProvenBlockNumber",
      "outputs": [
        {
          "internalType": "uint256",
          "name": "blockNumber_",
          "type": "uint256"
        }
      ],
      "payable": false,
      "stateMutability": "view",
      "type": "function"
    },
    {
      "constant": false,
      "inputs": [
        {
          "internalType": "uint256",
          "name": "_amount",
          "type": "uint256"
        },
        {
          "internalType": "address",
          "name": "_beneficiary",
          "type": "address"
        },
        {
          "internalType": "uint256",
          "name": "_feeGasPrice",
          "type": "uint256"
        },
        {
          "internalType": "uint256",
          "name": "_feeGasLimit",
          "type": "uint256"
        },
        {
          "internalType": "address",
          "name": "_valueToken",
          "type": "address"
        }
      ],
      "name": "deposit",
      "outputs": [
        {
          "internalType": "bytes32",
          "name": "messageHash_",
          "type": "bytes32"
        }
      ],
      "payable": false,
      "stateMutability": "nonpayable",
      "type": "function"
    },
    {
      "constant": false,
      "inputs": [
        {
          "internalType": "address",
          "name": "_utilityToken",
          "type": "address"
        },
        {
          "internalType": "address",
          "name": "_valueToken",
          "type": "address"
        },
        {
          "internalType": "uint256",
          "name": "_amount",
          "type": "uint256"
        },
        {
          "internalType": "address",
          "name": "_beneficiary",
          "type": "address"
        },
        {
          "internalType": "uint256",
          "name": "_feeGasPrice",
          "type": "uint256"
        },
        {
          "internalType": "uint256",
          "name": "_feeGasLimit",
          "type": "uint256"
        },
        {
          "internalType": "address",
          "name": "_withdrawer",
          "type": "address"
        },
        {
          "internalType": "uint256",
          "name": "_blockNumber",
          "type": "uint256"
        },
        {
          "internalType": "bytes",
          "name": "_rlpParentNodes",
          "type": "bytes"
        }
      ],
      "name": "confirmWithdraw",
      "outputs": [
        {
          "internalType": "bytes32",
          "name": "messageHash_",
          "type": "bytes32"
        }
      ],
      "payable": false,
      "stateMutability": "nonpayable",
      "type": "function"
    }
  ],
  "bytecode": "0x608060405234801561001057600080fd5b5061323c806100206000396000f3fe608060405234801561001057600080fd5b50600436106101fb5760003560e01c8063965ef01b1161011a578063d3a1dfb0116100ad578063efefe0eb1161007c578063efefe0eb146106fd578063f02a0e9014610705578063f0df1e731461070d578063f732ecff14610715578063fe08d8181461071d576101fb565b8063d3a1dfb0146105fd578063d4d11185146106af578063ddd335eb146106b7578063efa9c7c9146106f5576101fb565b8063b4907ddc116100e9578063b4907ddc14610576578063bd3623741461057e578063c9a29f3c1461059b578063d31b5968146105d7576101fb565b8063965ef01b146105325780639f0b7dfe1461053a578063ae6402851461056e578063b1c91e2114610576576101fb565b806337d9f199116101925780635ecec564116101615780635ecec564146104fd578063610ebfe2146105055780637ddcca1714610522578063928a735a1461052a576101fb565b806337d9f1991461045857806346e356b11461049e578063523ce242146104a65780635c1dc83a146104d7576101fb565b80631b41ef08116101ce5780631b41ef081461032157806320e1855f1461036157806321ea7ee1146103855780632fe05ad914610450576101fb565b806302de1ba91461020057806309bf5f38146102485780630e31eb601461026657806316ad76b8146102a4575b600080fd5b6102366004803603606081101561021657600080fd5b506001600160a01b03813581169160208101359160409091013516610725565b60408051918252519081900360200190f35b61025061078a565b6040805160ff9092168252519081900360200190f35b610236600480360360a081101561027c57600080fd5b50803590602081013590604081013590606081013590608001356001600160a01b031661079a565b6102ac6107b6565b6040805160208082528351818301528351919283929083019185019080838360005b838110156102e65781810151838201526020016102ce565b50505050905090810190601f1680156103135780820380516001836020036101000a031916815260200191505b509250505060405180910390f35b610236600480360360a081101561033757600080fd5b508035906001600160a01b0360208201358116916040810135916060820135916080013516610844565b610369610adf565b604080516001600160a01b039092168252519081900360200190f35b61044e6004803603606081101561039b57600080fd5b813591908101906040810160208201356401000000008111156103bd57600080fd5b8201836020820111156103cf57600080fd5b803590602001918460018302840111640100000000831117156103f157600080fd5b91939092909160208101903564010000000081111561040f57600080fd5b82018360208201111561042157600080fd5b8035906020019184600183028401116401000000008311171561044357600080fd5b509092509050610aee565b005b610236610bb0565b61044e600480360360a081101561046e57600080fd5b5080359060208101356001600160a01b03908116916040810135909116906060810135906080013560ff16610bcb565b610236610be9565b6104c3600480360360208110156104bc57600080fd5b5035610c04565b604080519115158252519081900360200190f35b610236600480360360208110156104ed57600080fd5b50356001600160a01b0316610c19565b610236610c2b565b6102366004803603602081101561051b57600080fd5b5035610c31565b610236610c43565b610250610c52565b610369610c57565b6102366004803603606081101561055057600080fd5b508035906001600160a01b0360208201358116916040013516610c66565b6102ac610e25565b6102ac610e4b565b6104c36004803603602081101561059457600080fd5b5035610e68565b610236600480360360808110156105b157600080fd5b506001600160a01b03813581169160208101358216916040820135916060013516610e7d565b610236600480360360208110156105ed57600080fd5b50356001600160a01b0316610ee9565b610236600480360361012081101561061457600080fd5b6001600160a01b0382358116926020810135821692604082013592606083013581169260808101359260a08201359260c0830135169160e081013591810190610120810161010082013564010000000081111561067057600080fd5b82018360208201111561068257600080fd5b803590602001918460018302840111640100000000831117156106a457600080fd5b509092509050610efb565b61036961136a565b610236600480360360a08110156106cd57600080fd5b50803590602081013590604081013590606081013590608001356001600160a01b0316611379565b61023661138b565b6103696113a6565b6102366113b5565b6102366113bb565b6102366113d6565b6102506113f1565b6000604051808061303c60449139604080519182900360440182206020808401919091526001600160a01b03978816838301526060830196909652959093166080808501919091528551808503909101815260a0909301909452508051910120919050565b600d54600160a01b900460ff1681565b60006107ac86868686866002546113f6565b9695505050505050565b6009805460408051602060026001851615610100026000190190941693909304601f8101849004840282018401909252818152929183018282801561083c5780601f106108115761010080835404028352916020019161083c565b820191906000526020600020905b81548152906001019060200180831161081f57829003601f168201915b505050505081565b60006001600160a01b0382166108a1576040805162461bcd60e51b815260206004820152601960248201527f56616c756520746f6b656e206164647265737320697320302e00000000000000604482015290519081900360640190fd5b856108ea576040805162461bcd60e51b81526020600482015260146024820152732232b837b9b4ba1030b6b7bab73a1034b990181760611b604482015290519081900360640190fd5b6001600160a01b038516610941576040805162461bcd60e51b81526020600482015260196024820152782132b732b334b1b4b0b93c9030b2323932b9b99034b990181760391b604482015290519081900360640190fd5b610951848463ffffffff6114a916565b861161098e5760405162461bcd60e51b8152600401808060200182810382526031815260200180612ef86031913960400191505060405180910390fd5b600061099b838888610725565b336000908152600460205260409020549091506109bf81600163ffffffff6114d916565b336000818152600460205260409020919091556109e39083908390899089906114eb565b604080516323b872dd60e01b8152336004820152306024820152604481018b905290519194506001600160a01b038616916323b872dd916064808201926020929091908290030181600087803b158015610a3c57600080fd5b505af1158015610a50573d6000803e3d6000fd5b505050506040513d6020811015610a6657600080fd5b505060408051898152602081018390526001600160a01b03808a168284015260608201899052608082018890523360a0830152861660c082015260e0810185905290517fcc8cd9d31dc321dff6e17fa5a97fe894c4bd3e74547fc141a928fe0e34f1ec60918190036101000190a1505095945050505050565b6007546001600160a01b031681565b610b628585858080601f01602080910402602001604051908101604052809392919081815260200183838082843760009201919091525050604080516020601f8901819004810282018101909252878152925087915086908190840183828082843760009201919091525061157392505050565b600354604080516001600160a01b0390921682526020820187905280517fb73458fd9d18500409beead43bcd51b06626f19116a5e1f7a094d03e1b55538d9281900390910190a15050505050565b604051806036612f8282396036019050604051809103902081565b610bd58585611583565b610be285858386866116b0565b5050505050565b604051806060612fdc82396060019050604051809103902081565b60016020526000908152604090205460ff1681565b600e6020526000908152604090205481565b600c5481565b600a6020526000908152604090205481565b6000610c4d611831565b905090565b600481565b6003546001600160a01b031681565b6000806040518080612f8260369139604080519182900360360182206020808401919091526001600160a01b0380891684840152871660608085019190915282518085039091018152608090930191829052825192019190912092509050806059612f298239605901905060405180910390206040518060400160405280600a8152602001694d6f736169632d42757360b01b815250604051806040016040528060018152602001600360fc1b8152508784604051602001808681526020018060200180602001858152602001848152602001838103835287818151815260200191508051906020019080838360005b83811015610d6e578181015183820152602001610d56565b50505050905090810190601f168015610d9b5780820380516001836020036101000a031916815260200191505b50838103825286518152865160209182019188019080838360005b83811015610dce578181015183820152602001610db6565b50505050905090810190601f168015610dfb5780820380516001836020036101000a031916815260200191505b50975050505050505050604051602081830303815290604052805190602001209150509392505050565b6040518060400160405280600a8152602001694d6f736169632d42757360b01b81525081565b604051806040016040528060018152602001600360fc1b81525081565b600b6020526000908152604090205460ff1681565b600060405180806130d4605a91396040805191829003605a0182206020808401919091526001600160a01b0398891683830152968816606083015260808201959095529590921660a0808701919091528351808703909101815260c09095019092525050815191012090565b60046020526000908152604090205481565b6000805a90506001600160a01b038c16610f5c576040805162461bcd60e51b815260206004820152601b60248201527f5574696c69747920546f6b656e206164647265737320697320302e0000000000604482015290519081900360640190fd5b6001600160a01b038b16610fb7576040805162461bcd60e51b815260206004820152601960248201527f56616c756520546f6b656e206164647265737320697320302e00000000000000604482015290519081900360640190fd5b89611001576040805162461bcd60e51b81526020600482015260156024820152742bb4ba34323930bb9030b6b7bab73a1034b990181760591b604482015290519081900360640190fd5b6001600160a01b038916611058576040805162461bcd60e51b81526020600482015260196024820152782132b732b334b1b4b0b93c9030b2323932b9b99034b990181760391b604482015290519081900360640190fd5b6001600160a01b0386166110b3576040805162461bcd60e51b815260206004820152601860248201527f57697468647261776572206164647265737320697320302e0000000000000000604482015290519081900360640190fd5b6001600160a01b0386166000908152600e60205260409020546110dd81600163ffffffff6114d916565b6001600160a01b0388166000908152600e60205260409020556111466111058d8f8e8e610e7d565b828b8b8b8b8b8b8080601f01602080910402602001604051908101604052809392919081815260200183838082843760009201919091525061185292505050565b9250600061115b5a849063ffffffff61192d16565b9050600061116a828c8c611942565b9050600061117e8e8363ffffffff61192d16565b90508e6001600160a01b031663a9059cbb33846040518363ffffffff1660e01b815260040180836001600160a01b03166001600160a01b0316815260200182815260200192505050602060405180830381600087803b1580156111e057600080fd5b505af11580156111f4573d6000803e3d6000fd5b505050506040513d602081101561120a57600080fd5b505161125d576040805162461bcd60e51b815260206004820152601d60248201527f526577617264207472616e73666572206d75737420737563636565642e000000604482015290519081900360640190fd5b8e6001600160a01b031663a9059cbb8e836040518363ffffffff1660e01b815260040180836001600160a01b03166001600160a01b0316815260200182815260200192505050602060405180830381600087803b1580156112bd57600080fd5b505af11580156112d1573d6000803e3d6000fd5b505050506040513d60208110156112e757600080fd5b50516113245760405162461bcd60e51b815260040180806020018281038252602f815260200180613080602f913960400191505060405180910390fd5b6040805187815290517fc284313c24cd3e8453e754bc471bb035ac32a3b58ff9a397d103519ddd720b009181900360200190a150505050509a9950505050505050505050565b6008546001600160a01b031681565b60006107ac8686868686600c546113f6565b60405180604461303c82396044019050604051809103902081565b600d546001600160a01b031681565b60025481565b60405180605a6130d48239605a019050604051809103902081565b604051806059612f2982396059019050604051809103902081565b600181565b6000806040518080612fdc606091396040805191829003606090810183206020808501919091528383019c909c52820199909952608081019790975250505060a08401929092526001600160a01b031660c0808401919091528351808403909101815260e083018452805190850120601960f81b610100840152604d60f81b6101018401526101028301919091526101228083019190915282518083039091018152610142909101909152805191012090565b6000826114b8575060006114d3565b828202828482816114c557fe5b04146114d057600080fd5b90505b92915050565b6000828201838110156114d057600080fd5b60006114fd86868686866002546113f6565b60008181526001602052604090205490915060ff161561154e5760405162461bcd60e51b81526004018080602001828103825260258152602001806130af6025913960400191505060405180910390fd5b6000818152600160208190526040909120805460ff1916909117905595945050505050565b61157e83838361197d565b505050565b600254156115d8576040805162461bcd60e51b815260206004820181905260248201527f4d657373616765206f7574626f7820697320616c72656164792073657475702e604482015290519081900360640190fd5b8161161f576040805162461bcd60e51b815260206004820152601260248201527126b2ba30b1b430b4b71034b21034b990181760711b604482015290519081900360640190fd5b6001600160a01b03811661167a576040805162461bcd60e51b815260206004820152601b60248201527f4d65737361676520696e626f78206164647265737320697320302e0000000000604482015290519081900360640190fd5b600380546001600160a01b0319166001600160a01b0383811691909117918290556116a9918491309116610c66565b6002555050565b600c5415611705576040805162461bcd60e51b815260206004820152601f60248201527f4d65737361676520696e626f7820697320616c72656164792073657475702e00604482015290519081900360640190fd5b8461174c576040805162461bcd60e51b815260206004820152601260248201527136b2ba30b1b430b4b71034b21034b990181760711b604482015290519081900360640190fd5b6001600160a01b03841661179e576040805162461bcd60e51b815260206004820152601460248201527327baba3137bc1030b2323932b9b99034b990181760611b604482015290519081900360640190fd5b6001600160a01b0382166117e35760405162461bcd60e51b815260040180806020018281038252602181526020018061314f6021913960400191505060405180910390fd5b600d80546001600160a01b0319166001600160a01b038681169190911760ff60a01b1916600160a01b60ff87160217918290556118239187911630610c66565b600c55610be2848383611bbe565b600060056006548154811061184257fe5b9060005260206000200154905090565b60006118648888888888600c546113f6565b6000818152600b602052604090205490915060ff16156118b55760405162461bcd60e51b81526004018080602001828103825260248152602001806131706024913960400191505060405180910390fd5b6000818152600b60205260409020805460ff19166001179055600d546060906118e890600160a01b900460ff1683611d49565b60408051600160f81b60208083019190915282518083036001018152602190920190925280519101209091506119219082908686611e1c565b50979650505050505050565b60008282111561193c57600080fd5b50900390565b6000818411156119635761195c838363ffffffff6114a916565b9050611976565b611973838563ffffffff6114a916565b90505b9392505050565b81516119ba5760405162461bcd60e51b8152600401808060200182810382526024815260200180612fb86024913960400191505060405180910390fd5b8051611a0d576040805162461bcd60e51b815260206004820152601f60248201527f4c656e677468206f6620524c5020706172656e74206e6f646573206973203000604482015290519081900360640190fd5b60085460408051631870032760e31b81526004810186905290516000926001600160a01b03169163c3801938916024808301926020929190829003018186803b158015611a5957600080fd5b505afa158015611a6d573d6000803e3d6000fd5b505050506040513d6020811015611a8357600080fd5b5051905080611ad9576040805162461bcd60e51b815260206004820152601b60248201527f537461746520726f6f74206d757374206e6f74206265207a65726f0000000000604482015290519081900360640190fd5b6000848152600a602052604090205480610be2576009805460408051602060026001851615610100026000190190941693909304601f8101849004840282018401909252818152600093611b8993899389939291830182828015611b7e5780601f10611b5357610100808354040283529160200191611b7e565b820191906000526020600020905b815481529060010190602001808311611b6157829003601f168201915b505050505086611f17565b6000878152600a60205260408120829055909150611ba687612032565b6000908152600a602052604081205550505050505050565b6008546001600160a01b031615611c15576040805162461bcd60e51b815260206004820152601660248201527529b2ba3ab81034b99030b63932b0b23c903237b7329760511b604482015290519081900360640190fd5b6001600160a01b038316611c70576040805162461bcd60e51b815260206004820152601d60248201527f53746f72616765206163636f756e74206164647265737320697320302e000000604482015290519081900360640190fd5b6001600160a01b038216611cb55760405162461bcd60e51b815260040180806020018281038252602181526020018061314f6021913960400191505060405180910390fd5b611cbe81612079565b600780546001600160a01b038086166001600160a01b0319928316179092556008805492851692909116919091179055604080516bffffffffffffffffffffffff19606086901b166020808301919091528251808303601401815260349092019092528051910120611d2f90612107565b8051611d4391600991602090910190612dfe565b50505050565b606080611d60611d5b60ff8616612107565b612131565b90506060611d70611d5b85612107565b90506060611d7e828461216c565b90506107ac816040516020018082805190602001908083835b60208310611db65780518252601f199092019160209182019101611d97565b6001836020036101000a038019825116818451168082178552505050505050905001915050604051602081830303815290604052805190602001206040516020018082815260200191505060405160208183030381529060405280519060200120612107565b8051611e6f576040805162461bcd60e51b815260206004820181905260248201527f4c656e677468206f6620524c5020706172656e74206e6f64657320697320302e604482015290519081900360640190fd5b6000828152600a602052604090205480611ed0576040805162461bcd60e51b815260206004820152601d60248201527f53746f7261676520726f6f74206d757374206e6f74206265207a65726f000000604482015290519081900360640190fd5b611edc848684846121e4565b610be25760405162461bcd60e51b815260040180806020018281038252602181526020018061312e6021913960400191505060405180910390fd5b6000611f21612e7c565b611f2a86612556565b90506060611f378261259f565b9050611f5681600281518110611f4957fe5b6020026020010151612651565b92506000876040516020018082805190602001908083835b60208310611f8d5780518252601f199092019160209182019101611f6e565b6001836020036101000a038019825116818451168082178552505050505050905001915050604051602081830303815290604052805190602001209050611fd6818789886121e4565b612027576040805162461bcd60e51b815260206004820152601e60248201527f4163636f756e742070726f6f66206973206e6f742076657269666965642e0000604482015290519081900360640190fd5b505050949350505050565b600061203c61265c565b60056006548154811061204b57fe5b906000526020600020015490508160056006548154811061206857fe5b600091825260209091200155919050565b600081116120b85760405162461bcd60e51b815260040180806020018281038252604d8152602001806131bb604d913960600191505060405180910390fd5b600554156120f75760405162461bcd60e51b81526004018080602001828103825260278152602001806131946027913960400191505060405180910390fd5b80612103600582612e96565b5050565b60408051602080825281830190925260609160208201818038833950505060208101929092525090565b60608082516020036040519080825280601f01601f191660200182016040528015612163576020820181803883390190505b50905061197681845b60606040519050825180825260208201818101602086015b8183101561219c578051835260209283019201612184565b50845184518101855292509050808201602085015b818310156121c95780518352602092830192016121b1565b50601f19601f87518501158301011660405250505092915050565b60006121ee612e7c565b6121f784612556565b905060606122048261259f565b9050606080856000826122168b612678565b905080516000141561223257600097505050505050505061254e565b60005b86518110156125455781518311156122585760009850505050505050505061254e565b61227487828151811061226757fe5b60200260200101516126f3565b9550856040516020018082805190602001908083835b602083106122a95780518252601f19909201916020918201910161228a565b6001836020036101000a0380198251168184511680821785525050505050509050019150506040516020818303038152906040528051906020012084146122fb5760009850505050505050505061254e565b61231787828151811061230a57fe5b602002602001015161259f565b94508451601114156124255781518314156123d2578c61233d8660108151811061226757fe5b6040516020018082805190602001908083835b6020831061236f5780518252601f199092019160209182019101612350565b6001836020036101000a0380198251168184511680821785525050505050509050019150506040516020818303038152906040528051906020012014156123c15760019850505050505050505061254e565b60009850505050505050505061254e565b60008284815181106123e057fe5b016020015160f81c90506010811115612405576000995050505050505050505061254e565b612417868260ff1681518110611f4957fe5b94506001840193505061253d565b8451600214156123c15760006124586124518760008151811061244457fe5b6020026020010151612743565b84866127a8565b90508251818501141561250d578d6124768760018151811061244457fe5b6040516020018082805190602001908083835b602083106124a85780518252601f199092019160209182019101612489565b6001836020036101000a0380198251168184511680821785525050505050509050019150506040516020818303038152906040528051906020012014156124fb576001995050505050505050505061254e565b6000995050505050505050505061254e565b80612524576000995050505050505050505061254e565b808401935061253986600181518110611f4957fe5b9450505b600101612235565b50505050505050505b949350505050565b61255e612e7c565b815180612580575050604080518082019091526000808252602082015261259a565b604080518082019091526020848101825281019190915290505b919050565b60606125aa82612939565b6125b357600080fd5b60006125be83612960565b9050806040519080825280602002602001820160405280156125fa57816020015b6125e7612e7c565b8152602001906001900390816125df5790505b509150612605612eba565b61260e846129ba565b905060005b61261c826129f1565b156126495761262a82612a10565b84828151811061263657fe5b6020908102919091010152600101612613565b505050919050565b60006114d382612a54565b600680546001019081905560055414156126765760006006555b565b606081516002026040519080825280601f01601f1916602001820160405280156126a9576020820181803883390190505b50905060005b81518110156126ed576126c28184612aa4565b8282815181106126ce57fe5b60200101906001600160f81b031916908160001a9053506001016126af565b50919050565b602081015160609080612706575061259a565b806040519080825280601f01601f191660200182016040528015612731576020820181803883390190505b5091506126ed83600001518383612b01565b606061274e82612b31565b61275757600080fd5b60008061276384612b57565b60408051828152601f19601f84011681016020019091529193509150818015612793576020820181803883390190505b5092506127a1828483612b01565b5050919050565b600060606127b585612bc7565b9050606081516040519080825280601f01601f1916602001820160405280156127e5576020820181803883390190505b509050835b8251850181101561283f57600086828151811061280357fe5b602001015160f81c60f81b905080838784038151811061281f57fe5b60200101906001600160f81b031916908160001a905350506001016127ea565b50806040516020018082805190602001908083835b602083106128735780518252601f199092019160209182019101612854565b6001836020036101000a03801982511681845116808217855250505050505090500191505060405160208183030381529060405280519060200120826040516020018082805190602001908083835b602083106128e15780518252601f1990920191602091820191016128c2565b6001836020036101000a03801982511681845116808217855250505050505090500191505060405160208183030381529060405280519060200120141561292b5781519250612930565b600092505b50509392505050565b60008160200151600014156129505750600061259a565b50515160c060009190911a101590565b600061296b82612939565b6129775750600061259a565b81518051600090811a919061298b85612cf3565b6020860151908301915082016000190160005b8183116107ac576129ae83612d71565b9092019160010161299e565b6129c2612eba565b6129cb82612939565b6129d457600080fd5b60006129df83612cf3565b83519383529092016020820152919050565b60006129fb612e7c565b50508051602080820151915192015191011190565b612a18612e7c565b612a21826129f1565b612a2a57600080fd5b60208201516000612a3a82612d71565b828452602080850182905292019390910192909252919050565b6000612a5f82612b31565b612a6857600080fd5b600080612a7484612b57565b90925090506020811180612a86575080155b15612a9057600080fd5b806020036101000a82510492505050919050565b60006002830615612ad5576010826002850481518110612ac057fe5b016020015160f81c81612acf57fe5b06612af7565b6010826002850481518110612ae657fe5b016020015160f81c81612af557fe5b045b60f81b9392505050565b6000601f820184602085015b82841015612b28578382015184820152602084019350612b0d565b50505050505050565b6000816020015160001415612b485750600061259a565b50515160c060009190911a1090565b600080612b6383612b31565b612b6c57600080fd5b8251805160001a906080821015612b8a57925060019150612bc29050565b60b8821015612ba85760018560200151039250806001019350612bbf565b602085015182820160b51901945082900360b60192505b50505b915091565b80516060901561259a57600080612bdf600085612aa4565b60f81c90506001811480612bf657508060ff166003145b15612c6e5760018451600202036040519080825280601f01601f191660200182016040528015612c2d576020820181803883390190505b5092506000612c3d600186612aa4565b90508084600081518110612c4d57fe5b60200101906001600160f81b031916908160001a9053506001925050612ca8565b60028451600202036040519080825280601f01601f191660200182016040528015612ca0576020820181803883390190505b509250600091505b60ff82165b835181101561264957612cc88360ff16820360020186612aa4565b848281518110612cd457fe5b60200101906001600160f81b031916908160001a905350600101612cad565b6000816020015160001415612d0a5750600061259a565b8151805160001a906080821015612d265760009250505061259a565b60b8821080612d41575060c08210158015612d41575060f882105b15612d515760019250505061259a565b60c0821015612d66575060b51901905061259a565b5060f5190192915050565b8051600090811a6080811015612d8a57600191506126ed565b60b8811015612d9f57607e19810191506126ed565b60c0811015612dc857600183015160b76020839003016101000a9004810160b5190191506126ed565b60f8811015612ddd5760be19810191506126ed565b6001929092015160f76020849003016101000a900490910160f51901919050565b828054600181600116156101000203166002900490600052602060002090601f016020900481019282601f10612e3f57805160ff1916838001178555612e6c565b82800160010185558215612e6c579182015b82811115612e6c578251825591602001919060010190612e51565b50612e78929150612eda565b5090565b604051806040016040528060008152602001600081525090565b81548183558181111561157e5760008381526020902061157e918101908301612eda565b6040518060400160405280612ecd612e7c565b8152602001600081525090565b612ef491905b80821115612e785760008155600101612ee0565b9056fe4465706f73697420616d6f756e742073686f756c642062652067726561746572207468616e206d6178207265776172642e4d6f736169634d65737361676542757328737472696e67206e616d652c737472696e672076657273696f6e2c62797465733332206d657461636861696e49642c62797465733332206368616e6e656c536570617261746f72294d6f736169634d6573736167654275734368616e6e656c2861646472657373206f7574626f782c206164647265737320696e626f78294c656e677468206f6620524c50206163636f756e74206d757374206e6f7420626520302e4d657373616765286279746573333220696e74656e74486173682c75696e74323536206e6f6e63652c75696e743235362066656547617350726963652c75696e74323536206665654761734c696d69742c616464726573732073656e646572294465706f736974496e74656e7428616464726573732076616c7565546f6b656e2c75696e7432353620616d6f756e742c616464726573732062656e656669636961727929546f6b656e207472616e7366657220746f207468652062656e6566696369617279206d75737420737563636565642e4d65737361676520616c72656164792065786973747320696e20746865206f7574626f782e5769746864726177496e74656e7428616464726573732076616c7565546f6b656e2c61646472657373207574696c697479546f6b656e2c75696e7432353620616d6f756e742c616464726573732062656e6566696369617279294d65726b6c652070726f6f6620766572696669636174696f6e206661696c65642e537461746520726f6f742070726f7669646572206164647265737320697320302e4d65737361676520616c72656164792065786973747320696e2074686520696e626f782e43697263756c6172206275666665722073697a652063616e206265207365747570206f6e63652e546865206d6178206e756d626572206f66206974656d7320746f2073746f726520696e20612063697263756c617220627566666572206d7573742062652067726561746572207468616e20302ea265627a7a723158208446cef76f502782e3c16adbd505fa4395515229ac3b8f64eb5a68e8f52b18c264736f6c634300050d0032",
  "source": "pragma solidity >=0.5.0 <0.6.0;\n\n// Copyright 2020 OpenST Ltd.\n//\n// Licensed under the Apache License, Version 2.0 (the \"License\");\n// you may not use this file except in compliance with the License.\n// You may obtain a copy of the License at\n//\n//    http://www.apache.org/licenses/LICENSE-2.0\n//\n// Unless required by applicable law or agreed to in writing, software\n// distributed under the License is distributed on an \"AS IS\" BASIS,\n// WITHOUT WARRANTIES OR CONDITIONS OF ANY KIND, either express or implied.\n// See the License for the specific language governing permissions and\n// limitations under the License.\n\nimport \"./ERC20GatewayBase.sol\";\nimport \"../ERC20I.sol\";\nimport \"../message-bus/MessageBus.sol\";\nimport \"../proxies/MasterCopyNonUpgradable.sol\";\n\n/**\n * @title ERC20Gateway Contract.\n *\n * @notice ERC20Gateway contract is used to move any ERC20 tokens between two\n *         chains.\n */\ncontract ERC20Gateway is MasterCopyNonUpgradable, MessageBus, ERC20GatewayBase {\n\n    /* Events */\n\n    /** Emitted when deposit intent is declared. */\n    event DepositIntentDeclared(\n        uint256 amount,\n        uint256 nonce,\n        address beneficiary,\n        uint256 feeGasPrice,\n        uint256 feeGasLimit,\n        address depositor,\n        address valueToken,\n        bytes32 messageHash\n    );\n\n    /** Emitted when withdraw intent is confirmed. */\n    event WithdrawIntentConfirmed(bytes32 messageHash);\n\n\n    /* Constants */\n\n    /** Storage offset of message outbox. */\n    uint8 constant public OUTBOX_OFFSET = uint8(1);\n\n    /** Storage offset of message inbox. */\n    uint8 constant public INBOX_OFFSET = uint8(4);\n\n\n    /* External Functions */\n\n    /**\n     * @notice Setup function for ERC20 gateway contract.\n     *\n     * @dev  Validations for input parameters are done in message outbox and\n     *       message inbox setup method.\n     *\n     * @param _metachainId Metachain Id.\n     * @param _erc20Cogateway Address of ERC20 Cogateway contract.\n     * @param _stateRootProvider State root provider contract address.\n     * @param _maxStorageRootItems Maximum number of storage roots stored.\n     * @param _outboxStorageIndex Outbox storage index of ERC20 Cogateway.\n     *\n     * \\pre  This function can only be called once. It's ensured by setup\n     *       function of message outbox and inbox.\n     *\n     * \\post Setup message outbox and updates outboundChannelIdentifier storage\n     *       variable.\n     * \\post Setup message inbox and updates inboundChannelIdentifier storage\n     *       variable.\n     */\n    function setup(\n        bytes32 _metachainId,\n        address _erc20Cogateway,\n        StateRootInterface _stateRootProvider,\n        uint256 _maxStorageRootItems,\n        uint8 _outboxStorageIndex\n    )\n        external\n    {\n        MessageOutbox.setupMessageOutbox(\n            _metachainId,\n            _erc20Cogateway\n        );\n\n        MessageInbox.setupMessageInbox(\n            _metachainId,\n            _erc20Cogateway,\n            _outboxStorageIndex,\n            _stateRootProvider,\n            _maxStorageRootItems\n        );\n    }\n\n    /**\n     * @notice This method verifies merkle proof of ERC20Cogateway contract.\n     *\n     * @param _blockNumber Block number at which ERC20Cogateway contract\n     *                     address is to be proven.\n     * @param _rlpAccount RLP encoded account node object.\n     * @param _rlpParentNodes RLP encoded value of account proof node array.\n     *\n     * \\post Calls `MessageInbox.proveStorageAccount()` function with\n     *       `_blockNumber`, `_rlpAccount`, `_rlpParentNodes` as input\n     *       parameters.\n     * \\post Emits `GatewayProven` event with the address of `messageInbox`\n     *       and `_blockNumber` parameters.\n     */\n    function proveGateway(\n        uint256 _blockNumber,\n        bytes calldata _rlpAccount,\n        bytes calldata _rlpParentNodes\n    )\n        external\n    {\n        MessageInbox.proveStorageAccount(\n            _blockNumber,\n            _rlpAccount,\n            _rlpParentNodes\n        );\n\n        emit GatewayProven(messageInbox, _blockNumber);\n    }\n\n    /**\n     * @notice Gets the remote gateway latest proven block number.\n     *\n     * @return blockNumber_ Remote gateway latest proven block number.\n     */\n    function getRemoteGatewayLatestProvenBlockNumber()\n        external\n        view\n        returns (uint256 blockNumber_)\n    {\n        blockNumber_ = CircularBufferUint.head();\n    }\n\n    /**\n     * @notice Deposit ERC20 token to mint utility token on the auxiliary chain.\n     *\n     * @param _amount Amount of token to be deposited in atto\n     * @param _beneficiary Address of beneficiary on the auxiliary chain.\n     * @param _feeGasPrice Gas price at which fee will be calculated.\n     * @param _feeGasLimit Gas limit at which fee will be capped.\n     * @param _valueToken Address of ERC20 token.\n     *\n     * @return messageHash_ Message hash.\n     *\n     * \\pre  `msg.sender` should approve this contract for `_amount` number of\n     *       token transfer.\n     * \\pre  `_valueToken` address must not be zero.\n     * \\pre  `_amount` should be greater than max reward. Max reward is\n     *       calculated as `_feeGasPrice.mul(_feeGasLimit),`\n     * \\pre  `_beneficiary` address must not be zero.\n     *\n     * \\post Adds a new entry in `outbox` mapping storage variable. The value is\n     *       set as `true` for `messageHash_` in `outbox` mapping. The\n     *       `messageHash_` is obtained by calling\n     *       `MessageOutbox.declareMessage` with the parameters `depositIntentHash`,\n     *      `MessageOutbox.outboxNonces[msg.sender]`,`_feeGasPrice`,\n     *       `_feeGasLimit`,`msg.sender`. depositIntentHash is calculated by\n     *       calling `ERC20GatewayBase.hashDepositIntent()` with `_valueToken`,\n     *       `_amount` and `_beneficiary` as input parameters.\n     * \\post Updates the `MessageOutbox.outboxNonces` storage mapping variable\n     *       by incrementing the value for `msg.sender` by one.\n     * \\post Transfers `_amount` of tokens from `msg.sender` to ERC20Gateway contract.\n     * \\post Emits `DepositIntentDeclared` event with the address of `messageHash_`,\n     *       `_valueToken`, `msg.sender`, `_amount`, `nonce`, `_beneficiary`,\n     *       `_feeGasPrice` and `_feeGasLimit` parameters.\n     */\n    function deposit(\n        uint256 _amount,\n        address _beneficiary,\n        uint256 _feeGasPrice,\n        uint256 _feeGasLimit,\n        address _valueToken\n    )\n        external\n        returns (bytes32 messageHash_)\n    {\n        require(\n            _valueToken != address(0),\n            \"Value token address is 0.\"\n        );\n        require(\n            _amount != 0,\n            \"Deposit amount is 0.\"\n        );\n        require(\n            _beneficiary != address(0),\n            \"Beneficiary address is 0.\"\n        );\n        require(\n            _amount > _feeGasPrice.mul(_feeGasLimit),\n            \"Deposit amount should be greater than max reward.\"\n        );\n\n        bytes32 depositIntentHash = hashDepositIntent(\n            _valueToken,\n            _amount,\n            _beneficiary\n        );\n\n        uint256 nonce = MessageOutbox.outboxNonces[msg.sender];\n        MessageOutbox.outboxNonces[msg.sender] = nonce.add(1);\n\n        messageHash_ = MessageOutbox.declareMessage(\n            depositIntentHash,\n            nonce,\n            _feeGasPrice,\n            _feeGasLimit,\n            msg.sender\n        );\n\n        ERC20I(_valueToken).transferFrom(msg.sender, address(this), _amount);\n\n        emit DepositIntentDeclared(\n            _amount,\n            nonce,\n            _beneficiary,\n            _feeGasPrice,\n            _feeGasLimit,\n            msg.sender,\n            _valueToken,\n            messageHash_\n        );\n    }\n\n    /**\n     * @notice Confirm withdraw in order to transfer value token.\n     *\n     * @param _utilityToken Address of utility token contract.\n     * @param _valueToken Address of value token contract.\n     * @param _amount Value token amount for withdrawal.\n     * @param _beneficiary Address of beneficiary where tokens will be withdrawn.\n     * @param _feeGasPrice Gas price at which fee will be calculated.\n     * @param _feeGasLimit Gas limit at which fee will be capped.\n     *\n     * @param _blockNumber Block number of auxiliary chain against which storage\n                           proof is generated.\n     * @param _withdrawer Address of the withdrawer account.\n     * @param _rlpParentNodes Storage merkle proof to verify message declaration\n                              on the origin chain.\n     *\n     * @return messageHash_ Message hash.\n     *\n     * \\pre `_utilityToken` address is not 0.\n     * \\pre `_valueToken` address is not 0.\n     * \\pre `_amount` is not 0.\n     * \\pre `_beneficiary` address is not 0.\n     * \\pre `_withdrawer` address is not 0.\n     * \\pre `_rlpParentNodes` is not 0.\n     *\n     * \\post Adds a new entry in `inbox` mapping storage variable. The value is\n     *       set as `true` for `messagehash_` in `inbox` mapping. The\n     *       `messageHash_` is calculated by `MessageInbox.confirmMessage`.\n     * \\post Transfers the tokens to the `msg.sender` address as a fees.\n     *       The `fees` amount is calculated by calling\n     *       `ERC20GatewayBase::reward()` with parameters `gasConsumed`,\n     *       `_feeGasPrice` and `_feeGasLimit`. `gasConsumed` is the approximate\n     *       gas used in this transaction.\n     * \\post Transfer the `_amount-fees` amount of token to the `_beneficiary`\n     *       address.\n     * \\post Update the MessageInbox.inboxNonces storage mapping variable by\n     *       incrementing the value for `_withdrawer` by one.\n     * \\post Emits `WithdrawIntentConfirmed` event with the `messageHash_` parameter.\n     */\n    function confirmWithdraw(\n        address _utilityToken,\n        address _valueToken,\n        uint256 _amount,\n        address _beneficiary,\n        uint256 _feeGasPrice,\n        uint256 _feeGasLimit,\n        address _withdrawer,\n        uint256 _blockNumber,\n        bytes calldata _rlpParentNodes\n    )\n        external\n        returns (bytes32 messageHash_)\n    {\n        uint256 initialGas = gasleft();\n        require(\n            _utilityToken != address(0),\n            \"Utility Token address is 0.\"\n        );\n        require(\n            _valueToken != address(0),\n            \"Value Token address is 0.\"\n        );\n        require(\n            _amount != 0,\n            \"Withdraw amount is 0.\"\n        );\n        require(\n            _beneficiary != address(0),\n            \"Beneficiary address is 0.\"\n        );\n        require(\n            _withdrawer != address(0),\n            \"Withdrawer address is 0.\"\n        );\n\n        uint256 nonce = MessageInbox.inboxNonces[_withdrawer];\n        MessageInbox.inboxNonces[_withdrawer] = nonce.add(1);\n\n        messageHash_ = MessageInbox.confirmMessage(\n            ERC20GatewayBase.hashWithdrawIntent(\n                _valueToken,\n                _utilityToken,\n                _amount,\n                _beneficiary\n            ),\n            nonce,\n            _feeGasPrice,\n            _feeGasLimit,\n            _withdrawer,\n            _blockNumber,\n            _rlpParentNodes\n        );\n\n        uint256 gasConsumed = initialGas.sub(gasleft());\n        uint256 feeAmount = ERC20GatewayBase.reward(\n            gasConsumed,\n            _feeGasPrice,\n            _feeGasLimit\n        );\n        uint256 withdrawAmount = _amount.sub(feeAmount);\n\n        require(\n            ERC20I(_valueToken).transfer(msg.sender, feeAmount),\n            \"Reward transfer must succeed.\"\n        );\n        require(\n            ERC20I(_valueToken).transfer(_beneficiary, withdrawAmount),\n            \"Token transfer to the beneficiary must succeed.\"\n        );\n\n        emit WithdrawIntentConfirmed(messageHash_);\n    }\n}\n",
  "sourcePath": "/Users/abhay/Documents/projects/abhayforks/mosaic-1/contracts/erc20-gateway/ERC20Gateway.sol",
  "compiler": {
    "name": "solc",
    "version": "0.5.13+commit.5b0b510c.Emscripten.clang"
  },
  "schemaVersion": "3.0.17",
  "updatedAt": "2020-03-21T06:48:34.702Z",
  "devdoc": {
    "methods": {
      "confirmWithdraw(address,address,uint256,address,uint256,uint256,address,uint256,bytes)": {
        "params": {
          "_amount": "Value token amount for withdrawal.",
          "_beneficiary": "Address of beneficiary where tokens will be withdrawn.",
          "_blockNumber": "Block number of auxiliary chain against which storage proof is generated.",
          "_feeGasLimit": "Gas limit at which fee will be capped.",
          "_feeGasPrice": "Gas price at which fee will be calculated.",
          "_rlpParentNodes": "Storage merkle proof to verify message declaration on the origin chain.",
          "_utilityToken": "Address of utility token contract.",
          "_valueToken": "Address of value token contract.",
          "_withdrawer": "Address of the withdrawer account."
        },
        "return": "messageHash_ Message hash.     * \\pre `_utilityToken` address is not 0. \\pre `_valueToken` address is not 0. \\pre `_amount` is not 0. \\pre `_beneficiary` address is not 0. \\pre `_withdrawer` address is not 0. \\pre `_rlpParentNodes` is not 0.     * \\post Adds a new entry in `inbox` mapping storage variable. The value is      set as `true` for `messagehash_` in `inbox` mapping. The      `messageHash_` is calculated by `MessageInbox.confirmMessage`. \\post Transfers the tokens to the `msg.sender` address as a fees.      The `fees` amount is calculated by calling      `ERC20GatewayBase::reward()` with parameters `gasConsumed`,      `_feeGasPrice` and `_feeGasLimit`. `gasConsumed` is the approximate      gas used in this transaction. \\post Transfer the `_amount-fees` amount of token to the `_beneficiary`      address. \\post Update the MessageInbox.inboxNonces storage mapping variable by      incrementing the value for `_withdrawer` by one. \\post Emits `WithdrawIntentConfirmed` event with the `messageHash_` parameter."
      },
      "deposit(uint256,address,uint256,uint256,address)": {
        "params": {
          "_amount": "Amount of token to be deposited in atto",
          "_beneficiary": "Address of beneficiary on the auxiliary chain.",
          "_feeGasLimit": "Gas limit at which fee will be capped.",
          "_feeGasPrice": "Gas price at which fee will be calculated.",
          "_valueToken": "Address of ERC20 token."
        },
        "return": "messageHash_ Message hash.     * \\pre  `msg.sender` should approve this contract for `_amount` number of      token transfer. \\pre  `_valueToken` address must not be zero. \\pre  `_amount` should be greater than max reward. Max reward is      calculated as `_feeGasPrice.mul(_feeGasLimit),` \\pre  `_beneficiary` address must not be zero.     * \\post Adds a new entry in `outbox` mapping storage variable. The value is      set as `true` for `messageHash_` in `outbox` mapping. The      `messageHash_` is obtained by calling      `MessageOutbox.declareMessage` with the parameters `depositIntentHash`,     `MessageOutbox.outboxNonces[msg.sender]`,`_feeGasPrice`,      `_feeGasLimit`,`msg.sender`. depositIntentHash is calculated by      calling `ERC20GatewayBase.hashDepositIntent()` with `_valueToken`,      `_amount` and `_beneficiary` as input parameters. \\post Updates the `MessageOutbox.outboxNonces` storage mapping variable      by incrementing the value for `msg.sender` by one. \\post Transfers `_amount` of tokens from `msg.sender` to ERC20Gateway contract. \\post Emits `DepositIntentDeclared` event with the address of `messageHash_`,      `_valueToken`, `msg.sender`, `_amount`, `nonce`, `_beneficiary`,      `_feeGasPrice` and `_feeGasLimit` parameters."
      },
      "getRemoteGatewayLatestProvenBlockNumber()": {
        "return": "blockNumber_ Remote gateway latest proven block number."
      },
      "hashChannelIdentifier(bytes32,address,address)": {
        "params": {
          "_inbox": "Inbox address.",
          "_metachainId": "Metachain identifier.",
          "_outbox": "Outbox address."
        }
      },
      "hashDepositIntent(address,uint256,address)": {
        "params": {
          "_amount": "Amount of tokens.",
          "_beneficiary": "Beneficiary address.",
          "_valueToken": "Value token Address."
        },
        "return": "depositIntentHash_ Hash of deposit intent."
      },
      "hashWithdrawIntent(address,address,uint256,address)": {
        "params": {
          "_amount": "Amount of tokens.",
          "_beneficiary": "Beneficiary address.",
          "_utilityToken": "Utility token address.",
          "_valueToken": "Value token address."
        },
        "return": "withdrawIntentHash_ Hash of withdraw intent."
      },
      "inboxMessageHash(bytes32,uint256,uint256,uint256,address)": {
        "params": {
          "_feeGasLimit": "Fee gas limit.",
          "_feeGasPrice": "Fee gas price.",
          "_intentHash": "Intent hash of message.",
          "_nonce": "Nonce of sender.",
          "_sender": "Sender address."
        },
        "return": "messageHash_ Message hash."
      },
      "outboxMessageHash(bytes32,uint256,uint256,uint256,address)": {
        "params": {
          "_feeGasLimit": "Fee gas limit.",
          "_feeGasPrice": "Fee gas price.",
          "_intentHash": "Intent hash of message.",
          "_nonce": "Nonce of sender.",
          "_sender": "Sender address."
        },
        "return": "messageHash_ Message hash."
      },
      "proveGateway(uint256,bytes,bytes)": {
        "params": {
          "_blockNumber": "Block number at which ERC20Cogateway contract                    address is to be proven.",
          "_rlpAccount": "RLP encoded account node object.",
          "_rlpParentNodes": "RLP encoded value of account proof node array.     * \\post Calls `MessageInbox.proveStorageAccount()` function with      `_blockNumber`, `_rlpAccount`, `_rlpParentNodes` as input      parameters. \\post Emits `GatewayProven` event with the address of `messageInbox`      and `_blockNumber` parameters."
        }
      },
      "setup(bytes32,address,address,uint256,uint8)": {
        "details": "Validations for input parameters are done in message outbox and      message inbox setup method.",
        "params": {
          "_erc20Cogateway": "Address of ERC20 Cogateway contract.",
          "_maxStorageRootItems": "Maximum number of storage roots stored.",
          "_metachainId": "Metachain Id.",
          "_outboxStorageIndex": "Outbox storage index of ERC20 Cogateway.     * \\pre  This function can only be called once. It's ensured by setup      function of message outbox and inbox.     * \\post Setup message outbox and updates outboundChannelIdentifier storage      variable. \\post Setup message inbox and updates inboundChannelIdentifier storage      variable.",
          "_stateRootProvider": "State root provider contract address."
        }
      }
    },
    "title": "ERC20Gateway Contract."
  },
  "userdoc": {
    "methods": {
      "confirmWithdraw(address,address,uint256,address,uint256,uint256,address,uint256,bytes)": {
        "notice": "Confirm withdraw in order to transfer value token."
      },
      "deposit(uint256,address,uint256,uint256,address)": {
        "notice": "Deposit ERC20 token to mint utility token on the auxiliary chain."
      },
      "getRemoteGatewayLatestProvenBlockNumber()": {
        "notice": "Gets the remote gateway latest proven block number."
      },
      "hashChannelIdentifier(bytes32,address,address)": {
        "notice": "Generate channel identifier hash from the input params"
      },
      "hashDepositIntent(address,uint256,address)": {
        "notice": "It returns hash of deposit intent."
      },
      "hashWithdrawIntent(address,address,uint256,address)": {
        "notice": "It returns hash of withdraw intent."
      },
      "inboxMessageHash(bytes32,uint256,uint256,uint256,address)": {
        "notice": "Generate inbox message hash from the input params"
      },
      "outboxMessageHash(bytes32,uint256,uint256,uint256,address)": {
        "notice": "Generate outbox message hash from the input params"
      },
      "proveGateway(uint256,bytes,bytes)": {
        "notice": "This method verifies merkle proof of ERC20Cogateway contract."
      },
      "setup(bytes32,address,address,uint256,uint8)": {
        "notice": "Setup function for ERC20 gateway contract."
      }
    },
    "notice": "ERC20Gateway contract is used to move any ERC20 tokens between two        chains."
  }
}