{
  "contractName": "ERC20GatewayBase",
  "abi": [
    {
      "anonymous": false,
      "inputs": [
        {
          "indexed": false,
          "internalType": "address",
          "name": "remoteGateway",
          "type": "address"
        },
        {
          "indexed": false,
          "internalType": "uint256",
          "name": "blockNumber",
          "type": "uint256"
        }
      ],
      "name": "GatewayProven",
      "type": "event"
    },
    {
      "constant": true,
      "inputs": [],
      "name": "DEPOSIT_INTENT_TYPEHASH",
      "outputs": [
        {
          "internalType": "bytes32",
          "name": "",
          "type": "bytes32"
        }
      ],
      "payable": false,
      "stateMutability": "view",
      "type": "function"
    },
    {
      "constant": true,
      "inputs": [],
      "name": "WITHDRAW_INTENT_TYPEHASH",
      "outputs": [
        {
          "internalType": "bytes32",
          "name": "",
          "type": "bytes32"
        }
      ],
      "payable": false,
      "stateMutability": "view",
      "type": "function"
    },
    {
      "constant": true,
      "inputs": [
        {
          "internalType": "address",
          "name": "_valueToken",
          "type": "address"
        },
        {
          "internalType": "uint256",
          "name": "_amount",
          "type": "uint256"
        },
        {
          "internalType": "address",
          "name": "_beneficiary",
          "type": "address"
        }
      ],
      "name": "hashDepositIntent",
      "outputs": [
        {
          "internalType": "bytes32",
          "name": "depositIntentHash_",
          "type": "bytes32"
        }
      ],
      "payable": false,
      "stateMutability": "pure",
      "type": "function"
    },
    {
      "constant": true,
      "inputs": [
        {
          "internalType": "address",
          "name": "_valueToken",
          "type": "address"
        },
        {
          "internalType": "address",
          "name": "_utilityToken",
          "type": "address"
        },
        {
          "internalType": "uint256",
          "name": "_amount",
          "type": "uint256"
        },
        {
          "internalType": "address",
          "name": "_beneficiary",
          "type": "address"
        }
      ],
      "name": "hashWithdrawIntent",
      "outputs": [
        {
          "internalType": "bytes32",
          "name": "withdrawIntentHash_",
          "type": "bytes32"
        }
      ],
      "payable": false,
      "stateMutability": "pure",
      "type": "function"
    }
  ],
  "bytecode": "0x608060405234801561001057600080fd5b506102bf806100206000396000f3fe608060405234801561001057600080fd5b506004361061004c5760003560e01c806302de1ba914610051578063c9a29f3c14610099578063efa9c7c9146100d5578063f0df1e73146100dd575b600080fd5b6100876004803603606081101561006757600080fd5b506001600160a01b038135811691602081013591604090910135166100e5565b60408051918252519081900360200190f35b610087600480360360808110156100af57600080fd5b506001600160a01b0381358116916020810135821691604082013591606001351661014a565b6100876101b6565b6100876101d1565b600060405180806101ed60449139604080519182900360440182206020808401919091526001600160a01b03978816838301526060830196909652959093166080808501919091528551808503909101815260a0909301909452508051910120919050565b60006040518080610231605a91396040805191829003605a0182206020808401919091526001600160a01b0398891683830152968816606083015260808201959095529590921660a0808701919091528351808703909101815260c09095019092525050815191012090565b6040518060446101ed82396044019050604051809103902081565b60405180605a6102318239605a01905060405180910390208156fe4465706f736974496e74656e7428616464726573732076616c7565546f6b656e2c75696e7432353620616d6f756e742c616464726573732062656e6566696369617279295769746864726177496e74656e7428616464726573732076616c7565546f6b656e2c61646472657373207574696c697479546f6b656e2c75696e7432353620616d6f756e742c616464726573732062656e656669636961727929a265627a7a72315820d93401c3599a56baaf4f46a6166639a140d3f3428ed9930b7370e0dea9b52eee64736f6c634300050d0032",
  "source": "pragma solidity >=0.5.0 <0.6.0;\n\n// Copyright 2019 OpenST Ltd.\n//\n// Licensed under the Apache License, Version 2.0 (the \"License\");\n// you may not use this file except in compliance with the License.\n// You may obtain a copy of the License at\n//\n//    http://www.apache.org/licenses/LICENSE-2.0\n//\n// Unless required by applicable law or agreed to in writing, software\n// distributed under the License is distributed on an \"AS IS\" BASIS,\n// WITHOUT WARRANTIES OR CONDITIONS OF ANY KIND, either express or implied.\n// See the License for the specific language governing permissions and\n// limitations under the License.\n\nimport \"openzeppelin-solidity/contracts/math/SafeMath.sol\";\n\ncontract ERC20GatewayBase {\n\n    /* Usings */\n\n    using SafeMath for uint256;\n\n\n    /* Events */\n\n    /** Emitted when the remote gateway contract address is proven. */\n    event GatewayProven(address remoteGateway, uint256 blockNumber);\n\n\n    /* Constants */\n\n    bytes32 constant public DEPOSIT_INTENT_TYPEHASH = keccak256(\n        \"DepositIntent(address valueToken,uint256 amount,address beneficiary)\"\n    );\n\n    bytes32 constant public WITHDRAW_INTENT_TYPEHASH = keccak256(\n        \"WithdrawIntent(address valueToken,address utilityToken,uint256 amount,address beneficiary)\"\n    );\n\n\n    /* Public functions */\n\n    /**\n     * @notice It returns hash of deposit intent.\n     *\n     * @param _valueToken Value token Address.\n     * @param _amount Amount of tokens.\n     * @param _beneficiary Beneficiary address.\n     *\n     * @return depositIntentHash_ Hash of deposit intent.\n     */\n    function hashDepositIntent(\n        address _valueToken,\n        uint256 _amount,\n        address _beneficiary\n    )\n        public\n        pure\n        returns (bytes32 depositIntentHash_)\n    {\n        depositIntentHash_ = keccak256(\n            abi.encode(\n                DEPOSIT_INTENT_TYPEHASH,\n                _valueToken,\n                _amount,\n                _beneficiary\n            )\n        );\n    }\n\n\n    /**\n     * @notice It returns hash of withdraw intent.\n     *\n     * @param _valueToken Value token address.\n     * @param _utilityToken Utility token address.\n     * @param _amount Amount of tokens.\n     * @param _beneficiary Beneficiary address.\n     *\n     * @return withdrawIntentHash_ Hash of withdraw intent.\n     */\n    function hashWithdrawIntent(\n        address _valueToken,\n        address _utilityToken,\n        uint256 _amount,\n        address _beneficiary\n    )\n        public\n        pure\n        returns (bytes32 withdrawIntentHash_)\n    {\n        withdrawIntentHash_ = keccak256(\n            abi.encode(\n                WITHDRAW_INTENT_TYPEHASH,\n                _valueToken,\n                _utilityToken,\n                _amount,\n                _beneficiary\n            )\n        );\n    }\n\n\n    /* Internal functions */\n\n    /**\n     * @notice Calculates reward.\n     *\n     * @param _gasConsumed Gas consumption in a transaction.\n     * @param _feeGasPrice Gas price at which fee will be calculated.\n     * @param _feeGasLimit Gas limit at which fee will be capped.\n     *\n     * @return rewardAmount_ Total reward amount.\n     */\n    function reward(\n        uint256 _gasConsumed,\n        uint256 _feeGasPrice,\n        uint256 _feeGasLimit\n    )\n        internal\n        pure\n        returns(uint256 rewardAmount_)\n    {\n        if(_gasConsumed > _feeGasLimit) {\n            rewardAmount_ = _feeGasPrice.mul(_feeGasLimit);\n        } else {\n            rewardAmount_ = _feeGasPrice.mul(_gasConsumed);\n        }\n    }\n}\n",
  "sourcePath": "/Users/abhay/Documents/projects/abhayforks/mosaic-1/contracts/erc20-gateway/ERC20GatewayBase.sol",
  "compiler": {
    "name": "solc",
    "version": "0.5.13+commit.5b0b510c.Emscripten.clang"
  },
  "schemaVersion": "3.0.17",
  "updatedAt": "2020-03-21T06:48:34.707Z",
  "devdoc": {
    "methods": {
      "hashDepositIntent(address,uint256,address)": {
        "params": {
          "_amount": "Amount of tokens.",
          "_beneficiary": "Beneficiary address.",
          "_valueToken": "Value token Address."
        },
        "return": "depositIntentHash_ Hash of deposit intent."
      },
      "hashWithdrawIntent(address,address,uint256,address)": {
        "params": {
          "_amount": "Amount of tokens.",
          "_beneficiary": "Beneficiary address.",
          "_utilityToken": "Utility token address.",
          "_valueToken": "Value token address."
        },
        "return": "withdrawIntentHash_ Hash of withdraw intent."
      }
    }
  },
  "userdoc": {
    "methods": {
      "hashDepositIntent(address,uint256,address)": {
        "notice": "It returns hash of deposit intent."
      },
      "hashWithdrawIntent(address,address,uint256,address)": {
        "notice": "It returns hash of withdraw intent."
      }
    }
  }
}