{
  "contractName": "ERC20CogatewayDouble",
  "abi": [
    {
      "anonymous": false,
      "inputs": [
        {
          "indexed": false,
          "internalType": "bytes32",
          "name": "messageHash",
          "type": "bytes32"
        }
      ],
      "name": "DepositIntentConfirmed",
      "type": "event"
    },
    {
      "anonymous": false,
      "inputs": [
        {
          "indexed": false,
          "internalType": "address",
          "name": "remoteGateway",
          "type": "address"
        },
        {
          "indexed": false,
          "internalType": "uint256",
          "name": "blockNumber",
          "type": "uint256"
        }
      ],
      "name": "GatewayProven",
      "type": "event"
    },
    {
      "anonymous": false,
      "inputs": [
        {
          "indexed": false,
          "internalType": "contract Proxy",
          "name": "proxy",
          "type": "address"
        }
      ],
      "name": "ProxyCreation",
      "type": "event"
    },
    {
      "anonymous": false,
      "inputs": [
        {
          "indexed": false,
          "internalType": "address",
          "name": "valueToken",
          "type": "address"
        },
        {
          "indexed": false,
          "internalType": "address",
          "name": "utilityToken",
          "type": "address"
        }
      ],
      "name": "UtilityTokenCreated",
      "type": "event"
    },
    {
      "anonymous": false,
      "inputs": [
        {
          "indexed": false,
          "internalType": "uint256",
          "name": "amount",
          "type": "uint256"
        },
        {
          "indexed": false,
          "internalType": "uint256",
          "name": "nonce",
          "type": "uint256"
        },
        {
          "indexed": false,
          "internalType": "address",
          "name": "beneficiary",
          "type": "address"
        },
        {
          "indexed": false,
          "internalType": "uint256",
          "name": "feeGasPrice",
          "type": "uint256"
        },
        {
          "indexed": false,
          "internalType": "uint256",
          "name": "feeGasLimit",
          "type": "uint256"
        },
        {
          "indexed": false,
          "internalType": "address",
          "name": "withdrawer",
          "type": "address"
        },
        {
          "indexed": false,
          "internalType": "address",
          "name": "utilityToken",
          "type": "address"
        },
        {
          "indexed": false,
          "internalType": "bytes32",
          "name": "messageHash",
          "type": "bytes32"
        }
      ],
      "name": "WithdrawIntentDeclared",
      "type": "event"
    },
    {
      "constant": true,
      "inputs": [],
      "name": "DEPOSIT_INTENT_TYPEHASH",
      "outputs": [
        {
          "internalType": "bytes32",
          "name": "",
          "type": "bytes32"
        }
      ],
      "payable": false,
      "stateMutability": "view",
      "type": "function"
    },
    {
      "constant": true,
      "inputs": [],
      "name": "DOMAIN_SEPARATOR_VERSION",
      "outputs": [
        {
          "internalType": "string",
          "name": "",
          "type": "string"
        }
      ],
      "payable": false,
      "stateMutability": "view",
      "type": "function"
    },
    {
      "constant": true,
      "inputs": [],
      "name": "INBOX_OFFSET",
      "outputs": [
        {
          "internalType": "uint8",
          "name": "",
          "type": "uint8"
        }
      ],
      "payable": false,
      "stateMutability": "view",
      "type": "function"
    },
    {
      "constant": true,
      "inputs": [],
      "name": "MESSAGE_TYPEHASH",
      "outputs": [
        {
          "internalType": "bytes32",
          "name": "",
          "type": "bytes32"
        }
      ],
      "payable": false,
      "stateMutability": "view",
      "type": "function"
    },
    {
      "constant": true,
      "inputs": [],
      "name": "MMB_CHANNEL_TYPEHASH",
      "outputs": [
        {
          "internalType": "bytes32",
          "name": "",
          "type": "bytes32"
        }
      ],
      "payable": false,
      "stateMutability": "view",
      "type": "function"
    },
    {
      "constant": true,
      "inputs": [],
      "name": "MMB_DOMAIN_SEPARATOR_NAME",
      "outputs": [
        {
          "internalType": "string",
          "name": "",
          "type": "string"
        }
      ],
      "payable": false,
      "stateMutability": "view",
      "type": "function"
    },
    {
      "constant": true,
      "inputs": [],
      "name": "MMB_DOMAIN_SEPARATOR_TYPEHASH",
      "outputs": [
        {
          "internalType": "bytes32",
          "name": "",
          "type": "bytes32"
        }
      ],
      "payable": false,
      "stateMutability": "view",
      "type": "function"
    },
    {
      "constant": true,
      "inputs": [],
      "name": "MMB_DOMAIN_SEPARATOR_VERSION",
      "outputs": [
        {
          "internalType": "string",
          "name": "",
          "type": "string"
        }
      ],
      "payable": false,
      "stateMutability": "view",
      "type": "function"
    },
    {
      "constant": true,
      "inputs": [],
      "name": "OUTBOX_OFFSET",
      "outputs": [
        {
          "internalType": "uint8",
          "name": "",
          "type": "uint8"
        }
      ],
      "payable": false,
      "stateMutability": "view",
      "type": "function"
    },
    {
      "constant": true,
      "inputs": [],
      "name": "UTILITY_TOKEN_SETUP_CALLPREFIX",
      "outputs": [
        {
          "internalType": "bytes4",
          "name": "",
          "type": "bytes4"
        }
      ],
      "payable": false,
      "stateMutability": "view",
      "type": "function"
    },
    {
      "constant": true,
      "inputs": [],
      "name": "WITHDRAW_INTENT_TYPEHASH",
      "outputs": [
        {
          "internalType": "bytes32",
          "name": "",
          "type": "bytes32"
        }
      ],
      "payable": false,
      "stateMutability": "view",
      "type": "function"
    },
    {
      "constant": false,
      "inputs": [
        {
          "internalType": "address",
          "name": "_valueToken",
          "type": "address"
        },
        {
          "internalType": "uint256",
          "name": "_amount",
          "type": "uint256"
        },
        {
          "internalType": "address payable",
          "name": "_beneficiary",
          "type": "address"
        },
        {
          "internalType": "uint256",
          "name": "_feeGasPrice",
          "type": "uint256"
        },
        {
          "internalType": "uint256",
          "name": "_feeGasLimit",
          "type": "uint256"
        },
        {
          "internalType": "address",
          "name": "_depositor",
          "type": "address"
        },
        {
          "internalType": "uint256",
          "name": "_blockNumber",
          "type": "uint256"
        },
        {
          "internalType": "bytes",
          "name": "_rlpParentNodes",
          "type": "bytes"
        }
      ],
      "name": "confirmDeposit",
      "outputs": [
        {
          "internalType": "bytes32",
          "name": "messageHash_",
          "type": "bytes32"
        }
      ],
      "payable": false,
      "stateMutability": "nonpayable",
      "type": "function"
    },
    {
      "constant": true,
      "inputs": [],
      "name": "encodedAccountPath",
      "outputs": [
        {
          "internalType": "bytes",
          "name": "",
          "type": "bytes"
        }
      ],
      "payable": false,
      "stateMutability": "view",
      "type": "function"
    },
    {
      "constant": true,
      "inputs": [],
      "name": "genesisERC20Gateway",
      "outputs": [
        {
          "internalType": "address",
          "name": "",
          "type": "address"
        }
      ],
      "payable": false,
      "stateMutability": "view",
      "type": "function"
    },
    {
      "constant": true,
      "inputs": [],
      "name": "genesisMaxStorageRootItems",
      "outputs": [
        {
          "internalType": "uint256",
          "name": "",
          "type": "uint256"
        }
      ],
      "payable": false,
      "stateMutability": "view",
      "type": "function"
    },
    {
      "constant": true,
      "inputs": [],
      "name": "genesisMetachainId",
      "outputs": [
        {
          "internalType": "bytes32",
          "name": "",
          "type": "bytes32"
        }
      ],
      "payable": false,
      "stateMutability": "view",
      "type": "function"
    },
    {
      "constant": true,
      "inputs": [],
      "name": "genesisOutboxStorageIndex",
      "outputs": [
        {
          "internalType": "uint8",
          "name": "",
          "type": "uint8"
        }
      ],
      "payable": false,
      "stateMutability": "view",
      "type": "function"
    },
    {
      "constant": true,
      "inputs": [],
      "name": "genesisStateRootProvider",
      "outputs": [
        {
          "internalType": "address",
          "name": "",
          "type": "address"
        }
      ],
      "payable": false,
      "stateMutability": "view",
      "type": "function"
    },
    {
      "constant": true,
      "inputs": [],
      "name": "genesisUtilityTokenMastercopy",
      "outputs": [
        {
          "internalType": "address",
          "name": "",
          "type": "address"
        }
      ],
      "payable": false,
      "stateMutability": "view",
      "type": "function"
    },
    {
      "constant": true,
      "inputs": [],
      "name": "getRemoteGatewayLatestProvenBlockNumber",
      "outputs": [
        {
          "internalType": "uint256",
          "name": "blockNumber_",
          "type": "uint256"
        }
      ],
      "payable": false,
      "stateMutability": "view",
      "type": "function"
    },
    {
      "constant": true,
      "inputs": [
        {
          "internalType": "bytes32",
          "name": "_metachainId",
          "type": "bytes32"
        },
        {
          "internalType": "address",
          "name": "_outbox",
          "type": "address"
        },
        {
          "internalType": "address",
          "name": "_inbox",
          "type": "address"
        }
      ],
      "name": "hashChannelIdentifier",
      "outputs": [
        {
          "internalType": "bytes32",
          "name": "channelIdentifier_",
          "type": "bytes32"
        }
      ],
      "payable": false,
      "stateMutability": "pure",
      "type": "function"
    },
    {
      "constant": true,
      "inputs": [
        {
          "internalType": "address",
          "name": "_valueToken",
          "type": "address"
        },
        {
          "internalType": "uint256",
          "name": "_amount",
          "type": "uint256"
        },
        {
          "internalType": "address",
          "name": "_beneficiary",
          "type": "address"
        }
      ],
      "name": "hashDepositIntent",
      "outputs": [
        {
          "internalType": "bytes32",
          "name": "depositIntentHash_",
          "type": "bytes32"
        }
      ],
      "payable": false,
      "stateMutability": "pure",
      "type": "function"
    },
    {
      "constant": true,
      "inputs": [
        {
          "internalType": "address",
          "name": "_valueToken",
          "type": "address"
        },
        {
          "internalType": "address",
          "name": "_utilityToken",
          "type": "address"
        },
        {
          "internalType": "uint256",
          "name": "_amount",
          "type": "uint256"
        },
        {
          "internalType": "address",
          "name": "_beneficiary",
          "type": "address"
        }
      ],
      "name": "hashWithdrawIntent",
      "outputs": [
        {
          "internalType": "bytes32",
          "name": "withdrawIntentHash_",
          "type": "bytes32"
        }
      ],
      "payable": false,
      "stateMutability": "pure",
      "type": "function"
    },
    {
      "constant": true,
      "inputs": [],
      "name": "inboundChannelIdentifier",
      "outputs": [
        {
          "internalType": "bytes32",
          "name": "",
          "type": "bytes32"
        }
      ],
      "payable": false,
      "stateMutability": "view",
      "type": "function"
    },
    {
      "constant": true,
      "inputs": [
        {
          "internalType": "bytes32",
          "name": "",
          "type": "bytes32"
        }
      ],
      "name": "inbox",
      "outputs": [
        {
          "internalType": "bool",
          "name": "",
          "type": "bool"
        }
      ],
      "payable": false,
      "stateMutability": "view",
      "type": "function"
    },
    {
      "constant": true,
      "inputs": [
        {
          "internalType": "bytes32",
          "name": "_intentHash",
          "type": "bytes32"
        },
        {
          "internalType": "uint256",
          "name": "_nonce",
          "type": "uint256"
        },
        {
          "internalType": "uint256",
          "name": "_feeGasPrice",
          "type": "uint256"
        },
        {
          "internalType": "uint256",
          "name": "_feeGasLimit",
          "type": "uint256"
        },
        {
          "internalType": "address",
          "name": "_sender",
          "type": "address"
        }
      ],
      "name": "inboxMessageHash",
      "outputs": [
        {
          "internalType": "bytes32",
          "name": "messageHash_",
          "type": "bytes32"
        }
      ],
      "payable": false,
      "stateMutability": "view",
      "type": "function"
    },
    {
      "constant": true,
      "inputs": [
        {
          "internalType": "address",
          "name": "",
          "type": "address"
        }
      ],
      "name": "inboxNonces",
      "outputs": [
        {
          "internalType": "uint256",
          "name": "",
          "type": "uint256"
        }
      ],
      "payable": false,
      "stateMutability": "view",
      "type": "function"
    },
    {
      "constant": true,
      "inputs": [],
      "name": "messageInbox",
      "outputs": [
        {
          "internalType": "address",
          "name": "",
          "type": "address"
        }
      ],
      "payable": false,
      "stateMutability": "view",
      "type": "function"
    },
    {
      "constant": true,
      "inputs": [],
      "name": "messageOutbox",
      "outputs": [
        {
          "internalType": "address",
          "name": "",
          "type": "address"
        }
      ],
      "payable": false,
      "stateMutability": "view",
      "type": "function"
    },
    {
      "constant": true,
      "inputs": [],
      "name": "outboundChannelIdentifier",
      "outputs": [
        {
          "internalType": "bytes32",
          "name": "",
          "type": "bytes32"
        }
      ],
      "payable": false,
      "stateMutability": "view",
      "type": "function"
    },
    {
      "constant": true,
      "inputs": [
        {
          "internalType": "bytes32",
          "name": "",
          "type": "bytes32"
        }
      ],
      "name": "outbox",
      "outputs": [
        {
          "internalType": "bool",
          "name": "",
          "type": "bool"
        }
      ],
      "payable": false,
      "stateMutability": "view",
      "type": "function"
    },
    {
      "constant": true,
      "inputs": [
        {
          "internalType": "bytes32",
          "name": "_intentHash",
          "type": "bytes32"
        },
        {
          "internalType": "uint256",
          "name": "_nonce",
          "type": "uint256"
        },
        {
          "internalType": "uint256",
          "name": "_feeGasPrice",
          "type": "uint256"
        },
        {
          "internalType": "uint256",
          "name": "_feeGasLimit",
          "type": "uint256"
        },
        {
          "internalType": "address",
          "name": "_sender",
          "type": "address"
        }
      ],
      "name": "outboxMessageHash",
      "outputs": [
        {
          "internalType": "bytes32",
          "name": "messageHash_",
          "type": "bytes32"
        }
      ],
      "payable": false,
      "stateMutability": "view",
      "type": "function"
    },
    {
      "constant": true,
      "inputs": [
        {
          "internalType": "address",
          "name": "",
          "type": "address"
        }
      ],
      "name": "outboxNonces",
      "outputs": [
        {
          "internalType": "uint256",
          "name": "",
          "type": "uint256"
        }
      ],
      "payable": false,
      "stateMutability": "view",
      "type": "function"
    },
    {
      "constant": true,
      "inputs": [],
      "name": "outboxStorageIndex",
      "outputs": [
        {
          "internalType": "uint8",
          "name": "",
          "type": "uint8"
        }
      ],
      "payable": false,
      "stateMutability": "view",
      "type": "function"
    },
    {
      "constant": false,
      "inputs": [
        {
          "internalType": "uint256",
          "name": "_blockNumber",
          "type": "uint256"
        },
        {
          "internalType": "bytes",
          "name": "_rlpAccount",
          "type": "bytes"
        },
        {
          "internalType": "bytes",
          "name": "_rlpParentNodes",
          "type": "bytes"
        }
      ],
      "name": "proveGateway",
      "outputs": [],
      "payable": false,
      "stateMutability": "nonpayable",
      "type": "function"
    },
    {
      "constant": false,
      "inputs": [],
      "name": "setup",
      "outputs": [],
      "payable": false,
      "stateMutability": "nonpayable",
      "type": "function"
    },
    {
      "constant": true,
      "inputs": [],
      "name": "stateRootProvider",
      "outputs": [
        {
          "internalType": "contract StateRootInterface",
          "name": "",
          "type": "address"
        }
      ],
      "payable": false,
      "stateMutability": "view",
      "type": "function"
    },
    {
      "constant": true,
      "inputs": [],
      "name": "storageAccount",
      "outputs": [
        {
          "internalType": "address",
          "name": "",
          "type": "address"
        }
      ],
      "payable": false,
      "stateMutability": "view",
      "type": "function"
    },
    {
      "constant": true,
      "inputs": [
        {
          "internalType": "uint256",
          "name": "",
          "type": "uint256"
        }
      ],
      "name": "storageRoots",
      "outputs": [
        {
          "internalType": "bytes32",
          "name": "",
          "type": "bytes32"
        }
      ],
      "payable": false,
      "stateMutability": "view",
      "type": "function"
    },
    {
      "constant": true,
      "inputs": [],
      "name": "utilityTokenMasterCopy",
      "outputs": [
        {
          "internalType": "address",
          "name": "",
          "type": "address"
        }
      ],
      "payable": false,
      "stateMutability": "view",
      "type": "function"
    },
    {
      "constant": true,
      "inputs": [
        {
          "internalType": "address",
          "name": "",
          "type": "address"
        }
      ],
      "name": "utilityTokens",
      "outputs": [
        {
          "internalType": "address",
          "name": "",
          "type": "address"
        }
      ],
      "payable": false,
      "stateMutability": "view",
      "type": "function"
    },
    {
      "constant": false,
      "inputs": [
        {
          "internalType": "uint256",
          "name": "_amount",
          "type": "uint256"
        },
        {
          "internalType": "address",
          "name": "_beneficiary",
          "type": "address"
        },
        {
          "internalType": "uint256",
          "name": "_feeGasPrice",
          "type": "uint256"
        },
        {
          "internalType": "uint256",
          "name": "_feeGasLimit",
          "type": "uint256"
        },
        {
          "internalType": "contract UtilityTokenInterface",
          "name": "_utilityToken",
          "type": "address"
        }
      ],
      "name": "withdraw",
      "outputs": [
        {
          "internalType": "bytes32",
          "name": "messageHash_",
          "type": "bytes32"
        }
      ],
      "payable": false,
      "stateMutability": "nonpayable",
      "type": "function"
    },
    {
      "constant": false,
      "inputs": [
        {
          "internalType": "bytes32",
          "name": "_genesisMetachainId",
          "type": "bytes32"
        },
        {
          "internalType": "address",
          "name": "_genesisERC20Gateway",
          "type": "address"
        },
        {
          "internalType": "address",
          "name": "_genesisStateRootProvider",
          "type": "address"
        },
        {
          "internalType": "uint256",
          "name": "_genesisMaxStorageRootItems",
          "type": "uint256"
        },
        {
          "internalType": "uint8",
          "name": "_genesisOutboxStorageIndex",
          "type": "uint8"
        },
        {
          "internalType": "address",
          "name": "_genesisUtilityTokenMastercopy",
          "type": "address"
        }
      ],
      "name": "setupGenesis",
      "outputs": [],
      "payable": false,
      "stateMutability": "nonpayable",
      "type": "function"
    },
    {
      "constant": false,
      "inputs": [
        {
          "internalType": "uint256",
          "name": "_blockNumber",
          "type": "uint256"
        },
        {
          "internalType": "bytes32",
          "name": "_storageRoot",
          "type": "bytes32"
        }
      ],
      "name": "setStorageRoot",
      "outputs": [],
      "payable": false,
      "stateMutability": "nonpayable",
      "type": "function"
    },
    {
      "constant": false,
      "inputs": [
        {
          "internalType": "bytes32",
          "name": "_inboundChannelIdentifier",
          "type": "bytes32"
        }
      ],
      "name": "setInboundChannelIdentifier",
      "outputs": [],
      "payable": false,
      "stateMutability": "nonpayable",
      "type": "function"
    }
  ],
  "bytecode": "0x608060405234801561001057600080fd5b5061398b806100206000396000f3fe60806040523480156200001157600080fd5b5060043610620002bc5760003560e01c80637ddcca17116200017d578063c4fec67a11620000e1578063efa9c7c91162000093578063efa9c7c914620008eb578063efefe0eb14620008f5578063f02a0e9014620008ff578063f0df1e731462000909578063f732ecff1462000913578063fe08d818146200091d57620002bc565b8063c4fec67a1462000824578063c9a29f3c146200082e578063d31b5968146200086d578063d4d111851462000896578063ddd335eb14620008a0578063ec943dec14620008e157620002bc565b80639f0b7dfe116200013b5780639f0b7dfe14620007af578063ae64028514620007e6578063b1c91e2114620007f0578063b4907ddc14620007f0578063ba0bba4014620007fa578063bd362374146200080457620002bc565b80637ddcca17146200076757806382b3027914620007715780638be050381462000791578063928a735a146200079b578063965ef01b14620007a557620002bc565b80633ad2268111620002255780635ecec56411620001e35780635ecec56414620006f857806360cf85851462000702578063610ebfe2146200070c57806363630ae0146200072c5780636cf4053a146200073657806373c61ff4146200075d57620002bc565b80633ad2268114620006445780633eb3d9a3146200064e57806346e356b11462000691578063523ce242146200069b5780635c1dc83a14620006cf57620002bc565b806320e1855f116200027f57806320e1855f146200044157806321ea7ee114620004675780632f70e81814620005395780632fe05ad91462000562578063357d6c85146200056c57806336c41330146200061e57620002bc565b806302de1ba914620002c157806309bf5f38146200030c5780630e31eb60146200032c57806313a8f6e4146200036d57806316ad76b814620003bf575b600080fd5b620002fa60048036036060811015620002d957600080fd5b506001600160a01b0381358116916020810135916040909101351662000927565b60408051918252519081900360200190f35b620003166200098d565b6040805160ff9092168252519081900360200190f35b620002fa600480360360a08110156200034457600080fd5b50803590602081013590604081013590606081013590608001356001600160a01b03166200099d565b620003bd600480360360c08110156200038557600080fd5b508035906001600160a01b036020820135811691604081013582169160608201359160ff6080820135169160a09091013516620009bb565b005b620003c962000a23565b6040805160208082528351818301528351919283929083019185019080838360005b8381101562000405578181015183820152602001620003eb565b50505050905090810190601f168015620004335780820380516001836020036101000a031916815260200191505b509250505060405180910390f35b6200044b62000ab5565b604080516001600160a01b039092168252519081900360200190f35b620003bd600480360360608110156200047f57600080fd5b81359190810190604081016020820135640100000000811115620004a257600080fd5b820183602082011115620004b557600080fd5b80359060200191846001830284011164010000000083111715620004d857600080fd5b919390929091602081019035640100000000811115620004f757600080fd5b8201836020820111156200050a57600080fd5b803590602001918460018302840111640100000000831117156200052d57600080fd5b50909250905062000ac4565b6200044b600480360360208110156200055157600080fd5b50356001600160a01b031662000b88565b620002fa62000ba3565b620002fa60048036036101008110156200058557600080fd5b6001600160a01b038235811692602081013592604082013583169260608301359260808101359260a08201359092169160c08201359190810190610100810160e0820135640100000000811115620005dc57600080fd5b820183602082011115620005ef57600080fd5b803590602001918460018302840111640100000000831117156200061257600080fd5b50909250905062000bbf565b620003bd600480360360408110156200063657600080fd5b508035906020013562000f0f565b6200044b62000f21565b620002fa600480360360a08110156200066657600080fd5b508035906001600160a01b036020820135811691604081013591606082013591608001351662000f35565b620002fa620011c5565b620006bb60048036036020811015620006b357600080fd5b5035620011e1565b604080519115158252519081900360200190f35b620002fa60048036036020811015620006e757600080fd5b50356001600160a01b0316620011f6565b620002fa62001208565b620003166200120e565b620002fa600480360360208110156200072457600080fd5b503562001217565b6200044b62001229565b6200074062001238565b604080516001600160e01b03199092168252519081900360200190f35b6200044b62001254565b620002fa62001263565b620003bd600480360360208110156200078957600080fd5b503562001274565b6200044b62001279565b6200031662001288565b6200044b6200128d565b620002fa60048036036060811015620007c757600080fd5b508035906001600160a01b03602082013581169160400135166200129c565b620003c962001463565b620003c962001489565b620003bd620014a6565b620006bb600480360360208110156200081c57600080fd5b503562001518565b620002fa6200152d565b620002fa600480360360808110156200084657600080fd5b506001600160a01b0381358116916020810135821691604082013591606001351662001533565b620002fa600480360360208110156200088557600080fd5b50356001600160a01b0316620015a0565b6200044b620015b2565b620002fa600480360360a0811015620008b857600080fd5b50803590602081013590604081013590606081013590608001356001600160a01b0316620015c1565b620002fa620015d5565b620002fa620015db565b6200044b620015f7565b620002fa62001606565b620002fa6200160c565b620002fa62001628565b6200031662001644565b600060405180806200370e60449139604080519182900360440182206020808401919091526001600160a01b03978816838301526060830196909652959093166080808501919091528551808503909101815260a0909301909452508051910120919050565b601254600160a01b900460ff1681565b6000620009b1868686868660075462001649565b9695505050505050565b600195909555600280546001600160a01b039586166001600160a01b031991821617909155600380549486169490911693909317909255600455600580549390921661010002610100600160a81b031960ff90921660ff199094169390931716919091179055565b600e805460408051602060026001851615610100026000190190941693909304601f8101849004840282018401909252818152929183018282801562000aad5780601f1062000a815761010080835404028352916020019162000aad565b820191906000526020600020905b81548152906001019060200180831162000a8f57829003601f168201915b505050505081565b600c546001600160a01b031681565b62000b3a8585858080601f01602080910402602001604051908101604052809392919081815260200183838082843760009201919091525050604080516020601f89018190048102820181019092528781529250879150869081908401838280828437600092019190915250620016fd92505050565b600854604080516001600160a01b0390921682526020820187905280517fb73458fd9d18500409beead43bcd51b06626f19116a5e1f7a094d03e1b55538d9281900390910190a15050505050565b6015602052600090815260409020546001600160a01b031681565b6040518060366200363282396036019050604051809103902081565b6000805a90506001600160a01b038b1662000c0c5760405162461bcd60e51b8152600401808060200182810382526022815260200180620038e86022913960400191505060405180910390fd5b8962000c5f576040805162461bcd60e51b815260206004820152601d60248201527f4465706f73697420616d6f756e74206d757374206e6f7420626520302e000000604482015290519081900360640190fd5b6001600160a01b03891662000ca65760405162461bcd60e51b81526004018080602001828103825260228152602001806200368c6022913960400191505060405180910390fd5b6001600160a01b03861662000d02576040805162461bcd60e51b815260206004820181905260248201527f4465706f7369746f722061646472657373206d757374206e6f7420626520302e604482015290519081900360640190fd5b600062000d0f8c6200170f565b6001600160a01b03881660009081526013602052604090205490915062000d3e81600163ffffffff6200184d16565b6001600160a01b03891660009081526013602052604090205562000daa62000d688e8e8e62000927565b828c8c8c8c8c8c8080601f0160208091040260200160405190810160405280939291908181526020018383808284376000920191909152506200186992505050565b9350600062000dcd62000dc55a869063ffffffff6200194c16565b8c8c62001962565b9050600062000de38e8363ffffffff6200194c16565b604080516340c10f1960e01b81523360048201526024810185905290519192506001600160a01b038616916340c10f199160448082019260009290919082900301818387803b15801562000e3657600080fd5b505af115801562000e4b573d6000803e3d6000fd5b50505050836001600160a01b03166340c10f198e836040518363ffffffff1660e01b815260040180836001600160a01b03166001600160a01b0316815260200182815260200192505050600060405180830381600087803b15801562000eb057600080fd5b505af115801562000ec5573d6000803e3d6000fd5b50506040805189815290517fc59b26ee33944690e53eadbee80f9b49dca067cd4978563dc4a6f5218cdb68219350908190036020019150a150505050509998505050505050505050565b6000918252600f602052604090912055565b60055461010090046001600160a01b031681565b60006001600160a01b03821662000f7e5760405162461bcd60e51b8152600401808060200182810382526024815260200180620037b86024913960400191505060405180910390fd5b6001600160a01b03851662000fc55760405162461bcd60e51b81526004018080602001828103825260228152602001806200368c6022913960400191505060405180910390fd5b62000fd7848463ffffffff620019a316565b8611620010165760405162461bcd60e51b8152600401808060200182810382526034815260200180620037526034913960400191505060405180910390fd5b6000826001600160a01b031663effff82f6040518163ffffffff1660e01b8152600401602060405180830381600087803b1580156200105457600080fd5b505af115801562001069573d6000803e3d6000fd5b505050506040513d60208110156200108057600080fd5b5051905060006200109482858a8a62001533565b33600090815260096020526040902054909150620010ba81600163ffffffff6200184d16565b33600081815260096020526040902091909155620010e090839083908a908a90620019ce565b6040805163079cc67960e41b8152336004820152602481018c905290519195506001600160a01b038716916379cc67909160448082019260009290919082900301818387803b1580156200113357600080fd5b505af115801562001148573d6000803e3d6000fd5b5050604080518c8152602081018590526001600160a01b03808d1682840152606082018c9052608082018b90523360a0830152891660c082015260e0810188905290517f976d81963620793952f53cff406abbbc8e1f613fac99ffe8a8b94f54c401caf0935090819003610100019150a150505095945050505050565b604051806060620036ae82396060019050604051809103902081565b60066020526000908152604090205460ff1681565b60136020526000908152604090205481565b60115481565b60055460ff1681565b600f6020526000908152604090205481565b6002546001600160a01b031681565b6040518060326200378682396032019050604051809103902081565b6003546001600160a01b031681565b60006200126f62001a57565b905090565b601155565b6014546001600160a01b031681565b600981565b6008546001600160a01b031681565b60008060405180806200363260369139604080519182900360360182206020808401919091526001600160a01b0380891684840152871660608085019190915282518085039091018152608090930191829052825192019190912092509050806059620035d98239605901905060405180910390206040518060400160405280600a8152602001694d6f736169632d42757360b01b815250604051806040016040528060018152602001600360fc1b8152508784604051602001808681526020018060200180602001858152602001848152602001838103835287818151815260200191508051906020019080838360005b83811015620013a85781810151838201526020016200138e565b50505050905090810190601f168015620013d65780820380516001836020036101000a031916815260200191505b50838103825286518152865160209182019188019080838360005b838110156200140b578181015183820152602001620013f1565b50505050905090810190601f168015620014395780820380516001836020036101000a031916815260200191505b50975050505050505050604051602081830303815290604052805190602001209150509392505050565b6040518060400160405280600a8152602001694d6f736169632d42757360b01b81525081565b604051806040016040528060018152602001600360fc1b81525081565b600154600254620014c191906001600160a01b031662001a79565b600154600254600554600354600454620014ee94936001600160a01b039081169360ff1692169062001bab565b600554601480546101009092046001600160a01b03166001600160a01b0319909216919091179055565b60106020526000908152604090205460ff1681565b60015481565b6000604051808062003801605a91396040805191829003605a0182206020808401919091526001600160a01b0398891683830152968816606083015260808201959095529590921660a0808701919091528351808703909101815260c09095019092525050815191012090565b60096020526000908152604090205481565b600d546001600160a01b031681565b6000620009b1868686868660115462001649565b60045481565b6040518060446200370e82396044019050604051809103902081565b6012546001600160a01b031681565b60075481565b60405180605a620038018239605a019050604051809103902081565b604051806059620035d982396059019050604051809103902081565b600681565b6000806040518080620036ae606091396040805191829003606090810183206020808501919091528383019c909c52820199909952608081019790975250505060a08401929092526001600160a01b031660c0808401919091528351808403909101815260e083018452805190850120601960f81b610100840152604d60f81b6101018401526101028301919091526101228083019190915282518083039091018152610142909101909152805191012090565b6200170a83838362001d3c565b505050565b6001600160a01b038082166000908152601560205260409020541680620018485760606040518080620037866032913960408051918290036032018220600060648401819052608484018190523060a48501526001600160a01b0380891660c486015260c0602486015260e48501829052610100604486015261012485019190915282518085036101440181526101649094019092526020830180516001600160e01b03166001600160e01b0319909216919091179052601454919350620017da9250168262001f8d565b6001600160a01b0384811660008181526015602090815260409182902080546001600160a01b0319169486169485179055815192835282019290925281519294507fc2565f0ade5e0997b015f4c88815685f8900f048bc81e49f551f38239c97044c929081900390910190a1505b919050565b6000828201838110156200186057600080fd5b90505b92915050565b60006200187d888888888860115462001649565b60008181526010602052604090205490915060ff1615620018d05760405162461bcd60e51b81526004018080602001828103825260248152602001806200389d6024913960400191505060405180910390fd5b6000818152601060205260409020805460ff191660011790556012546060906200190590600160a01b900460ff168362002036565b60408051600160f81b602080830191909152825180830360010181526021909201909252805191012090915062001940908290868662002116565b50979650505050505050565b6000828211156200195c57600080fd5b50900390565b60008184111562001987576200197f838363ffffffff620019a316565b90506200199c565b62001999838563ffffffff620019a316565b90505b9392505050565b600082620019b45750600062001863565b82820282848281620019c257fe5b04146200186057600080fd5b6000620019e2868686868660075462001649565b60008181526006602052604090205490915060ff161562001a355760405162461bcd60e51b8152600401808060200182810382526025815260200180620037dc6025913960400191505060405180910390fd5b6000818152600660205260409020805460ff1916600117905595945050505050565b6000600a600b548154811062001a6957fe5b9060005260206000200154905090565b6007541562001acf576040805162461bcd60e51b815260206004820181905260248201527f4d657373616765206f7574626f7820697320616c72656164792073657475702e604482015290519081900360640190fd5b8162001b17576040805162461bcd60e51b815260206004820152601260248201527126b2ba30b1b430b4b71034b21034b990181760711b604482015290519081900360640190fd5b6001600160a01b03811662001b73576040805162461bcd60e51b815260206004820152601b60248201527f4d65737361676520696e626f78206164647265737320697320302e0000000000604482015290519081900360640190fd5b600880546001600160a01b0319166001600160a01b03838116919091179182905562001ba49184913091166200129c565b6007555050565b6011541562001c01576040805162461bcd60e51b815260206004820152601f60248201527f4d65737361676520696e626f7820697320616c72656164792073657475702e00604482015290519081900360640190fd5b8462001c49576040805162461bcd60e51b815260206004820152601260248201527136b2ba30b1b430b4b71034b21034b990181760711b604482015290519081900360640190fd5b6001600160a01b03841662001c9c576040805162461bcd60e51b815260206004820152601460248201527327baba3137bc1030b2323932b9b99034b990181760611b604482015290519081900360640190fd5b6001600160a01b03821662001ce35760405162461bcd60e51b81526004018080602001828103825260218152602001806200387c6021913960400191505060405180910390fd5b601280546001600160a01b0319166001600160a01b038681169190911760ff60a01b1916600160a01b60ff871602179182905562001d2591879116306200129c565b60115562001d3584838362002217565b5050505050565b815162001d7b5760405162461bcd60e51b8152600401808060200182810382526024815260200180620036686024913960400191505060405180910390fd5b805162001dcf576040805162461bcd60e51b815260206004820152601f60248201527f4c656e677468206f6620524c5020706172656e74206e6f646573206973203000604482015290519081900360640190fd5b600d5460408051631870032760e31b81526004810186905290516000926001600160a01b03169163c3801938916024808301926020929190829003018186803b15801562001e1c57600080fd5b505afa15801562001e31573d6000803e3d6000fd5b505050506040513d602081101562001e4857600080fd5b505190508062001e9f576040805162461bcd60e51b815260206004820152601b60248201527f537461746520726f6f74206d757374206e6f74206265207a65726f0000000000604482015290519081900360640190fd5b6000848152600f60205260409020548062001d3557600e805460408051602060026001851615610100026000190190941693909304601f810184900484028201840190925281815260009362001f569389938993929183018282801562001f4a5780601f1062001f1e5761010080835404028352916020019162001f4a565b820191906000526020600020905b81548152906001019060200180831162001f2c57829003601f168201915b505050505086620023ac565b6000878152600f6020526040812082905590915062001f7587620024d5565b6000908152600f602052604081205550505050505050565b60008260405162001f9e9062003375565b6001600160a01b03909116815260405190819003602001906000f08015801562001fcc573d6000803e3d6000fd5b5082519091501562001ff45760008060008451602086016000865af1141562001ff457600080fd5b604080516001600160a01b038316815290517fa38789425dbeee0239e16ff2d2567e31720127fbc6430758c1a4efc6aef29f809181900360200190a192915050565b606080620020516200204b60ff861662002520565b6200254a565b90506060620020646200204b8562002520565b9050606062002074828462002587565b9050620009b1816040516020018082805190602001908083835b60208310620020af5780518252601f1990920191602091820191016200208e565b6001836020036101000a03801982511681845116808217855250505050505090500191505060405160208183030381529060405280519060200120604051602001808281526020019150506040516020818303038152906040528051906020012062002520565b80516200216a576040805162461bcd60e51b815260206004820181905260248201527f4c656e677468206f6620524c5020706172656e74206e6f64657320697320302e604482015290519081900360640190fd5b6000828152600f602052604090205480620021cc576040805162461bcd60e51b815260206004820152601d60248201527f53746f7261676520726f6f74206d757374206e6f74206265207a65726f000000604482015290519081900360640190fd5b620021da8486848462002603565b62001d355760405162461bcd60e51b81526004018080602001828103825260218152602001806200385b6021913960400191505060405180910390fd5b600d546001600160a01b0316156200226f576040805162461bcd60e51b815260206004820152601660248201527529b2ba3ab81034b99030b63932b0b23c903237b7329760511b604482015290519081900360640190fd5b6001600160a01b038316620022cb576040805162461bcd60e51b815260206004820152601d60248201527f53746f72616765206163636f756e74206164647265737320697320302e000000604482015290519081900360640190fd5b6001600160a01b038216620023125760405162461bcd60e51b81526004018080602001828103825260218152602001806200387c6021913960400191505060405180910390fd5b6200231d81620029ae565b600c80546001600160a01b038086166001600160a01b031992831617909255600d805492851692909116919091179055604080516bffffffffffffffffffffffff19606086901b166020808301919091528251808303601401815260349092019092528051910120620023909062002520565b8051620023a691600e9160209091019062003383565b50505050565b6000620023b862003408565b620023c38662002a42565b90506060620023d28262002a89565b9050620023f481600281518110620023e657fe5b602002602001015162002b4f565b92506000876040516020018082805190602001908083835b602083106200242d5780518252601f1990920191602091820191016200240c565b6001836020036101000a038019825116818451168082178552505050505050905001915050604051602081830303815290604052805190602001209050620024788187898862002603565b620024ca576040805162461bcd60e51b815260206004820152601e60248201527f4163636f756e742070726f6f66206973206e6f742076657269666965642e0000604482015290519081900360640190fd5b505050949350505050565b6000620024e162002b5c565b600a600b5481548110620024f157fe5b9060005260206000200154905081600a600b54815481106200250f57fe5b600091825260209091200155919050565b60408051602080825281830190925260609160208201818038833950505060208101929092525090565b60608082516020036040519080825280601f01601f1916602001820160405280156200257d576020820181803883390190505b5090506200199c81845b60606040519050825180825260208201818101602086015b81831015620025b95780518352602092830192016200259f565b50845184518101855292509050808201602085015b81831015620025e8578051835260209283019201620025ce565b50601f19601f87518501158301011660405250505092915050565b60006200260f62003408565b6200261a8462002a42565b90506060620026298262002a89565b9050606080856000826200263d8b62002b79565b90508051600014156200265b576000975050505050505050620029a6565b60005b86518110156200299d5781518311156200268457600098505050505050505050620029a6565b620026a38782815181106200269557fe5b602002602001015162002bfa565b9550856040516020018082805190602001908083835b60208310620026da5780518252601f199092019160209182019101620026b9565b6001836020036101000a0380198251168184511680821785525050505050509050019150506040516020818303038152906040528051906020012084146200272e57600098505050505050505050620029a6565b6200274d8782815181106200273f57fe5b602002602001015162002a89565b94508451601114156200286a57815183141562002811578c62002777866010815181106200269557fe5b6040516020018082805190602001908083835b60208310620027ab5780518252601f1990920191602091820191016200278a565b6001836020036101000a038019825116818451168082178552505050505050905001915050604051602081830303815290604052805190602001201415620027ff57600198505050505050505050620029a6565b600098505050505050505050620029a6565b60008284815181106200282057fe5b016020015160f81c90506010811115620028475760009950505050505050505050620029a6565b6200285b868260ff1681518110620023e657fe5b94506001840193505062002994565b845160021415620027ff576000620028a36200289b876000815181106200288d57fe5b602002602001015162002c4f565b848662002cbc565b90508251818501141562002960578d620028c4876001815181106200288d57fe5b6040516020018082805190602001908083835b60208310620028f85780518252601f199092019160209182019101620028d7565b6001836020036101000a0380198251168184511680821785525050505050509050019150506040516020818303038152906040528051906020012014156200294d5760019950505050505050505050620029a6565b60009950505050505050505050620029a6565b80620029795760009950505050505050505050620029a6565b80840193506200299086600181518110620023e657fe5b9450505b6001016200265e565b50505050505050505b949350505050565b60008111620029ef5760405162461bcd60e51b815260040180806020018281038252604d8152602001806200390a604d913960600191505060405180910390fd5b600a541562002a305760405162461bcd60e51b8152600401808060200182810382526027815260200180620038c16027913960400191505060405180910390fd5b8062002a3e600a8262003422565b5050565b62002a4c62003408565b81518062002a70575050604080518082019091526000808252602082015262001848565b6040805180820190915260209384018152928301525090565b606062002a968262002e5a565b62002aa057600080fd5b600062002aad8362002e83565b90508060405190808252806020026020018201604052801562002aed57816020015b62002ad962003408565b81526020019060019003908162002acf5790505b50915062002afa62003449565b62002b058462002ee7565b905060005b62002b158262002f25565b1562002b475762002b268262002f46565b84828151811062002b3357fe5b602090810291909101015260010162002b0a565b505050919050565b6000620018638262002f91565b600b805460010190819055600a54141562002b77576000600b555b565b606081516002026040519080825280601f01601f19166020018201604052801562002bab576020820181803883390190505b50905060005b815181101562002bf45762002bc7818462002fe8565b82828151811062002bd457fe5b60200101906001600160f81b031916908160001a90535060010162002bb1565b50919050565b60208101516060908062002c0f575062001848565b806040519080825280601f01601f19166020018201604052801562002c3b576020820181803883390190505b50915062002bf4836000015183836200304b565b606062002c5c826200307d565b62002c6657600080fd5b60008062002c7484620030a5565b60408051828152601f19601f8401168101602001909152919350915081801562002ca5576020820181803883390190505b50925062002cb58284836200304b565b5050919050565b6000606062002ccb856200311c565b9050606081516040519080825280601f01601f19166020018201604052801562002cfc576020820181803883390190505b509050835b8251850181101562002d5a57600086828151811062002d1c57fe5b602001015160f81c60f81b905080838784038151811062002d3957fe5b60200101906001600160f81b031916908160001a9053505060010162002d01565b50806040516020018082805190602001908083835b6020831062002d905780518252601f19909201916020918201910162002d6f565b6001836020036101000a03801982511681845116808217855250505050505090500191505060405160208183030381529060405280519060200120826040516020018082805190602001908083835b6020831062002e005780518252601f19909201916020918201910162002ddf565b6001836020036101000a03801982511681845116808217855250505050505090500191505060405160208183030381529060405280519060200120141562002e4c578151925062002e51565b600092505b50509392505050565b600081602001516000141562002e735750600062001848565b50515160c060009190911a101590565b600062002e908262002e5a565b62002e9e5750600062001848565b81518051600090811a919062002eb48562003258565b6020860151908301915082016000190160005b818311620009b15762002eda83620032e0565b9092019160010162002ec7565b62002ef162003449565b62002efc8262002e5a565b62002f0657600080fd5b600062002f138362003258565b83519383529092016020820152919050565b600062002f3162003408565b50508051602080820151915192015191011190565b62002f5062003408565b62002f5b8262002f25565b62002f6557600080fd5b6020820151600062002f7782620032e0565b828452602080850182905292019390910192909252919050565b600062002f9e826200307d565b62002fa857600080fd5b60008062002fb684620030a5565b9092509050602081118062002fc9575080155b1562002fd457600080fd5b806020036101000a82510492505050919050565b600060028306156200301d5760108260028504815181106200300657fe5b016020015160f81c816200301657fe5b0662003041565b60108260028504815181106200302f57fe5b016020015160f81c816200303f57fe5b045b60f81b9392505050565b6000601f820184602085015b828410156200307457838201518482015260208401935062003057565b50505050505050565b6000816020015160001415620030965750600062001848565b50515160c060009190911a1090565b600080620030b3836200307d565b620030bd57600080fd5b8251805160001a906080821015620030dd57925060019150620031179050565b60b8821015620030fd576001856020015103925080600101935062003114565b602085015182820160b51901945082900360b60192505b50505b915091565b80516060901562001848576000806200313760008562002fe8565b60f81c905060018114806200314f57508060ff166003145b15620031cd5760018451600202036040519080825280601f01601f19166020018201604052801562003188576020820181803883390190505b50925060006200319a60018662002fe8565b90508084600081518110620031ab57fe5b60200101906001600160f81b031916908160001a905350600192505062003208565b60028451600202036040519080825280601f01601f19166020018201604052801562003200576020820181803883390190505b509250600091505b60ff82165b835181101562002b47576200322b8360ff1682036002018662002fe8565b8482815181106200323857fe5b60200101906001600160f81b031916908160001a9053506001016200320d565b6000816020015160001415620032715750600062001848565b8151805160001a9060808210156200328f5760009250505062001848565b60b8821080620032ac575060c08210158015620032ac575060f882105b15620032be5760019250505062001848565b60c0821015620032d5575060b51901905062001848565b5060f5190192915050565b8051600090811a6080811015620032fb576001915062002bf4565b60b88110156200331257607e198101915062002bf4565b60c08110156200333d57600183015160b76020839003016101000a9004810160b51901915062002bf4565b60f8811015620033545760be198101915062002bf4565b6001929092015160f76020849003016101000a900490910160f51901919050565b61014d806200348c83390190565b828054600181600116156101000203166002900490600052602060002090601f016020900481019282601f10620033c657805160ff1916838001178555620033f6565b82800160010185558215620033f6579182015b82811115620033f6578251825591602001919060010190620033d9565b50620034049291506200346b565b5090565b604051806040016040528060008152602001600081525090565b8154818355818111156200170a576000838152602090206200170a9181019083016200346b565b60405180604001604052806200345e62003408565b8152602001600081525090565b6200348891905b8082111562003404576000815560010162003472565b9056fe608060405234801561001057600080fd5b5060405161014d38038061014d8339818101604052602081101561003357600080fd5b50516001600160a01b038116610094576040517f08c379a00000000000000000000000000000000000000000000000000000000081526004018080602001828103825260248152602001806101296024913960400191505060405180910390fd5b600080546001600160a01b039092166001600160a01b03199092169190911790556066806100c36000396000f3fe60806040526001600160a01b03600054163660008037600080366000845af43d6000803e80602c573d6000fd5b3d6000f3fea265627a7a723158201bcbc87e2e88421c4e9851d9787d03de469d31caee30ebab16842537c81dbe6664736f6c634300050d0032496e76616c6964206d617374657220636f707920616464726573732070726f76696465644d6f736169634d65737361676542757328737472696e67206e616d652c737472696e672076657273696f6e2c62797465733332206d657461636861696e49642c62797465733332206368616e6e656c536570617261746f72294d6f736169634d6573736167654275734368616e6e656c2861646472657373206f7574626f782c206164647265737320696e626f78294c656e677468206f6620524c50206163636f756e74206d757374206e6f7420626520302e42656e65666963696172792061646472657373206d757374206e6f7420626520302e4d657373616765286279746573333220696e74656e74486173682c75696e74323536206e6f6e63652c75696e743235362066656547617350726963652c75696e74323536206665654761734c696d69742c616464726573732073656e646572294465706f736974496e74656e7428616464726573732076616c7565546f6b656e2c75696e7432353620616d6f756e742c616464726573732062656e6566696369617279295769746864726177616c20616d6f756e742073686f756c642062652067726561746572207468616e206d6178207265776172642e736574757028737472696e672c737472696e672c75696e74382c75696e743235362c616464726573732c61646472657373295574696c69747920546f6b656e2061646472657373206d757374206e6f7420626520302e4d65737361676520616c72656164792065786973747320696e20746865206f7574626f782e5769746864726177496e74656e7428616464726573732076616c7565546f6b656e2c61646472657373207574696c697479546f6b656e2c75696e7432353620616d6f756e742c616464726573732062656e6566696369617279294d65726b6c652070726f6f6620766572696669636174696f6e206661696c65642e537461746520726f6f742070726f7669646572206164647265737320697320302e4d65737361676520616c72656164792065786973747320696e2074686520696e626f782e43697263756c6172206275666665722073697a652063616e206265207365747570206f6e63652e56616c756520746f6b656e2061646472657373206d757374206e6f7420626520302e546865206d6178206e756d626572206f66206974656d7320746f2073746f726520696e20612063697263756c617220627566666572206d7573742062652067726561746572207468616e20302ea265627a7a72315820870dc07e646701099fd4d5013b965938d258fb79a3874d93d02eef798615b46b64736f6c634300050d0032",
  "source": "pragma solidity >=0.5.0 <0.6.0;\n\n// Copyright 2020 OpenST Ltd.\n//\n// Licensed under the Apache License, Version 2.0 (the \"License\");\n// you may not use this file except in compliance with the License.\n// You may obtain a copy of the License at\n//\n//    http://www.apache.org/licenses/LICENSE-2.0\n//\n// Unless required by applicable law or agreed to in writing, software\n// distributed under the License is distributed on an \"AS IS\" BASIS,\n// WITHOUT WARRANTIES OR CONDITIONS OF ANY KIND, either express or implied.\n// See the License for the specific language governing permissions and\n// limitations under the License.\n\nimport \"../../erc20-gateway/ERC20Cogateway.sol\";\n\n/**\n * @title It is used for testing ERC20Cogateway contract.\n */\ncontract ERC20CogatewayDouble is ERC20Cogateway {\n\n    /* External Functions */\n\n    /**\n     * @notice It is used to setup genesis params used to\n     *         setup ERC20Cogateway contract.\n     */\n    function setupGenesis(\n        bytes32 _genesisMetachainId,\n        address _genesisERC20Gateway,\n        address _genesisStateRootProvider,\n        uint256 _genesisMaxStorageRootItems,\n        uint8 _genesisOutboxStorageIndex,\n        address _genesisUtilityTokenMastercopy\n    )\n        external\n    {\n        genesisMetachainId = _genesisMetachainId;\n        genesisERC20Gateway = _genesisERC20Gateway;\n        genesisStateRootProvider = _genesisStateRootProvider;\n        genesisMaxStorageRootItems = _genesisMaxStorageRootItems;\n        genesisOutboxStorageIndex = _genesisOutboxStorageIndex;\n        genesisUtilityTokenMastercopy = _genesisUtilityTokenMastercopy;\n    }\n\n    /**\n     * @notice Sets storage root at specific block number.\n     */\n    function setStorageRoot(\n        uint256 _blockNumber,\n        bytes32 _storageRoot\n    )\n        external\n    {\n        storageRoots[_blockNumber] = _storageRoot;\n    }\n\n    /**\n     * @notice Sets inbound channel identifier.\n     */\n    function setInboundChannelIdentifier(bytes32 _inboundChannelIdentifier)\n        external\n    {\n        inboundChannelIdentifier = _inboundChannelIdentifier;\n    }\n}\n",
  "sourcePath": "/Users/abhay/Documents/projects/abhayforks/mosaic-1/contracts/test/erc20-cogateway/ERC20CogatewayDouble.sol",
  "compiler": {
    "name": "solc",
    "version": "0.5.13+commit.5b0b510c.Emscripten.clang"
  },
  "schemaVersion": "3.0.17",
  "updatedAt": "2020-03-21T06:48:34.807Z",
  "devdoc": {
    "methods": {
      "confirmDeposit(address,uint256,address,uint256,uint256,address,uint256,bytes)": {
        "params": {
          "_amount": "ERC20 token deposit amount in atto.",
          "_beneficiary": "Address of beneficiary on the target chain.",
          "_blockNumber": "Block number of origin chain against which storage proof is generated.",
          "_depositor": "Address of depositor on the origin chain.",
          "_feeGasLimit": "Gas limit at which fee will be capped.",
          "_feeGasPrice": "Gas price at which fee will be calculated.",
          "_rlpParentNodes": "Storage merkle proof to verify message declaration                       on the origin chain.",
          "_valueToken": "ERC20 token address on the origin chain."
        },
        "return": "messageHash_ Message hash.     * \\pre `_valueToken` address is not 0. \\pre `_amount` is not 0. \\pre `_beneficiary` address is not 0. \\pre `_depositor` address is not 0. \\pre `_rlpParentNodes` is not 0.     * \\post Adds a new entry in `inbox` mapping storage variable. The value is      set as `true` for `messagehash_` in `inbox` mapping. The      `messageHash_` is calculated by calling `MessageInbox.confirmMessage`      function with parameters `depositIntentHash`, `nonce`,      `_feeGasPrice`, `_feeGasLimit`, `_depositor`, `_blockNumber` and      `_rlpParentNodes`. `depositIntentHash` is calculated by calling      `ERC20GatewayBase.hashDepositIntent` functions with the parameters      `_valueToken`, `_amount` and `_beneficiary`. \\post Deploys a new utility token contract by calling      `deployUtilityToken()` with parameter `_valueToken`. \\post Transfers the tokens to the `msg.sender` address as a fees.      The `fees` amount is calculated by calling      `ERC20GatewayBase::reward()` with parameters `gasConsumed`,      `_feeGasPrice` and `_feeGasLimit`. `gasConsumed` is the approximate      gas used in this transaction. \\post Transfer the `_amount-fees` amount of token to the `_beneficiary`      address. \\post Update the MessageInbox.inboxNonces storage mapping variable by      incrementing the      value for `_withdrawer` by one. \\post Emits `DepositIntentConfirmed` event with the `messageHash_` as a      parameter."
      },
      "getRemoteGatewayLatestProvenBlockNumber()": {
        "return": "blockNumber_ Remote gateway latest proven block number."
      },
      "hashChannelIdentifier(bytes32,address,address)": {
        "params": {
          "_inbox": "Inbox address.",
          "_metachainId": "Metachain identifier.",
          "_outbox": "Outbox address."
        }
      },
      "hashDepositIntent(address,uint256,address)": {
        "params": {
          "_amount": "Amount of tokens.",
          "_beneficiary": "Beneficiary address.",
          "_valueToken": "Value token Address."
        },
        "return": "depositIntentHash_ Hash of deposit intent."
      },
      "hashWithdrawIntent(address,address,uint256,address)": {
        "params": {
          "_amount": "Amount of tokens.",
          "_beneficiary": "Beneficiary address.",
          "_utilityToken": "Utility token address.",
          "_valueToken": "Value token address."
        },
        "return": "withdrawIntentHash_ Hash of withdraw intent."
      },
      "inboxMessageHash(bytes32,uint256,uint256,uint256,address)": {
        "params": {
          "_feeGasLimit": "Fee gas limit.",
          "_feeGasPrice": "Fee gas price.",
          "_intentHash": "Intent hash of message.",
          "_nonce": "Nonce of sender.",
          "_sender": "Sender address."
        },
        "return": "messageHash_ Message hash."
      },
      "outboxMessageHash(bytes32,uint256,uint256,uint256,address)": {
        "params": {
          "_feeGasLimit": "Fee gas limit.",
          "_feeGasPrice": "Fee gas price.",
          "_intentHash": "Intent hash of message.",
          "_nonce": "Nonce of sender.",
          "_sender": "Sender address."
        },
        "return": "messageHash_ Message hash."
      },
      "proveGateway(uint256,bytes,bytes)": {
        "params": {
          "_blockNumber": "Block number at which ERC20Gateway contract is to                    be proven.",
          "_rlpAccount": "RLP encoded account node object.",
          "_rlpParentNodes": "RLP encoded value of account proof node array.     * \\post Calls `MessageInbox.proveStorageAccount()` function with      `_blockNumber`, `_rlpAccount`, `_rlpParentNodes` as input      parameters. \\post Emits `GatewayProven` event with the address of `messageInbox`      and `_blockNumber` parameters."
        }
      },
      "withdraw(uint256,address,uint256,uint256,address)": {
        "params": {
          "_amount": "Amount of tokens to be withdrawn.",
          "_beneficiary": "The address in the origin chain where the value                    where the tokens will be withdrawn.",
          "_feeGasLimit": "Gas limit at which fee will be capped.",
          "_feeGasPrice": "Gas price at which fee will be calculated.",
          "_utilityToken": "Address of utility token."
        },
        "return": "messageHash_ Message hash.     * \\pre `_utilityToken` is not 0. \\pre `_amount` is not 0. \\pre `_beneficiary` is not 0. \\pre `_amount` should be greater than maximum reward. \\pre `msg.sender` should approve erc20 cogateway contract.     * \\post Adds a new entry in `outbox` mapping storage variable. The value is      set as `true` for `messagehash_` in `outbox` mapping. The      `messageHash_` is obtained by calling `MessageOutbox.declareMessage`      with the parameters `withdrawIntentHash`,      `MessageOutbox.outboxNonces[msg.sender]`, `_feeGasPrice`,      `_feeGasLimit` and `msg.sender`. `withdrawIntentHash` is calculated      by calling `ERC20GatewayBase.hashWithdrawIntent` with parameters      `valueToken`, `_utilityToken`, `_amount`, `_beneficiary`. \\post `_amount` number of utility tokens will be burned from `msg.sender`      account by erc20 cogateway. \\post Update the `MessageOutbox.outboxNonces` storage mapping variable      by incrementing the value for `msg.sender` by one. \\post Emits `WithdrawIntentDeclared` event with the `_amount`, address of      `_beneficiary`, `_feeGasPrice`, `_feeGasLimit`, address of      `msg.sender`, address of `_utilityToken` and `messageHash_`."
      }
    },
    "title": "It is used for testing ERC20Cogateway contract."
  },
  "userdoc": {
    "methods": {
      "confirmDeposit(address,uint256,address,uint256,uint256,address,uint256,bytes)": {
        "notice": "Confirm deposit in order to mint tokens."
      },
      "getRemoteGatewayLatestProvenBlockNumber()": {
        "notice": "Gets the remote gateway latest proven block number."
      },
      "hashChannelIdentifier(bytes32,address,address)": {
        "notice": "Generate channel identifier hash from the input params"
      },
      "hashDepositIntent(address,uint256,address)": {
        "notice": "It returns hash of deposit intent."
      },
      "hashWithdrawIntent(address,address,uint256,address)": {
        "notice": "It returns hash of withdraw intent."
      },
      "inboxMessageHash(bytes32,uint256,uint256,uint256,address)": {
        "notice": "Generate inbox message hash from the input params"
      },
      "outboxMessageHash(bytes32,uint256,uint256,uint256,address)": {
        "notice": "Generate outbox message hash from the input params"
      },
      "proveGateway(uint256,bytes,bytes)": {
        "notice": "It verifies that ERC20Gateway contract exists on origin chain        using merkle account proof."
      },
      "setInboundChannelIdentifier(bytes32)": {
        "notice": "Sets inbound channel identifier."
      },
      "setStorageRoot(uint256,bytes32)": {
        "notice": "Sets storage root at specific block number."
      },
      "setup()": {
        "notice": "It initializes ERC20Cogateway contract.     * \\pre Setup function can be called only once.     * \\post Calls `MessageOutbox.setupMessageOutbox()` with parameters      `genesisMetachainId` and `genesisERC20Gateway`. \\post Calls `MessageInbox.setupMessageInbox` with parameters      `genesisMetachainId`, `genesisERC20Gateway`,      `genesisOutboxStorageIndex`, `genesisStateRootProvider` and      `genesisOutboxStorageIndex`. \\post Sets `utilityTokenMasterCopy` storage variable with      `genesisUtilityTokenMastercopy` value."
      },
      "setupGenesis(bytes32,address,address,uint256,uint8,address)": {
        "notice": "It is used to setup genesis params used to        setup ERC20Cogateway contract."
      },
      "withdraw(uint256,address,uint256,uint256,address)": {
        "notice": "It allows withdrawing Utility tokens. Withdrawer needs to      approve erc20 cogateway contract for the amount to be      withdrawn."
      }
    }
  }
}