{
  "contractName": "ERC20Mock",
  "abi": [
    {
      "inputs": [
        {
          "internalType": "address",
          "name": "_initialAccount",
          "type": "address"
        },
        {
          "internalType": "uint256",
          "name": "_initialBalance",
          "type": "uint256"
        }
      ],
      "payable": false,
      "stateMutability": "nonpayable",
      "type": "constructor"
    },
    {
      "anonymous": false,
      "inputs": [
        {
          "indexed": true,
          "internalType": "address",
          "name": "owner",
          "type": "address"
        },
        {
          "indexed": true,
          "internalType": "address",
          "name": "spender",
          "type": "address"
        },
        {
          "indexed": false,
          "internalType": "uint256",
          "name": "value",
          "type": "uint256"
        }
      ],
      "name": "Approval",
      "type": "event"
    },
    {
      "anonymous": false,
      "inputs": [
        {
          "indexed": true,
          "internalType": "address",
          "name": "from",
          "type": "address"
        },
        {
          "indexed": true,
          "internalType": "address",
          "name": "to",
          "type": "address"
        },
        {
          "indexed": false,
          "internalType": "uint256",
          "name": "value",
          "type": "uint256"
        }
      ],
      "name": "Transfer",
      "type": "event"
    },
    {
      "constant": true,
      "inputs": [
        {
          "internalType": "address",
          "name": "owner",
          "type": "address"
        },
        {
          "internalType": "address",
          "name": "spender",
          "type": "address"
        }
      ],
      "name": "allowance",
      "outputs": [
        {
          "internalType": "uint256",
          "name": "",
          "type": "uint256"
        }
      ],
      "payable": false,
      "stateMutability": "view",
      "type": "function"
    },
    {
      "constant": false,
      "inputs": [
        {
          "internalType": "address",
          "name": "spender",
          "type": "address"
        },
        {
          "internalType": "uint256",
          "name": "value",
          "type": "uint256"
        }
      ],
      "name": "approve",
      "outputs": [
        {
          "internalType": "bool",
          "name": "",
          "type": "bool"
        }
      ],
      "payable": false,
      "stateMutability": "nonpayable",
      "type": "function"
    },
    {
      "constant": true,
      "inputs": [
        {
          "internalType": "address",
          "name": "owner",
          "type": "address"
        }
      ],
      "name": "balanceOf",
      "outputs": [
        {
          "internalType": "uint256",
          "name": "",
          "type": "uint256"
        }
      ],
      "payable": false,
      "stateMutability": "view",
      "type": "function"
    },
    {
      "constant": false,
      "inputs": [
        {
          "internalType": "address",
          "name": "spender",
          "type": "address"
        },
        {
          "internalType": "uint256",
          "name": "subtractedValue",
          "type": "uint256"
        }
      ],
      "name": "decreaseAllowance",
      "outputs": [
        {
          "internalType": "bool",
          "name": "",
          "type": "bool"
        }
      ],
      "payable": false,
      "stateMutability": "nonpayable",
      "type": "function"
    },
    {
      "constant": false,
      "inputs": [
        {
          "internalType": "address",
          "name": "spender",
          "type": "address"
        },
        {
          "internalType": "uint256",
          "name": "addedValue",
          "type": "uint256"
        }
      ],
      "name": "increaseAllowance",
      "outputs": [
        {
          "internalType": "bool",
          "name": "",
          "type": "bool"
        }
      ],
      "payable": false,
      "stateMutability": "nonpayable",
      "type": "function"
    },
    {
      "constant": true,
      "inputs": [],
      "name": "totalSupply",
      "outputs": [
        {
          "internalType": "uint256",
          "name": "",
          "type": "uint256"
        }
      ],
      "payable": false,
      "stateMutability": "view",
      "type": "function"
    },
    {
      "constant": false,
      "inputs": [
        {
          "internalType": "address",
          "name": "to",
          "type": "address"
        },
        {
          "internalType": "uint256",
          "name": "value",
          "type": "uint256"
        }
      ],
      "name": "transfer",
      "outputs": [
        {
          "internalType": "bool",
          "name": "",
          "type": "bool"
        }
      ],
      "payable": false,
      "stateMutability": "nonpayable",
      "type": "function"
    },
    {
      "constant": false,
      "inputs": [
        {
          "internalType": "address",
          "name": "from",
          "type": "address"
        },
        {
          "internalType": "address",
          "name": "to",
          "type": "address"
        },
        {
          "internalType": "uint256",
          "name": "value",
          "type": "uint256"
        }
      ],
      "name": "transferFrom",
      "outputs": [
        {
          "internalType": "bool",
          "name": "",
          "type": "bool"
        }
      ],
      "payable": false,
      "stateMutability": "nonpayable",
      "type": "function"
    },
    {
      "constant": false,
      "inputs": [
        {
          "internalType": "address",
          "name": "account",
          "type": "address"
        },
        {
          "internalType": "uint256",
          "name": "value",
          "type": "uint256"
        }
      ],
      "name": "burnFrom",
      "outputs": [
        {
          "internalType": "bool",
          "name": "success_",
          "type": "bool"
        }
      ],
      "payable": false,
      "stateMutability": "nonpayable",
      "type": "function"
    }
  ],
  "bytecode": "0x608060405234801561001057600080fd5b506040516108753803806108758339818101604052604081101561003357600080fd5b50805160209091015161004f82826001600160e01b0361005616565b5050610121565b6001600160a01b03821661006957600080fd5b6100828160025461010860201b6105801790919060201c565b6002556001600160a01b038216600090815260208181526040909120546100b2918390610580610108821b17901c565b6001600160a01b0383166000818152602081815260408083209490945583518581529351929391927fddf252ad1be2c89b69c2b068fc378daa952ba7f163c4a11628f55a4df523b3ef9281900390910190a35050565b60008282018381101561011a57600080fd5b9392505050565b610745806101306000396000f3fe608060405234801561001057600080fd5b50600436106100935760003560e01c806370a082311161006657806370a082311461015457806379cc67901461017a578063a457c2d7146101a6578063a9059cbb146101d2578063dd62ed3e146101fe57610093565b8063095ea7b31461009857806318160ddd146100d857806323b872dd146100f25780633950935114610128575b600080fd5b6100c4600480360360408110156100ae57600080fd5b506001600160a01b03813516906020013561022c565b604080519115158252519081900360200190f35b6100e0610296565b60408051918252519081900360200190f35b6100c46004803603606081101561010857600080fd5b506001600160a01b0381358116916020810135909116906040013561029c565b6100c46004803603604081101561013e57600080fd5b506001600160a01b038135169060200135610353565b6100e06004803603602081101561016a57600080fd5b50356001600160a01b03166103ef565b6100c46004803603604081101561019057600080fd5b506001600160a01b03813516906020013561040a565b6100c4600480360360408110156101bc57600080fd5b506001600160a01b03813516906020013561041f565b6100c4600480360360408110156101e857600080fd5b506001600160a01b038135169060200135610468565b6100e06004803603604081101561021457600080fd5b506001600160a01b0381358116916020013516610475565b60006001600160a01b03831661024157600080fd5b3360008181526001602090815260408083206001600160a01b03881680855290835292819020869055805186815290519293926000805160206106f1833981519152929181900390910190a350600192915050565b60025490565b6001600160a01b03831660009081526001602090815260408083203384529091528120546102d0908363ffffffff6104a016565b6001600160a01b03851660009081526001602090815260408083203384529091529020556102ff8484846104b5565b6001600160a01b0384166000818152600160209081526040808320338085529083529281902054815190815290519293926000805160206106f1833981519152929181900390910190a35060019392505050565b60006001600160a01b03831661036857600080fd5b3360009081526001602090815260408083206001600160a01b038716845290915290205461039c908363ffffffff61058016565b3360008181526001602090815260408083206001600160a01b0389168085529083529281902085905580519485525191936000805160206106f1833981519152929081900390910190a350600192915050565b6001600160a01b031660009081526020819052604090205490565b60006104168383610599565b50600192915050565b60006001600160a01b03831661043457600080fd5b3360009081526001602090815260408083206001600160a01b038716845290915290205461039c908363ffffffff6104a016565b60006104163384846104b5565b6001600160a01b03918216600090815260016020908152604080832093909416825291909152205490565b6000828211156104af57600080fd5b50900390565b6001600160a01b0382166104c857600080fd5b6001600160a01b0383166000908152602081905260409020546104f1908263ffffffff6104a016565b6001600160a01b038085166000908152602081905260408082209390935590841681522054610526908263ffffffff61058016565b6001600160a01b038084166000818152602081815260409182902094909455805185815290519193928716927fddf252ad1be2c89b69c2b068fc378daa952ba7f163c4a11628f55a4df523b3ef92918290030190a3505050565b60008282018381101561059257600080fd5b9392505050565b6001600160a01b03821660009081526001602090815260408083203384529091529020546105cd908263ffffffff6104a016565b6001600160a01b03831660009081526001602090815260408083203384529091529020556105fb8282610649565b6001600160a01b0382166000818152600160209081526040808320338085529083529281902054815190815290519293926000805160206106f1833981519152929181900390910190a35050565b6001600160a01b03821661065c57600080fd5b60025461066f908263ffffffff6104a016565b6002556001600160a01b03821660009081526020819052604090205461069b908263ffffffff6104a016565b6001600160a01b038316600081815260208181526040808320949094558351858152935191937fddf252ad1be2c89b69c2b068fc378daa952ba7f163c4a11628f55a4df523b3ef929081900390910190a3505056fe8c5be1e5ebec7d5bd14f71427d1e84f3dd0314c0f7b2291e5b200ac8c7c3b925a265627a7a72315820a91e2c641125deb58f5cb2b44d7908e7176fda1d7e196c7f0d19c6711ceca1bd64736f6c634300050d0032",
  "source": "pragma solidity >=0.5.0 <0.6.0;\n\n// Copyright 2020 OpenST Ltd.\n//\n// Licensed under the Apache License, Version 2.0 (the \"License\");\n// you may not use this file except in compliance with the License.\n// You may obtain a copy of the License at\n//\n//    http://www.apache.org/licenses/LICENSE-2.0\n//\n// Unless required by applicable law or agreed to in writing, software\n// distributed under the License is distributed on an \"AS IS\" BASIS,\n// WITHOUT WARRANTIES OR CONDITIONS OF ANY KIND, either express or implied.\n// See the License for the specific language governing permissions and\n// limitations under the License.\n\nimport \"openzeppelin-solidity/contracts/token/ERC20/ERC20.sol\";\n\n/**\n * @title Mock ERC20 token used for testing.\n */\ncontract ERC20Mock is ERC20 {\n\n    /* Special Functions */\n\n    /**\n     * @notice ERC20Mock constructor.\n     *\n     * @param _initialAccount Initial account for which tokens will be minted.\n     * @param _initialBalance Initial token supply.\n     */\n    constructor(address _initialAccount, uint256 _initialBalance) public {\n        _mint(_initialAccount, _initialBalance);\n    }\n\n\n    /* External Functions */\n\n    /**\n     * @notice Burn tokens from already approved address.\n     */\n    function burnFrom(address account, uint256 value)\n        external\n        returns (bool success_)\n    {\n        ERC20._burnFrom(account, value);\n        success_ = true;\n    }\n}\n",
  "sourcePath": "/Users/abhay/Documents/projects/abhayforks/mosaic-1/contracts/test/token/ERC20Mock.sol",
  "compiler": {
    "name": "solc",
    "version": "0.5.13+commit.5b0b510c.Emscripten.clang"
  },
  "schemaVersion": "3.0.17",
  "updatedAt": "2020-03-21T06:48:34.827Z",
  "devdoc": {
    "methods": {
      "allowance(address,address)": {
        "details": "Function to check the amount of tokens that an owner allowed to a spender.",
        "params": {
          "owner": "address The address which owns the funds.",
          "spender": "address The address which will spend the funds."
        },
        "return": "A uint256 specifying the amount of tokens still available for the spender."
      },
      "approve(address,uint256)": {
        "details": "Approve the passed address to spend the specified amount of tokens on behalf of msg.sender. Beware that changing an allowance with this method brings the risk that someone may use both the old and the new allowance by unfortunate transaction ordering. One possible solution to mitigate this race condition is to first reduce the spender's allowance to 0 and set the desired value afterwards: https://github.com/ethereum/EIPs/issues/20#issuecomment-263524729",
        "params": {
          "spender": "The address which will spend the funds.",
          "value": "The amount of tokens to be spent."
        }
      },
      "balanceOf(address)": {
        "details": "Gets the balance of the specified address.",
        "params": {
          "owner": "The address to query the balance of."
        },
        "return": "An uint256 representing the amount owned by the passed address."
      },
      "constructor": {
        "params": {
          "_initialAccount": "Initial account for which tokens will be minted.",
          "_initialBalance": "Initial token supply."
        }
      },
      "decreaseAllowance(address,uint256)": {
        "details": "Decrease the amount of tokens that an owner allowed to a spender. approve should be called when allowed_[_spender] == 0. To decrement allowed value is better to use this function to avoid 2 calls (and wait until the first transaction is mined) From MonolithDAO Token.sol Emits an Approval event.",
        "params": {
          "spender": "The address which will spend the funds.",
          "subtractedValue": "The amount of tokens to decrease the allowance by."
        }
      },
      "increaseAllowance(address,uint256)": {
        "details": "Increase the amount of tokens that an owner allowed to a spender. approve should be called when allowed_[_spender] == 0. To increment allowed value is better to use this function to avoid 2 calls (and wait until the first transaction is mined) From MonolithDAO Token.sol Emits an Approval event.",
        "params": {
          "addedValue": "The amount of tokens to increase the allowance by.",
          "spender": "The address which will spend the funds."
        }
      },
      "totalSupply()": {
        "details": "Total number of tokens in existence"
      },
      "transfer(address,uint256)": {
        "details": "Transfer token for a specified address",
        "params": {
          "to": "The address to transfer to.",
          "value": "The amount to be transferred."
        }
      },
      "transferFrom(address,address,uint256)": {
        "details": "Transfer tokens from one address to another. Note that while this function emits an Approval event, this is not required as per the specification, and other compliant implementations may not emit the event.",
        "params": {
          "from": "address The address which you want to send tokens from",
          "to": "address The address which you want to transfer to",
          "value": "uint256 the amount of tokens to be transferred"
        }
      }
    },
    "title": "Mock ERC20 token used for testing."
  },
  "userdoc": {
    "methods": {
      "burnFrom(address,uint256)": {
        "notice": "Burn tokens from already approved address."
      },
      "constructor": "ERC20Mock constructor."
    }
  }
}