{
  "contractName": "Gen0ERC20Cogateway",
  "abi": [
    {
      "anonymous": false,
      "inputs": [
        {
          "indexed": false,
          "internalType": "bytes32",
          "name": "messageHash",
          "type": "bytes32"
        }
      ],
      "name": "DepositIntentConfirmed",
      "type": "event"
    },
    {
      "anonymous": false,
      "inputs": [
        {
          "indexed": false,
          "internalType": "address",
          "name": "remoteGateway",
          "type": "address"
        },
        {
          "indexed": false,
          "internalType": "uint256",
          "name": "blockNumber",
          "type": "uint256"
        }
      ],
      "name": "GatewayProven",
      "type": "event"
    },
    {
      "anonymous": false,
      "inputs": [
        {
          "indexed": false,
          "internalType": "contract Proxy",
          "name": "proxy",
          "type": "address"
        }
      ],
      "name": "ProxyCreation",
      "type": "event"
    },
    {
      "anonymous": false,
      "inputs": [
        {
          "indexed": false,
          "internalType": "address",
          "name": "valueToken",
          "type": "address"
        },
        {
          "indexed": false,
          "internalType": "address",
          "name": "utilityToken",
          "type": "address"
        }
      ],
      "name": "UtilityTokenCreated",
      "type": "event"
    },
    {
      "anonymous": false,
      "inputs": [
        {
          "indexed": false,
          "internalType": "uint256",
          "name": "amount",
          "type": "uint256"
        },
        {
          "indexed": false,
          "internalType": "uint256",
          "name": "nonce",
          "type": "uint256"
        },
        {
          "indexed": false,
          "internalType": "address",
          "name": "beneficiary",
          "type": "address"
        },
        {
          "indexed": false,
          "internalType": "uint256",
          "name": "feeGasPrice",
          "type": "uint256"
        },
        {
          "indexed": false,
          "internalType": "uint256",
          "name": "feeGasLimit",
          "type": "uint256"
        },
        {
          "indexed": false,
          "internalType": "address",
          "name": "withdrawer",
          "type": "address"
        },
        {
          "indexed": false,
          "internalType": "address",
          "name": "utilityToken",
          "type": "address"
        },
        {
          "indexed": false,
          "internalType": "bytes32",
          "name": "messageHash",
          "type": "bytes32"
        }
      ],
      "name": "WithdrawIntentDeclared",
      "type": "event"
    },
    {
      "constant": true,
      "inputs": [],
      "name": "DEPOSIT_INTENT_TYPEHASH",
      "outputs": [
        {
          "internalType": "bytes32",
          "name": "",
          "type": "bytes32"
        }
      ],
      "payable": false,
      "stateMutability": "view",
      "type": "function"
    },
    {
      "constant": true,
      "inputs": [],
      "name": "DOMAIN_SEPARATOR_VERSION",
      "outputs": [
        {
          "internalType": "string",
          "name": "",
          "type": "string"
        }
      ],
      "payable": false,
      "stateMutability": "view",
      "type": "function"
    },
    {
      "constant": true,
      "inputs": [],
      "name": "INBOX_OFFSET",
      "outputs": [
        {
          "internalType": "uint8",
          "name": "",
          "type": "uint8"
        }
      ],
      "payable": false,
      "stateMutability": "view",
      "type": "function"
    },
    {
      "constant": true,
      "inputs": [],
      "name": "MESSAGE_TYPEHASH",
      "outputs": [
        {
          "internalType": "bytes32",
          "name": "",
          "type": "bytes32"
        }
      ],
      "payable": false,
      "stateMutability": "view",
      "type": "function"
    },
    {
      "constant": true,
      "inputs": [],
      "name": "MMB_CHANNEL_TYPEHASH",
      "outputs": [
        {
          "internalType": "bytes32",
          "name": "",
          "type": "bytes32"
        }
      ],
      "payable": false,
      "stateMutability": "view",
      "type": "function"
    },
    {
      "constant": true,
      "inputs": [],
      "name": "MMB_DOMAIN_SEPARATOR_NAME",
      "outputs": [
        {
          "internalType": "string",
          "name": "",
          "type": "string"
        }
      ],
      "payable": false,
      "stateMutability": "view",
      "type": "function"
    },
    {
      "constant": true,
      "inputs": [],
      "name": "MMB_DOMAIN_SEPARATOR_TYPEHASH",
      "outputs": [
        {
          "internalType": "bytes32",
          "name": "",
          "type": "bytes32"
        }
      ],
      "payable": false,
      "stateMutability": "view",
      "type": "function"
    },
    {
      "constant": true,
      "inputs": [],
      "name": "MMB_DOMAIN_SEPARATOR_VERSION",
      "outputs": [
        {
          "internalType": "string",
          "name": "",
          "type": "string"
        }
      ],
      "payable": false,
      "stateMutability": "view",
      "type": "function"
    },
    {
      "constant": true,
      "inputs": [],
      "name": "OUTBOX_OFFSET",
      "outputs": [
        {
          "internalType": "uint8",
          "name": "",
          "type": "uint8"
        }
      ],
      "payable": false,
      "stateMutability": "view",
      "type": "function"
    },
    {
      "constant": true,
      "inputs": [],
      "name": "UTILITY_TOKEN_SETUP_CALLPREFIX",
      "outputs": [
        {
          "internalType": "bytes4",
          "name": "",
          "type": "bytes4"
        }
      ],
      "payable": false,
      "stateMutability": "view",
      "type": "function"
    },
    {
      "constant": true,
      "inputs": [],
      "name": "WITHDRAW_INTENT_TYPEHASH",
      "outputs": [
        {
          "internalType": "bytes32",
          "name": "",
          "type": "bytes32"
        }
      ],
      "payable": false,
      "stateMutability": "view",
      "type": "function"
    },
    {
      "constant": false,
      "inputs": [
        {
          "internalType": "address",
          "name": "_valueToken",
          "type": "address"
        },
        {
          "internalType": "uint256",
          "name": "_amount",
          "type": "uint256"
        },
        {
          "internalType": "address payable",
          "name": "_beneficiary",
          "type": "address"
        },
        {
          "internalType": "uint256",
          "name": "_feeGasPrice",
          "type": "uint256"
        },
        {
          "internalType": "uint256",
          "name": "_feeGasLimit",
          "type": "uint256"
        },
        {
          "internalType": "address",
          "name": "_depositor",
          "type": "address"
        },
        {
          "internalType": "uint256",
          "name": "_blockNumber",
          "type": "uint256"
        },
        {
          "internalType": "bytes",
          "name": "_rlpParentNodes",
          "type": "bytes"
        }
      ],
      "name": "confirmDeposit",
      "outputs": [
        {
          "internalType": "bytes32",
          "name": "messageHash_",
          "type": "bytes32"
        }
      ],
      "payable": false,
      "stateMutability": "nonpayable",
      "type": "function"
    },
    {
      "constant": true,
      "inputs": [],
      "name": "encodedAccountPath",
      "outputs": [
        {
          "internalType": "bytes",
          "name": "",
          "type": "bytes"
        }
      ],
      "payable": false,
      "stateMutability": "view",
      "type": "function"
    },
    {
      "constant": true,
      "inputs": [],
      "name": "genesisERC20Gateway",
      "outputs": [
        {
          "internalType": "address",
          "name": "",
          "type": "address"
        }
      ],
      "payable": false,
      "stateMutability": "view",
      "type": "function"
    },
    {
      "constant": true,
      "inputs": [],
      "name": "genesisMaxStorageRootItems",
      "outputs": [
        {
          "internalType": "uint256",
          "name": "",
          "type": "uint256"
        }
      ],
      "payable": false,
      "stateMutability": "view",
      "type": "function"
    },
    {
      "constant": true,
      "inputs": [],
      "name": "genesisMetachainId",
      "outputs": [
        {
          "internalType": "bytes32",
          "name": "",
          "type": "bytes32"
        }
      ],
      "payable": false,
      "stateMutability": "view",
      "type": "function"
    },
    {
      "constant": true,
      "inputs": [],
      "name": "genesisOutboxStorageIndex",
      "outputs": [
        {
          "internalType": "uint8",
          "name": "",
          "type": "uint8"
        }
      ],
      "payable": false,
      "stateMutability": "view",
      "type": "function"
    },
    {
      "constant": true,
      "inputs": [],
      "name": "genesisStateRootProvider",
      "outputs": [
        {
          "internalType": "address",
          "name": "",
          "type": "address"
        }
      ],
      "payable": false,
      "stateMutability": "view",
      "type": "function"
    },
    {
      "constant": true,
      "inputs": [],
      "name": "genesisUtilityTokenMastercopy",
      "outputs": [
        {
          "internalType": "address",
          "name": "",
          "type": "address"
        }
      ],
      "payable": false,
      "stateMutability": "view",
      "type": "function"
    },
    {
      "constant": true,
      "inputs": [],
      "name": "getRemoteGatewayLatestProvenBlockNumber",
      "outputs": [
        {
          "internalType": "uint256",
          "name": "blockNumber_",
          "type": "uint256"
        }
      ],
      "payable": false,
      "stateMutability": "view",
      "type": "function"
    },
    {
      "constant": true,
      "inputs": [
        {
          "internalType": "bytes32",
          "name": "_metachainId",
          "type": "bytes32"
        },
        {
          "internalType": "address",
          "name": "_outbox",
          "type": "address"
        },
        {
          "internalType": "address",
          "name": "_inbox",
          "type": "address"
        }
      ],
      "name": "hashChannelIdentifier",
      "outputs": [
        {
          "internalType": "bytes32",
          "name": "channelIdentifier_",
          "type": "bytes32"
        }
      ],
      "payable": false,
      "stateMutability": "pure",
      "type": "function"
    },
    {
      "constant": true,
      "inputs": [
        {
          "internalType": "address",
          "name": "_valueToken",
          "type": "address"
        },
        {
          "internalType": "uint256",
          "name": "_amount",
          "type": "uint256"
        },
        {
          "internalType": "address",
          "name": "_beneficiary",
          "type": "address"
        }
      ],
      "name": "hashDepositIntent",
      "outputs": [
        {
          "internalType": "bytes32",
          "name": "depositIntentHash_",
          "type": "bytes32"
        }
      ],
      "payable": false,
      "stateMutability": "pure",
      "type": "function"
    },
    {
      "constant": true,
      "inputs": [
        {
          "internalType": "address",
          "name": "_valueToken",
          "type": "address"
        },
        {
          "internalType": "address",
          "name": "_utilityToken",
          "type": "address"
        },
        {
          "internalType": "uint256",
          "name": "_amount",
          "type": "uint256"
        },
        {
          "internalType": "address",
          "name": "_beneficiary",
          "type": "address"
        }
      ],
      "name": "hashWithdrawIntent",
      "outputs": [
        {
          "internalType": "bytes32",
          "name": "withdrawIntentHash_",
          "type": "bytes32"
        }
      ],
      "payable": false,
      "stateMutability": "pure",
      "type": "function"
    },
    {
      "constant": true,
      "inputs": [],
      "name": "inboundChannelIdentifier",
      "outputs": [
        {
          "internalType": "bytes32",
          "name": "",
          "type": "bytes32"
        }
      ],
      "payable": false,
      "stateMutability": "view",
      "type": "function"
    },
    {
      "constant": true,
      "inputs": [
        {
          "internalType": "bytes32",
          "name": "",
          "type": "bytes32"
        }
      ],
      "name": "inbox",
      "outputs": [
        {
          "internalType": "bool",
          "name": "",
          "type": "bool"
        }
      ],
      "payable": false,
      "stateMutability": "view",
      "type": "function"
    },
    {
      "constant": true,
      "inputs": [
        {
          "internalType": "bytes32",
          "name": "_intentHash",
          "type": "bytes32"
        },
        {
          "internalType": "uint256",
          "name": "_nonce",
          "type": "uint256"
        },
        {
          "internalType": "uint256",
          "name": "_feeGasPrice",
          "type": "uint256"
        },
        {
          "internalType": "uint256",
          "name": "_feeGasLimit",
          "type": "uint256"
        },
        {
          "internalType": "address",
          "name": "_sender",
          "type": "address"
        }
      ],
      "name": "inboxMessageHash",
      "outputs": [
        {
          "internalType": "bytes32",
          "name": "messageHash_",
          "type": "bytes32"
        }
      ],
      "payable": false,
      "stateMutability": "view",
      "type": "function"
    },
    {
      "constant": true,
      "inputs": [
        {
          "internalType": "address",
          "name": "",
          "type": "address"
        }
      ],
      "name": "inboxNonces",
      "outputs": [
        {
          "internalType": "uint256",
          "name": "",
          "type": "uint256"
        }
      ],
      "payable": false,
      "stateMutability": "view",
      "type": "function"
    },
    {
      "constant": true,
      "inputs": [],
      "name": "messageInbox",
      "outputs": [
        {
          "internalType": "address",
          "name": "",
          "type": "address"
        }
      ],
      "payable": false,
      "stateMutability": "view",
      "type": "function"
    },
    {
      "constant": true,
      "inputs": [],
      "name": "messageOutbox",
      "outputs": [
        {
          "internalType": "address",
          "name": "",
          "type": "address"
        }
      ],
      "payable": false,
      "stateMutability": "view",
      "type": "function"
    },
    {
      "constant": true,
      "inputs": [],
      "name": "outboundChannelIdentifier",
      "outputs": [
        {
          "internalType": "bytes32",
          "name": "",
          "type": "bytes32"
        }
      ],
      "payable": false,
      "stateMutability": "view",
      "type": "function"
    },
    {
      "constant": true,
      "inputs": [
        {
          "internalType": "bytes32",
          "name": "",
          "type": "bytes32"
        }
      ],
      "name": "outbox",
      "outputs": [
        {
          "internalType": "bool",
          "name": "",
          "type": "bool"
        }
      ],
      "payable": false,
      "stateMutability": "view",
      "type": "function"
    },
    {
      "constant": true,
      "inputs": [
        {
          "internalType": "bytes32",
          "name": "_intentHash",
          "type": "bytes32"
        },
        {
          "internalType": "uint256",
          "name": "_nonce",
          "type": "uint256"
        },
        {
          "internalType": "uint256",
          "name": "_feeGasPrice",
          "type": "uint256"
        },
        {
          "internalType": "uint256",
          "name": "_feeGasLimit",
          "type": "uint256"
        },
        {
          "internalType": "address",
          "name": "_sender",
          "type": "address"
        }
      ],
      "name": "outboxMessageHash",
      "outputs": [
        {
          "internalType": "bytes32",
          "name": "messageHash_",
          "type": "bytes32"
        }
      ],
      "payable": false,
      "stateMutability": "view",
      "type": "function"
    },
    {
      "constant": true,
      "inputs": [
        {
          "internalType": "address",
          "name": "",
          "type": "address"
        }
      ],
      "name": "outboxNonces",
      "outputs": [
        {
          "internalType": "uint256",
          "name": "",
          "type": "uint256"
        }
      ],
      "payable": false,
      "stateMutability": "view",
      "type": "function"
    },
    {
      "constant": true,
      "inputs": [],
      "name": "outboxStorageIndex",
      "outputs": [
        {
          "internalType": "uint8",
          "name": "",
          "type": "uint8"
        }
      ],
      "payable": false,
      "stateMutability": "view",
      "type": "function"
    },
    {
      "constant": false,
      "inputs": [
        {
          "internalType": "uint256",
          "name": "_blockNumber",
          "type": "uint256"
        },
        {
          "internalType": "bytes",
          "name": "_rlpAccount",
          "type": "bytes"
        },
        {
          "internalType": "bytes",
          "name": "_rlpParentNodes",
          "type": "bytes"
        }
      ],
      "name": "proveGateway",
      "outputs": [],
      "payable": false,
      "stateMutability": "nonpayable",
      "type": "function"
    },
    {
      "constant": true,
      "inputs": [],
      "name": "stateRootProvider",
      "outputs": [
        {
          "internalType": "contract StateRootInterface",
          "name": "",
          "type": "address"
        }
      ],
      "payable": false,
      "stateMutability": "view",
      "type": "function"
    },
    {
      "constant": true,
      "inputs": [],
      "name": "storageAccount",
      "outputs": [
        {
          "internalType": "address",
          "name": "",
          "type": "address"
        }
      ],
      "payable": false,
      "stateMutability": "view",
      "type": "function"
    },
    {
      "constant": true,
      "inputs": [
        {
          "internalType": "uint256",
          "name": "",
          "type": "uint256"
        }
      ],
      "name": "storageRoots",
      "outputs": [
        {
          "internalType": "bytes32",
          "name": "",
          "type": "bytes32"
        }
      ],
      "payable": false,
      "stateMutability": "view",
      "type": "function"
    },
    {
      "constant": true,
      "inputs": [],
      "name": "utilityTokenMasterCopy",
      "outputs": [
        {
          "internalType": "address",
          "name": "",
          "type": "address"
        }
      ],
      "payable": false,
      "stateMutability": "view",
      "type": "function"
    },
    {
      "constant": true,
      "inputs": [
        {
          "internalType": "address",
          "name": "",
          "type": "address"
        }
      ],
      "name": "utilityTokens",
      "outputs": [
        {
          "internalType": "address",
          "name": "",
          "type": "address"
        }
      ],
      "payable": false,
      "stateMutability": "view",
      "type": "function"
    },
    {
      "constant": false,
      "inputs": [
        {
          "internalType": "uint256",
          "name": "_amount",
          "type": "uint256"
        },
        {
          "internalType": "address",
          "name": "_beneficiary",
          "type": "address"
        },
        {
          "internalType": "uint256",
          "name": "_feeGasPrice",
          "type": "uint256"
        },
        {
          "internalType": "uint256",
          "name": "_feeGasLimit",
          "type": "uint256"
        },
        {
          "internalType": "contract UtilityTokenInterface",
          "name": "_utilityToken",
          "type": "address"
        }
      ],
      "name": "withdraw",
      "outputs": [
        {
          "internalType": "bytes32",
          "name": "messageHash_",
          "type": "bytes32"
        }
      ],
      "payable": false,
      "stateMutability": "nonpayable",
      "type": "function"
    },
    {
      "constant": false,
      "inputs": [
        {
          "internalType": "bytes32",
          "name": "_metachainId",
          "type": "bytes32"
        },
        {
          "internalType": "address",
          "name": "_erc20Gateway",
          "type": "address"
        },
        {
          "internalType": "address",
          "name": "_stateRootProvider",
          "type": "address"
        },
        {
          "internalType": "uint256",
          "name": "_maxStorageRootItems",
          "type": "uint256"
        },
        {
          "internalType": "uint8",
          "name": "_outboxStorageIndex",
          "type": "uint8"
        },
        {
          "internalType": "address",
          "name": "_utilityTokenMastercopy",
          "type": "address"
        }
      ],
      "name": "activate",
      "outputs": [],
      "payable": false,
      "stateMutability": "nonpayable",
      "type": "function"
    },
    {
      "constant": false,
      "inputs": [],
      "name": "setup",
      "outputs": [],
      "payable": false,
      "stateMutability": "nonpayable",
      "type": "function"
    }
  ],
  "bytecode": "0x608060405234801561001057600080fd5b50613afd806100206000396000f3fe60806040523480156200001157600080fd5b5060043610620002a45760003560e01c80638be050381162000171578063d31b596811620000d5578063efa9c7c91162000093578063efa9c7c9146200088d578063efefe0eb1462000897578063f02a0e9014620008a1578063f0df1e7314620008ab578063f732ecff14620008b5578063fe08d81814620008bf57620002a4565b8063d31b596814620007bf578063d4d1118514620007e8578063dd01372314620007f2578063ddd335eb1462000842578063ec943dec146200088357620002a4565b8063b1c91e21116200012f578063b1c91e211462000742578063b4907ddc1462000742578063ba0bba40146200074c578063bd3623741462000756578063c4fec67a1462000776578063c9a29f3c146200078057620002a4565b80638be0503814620006e3578063928a735a14620006ed578063965ef01b14620006f75780639f0b7dfe1462000701578063ae640285146200073857620002a4565b80633eb3d9a3116200021957806360cf858511620001d757806360cf85851462000674578063610ebfe2146200067e57806363630ae0146200069e5780636cf4053a14620006a857806373c61ff414620006cf5780637ddcca1714620006d957620002a4565b80633eb3d9a314620005c057806346e356b11462000603578063523ce242146200060d5780635c1dc83a14620006415780635ecec564146200066a57620002a4565b806321ea7ee1116200026757806321ea7ee114620003fd5780632f70e81814620004d15780632fe05ad914620004fa578063357d6c8514620005045780633ad2268114620005b657620002a4565b806302de1ba914620002a957806309bf5f3814620002f45780630e31eb60146200031457806316ad76b8146200035557806320e1855f14620003d7575b600080fd5b620002e260048036036060811015620002c157600080fd5b506001600160a01b03813581169160208101359160409091013516620008c9565b60408051918252519081900360200190f35b620002fe6200092f565b6040805160ff9092168252519081900360200190f35b620002e2600480360360a08110156200032c57600080fd5b50803590602081013590604081013590606081013590608001356001600160a01b03166200093f565b6200035f6200095d565b6040805160208082528351818301528351919283929083019185019080838360005b838110156200039b57818101518382015260200162000381565b50505050905090810190601f168015620003c95780820380516001836020036101000a031916815260200191505b509250505060405180910390f35b620003e1620009ef565b604080516001600160a01b039092168252519081900360200190f35b620004cf600480360360608110156200041557600080fd5b813591908101906040810160208201356401000000008111156200043857600080fd5b8201836020820111156200044b57600080fd5b803590602001918460018302840111640100000000831117156200046e57600080fd5b9193909290916020810190356401000000008111156200048d57600080fd5b820183602082011115620004a057600080fd5b80359060200191846001830284011164010000000083111715620004c357600080fd5b509092509050620009fe565b005b620003e160048036036020811015620004e957600080fd5b50356001600160a01b031662000ac2565b620002e262000add565b620002e260048036036101008110156200051d57600080fd5b6001600160a01b038235811692602081013592604082013583169260608301359260808101359260a08201359092169160c08201359190810190610100810160e08201356401000000008111156200057457600080fd5b8201836020820111156200058757600080fd5b80359060200191846001830284011164010000000083111715620005aa57600080fd5b50909250905062000af9565b620003e162000e49565b620002e2600480360360a0811015620005d857600080fd5b508035906001600160a01b036020820135811691604081013591606082013591608001351662000e5d565b620002e2620010ed565b6200062d600480360360208110156200062557600080fd5b503562001109565b604080519115158252519081900360200190f35b620002e2600480360360208110156200065957600080fd5b50356001600160a01b03166200111e565b620002e262001130565b620002fe62001136565b620002e2600480360360208110156200069657600080fd5b50356200113f565b620003e162001151565b620006b262001160565b604080516001600160e01b03199092168252519081900360200190f35b620003e16200117c565b620002e26200118b565b620003e16200119c565b620002fe620011ab565b620003e1620011b0565b620002e2600480360360608110156200071957600080fd5b508035906001600160a01b0360208201358116916040013516620011bf565b6200035f62001386565b6200035f620013ac565b620004cf620013c9565b6200062d600480360360208110156200076e57600080fd5b5035620013cb565b620002e2620013e0565b620002e2600480360360808110156200079857600080fd5b506001600160a01b03813581169160208101358216916040820135916060013516620013e6565b620002e260048036036020811015620007d757600080fd5b50356001600160a01b031662001453565b620003e162001465565b620004cf600480360360c08110156200080a57600080fd5b508035906001600160a01b036020820135811691604081013582169160608201359160ff6080820135169160a0909101351662001474565b620002e2600480360360a08110156200085a57600080fd5b50803590602081013590604081013590606081013590608001356001600160a01b031662001657565b620002e26200166b565b620002e262001671565b620003e16200168d565b620002e26200169c565b620002e2620016a2565b620002e2620016be565b620002fe620016da565b600060405180806200380a60449139604080519182900360440182206020808401919091526001600160a01b03978816838301526060830196909652959093166080808501919091528551808503909101815260a0909301909452508051910120919050565b601254600160a01b900460ff1681565b6000620009538686868686600754620016df565b9695505050505050565b600e805460408051602060026001851615610100026000190190941693909304601f81018490048402820184019092528181529291830182828015620009e75780601f10620009bb57610100808354040283529160200191620009e7565b820191906000526020600020905b815481529060010190602001808311620009c957829003601f168201915b505050505081565b600c546001600160a01b031681565b62000a748585858080601f01602080910402602001604051908101604052809392919081815260200183838082843760009201919091525050604080516020601f890181900481028201810190925287815292508791508690819084018382808284376000920191909152506200179392505050565b600854604080516001600160a01b0390921682526020820187905280517fb73458fd9d18500409beead43bcd51b06626f19116a5e1f7a094d03e1b55538d9281900390910190a15050505050565b6015602052600090815260409020546001600160a01b031681565b6040518060366200372e82396036019050604051809103902081565b6000805a90506001600160a01b038b1662000b465760405162461bcd60e51b815260040180806020018281038252602281526020018062003a5a6022913960400191505060405180910390fd5b8962000b99576040805162461bcd60e51b815260206004820152601d60248201527f4465706f73697420616d6f756e74206d757374206e6f7420626520302e000000604482015290519081900360640190fd5b6001600160a01b03891662000be05760405162461bcd60e51b8152600401808060200182810382526022815260200180620037886022913960400191505060405180910390fd5b6001600160a01b03861662000c3c576040805162461bcd60e51b815260206004820181905260248201527f4465706f7369746f722061646472657373206d757374206e6f7420626520302e604482015290519081900360640190fd5b600062000c498c620017a5565b6001600160a01b03881660009081526013602052604090205490915062000c7881600163ffffffff620018e316565b6001600160a01b03891660009081526013602052604090205562000ce462000ca28e8e8e620008c9565b828c8c8c8c8c8c8080601f016020809104026020016040519081016040528093929190818152602001838380828437600092019190915250620018ff92505050565b9350600062000d0762000cff5a869063ffffffff620019e216565b8c8c620019f8565b9050600062000d1d8e8363ffffffff620019e216565b604080516340c10f1960e01b81523360048201526024810185905290519192506001600160a01b038616916340c10f199160448082019260009290919082900301818387803b15801562000d7057600080fd5b505af115801562000d85573d6000803e3d6000fd5b50505050836001600160a01b03166340c10f198e836040518363ffffffff1660e01b815260040180836001600160a01b03166001600160a01b0316815260200182815260200192505050600060405180830381600087803b15801562000dea57600080fd5b505af115801562000dff573d6000803e3d6000fd5b50506040805189815290517fc59b26ee33944690e53eadbee80f9b49dca067cd4978563dc4a6f5218cdb68219350908190036020019150a150505050509998505050505050505050565b60055461010090046001600160a01b031681565b60006001600160a01b03821662000ea65760405162461bcd60e51b8152600401808060200182810382526024815260200180620038f86024913960400191505060405180910390fd5b6001600160a01b03851662000eed5760405162461bcd60e51b8152600401808060200182810382526022815260200180620037886022913960400191505060405180910390fd5b62000eff848463ffffffff62001a3916565b861162000f3e5760405162461bcd60e51b81526004018080602001828103825260348152602001806200386f6034913960400191505060405180910390fd5b6000826001600160a01b031663effff82f6040518163ffffffff1660e01b8152600401602060405180830381600087803b15801562000f7c57600080fd5b505af115801562000f91573d6000803e3d6000fd5b505050506040513d602081101562000fa857600080fd5b50519050600062000fbc82858a8a620013e6565b3360009081526009602052604090205490915062000fe281600163ffffffff620018e316565b336000818152600960205260409020919091556200100890839083908a908a9062001a64565b6040805163079cc67960e41b8152336004820152602481018c905290519195506001600160a01b038716916379cc67909160448082019260009290919082900301818387803b1580156200105b57600080fd5b505af115801562001070573d6000803e3d6000fd5b5050604080518c8152602081018590526001600160a01b03808d1682840152606082018c9052608082018b90523360a0830152891660c082015260e0810188905290517f976d81963620793952f53cff406abbbc8e1f613fac99ffe8a8b94f54c401caf0935090819003610100019150a150505095945050505050565b604051806060620037aa82396060019050604051809103902081565b60066020526000908152604090205460ff1681565b60136020526000908152604090205481565b60115481565b60055460ff1681565b600f6020526000908152604090205481565b6002546001600160a01b031681565b604051806032620038c682396032019050604051809103902081565b6003546001600160a01b031681565b60006200119762001aed565b905090565b6014546001600160a01b031681565b600981565b6008546001600160a01b031681565b60008060405180806200372e60369139604080519182900360360182206020808401919091526001600160a01b0380891684840152871660608085019190915282518085039091018152608090930191829052825192019190912092509050806059620036d58239605901905060405180910390206040518060400160405280600a8152602001694d6f736169632d42757360b01b815250604051806040016040528060018152602001600360fc1b8152508784604051602001808681526020018060200180602001858152602001848152602001838103835287818151815260200191508051906020019080838360005b83811015620012cb578181015183820152602001620012b1565b50505050905090810190601f168015620012f95780820380516001836020036101000a031916815260200191505b50838103825286518152865160209182019188019080838360005b838110156200132e57818101518382015260200162001314565b50505050905090810190601f1680156200135c5780820380516001836020036101000a031916815260200191505b50975050505050505050604051602081830303815290604052805190602001209150509392505050565b6040518060400160405280600a8152602001694d6f736169632d42757360b01b81525081565b604051806040016040528060018152602001600360fc1b81525081565b565b60106020526000908152604090205460ff1681565b60015481565b6000604051808062003941605a91396040805191829003605a0182206020808401919091526001600160a01b0398891683830152968816606083015260808201959095529590921660a0808701919091528351808703909101815260c09095019092525050815191012090565b60096020526000908152604090205481565b600d546001600160a01b031681565b85620014bc576040805162461bcd60e51b815260206004820152601260248201527126b2ba30b1b430b4b71034b21034b990181760711b604482015290519081900360640190fd5b6001600160a01b03851662001518576040805162461bcd60e51b815260206004820152601e60248201527f4552433230436f676174657761792773206164647265737320697320302e0000604482015290519081900360640190fd5b6001600160a01b0384166200155f5760405162461bcd60e51b8152600401808060200182810382526023815260200180620038a36023913960400191505060405180910390fd5b826200159d5760405162461bcd60e51b81526004018080602001828103825260218152602001806200384e6021913960400191505060405180910390fd5b6001600160a01b038116620015e45760405162461bcd60e51b81526004018080602001828103825260328152602001806200399b6032913960400191505060405180910390fd5b6001869055600280546001600160a01b03199081166001600160a01b03888116919091179092556003805490911686831617905560048490556005805460ff191660ff851617610100600160a81b031916610100928416929092029190911790556200164f62001b0f565b505050505050565b6000620009538686868686601154620016df565b60045481565b6040518060446200380a82396044019050604051809103902081565b6012546001600160a01b031681565b60075481565b60405180605a620039418239605a019050604051809103902081565b604051806059620036d582396059019050604051809103902081565b600681565b6000806040518080620037aa606091396040805191829003606090810183206020808501919091528383019c909c52820199909952608081019790975250505060a08401929092526001600160a01b031660c0808401919091528351808403909101815260e083018452805190850120601960f81b610100840152604d60f81b6101018401526101028301919091526101228083019190915282518083039091018152610142909101909152805191012090565b620017a083838362001b81565b505050565b6001600160a01b038082166000908152601560205260409020541680620018de5760606040518080620038c66032913960408051918290036032018220600060648401819052608484018190523060a48501526001600160a01b0380891660c486015260c0602486015260e48501829052610100604486015261012485019190915282518085036101440181526101649094019092526020830180516001600160e01b03166001600160e01b0319909216919091179052601454919350620018709250168262001dd3565b6001600160a01b0384811660008181526015602090815260409182902080546001600160a01b0319169486169485179055815192835282019290925281519294507fc2565f0ade5e0997b015f4c88815685f8900f048bc81e49f551f38239c97044c929081900390910190a1505b919050565b600082820183811015620018f657600080fd5b90505b92915050565b6000620019138888888888601154620016df565b60008181526010602052604090205490915060ff1615620019665760405162461bcd60e51b815260040180806020018281038252602481526020018062003a0f6024913960400191505060405180910390fd5b6000818152601060205260409020805460ff191660011790556012546060906200199b90600160a01b900460ff168362001e7c565b60408051600160f81b6020808301919091528251808303600101815260219092019092528051910120909150620019d6908290868662001f5c565b50979650505050505050565b600082821115620019f257600080fd5b50900390565b60008184111562001a1d5762001a15838363ffffffff62001a3916565b905062001a32565b62001a2f838563ffffffff62001a3916565b90505b9392505050565b60008262001a4a57506000620018f9565b8282028284828162001a5857fe5b0414620018f657600080fd5b600062001a788686868686600754620016df565b60008181526006602052604090205490915060ff161562001acb5760405162461bcd60e51b81526004018080602001828103825260258152602001806200391c6025913960400191505060405180910390fd5b6000818152600660205260409020805460ff1916600117905595945050505050565b6000600a600b548154811062001aff57fe5b9060005260206000200154905090565b60015460025462001b2a91906001600160a01b03166200205d565b60015460025460055460035460045462001b5794936001600160a01b039081169360ff169216906200218f565b600554601480546101009092046001600160a01b03166001600160a01b0319909216919091179055565b815162001bc05760405162461bcd60e51b8152600401808060200182810382526024815260200180620037646024913960400191505060405180910390fd5b805162001c14576040805162461bcd60e51b815260206004820152601f60248201527f4c656e677468206f6620524c5020706172656e74206e6f646573206973203000604482015290519081900360640190fd5b600d5460408051631870032760e31b81526004810186905290516000926001600160a01b03169163c3801938916024808301926020929190829003018186803b15801562001c6157600080fd5b505afa15801562001c76573d6000803e3d6000fd5b505050506040513d602081101562001c8d57600080fd5b505190508062001ce4576040805162461bcd60e51b815260206004820152601b60248201527f537461746520726f6f74206d757374206e6f74206265207a65726f0000000000604482015290519081900360640190fd5b6000848152600f60205260409020548062001dcc57600e805460408051602060026001851615610100026000190190941693909304601f810184900484028201840190925281815260009362001d9b9389938993929183018282801562001d8f5780601f1062001d635761010080835404028352916020019162001d8f565b820191906000526020600020905b81548152906001019060200180831162001d7157829003601f168201915b50505050508662002319565b6000878152600f6020526040812082905590915062001dba8762002442565b6000908152600f602052604081205550505b5050505050565b60008260405162001de49062003476565b6001600160a01b03909116815260405190819003602001906000f08015801562001e12573d6000803e3d6000fd5b5082519091501562001e3a5760008060008451602086016000865af1141562001e3a57600080fd5b604080516001600160a01b038316815290517fa38789425dbeee0239e16ff2d2567e31720127fbc6430758c1a4efc6aef29f809181900360200190a192915050565b60608062001e9762001e9160ff86166200248d565b620024b7565b9050606062001eaa62001e91856200248d565b9050606062001eba8284620024f4565b905062000953816040516020018082805190602001908083835b6020831062001ef55780518252601f19909201916020918201910162001ed4565b6001836020036101000a0380198251168184511680821785525050505050509050019150506040516020818303038152906040528051906020012060405160200180828152602001915050604051602081830303815290604052805190602001206200248d565b805162001fb0576040805162461bcd60e51b815260206004820181905260248201527f4c656e677468206f6620524c5020706172656e74206e6f64657320697320302e604482015290519081900360640190fd5b6000828152600f60205260409020548062002012576040805162461bcd60e51b815260206004820152601d60248201527f53746f7261676520726f6f74206d757374206e6f74206265207a65726f000000604482015290519081900360640190fd5b620020208486848462002570565b62001dcc5760405162461bcd60e51b8152600401808060200182810382526021815260200180620039cd6021913960400191505060405180910390fd5b60075415620020b3576040805162461bcd60e51b815260206004820181905260248201527f4d657373616765206f7574626f7820697320616c72656164792073657475702e604482015290519081900360640190fd5b81620020fb576040805162461bcd60e51b815260206004820152601260248201527126b2ba30b1b430b4b71034b21034b990181760711b604482015290519081900360640190fd5b6001600160a01b03811662002157576040805162461bcd60e51b815260206004820152601b60248201527f4d65737361676520696e626f78206164647265737320697320302e0000000000604482015290519081900360640190fd5b600880546001600160a01b0319166001600160a01b03838116919091179182905562002188918491309116620011bf565b6007555050565b60115415620021e5576040805162461bcd60e51b815260206004820152601f60248201527f4d65737361676520696e626f7820697320616c72656164792073657475702e00604482015290519081900360640190fd5b846200222d576040805162461bcd60e51b815260206004820152601260248201527136b2ba30b1b430b4b71034b21034b990181760711b604482015290519081900360640190fd5b6001600160a01b03841662002280576040805162461bcd60e51b815260206004820152601460248201527327baba3137bc1030b2323932b9b99034b990181760611b604482015290519081900360640190fd5b6001600160a01b038216620022c75760405162461bcd60e51b8152600401808060200182810382526021815260200180620039ee6021913960400191505060405180910390fd5b601280546001600160a01b0319166001600160a01b038681169190911760ff60a01b1916600160a01b60ff8716021791829055620023099187911630620011bf565b60115562001dcc8483836200291b565b60006200232562003484565b620023308662002ab0565b905060606200233f8262002af7565b905062002361816002815181106200235357fe5b602002602001015162002bbd565b92506000876040516020018082805190602001908083835b602083106200239a5780518252601f19909201916020918201910162002379565b6001836020036101000a038019825116818451168082178552505050505050905001915050604051602081830303815290604052805190602001209050620023e58187898862002570565b62002437576040805162461bcd60e51b815260206004820152601e60248201527f4163636f756e742070726f6f66206973206e6f742076657269666965642e0000604482015290519081900360640190fd5b505050949350505050565b60006200244e62002bca565b600a600b54815481106200245e57fe5b9060005260206000200154905081600a600b54815481106200247c57fe5b600091825260209091200155919050565b60408051602080825281830190925260609160208201818038833950505060208101929092525090565b60608082516020036040519080825280601f01601f191660200182016040528015620024ea576020820181803883390190505b50905062001a3281845b60606040519050825180825260208201818101602086015b81831015620025265780518352602092830192016200250c565b50845184518101855292509050808201602085015b81831015620025555780518352602092830192016200253b565b50601f19601f87518501158301011660405250505092915050565b60006200257c62003484565b620025878462002ab0565b90506060620025968262002af7565b905060608085600082620025aa8b62002be6565b9050805160001415620025c857600097505050505050505062002913565b60005b86518110156200290a578151831115620025f15760009850505050505050505062002913565b620026108782815181106200260257fe5b602002602001015162002c67565b9550856040516020018082805190602001908083835b60208310620026475780518252601f19909201916020918201910162002626565b6001836020036101000a0380198251168184511680821785525050505050509050019150506040516020818303038152906040528051906020012084146200269b5760009850505050505050505062002913565b620026ba878281518110620026ac57fe5b602002602001015162002af7565b9450845160111415620027d75781518314156200277e578c620026e4866010815181106200260257fe5b6040516020018082805190602001908083835b60208310620027185780518252601f199092019160209182019101620026f7565b6001836020036101000a0380198251168184511680821785525050505050509050019150506040516020818303038152906040528051906020012014156200276c5760019850505050505050505062002913565b60009850505050505050505062002913565b60008284815181106200278d57fe5b016020015160f81c90506010811115620027b4576000995050505050505050505062002913565b620027c8868260ff16815181106200235357fe5b94506001840193505062002901565b8451600214156200276c576000620028106200280887600081518110620027fa57fe5b602002602001015162002cbc565b848662002d29565b905082518185011415620028cd578d6200283187600181518110620027fa57fe5b6040516020018082805190602001908083835b60208310620028655780518252601f19909201916020918201910162002844565b6001836020036101000a038019825116818451168082178552505050505050905001915050604051602081830303815290604052805190602001201415620028ba576001995050505050505050505062002913565b6000995050505050505050505062002913565b80620028e6576000995050505050505050505062002913565b8084019350620028fd866001815181106200235357fe5b9450505b600101620025cb565b50505050505050505b949350505050565b600d546001600160a01b03161562002973576040805162461bcd60e51b815260206004820152601660248201527529b2ba3ab81034b99030b63932b0b23c903237b7329760511b604482015290519081900360640190fd5b6001600160a01b038316620029cf576040805162461bcd60e51b815260206004820152601d60248201527f53746f72616765206163636f756e74206164647265737320697320302e000000604482015290519081900360640190fd5b6001600160a01b03821662002a165760405162461bcd60e51b8152600401808060200182810382526021815260200180620039ee6021913960400191505060405180910390fd5b62002a218162002ec7565b600c80546001600160a01b038086166001600160a01b031992831617909255600d805492851692909116919091179055604080516bffffffffffffffffffffffff19606086901b16602080830191909152825180830360140181526034909201909252805191012062002a94906200248d565b805162002aaa91600e916020909101906200349e565b50505050565b62002aba62003484565b81518062002ade5750506040805180820190915260008082526020820152620018de565b6040805180820190915260209384018152928301525090565b606062002b048262002f5b565b62002b0e57600080fd5b600062002b1b8362002f84565b90508060405190808252806020026020018201604052801562002b5b57816020015b62002b4762003484565b81526020019060019003908162002b3d5790505b50915062002b6862003523565b62002b738462002fe8565b905060005b62002b838262003026565b1562002bb55762002b948262003047565b84828151811062002ba157fe5b602090810291909101015260010162002b78565b505050919050565b6000620018f98262003092565b600b805460010190819055600a541415620013c9576000600b55565b606081516002026040519080825280601f01601f19166020018201604052801562002c18576020820181803883390190505b50905060005b815181101562002c615762002c348184620030e9565b82828151811062002c4157fe5b60200101906001600160f81b031916908160001a90535060010162002c1e565b50919050565b60208101516060908062002c7c5750620018de565b806040519080825280601f01601f19166020018201604052801562002ca8576020820181803883390190505b50915062002c61836000015183836200314c565b606062002cc9826200317e565b62002cd357600080fd5b60008062002ce184620031a6565b60408051828152601f19601f8401168101602001909152919350915081801562002d12576020820181803883390190505b50925062002d228284836200314c565b5050919050565b6000606062002d38856200321d565b9050606081516040519080825280601f01601f19166020018201604052801562002d69576020820181803883390190505b509050835b8251850181101562002dc757600086828151811062002d8957fe5b602001015160f81c60f81b905080838784038151811062002da657fe5b60200101906001600160f81b031916908160001a9053505060010162002d6e565b50806040516020018082805190602001908083835b6020831062002dfd5780518252601f19909201916020918201910162002ddc565b6001836020036101000a03801982511681845116808217855250505050505090500191505060405160208183030381529060405280519060200120826040516020018082805190602001908083835b6020831062002e6d5780518252601f19909201916020918201910162002e4c565b6001836020036101000a03801982511681845116808217855250505050505090500191505060405160208183030381529060405280519060200120141562002eb9578151925062002ebe565b600092505b50509392505050565b6000811162002f085760405162461bcd60e51b815260040180806020018281038252604d81526020018062003a7c604d913960600191505060405180910390fd5b600a541562002f495760405162461bcd60e51b815260040180806020018281038252602781526020018062003a336027913960400191505060405180910390fd5b8062002f57600a8262003545565b5050565b600081602001516000141562002f7457506000620018de565b50515160c060009190911a101590565b600062002f918262002f5b565b62002f9f57506000620018de565b81518051600090811a919062002fb58562003359565b6020860151908301915082016000190160005b818311620009535762002fdb83620033e1565b9092019160010162002fc8565b62002ff262003523565b62002ffd8262002f5b565b6200300757600080fd5b6000620030148362003359565b83519383529092016020820152919050565b60006200303262003484565b50508051602080820151915192015191011190565b6200305162003484565b6200305c8262003026565b6200306657600080fd5b602082015160006200307882620033e1565b828452602080850182905292019390910192909252919050565b60006200309f826200317e565b620030a957600080fd5b600080620030b784620031a6565b90925090506020811180620030ca575080155b15620030d557600080fd5b806020036101000a82510492505050919050565b600060028306156200311e5760108260028504815181106200310757fe5b016020015160f81c816200311757fe5b0662003142565b60108260028504815181106200313057fe5b016020015160f81c816200314057fe5b045b60f81b9392505050565b6000601f820184602085015b828410156200317557838201518482015260208401935062003158565b50505050505050565b60008160200151600014156200319757506000620018de565b50515160c060009190911a1090565b600080620031b4836200317e565b620031be57600080fd5b8251805160001a906080821015620031de57925060019150620032189050565b60b8821015620031fe576001856020015103925080600101935062003215565b602085015182820160b51901945082900360b60192505b50505b915091565b805160609015620018de5760008062003238600085620030e9565b60f81c905060018114806200325057508060ff166003145b15620032ce5760018451600202036040519080825280601f01601f19166020018201604052801562003289576020820181803883390190505b50925060006200329b600186620030e9565b90508084600081518110620032ac57fe5b60200101906001600160f81b031916908160001a905350600192505062003309565b60028451600202036040519080825280601f01601f19166020018201604052801562003301576020820181803883390190505b509250600091505b60ff82165b835181101562002bb5576200332c8360ff16820360020186620030e9565b8482815181106200333957fe5b60200101906001600160f81b031916908160001a9053506001016200330e565b60008160200151600014156200337257506000620018de565b8151805160001a9060808210156200339057600092505050620018de565b60b8821080620033ad575060c08210158015620033ad575060f882105b15620033bf57600192505050620018de565b60c0821015620033d6575060b519019050620018de565b5060f5190192915050565b8051600090811a6080811015620033fc576001915062002c61565b60b88110156200341357607e198101915062002c61565b60c08110156200343e57600183015160b76020839003016101000a9004810160b51901915062002c61565b60f8811015620034555760be198101915062002c61565b6001929092015160f76020849003016101000a900490910160f51901919050565b61014d806200358883390190565b604051806040016040528060008152602001600081525090565b828054600181600116156101000203166002900490600052602060002090601f016020900481019282601f10620034e157805160ff191683800117855562003511565b8280016001018555821562003511579182015b8281111562003511578251825591602001919060010190620034f4565b506200351f92915062003567565b5090565b60405180604001604052806200353862003484565b8152602001600081525090565b815481835581811115620017a057600083815260209020620017a09181019083015b6200358491905b808211156200351f57600081556001016200356e565b9056fe608060405234801561001057600080fd5b5060405161014d38038061014d8339818101604052602081101561003357600080fd5b50516001600160a01b038116610094576040517f08c379a00000000000000000000000000000000000000000000000000000000081526004018080602001828103825260248152602001806101296024913960400191505060405180910390fd5b600080546001600160a01b039092166001600160a01b03199092169190911790556066806100c36000396000f3fe60806040526001600160a01b03600054163660008037600080366000845af43d6000803e80602c573d6000fd5b3d6000f3fea265627a7a723158201bcbc87e2e88421c4e9851d9787d03de469d31caee30ebab16842537c81dbe6664736f6c634300050d0032496e76616c6964206d617374657220636f707920616464726573732070726f76696465644d6f736169634d65737361676542757328737472696e67206e616d652c737472696e672076657273696f6e2c62797465733332206d657461636861696e49642c62797465733332206368616e6e656c536570617261746f72294d6f736169634d6573736167654275734368616e6e656c2861646472657373206f7574626f782c206164647265737320696e626f78294c656e677468206f6620524c50206163636f756e74206d757374206e6f7420626520302e42656e65666963696172792061646472657373206d757374206e6f7420626520302e4d657373616765286279746573333220696e74656e74486173682c75696e74323536206e6f6e63652c75696e743235362066656547617350726963652c75696e74323536206665654761734c696d69742c616464726573732073656e646572294465706f736974496e74656e7428616464726573732076616c7565546f6b656e2c75696e7432353620616d6f756e742c616464726573732062656e6566696369617279294d61782073746f7261676520726f6f74206974656d20636f756e7420697320302e5769746864726177616c20616d6f756e742073686f756c642062652067726561746572207468616e206d6178207265776172642e537461746520726f6f742070726f76696465722773206164647265737320697320302e736574757028737472696e672c737472696e672c75696e74382c75696e743235362c616464726573732c61646472657373295574696c69747920546f6b656e2061646472657373206d757374206e6f7420626520302e4d65737361676520616c72656164792065786973747320696e20746865206f7574626f782e5769746864726177496e74656e7428616464726573732076616c7565546f6b656e2c61646472657373207574696c697479546f6b656e2c75696e7432353620616d6f756e742c616464726573732062656e6566696369617279295574696c69747920746f6b656e206d617374657220636f707920636f6e74726163742773206164647265737320697320302e4d65726b6c652070726f6f6620766572696669636174696f6e206661696c65642e537461746520726f6f742070726f7669646572206164647265737320697320302e4d65737361676520616c72656164792065786973747320696e2074686520696e626f782e43697263756c6172206275666665722073697a652063616e206265207365747570206f6e63652e56616c756520746f6b656e2061646472657373206d757374206e6f7420626520302e546865206d6178206e756d626572206f66206974656d7320746f2073746f726520696e20612063697263756c617220627566666572206d7573742062652067726561746572207468616e20302ea265627a7a72315820f936dd2ac1158a64c54754199c0a3157851e054b4b183bcecd29267d3888621764736f6c634300050d0032",
  "source": "pragma solidity >=0.5.0 <0.6.0;\n\n// Copyright 2020 OpenST Ltd.\n//\n// Licensed under the Apache License, Version 2.0 (the \"License\");\n// you may not use this file except in compliance with the License.\n// You may obtain a copy of the License at\n//\n//    http://www.apache.org/licenses/LICENSE-2.0\n//\n// Unless required by applicable law or agreed to in writing, software\n// distributed under the License is distributed on an \"AS IS\" BASIS,\n// WITHOUT WARRANTIES OR CONDITIONS OF ANY KIND, either express or implied.\n// See the License for the specific language governing permissions and\n// limitations under the License.\n\nimport \"./ERC20Cogateway.sol\";\n\n/**\n * @title Implements ERC20Cogateway contract for gen0 chains.\n */\ncontract Gen0ERC20Cogateway is ERC20Cogateway {\n\n    /* External Functions */\n\n    /**\n     * @notice activate() function activates the contract.\n     *\n     * @dev The function sets corresponding genesis* variables inherited\n     *      from GenesisERC20Cogateway contract and calls the parent class\n     *      ERC20Cogateway::setup() function to activate the gateway.\n     *\n     * \\pre `_metachainId` is not 0.\n     * \\pre `_erc20Gateway` is not 0.\n     * \\pre `_stateRootProvider` is not 0.\n     * \\pre `_maxStorageRootItems` is not 0.\n     * \\pre `_utilityTokenMastercopy` is not 0.\n     *\n     * \\post Sets the `genesisMetachainId` storage variable to `_metachainId`.\n     * \\post Sets the `genesisERC20Gateway` storage variable to `_erc20Gateway`.\n     * \\post Sets the `genesisStateRootProvider` storage variable\n     *       to `_stateRootProvider`.\n     * \\post Sets the `genesisMaxStorageRootItems` storage variable\n     *       to `_maxStorageRootItems`.\n     * \\post Sets the `genesisOutboxStorageIndex` storage variable\n     *       to `_outboxStorageIndex`.\n     * \\post Sets the `genesisUtilityTokenMastercopy` storage variable to\n     *       `_utilityTokenMastercopy`.\n     * \\post Calls ERC20Cogateway::setup() function to activate the gateway,\n     *       which in its turn calls MessageOutbox::setupMessageOutbox()\n     *       function which assures that activate() function can be called\n     *       only once.\n     */\n    function activate(\n        bytes32 _metachainId,\n        address _erc20Gateway,\n        address _stateRootProvider,\n        uint256 _maxStorageRootItems,\n        uint8 _outboxStorageIndex,\n        address _utilityTokenMastercopy\n    )\n        external\n    {\n        require(_metachainId != bytes32(0), \"Metachain id is 0.\");\n        require(_erc20Gateway != address(0), \"ERC20Cogateway's address is 0.\");\n        require(\n            _stateRootProvider != address(0),\n            \"State root provider's address is 0.\"\n        );\n        require(\n            _maxStorageRootItems != uint256(0),\n            \"Max storage root item count is 0.\"\n        );\n        require(\n            _utilityTokenMastercopy != address(0),\n            \"Utility token master copy contract's address is 0.\"\n        );\n\n        genesisMetachainId = _metachainId;\n        genesisERC20Gateway = _erc20Gateway;\n        genesisStateRootProvider = _stateRootProvider;\n        genesisMaxStorageRootItems = _maxStorageRootItems;\n        genesisOutboxStorageIndex = _outboxStorageIndex;\n        genesisUtilityTokenMastercopy = _utilityTokenMastercopy;\n\n        ERC20Cogateway.setup();\n    }\n\n\n    /* Public Functions */\n\n    /**\n     * @notice setup() function is a dummy function for this contract.\n     *\n     * @dev Implementation does not mark the contract as private (as it has\n     *      dummy implementation, it makes sense), because components\n     *      accepting ERC20Cogateway interface might require this function\n     *      to be there.\n     */\n    function setup()\n        public\n    {\n    }\n}\n",
  "sourcePath": "/Users/abhay/Documents/projects/abhayforks/mosaic-1/contracts/erc20-gateway/Gen0ERC20Cogateway.sol",
  "compiler": {
    "name": "solc",
    "version": "0.5.13+commit.5b0b510c.Emscripten.clang"
  },
  "schemaVersion": "3.0.17",
  "updatedAt": "2020-03-21T06:48:34.708Z",
  "devdoc": {
    "methods": {
      "activate(bytes32,address,address,uint256,uint8,address)": {
        "details": "The function sets corresponding genesis* variables inherited     from GenesisERC20Cogateway contract and calls the parent class     ERC20Cogateway::setup() function to activate the gateway.     * \\pre `_metachainId` is not 0. \\pre `_erc20Gateway` is not 0. \\pre `_stateRootProvider` is not 0. \\pre `_maxStorageRootItems` is not 0. \\pre `_utilityTokenMastercopy` is not 0.     * \\post Sets the `genesisMetachainId` storage variable to `_metachainId`. \\post Sets the `genesisERC20Gateway` storage variable to `_erc20Gateway`. \\post Sets the `genesisStateRootProvider` storage variable      to `_stateRootProvider`. \\post Sets the `genesisMaxStorageRootItems` storage variable      to `_maxStorageRootItems`. \\post Sets the `genesisOutboxStorageIndex` storage variable      to `_outboxStorageIndex`. \\post Sets the `genesisUtilityTokenMastercopy` storage variable to      `_utilityTokenMastercopy`. \\post Calls ERC20Cogateway::setup() function to activate the gateway,      which in its turn calls MessageOutbox::setupMessageOutbox()      function which assures that activate() function can be called      only once."
      },
      "confirmDeposit(address,uint256,address,uint256,uint256,address,uint256,bytes)": {
        "params": {
          "_amount": "ERC20 token deposit amount in atto.",
          "_beneficiary": "Address of beneficiary on the target chain.",
          "_blockNumber": "Block number of origin chain against which storage proof is generated.",
          "_depositor": "Address of depositor on the origin chain.",
          "_feeGasLimit": "Gas limit at which fee will be capped.",
          "_feeGasPrice": "Gas price at which fee will be calculated.",
          "_rlpParentNodes": "Storage merkle proof to verify message declaration                       on the origin chain.",
          "_valueToken": "ERC20 token address on the origin chain."
        },
        "return": "messageHash_ Message hash.     * \\pre `_valueToken` address is not 0. \\pre `_amount` is not 0. \\pre `_beneficiary` address is not 0. \\pre `_depositor` address is not 0. \\pre `_rlpParentNodes` is not 0.     * \\post Adds a new entry in `inbox` mapping storage variable. The value is      set as `true` for `messagehash_` in `inbox` mapping. The      `messageHash_` is calculated by calling `MessageInbox.confirmMessage`      function with parameters `depositIntentHash`, `nonce`,      `_feeGasPrice`, `_feeGasLimit`, `_depositor`, `_blockNumber` and      `_rlpParentNodes`. `depositIntentHash` is calculated by calling      `ERC20GatewayBase.hashDepositIntent` functions with the parameters      `_valueToken`, `_amount` and `_beneficiary`. \\post Deploys a new utility token contract by calling      `deployUtilityToken()` with parameter `_valueToken`. \\post Transfers the tokens to the `msg.sender` address as a fees.      The `fees` amount is calculated by calling      `ERC20GatewayBase::reward()` with parameters `gasConsumed`,      `_feeGasPrice` and `_feeGasLimit`. `gasConsumed` is the approximate      gas used in this transaction. \\post Transfer the `_amount-fees` amount of token to the `_beneficiary`      address. \\post Update the MessageInbox.inboxNonces storage mapping variable by      incrementing the      value for `_withdrawer` by one. \\post Emits `DepositIntentConfirmed` event with the `messageHash_` as a      parameter."
      },
      "getRemoteGatewayLatestProvenBlockNumber()": {
        "return": "blockNumber_ Remote gateway latest proven block number."
      },
      "hashChannelIdentifier(bytes32,address,address)": {
        "params": {
          "_inbox": "Inbox address.",
          "_metachainId": "Metachain identifier.",
          "_outbox": "Outbox address."
        }
      },
      "hashDepositIntent(address,uint256,address)": {
        "params": {
          "_amount": "Amount of tokens.",
          "_beneficiary": "Beneficiary address.",
          "_valueToken": "Value token Address."
        },
        "return": "depositIntentHash_ Hash of deposit intent."
      },
      "hashWithdrawIntent(address,address,uint256,address)": {
        "params": {
          "_amount": "Amount of tokens.",
          "_beneficiary": "Beneficiary address.",
          "_utilityToken": "Utility token address.",
          "_valueToken": "Value token address."
        },
        "return": "withdrawIntentHash_ Hash of withdraw intent."
      },
      "inboxMessageHash(bytes32,uint256,uint256,uint256,address)": {
        "params": {
          "_feeGasLimit": "Fee gas limit.",
          "_feeGasPrice": "Fee gas price.",
          "_intentHash": "Intent hash of message.",
          "_nonce": "Nonce of sender.",
          "_sender": "Sender address."
        },
        "return": "messageHash_ Message hash."
      },
      "outboxMessageHash(bytes32,uint256,uint256,uint256,address)": {
        "params": {
          "_feeGasLimit": "Fee gas limit.",
          "_feeGasPrice": "Fee gas price.",
          "_intentHash": "Intent hash of message.",
          "_nonce": "Nonce of sender.",
          "_sender": "Sender address."
        },
        "return": "messageHash_ Message hash."
      },
      "proveGateway(uint256,bytes,bytes)": {
        "params": {
          "_blockNumber": "Block number at which ERC20Gateway contract is to                    be proven.",
          "_rlpAccount": "RLP encoded account node object.",
          "_rlpParentNodes": "RLP encoded value of account proof node array.     * \\post Calls `MessageInbox.proveStorageAccount()` function with      `_blockNumber`, `_rlpAccount`, `_rlpParentNodes` as input      parameters. \\post Emits `GatewayProven` event with the address of `messageInbox`      and `_blockNumber` parameters."
        }
      },
      "setup()": {
        "details": "Implementation does not mark the contract as private (as it has     dummy implementation, it makes sense), because components     accepting ERC20Cogateway interface might require this function     to be there."
      },
      "withdraw(uint256,address,uint256,uint256,address)": {
        "params": {
          "_amount": "Amount of tokens to be withdrawn.",
          "_beneficiary": "The address in the origin chain where the value                    where the tokens will be withdrawn.",
          "_feeGasLimit": "Gas limit at which fee will be capped.",
          "_feeGasPrice": "Gas price at which fee will be calculated.",
          "_utilityToken": "Address of utility token."
        },
        "return": "messageHash_ Message hash.     * \\pre `_utilityToken` is not 0. \\pre `_amount` is not 0. \\pre `_beneficiary` is not 0. \\pre `_amount` should be greater than maximum reward. \\pre `msg.sender` should approve erc20 cogateway contract.     * \\post Adds a new entry in `outbox` mapping storage variable. The value is      set as `true` for `messagehash_` in `outbox` mapping. The      `messageHash_` is obtained by calling `MessageOutbox.declareMessage`      with the parameters `withdrawIntentHash`,      `MessageOutbox.outboxNonces[msg.sender]`, `_feeGasPrice`,      `_feeGasLimit` and `msg.sender`. `withdrawIntentHash` is calculated      by calling `ERC20GatewayBase.hashWithdrawIntent` with parameters      `valueToken`, `_utilityToken`, `_amount`, `_beneficiary`. \\post `_amount` number of utility tokens will be burned from `msg.sender`      account by erc20 cogateway. \\post Update the `MessageOutbox.outboxNonces` storage mapping variable      by incrementing the value for `msg.sender` by one. \\post Emits `WithdrawIntentDeclared` event with the `_amount`, address of      `_beneficiary`, `_feeGasPrice`, `_feeGasLimit`, address of      `msg.sender`, address of `_utilityToken` and `messageHash_`."
      }
    },
    "title": "Implements ERC20Cogateway contract for gen0 chains."
  },
  "userdoc": {
    "methods": {
      "activate(bytes32,address,address,uint256,uint8,address)": {
        "notice": "activate() function activates the contract."
      },
      "confirmDeposit(address,uint256,address,uint256,uint256,address,uint256,bytes)": {
        "notice": "Confirm deposit in order to mint tokens."
      },
      "getRemoteGatewayLatestProvenBlockNumber()": {
        "notice": "Gets the remote gateway latest proven block number."
      },
      "hashChannelIdentifier(bytes32,address,address)": {
        "notice": "Generate channel identifier hash from the input params"
      },
      "hashDepositIntent(address,uint256,address)": {
        "notice": "It returns hash of deposit intent."
      },
      "hashWithdrawIntent(address,address,uint256,address)": {
        "notice": "It returns hash of withdraw intent."
      },
      "inboxMessageHash(bytes32,uint256,uint256,uint256,address)": {
        "notice": "Generate inbox message hash from the input params"
      },
      "outboxMessageHash(bytes32,uint256,uint256,uint256,address)": {
        "notice": "Generate outbox message hash from the input params"
      },
      "proveGateway(uint256,bytes,bytes)": {
        "notice": "It verifies that ERC20Gateway contract exists on origin chain        using merkle account proof."
      },
      "setup()": {
        "notice": "setup() function is a dummy function for this contract."
      },
      "withdraw(uint256,address,uint256,uint256,address)": {
        "notice": "It allows withdrawing Utility tokens. Withdrawer needs to      approve erc20 cogateway contract for the amount to be      withdrawn."
      }
    }
  }
}