{
  "contractName": "GenesisOriginObserver",
  "abi": [
    {
      "constant": true,
      "inputs": [],
      "name": "genesisMaxStateRootLimitCount",
      "outputs": [
        {
          "internalType": "uint256",
          "name": "",
          "type": "uint256"
        }
      ],
      "payable": false,
      "stateMutability": "view",
      "type": "function"
    },
    {
      "constant": true,
      "inputs": [],
      "name": "genesisOriginBlockNumber",
      "outputs": [
        {
          "internalType": "uint256",
          "name": "",
          "type": "uint256"
        }
      ],
      "payable": false,
      "stateMutability": "view",
      "type": "function"
    },
    {
      "constant": true,
      "inputs": [],
      "name": "genesisOriginStateRoot",
      "outputs": [
        {
          "internalType": "bytes32",
          "name": "",
          "type": "bytes32"
        }
      ],
      "payable": false,
      "stateMutability": "view",
      "type": "function"
    }
  ],
  "bytecode": "0x608060405234801561001057600080fd5b5060ac8061001f6000396000f3fe6080604052348015600f57600080fd5b5060043610603c5760003560e01c80631f949509146041578063691601951460595780636e47aff414605f575b600080fd5b60476065565b60408051918252519081900360200190f35b6047606b565b60476071565b60025481565b60005481565b6001548156fea265627a7a72315820b2ecaf03fe6f52a9683835c58a64b796544b464b38eb51d1491559c188f34d4264736f6c634300050d0032",
  "source": "pragma solidity >=0.5.0 <0.6.0;\n\n// Copyright 2020 OpenST Ltd.\n//\n// Licensed under the Apache License, Version 2.0 (the \"License\");\n// you may not use this file except in compliance with the License.\n// You may obtain a copy of the License at\n//\n//    http://www.apache.org/licenses/LICENSE-2.0\n//\n// Unless required by applicable law or agreed to in writing, software\n// distributed under the License is distributed on an \"AS IS\" BASIS,\n// WITHOUT WARRANTIES OR CONDITIONS OF ANY KIND, either express or implied.\n// See the License for the specific language governing permissions and\n// limitations under the License.\n\n/**\n * @title GenesisOriginObserver - Contract that holds the values written in genesis block.\n *\n * @notice This contract is the storage values that are written in the genesis file.\n *         These values will be used in the setup of the contract.\n */\ncontract GenesisOriginObserver {\n\n    /* Storage */\n\n    /** Initial block number */\n    uint256 public genesisOriginBlockNumber;\n\n    /** Initial state root */\n    bytes32 public genesisOriginStateRoot;\n\n    /** Maximum number of state roots to be stored in circular buffer */\n    uint256 public genesisMaxStateRootLimitCount;\n}\n",
  "sourcePath": "/Users/abhay/Documents/projects/abhayforks/mosaic-1/contracts/anchor/GenesisOriginObserver.sol",
  "compiler": {
    "name": "solc",
    "version": "0.5.13+commit.5b0b510c.Emscripten.clang"
  },
  "schemaVersion": "3.0.17",
  "updatedAt": "2020-03-21T06:48:34.592Z",
  "devdoc": {
    "methods": {},
    "title": "GenesisOriginObserver - Contract that holds the values written in genesis block."
  },
  "userdoc": {
    "methods": {},
    "notice": "This contract is the storage values that are written in the genesis file.        These values will be used in the setup of the contract."
  }
}