{
  "contractName": "GenesisOriginProtocore",
  "abi": [
    {
      "constant": true,
      "inputs": [],
      "name": "genesisDomainSeparator",
      "outputs": [
        {
          "internalType": "bytes32",
          "name": "",
          "type": "bytes32"
        }
      ],
      "payable": false,
      "stateMutability": "view",
      "type": "function"
    },
    {
      "constant": true,
      "inputs": [],
      "name": "genesisEpochLength",
      "outputs": [
        {
          "internalType": "uint256",
          "name": "",
          "type": "uint256"
        }
      ],
      "payable": false,
      "stateMutability": "view",
      "type": "function"
    },
    {
      "constant": true,
      "inputs": [],
      "name": "genesisMetachainId",
      "outputs": [
        {
          "internalType": "bytes32",
          "name": "",
          "type": "bytes32"
        }
      ],
      "payable": false,
      "stateMutability": "view",
      "type": "function"
    },
    {
      "constant": true,
      "inputs": [],
      "name": "genesisOriginParentVoteMessageHash",
      "outputs": [
        {
          "internalType": "bytes32",
          "name": "",
          "type": "bytes32"
        }
      ],
      "payable": false,
      "stateMutability": "view",
      "type": "function"
    },
    {
      "constant": true,
      "inputs": [],
      "name": "genesisOriginSourceBlockHash",
      "outputs": [
        {
          "internalType": "bytes32",
          "name": "",
          "type": "bytes32"
        }
      ],
      "payable": false,
      "stateMutability": "view",
      "type": "function"
    },
    {
      "constant": true,
      "inputs": [],
      "name": "genesisOriginSourceBlockNumber",
      "outputs": [
        {
          "internalType": "uint256",
          "name": "",
          "type": "uint256"
        }
      ],
      "payable": false,
      "stateMutability": "view",
      "type": "function"
    },
    {
      "constant": true,
      "inputs": [],
      "name": "genesisOriginTargetBlockHash",
      "outputs": [
        {
          "internalType": "bytes32",
          "name": "",
          "type": "bytes32"
        }
      ],
      "payable": false,
      "stateMutability": "view",
      "type": "function"
    },
    {
      "constant": true,
      "inputs": [],
      "name": "genesisOriginTargetBlockNumber",
      "outputs": [
        {
          "internalType": "uint256",
          "name": "",
          "type": "uint256"
        }
      ],
      "payable": false,
      "stateMutability": "view",
      "type": "function"
    },
    {
      "constant": true,
      "inputs": [],
      "name": "genesisProposedMetablockHeight",
      "outputs": [
        {
          "internalType": "uint256",
          "name": "",
          "type": "uint256"
        }
      ],
      "payable": false,
      "stateMutability": "view",
      "type": "function"
    },
    {
      "constant": true,
      "inputs": [],
      "name": "genesisSelfProtocore",
      "outputs": [
        {
          "internalType": "address",
          "name": "",
          "type": "address"
        }
      ],
      "payable": false,
      "stateMutability": "view",
      "type": "function"
    }
  ],
  "bytecode": "0x608060405234801561001057600080fd5b5061019b806100206000396000f3fe608060405234801561001057600080fd5b506004361061009e5760003560e01c80639fa843c2116100665780639fa843c2146100f9578063b0e1084e14610101578063b8a3254d14610109578063c4fec67a14610111578063e7530e7c146101195761009e565b8063044a6d34146100a3578063142aab11146100bd5780633021513d146100c557806355445e06146100cd57806367b47913146100d5575b600080fd5b6100ab610121565b60408051918252519081900360200190f35b6100ab610127565b6100ab61012d565b6100ab610133565b6100dd610139565b604080516001600160a01b039092168252519081900360200190f35b6100ab610148565b6100ab61014e565b6100ab610154565b6100ab61015a565b6100ab610160565b60075481565b60025481565b60015481565b60035481565b6009546001600160a01b031681565b60085481565b60055481565b60045481565b60005481565b6006548156fea265627a7a723158205287c279b1a561d953f68e4bc70244bb55320e30e877d95755a8483b01c7e9c164736f6c634300050d0032",
  "source": "pragma solidity >=0.5.0 <0.6.0;\n\n// Copyright 2020 OpenST Ltd.\n//\n// Licensed under the Apache License, Version 2.0 (the \"License\");\n// you may not use this file except in compliance with the License.\n// You may obtain a copy of the License at\n//\n//    http://www.apache.org/licenses/LICENSE-2.0\n//\n// Unless required by applicable law or agreed to in writing, software\n// distributed under the License is distributed on an \"AS IS\" BASIS,\n// WITHOUT WARRANTIES OR CONDITIONS OF ANY KIND, either express or implied.\n// See the License for the specific language governing permissions and\n// limitations under the License.\n\n/**\n * @title Genesis origin protocore contract is a storage contract that holds\n *        the initial values required by the contract that were written in the\n *        genesis block.\n */\ncontract GenesisOriginProtocore {\n\n    /* Storage */\n\n    /** Metachain id of the origin chain. */\n    bytes32 public genesisMetachainId;\n\n    /** Epoch length. */\n    uint256 public genesisEpochLength;\n\n    /** Proposed metablock height. */\n    uint256 public genesisProposedMetablockHeight;\n\n    /** Domain separator. */\n    bytes32 public genesisDomainSeparator;\n\n    /** Block hash of source checkpoint. */\n    bytes32 public genesisOriginSourceBlockHash;\n\n    /** Block number of source checkpoint. */\n    uint256 public genesisOriginSourceBlockNumber;\n\n    /** Block hash of target checkpoint. */\n    bytes32 public genesisOriginTargetBlockHash;\n\n    /** Block number of target checkpoint. */\n    uint256 public genesisOriginTargetBlockNumber;\n\n    /** Parent vote message hash. */\n    bytes32 public genesisOriginParentVoteMessageHash;\n\n    /** Self protocore address. */\n    address public genesisSelfProtocore;\n}\n",
  "sourcePath": "/Users/abhay/Documents/projects/abhayforks/mosaic-1/contracts/protocore/GenesisOriginProtocore.sol",
  "compiler": {
    "name": "solc",
    "version": "0.5.13+commit.5b0b510c.Emscripten.clang"
  },
  "schemaVersion": "3.0.17",
  "updatedAt": "2020-03-21T06:48:34.743Z",
  "devdoc": {
    "methods": {},
    "title": "Genesis origin protocore contract is a storage contract that holds       the initial values required by the contract that were written in the       genesis block."
  },
  "userdoc": {
    "methods": {}
  }
}