{
  "contractName": "GenesisUtBase",
  "abi": [
    {
      "constant": true,
      "inputs": [],
      "name": "genesisTotalSupply",
      "outputs": [
        {
          "internalType": "uint256",
          "name": "",
          "type": "uint256"
        }
      ],
      "payable": false,
      "stateMutability": "view",
      "type": "function"
    }
  ],
  "bytecode": "0x6080604052348015600f57600080fd5b5060808061001e6000396000f3fe6080604052348015600f57600080fd5b506004361060285760003560e01c80631d6c90a914602d575b600080fd5b60336045565b60408051918252519081900360200190f35b6000548156fea265627a7a72315820c8c4bac6567f1b84342e969a5ed6c96e2f0cb376b05d5166a3a8302b19c1656c64736f6c634300050d0032",
  "source": "pragma solidity >=0.5.0 <0.6.0;\n\n// Copyright 2020 OpenST Ltd.\n//\n// Licensed under the Apache License, Version 2.0 (the \"License\");\n// you may not use this file except in compliance with the License.\n// You may obtain a copy of the License at\n//\n//    http://www.apache.org/licenses/LICENSE-2.0\n//\n// Unless required by applicable law or agreed to in writing, software\n// distributed under the License is distributed on an \"AS IS\" BASIS,\n// WITHOUT WARRANTIES OR CONDITIONS OF ANY KIND, either express or implied.\n// See the License for the specific language governing permissions and\n// limitations under the License.\n\n/**\n * @title Genesis UtBase contract.\n */\ncontract GenesisUtBase {\n\n     /* Constants */\n\n    /** Total initial supply value for UtBase token */\n    uint256 public genesisTotalSupply;\n\n}\n",
  "sourcePath": "/Users/abhay/Documents/projects/abhayforks/mosaic-1/contracts/most/GenesisUtBase.sol",
  "compiler": {
    "name": "solc",
    "version": "0.5.13+commit.5b0b510c.Emscripten.clang"
  },
  "schemaVersion": "3.0.17",
  "updatedAt": "2020-03-21T06:48:34.740Z",
  "devdoc": {
    "methods": {},
    "title": "Genesis UtBase contract."
  },
  "userdoc": {
    "methods": {}
  }
}