{
  "contractName": "GenesisCoconsensus",
  "abi": [
    {
      "constant": true,
      "inputs": [
        {
          "internalType": "bytes32",
          "name": "",
          "type": "bytes32"
        }
      ],
      "name": "genesisMetachainIds",
      "outputs": [
        {
          "internalType": "bytes32",
          "name": "",
          "type": "bytes32"
        }
      ],
      "payable": false,
      "stateMutability": "view",
      "type": "function"
    },
    {
      "constant": true,
      "inputs": [
        {
          "internalType": "bytes32",
          "name": "",
          "type": "bytes32"
        }
      ],
      "name": "genesisObservers",
      "outputs": [
        {
          "internalType": "address",
          "name": "",
          "type": "address"
        }
      ],
      "payable": false,
      "stateMutability": "view",
      "type": "function"
    },
    {
      "constant": true,
      "inputs": [],
      "name": "genesisOriginMetachainId",
      "outputs": [
        {
          "internalType": "bytes32",
          "name": "",
          "type": "bytes32"
        }
      ],
      "payable": false,
      "stateMutability": "view",
      "type": "function"
    },
    {
      "constant": true,
      "inputs": [
        {
          "internalType": "bytes32",
          "name": "",
          "type": "bytes32"
        }
      ],
      "name": "genesisProtocores",
      "outputs": [
        {
          "internalType": "address",
          "name": "",
          "type": "address"
        }
      ],
      "payable": false,
      "stateMutability": "view",
      "type": "function"
    },
    {
      "constant": true,
      "inputs": [],
      "name": "genesisSelfMetachainId",
      "outputs": [
        {
          "internalType": "bytes32",
          "name": "",
          "type": "bytes32"
        }
      ],
      "payable": false,
      "stateMutability": "view",
      "type": "function"
    }
  ],
  "bytecode": "0x608060405234801561001057600080fd5b5061017a806100206000396000f3fe608060405234801561001057600080fd5b50600436106100575760003560e01c806311f8c2021461005c57806381673b2214610095578063a847bbbc146100af578063c74a01e9146100cc578063fee7de65146100d4575b600080fd5b6100796004803603602081101561007257600080fd5b50356100f1565b604080516001600160a01b039092168252519081900360200190f35b61009d61010c565b60408051918252519081900360200190f35b61009d600480360360208110156100c557600080fd5b5035610112565b61009d610124565b610079600480360360208110156100ea57600080fd5b503561012a565b6004602052600090815260409020546001600160a01b031681565b60005481565b60026020526000908152604090205481565b60015481565b6003602052600090815260409020546001600160a01b03168156fea265627a7a72315820960455d8ed77d866f1adc474cef37dcc7b2bc18f53725a6118aba56d63ec6aeb64736f6c634300050d0032",
  "source": "pragma solidity >=0.5.0 <0.6.0;\n\n// Copyright 2020 OpenST Ltd.\n//\n// Licensed under the Apache License, Version 2.0 (the \"License\");\n// you may not use this file except in compliance with the License.\n// You may obtain a copy of the License at\n//\n//    http://www.apache.org/licenses/LICENSE-2.0\n//\n// Unless required by applicable law or agreed to in writing, software\n// distributed under the License is distributed on an \"AS IS\" BASIS,\n// WITHOUT WARRANTIES OR CONDITIONS OF ANY KIND, either express or implied.\n// See the License for the specific language governing permissions and\n// limitations under the License.\n\n/**\n * @title Genesis coconsensus contract is a storage contract that holds\n *        the initial values required by the contract that were written in the\n *        genesis block. This contract stores the origin metachain id,\n *        self metachain id, observer contract addresses, protocore contract\n *        addresses. The metachain ids are stored as a linked list so that it\n *        can be iterable.\n */\ncontract GenesisCoconsensus {\n\n    /* Storage */\n\n    /** Metachain id of the origin chain. */\n    bytes32 public genesisOriginMetachainId;\n\n    /** Metachain id of the auxiliary chain. */\n    bytes32 public genesisSelfMetachainId;\n\n    /** Link list of metachain ids (for all protocores). */\n    mapping(bytes32 => bytes32) public genesisMetachainIds;\n\n    /**\n     * Mapping of metachain id to its observers (anchor) contract\n     * address on auxiliary chain.\n     */\n    mapping(bytes32 => address) public genesisObservers;\n\n    /**\n     * Mapping of metachain id to its protocore contract\n     * address on auxiliary chain.\n     */\n    mapping(bytes32 => address) public genesisProtocores;\n}\n",
  "sourcePath": "/Users/abhay/Documents/projects/abhayforks/mosaic-1/contracts/consensus/GenesisCoconsensus.sol",
  "compiler": {
    "name": "solc",
    "version": "0.5.13+commit.5b0b510c.Emscripten.clang"
  },
  "schemaVersion": "3.0.17",
  "updatedAt": "2020-03-21T06:48:34.676Z",
  "devdoc": {
    "methods": {},
    "title": "Genesis coconsensus contract is a storage contract that holds       the initial values required by the contract that were written in the       genesis block. This contract stores the origin metachain id,       self metachain id, observer contract addresses, protocore contract       addresses. The metachain ids are stored as a linked list so that it       can be iterable."
  },
  "userdoc": {
    "methods": {}
  }
}