{
  "contractName": "MessageOutbox",
  "abi": [
    {
      "constant": true,
      "inputs": [],
      "name": "DOMAIN_SEPARATOR_VERSION",
      "outputs": [
        {
          "internalType": "string",
          "name": "",
          "type": "string"
        }
      ],
      "payable": false,
      "stateMutability": "view",
      "type": "function"
    },
    {
      "constant": true,
      "inputs": [],
      "name": "MESSAGE_TYPEHASH",
      "outputs": [
        {
          "internalType": "bytes32",
          "name": "",
          "type": "bytes32"
        }
      ],
      "payable": false,
      "stateMutability": "view",
      "type": "function"
    },
    {
      "constant": true,
      "inputs": [],
      "name": "MMB_CHANNEL_TYPEHASH",
      "outputs": [
        {
          "internalType": "bytes32",
          "name": "",
          "type": "bytes32"
        }
      ],
      "payable": false,
      "stateMutability": "view",
      "type": "function"
    },
    {
      "constant": true,
      "inputs": [],
      "name": "MMB_DOMAIN_SEPARATOR_NAME",
      "outputs": [
        {
          "internalType": "string",
          "name": "",
          "type": "string"
        }
      ],
      "payable": false,
      "stateMutability": "view",
      "type": "function"
    },
    {
      "constant": true,
      "inputs": [],
      "name": "MMB_DOMAIN_SEPARATOR_TYPEHASH",
      "outputs": [
        {
          "internalType": "bytes32",
          "name": "",
          "type": "bytes32"
        }
      ],
      "payable": false,
      "stateMutability": "view",
      "type": "function"
    },
    {
      "constant": true,
      "inputs": [],
      "name": "MMB_DOMAIN_SEPARATOR_VERSION",
      "outputs": [
        {
          "internalType": "string",
          "name": "",
          "type": "string"
        }
      ],
      "payable": false,
      "stateMutability": "view",
      "type": "function"
    },
    {
      "constant": true,
      "inputs": [
        {
          "internalType": "bytes32",
          "name": "_metachainId",
          "type": "bytes32"
        },
        {
          "internalType": "address",
          "name": "_outbox",
          "type": "address"
        },
        {
          "internalType": "address",
          "name": "_inbox",
          "type": "address"
        }
      ],
      "name": "hashChannelIdentifier",
      "outputs": [
        {
          "internalType": "bytes32",
          "name": "channelIdentifier_",
          "type": "bytes32"
        }
      ],
      "payable": false,
      "stateMutability": "pure",
      "type": "function"
    },
    {
      "constant": true,
      "inputs": [],
      "name": "messageInbox",
      "outputs": [
        {
          "internalType": "address",
          "name": "",
          "type": "address"
        }
      ],
      "payable": false,
      "stateMutability": "view",
      "type": "function"
    },
    {
      "constant": true,
      "inputs": [],
      "name": "outboundChannelIdentifier",
      "outputs": [
        {
          "internalType": "bytes32",
          "name": "",
          "type": "bytes32"
        }
      ],
      "payable": false,
      "stateMutability": "view",
      "type": "function"
    },
    {
      "constant": true,
      "inputs": [
        {
          "internalType": "bytes32",
          "name": "",
          "type": "bytes32"
        }
      ],
      "name": "outbox",
      "outputs": [
        {
          "internalType": "bool",
          "name": "",
          "type": "bool"
        }
      ],
      "payable": false,
      "stateMutability": "view",
      "type": "function"
    },
    {
      "constant": true,
      "inputs": [
        {
          "internalType": "address",
          "name": "",
          "type": "address"
        }
      ],
      "name": "outboxNonces",
      "outputs": [
        {
          "internalType": "uint256",
          "name": "",
          "type": "uint256"
        }
      ],
      "payable": false,
      "stateMutability": "view",
      "type": "function"
    },
    {
      "constant": true,
      "inputs": [
        {
          "internalType": "bytes32",
          "name": "_intentHash",
          "type": "bytes32"
        },
        {
          "internalType": "uint256",
          "name": "_nonce",
          "type": "uint256"
        },
        {
          "internalType": "uint256",
          "name": "_feeGasPrice",
          "type": "uint256"
        },
        {
          "internalType": "uint256",
          "name": "_feeGasLimit",
          "type": "uint256"
        },
        {
          "internalType": "address",
          "name": "_sender",
          "type": "address"
        }
      ],
      "name": "outboxMessageHash",
      "outputs": [
        {
          "internalType": "bytes32",
          "name": "messageHash_",
          "type": "bytes32"
        }
      ],
      "payable": false,
      "stateMutability": "view",
      "type": "function"
    }
  ],
  "bytecode": "0x608060405234801561001057600080fd5b506106df806100206000396000f3fe608060405234801561001057600080fd5b50600436106100b45760003560e01c8063ae64028511610071578063ae640285146101a2578063b1c91e211461021f578063b4907ddc1461021f578063d31b596814610227578063f02a0e901461024d578063f732ecff14610255576100b4565b80630e31eb60146100b95780632fe05ad91461010957806346e356b114610111578063523ce24214610119578063965ef01b1461014a5780639f0b7dfe1461016e575b600080fd5b6100f7600480360360a08110156100cf57600080fd5b50803590602081013590604081013590606081013590608001356001600160a01b031661025d565b60408051918252519081900360200190f35b6100f7610279565b6100f7610294565b6101366004803603602081101561012f57600080fd5b50356102af565b604080519115158252519081900360200190f35b6101526102c4565b604080516001600160a01b039092168252519081900360200190f35b6100f76004803603606081101561018457600080fd5b508035906001600160a01b03602082013581169160400135166102d3565b6101aa610492565b6040805160208082528351818301528351919283929083019185019080838360005b838110156101e45781810151838201526020016101cc565b50505050905090810190601f1680156102115780820380516001836020036101000a031916815260200191505b509250505060405180910390f35b6101aa6104b8565b6100f76004803603602081101561023d57600080fd5b50356001600160a01b03166104d5565b6100f76104e7565b6100f76104ed565b600061026f8686868686600154610508565b9695505050505050565b60405180603661061582396036019050604051809103902081565b60405180606061064b82396060019050604051809103902081565b60006020819052908152604090205460ff1681565b6002546001600160a01b031681565b600080604051808061061560369139604080519182900360360182206020808401919091526001600160a01b03808916848401528716606080850191909152825180850390910181526080909301918290528251920191909120925090508060596105bc8239605901905060405180910390206040518060400160405280600a8152602001694d6f736169632d42757360b01b815250604051806040016040528060018152602001600360fc1b8152508784604051602001808681526020018060200180602001858152602001848152602001838103835287818151815260200191508051906020019080838360005b838110156103db5781810151838201526020016103c3565b50505050905090810190601f1680156104085780820380516001836020036101000a031916815260200191505b50838103825286518152865160209182019188019080838360005b8381101561043b578181015183820152602001610423565b50505050905090810190601f1680156104685780820380516001836020036101000a031916815260200191505b50975050505050505050604051602081830303815290604052805190602001209150509392505050565b6040518060400160405280600a8152602001694d6f736169632d42757360b01b81525081565b604051806040016040528060018152602001600360fc1b81525081565b60036020526000908152604090205481565b60015481565b6040518060596105bc82396059019050604051809103902081565b600080604051808061064b606091396040805191829003606090810183206020808501919091528383019c909c52820199909952608081019790975250505060a08401929092526001600160a01b031660c0808401919091528351808403909101815260e083018452805190850120601960f81b610100840152604d60f81b610101840152610102830191909152610122808301919091528251808303909101815261014290910190915280519101209056fe4d6f736169634d65737361676542757328737472696e67206e616d652c737472696e672076657273696f6e2c62797465733332206d657461636861696e49642c62797465733332206368616e6e656c536570617261746f72294d6f736169634d6573736167654275734368616e6e656c2861646472657373206f7574626f782c206164647265737320696e626f78294d657373616765286279746573333220696e74656e74486173682c75696e74323536206e6f6e63652c75696e743235362066656547617350726963652c75696e74323536206665654761734c696d69742c616464726573732073656e64657229a265627a7a72315820e538051bfd16edbb26888ffdc41be8d5372262440856b3a3b8c772eae4b6b06e64736f6c634300050d0032",
  "source": "pragma solidity >=0.5.0 <0.6.0;\n\n// Copyright 2019 OpenST Ltd.\n//\n// Licensed under the Apache License, Version 2.0 (the \"License\");\n// you may not use this file except in compliance with the License.\n// You may obtain a copy of the License at\n//\n//    http://www.apache.org/licenses/LICENSE-2.0\n//\n// Unless required by applicable law or agreed to in writing, software\n// distributed under the License is distributed on an \"AS IS\" BASIS,\n// WITHOUT WARRANTIES OR CONDITIONS OF ANY KIND, either express or implied.\n// See the License for the specific language governing permissions and\n// limitations under the License.\n\nimport \"./MessageBox.sol\";\n\n/**\n * @title MessageOutbox - Contract to declare messages on the origin chain.\n */\ncontract MessageOutbox is MessageBox {\n\n    /* Variables */\n\n    // TODO: If we want to revert, may be the value will change to MessageBoxEnum.(still to think on this)\n    /** Mapping to indicate that message hash exists in outbox. */\n    mapping(bytes32 => bool) public outbox;\n\n    /** Outbound channel identifier */\n    bytes32 public outboundChannelIdentifier;\n\n    /** Message inbox address */\n    address public messageInbox;\n\n    /** Mapping of message sender and nonce. */\n    mapping(address => uint256) public outboxNonces;\n\n\n    /* External Functions. */\n\n    /**\n     * @notice Generate outbox message hash from the input params\n     * @param _intentHash Intent hash of message.\n     * @param _nonce Nonce of sender.\n     * @param _feeGasPrice Fee gas price.\n     * @param _feeGasLimit Fee gas limit.\n     * @param _sender Sender address.\n     * @return messageHash_ Message hash.\n     */\n    function outboxMessageHash(\n        bytes32 _intentHash,\n        uint256 _nonce,\n        uint256 _feeGasPrice,\n        uint256 _feeGasLimit,\n        address _sender\n    )\n        external\n        view\n        returns (bytes32 messageHash_)\n    {\n        messageHash_ = MessageBox.hashMessage(\n            _intentHash,\n            _nonce,\n            _feeGasPrice,\n            _feeGasLimit,\n            _sender,\n            outboundChannelIdentifier\n        );\n    }\n\n\n    /* Internal Functions */\n\n    /**\n     * @notice Setup message outbox.\n     *\n     * @param _metachainId Metachain identifier.\n     * @param _messageInbox MessageInbox contract address.\n     *\n     * \\pre The function can be called only once.\n     * \\pre `_metachainId` must not be zero.\n     * \\pre `_messageInbox` address must not be zero.\n     *\n     * \\post Sets `messageInbox` storage variable with `_messageInbox`.\n     * \\post Sets `outboundChannelIdentifier` storage variable.\n     *       `outboundChannelIdentifier` is calculated by\n     *       MessageBox.hashChannelIdentifier method.\n     */\n    function setupMessageOutbox(\n        bytes32 _metachainId,\n        address _messageInbox\n    )\n        internal\n    {\n        require(\n            outboundChannelIdentifier == bytes32(0),\n            \"Message outbox is already setup.\"\n        );\n\n        require(\n            _metachainId != bytes32(0),\n            \"Metachain id is 0.\"\n        );\n\n        require(\n            _messageInbox != address(0),\n            \"Message inbox address is 0.\"\n        );\n\n        messageInbox = _messageInbox;\n\n        outboundChannelIdentifier = MessageBox.hashChannelIdentifier(\n            _metachainId,\n            address(this),\n            messageInbox\n        );\n    }\n\n    /**\n     * @notice Declare a new message. This will update the outbox value to\n     *         `true` for the given message hash.\n     *\n     * @dev Function requires:\n     *          - message should not exists in outbox\n     *\n     * @param _intentHash Intent hash of message.\n     * @param _nonce Nonce of sender account.\n     * @param _feeGasPrice Fee gas price.\n     * @param _feeGasLimit Fee gas limit.\n     * @param _sender Sender address.\n     * @return messageHash_ Message hash\n     */\n    function declareMessage(\n        bytes32 _intentHash,\n        uint256 _nonce,\n        uint256 _feeGasPrice,\n        uint256 _feeGasLimit,\n        address _sender\n    )\n        internal\n        returns (bytes32 messageHash_)\n    {\n        messageHash_ = MessageBox.hashMessage(\n            _intentHash,\n            _nonce,\n            _feeGasPrice,\n            _feeGasLimit,\n            _sender,\n            outboundChannelIdentifier\n        );\n\n        require(\n            outbox[messageHash_] == false,\n            \"Message already exists in the outbox.\"\n        );\n\n        outbox[messageHash_] = true;\n    }\n}\n",
  "sourcePath": "/Users/abhay/Documents/projects/abhayforks/mosaic-1/contracts/message-bus/MessageOutbox.sol",
  "compiler": {
    "name": "solc",
    "version": "0.5.13+commit.5b0b510c.Emscripten.clang"
  },
  "schemaVersion": "3.0.17",
  "updatedAt": "2020-03-21T06:48:34.734Z",
  "devdoc": {
    "methods": {
      "hashChannelIdentifier(bytes32,address,address)": {
        "params": {
          "_inbox": "Inbox address.",
          "_metachainId": "Metachain identifier.",
          "_outbox": "Outbox address."
        }
      },
      "outboxMessageHash(bytes32,uint256,uint256,uint256,address)": {
        "params": {
          "_feeGasLimit": "Fee gas limit.",
          "_feeGasPrice": "Fee gas price.",
          "_intentHash": "Intent hash of message.",
          "_nonce": "Nonce of sender.",
          "_sender": "Sender address."
        },
        "return": "messageHash_ Message hash."
      }
    },
    "title": "MessageOutbox - Contract to declare messages on the origin chain."
  },
  "userdoc": {
    "methods": {
      "hashChannelIdentifier(bytes32,address,address)": {
        "notice": "Generate channel identifier hash from the input params"
      },
      "outboxMessageHash(bytes32,uint256,uint256,uint256,address)": {
        "notice": "Generate outbox message hash from the input params"
      }
    }
  }
}