{
  "contractName": "MessageBox",
  "abi": [
    {
      "constant": true,
      "inputs": [],
      "name": "DOMAIN_SEPARATOR_VERSION",
      "outputs": [
        {
          "internalType": "string",
          "name": "",
          "type": "string"
        }
      ],
      "payable": false,
      "stateMutability": "view",
      "type": "function"
    },
    {
      "constant": true,
      "inputs": [],
      "name": "MESSAGE_TYPEHASH",
      "outputs": [
        {
          "internalType": "bytes32",
          "name": "",
          "type": "bytes32"
        }
      ],
      "payable": false,
      "stateMutability": "view",
      "type": "function"
    },
    {
      "constant": true,
      "inputs": [],
      "name": "MMB_CHANNEL_TYPEHASH",
      "outputs": [
        {
          "internalType": "bytes32",
          "name": "",
          "type": "bytes32"
        }
      ],
      "payable": false,
      "stateMutability": "view",
      "type": "function"
    },
    {
      "constant": true,
      "inputs": [],
      "name": "MMB_DOMAIN_SEPARATOR_NAME",
      "outputs": [
        {
          "internalType": "string",
          "name": "",
          "type": "string"
        }
      ],
      "payable": false,
      "stateMutability": "view",
      "type": "function"
    },
    {
      "constant": true,
      "inputs": [],
      "name": "MMB_DOMAIN_SEPARATOR_TYPEHASH",
      "outputs": [
        {
          "internalType": "bytes32",
          "name": "",
          "type": "bytes32"
        }
      ],
      "payable": false,
      "stateMutability": "view",
      "type": "function"
    },
    {
      "constant": true,
      "inputs": [],
      "name": "MMB_DOMAIN_SEPARATOR_VERSION",
      "outputs": [
        {
          "internalType": "string",
          "name": "",
          "type": "string"
        }
      ],
      "payable": false,
      "stateMutability": "view",
      "type": "function"
    },
    {
      "constant": true,
      "inputs": [
        {
          "internalType": "bytes32",
          "name": "_metachainId",
          "type": "bytes32"
        },
        {
          "internalType": "address",
          "name": "_outbox",
          "type": "address"
        },
        {
          "internalType": "address",
          "name": "_inbox",
          "type": "address"
        }
      ],
      "name": "hashChannelIdentifier",
      "outputs": [
        {
          "internalType": "bytes32",
          "name": "channelIdentifier_",
          "type": "bytes32"
        }
      ],
      "payable": false,
      "stateMutability": "pure",
      "type": "function"
    }
  ],
  "bytecode": "0x608060405234801561001057600080fd5b506104dc806100206000396000f3fe608060405234801561001057600080fd5b506004361061007d5760003560e01c8063ae6402851161005b578063ae640285146100d8578063b1c91e2114610155578063b4907ddc14610155578063f732ecff1461015d5761007d565b80632fe05ad91461008257806346e356b11461009c5780639f0b7dfe146100a4575b600080fd5b61008a610165565b60408051918252519081900360200190f35b61008a610180565b61008a600480360360608110156100ba57600080fd5b508035906001600160a01b036020820135811691604001351661019b565b6100e061035a565b6040805160208082528351818301528351919283929083019185019080838360005b8381101561011a578181015183820152602001610102565b50505050905090810190601f1680156101475780820380516001836020036101000a031916815260200191505b509250505060405180910390f35b6100e0610380565b61008a61039d565b60405180603661041282396036019050604051809103902081565b60405180606061044882396060019050604051809103902081565b600080604051808061041260369139604080519182900360360182206020808401919091526001600160a01b03808916848401528716606080850191909152825180850390910181526080909301918290528251920191909120925090508060596103b98239605901905060405180910390206040518060400160405280600a8152602001694d6f736169632d42757360b01b815250604051806040016040528060018152602001600360fc1b8152508784604051602001808681526020018060200180602001858152602001848152602001838103835287818151815260200191508051906020019080838360005b838110156102a357818101518382015260200161028b565b50505050905090810190601f1680156102d05780820380516001836020036101000a031916815260200191505b50838103825286518152865160209182019188019080838360005b838110156103035781810151838201526020016102eb565b50505050905090810190601f1680156103305780820380516001836020036101000a031916815260200191505b50975050505050505050604051602081830303815290604052805190602001209150509392505050565b6040518060400160405280600a8152602001694d6f736169632d42757360b01b81525081565b604051806040016040528060018152602001600360fc1b81525081565b6040518060596103b98239605901905060405180910390208156fe4d6f736169634d65737361676542757328737472696e67206e616d652c737472696e672076657273696f6e2c62797465733332206d657461636861696e49642c62797465733332206368616e6e656c536570617261746f72294d6f736169634d6573736167654275734368616e6e656c2861646472657373206f7574626f782c206164647265737320696e626f78294d657373616765286279746573333220696e74656e74486173682c75696e74323536206e6f6e63652c75696e743235362066656547617350726963652c75696e74323536206665654761734c696d69742c616464726573732073656e64657229a265627a7a723158205bc48081c03ab53770c3c505e533053bc4ddd145932d825b24b61a5f7653370364736f6c634300050d0032",
  "source": "pragma solidity >=0.5.0 <0.6.0;\n\n// Copyright 2019 OpenST Ltd.\n//\n// Licensed under the Apache License, Version 2.0 (the \"License\");\n// you may not use this file except in compliance with the License.\n// You may obtain a copy of the License at\n//\n//    http://www.apache.org/licenses/LICENSE-2.0\n//\n// Unless required by applicable law or agreed to in writing, software\n// distributed under the License is distributed on an \"AS IS\" BASIS,\n// WITHOUT WARRANTIES OR CONDITIONS OF ANY KIND, either express or implied.\n// See the License for the specific language governing permissions and\n// limitations under the License.\n\nimport \"../version/MosaicVersion.sol\";\n\n/**\n * @title MessageBox - Contains common code that will be used by MessageInbox and MessageOutbox\n */\ncontract MessageBox is MosaicVersion {\n\n    /* Constants */\n\n    /** Channel type hash */\n    bytes32 public constant MMB_CHANNEL_TYPEHASH = keccak256(\n        \"MosaicMessageBusChannel(address outbox, address inbox)\"\n    );\n\n    /** EIP-712 domain separator typehash for Mosaic bus */\n    bytes32 public constant MMB_DOMAIN_SEPARATOR_TYPEHASH = keccak256(\n        \"MosaicMessageBus(string name,string version,bytes32 metachainId,bytes32 channelSeparator)\"\n    );\n\n    /** EIP-712 domain separator name for Mosaic bus */\n    string public constant MMB_DOMAIN_SEPARATOR_NAME = \"Mosaic-Bus\";\n\n    /** Domain separator version */\n    string public constant MMB_DOMAIN_SEPARATOR_VERSION = \"0\";\n\n    /** Message type hash */\n    bytes32 public constant MESSAGE_TYPEHASH = keccak256(\n        \"Message(bytes32 intentHash,uint256 nonce,uint256 feeGasPrice,uint256 feeGasLimit,address sender)\"\n    );\n\n\n    /* Public Functions */\n\n    /**\n     * @notice Generate channel identifier hash from the input params\n     * @param _metachainId Metachain identifier.\n     * @param _outbox Outbox address.\n     * @param _inbox Inbox address.\n     */\n    function hashChannelIdentifier(\n        bytes32 _metachainId,\n        address _outbox,\n        address _inbox\n    )\n        public\n        pure\n        returns (bytes32 channelIdentifier_)\n    {\n        bytes32 channelSeparator = keccak256(\n            abi.encode(\n                MMB_CHANNEL_TYPEHASH,\n                _outbox,\n                _inbox\n            )\n        );\n\n        channelIdentifier_ = keccak256(\n            abi.encode(\n                    MMB_DOMAIN_SEPARATOR_TYPEHASH,\n                    MMB_DOMAIN_SEPARATOR_NAME,\n                    MMB_DOMAIN_SEPARATOR_VERSION,\n                    _metachainId,\n                    channelSeparator\n                )\n        );\n    }\n\n\n    /* Internal functions */\n\n    /**\n     * @notice Generate message hash from the input params\n     * @param _intentHash Intent hash of message.\n     * @param _nonce Nonce of sender.\n     * @param _feeGasPrice Fee gas price.\n     * @param _feeGasLimit Fee gas limit.\n     * @param _sender Sender address.\n     * @param _channelIdentifier Channel identifier.\n     * @return messageHash_ Message hash.\n     */\n    function hashMessage(\n        bytes32 _intentHash,\n        uint256 _nonce,\n        uint256 _feeGasPrice,\n        uint256 _feeGasLimit,\n        address _sender,\n        bytes32 _channelIdentifier\n    )\n        internal\n        pure\n        returns (bytes32 messageHash_)\n    {\n        bytes32 typedMessageHash = keccak256(\n            abi.encode(\n                MESSAGE_TYPEHASH,\n                _intentHash,\n                _nonce,\n                _feeGasPrice,\n                _feeGasLimit,\n                _sender\n            )\n        );\n\n        messageHash_ = keccak256(\n            abi.encodePacked(\n                byte(0x19),\n                byte(0x4d), // 0x4d is for M (Mosaic)\n                _channelIdentifier,\n                typedMessageHash\n            )\n        );\n    }\n}\n",
  "sourcePath": "/Users/abhay/Documents/projects/abhayforks/mosaic-1/contracts/message-bus/MessageBox.sol",
  "compiler": {
    "name": "solc",
    "version": "0.5.13+commit.5b0b510c.Emscripten.clang"
  },
  "schemaVersion": "3.0.17",
  "updatedAt": "2020-03-21T06:48:34.729Z",
  "devdoc": {
    "methods": {
      "hashChannelIdentifier(bytes32,address,address)": {
        "params": {
          "_inbox": "Inbox address.",
          "_metachainId": "Metachain identifier.",
          "_outbox": "Outbox address."
        }
      }
    },
    "title": "MessageBox - Contains common code that will be used by MessageInbox and MessageOutbox"
  },
  "userdoc": {
    "methods": {
      "hashChannelIdentifier(bytes32,address,address)": {
        "notice": "Generate channel identifier hash from the input params"
      }
    }
  }
}