{
  "contractName": "MessageInboxDouble",
  "abi": [
    {
      "constant": true,
      "inputs": [],
      "name": "DOMAIN_SEPARATOR_VERSION",
      "outputs": [
        {
          "internalType": "string",
          "name": "",
          "type": "string"
        }
      ],
      "payable": false,
      "stateMutability": "view",
      "type": "function"
    },
    {
      "constant": true,
      "inputs": [],
      "name": "MESSAGE_TYPEHASH",
      "outputs": [
        {
          "internalType": "bytes32",
          "name": "",
          "type": "bytes32"
        }
      ],
      "payable": false,
      "stateMutability": "view",
      "type": "function"
    },
    {
      "constant": true,
      "inputs": [],
      "name": "MMB_CHANNEL_TYPEHASH",
      "outputs": [
        {
          "internalType": "bytes32",
          "name": "",
          "type": "bytes32"
        }
      ],
      "payable": false,
      "stateMutability": "view",
      "type": "function"
    },
    {
      "constant": true,
      "inputs": [],
      "name": "MMB_DOMAIN_SEPARATOR_NAME",
      "outputs": [
        {
          "internalType": "string",
          "name": "",
          "type": "string"
        }
      ],
      "payable": false,
      "stateMutability": "view",
      "type": "function"
    },
    {
      "constant": true,
      "inputs": [],
      "name": "MMB_DOMAIN_SEPARATOR_TYPEHASH",
      "outputs": [
        {
          "internalType": "bytes32",
          "name": "",
          "type": "bytes32"
        }
      ],
      "payable": false,
      "stateMutability": "view",
      "type": "function"
    },
    {
      "constant": true,
      "inputs": [],
      "name": "MMB_DOMAIN_SEPARATOR_VERSION",
      "outputs": [
        {
          "internalType": "string",
          "name": "",
          "type": "string"
        }
      ],
      "payable": false,
      "stateMutability": "view",
      "type": "function"
    },
    {
      "constant": true,
      "inputs": [],
      "name": "encodedAccountPath",
      "outputs": [
        {
          "internalType": "bytes",
          "name": "",
          "type": "bytes"
        }
      ],
      "payable": false,
      "stateMutability": "view",
      "type": "function"
    },
    {
      "constant": true,
      "inputs": [
        {
          "internalType": "bytes32",
          "name": "_metachainId",
          "type": "bytes32"
        },
        {
          "internalType": "address",
          "name": "_outbox",
          "type": "address"
        },
        {
          "internalType": "address",
          "name": "_inbox",
          "type": "address"
        }
      ],
      "name": "hashChannelIdentifier",
      "outputs": [
        {
          "internalType": "bytes32",
          "name": "channelIdentifier_",
          "type": "bytes32"
        }
      ],
      "payable": false,
      "stateMutability": "pure",
      "type": "function"
    },
    {
      "constant": true,
      "inputs": [],
      "name": "inboundChannelIdentifier",
      "outputs": [
        {
          "internalType": "bytes32",
          "name": "",
          "type": "bytes32"
        }
      ],
      "payable": false,
      "stateMutability": "view",
      "type": "function"
    },
    {
      "constant": true,
      "inputs": [
        {
          "internalType": "bytes32",
          "name": "",
          "type": "bytes32"
        }
      ],
      "name": "inbox",
      "outputs": [
        {
          "internalType": "bool",
          "name": "",
          "type": "bool"
        }
      ],
      "payable": false,
      "stateMutability": "view",
      "type": "function"
    },
    {
      "constant": true,
      "inputs": [
        {
          "internalType": "bytes32",
          "name": "_intentHash",
          "type": "bytes32"
        },
        {
          "internalType": "uint256",
          "name": "_nonce",
          "type": "uint256"
        },
        {
          "internalType": "uint256",
          "name": "_feeGasPrice",
          "type": "uint256"
        },
        {
          "internalType": "uint256",
          "name": "_feeGasLimit",
          "type": "uint256"
        },
        {
          "internalType": "address",
          "name": "_sender",
          "type": "address"
        }
      ],
      "name": "inboxMessageHash",
      "outputs": [
        {
          "internalType": "bytes32",
          "name": "messageHash_",
          "type": "bytes32"
        }
      ],
      "payable": false,
      "stateMutability": "view",
      "type": "function"
    },
    {
      "constant": true,
      "inputs": [
        {
          "internalType": "address",
          "name": "",
          "type": "address"
        }
      ],
      "name": "inboxNonces",
      "outputs": [
        {
          "internalType": "uint256",
          "name": "",
          "type": "uint256"
        }
      ],
      "payable": false,
      "stateMutability": "view",
      "type": "function"
    },
    {
      "constant": true,
      "inputs": [],
      "name": "messageOutbox",
      "outputs": [
        {
          "internalType": "address",
          "name": "",
          "type": "address"
        }
      ],
      "payable": false,
      "stateMutability": "view",
      "type": "function"
    },
    {
      "constant": true,
      "inputs": [],
      "name": "outboxStorageIndex",
      "outputs": [
        {
          "internalType": "uint8",
          "name": "",
          "type": "uint8"
        }
      ],
      "payable": false,
      "stateMutability": "view",
      "type": "function"
    },
    {
      "constant": true,
      "inputs": [],
      "name": "stateRootProvider",
      "outputs": [
        {
          "internalType": "contract StateRootInterface",
          "name": "",
          "type": "address"
        }
      ],
      "payable": false,
      "stateMutability": "view",
      "type": "function"
    },
    {
      "constant": true,
      "inputs": [],
      "name": "storageAccount",
      "outputs": [
        {
          "internalType": "address",
          "name": "",
          "type": "address"
        }
      ],
      "payable": false,
      "stateMutability": "view",
      "type": "function"
    },
    {
      "constant": true,
      "inputs": [
        {
          "internalType": "uint256",
          "name": "",
          "type": "uint256"
        }
      ],
      "name": "storageRoots",
      "outputs": [
        {
          "internalType": "bytes32",
          "name": "",
          "type": "bytes32"
        }
      ],
      "payable": false,
      "stateMutability": "view",
      "type": "function"
    },
    {
      "constant": false,
      "inputs": [
        {
          "internalType": "bytes32",
          "name": "_metachainId",
          "type": "bytes32"
        },
        {
          "internalType": "address",
          "name": "_messageOutbox",
          "type": "address"
        },
        {
          "internalType": "uint8",
          "name": "_outboxStorageIndex",
          "type": "uint8"
        },
        {
          "internalType": "contract StateRootInterface",
          "name": "_stateRootProvider",
          "type": "address"
        },
        {
          "internalType": "uint256",
          "name": "_maxStorageRootItems",
          "type": "uint256"
        }
      ],
      "name": "setupMessageInboxExternal",
      "outputs": [],
      "payable": false,
      "stateMutability": "nonpayable",
      "type": "function"
    },
    {
      "constant": false,
      "inputs": [
        {
          "internalType": "uint256",
          "name": "_blockHeight",
          "type": "uint256"
        },
        {
          "internalType": "bytes",
          "name": "_rlpAccount",
          "type": "bytes"
        },
        {
          "internalType": "bytes",
          "name": "_rlpParentNodes",
          "type": "bytes"
        }
      ],
      "name": "proveStorageAccountExternal",
      "outputs": [],
      "payable": false,
      "stateMutability": "nonpayable",
      "type": "function"
    },
    {
      "constant": false,
      "inputs": [
        {
          "internalType": "bytes32",
          "name": "_intentHash",
          "type": "bytes32"
        },
        {
          "internalType": "uint256",
          "name": "_nonce",
          "type": "uint256"
        },
        {
          "internalType": "uint256",
          "name": "_feeGasPrice",
          "type": "uint256"
        },
        {
          "internalType": "uint256",
          "name": "_feeGasLimit",
          "type": "uint256"
        },
        {
          "internalType": "address",
          "name": "_sender",
          "type": "address"
        },
        {
          "internalType": "uint256",
          "name": "_blockHeight",
          "type": "uint256"
        },
        {
          "internalType": "bytes",
          "name": "_rlpParentNodes",
          "type": "bytes"
        }
      ],
      "name": "confirmMessageExternal",
      "outputs": [
        {
          "internalType": "bytes32",
          "name": "messageHash_",
          "type": "bytes32"
        }
      ],
      "payable": false,
      "stateMutability": "nonpayable",
      "type": "function"
    },
    {
      "constant": false,
      "inputs": [
        {
          "internalType": "bytes32",
          "name": "_inboundChannelIdentifier",
          "type": "bytes32"
        }
      ],
      "name": "setInboundChannelIdentifier",
      "outputs": [],
      "payable": false,
      "stateMutability": "nonpayable",
      "type": "function"
    },
    {
      "constant": false,
      "inputs": [
        {
          "internalType": "uint256",
          "name": "_blockHeight",
          "type": "uint256"
        },
        {
          "internalType": "bytes32",
          "name": "_storageRoot",
          "type": "bytes32"
        }
      ],
      "name": "setStorageRoots",
      "outputs": [],
      "payable": false,
      "stateMutability": "nonpayable",
      "type": "function"
    },
    {
      "constant": false,
      "inputs": [
        {
          "internalType": "uint8",
          "name": "_outboxStorageIndex",
          "type": "uint8"
        }
      ],
      "name": "setOutboxStorageIndex",
      "outputs": [],
      "payable": false,
      "stateMutability": "nonpayable",
      "type": "function"
    }
  ],
  "bytecode": "0x608060405234801561001057600080fd5b506124ab806100206000396000f3fe608060405234801561001057600080fd5b506004361061014d5760003560e01c8063ae640285116100c3578063dcd27dcd1161007c578063dcd27dcd14610380578063ddd335eb14610449578063e2e4c8da14610487578063efefe0eb146104a7578063f047e73b146104af578063f732ecff1461054c5761014d565b8063ae64028514610314578063b1c91e211461031c578063b4907ddc1461031c578063bbe8b5f914610324578063bd36237414610347578063d4d11185146103785761014d565b806346e356b11161011557806346e356b1146102705780635c1dc83a146102785780635ecec5641461029e578063610ebfe2146102a657806382b30279146102c35780639f0b7dfe146102e05761014d565b806309bf5f381461015257806316ad76b81461017057806320e1855f146101ed5780632fe05ad91461021157806343169acf1461022b575b600080fd5b61015a610554565b6040805160ff9092168252519081900360200190f35b610178610564565b6040805160208082528351818301528351919283929083019185019080838360005b838110156101b257818101518382015260200161019a565b50505050905090810190601f1680156101df5780820380516001836020036101000a031916815260200191505b509250505060405180910390f35b6101f56105f2565b604080516001600160a01b039092168252519081900360200190f35b610219610601565b60408051918252519081900360200190f35b61026e600480360360a081101561024157600080fd5b508035906001600160a01b03602082013581169160ff60408201351691606082013516906080013561061c565b005b610219610630565b6102196004803603602081101561028e57600080fd5b50356001600160a01b031661064b565b61021961065d565b610219600480360360208110156102bc57600080fd5b5035610663565b61026e600480360360208110156102d957600080fd5b5035610675565b610219600480360360608110156102f657600080fd5b508035906001600160a01b036020820135811691604001351661067a565b610178610839565b61017861085f565b61026e6004803603604081101561033a57600080fd5b508035906020013561087c565b6103646004803603602081101561035d57600080fd5b503561088e565b604080519115158252519081900360200190f35b6101f56108a3565b61026e6004803603606081101561039657600080fd5b813591908101906040810160208201356401000000008111156103b857600080fd5b8201836020820111156103ca57600080fd5b803590602001918460018302840111640100000000831117156103ec57600080fd5b91939092909160208101903564010000000081111561040a57600080fd5b82018360208201111561041c57600080fd5b8035906020019184600183028401116401000000008311171561043e57600080fd5b5090925090506108b2565b610219600480360360a081101561045f57600080fd5b50803590602081013590604081013590606081013590608001356001600160a01b0316610926565b61026e6004803603602081101561049d57600080fd5b503560ff16610942565b6101f5610962565b610219600480360360e08110156104c557600080fd5b8135916020810135916040820135916060810135916001600160a01b036080830135169160a08101359181019060e0810160c082013564010000000081111561050d57600080fd5b82018360208201111561051f57600080fd5b8035906020019184600183028401116401000000008311171561054157600080fd5b509092509050610971565b6102196109c5565b600854600160a01b900460ff1681565b6004805460408051602060026001851615610100026000190190941693909304601f810184900484028201840190925281815292918301828280156105ea5780601f106105bf576101008083540402835291602001916105ea565b820191906000526020600020905b8154815290600101906020018083116105cd57829003601f168201915b505050505081565b6002546001600160a01b031681565b6040518060366122e382396036019050604051809103902081565b61062985858585856109e0565b5050505050565b60405180606061233d82396060019050604051809103902081565b60096020526000908152604090205481565b60075481565b60056020526000908152604090205481565b600755565b60008060405180806122e360369139604080519182900360360182206020808401919091526001600160a01b038089168484015287166060808501919091528251808503909101815260809093019182905282519201919091209250905080605961228a8239605901905060405180910390206040518060400160405280600a8152602001694d6f736169632d42757360b01b815250604051806040016040528060018152602001600360fc1b8152508784604051602001808681526020018060200180602001858152602001848152602001838103835287818151815260200191508051906020019080838360005b8381101561078257818101518382015260200161076a565b50505050905090810190601f1680156107af5780820380516001836020036101000a031916815260200191505b50838103825286518152865160209182019188019080838360005b838110156107e25781810151838201526020016107ca565b50505050905090810190601f16801561080f5780820380516001836020036101000a031916815260200191505b50975050505050505050604051602081830303815290604052805190602001209150509392505050565b6040518060400160405280600a8152602001694d6f736169632d42757360b01b81525081565b604051806040016040528060018152602001600360fc1b81525081565b60009182526005602052604090912055565b60066020526000908152604090205460ff1681565b6003546001600160a01b031681565b6106298585858080601f01602080910402602001604051908101604052809392919081815260200183838082843760009201919091525050604080516020601f89018190048102820181019092528781529250879150869081908401838280828437600092019190915250610b6192505050565b60006109388686868686600754610b71565b9695505050505050565b6008805460ff909216600160a01b0260ff60a01b19909216919091179055565b6008546001600160a01b031681565b60006109b889898989898989898080601f016020809104026020016040519081016040528093929190818152602001838380828437600092019190915250610c2492505050565b9998505050505050505050565b60405180605961228a82396059019050604051809103902081565b60075415610a35576040805162461bcd60e51b815260206004820152601f60248201527f4d65737361676520696e626f7820697320616c72656164792073657475702e00604482015290519081900360640190fd5b84610a7c576040805162461bcd60e51b815260206004820152601260248201527136b2ba30b1b430b4b71034b21034b990181760711b604482015290519081900360640190fd5b6001600160a01b038416610ace576040805162461bcd60e51b815260206004820152601460248201527327baba3137bc1030b2323932b9b99034b990181760611b604482015290519081900360640190fd5b6001600160a01b038216610b135760405162461bcd60e51b81526004018080602001828103825260218152602001806123be6021913960400191505060405180910390fd5b600880546001600160a01b0319166001600160a01b038681169190911760ff60a01b1916600160a01b60ff8716021791829055610b53918791163061067a565b600755610629848383610cff565b610b6c838383610e8a565b505050565b600080604051808061233d606091396040805191829003606090810183206020808501919091528383019c909c52820199909952608081019790975250505060a08401929092526001600160a01b031660c0808401919091528351808403909101815260e083018452805190850120601960f81b610100840152604d60f81b6101018401526101028301919091526101228083019190915282518083039091018152610142909101909152805191012090565b6000610c368888888888600754610b71565b60008181526006602052604090205490915060ff1615610c875760405162461bcd60e51b81526004018080602001828103825260248152602001806123df6024913960400191505060405180910390fd5b6000818152600660205260409020805460ff19166001179055600854606090610cba90600160a01b900460ff16836110cb565b60408051600160f81b6020808301919091528251808303600101815260219092019092528051910120909150610cf3908290868661119e565b50979650505050505050565b6003546001600160a01b031615610d56576040805162461bcd60e51b815260206004820152601660248201527529b2ba3ab81034b99030b63932b0b23c903237b7329760511b604482015290519081900360640190fd5b6001600160a01b038316610db1576040805162461bcd60e51b815260206004820152601d60248201527f53746f72616765206163636f756e74206164647265737320697320302e000000604482015290519081900360640190fd5b6001600160a01b038216610df65760405162461bcd60e51b81526004018080602001828103825260218152602001806123be6021913960400191505060405180910390fd5b610dff81611299565b600280546001600160a01b038086166001600160a01b0319928316179092556003805492851692909116919091179055604080516bffffffffffffffffffffffff19606086901b166020808301919091528251808303601401815260349092019092528051910120610e7090611327565b8051610e8491600491602090910190612190565b50505050565b8151610ec75760405162461bcd60e51b81526004018080602001828103825260248152602001806123196024913960400191505060405180910390fd5b8051610f1a576040805162461bcd60e51b815260206004820152601f60248201527f4c656e677468206f6620524c5020706172656e74206e6f646573206973203000604482015290519081900360640190fd5b60035460408051631870032760e31b81526004810186905290516000926001600160a01b03169163c3801938916024808301926020929190829003018186803b158015610f6657600080fd5b505afa158015610f7a573d6000803e3d6000fd5b505050506040513d6020811015610f9057600080fd5b5051905080610fe6576040805162461bcd60e51b815260206004820152601b60248201527f537461746520726f6f74206d757374206e6f74206265207a65726f0000000000604482015290519081900360640190fd5b60008481526005602052604090205480610629576004805460408051602060026001851615610100026000190190941693909304601f81018490048402820184019092528181526000936110969389938993929183018282801561108b5780601f106110605761010080835404028352916020019161108b565b820191906000526020600020905b81548152906001019060200180831161106e57829003601f168201915b505050505086611351565b60008781526005602052604081208290559091506110b38761146c565b60009081526005602052604081205550505050505050565b6060806110e26110dd60ff8616611327565b6114b3565b905060606110f26110dd85611327565b9050606061110082846114f9565b9050610938816040516020018082805190602001908083835b602083106111385780518252601f199092019160209182019101611119565b6001836020036101000a038019825116818451168082178552505050505050905001915050604051602081830303815290604052805190602001206040516020018082815260200191505060405160208183030381529060405280519060200120611327565b80516111f1576040805162461bcd60e51b815260206004820181905260248201527f4c656e677468206f6620524c5020706172656e74206e6f64657320697320302e604482015290519081900360640190fd5b60008281526005602052604090205480611252576040805162461bcd60e51b815260206004820152601d60248201527f53746f7261676520726f6f74206d757374206e6f74206265207a65726f000000604482015290519081900360640190fd5b61125e84868484611571565b6106295760405162461bcd60e51b815260040180806020018281038252602181526020018061239d6021913960400191505060405180910390fd5b600081116112d85760405162461bcd60e51b815260040180806020018281038252604d81526020018061242a604d913960600191505060405180910390fd5b600054156113175760405162461bcd60e51b81526004018080602001828103825260278152602001806124036027913960400191505060405180910390fd5b8061132360008261220e565b5050565b60408051602080825281830190925260609160208201818038833950505060208101929092525090565b600061135b612232565b611364866118e3565b905060606113718261192c565b90506113908160028151811061138357fe5b60200260200101516119de565b92506000876040516020018082805190602001908083835b602083106113c75780518252601f1990920191602091820191016113a8565b6001836020036101000a03801982511681845116808217855250505050505090500191505060405160208183030381529060405280519060200120905061141081878988611571565b611461576040805162461bcd60e51b815260206004820152601e60248201527f4163636f756e742070726f6f66206973206e6f742076657269666965642e0000604482015290519081900360640190fd5b505050949350505050565b60006114766119ef565b60006001548154811061148557fe5b90600052602060002001549050816000600154815481106114a257fe5b600091825260209091200155919050565b60608082516020036040519080825280601f01601f1916602001820160405280156114e5576020820181803883390190505b5090506114f281846114f9565b9392505050565b60606040519050825180825260208201818101602086015b81831015611529578051835260209283019201611511565b50845184518101855292509050808201602085015b8183101561155657805183526020928301920161153e565b50601f19601f87518501158301011660405250505092915050565b600061157b612232565b611584846118e3565b905060606115918261192c565b9050606080856000826115a38b611a0a565b90508051600014156115bf5760009750505050505050506118db565b60005b86518110156118d25781518311156115e5576000985050505050505050506118db565b6116018782815181106115f457fe5b6020026020010151611a85565b9550856040516020018082805190602001908083835b602083106116365780518252601f199092019160209182019101611617565b6001836020036101000a038019825116818451168082178552505050505050905001915050604051602081830303815290604052805190602001208414611688576000985050505050505050506118db565b6116a487828151811061169757fe5b602002602001015161192c565b94508451601114156117b257815183141561175f578c6116ca866010815181106115f457fe5b6040516020018082805190602001908083835b602083106116fc5780518252601f1990920191602091820191016116dd565b6001836020036101000a03801982511681845116808217855250505050505090500191505060405160208183030381529060405280519060200120141561174e576001985050505050505050506118db565b6000985050505050505050506118db565b600082848151811061176d57fe5b016020015160f81c9050601081111561179257600099505050505050505050506118db565b6117a4868260ff168151811061138357fe5b9450600184019350506118ca565b84516002141561174e5760006117e56117de876000815181106117d157fe5b6020026020010151611ad5565b8486611b3a565b90508251818501141561189a578d611803876001815181106117d157fe5b6040516020018082805190602001908083835b602083106118355780518252601f199092019160209182019101611816565b6001836020036101000a03801982511681845116808217855250505050505090500191505060405160208183030381529060405280519060200120141561188857600199505050505050505050506118db565b600099505050505050505050506118db565b806118b157600099505050505050505050506118db565b80840193506118c68660018151811061138357fe5b9450505b6001016115c2565b50505050505050505b949350505050565b6118eb612232565b81518061190d5750506040805180820190915260008082526020820152611927565b604080518082019091526020848101825281019190915290505b919050565b606061193782611ccb565b61194057600080fd5b600061194b83611cf2565b90508060405190808252806020026020018201604052801561198757816020015b611974612232565b81526020019060019003908161196c5790505b50915061199261224c565b61199b84611d4c565b905060005b6119a982611d83565b156119d6576119b782611da2565b8482815181106119c357fe5b60209081029190910101526001016119a0565b505050919050565b60006119e982611de6565b92915050565b600180548101908190556000541415611a085760006001555b565b606081516002026040519080825280601f01601f191660200182016040528015611a3b576020820181803883390190505b50905060005b8151811015611a7f57611a548184611e36565b828281518110611a6057fe5b60200101906001600160f81b031916908160001a905350600101611a41565b50919050565b602081015160609080611a985750611927565b806040519080825280601f01601f191660200182016040528015611ac3576020820181803883390190505b509150611a7f83600001518383611e93565b6060611ae082611ec3565b611ae957600080fd5b600080611af584611ee9565b60408051828152601f19601f84011681016020019091529193509150818015611b25576020820181803883390190505b509250611b33828483611e93565b5050919050565b60006060611b4785611f59565b9050606081516040519080825280601f01601f191660200182016040528015611b77576020820181803883390190505b509050835b82518501811015611bd1576000868281518110611b9557fe5b602001015160f81c60f81b9050808387840381518110611bb157fe5b60200101906001600160f81b031916908160001a90535050600101611b7c565b50806040516020018082805190602001908083835b60208310611c055780518252601f199092019160209182019101611be6565b6001836020036101000a03801982511681845116808217855250505050505090500191505060405160208183030381529060405280519060200120826040516020018082805190602001908083835b60208310611c735780518252601f199092019160209182019101611c54565b6001836020036101000a038019825116818451168082178552505050505050905001915050604051602081830303815290604052805190602001201415611cbd5781519250611cc2565b600092505b50509392505050565b6000816020015160001415611ce257506000611927565b50515160c060009190911a101590565b6000611cfd82611ccb565b611d0957506000611927565b81518051600090811a9190611d1d85612085565b6020860151908301915082016000190160005b81831161093857611d4083612103565b90920191600101611d30565b611d5461224c565b611d5d82611ccb565b611d6657600080fd5b6000611d7183612085565b83519383529092016020820152919050565b6000611d8d612232565b50508051602080820151915192015191011190565b611daa612232565b611db382611d83565b611dbc57600080fd5b60208201516000611dcc82612103565b828452602080850182905292019390910192909252919050565b6000611df182611ec3565b611dfa57600080fd5b600080611e0684611ee9565b90925090506020811180611e18575080155b15611e2257600080fd5b806020036101000a82510492505050919050565b60006002830615611e67576010826002850481518110611e5257fe5b016020015160f81c81611e6157fe5b06611e89565b6010826002850481518110611e7857fe5b016020015160f81c81611e8757fe5b045b60f81b9392505050565b6000601f820184602085015b82841015611eba578382015184820152602084019350611e9f565b50505050505050565b6000816020015160001415611eda57506000611927565b50515160c060009190911a1090565b600080611ef583611ec3565b611efe57600080fd5b8251805160001a906080821015611f1c57925060019150611f549050565b60b8821015611f3a5760018560200151039250806001019350611f51565b602085015182820160b51901945082900360b60192505b50505b915091565b80516060901561192757600080611f71600085611e36565b60f81c90506001811480611f8857508060ff166003145b156120005760018451600202036040519080825280601f01601f191660200182016040528015611fbf576020820181803883390190505b5092506000611fcf600186611e36565b90508084600081518110611fdf57fe5b60200101906001600160f81b031916908160001a905350600192505061203a565b60028451600202036040519080825280601f01601f191660200182016040528015612032576020820181803883390190505b509250600091505b60ff82165b83518110156119d65761205a8360ff16820360020186611e36565b84828151811061206657fe5b60200101906001600160f81b031916908160001a90535060010161203f565b600081602001516000141561209c57506000611927565b8151805160001a9060808210156120b857600092505050611927565b60b88210806120d3575060c082101580156120d3575060f882105b156120e357600192505050611927565b60c08210156120f8575060b519019050611927565b5060f5190192915050565b8051600090811a608081101561211c5760019150611a7f565b60b881101561213157607e1981019150611a7f565b60c081101561215a57600183015160b76020839003016101000a9004810160b519019150611a7f565b60f881101561216f5760be1981019150611a7f565b6001929092015160f76020849003016101000a900490910160f51901919050565b828054600181600116156101000203166002900490600052602060002090601f016020900481019282601f106121d157805160ff19168380011785556121fe565b828001600101855582156121fe579182015b828111156121fe5782518255916020019190600101906121e3565b5061220a92915061226c565b5090565b815481835581811115610b6c57600083815260209020610b6c91810190830161226c565b604051806040016040528060008152602001600081525090565b604051806040016040528061225f612232565b8152602001600081525090565b61228691905b8082111561220a5760008155600101612272565b9056fe4d6f736169634d65737361676542757328737472696e67206e616d652c737472696e672076657273696f6e2c62797465733332206d657461636861696e49642c62797465733332206368616e6e656c536570617261746f72294d6f736169634d6573736167654275734368616e6e656c2861646472657373206f7574626f782c206164647265737320696e626f78294c656e677468206f6620524c50206163636f756e74206d757374206e6f7420626520302e4d657373616765286279746573333220696e74656e74486173682c75696e74323536206e6f6e63652c75696e743235362066656547617350726963652c75696e74323536206665654761734c696d69742c616464726573732073656e646572294d65726b6c652070726f6f6620766572696669636174696f6e206661696c65642e537461746520726f6f742070726f7669646572206164647265737320697320302e4d65737361676520616c72656164792065786973747320696e2074686520696e626f782e43697263756c6172206275666665722073697a652063616e206265207365747570206f6e63652e546865206d6178206e756d626572206f66206974656d7320746f2073746f726520696e20612063697263756c617220627566666572206d7573742062652067726561746572207468616e20302ea265627a7a72315820b885e535dd1452903d34f92f865e52b3cbbee0bad58613986afa6fd614f65df564736f6c634300050d0032",
  "source": "pragma solidity >=0.5.0 <0.6.0;\n\n// Copyright 2020 OpenST Ltd.\n//\n// Licensed under the Apache License, Version 2.0 (the \"License\");\n// you may not use this file except in compliance with the License.\n// You may obtain a copy of the License at\n//\n//    http://www.apache.org/licenses/LICENSE-2.0\n//\n// Unless required by applicable law or agreed to in writing, software\n// distributed under the License is distributed on an \"AS IS\" BASIS,\n// WITHOUT WARRANTIES OR CONDITIONS OF ANY KIND, either express or implied.\n// See the License for the specific language governing permissions and\n// limitations under the License.\n\nimport \"../../message-bus/MessageInbox.sol\";\n\n/**\n * @title MessageInboxDouble - Message Inbox test double contract.\n */\ncontract MessageInboxDouble is MessageInbox {\n\n    /* External Functions */\n\n    /**\n     * @notice It is used to test MessageInbox::setupMessageInbox\n     */\n    function setupMessageInboxExternal(\n        bytes32 _metachainId,\n        address _messageOutbox,\n        uint8 _outboxStorageIndex,\n        StateRootInterface _stateRootProvider,\n        uint256 _maxStorageRootItems\n    )\n        external\n    {\n        MessageInbox.setupMessageInbox(\n            _metachainId,\n            _messageOutbox,\n            _outboxStorageIndex,\n            _stateRootProvider,\n            _maxStorageRootItems\n        );\n    }\n\n    /**\n     * @notice It is used to test MessageInbox::proveStorageAccount\n     */\n    function proveStorageAccountExternal(\n        uint256 _blockHeight,\n        bytes calldata _rlpAccount,\n        bytes calldata _rlpParentNodes\n    )\n        external\n    {\n        MessageInbox.proveStorageAccount(\n            _blockHeight,\n            _rlpAccount,\n            _rlpParentNodes\n        );\n    }\n\n    /**\n     * @notice It is used to test MessageInbox::confirmMessage\n     */\n    function confirmMessageExternal(\n        bytes32 _intentHash,\n        uint256 _nonce,\n        uint256 _feeGasPrice,\n        uint256 _feeGasLimit,\n        address _sender,\n        uint256 _blockHeight,\n        bytes calldata _rlpParentNodes\n    )\n        external\n        returns (bytes32 messageHash_)\n    {\n        messageHash_ = MessageInbox.confirmMessage(\n            _intentHash,\n            _nonce,\n            _feeGasPrice,\n            _feeGasLimit,\n            _sender,\n            _blockHeight,\n            _rlpParentNodes\n        );\n    }\n\n    /**\n     * @notice It sets inbound channel identifier.\n     *\n     * @param _inboundChannelIdentifier Inbound channel identifier.\n     */\n    function setInboundChannelIdentifier(\n        bytes32 _inboundChannelIdentifier\n    )\n        external\n    {\n        inboundChannelIdentifier = _inboundChannelIdentifier;\n    }\n\n    /**\n     * @notice It sets storage root.\n     *\n     * @param _blockHeight Block height at which Gateway/Cogateway is to be\n     *                     proven.\n     * @param _storageRoot Storage root.\n     */\n    function setStorageRoots(\n        uint256 _blockHeight,\n        bytes32 _storageRoot\n    )\n        external\n    {\n        storageRoots[_blockHeight] = _storageRoot;\n    }\n\n    /**\n     * @notice It sets Outbox storage index.\n     *\n     * @param _outboxStorageIndex Storage index of outbox mapping in\n     *                            MessageOutbox contract.\n     */\n    function setOutboxStorageIndex(\n        uint8 _outboxStorageIndex\n    )\n        external\n    {\n        outboxStorageIndex = uint8(_outboxStorageIndex);\n    }\n}\n",
  "sourcePath": "/Users/abhay/Documents/projects/abhayforks/mosaic-1/contracts/test/message_bus/MessageInboxDouble.sol",
  "compiler": {
    "name": "solc",
    "version": "0.5.13+commit.5b0b510c.Emscripten.clang"
  },
  "schemaVersion": "3.0.17",
  "updatedAt": "2020-03-21T06:48:34.810Z",
  "devdoc": {
    "methods": {
      "hashChannelIdentifier(bytes32,address,address)": {
        "params": {
          "_inbox": "Inbox address.",
          "_metachainId": "Metachain identifier.",
          "_outbox": "Outbox address."
        }
      },
      "inboxMessageHash(bytes32,uint256,uint256,uint256,address)": {
        "params": {
          "_feeGasLimit": "Fee gas limit.",
          "_feeGasPrice": "Fee gas price.",
          "_intentHash": "Intent hash of message.",
          "_nonce": "Nonce of sender.",
          "_sender": "Sender address."
        },
        "return": "messageHash_ Message hash."
      },
      "setInboundChannelIdentifier(bytes32)": {
        "params": {
          "_inboundChannelIdentifier": "Inbound channel identifier."
        }
      },
      "setOutboxStorageIndex(uint8)": {
        "params": {
          "_outboxStorageIndex": "Storage index of outbox mapping in                           MessageOutbox contract."
        }
      },
      "setStorageRoots(uint256,bytes32)": {
        "params": {
          "_blockHeight": "Block height at which Gateway/Cogateway is to be                    proven.",
          "_storageRoot": "Storage root."
        }
      }
    },
    "title": "MessageInboxDouble - Message Inbox test double contract."
  },
  "userdoc": {
    "methods": {
      "confirmMessageExternal(bytes32,uint256,uint256,uint256,address,uint256,bytes)": {
        "notice": "It is used to test MessageInbox::confirmMessage"
      },
      "hashChannelIdentifier(bytes32,address,address)": {
        "notice": "Generate channel identifier hash from the input params"
      },
      "inboxMessageHash(bytes32,uint256,uint256,uint256,address)": {
        "notice": "Generate inbox message hash from the input params"
      },
      "proveStorageAccountExternal(uint256,bytes,bytes)": {
        "notice": "It is used to test MessageInbox::proveStorageAccount"
      },
      "setInboundChannelIdentifier(bytes32)": {
        "notice": "It sets inbound channel identifier."
      },
      "setOutboxStorageIndex(uint8)": {
        "notice": "It sets Outbox storage index."
      },
      "setStorageRoots(uint256,bytes32)": {
        "notice": "It sets storage root."
      },
      "setupMessageInboxExternal(bytes32,address,uint8,address,uint256)": {
        "notice": "It is used to test MessageInbox::setupMessageInbox"
      }
    }
  }
}