{
  "contractName": "MessageInbox",
  "abi": [
    {
      "constant": true,
      "inputs": [],
      "name": "DOMAIN_SEPARATOR_VERSION",
      "outputs": [
        {
          "internalType": "string",
          "name": "",
          "type": "string"
        }
      ],
      "payable": false,
      "stateMutability": "view",
      "type": "function"
    },
    {
      "constant": true,
      "inputs": [],
      "name": "MESSAGE_TYPEHASH",
      "outputs": [
        {
          "internalType": "bytes32",
          "name": "",
          "type": "bytes32"
        }
      ],
      "payable": false,
      "stateMutability": "view",
      "type": "function"
    },
    {
      "constant": true,
      "inputs": [],
      "name": "MMB_CHANNEL_TYPEHASH",
      "outputs": [
        {
          "internalType": "bytes32",
          "name": "",
          "type": "bytes32"
        }
      ],
      "payable": false,
      "stateMutability": "view",
      "type": "function"
    },
    {
      "constant": true,
      "inputs": [],
      "name": "MMB_DOMAIN_SEPARATOR_NAME",
      "outputs": [
        {
          "internalType": "string",
          "name": "",
          "type": "string"
        }
      ],
      "payable": false,
      "stateMutability": "view",
      "type": "function"
    },
    {
      "constant": true,
      "inputs": [],
      "name": "MMB_DOMAIN_SEPARATOR_TYPEHASH",
      "outputs": [
        {
          "internalType": "bytes32",
          "name": "",
          "type": "bytes32"
        }
      ],
      "payable": false,
      "stateMutability": "view",
      "type": "function"
    },
    {
      "constant": true,
      "inputs": [],
      "name": "MMB_DOMAIN_SEPARATOR_VERSION",
      "outputs": [
        {
          "internalType": "string",
          "name": "",
          "type": "string"
        }
      ],
      "payable": false,
      "stateMutability": "view",
      "type": "function"
    },
    {
      "constant": true,
      "inputs": [],
      "name": "encodedAccountPath",
      "outputs": [
        {
          "internalType": "bytes",
          "name": "",
          "type": "bytes"
        }
      ],
      "payable": false,
      "stateMutability": "view",
      "type": "function"
    },
    {
      "constant": true,
      "inputs": [
        {
          "internalType": "bytes32",
          "name": "_metachainId",
          "type": "bytes32"
        },
        {
          "internalType": "address",
          "name": "_outbox",
          "type": "address"
        },
        {
          "internalType": "address",
          "name": "_inbox",
          "type": "address"
        }
      ],
      "name": "hashChannelIdentifier",
      "outputs": [
        {
          "internalType": "bytes32",
          "name": "channelIdentifier_",
          "type": "bytes32"
        }
      ],
      "payable": false,
      "stateMutability": "pure",
      "type": "function"
    },
    {
      "constant": true,
      "inputs": [],
      "name": "inboundChannelIdentifier",
      "outputs": [
        {
          "internalType": "bytes32",
          "name": "",
          "type": "bytes32"
        }
      ],
      "payable": false,
      "stateMutability": "view",
      "type": "function"
    },
    {
      "constant": true,
      "inputs": [
        {
          "internalType": "bytes32",
          "name": "",
          "type": "bytes32"
        }
      ],
      "name": "inbox",
      "outputs": [
        {
          "internalType": "bool",
          "name": "",
          "type": "bool"
        }
      ],
      "payable": false,
      "stateMutability": "view",
      "type": "function"
    },
    {
      "constant": true,
      "inputs": [
        {
          "internalType": "address",
          "name": "",
          "type": "address"
        }
      ],
      "name": "inboxNonces",
      "outputs": [
        {
          "internalType": "uint256",
          "name": "",
          "type": "uint256"
        }
      ],
      "payable": false,
      "stateMutability": "view",
      "type": "function"
    },
    {
      "constant": true,
      "inputs": [],
      "name": "messageOutbox",
      "outputs": [
        {
          "internalType": "address",
          "name": "",
          "type": "address"
        }
      ],
      "payable": false,
      "stateMutability": "view",
      "type": "function"
    },
    {
      "constant": true,
      "inputs": [],
      "name": "outboxStorageIndex",
      "outputs": [
        {
          "internalType": "uint8",
          "name": "",
          "type": "uint8"
        }
      ],
      "payable": false,
      "stateMutability": "view",
      "type": "function"
    },
    {
      "constant": true,
      "inputs": [],
      "name": "stateRootProvider",
      "outputs": [
        {
          "internalType": "contract StateRootInterface",
          "name": "",
          "type": "address"
        }
      ],
      "payable": false,
      "stateMutability": "view",
      "type": "function"
    },
    {
      "constant": true,
      "inputs": [],
      "name": "storageAccount",
      "outputs": [
        {
          "internalType": "address",
          "name": "",
          "type": "address"
        }
      ],
      "payable": false,
      "stateMutability": "view",
      "type": "function"
    },
    {
      "constant": true,
      "inputs": [
        {
          "internalType": "uint256",
          "name": "",
          "type": "uint256"
        }
      ],
      "name": "storageRoots",
      "outputs": [
        {
          "internalType": "bytes32",
          "name": "",
          "type": "bytes32"
        }
      ],
      "payable": false,
      "stateMutability": "view",
      "type": "function"
    },
    {
      "constant": true,
      "inputs": [
        {
          "internalType": "bytes32",
          "name": "_intentHash",
          "type": "bytes32"
        },
        {
          "internalType": "uint256",
          "name": "_nonce",
          "type": "uint256"
        },
        {
          "internalType": "uint256",
          "name": "_feeGasPrice",
          "type": "uint256"
        },
        {
          "internalType": "uint256",
          "name": "_feeGasLimit",
          "type": "uint256"
        },
        {
          "internalType": "address",
          "name": "_sender",
          "type": "address"
        }
      ],
      "name": "inboxMessageHash",
      "outputs": [
        {
          "internalType": "bytes32",
          "name": "messageHash_",
          "type": "bytes32"
        }
      ],
      "payable": false,
      "stateMutability": "view",
      "type": "function"
    }
  ],
  "bytecode": "0x608060405234801561001057600080fd5b50610857806100206000396000f3fe608060405234801561001057600080fd5b506004361061010b5760003560e01c80639f0b7dfe116100a2578063bd36237411610071578063bd36237414610280578063d4d11185146102b1578063ddd335eb146102b9578063efefe0eb146102f7578063f732ecff146102ff5761010b565b80639f0b7dfe1461023c578063ae64028514610270578063b1c91e2114610278578063b4907ddc146102785761010b565b806346e356b1116100de57806346e356b1146101e95780635c1dc83a146101f15780635ecec56414610217578063610ebfe21461021f5761010b565b806309bf5f381461011057806316ad76b81461012e57806320e1855f146101ab5780632fe05ad9146101cf575b600080fd5b610118610307565b6040805160ff9092168252519081900360200190f35b610136610317565b6040805160208082528351818301528351919283929083019185019080838360005b83811015610170578181015183820152602001610158565b50505050905090810190601f16801561019d5780820380516001836020036101000a031916815260200191505b509250505060405180910390f35b6101b36103a5565b604080516001600160a01b039092168252519081900360200190f35b6101d76103b4565b60408051918252519081900360200190f35b6101d76103cf565b6101d76004803603602081101561020757600080fd5b50356001600160a01b03166103ea565b6101d76103fc565b6101d76004803603602081101561023557600080fd5b5035610402565b6101d76004803603606081101561025257600080fd5b508035906001600160a01b0360208201358116916040013516610414565b6101366105d3565b6101366105f9565b61029d6004803603602081101561029657600080fd5b5035610616565b604080519115158252519081900360200190f35b6101b361062b565b6101d7600480360360a08110156102cf57600080fd5b50803590602081013590604081013590606081013590608001356001600160a01b031661063a565b6101b3610656565b6101d7610665565b600854600160a01b900460ff1681565b6004805460408051602060026001851615610100026000190190941693909304601f8101849004840282018401909252818152929183018282801561039d5780601f106103725761010080835404028352916020019161039d565b820191906000526020600020905b81548152906001019060200180831161038057829003601f168201915b505050505081565b6002546001600160a01b031681565b60405180603661078d82396036019050604051809103902081565b6040518060606107c382396060019050604051809103902081565b60096020526000908152604090205481565b60075481565b60056020526000908152604090205481565b600080604051808061078d60369139604080519182900360360182206020808401919091526001600160a01b03808916848401528716606080850191909152825180850390910181526080909301918290528251920191909120925090508060596107348239605901905060405180910390206040518060400160405280600a8152602001694d6f736169632d42757360b01b815250604051806040016040528060018152602001600360fc1b8152508784604051602001808681526020018060200180602001858152602001848152602001838103835287818151815260200191508051906020019080838360005b8381101561051c578181015183820152602001610504565b50505050905090810190601f1680156105495780820380516001836020036101000a031916815260200191505b50838103825286518152865160209182019188019080838360005b8381101561057c578181015183820152602001610564565b50505050905090810190601f1680156105a95780820380516001836020036101000a031916815260200191505b50975050505050505050604051602081830303815290604052805190602001209150509392505050565b6040518060400160405280600a8152602001694d6f736169632d42757360b01b81525081565b604051806040016040528060018152602001600360fc1b81525081565b60066020526000908152604090205460ff1681565b6003546001600160a01b031681565b600061064c8686868686600754610680565b9695505050505050565b6008546001600160a01b031681565b60405180605961073482396059019050604051809103902081565b60008060405180806107c3606091396040805191829003606090810183206020808501919091528383019c909c52820199909952608081019790975250505060a08401929092526001600160a01b031660c0808401919091528351808403909101815260e083018452805190850120601960f81b610100840152604d60f81b610101840152610102830191909152610122808301919091528251808303909101815261014290910190915280519101209056fe4d6f736169634d65737361676542757328737472696e67206e616d652c737472696e672076657273696f6e2c62797465733332206d657461636861696e49642c62797465733332206368616e6e656c536570617261746f72294d6f736169634d6573736167654275734368616e6e656c2861646472657373206f7574626f782c206164647265737320696e626f78294d657373616765286279746573333220696e74656e74486173682c75696e74323536206e6f6e63652c75696e743235362066656547617350726963652c75696e74323536206665654761734c696d69742c616464726573732073656e64657229a265627a7a72315820c4b71cb2640e46a59e7d85a6305fe7f0b221eb35604a49ce02c55bbe0b519ac864736f6c634300050d0032",
  "source": "pragma solidity >=0.5.0 <0.6.0;\n\n// Copyright 2019 OpenST Ltd.\n//\n// Licensed under the Apache License, Version 2.0 (the \"License\");\n// you may not use this file except in compliance with the License.\n// You may obtain a copy of the License at\n//\n//    http://www.apache.org/licenses/LICENSE-2.0\n//\n// Unless required by applicable law or agreed to in writing, software\n// distributed under the License is distributed on an \"AS IS\" BASIS,\n// WITHOUT WARRANTIES OR CONDITIONS OF ANY KIND, either express or implied.\n// See the License for the specific language governing permissions and\n// limitations under the License.\n\nimport \"./MessageBox.sol\";\nimport \"./StateRootInterface.sol\";\nimport \"./Proof.sol\";\n\n/**\n * @title MessageInbox - Contract to confirm the messages declared in MessageOutbox\n */\ncontract MessageInbox is MessageBox, Proof {\n\n    // TODO: If we want to revert, may be the value will change to MessageBoxEnum.(still to think on this)\n    /** Mapping to indicate that message hash exists in inbox. */\n    mapping(bytes32 => bool) public inbox;\n\n    /** Inbound channel identifier */\n    bytes32 public inboundChannelIdentifier;\n\n    /** Message outbox address */\n    address public messageOutbox;\n\n    /** Outbox storage index */\n    uint8 public outboxStorageIndex;\n\n    /** Mapping of message sender and nonce. */\n    mapping(address => uint256) public inboxNonces;\n\n\n    /* External Functions */\n\n    /**\n     * @notice Generate inbox message hash from the input params\n     * @param _intentHash Intent hash of message.\n     * @param _nonce Nonce of sender.\n     * @param _feeGasPrice Fee gas price.\n     * @param _feeGasLimit Fee gas limit.\n     * @param _sender Sender address.\n     * @return messageHash_ Message hash.\n     */\n    function inboxMessageHash(\n        bytes32 _intentHash,\n        uint256 _nonce,\n        uint256 _feeGasPrice,\n        uint256 _feeGasLimit,\n        address _sender\n    )\n        external\n        view\n        returns (bytes32 messageHash_)\n    {\n        messageHash_ = MessageBox.hashMessage(\n            _intentHash,\n            _nonce,\n            _feeGasPrice,\n            _feeGasLimit,\n            _sender,\n            inboundChannelIdentifier\n        );\n    }\n\n\n    /* Internal Functions */\n\n    /**\n     * @notice Setup message inbox.\n     *\n     * @param _metachainId Metachain identifier.\n     * @param _messageOutbox MessageOutbox contract address.\n     * @param _outboxStorageIndex Storage index of outbox mapping in\n     *                            MessageOutbox contract.\n     * @param _stateRootProvider State root provider contract address.\n     * @param _maxStorageRootItems Defines how many storage roots should be\n     *                             stored in circular buffer.\n     *\n     * \\pre The function can be called only once.\n     * \\pre `_metachainId` must not be zero.\n     * \\pre `_messageOutbox` address must not be zero.\n     * \\pre `_stateRootProvider` must not be zero.\n     *\n     * \\post Sets `messageOutbox` storage variable with the value\n     *        of `_messageOutbox`.\n     * \\post Sets `outboxStorageIndex` storage with the value\n     *       of `_outboxStorageIndex`.\n     * \\post Sets `inboundChannelIdentifier` storage variable.\n     *       `inboundChannelIdentifier` is calculated by\n     *       `MessageBox.hashChannelIdentifier` method.\n     * \\post It calls `Proof.setupProof`.\n     */\n    function setupMessageInbox(\n        bytes32 _metachainId,\n        address _messageOutbox,\n        uint8 _outboxStorageIndex,\n        StateRootInterface _stateRootProvider,\n        uint256 _maxStorageRootItems\n    )\n        internal\n    {\n        require(\n            inboundChannelIdentifier == bytes32(0),\n            \"Message inbox is already setup.\"\n        );\n\n        require(\n            _metachainId != bytes32(0),\n            \"metachain id is 0.\"\n        );\n\n        require(\n            _messageOutbox != address(0),\n            \"Outbox address is 0.\"\n        );\n\n        require(\n            address(_stateRootProvider) != address(0),\n            \"State root provider address is 0.\"\n        );\n\n        messageOutbox = _messageOutbox;\n        outboxStorageIndex = _outboxStorageIndex;\n\n        inboundChannelIdentifier = MessageBox.hashChannelIdentifier(\n            _metachainId,\n            messageOutbox,\n            address(this)\n        );\n\n\n        /*\n         * @dev: Please note that no validations are done here. Proof::setup\n         *       already has the validations for the input params, so avoided\n         *       the duplicate validations here.\n         */\n        Proof.setupProof(\n            _messageOutbox,\n            _stateRootProvider,\n            _maxStorageRootItems\n        );\n    }\n\n    /**\n     * @notice Verify merkle proof of a storage contract address.\n     *         Trust factor is brought by state roots of the contract which\n     *         implements StateRootInterface.\n     * @param _blockHeight Block height at which Gateway/Cogateway is to be\n     *                     proven.\n     * @param _rlpAccount RLP encoded account node object.\n     * @param _rlpParentNodes RLP encoded value of account proof parent nodes.\n     */\n    function proveStorageAccount(\n        uint256 _blockHeight,\n        bytes memory _rlpAccount,\n        bytes memory _rlpParentNodes\n    )\n        internal\n    {\n        Proof.proveStorageAccount(\n            _blockHeight,\n            _rlpAccount,\n            _rlpParentNodes\n        );\n    }\n\n    /**\n     * @notice Confirm a new message that is declared in outbox on the source\n     *         chain. Merkle proof will be performed to verify storage data.\n     *         This will update the inbox value to `true` for the given message hash.\n     *\n     * @dev  Function requires:\n     *          - message should not exists in inbox\n     *\n     * @param _intentHash Intent hash of message.\n     * @param _nonce Nonce of sender.\n     * @param _feeGasPrice Fee gas price.\n     * @param _feeGasLimit Fee gas limit.\n     * @param _sender Sender address.\n     * @param _blockHeight Block height for fetching storage root.\n     * @param _rlpParentNodes RLP encoded parent node data to prove in\n     *                        messageBox outbox.\n     * @return messageHash_ Message hash.\n     */\n    function confirmMessage(\n        bytes32 _intentHash,\n        uint256 _nonce,\n        uint256 _feeGasPrice,\n        uint256 _feeGasLimit,\n        address _sender,\n        uint256 _blockHeight,\n        bytes memory _rlpParentNodes\n    )\n        internal\n        returns (bytes32 messageHash_)\n    {\n        messageHash_ = MessageBox.hashMessage(\n            _intentHash,\n            _nonce,\n            _feeGasPrice,\n            _feeGasLimit,\n            _sender,\n            inboundChannelIdentifier\n        );\n\n        require(\n            inbox[messageHash_] == false,\n            \"Message already exists in the inbox.\"\n        );\n\n        inbox[messageHash_] = true;\n\n        // Get the storage path to verify proof.\n        bytes memory path = Proof.storagePath(\n            outboxStorageIndex,\n            messageHash_\n        );\n\n        Proof.proveStorageExistence(\n            path,\n            keccak256(abi.encodePacked(true)),\n            _blockHeight,\n            _rlpParentNodes\n        );\n    }\n}\n",
  "sourcePath": "/Users/abhay/Documents/projects/abhayforks/mosaic-1/contracts/message-bus/MessageInbox.sol",
  "compiler": {
    "name": "solc",
    "version": "0.5.13+commit.5b0b510c.Emscripten.clang"
  },
  "schemaVersion": "3.0.17",
  "updatedAt": "2020-03-21T06:48:34.731Z",
  "devdoc": {
    "methods": {
      "hashChannelIdentifier(bytes32,address,address)": {
        "params": {
          "_inbox": "Inbox address.",
          "_metachainId": "Metachain identifier.",
          "_outbox": "Outbox address."
        }
      },
      "inboxMessageHash(bytes32,uint256,uint256,uint256,address)": {
        "params": {
          "_feeGasLimit": "Fee gas limit.",
          "_feeGasPrice": "Fee gas price.",
          "_intentHash": "Intent hash of message.",
          "_nonce": "Nonce of sender.",
          "_sender": "Sender address."
        },
        "return": "messageHash_ Message hash."
      }
    },
    "title": "MessageInbox - Contract to confirm the messages declared in MessageOutbox"
  },
  "userdoc": {
    "methods": {
      "hashChannelIdentifier(bytes32,address,address)": {
        "notice": "Generate channel identifier hash from the input params"
      },
      "inboxMessageHash(bytes32,uint256,uint256,uint256,address)": {
        "notice": "Generate inbox message hash from the input params"
      }
    }
  }
}