{
  "contractName": "MessageOutboxDouble",
  "abi": [
    {
      "constant": true,
      "inputs": [],
      "name": "DOMAIN_SEPARATOR_VERSION",
      "outputs": [
        {
          "internalType": "string",
          "name": "",
          "type": "string"
        }
      ],
      "payable": false,
      "stateMutability": "view",
      "type": "function"
    },
    {
      "constant": true,
      "inputs": [],
      "name": "MESSAGE_TYPEHASH",
      "outputs": [
        {
          "internalType": "bytes32",
          "name": "",
          "type": "bytes32"
        }
      ],
      "payable": false,
      "stateMutability": "view",
      "type": "function"
    },
    {
      "constant": true,
      "inputs": [],
      "name": "MMB_CHANNEL_TYPEHASH",
      "outputs": [
        {
          "internalType": "bytes32",
          "name": "",
          "type": "bytes32"
        }
      ],
      "payable": false,
      "stateMutability": "view",
      "type": "function"
    },
    {
      "constant": true,
      "inputs": [],
      "name": "MMB_DOMAIN_SEPARATOR_NAME",
      "outputs": [
        {
          "internalType": "string",
          "name": "",
          "type": "string"
        }
      ],
      "payable": false,
      "stateMutability": "view",
      "type": "function"
    },
    {
      "constant": true,
      "inputs": [],
      "name": "MMB_DOMAIN_SEPARATOR_TYPEHASH",
      "outputs": [
        {
          "internalType": "bytes32",
          "name": "",
          "type": "bytes32"
        }
      ],
      "payable": false,
      "stateMutability": "view",
      "type": "function"
    },
    {
      "constant": true,
      "inputs": [],
      "name": "MMB_DOMAIN_SEPARATOR_VERSION",
      "outputs": [
        {
          "internalType": "string",
          "name": "",
          "type": "string"
        }
      ],
      "payable": false,
      "stateMutability": "view",
      "type": "function"
    },
    {
      "constant": true,
      "inputs": [
        {
          "internalType": "bytes32",
          "name": "_metachainId",
          "type": "bytes32"
        },
        {
          "internalType": "address",
          "name": "_outbox",
          "type": "address"
        },
        {
          "internalType": "address",
          "name": "_inbox",
          "type": "address"
        }
      ],
      "name": "hashChannelIdentifier",
      "outputs": [
        {
          "internalType": "bytes32",
          "name": "channelIdentifier_",
          "type": "bytes32"
        }
      ],
      "payable": false,
      "stateMutability": "pure",
      "type": "function"
    },
    {
      "constant": true,
      "inputs": [],
      "name": "messageInbox",
      "outputs": [
        {
          "internalType": "address",
          "name": "",
          "type": "address"
        }
      ],
      "payable": false,
      "stateMutability": "view",
      "type": "function"
    },
    {
      "constant": true,
      "inputs": [],
      "name": "outboundChannelIdentifier",
      "outputs": [
        {
          "internalType": "bytes32",
          "name": "",
          "type": "bytes32"
        }
      ],
      "payable": false,
      "stateMutability": "view",
      "type": "function"
    },
    {
      "constant": true,
      "inputs": [
        {
          "internalType": "bytes32",
          "name": "",
          "type": "bytes32"
        }
      ],
      "name": "outbox",
      "outputs": [
        {
          "internalType": "bool",
          "name": "",
          "type": "bool"
        }
      ],
      "payable": false,
      "stateMutability": "view",
      "type": "function"
    },
    {
      "constant": true,
      "inputs": [
        {
          "internalType": "bytes32",
          "name": "_intentHash",
          "type": "bytes32"
        },
        {
          "internalType": "uint256",
          "name": "_nonce",
          "type": "uint256"
        },
        {
          "internalType": "uint256",
          "name": "_feeGasPrice",
          "type": "uint256"
        },
        {
          "internalType": "uint256",
          "name": "_feeGasLimit",
          "type": "uint256"
        },
        {
          "internalType": "address",
          "name": "_sender",
          "type": "address"
        }
      ],
      "name": "outboxMessageHash",
      "outputs": [
        {
          "internalType": "bytes32",
          "name": "messageHash_",
          "type": "bytes32"
        }
      ],
      "payable": false,
      "stateMutability": "view",
      "type": "function"
    },
    {
      "constant": true,
      "inputs": [
        {
          "internalType": "address",
          "name": "",
          "type": "address"
        }
      ],
      "name": "outboxNonces",
      "outputs": [
        {
          "internalType": "uint256",
          "name": "",
          "type": "uint256"
        }
      ],
      "payable": false,
      "stateMutability": "view",
      "type": "function"
    },
    {
      "constant": false,
      "inputs": [
        {
          "internalType": "bytes32",
          "name": "_metachainId",
          "type": "bytes32"
        },
        {
          "internalType": "address",
          "name": "_messageInbox",
          "type": "address"
        }
      ],
      "name": "setupMessageOutboxExternal",
      "outputs": [],
      "payable": false,
      "stateMutability": "nonpayable",
      "type": "function"
    },
    {
      "constant": false,
      "inputs": [
        {
          "internalType": "bytes32",
          "name": "_intentHash",
          "type": "bytes32"
        },
        {
          "internalType": "uint256",
          "name": "_nonce",
          "type": "uint256"
        },
        {
          "internalType": "uint256",
          "name": "_feeGasPrice",
          "type": "uint256"
        },
        {
          "internalType": "uint256",
          "name": "_feeGasLimit",
          "type": "uint256"
        },
        {
          "internalType": "address",
          "name": "_sender",
          "type": "address"
        }
      ],
      "name": "declareMessageExternal",
      "outputs": [
        {
          "internalType": "bytes32",
          "name": "messageHash_",
          "type": "bytes32"
        }
      ],
      "payable": false,
      "stateMutability": "nonpayable",
      "type": "function"
    }
  ],
  "bytecode": "0x608060405234801561001057600080fd5b50610975806100206000396000f3fe608060405234801561001057600080fd5b50600436106100ea5760003560e01c80639f0b7dfe1161008c578063b4907ddc11610066578063b4907ddc146102c1578063d31b5968146102c9578063f02a0e90146102ef578063f732ecff146102f7576100ea565b80639f0b7dfe14610210578063ae64028514610244578063b1c91e21146102c1576100ea565b80633117a9cf116100c85780633117a9cf1461018557806346e356b1146101b3578063523ce242146101bb578063965ef01b146101ec576100ea565b80630e31eb60146100ef5780631ca948091461013f5780632fe05ad91461017d575b600080fd5b61012d600480360360a081101561010557600080fd5b50803590602081013590604081013590606081013590608001356001600160a01b03166102ff565b60408051918252519081900360200190f35b61012d600480360360a081101561015557600080fd5b50803590602081013590604081013590606081013590608001356001600160a01b031661031b565b61012d61032a565b6101b16004803603604081101561019b57600080fd5b50803590602001356001600160a01b0316610345565b005b61012d610353565b6101d8600480360360208110156101d157600080fd5b503561036e565b604080519115158252519081900360200190f35b6101f4610383565b604080516001600160a01b039092168252519081900360200190f35b61012d6004803603606081101561022657600080fd5b508035906001600160a01b0360208201358116916040013516610392565b61024c610551565b6040805160208082528351818301528351919283929083019185019080838360005b8381101561028657818101518382015260200161026e565b50505050905090810190601f1680156102b35780820380516001836020036101000a031916815260200191505b509250505060405180910390f35b61024c610577565b61012d600480360360208110156102df57600080fd5b50356001600160a01b0316610594565b61012d6105a6565b61012d6105ac565b600061031186868686866001546105c7565b9695505050505050565b6000610311868686868661067a565b60405180603661088682396036019050604051809103902081565b61034f82826106ff565b5050565b6040518060606108bc82396060019050604051809103902081565b60006020819052908152604090205460ff1681565b6002546001600160a01b031681565b600080604051808061088660369139604080519182900360360182206020808401919091526001600160a01b038089168484015287166060808501919091528251808503909101815260809093019182905282519201919091209250905080605961082d8239605901905060405180910390206040518060400160405280600a8152602001694d6f736169632d42757360b01b815250604051806040016040528060018152602001600360fc1b8152508784604051602001808681526020018060200180602001858152602001848152602001838103835287818151815260200191508051906020019080838360005b8381101561049a578181015183820152602001610482565b50505050905090810190601f1680156104c75780820380516001836020036101000a031916815260200191505b50838103825286518152865160209182019188019080838360005b838110156104fa5781810151838201526020016104e2565b50505050905090810190601f1680156105275780820380516001836020036101000a031916815260200191505b50975050505050505050604051602081830303815290604052805190602001209150509392505050565b6040518060400160405280600a8152602001694d6f736169632d42757360b01b81525081565b604051806040016040528060018152602001600360fc1b81525081565b60036020526000908152604090205481565b60015481565b60405180605961082d82396059019050604051809103902081565b60008060405180806108bc606091396040805191829003606090810183206020808501919091528383019c909c52820199909952608081019790975250505060a08401929092526001600160a01b031660c0808401919091528351808403909101815260e083018452805190850120601960f81b610100840152604d60f81b6101018401526101028301919091526101228083019190915282518083039091018152610142909101909152805191012090565b600061068c86868686866001546105c7565b60008181526020819052604090205490915060ff16156106dd5760405162461bcd60e51b815260040180806020018281038252602581526020018061091c6025913960400191505060405180910390fd5b6000818152602081905260409020805460ff1916600117905595945050505050565b60015415610754576040805162461bcd60e51b815260206004820181905260248201527f4d657373616765206f7574626f7820697320616c72656164792073657475702e604482015290519081900360640190fd5b8161079b576040805162461bcd60e51b815260206004820152601260248201527126b2ba30b1b430b4b71034b21034b990181760711b604482015290519081900360640190fd5b6001600160a01b0381166107f6576040805162461bcd60e51b815260206004820152601b60248201527f4d65737361676520696e626f78206164647265737320697320302e0000000000604482015290519081900360640190fd5b600280546001600160a01b0319166001600160a01b038381169190911791829055610825918491309116610392565b600155505056fe4d6f736169634d65737361676542757328737472696e67206e616d652c737472696e672076657273696f6e2c62797465733332206d657461636861696e49642c62797465733332206368616e6e656c536570617261746f72294d6f736169634d6573736167654275734368616e6e656c2861646472657373206f7574626f782c206164647265737320696e626f78294d657373616765286279746573333220696e74656e74486173682c75696e74323536206e6f6e63652c75696e743235362066656547617350726963652c75696e74323536206665654761734c696d69742c616464726573732073656e646572294d65737361676520616c72656164792065786973747320696e20746865206f7574626f782ea265627a7a72315820908c7e88be68cfad2f90bb9481ab5c93b75f700e6c7aab7c9fd41791750bb73064736f6c634300050d0032",
  "source": "pragma solidity >=0.5.0 <0.6.0;\n\n// Copyright 2020 OpenST Ltd.\n//\n// Licensed under the Apache License, Version 2.0 (the \"License\");\n// you may not use this file except in compliance with the License.\n// You may obtain a copy of the License at\n//\n//    http://www.apache.org/licenses/LICENSE-2.0\n//\n// Unless required by applicable law or agreed to in writing, software\n// distributed under the License is distributed on an \"AS IS\" BASIS,\n// WITHOUT WARRANTIES OR CONDITIONS OF ANY KIND, either express or implied.\n// See the License for the specific language governing permissions and\n// limitations under the License.\n\nimport \"../../message-bus/MessageOutbox.sol\";\n\n/**\n * @title MessageOutboxDouble contract.\n *\n * @notice It is used for testing MessageOutbox contract.\n */\ncontract MessageOutboxDouble is MessageOutbox {\n\n    /* External Functions */\n\n    /**\n     * @notice It is used to test MessageOutbox::setupMessageOutbox().\n     */\n    function setupMessageOutboxExternal(\n        bytes32 _metachainId,\n        address _messageInbox\n    )\n        external\n    {\n        MessageOutbox.setupMessageOutbox(_metachainId, _messageInbox);\n    }\n\n    /**\n     * @notice It is used to test MessageOutbox::declareMessage().\n     */\n    function declareMessageExternal(\n        bytes32 _intentHash,\n        uint256 _nonce,\n        uint256 _feeGasPrice,\n        uint256 _feeGasLimit,\n        address _sender\n    )\n        external\n        returns (bytes32 messageHash_)\n    {\n        messageHash_ = MessageOutbox.declareMessage(\n            _intentHash,\n            _nonce,\n            _feeGasPrice,\n            _feeGasLimit,\n            _sender\n        );\n    }\n}\n",
  "sourcePath": "/Users/abhay/Documents/projects/abhayforks/mosaic-1/contracts/test/message-bus/MessageOutboxDouble.sol",
  "compiler": {
    "name": "solc",
    "version": "0.5.13+commit.5b0b510c.Emscripten.clang"
  },
  "schemaVersion": "3.0.17",
  "updatedAt": "2020-03-21T06:48:34.809Z",
  "devdoc": {
    "methods": {
      "hashChannelIdentifier(bytes32,address,address)": {
        "params": {
          "_inbox": "Inbox address.",
          "_metachainId": "Metachain identifier.",
          "_outbox": "Outbox address."
        }
      },
      "outboxMessageHash(bytes32,uint256,uint256,uint256,address)": {
        "params": {
          "_feeGasLimit": "Fee gas limit.",
          "_feeGasPrice": "Fee gas price.",
          "_intentHash": "Intent hash of message.",
          "_nonce": "Nonce of sender.",
          "_sender": "Sender address."
        },
        "return": "messageHash_ Message hash."
      }
    },
    "title": "MessageOutboxDouble contract."
  },
  "userdoc": {
    "methods": {
      "declareMessageExternal(bytes32,uint256,uint256,uint256,address)": {
        "notice": "It is used to test MessageOutbox::declareMessage()."
      },
      "hashChannelIdentifier(bytes32,address,address)": {
        "notice": "Generate channel identifier hash from the input params"
      },
      "outboxMessageHash(bytes32,uint256,uint256,uint256,address)": {
        "notice": "Generate outbox message hash from the input params"
      },
      "setupMessageOutboxExternal(bytes32,address)": {
        "notice": "It is used to test MessageOutbox::setupMessageOutbox()."
      }
    },
    "notice": "It is used for testing MessageOutbox contract."
  }
}