{
  "contractName": "MockMasterCopy",
  "abi": [
    {
      "constant": true,
      "inputs": [],
      "name": "SETUP_CALLPREFIX",
      "outputs": [
        {
          "internalType": "bytes4",
          "name": "",
          "type": "bytes4"
        }
      ],
      "payable": false,
      "stateMutability": "view",
      "type": "function"
    },
    {
      "constant": true,
      "inputs": [],
      "name": "isSetupCalled",
      "outputs": [
        {
          "internalType": "bool",
          "name": "",
          "type": "bool"
        }
      ],
      "payable": false,
      "stateMutability": "view",
      "type": "function"
    },
    {
      "constant": true,
      "inputs": [],
      "name": "mockCount",
      "outputs": [
        {
          "internalType": "uint256",
          "name": "",
          "type": "uint256"
        }
      ],
      "payable": false,
      "stateMutability": "view",
      "type": "function"
    },
    {
      "constant": false,
      "inputs": [
        {
          "internalType": "uint256",
          "name": "_mockCount",
          "type": "uint256"
        }
      ],
      "name": "setup",
      "outputs": [],
      "payable": false,
      "stateMutability": "nonpayable",
      "type": "function"
    },
    {
      "constant": false,
      "inputs": [
        {
          "internalType": "uint256",
          "name": "_mockCount",
          "type": "uint256"
        }
      ],
      "name": "updateMockCount",
      "outputs": [],
      "payable": false,
      "stateMutability": "nonpayable",
      "type": "function"
    },
    {
      "constant": true,
      "inputs": [
        {
          "internalType": "uint256",
          "name": "_mockCount",
          "type": "uint256"
        }
      ],
      "name": "getSetupData",
      "outputs": [
        {
          "internalType": "bytes",
          "name": "setupData_",
          "type": "bytes"
        }
      ],
      "payable": false,
      "stateMutability": "pure",
      "type": "function"
    },
    {
      "constant": true,
      "inputs": [],
      "name": "getReservedStorageSlotForProxy",
      "outputs": [
        {
          "internalType": "address",
          "name": "",
          "type": "address"
        }
      ],
      "payable": false,
      "stateMutability": "view",
      "type": "function"
    }
  ],
  "bytecode": "0x608060405234801561001057600080fd5b5061032d806100206000396000f3fe608060405234801561001057600080fd5b506004361061007d5760003560e01c8063954792531161005b578063954792531461014d578063afa5247214610169578063bcc392b414610186578063f324b53f146101aa5761007d565b80632829ee23146100825780634313b9e5146101145780638afe4cfe14610133575b600080fd5b61009f6004803603602081101561009857600080fd5b50356101cf565b6040805160208082528351818301528351919283929083019185019080838360005b838110156100d95781810151838201526020016100c1565b50505050905090810190601f1680156101065780820380516001836020036101000a031916815260200191505b509250505060405180910390f35b6101316004803603602081101561012a57600080fd5b5035610231565b005b61013b6102a8565b60408051918252519081900360200190f35b6101556102ae565b604080519115158252519081900360200190f35b6101316004803603602081101561017f57600080fd5b50356102be565b61018e6102c3565b604080516001600160a01b039092168252519081900360200190f35b6101b26102d2565b604080516001600160e01b03199092168252519081900360200190f35b604080516d73657475702875696e743235362960901b8152815190819003600e0181206024808301949094528251808303909401845260449091019091526020820180516001600160e01b03166001600160e01b031990921691909117905290565b600054600160a01b900460ff1615610290576040805162461bcd60e51b815260206004820152601e60248201527f53657475702063616e2062652063616c6c6564206f6e6c79206f6e63652c0000604482015290519081900360640190fd5b6000805460ff60a01b1916600160a01b179055600155565b60015481565b600054600160a01b900460ff1681565b600155565b6000546001600160a01b031690565b604080516d73657475702875696e743235362960901b8152905190819003600e0190208156fea265627a7a72315820ebe67f7c9049364a4d504c772e139053c4975293d9e6b364161c7c1121689ac164736f6c634300050d0032",
  "source": "pragma solidity >=0.5.0 <0.6.0;\n\nimport \"../../proxies/MasterCopyNonUpgradable.sol\";\n\ncontract MockMasterCopy is MasterCopyNonUpgradable {\n\n    /** The callprefix of the Reputation::setup function. */\n    bytes4 public constant SETUP_CALLPREFIX = bytes4(\n        keccak256(\n            \"setup(uint256)\"\n        )\n    );\n\n    bool public isSetupCalled;\n    uint256 public mockCount;\n\n    function setup(uint256 _mockCount) external {\n        require(\n            isSetupCalled == false,\n            \"Setup can be called only once,\"\n        );\n        isSetupCalled = true;\n        mockCount = _mockCount;\n    }\n\n    function updateMockCount(uint256 _mockCount) external {\n        mockCount = _mockCount;\n    }\n\n    function getSetupData(\n        uint256 _mockCount\n    )\n        external\n        pure\n        returns(bytes memory setupData_)\n    {\n        setupData_ = abi.encodeWithSelector(\n            SETUP_CALLPREFIX,\n            _mockCount\n        );\n    }\n\n    function getReservedStorageSlotForProxy() external view returns (address) {\n        return reservedStorageSlotForProxy;\n    }\n}\n",
  "sourcePath": "/Users/abhay/Documents/projects/abhayforks/mosaic-1/contracts/test/proxies/MockMasterCopy.sol",
  "compiler": {
    "name": "solc",
    "version": "0.5.13+commit.5b0b510c.Emscripten.clang"
  },
  "schemaVersion": "3.0.17",
  "updatedAt": "2020-03-21T06:48:34.823Z",
  "devdoc": {
    "methods": {}
  },
  "userdoc": {
    "methods": {}
  }
}