{
  "contractName": "MockCore",
  "abi": [
    {
      "anonymous": false,
      "inputs": [
        {
          "indexed": false,
          "internalType": "enum CoreStatusEnum.CoreStatus",
          "name": "status",
          "type": "uint8"
        }
      ],
      "name": "CoreStatusUpdated",
      "type": "event"
    },
    {
      "anonymous": false,
      "inputs": [
        {
          "indexed": false,
          "internalType": "uint256",
          "name": "genesisOriginObservationBlockNumber",
          "type": "uint256"
        }
      ],
      "name": "GenesisOriginObservationStored",
      "type": "event"
    },
    {
      "anonymous": false,
      "inputs": [
        {
          "indexed": false,
          "internalType": "bytes32",
          "name": "proposal",
          "type": "bytes32"
        }
      ],
      "name": "MetablockProposed",
      "type": "event"
    },
    {
      "constant": true,
      "inputs": [],
      "name": "CORE_LAST_VOTES_WINDOW",
      "outputs": [
        {
          "internalType": "uint256",
          "name": "",
          "type": "uint256"
        }
      ],
      "payable": false,
      "stateMutability": "view",
      "type": "function"
    },
    {
      "constant": true,
      "inputs": [],
      "name": "CORE_OPEN_VOTES_WINDOW",
      "outputs": [
        {
          "internalType": "uint256",
          "name": "",
          "type": "uint256"
        }
      ],
      "payable": false,
      "stateMutability": "view",
      "type": "function"
    },
    {
      "constant": true,
      "inputs": [],
      "name": "CORE_SUPER_MAJORITY_DENOMINATOR",
      "outputs": [
        {
          "internalType": "uint256",
          "name": "",
          "type": "uint256"
        }
      ],
      "payable": false,
      "stateMutability": "view",
      "type": "function"
    },
    {
      "constant": true,
      "inputs": [],
      "name": "CORE_SUPER_MAJORITY_NUMERATOR",
      "outputs": [
        {
          "internalType": "uint256",
          "name": "",
          "type": "uint256"
        }
      ],
      "payable": false,
      "stateMutability": "view",
      "type": "function"
    },
    {
      "constant": true,
      "inputs": [],
      "name": "DOMAIN_SEPARATOR_NAME",
      "outputs": [
        {
          "internalType": "string",
          "name": "",
          "type": "string"
        }
      ],
      "payable": false,
      "stateMutability": "view",
      "type": "function"
    },
    {
      "constant": true,
      "inputs": [],
      "name": "DOMAIN_SEPARATOR_TYPEHASH",
      "outputs": [
        {
          "internalType": "bytes32",
          "name": "",
          "type": "bytes32"
        }
      ],
      "payable": false,
      "stateMutability": "view",
      "type": "function"
    },
    {
      "constant": true,
      "inputs": [],
      "name": "DOMAIN_SEPARATOR_VERSION",
      "outputs": [
        {
          "internalType": "string",
          "name": "",
          "type": "string"
        }
      ],
      "payable": false,
      "stateMutability": "view",
      "type": "function"
    },
    {
      "constant": true,
      "inputs": [],
      "name": "KERNEL_TYPEHASH",
      "outputs": [
        {
          "internalType": "bytes32",
          "name": "",
          "type": "bytes32"
        }
      ],
      "payable": false,
      "stateMutability": "view",
      "type": "function"
    },
    {
      "constant": true,
      "inputs": [],
      "name": "MAX_DELTA_VALIDATORS",
      "outputs": [
        {
          "internalType": "uint256",
          "name": "",
          "type": "uint256"
        }
      ],
      "payable": false,
      "stateMutability": "view",
      "type": "function"
    },
    {
      "constant": true,
      "inputs": [],
      "name": "MAX_FUTURE_END_HEIGHT",
      "outputs": [
        {
          "internalType": "uint256",
          "name": "",
          "type": "uint256"
        }
      ],
      "payable": false,
      "stateMutability": "view",
      "type": "function"
    },
    {
      "constant": true,
      "inputs": [],
      "name": "SENTINEL_PROPOSALS",
      "outputs": [
        {
          "internalType": "bytes32",
          "name": "",
          "type": "bytes32"
        }
      ],
      "payable": false,
      "stateMutability": "view",
      "type": "function"
    },
    {
      "constant": true,
      "inputs": [],
      "name": "SENTINEL_VALIDATORS",
      "outputs": [
        {
          "internalType": "address",
          "name": "",
          "type": "address"
        }
      ],
      "payable": false,
      "stateMutability": "view",
      "type": "function"
    },
    {
      "constant": true,
      "inputs": [],
      "name": "TRANSITION_TYPEHASH",
      "outputs": [
        {
          "internalType": "bytes32",
          "name": "",
          "type": "bytes32"
        }
      ],
      "payable": false,
      "stateMutability": "view",
      "type": "function"
    },
    {
      "constant": true,
      "inputs": [],
      "name": "VOTE_MESSAGE_TYPEHASH",
      "outputs": [
        {
          "internalType": "bytes32",
          "name": "",
          "type": "bytes32"
        }
      ],
      "payable": false,
      "stateMutability": "view",
      "type": "function"
    },
    {
      "constant": true,
      "inputs": [
        {
          "internalType": "uint256",
          "name": "_count",
          "type": "uint256"
        }
      ],
      "name": "calculateQuorum",
      "outputs": [
        {
          "internalType": "uint256",
          "name": "quorum_",
          "type": "uint256"
        }
      ],
      "payable": false,
      "stateMutability": "pure",
      "type": "function"
    },
    {
      "constant": true,
      "inputs": [],
      "name": "committedAccumulatedGas",
      "outputs": [
        {
          "internalType": "uint256",
          "name": "",
          "type": "uint256"
        }
      ],
      "payable": false,
      "stateMutability": "view",
      "type": "function"
    },
    {
      "constant": true,
      "inputs": [],
      "name": "committedDynasty",
      "outputs": [
        {
          "internalType": "uint256",
          "name": "",
          "type": "uint256"
        }
      ],
      "payable": false,
      "stateMutability": "view",
      "type": "function"
    },
    {
      "constant": true,
      "inputs": [],
      "name": "committedSourceBlockNumber",
      "outputs": [
        {
          "internalType": "uint256",
          "name": "",
          "type": "uint256"
        }
      ],
      "payable": false,
      "stateMutability": "view",
      "type": "function"
    },
    {
      "constant": true,
      "inputs": [],
      "name": "consensus",
      "outputs": [
        {
          "internalType": "contract ConsensusInterface",
          "name": "",
          "type": "address"
        }
      ],
      "payable": false,
      "stateMutability": "view",
      "type": "function"
    },
    {
      "constant": true,
      "inputs": [],
      "name": "coreStatus",
      "outputs": [
        {
          "internalType": "enum CoreStatusEnum.CoreStatus",
          "name": "",
          "type": "uint8"
        }
      ],
      "payable": false,
      "stateMutability": "view",
      "type": "function"
    },
    {
      "constant": true,
      "inputs": [],
      "name": "countJoinMessages",
      "outputs": [
        {
          "internalType": "uint256",
          "name": "",
          "type": "uint256"
        }
      ],
      "payable": false,
      "stateMutability": "view",
      "type": "function"
    },
    {
      "constant": true,
      "inputs": [],
      "name": "countLogOutMessages",
      "outputs": [
        {
          "internalType": "uint256",
          "name": "",
          "type": "uint256"
        }
      ],
      "payable": false,
      "stateMutability": "view",
      "type": "function"
    },
    {
      "constant": true,
      "inputs": [],
      "name": "countValidators",
      "outputs": [
        {
          "internalType": "uint256",
          "name": "",
          "type": "uint256"
        }
      ],
      "payable": false,
      "stateMutability": "view",
      "type": "function"
    },
    {
      "constant": true,
      "inputs": [],
      "name": "creationKernelHeight",
      "outputs": [
        {
          "internalType": "uint256",
          "name": "",
          "type": "uint256"
        }
      ],
      "payable": false,
      "stateMutability": "view",
      "type": "function"
    },
    {
      "constant": true,
      "inputs": [],
      "name": "domainSeparator",
      "outputs": [
        {
          "internalType": "bytes32",
          "name": "",
          "type": "bytes32"
        }
      ],
      "payable": false,
      "stateMutability": "view",
      "type": "function"
    },
    {
      "constant": true,
      "inputs": [],
      "name": "epochLength",
      "outputs": [
        {
          "internalType": "uint256",
          "name": "",
          "type": "uint256"
        }
      ],
      "payable": false,
      "stateMutability": "view",
      "type": "function"
    },
    {
      "constant": true,
      "inputs": [
        {
          "internalType": "uint256",
          "name": "_height",
          "type": "uint256"
        }
      ],
      "name": "forwardValidatorSetCount",
      "outputs": [
        {
          "internalType": "uint256",
          "name": "",
          "type": "uint256"
        }
      ],
      "payable": false,
      "stateMutability": "view",
      "type": "function"
    },
    {
      "constant": true,
      "inputs": [],
      "name": "genesisOriginObservationBlockNumber",
      "outputs": [
        {
          "internalType": "uint256",
          "name": "",
          "type": "uint256"
        }
      ],
      "payable": false,
      "stateMutability": "view",
      "type": "function"
    },
    {
      "constant": false,
      "inputs": [],
      "name": "getOpenKernel",
      "outputs": [
        {
          "internalType": "bytes32",
          "name": "openKernelHash_",
          "type": "bytes32"
        },
        {
          "internalType": "uint256",
          "name": "openKernelHeight_",
          "type": "uint256"
        }
      ],
      "payable": false,
      "stateMutability": "nonpayable",
      "type": "function"
    },
    {
      "constant": true,
      "inputs": [
        {
          "internalType": "uint256",
          "name": "_height",
          "type": "uint256"
        },
        {
          "internalType": "bytes32",
          "name": "_parent",
          "type": "bytes32"
        },
        {
          "internalType": "address[]",
          "name": "_updatedValidators",
          "type": "address[]"
        },
        {
          "internalType": "uint256[]",
          "name": "_updatedReputation",
          "type": "uint256[]"
        },
        {
          "internalType": "uint256",
          "name": "_gasTarget",
          "type": "uint256"
        }
      ],
      "name": "hashKernel",
      "outputs": [
        {
          "internalType": "bytes32",
          "name": "hash_",
          "type": "bytes32"
        }
      ],
      "payable": false,
      "stateMutability": "view",
      "type": "function"
    },
    {
      "constant": true,
      "inputs": [
        {
          "internalType": "bytes32",
          "name": "_kernelHash",
          "type": "bytes32"
        },
        {
          "internalType": "bytes32",
          "name": "_originObservation",
          "type": "bytes32"
        },
        {
          "internalType": "uint256",
          "name": "_dynasty",
          "type": "uint256"
        },
        {
          "internalType": "uint256",
          "name": "_accumulatedGas",
          "type": "uint256"
        },
        {
          "internalType": "bytes32",
          "name": "_committeeLock",
          "type": "bytes32"
        },
        {
          "internalType": "bytes32",
          "name": "_source",
          "type": "bytes32"
        },
        {
          "internalType": "bytes32",
          "name": "_target",
          "type": "bytes32"
        },
        {
          "internalType": "uint256",
          "name": "_sourceBlockNumber",
          "type": "uint256"
        },
        {
          "internalType": "uint256",
          "name": "_targetBlockNumber",
          "type": "uint256"
        }
      ],
      "name": "hashMetablock",
      "outputs": [
        {
          "internalType": "bytes32",
          "name": "metablockHash_",
          "type": "bytes32"
        }
      ],
      "payable": false,
      "stateMutability": "view",
      "type": "function"
    },
    {
      "constant": true,
      "inputs": [
        {
          "internalType": "address",
          "name": "_validator",
          "type": "address"
        },
        {
          "internalType": "uint256",
          "name": "_height",
          "type": "uint256"
        }
      ],
      "name": "inForwardValidatorSet",
      "outputs": [
        {
          "internalType": "bool",
          "name": "",
          "type": "bool"
        }
      ],
      "payable": false,
      "stateMutability": "view",
      "type": "function"
    },
    {
      "constant": true,
      "inputs": [
        {
          "internalType": "address",
          "name": "_validator",
          "type": "address"
        },
        {
          "internalType": "uint256",
          "name": "_height",
          "type": "uint256"
        }
      ],
      "name": "inValidatorSet",
      "outputs": [
        {
          "internalType": "bool",
          "name": "",
          "type": "bool"
        }
      ],
      "payable": false,
      "stateMutability": "view",
      "type": "function"
    },
    {
      "constant": true,
      "inputs": [
        {
          "internalType": "address",
          "name": "_account",
          "type": "address"
        }
      ],
      "name": "isValidator",
      "outputs": [
        {
          "internalType": "bool",
          "name": "",
          "type": "bool"
        }
      ],
      "payable": false,
      "stateMutability": "view",
      "type": "function"
    },
    {
      "constant": false,
      "inputs": [
        {
          "internalType": "address",
          "name": "_validator",
          "type": "address"
        }
      ],
      "name": "join",
      "outputs": [
        {
          "internalType": "uint256",
          "name": "beginHeight_",
          "type": "uint256"
        }
      ],
      "payable": false,
      "stateMutability": "nonpayable",
      "type": "function"
    },
    {
      "constant": false,
      "inputs": [
        {
          "internalType": "address",
          "name": "_validator",
          "type": "address"
        }
      ],
      "name": "joinBeforeOpen",
      "outputs": [
        {
          "internalType": "uint256",
          "name": "validatorCount_",
          "type": "uint256"
        },
        {
          "internalType": "uint256",
          "name": "minValidatorCount_",
          "type": "uint256"
        },
        {
          "internalType": "uint256",
          "name": "beginHeight_",
          "type": "uint256"
        }
      ],
      "payable": false,
      "stateMutability": "nonpayable",
      "type": "function"
    },
    {
      "constant": true,
      "inputs": [],
      "name": "joinLimit",
      "outputs": [
        {
          "internalType": "uint256",
          "name": "",
          "type": "uint256"
        }
      ],
      "payable": false,
      "stateMutability": "view",
      "type": "function"
    },
    {
      "constant": true,
      "inputs": [
        {
          "internalType": "uint256",
          "name": "",
          "type": "uint256"
        }
      ],
      "name": "kernels",
      "outputs": [
        {
          "internalType": "bytes32",
          "name": "parent",
          "type": "bytes32"
        },
        {
          "internalType": "uint256",
          "name": "gasTarget",
          "type": "uint256"
        }
      ],
      "payable": false,
      "stateMutability": "view",
      "type": "function"
    },
    {
      "constant": false,
      "inputs": [
        {
          "internalType": "address",
          "name": "_validator",
          "type": "address"
        }
      ],
      "name": "logout",
      "outputs": [
        {
          "internalType": "uint256",
          "name": "nextKernelHeight_",
          "type": "uint256"
        }
      ],
      "payable": false,
      "stateMutability": "nonpayable",
      "type": "function"
    },
    {
      "constant": true,
      "inputs": [],
      "name": "metachainId",
      "outputs": [
        {
          "internalType": "bytes32",
          "name": "",
          "type": "bytes32"
        }
      ],
      "payable": false,
      "stateMutability": "view",
      "type": "function"
    },
    {
      "constant": true,
      "inputs": [],
      "name": "minimumValidatorCount",
      "outputs": [
        {
          "internalType": "uint256",
          "name": "",
          "type": "uint256"
        }
      ],
      "payable": false,
      "stateMutability": "view",
      "type": "function"
    },
    {
      "constant": true,
      "inputs": [],
      "name": "openKernelHash",
      "outputs": [
        {
          "internalType": "bytes32",
          "name": "",
          "type": "bytes32"
        }
      ],
      "payable": false,
      "stateMutability": "view",
      "type": "function"
    },
    {
      "constant": true,
      "inputs": [],
      "name": "openKernelHeight",
      "outputs": [
        {
          "internalType": "uint256",
          "name": "",
          "type": "uint256"
        }
      ],
      "payable": false,
      "stateMutability": "view",
      "type": "function"
    },
    {
      "constant": false,
      "inputs": [
        {
          "internalType": "uint256",
          "name": "_committedDynasty",
          "type": "uint256"
        },
        {
          "internalType": "uint256",
          "name": "_committedAccumulatedGas",
          "type": "uint256"
        },
        {
          "internalType": "uint256",
          "name": "_committedSourceBlockNumber",
          "type": "uint256"
        },
        {
          "internalType": "uint256",
          "name": "_deltaGasTarget",
          "type": "uint256"
        }
      ],
      "name": "openMetablock",
      "outputs": [],
      "payable": false,
      "stateMutability": "nonpayable",
      "type": "function"
    },
    {
      "constant": true,
      "inputs": [],
      "name": "precommit",
      "outputs": [
        {
          "internalType": "bytes32",
          "name": "",
          "type": "bytes32"
        }
      ],
      "payable": false,
      "stateMutability": "view",
      "type": "function"
    },
    {
      "constant": true,
      "inputs": [],
      "name": "precommitClosureBlockNumber",
      "outputs": [
        {
          "internalType": "uint256",
          "name": "",
          "type": "uint256"
        }
      ],
      "payable": false,
      "stateMutability": "view",
      "type": "function"
    },
    {
      "constant": false,
      "inputs": [
        {
          "internalType": "bytes32",
          "name": "_kernelHash",
          "type": "bytes32"
        },
        {
          "internalType": "bytes32",
          "name": "_originObservation",
          "type": "bytes32"
        },
        {
          "internalType": "uint256",
          "name": "_dynasty",
          "type": "uint256"
        },
        {
          "internalType": "uint256",
          "name": "_accumulatedGas",
          "type": "uint256"
        },
        {
          "internalType": "bytes32",
          "name": "_committeeLock",
          "type": "bytes32"
        },
        {
          "internalType": "bytes32",
          "name": "_source",
          "type": "bytes32"
        },
        {
          "internalType": "bytes32",
          "name": "_target",
          "type": "bytes32"
        },
        {
          "internalType": "uint256",
          "name": "_sourceBlockNumber",
          "type": "uint256"
        },
        {
          "internalType": "uint256",
          "name": "_targetBlockNumber",
          "type": "uint256"
        }
      ],
      "name": "proposeMetablock",
      "outputs": [
        {
          "internalType": "bytes32",
          "name": "proposal_",
          "type": "bytes32"
        }
      ],
      "payable": false,
      "stateMutability": "nonpayable",
      "type": "function"
    },
    {
      "constant": true,
      "inputs": [],
      "name": "quorum",
      "outputs": [
        {
          "internalType": "uint256",
          "name": "",
          "type": "uint256"
        }
      ],
      "payable": false,
      "stateMutability": "view",
      "type": "function"
    },
    {
      "constant": false,
      "inputs": [
        {
          "internalType": "bytes32",
          "name": "_proposal",
          "type": "bytes32"
        },
        {
          "internalType": "bytes32",
          "name": "_r",
          "type": "bytes32"
        },
        {
          "internalType": "bytes32",
          "name": "_s",
          "type": "bytes32"
        },
        {
          "internalType": "uint8",
          "name": "_v",
          "type": "uint8"
        }
      ],
      "name": "registerVote",
      "outputs": [],
      "payable": false,
      "stateMutability": "nonpayable",
      "type": "function"
    },
    {
      "constant": false,
      "inputs": [
        {
          "internalType": "address",
          "name": "_validator",
          "type": "address"
        }
      ],
      "name": "removeVote",
      "outputs": [],
      "payable": false,
      "stateMutability": "nonpayable",
      "type": "function"
    },
    {
      "constant": true,
      "inputs": [],
      "name": "reputation",
      "outputs": [
        {
          "internalType": "contract ReputationInterface",
          "name": "",
          "type": "address"
        }
      ],
      "payable": false,
      "stateMutability": "view",
      "type": "function"
    },
    {
      "constant": false,
      "inputs": [
        {
          "internalType": "contract ConsensusInterface",
          "name": "_consensus",
          "type": "address"
        },
        {
          "internalType": "bytes32",
          "name": "_metachainId",
          "type": "bytes32"
        },
        {
          "internalType": "uint256",
          "name": "_epochLength",
          "type": "uint256"
        },
        {
          "internalType": "uint256",
          "name": "_minValidators",
          "type": "uint256"
        },
        {
          "internalType": "uint256",
          "name": "_joinLimit",
          "type": "uint256"
        },
        {
          "internalType": "contract ReputationInterface",
          "name": "_reputation",
          "type": "address"
        },
        {
          "internalType": "uint256",
          "name": "_height",
          "type": "uint256"
        },
        {
          "internalType": "bytes32",
          "name": "_parent",
          "type": "bytes32"
        },
        {
          "internalType": "uint256",
          "name": "_gasTarget",
          "type": "uint256"
        },
        {
          "internalType": "uint256",
          "name": "_dynasty",
          "type": "uint256"
        },
        {
          "internalType": "uint256",
          "name": "_accumulatedGas",
          "type": "uint256"
        },
        {
          "internalType": "uint256",
          "name": "_sourceBlockNumber",
          "type": "uint256"
        }
      ],
      "name": "setup",
      "outputs": [],
      "payable": false,
      "stateMutability": "nonpayable",
      "type": "function"
    },
    {
      "constant": true,
      "inputs": [
        {
          "internalType": "address",
          "name": "",
          "type": "address"
        }
      ],
      "name": "validatorBeginHeight",
      "outputs": [
        {
          "internalType": "uint256",
          "name": "",
          "type": "uint256"
        }
      ],
      "payable": false,
      "stateMutability": "view",
      "type": "function"
    },
    {
      "constant": true,
      "inputs": [
        {
          "internalType": "address",
          "name": "",
          "type": "address"
        }
      ],
      "name": "validatorEndHeight",
      "outputs": [
        {
          "internalType": "uint256",
          "name": "",
          "type": "uint256"
        }
      ],
      "payable": false,
      "stateMutability": "view",
      "type": "function"
    },
    {
      "constant": true,
      "inputs": [
        {
          "internalType": "uint256",
          "name": "_height",
          "type": "uint256"
        }
      ],
      "name": "validatorSetCount",
      "outputs": [
        {
          "internalType": "uint256",
          "name": "",
          "type": "uint256"
        }
      ],
      "payable": false,
      "stateMutability": "view",
      "type": "function"
    },
    {
      "constant": true,
      "inputs": [
        {
          "internalType": "address",
          "name": "",
          "type": "address"
        }
      ],
      "name": "validators",
      "outputs": [
        {
          "internalType": "address",
          "name": "",
          "type": "address"
        }
      ],
      "payable": false,
      "stateMutability": "view",
      "type": "function"
    },
    {
      "constant": true,
      "inputs": [
        {
          "internalType": "bytes32",
          "name": "",
          "type": "bytes32"
        }
      ],
      "name": "voteCounts",
      "outputs": [
        {
          "internalType": "uint256",
          "name": "height",
          "type": "uint256"
        },
        {
          "internalType": "uint256",
          "name": "dynasty",
          "type": "uint256"
        },
        {
          "internalType": "uint256",
          "name": "count",
          "type": "uint256"
        }
      ],
      "payable": false,
      "stateMutability": "view",
      "type": "function"
    },
    {
      "constant": true,
      "inputs": [
        {
          "internalType": "address",
          "name": "",
          "type": "address"
        }
      ],
      "name": "votes",
      "outputs": [
        {
          "internalType": "bytes32",
          "name": "",
          "type": "bytes32"
        }
      ],
      "payable": false,
      "stateMutability": "view",
      "type": "function"
    },
    {
      "constant": false,
      "inputs": [
        {
          "internalType": "uint256",
          "name": "_joinLimit",
          "type": "uint256"
        }
      ],
      "name": "updateJoinLimit",
      "outputs": [],
      "payable": false,
      "stateMutability": "nonpayable",
      "type": "function"
    },
    {
      "constant": true,
      "inputs": [
        {
          "internalType": "uint256",
          "name": "_height",
          "type": "uint256"
        },
        {
          "internalType": "bytes32",
          "name": "_parent",
          "type": "bytes32"
        },
        {
          "internalType": "address[]",
          "name": "_updatedValidators",
          "type": "address[]"
        },
        {
          "internalType": "uint256[]",
          "name": "_updatedReputation",
          "type": "uint256[]"
        },
        {
          "internalType": "uint256",
          "name": "_gasTarget",
          "type": "uint256"
        }
      ],
      "name": "externalHashKernel",
      "outputs": [
        {
          "internalType": "bytes32",
          "name": "hash_",
          "type": "bytes32"
        }
      ],
      "payable": false,
      "stateMutability": "view",
      "type": "function"
    },
    {
      "constant": true,
      "inputs": [
        {
          "internalType": "uint256",
          "name": "_height",
          "type": "uint256"
        }
      ],
      "name": "updatedValidators",
      "outputs": [
        {
          "internalType": "address[]",
          "name": "",
          "type": "address[]"
        }
      ],
      "payable": false,
      "stateMutability": "view",
      "type": "function"
    },
    {
      "constant": true,
      "inputs": [
        {
          "internalType": "uint256",
          "name": "_height",
          "type": "uint256"
        }
      ],
      "name": "updatedReputations",
      "outputs": [
        {
          "internalType": "uint256[]",
          "name": "",
          "type": "uint256[]"
        }
      ],
      "payable": false,
      "stateMutability": "view",
      "type": "function"
    },
    {
      "constant": true,
      "inputs": [
        {
          "internalType": "uint256",
          "name": "_height",
          "type": "uint256"
        }
      ],
      "name": "updatedValidatorsCount",
      "outputs": [
        {
          "internalType": "uint256",
          "name": "",
          "type": "uint256"
        }
      ],
      "payable": false,
      "stateMutability": "view",
      "type": "function"
    },
    {
      "constant": true,
      "inputs": [
        {
          "internalType": "uint256",
          "name": "_height",
          "type": "uint256"
        },
        {
          "internalType": "uint256",
          "name": "_index",
          "type": "uint256"
        }
      ],
      "name": "updatedValidator",
      "outputs": [
        {
          "internalType": "address",
          "name": "",
          "type": "address"
        }
      ],
      "payable": false,
      "stateMutability": "view",
      "type": "function"
    },
    {
      "constant": true,
      "inputs": [
        {
          "internalType": "uint256",
          "name": "_height",
          "type": "uint256"
        }
      ],
      "name": "updatedReputationCount",
      "outputs": [
        {
          "internalType": "uint256",
          "name": "",
          "type": "uint256"
        }
      ],
      "payable": false,
      "stateMutability": "view",
      "type": "function"
    },
    {
      "constant": true,
      "inputs": [
        {
          "internalType": "uint256",
          "name": "_height",
          "type": "uint256"
        },
        {
          "internalType": "uint256",
          "name": "_index",
          "type": "uint256"
        }
      ],
      "name": "updatedReputation",
      "outputs": [
        {
          "internalType": "uint256",
          "name": "",
          "type": "uint256"
        }
      ],
      "payable": false,
      "stateMutability": "view",
      "type": "function"
    },
    {
      "constant": true,
      "inputs": [
        {
          "internalType": "uint256",
          "name": "_kernelHeight",
          "type": "uint256"
        }
      ],
      "name": "isProposalSetInitialized",
      "outputs": [
        {
          "internalType": "bool",
          "name": "",
          "type": "bool"
        }
      ],
      "payable": false,
      "stateMutability": "view",
      "type": "function"
    },
    {
      "constant": false,
      "inputs": [
        {
          "internalType": "address",
          "name": "_validator",
          "type": "address"
        },
        {
          "internalType": "uint256",
          "name": "beginHeight",
          "type": "uint256"
        },
        {
          "internalType": "uint256",
          "name": "endHeight",
          "type": "uint256"
        }
      ],
      "name": "addValidator",
      "outputs": [],
      "payable": false,
      "stateMutability": "nonpayable",
      "type": "function"
    },
    {
      "constant": false,
      "inputs": [
        {
          "internalType": "uint256",
          "name": "_openKernelHeight",
          "type": "uint256"
        }
      ],
      "name": "setOpenkernelHeight",
      "outputs": [],
      "payable": false,
      "stateMutability": "nonpayable",
      "type": "function"
    },
    {
      "constant": false,
      "inputs": [
        {
          "internalType": "bytes32",
          "name": "_openKernelHash",
          "type": "bytes32"
        }
      ],
      "name": "setOpenKernelHash",
      "outputs": [],
      "payable": false,
      "stateMutability": "nonpayable",
      "type": "function"
    },
    {
      "constant": false,
      "inputs": [
        {
          "internalType": "uint256",
          "name": "_nextHeight",
          "type": "uint256"
        }
      ],
      "name": "incrementActiveHeight",
      "outputs": [],
      "payable": false,
      "stateMutability": "nonpayable",
      "type": "function"
    }
  ],
  "bytecode": "0x608060405234801561001057600080fd5b50613e22806100206000396000f3fe608060405234801561001057600080fd5b506004361061041d5760003560e01c806387265c951161022b578063d4f6ab7911610130578063ef82bb7b116100b8578063f698da2511610087578063f698da2514610d33578063fa52c7d814610d3b578063facd743b14610d61578063fcced56114610d87578063fd6dfa4314610d8f5761041d565b8063ef82bb7b14610ccd578063f173034a14610cea578063f1f0f7dc14610d16578063f35a263514610ba15761041d565b8063dcf1c34a116100ff578063dcf1c34a14610c82578063dfa8b87e14610c9f578063e4eaf14e14610ba1578063e9c18a5d14610cc5578063ed39cded146109bb5761041d565b8063d4f6ab7914610c0b578063d7f301f014610c28578063d8bb83b914610c54578063d8bff5a514610c5c5761041d565b8063b4907ddc116101b3578063bce0261111610182578063bce0261114610ba1578063bebf5b0c14610ba9578063c52164c614610bb1578063cc51f9b914610bb9578063d1a976da14610bdf5761041d565b8063b4907ddc14610b63578063b5b9e42914610b6b578063b6735be414610b73578063b70a3e0e14610b995761041d565b806397f3c806116101fa57806397f3c80614610af65780639f81b8a114610afe578063a0cea4b014610b06578063aad45cdf14610b0e578063b2fec59314610b315761041d565b806387265c9514610a615780638bc2303714610ade5780638ef3f76114610ae657806390cbdd6914610aee5761041d565b8063385d265e1161033157806357d775f8116102b95780637ad6e5aa116102885780637ad6e5aa146109c35780637e066a75146109e05780637ec9d753146109fd57806381d0e37b14610a05578063823a897114610a405761041d565b806357d775f81461097c5780635be701521461098457806362d76edf1461098c5780637279fce8146109bb5761041d565b806343723bc01161030057806343723bc01461076a57806344fbc8b3146107d75780634adba1ce146109085780634ff92af31461092557806355401a5f1461092d5761041d565b8063385d265e146106995780633ba710111461070a5780633ccc1f53146107125780633ddeecb7146107385761041d565b80631df69c71116103b457806328ffe6c81161038357806328ffe6c8146105675780632cd1c11b1461058d5780632fea42151461065757806332fc6f6c1461065f578063382abaef1461067c5761041d565b80631df69c711461051e5780631f5d9533146105265780631fdeaa311461055757806321c0bc491461055f5761041d565b80631703a018116103f05780631703a0181461049c57806318ea883d146104a45780631d1c2318146104f35780631db61b54146105165761041d565b806304b7cf14146104225780630f8a9af514610451578063102c0ca714610470578063149fbab914610478575b600080fd5b61043f6004803603602081101561043857600080fd5b5035610db5565b60408051918252519081900360200190f35b61046e6004803603602081101561046757600080fd5b5035610dca565b005b61043f610dd6565b610480610ddc565b604080516001600160a01b039092168252519081900360200190f35b61043f610de1565b61043f60048036036101208110156104bb57600080fd5b5080359060208101359060408101359060608101359060808101359060a08101359060c08101359060e0810135906101000135610de7565b61043f6004803603604081101561050957600080fd5b508035906020013561115b565b61043f61118c565b61043f6111a7565b6105436004803603602081101561053c57600080fd5b50356111ad565b604080519115158252519081900360200190f35b61043f6111ce565b61043f6111d4565b61043f6004803603602081101561057d57600080fd5b50356001600160a01b03166111ef565b61043f600480360360a08110156105a357600080fd5b813591602081013591810190606081016040820135600160201b8111156105c957600080fd5b8201836020820111156105db57600080fd5b803590602001918460208302840111600160201b831117156105fc57600080fd5b919390929091602081019035600160201b81111561061957600080fd5b82018360208201111561062b57600080fd5b803590602001918460208302840111600160201b8311171561064c57600080fd5b91935091503561148e565b61043f61150d565b61046e6004803603602081101561067557600080fd5b5035611513565b61046e6004803603602081101561069257600080fd5b5035611518565b61046e60048036036101808110156106b057600080fd5b506001600160a01b03813581169160208101359160408201359160608101359160808201359160a08101359091169060c08101359060e081013590610100810135906101208101359061014081013590610160013561156f565b61043f61197e565b61046e6004803603602081101561072857600080fd5b50356001600160a01b0316611999565b61046e6004803603606081101561074e57600080fd5b506001600160a01b038135169060208101359060400135611aca565b6107876004803603602081101561078057600080fd5b5035611af2565b60408051602080825283518183015283519192839290830191858101910280838360005b838110156107c35781810151838201526020016107ab565b505050509050019250505060405180910390f35b61043f600480360360a08110156107ed57600080fd5b813591602081013591810190606081016040820135600160201b81111561081357600080fd5b82018360208201111561082557600080fd5b803590602001918460208302840111600160201b8311171561084657600080fd5b9190808060200260200160405190810160405280939291908181526020018383602002808284376000920191909152509295949360208101935035915050600160201b81111561089557600080fd5b8201836020820111156108a757600080fd5b803590602001918460208302840111600160201b831117156108c857600080fd5b9190808060200260200160405190810160405280939291908181526020018383602002808284376000920191909152509295505091359250611b61915050565b61043f6004803603602081101561091e57600080fd5b5035611cc6565b61043f611d1b565b61043f600480360361012081101561094457600080fd5b5080359060208101359060408101359060608101359060808101359060a08101359060c08101359060e0810135906101000135611d21565b61043f611d52565b61043f611d58565b61046e600480360360808110156109a257600080fd5b5080359060208101359060408101359060600135611d5e565b61043f611f7e565b61043f600480360360208110156109d957600080fd5b5035611f83565b610787600480360360208110156109f657600080fd5b5035611fa7565b61043f61200b565b610a2260048036036020811015610a1b57600080fd5b5035612010565b60408051938452602084019290925282820152519081900360600190f35b610a48612031565b6040805192835260208301919091528051918290030190f35b610a6961203b565b6040805160208082528351818301528351919283929083019185019080838360005b83811015610aa3578181015183820152602001610a8b565b50505050905090810190601f168015610ad05780820380516001836020036101000a031916815260200191505b509250505060405180910390f35b61043f612062565b610480612068565b61043f612077565b61043f612092565b61043f612098565b61043f61209e565b61048060048036036040811015610b2457600080fd5b50803590602001356120a4565b61046e60048036036080811015610b4757600080fd5b508035906020810135906040810135906060013560ff166120dd565b610a696124cc565b61043f6124e9565b61043f60048036036020811015610b8957600080fd5b50356001600160a01b03166124ef565b61043f612501565b61043f612507565b61043f61250d565b610480612513565b61043f60048036036020811015610bcf57600080fd5b50356001600160a01b0316612522565b61054360048036036040811015610bf557600080fd5b506001600160a01b038135169060200135612848565b610a4860048036036020811015610c2157600080fd5b50356128b2565b610c306128cb565b60405180826004811115610c4057fe5b60ff16815260200191505060405180910390f35b61043f6128d4565b61043f60048036036020811015610c7257600080fd5b50356001600160a01b03166128d9565b61043f60048036036020811015610c9857600080fd5b50356128eb565b61043f60048036036020811015610cb557600080fd5b50356001600160a01b0316612940565b61043f612952565b61043f60048036036020811015610ce357600080fd5b5035612958565b61054360048036036040811015610d0057600080fd5b506001600160a01b03813516906020013561296d565b61046e60048036036020811015610d2c57600080fd5b50356129d1565b61043f6129d6565b61048060048036036020811015610d5157600080fd5b50356001600160a01b03166129dc565b61054360048036036020811015610d7757600080fd5b50356001600160a01b03166129f7565b61043f612a05565b610a2260048036036020811015610da557600080fd5b50356001600160a01b0316612a0b565b6000908152600c602052604090206002015490565b610dd381612d80565b50565b601d5481565b600181565b60105481565b60006003600a5460ff166004811115610dfc57fe5b14610e385760405162461bcd60e51b815260040180806020018281038252602c815260200180613afd602c913960400191505060405180910390fd5b6016548a14610e785760405162461bcd60e51b815260040180806020018281038252604281526020018061399a6042913960600191505060405180910390fd5b88610eb45760405162461bcd60e51b8152600401808060200182810382526022815260200180613b7f6022913960400191505060405180910390fd5b6018548811610f0a576040805162461bcd60e51b815260206004820152601f60248201527f44796e61737479206d757374207374726963746c7920696e6372656173652e00604482015290519081900360640190fd5b6017548711610f4a5760405162461bcd60e51b81526004018080602001828103825260278152602001806136c96027913960400191505060405180910390fd5b85610f9c576040805162461bcd60e51b815260206004820152601e60248201527f436f6d6d6974746565206c6f636b2063616e6e6f74206265206e756c6c2e0000604482015290519081900360640190fd5b84610fd85760405162461bcd60e51b8152600401808060200182810382526022815260200180613ab56022913960400191505060405180910390fd5b836110145760405162461bcd60e51b8152600401808060200182810382526022815260200180613c0c6022913960400191505060405180910390fd5b60195483116110545760405162461bcd60e51b815260040180806020018281038252602b8152602001806137f1602b913960400191505060405180910390fd5b600b54838161105f57fe5b061561109c5760405162461bcd60e51b8152600401808060200182810382526029815260200180613d656029913960400191505060405180910390fd5b600b546110b090849063ffffffff612df116565b82146110ed5760405162461bcd60e51b815260040180806020018281038252603c815260200180613cf6603c913960400191505060405180910390fd5b60006110fc8b8b8b8b8b612e03565b905061110e6008548288888888612ead565b915061111a8983612f54565b6040805183815290517f32e535cacf2527edfd5416eec14808e6f5c6ba11517efef220397f4175c5e5bb9181900360200190a1509998505050505050505050565b6000828152600c6020526040812060020180548390811061117857fe5b906000526020600020015490505b92915050565b604051806056613b2982396056019050604051809103902081565b60165481565b6000908152601a602090815260408083206000198452909152902054151590565b60095481565b60405180608761376a82396087019050604051809103902081565b6001546000906001600160a01b0316331461123b5760405162461bcd60e51b8152600401808060200182810382526033815260200180613d326033913960400191505060405180910390fd5b6003600a5460ff16600481111561124e57fe5b148061126a57506004600a5460ff16600481111561126857fe5b145b6112b7576040805162461bcd60e51b81526020600482015260196024820152782a34329031b7b9329036bab9ba10313290393ab73734b7339760391b604482015290519081900360640190fd5b6001600160a01b0382166112fc5760405162461bcd60e51b81526004018080602001828103825260238152602001806139776023913960400191505060405180910390fd5b6001600160a01b038216600090815260046020526040902054156113515760405162461bcd60e51b815260040180806020018281038252603081526020018061373a6030913960400191505060405180910390fd5b600f5461137d601254611371601154600d54612df190919063ffffffff16565b9063ffffffff61309b16565b106113b95760405162461bcd60e51b81526004018080602001828103825260248152602001806139dc6024913960400191505060405180910390fd5b600a601154106113fa5760405162461bcd60e51b8152600401808060200182810382526047815260200180613c636047913960600191505060405180910390fd5b60115461140e90600163ffffffff612df116565b60115560155460009061142890600163ffffffff612df116565b905061143483826130b0565b6000818152600c6020908152604082206001808201805480830182559085528385200180546001600160a01b0319166001600160a01b03989098169790971790965560020180548087018255908352912001929092555090565b6000611501888888888080602002602001604051908101604052809392919081815260200183836020028082843760009201919091525050604080516020808c0282810182019093528b82529093508b92508a918291850190849080828437600092019190915250899250611b61915050565b98975050505050505050565b60195481565b601655565b8061156a576040805162461bcd60e51b815260206004820152601c60248201527f56616c696461746f722773206a6f696e206c696d697420697320302e00000000604482015290519081900360640190fd5b600f55565b600954156115bd576040805162461bcd60e51b815260206004820152601660248201527521b7b9329034b99030b63932b0b23c9039b2ba3ab81760511b604482015290519081900360640190fd5b8a611604576040805162461bcd60e51b815260206004820152601260248201527126b2ba30b1b430b4b71034b21034b990181760711b604482015290519081900360640190fd5b8961164b576040805162461bcd60e51b815260206004820152601260248201527122b837b1b4103632b733ba341034b990181760711b604482015290519081900360640190fd5b8861169d576040805162461bcd60e51b815260206004820152601a60248201527f4d696e2076616c696461746f727320636f756e7420697320302e000000000000604482015290519081900360640190fd5b876116ef576040805162461bcd60e51b815260206004820152601c60248201527f56616c696461746f722773206a6f696e206c696d697420697320302e00000000604482015290519081900360640190fd5b6001600160a01b0387166117345760405162461bcd60e51b8152600401808060200182810382526026815260200180613ad76026913960400191505060405180910390fd5b604051806056613b298239605601905060405180910390206040518060400160405280600b81526020016a4d6f736169632d436f726560a81b815250604051806040016040528060018152602001600360fc1b8152508d30604051602001808681526020018060200180602001858152602001846001600160a01b03166001600160a01b03168152602001838103835287818151815260200191508051906020019080838360005b838110156117f45781810151838201526020016117dc565b50505050905090810190601f1680156118215780820380516001836020036101000a031916815260200191505b50838103825286518152865160209182019188019080838360005b8381101561185457818101518382015260200161183c565b50505050905090810190601f1680156118815780820380516001836020036101000a031916815260200191505b50975050505050505050604051602081830303815290604052805190602001206008819055506118b08c61328b565b6118b98661333a565b600a805460ff19166002178155600b8b9055601380546001600160a01b038a166001600160a01b0319909116179055600e8a9055600f899055601487905560158790556000878152600c60205260409081902087815560038101879055601886905560178590556019849055915490517fdbf46c633e4def8d327b654eb824a71a651789f871526b90e48e71a7a4ef691c9160ff16908082600481111561195c57fe5b60ff16815260200191505060405180910390a150505050505050505050505050565b60405180608061388282396080019050604051809103902081565b6001546001600160a01b031633146119e25760405162461bcd60e51b8152600401808060200182810382526033815260200180613d326033913960400191505060405180910390fd5b6003600a5460ff1660048111156119f557fe5b1480611a1157506004600a5460ff166004811115611a0f57fe5b145b611a5e576040805162461bcd60e51b81526020600482015260196024820152782a34329031b7b9329036bab9ba10313290393ab73734b7339760391b604482015290519081900360640190fd5b6001600160a01b0381166000908152601c6020908152604080832054808452601b90925290912060155481541415611ac5576001600160a01b0383166000908152601c60205260408120556002810154611abf90600163ffffffff61309b16565b60028201555b505050565b6001600160a01b03909216600090815260036020908152604080832093909355600490522055565b6000818152600c6020908152604091829020600101805483518184028101840190945280845260609392830182828015611b5557602002820191906000526020600020905b81546001600160a01b03168152600190910190602001808311611b37575b50505050509050919050565b600080604051808061388260809139608001905060405180910390208787878787604051602001808781526020018681526020018581526020018060200180602001848152602001838103835286818151815260200191508051906020019060200280838360005b83811015611be1578181015183820152602001611bc9565b50505050905001838103825285818151815260200191508051906020019060200280838360005b83811015611c20578181015183820152602001611c08565b5050505090500198505050505050505050604051602081830303815290604052805190602001209050601960f81b600160f81b6008548360405160200180856001600160f81b0319166001600160f81b0319168152600101846001600160f81b0319166001600160f81b03191681526001018381526020018281526020019450505050506040516020818303038152906040528051906020012091505095945050505050565b60006007548210611d085760405162461bcd60e51b8152600401808060200182810382526040815260200180613a236040913960400191505060405180910390fd5b5060009081526006602052604090205490565b60155481565b600080611d318b8b8b8b8b612e03565b9050611d436008548288888888612ead565b9b9a5050505050505050505050565b600b5481565b601f5481565b6001546001600160a01b03163314611da75760405162461bcd60e51b8152600401808060200182810382526033815260200180613d326033913960400191505060405180910390fd5b6004600a5460ff166004811115611dba57fe5b14611e0c576040805162461bcd60e51b815260206004820152601e60248201527f54686520636f7265206d75737420626520707265636f6d6d69747465642e0000604482015290519081900360640190fd5b601d54611e1557fe5b601884905560178390556019829055601554600090611e3b90600163ffffffff612df116565b6000818152600c60205260409020601d54815560175491925090611e65908463ffffffff612df116565b60038201556015829055805460018201805460408051602080840282018101909252828152611f3294879490939192909190830182828015611ed057602002820191906000526020600020905b81546001600160a01b03168152600190910190602001808311611eb2575b505050505084600201805480602002602001604051908101604052809291908181526020018280548015611f2357602002820191906000526020600020905b815481526020019060010190808311611f0f575b50505050508560030154611b61565b601655601254601154600d54611f539291611371919063ffffffff612df116565b600d819055611f6190611f83565b60105560006011819055601255611f7661337d565b505050505050565b600381565b60006111866003611f9b84600263ffffffff6133c516565b9063ffffffff6133ec16565b6000818152600c6020908152604091829020600201805483518184028101840190945280845260609392830182828015611b5557602002820191906000526020600020905b815481526020019060010190808311611fec5750505050509050919050565b600281565b601b6020526000908152604090208054600182015460029092015490919083565b6016546015549091565b6040518060400160405280600b81526020016a4d6f736169632d436f726560a81b81525081565b60185481565b6001546001600160a01b031681565b60405180607561390282396075019050604051809103902081565b600d5481565b601e5481565b600f5481565b6000828152600c602052604081206001018054839081106120c157fe5b6000918252602090912001546001600160a01b03169392505050565b601e5443111561211e5760405162461bcd60e51b8152600401808060200182810382526026815260200180613dc86026913960400191505060405180910390fd5b83612170576040805162461bcd60e51b815260206004820152601960248201527f50726f706f73616c2063616e206e6f74206265206e756c6c2e00000000000000604482015290519081900360640190fd5b601d54156121b857601d5484146121b85760405162461bcd60e51b81526004018080602001828103825260418152602001806138416041913960600191505060405180910390fd5b6015546000908152601a602090815260408083208784529091529020546122105760405162461bcd60e51b8152600401808060200182810382526035815260200180613c2e6035913960400191505060405180910390fd5b604080516000808252602080830180855288905260ff85168385015260608301879052608083018690529251909260019260a080820193601f1981019281900390910190855afa158015612268573d6000803e3d6000fd5b50505060206040510351905061227d816129f7565b6122b85760405162461bcd60e51b8152600401808060200182810382526026815260200180613a8f6026913960400191505060405180910390fd5b60135460408051632de640db60e21b81526001600160a01b0384811660048301529151919092169163b799036c916024808301926020929190829003018186803b15801561230557600080fd5b505afa158015612319573d6000803e3d6000fd5b505050506040513d602081101561232f57600080fd5b50511561237b576040805162461bcd60e51b81526020600482015260156024820152742b30b634b230ba37b91034b99039b630b9b432b21760591b604482015290519081900360640190fd5b6001600160a01b0381166000908152601c6020526040902054858114156123e9576040805162461bcd60e51b815260206004820152601b60248201527f566f74652068617320616c7265616479206265656e20636173742e0000000000604482015290519081900360640190fd5b6000818152601b6020526040808220888352912060028201541580159061241257506015548254145b1561247957806001015482600101541061245d5760405162461bcd60e51b8152600401808060200182810382526033815260200180613ba16033913960400191505060405180910390fd5b600282015461247390600163ffffffff61309b16565b60028301555b6001600160a01b0384166000908152601c6020526040902088905560028101546124aa90600163ffffffff612df116565b60028201819055601054116124c2576124c28861340e565b5050505050505050565b604051806040016040528060018152602001600360fc1b81525081565b60115481565b60036020526000908152604090205481565b60125481565b60001981565b60145481565b6013546001600160a01b031681565b6001546000906001600160a01b0316331461256e5760405162461bcd60e51b8152600401808060200182810382526033815260200180613d326033913960400191505060405180910390fd5b6003600a5460ff16600481111561258157fe5b148061259d57506004600a5460ff16600481111561259b57fe5b145b6125ea576040805162461bcd60e51b81526020600482015260196024820152782a34329031b7b9329036bab9ba10313290393ab73734b7339760391b604482015290519081900360640190fd5b6001600160a01b03821661262f5760405162461bcd60e51b81526004018080602001828103825260238152602001806139776023913960400191505060405180910390fd5b6015546001600160a01b038316600090815260036020526040902054111561269e576040805162461bcd60e51b815260206004820152601a60248201527f56616c696461746f72206d757374206861766520626567756e2e000000000000604482015290519081900360640190fd5b6001600160a01b0382166000908152600460205260409020546000191461270c576040805162461bcd60e51b815260206004820152601960248201527f56616c696461746f72206d757374206265206163746976652e00000000000000604482015290519081900360640190fd5b600e5461272c601254611371601154600d54612df190919063ffffffff16565b1161277e576040805162461bcd60e51b815260206004820181905260248201527f56616c696461746f72206d696e696d756d206c696d697420726561636865642e604482015290519081900360640190fd5b600a601254106127bf5760405162461bcd60e51b815260040180806020018281038252604a8152602001806136f0604a913960600191505060405180910390fd5b6015546127d390600163ffffffff612df116565b90506127df828261355d565b6000818152600c6020908152604082206001808201805480830182559085528385200180546001600160a01b0319166001600160a01b03881617905560028201805480830182559085529284209092019290925560125461283f91612df1565b60125550919050565b6001600160a01b038216600090815260036020526040812054821080159061288857506001600160a01b0383166000908152600460205260409020548211155b80156128ab57506001600160a01b03831660009081526004602052604090205415155b9392505050565b600c602052600090815260409020805460039091015482565b600a5460ff1681565b600a81565b601c6020526000908152604090205481565b6000600754821061292d5760405162461bcd60e51b8152600401808060200182810382526038815260200180613bd46038913960400191505060405180910390fd5b5060009081526005602052604090205490565b60046020526000908152604090205481565b60175481565b6000908152600c602052604090206001015490565b6001600160a01b038216600090815260036020526040812054821080159061288857506001600160a01b038316600090815260046020526040902054821080156128ab575050506001600160a01b0316600090815260046020526040902054151590565b601555565b60085481565b6002602052600090815260409020546001600160a01b031681565b600061118682601554612848565b600e5481565b600154600090819081906001600160a01b03163314612a5b5760405162461bcd60e51b8152600401808060200182810382526033815260200180613d326033913960400191505060405180910390fd5b6002600a5460ff166004811115612a6e57fe5b14612ac0576040805162461bcd60e51b815260206004820152601960248201527f54686520636f7265206d75737420626520637265617465642e00000000000000604482015290519081900360640190fd5b6001600160a01b038416612b055760405162461bcd60e51b81526004018080602001828103825260238152602001806139776023913960400191505060405180910390fd5b6001600160a01b03841660009081526004602052604090205415612b5a5760405162461bcd60e51b815260040180806020018281038252603081526020018061373a6030913960400191505060405180910390fd5b612b66846014546130b0565b6014546000908152600c602090815260408220600180820180548083018083559186528486200180546001600160a01b0319166001600160a01b038b16179055600d90815560028301805480840182559086529390942090920191909155600e549154909111612d6957600e54600d5414612bdd57fe5b612be8600d54611f83565b601055600019601e55601454815460018301805460408051602080840282018101909252828152612cb095949390929091830182828015611ed0576020028201919060005260206000209081546001600160a01b03168152600190910190602001808311611eb257505050505084600201805480602002602001604051908101604052809291908181526020018280548015611f235760200282019190600052602060002090815481526020019060010190808311611f0f5750505050508560030154611b61565b60165543601f55601454612cd490612ccf90600163ffffffff612df116565b612d80565b601f5460408051918252517f6d2d47704d5f5f118b0780c42ab4b2150125b21de5265094986654269b68822a9181900360200190a1600a805460ff1916600317908190556040517fdbf46c633e4def8d327b654eb824a71a651789f871526b90e48e71a7a4ef691c9160ff169080826004811115612d4e57fe5b60ff16815260200191505060405180910390a1612d6961337d565b600d549350600e5492506014549150509193909250565b600754612d9490600163ffffffff612df116565b8114612d9c57fe5b600081815260056020819052604082205491612dbf84600163ffffffff612df116565b815260208082019290925260409081016000908120939093558383526005825280832054600690925290912055600755565b6000828201838110156128ab57600080fd5b600080604051808061390260759139604080519182900360750182206020808401919091528282019a909a526060820198909852608081019690965250505060a083019190915260c0808301919091528251808303909101815260e082018352805190840120600854601960f81b610100840152600160f81b6101018401526101028301526101228083019190915282518083039091018152610142909101909152805191012090565b600080604051808061376a60879139604080519182900360870182206020808401919091528282019a909a526060820198909852608081019690965250505060a083019190915260c0808301919091528251808303909101815260e082018352805190840120601960f81b610100830152600160f81b6101018301526101028201949094526101228082019490945281518082039094018452610142019052815191012090565b80612fa6576040805162461bcd60e51b815260206004820152601a60248201527f50726f706f73616c206d757374206e6f74206265206e756c6c2e000000000000604482015290519081900360640190fd5b600019811415612fe75760405162461bcd60e51b815260040180806020018281038252602c815260200180613a63602c913960400191505060405180910390fd5b6015546000908152601a60209081526040808320848452909152902054156130405760405162461bcd60e51b8152600401808060200182810382526023815260200180613a006023913960400191505060405180910390fd5b6000818152601b60209081526040808320601580548255600182019690965560020183905584548352601a80835281842060001980865290845282852054868652838620559554845282528083209483529390529190912055565b6000828211156130aa57600080fd5b50900390565b808060075414613107576040805162461bcd60e51b815260206004820181905260248201527f486569676874206d75737420657175616c20616374697665206865696768742e604482015290519081900360640190fd5b6001600160a01b03831661311757fe5b6001600160a01b03838116600090815260026020526040902054161561313957fe5b600160005260026020527fe90b7bceb6e7df5418fb78d8ee546e97c83a08bbccc01a0644d599ccd2a7c2e0546001600160a01b03168061317557fe5b6001600160a01b03808516600081815260026020908152604080832080549587166001600160a01b03199687161790557fe90b7bceb6e7df5418fb78d8ee546e97c83a08bbccc01a0644d599ccd2a7c2e08054909516841790945591815260038252828120869055600482528281206000199055600754815260059091529081205461320890600163ffffffff612df116565b60078054600090815260056020819052604082208490559154929350839261323790600163ffffffff612df116565b815260200190815260200160002081905550613272600160066000600754815260200190815260200160002054612df190919063ffffffff16565b6007546000908152600660205260409020555050505050565b6001546001600160a01b0316156132d35760405162461bcd60e51b815260040180806020018281038252602581526020018061381c6025913960400191505060405180910390fd5b6001600160a01b0381166133185760405162461bcd60e51b8152600401808060200182810382526023815260200180613cd36023913960400191505060405180910390fd5b600180546001600160a01b0319166001600160a01b0392909216919091179055565b6007556001600081905260026020527fe90b7bceb6e7df5418fb78d8ee546e97c83a08bbccc01a0644d599ccd2a7c2e080546001600160a01b0319169091179055565b6015546000908152601a602090815260408083206000198452909152902054156133a357fe5b6015546000908152601a60209081526040808320600019808552925290912055565b6000826133d457506000611186565b828202828482816133e157fe5b04146128ab57600080fd5b60008082116133fa57600080fd5b600082848161340557fe5b04949350505050565b601d54158061341e575080601d54145b6134595760405162461bcd60e51b8152600401808060200182810382526029815260200180613caa6029913960400191505060405180910390fd5b6003600a5460ff16600481111561346c57fe5b1415610dd357600a805460ff19166004179055601d81905561348f436003612df1565b601e556001546009546015546040805163c8111da160e01b81526004810193909352602483019190915260448201849052516001600160a01b039092169163c8111da19160648082019260009290919082900301818387803b1580156134f457600080fd5b505af1158015613508573d6000803e3d6000fd5b5050600a546040517fdbf46c633e4def8d327b654eb824a71a651789f871526b90e48e71a7a4ef691c935060ff90911691508082600481111561354757fe5b60ff16815260200191505060405180910390a150565b8080600754146135b4576040805162461bcd60e51b815260206004820181905260248201527f486569676874206d75737420657175616c20616374697665206865696768742e604482015290519081900360640190fd5b6001600160a01b038316600090815260046020526040902054600019146135d757fe5b6001600160a01b038316600090815260036020526040902054821161362d5760405162461bcd60e51b815260040180806020018281038252603a815260200180613d8e603a913960400191505060405180910390fd5b6001600160a01b038316600090815260046020526040812083905560075461365c90600163ffffffff612df116565b60008181526005602052604090205490915061367f90600163ffffffff61309b16565b60008281526005602090815260408083209390935560075482526006905220546136b090600163ffffffff61309b16565b6007546000908152600660205260409020555050505056fe416363756d756c6174656420676173206d757374207374726963746c7920696e6372656173652e4d6178696d756d206e756d626572206f662076616c696461746f727320746861742063616e206c6f67206f757420696e206f6e65206d657461626c6f636b20697320726561636865642e56616c696461746f72206d757374206e6f7420616c72656164792062652070617274206f66207468697320636f72652e566f74654d6573736167652862797465733332207472616e736974696f6e486173682c6279746573333220736f75726365426c6f636b486173682c6279746573333220746172676574426c6f636b486173682c75696e7432353620736f75726365426c6f636b4e756d6265722c75696e7432353620746172676574426c6f636b4e756d62657229536f7572636520626c6f636b206e756d626572206d757374207374726963746c7920696e6372656173652e436f6e73656e737573206164647265737320697320616c72656164792070726573656e742e436f72652068617320707265636f6d6d69747465642c206f6e6c7920766f74657320666f7220707265636f6d6d69746d656e74206172652072656c6576616e742e4b65726e656c2875696e74323536206865696768742c6279746573333220706172656e742c616464726573735b5d207570646174656456616c696461746f72732c75696e743235365b5d207570646174656452657075746174696f6e2c75696e74323536206761735461726765742c75696e74323536206761735072696365295472616e736974696f6e2862797465733332206b65726e656c486173682c62797465733332206f726967696e4f62736572766174696f6e2c75696e743235362064796e617374792c75696e7432353620616363756d756c617465644761732c6279746573333220636f6d6d69747465654c6f636b2956616c696461746f72206d757374206e6f74206265206e756c6c20616464726573732e41206d657461626c6f636b2063616e206f6e6c792062652070726f706f73656420666f7220746865206f70656e204b65726e656c20696e207468697320636f72652e4a6f696e206c696d6974206973207265616368656420666f72207468697320636f72652e50726f706f73616c2063616e206f6e6c7920626520696e736572746564206f6e63652e466f72776172642076616c696461746f722073657420636f756e74206973206f6e6c7920646566696e656420757020746f20616374697665206865696768742e50726f706f73616c206d757374206e6f742062652073656e74696e656c20666f722070726f706f73616c732e56616c696461746f72206d7573742062652061637469766520696e207468697320636f72652e536f7572636520626c6f636b68617368206d757374206e6f74206265206e756c6c2e52657075746174696f6e20636f6e747261637427732061646472657373206973206e756c6c2e54686520636f7265206d757374206861766520616e206f70656e206d657461626c6f636b206b65726e656c2e454950373132446f6d61696e28737472696e67206e616d652c737472696e672076657273696f6e2c62797465733332206d657461636861696e49642c6164647265737320766572696679696e67436f6e7472616374294f726967696e206f62736572766174696f6e2063616e6e6f74206265206e756c6c2e566f74652063616e206f6e6c792062652072656361737420666f72206869676865722064796e61737479206e756d626572732e56616c696461746f722073657420636f756e74206973206f6e6c7920646566696e656420757020746f20616374697665206865696768742e54617267657420626c6f636b68617368206d757374206e6f74206265206e756c6c2e50726f706f73616c206d7573742062652072656769737465726564206174206f70656e206d657461626c6f636b206865696768742e4d6178696d756d206e756d626572206f662076616c696461746f727320746861742063616e206a6f696e20696e206f6e65206d657461626c6f636b20697320726561636865642e4f6e6365206c6f636b65642c20707265636f6d6d69742063616e6e6f74206265206368616e6765642e436f6e73656e7375732061646472657373206d757374206e6f74206265206e756c6c2e54617267657420626c6f636b206e756d626572206d75737420657175616c20736f7572636520626c6f636b206e756d62657220706c7573206f6e652e4f6e6c792074686520636f6e73656e73757320636f6e74726163742063616e2063616c6c20746869732066756e6374696f6e2e536f7572636520626c6f636b206e756d626572206d757374206265206120636865636b706f696e742e456e6420686569676874206d757374206265207374726963746c792067726561746572207468616e20746865207374617274206865696768742e54686520707265636f6d6d69746d656e742077696e646f77206d757374206265206f70656e2ea265627a7a72315820248d0601023ab0a9bd8898c4fedbc1333a21684a8da486797b71bc550751082464736f6c634300050d0032",
  "source": "pragma solidity >=0.5.0 <0.6.0;\n\n// Copyright 2019 OpenST Ltd.\n//\n// Licensed under the Apache License, Version 2.0 (the \"License\");\n// you may not use this file except in compliance with the License.\n// You may obtain a copy of the License at\n//\n//    http://www.apache.org/licenses/LICENSE-2.0\n//\n// Unless required by applicable law or agreed to in writing, software\n// distributed under the License is distributed on an \"AS IS\" BASIS,\n// WITHOUT WARRANTIES OR CONDITIONS OF ANY KIND, either express or implied.\n// See the License for the specific language governing permissions and\n// limitations under the License.\n\nimport \"../../core/Core.sol\";\n\ncontract MockCore is Core {\n\n    /* External Functions */\n\n    function updateJoinLimit(uint256 _joinLimit)\n        external\n    {\n        require(\n            _joinLimit != uint256(0),\n            \"Validator's join limit is 0.\"\n        );\n\n        joinLimit = _joinLimit;\n    }\n\n    function externalHashKernel(\n        uint256 _height,\n        bytes32 _parent,\n        address[] calldata _updatedValidators,\n        uint256[] calldata _updatedReputation,\n        uint256 _gasTarget\n    )\n        external\n        view\n        returns (bytes32 hash_)\n    {\n        hash_ = super.hashKernel(\n            _height,\n            _parent,\n            _updatedValidators,\n            _updatedReputation,\n            _gasTarget\n        );\n    }\n\n    function updatedValidators(uint256 _height)\n        external\n        view\n        returns (address[] memory)\n    {\n        return kernels[_height].updatedValidators;\n    }\n\n    function updatedReputations(uint256 _height)\n        external\n        view\n        returns (uint256[] memory)\n    {\n        return kernels[_height].updatedReputation;\n    }\n\n    function updatedValidatorsCount(uint256 _height)\n        external\n        view\n        returns (uint256)\n    {\n        return kernels[_height].updatedValidators.length;\n    }\n\n    function updatedValidator(uint256 _height, uint256 _index)\n        external\n        view\n        returns (address)\n    {\n        return kernels[_height].updatedValidators[_index];\n    }\n\n    function updatedReputationCount(uint256 _height)\n        external\n        view\n        returns (uint256)\n    {\n        return kernels[_height].updatedReputation.length;\n    }\n\n    function updatedReputation(uint256 _height, uint256 _index)\n        external\n        view\n        returns (uint256)\n    {\n        return kernels[_height].updatedReputation[_index];\n    }\n\n    function isProposalSetInitialized(uint256 _kernelHeight)\n        external\n        view\n        returns (bool)\n    {\n        return proposals[_kernelHeight][SENTINEL_PROPOSALS] != bytes32(0);\n    }\n\n    function addValidator(\n        address _validator,\n        uint256 beginHeight,\n        uint256 endHeight\n    )\n        public\n    {\n        validatorBeginHeight[_validator] = beginHeight;\n        validatorEndHeight[_validator] = endHeight;\n    }\n\n    function setOpenkernelHeight(uint256 _openKernelHeight) public {\n        openKernelHeight = _openKernelHeight;\n    }\n\n    function setOpenKernelHash(bytes32 _openKernelHash) public {\n        openKernelHash = _openKernelHash;\n    }\n\n    function incrementActiveHeight(uint256 _nextHeight) external {\n        ValidatorSet.incrementActiveHeightInternal(_nextHeight);\n    }\n}\n",
  "sourcePath": "/Users/abhay/Documents/projects/abhayforks/mosaic-1/contracts/test/core/MockCore.sol",
  "compiler": {
    "name": "solc",
    "version": "0.5.13+commit.5b0b510c.Emscripten.clang"
  },
  "schemaVersion": "3.0.17",
  "updatedAt": "2020-03-21T06:48:34.801Z",
  "devdoc": {
    "methods": {
      "forwardValidatorSetCount(uint256)": {
        "details": "Function requires:         - height is less than active height",
        "params": {
          "_height": "Height for which to return the forward validator set count."
        }
      },
      "getOpenKernel()": {
        "return": "Metablock's openKernelHash and openKernelHeight."
      },
      "hashKernel(uint256,bytes32,address[],uint256[],uint256)": {
        "params": {
          "_gasTarget": "The gas target for this metablock",
          "_height": "The height of meta-block.",
          "_parent": "The hash of this block's parent.",
          "_updatedReputation": "The array of reputation that corresponds to                       the updated validators.",
          "_updatedValidators": "The array of addresses of the updated validators."
        },
        "return": "hash_ The hash of kernel."
      },
      "hashMetablock(bytes32,bytes32,uint256,uint256,bytes32,bytes32,bytes32,uint256,uint256)": {
        "params": {
          "_accumulatedGas": "Accumulated gas in a provided metablock.",
          "_committeeLock": "Committee lock (transition root hash) of a provided                      metablock.",
          "_dynasty": "Dynasty of a provided metablock.",
          "_kernelHash": "Kernel hash of a provided metablock.",
          "_originObservation": "Origin observation of a provided metablock.",
          "_source": "Source blockhash of a vote message for a               provided metablock.",
          "_sourceBlockNumber": "Source block number of a vote message for a                          provided metablock.",
          "_target": "Target blockhash of a vote message for a               provided metablock.",
          "_targetBlockNumber": "Target block number of a vote message for a                          provided metablock."
        },
        "return": "The precommit's hash."
      },
      "inForwardValidatorSet(address,uint256)": {
        "params": {
          "_height": "Metablock height.",
          "_validator": "Address of validator."
        }
      },
      "inValidatorSet(address,uint256)": {
        "params": {
          "_height": "Metablock height.",
          "_validator": "Address of validator."
        }
      },
      "join(address)": {
        "details": "Function requires:         - only consensus can call         - core is in a running state         - validators' join limit for the core has not been reached         - maximum number of validators to join in a single metablock           has not been reached         - given validator address is not 0         - validator has not joined",
        "params": {
          "_validator": "Address of a validator to join."
        },
        "return": "beginHeight_ Begin height of the validator"
      },
      "joinBeforeOpen(address)": {
        "details": "Function requires:         - only consensus can call         - core is created state and not open         - a validator's address is not null         - a validator has not already joined",
        "params": {
          "_validator": "A validator's address to join."
        },
        "return": "validatorCount_ The total count of validators.minValidatorCount_ Minimum validator count required set by consensus.beginHeight_ Begin height of validator."
      },
      "logout(address)": {
        "details": "Function requires:         - only consensus can call         - core is in a running state         - validators' minimum limit has not been reached         - maximum number of validators to logout in a single metablock           has not been reached         - given validator address is not 0         - validator has joined",
        "params": {
          "_validator": "An address of the validator to logout."
        },
        "return": "nextKernelHeight_ Next kernel height."
      },
      "openMetablock(uint256,uint256,uint256,uint256)": {
        "details": "Function requires:         - core has precommitted         - only consensus can call         - input parameters match to an open metablock",
        "params": {
          "_committedAccumulatedGas": "Accumulated gas in an open metablock.",
          "_committedDynasty": "Dynasty of an open metablock.",
          "_committedSourceBlockNumber": "Source block number of a vote message                                   for an open metablock.",
          "_deltaGasTarget": "Gas target delta for a new metablock."
        }
      },
      "proposeMetablock(bytes32,bytes32,uint256,uint256,bytes32,bytes32,bytes32,uint256,uint256)": {
        "details": "Function requires:         - core is opened         - the given kernel hash matches to the opened kernel hash in core         - origin observation is not 0         - dynasty is strictly greater than committed dynasty         - accumulated gas is strictly greater than committed           accumulated gas         - committee lock (transition root hash) is not 0         - source blockhash is not 0         - target blockhash is not 0         - source block number is strictly greater than committed           block number         - source block number is a checkpoint         - target block number is +1 epoch of the source block number         - a proposal matching with the input parameters does           not exist in the core",
        "params": {
          "_accumulatedGas": "Accumulated gas in a proposed metablock.",
          "_committeeLock": "Committee lock (transition root hash) of a proposed                      metablock.",
          "_dynasty": "Dynasty of a proposed metablock.",
          "_kernelHash": "Kernel hash of a proposed metablock.",
          "_originObservation": "Origin observation of a proposed metablock.",
          "_source": "Source blockhash of a vote message for a proposed metablock.",
          "_sourceBlockNumber": "Source block number of a vote message for a                          proposed metablock.",
          "_target": "Target blockhash of a vote message for a proposed metablock.",
          "_targetBlockNumber": "Target block number of a vote message for a                          proposed metablock."
        },
        "return": "proposal_ Returns a proposal based on input parameters."
      },
      "registerVote(bytes32,bytes32,bytes32,uint8)": {
        "details": "Function requires:         - core is in precommitment window         - proposal is not 0         - if core has precommitted, the given proposal matches with it         - proposal exists at open kernel height         - validator active in this core         - validator should not be slashed in reputation contract         - validator has not already cast the same vote         - vote gets updated only if the new vote is at higher dynasty"
      },
      "removeVote(address)": {
        "details": "Function requires:         - only consensus can call         - core is in running state",
        "params": {
          "_validator": "Address of a validator to remove a vote."
        }
      },
      "validatorSetCount(uint256)": {
        "details": "Function requires:         - height is less than active height",
        "params": {
          "_height": "Height for which to return the validator set count."
        }
      }
    }
  },
  "userdoc": {
    "methods": {
      "forwardValidatorSetCount(uint256)": {
        "notice": "returns the forward validator set count for heights up to active height, but not included."
      },
      "getOpenKernel()": {
        "notice": "It returns open kernel hash and height."
      },
      "hashKernel(uint256,bytes32,address[],uint256[],uint256)": {
        "notice": "Takes the parameters of a kernel object and returns the        typed hash of it."
      },
      "hashMetablock(bytes32,bytes32,uint256,uint256,bytes32,bytes32,bytes32,uint256,uint256)": {
        "notice": "Hashes given parameters of a metablock."
      },
      "inForwardValidatorSet(address,uint256)": {
        "notice": "Checks if validator is in forward validator set or not."
      },
      "inValidatorSet(address,uint256)": {
        "notice": "Checks if validator is in validator set or not."
      },
      "isValidator(address)": {
        "notice": "Validator is active if it is validator set at open kernel height."
      },
      "join(address)": {
        "notice": "Joins a validator."
      },
      "joinBeforeOpen(address)": {
        "notice": "Joins a validator before core is opened.        Once the minimum number of validators has joined, core is opened,        with the metablock parameters specified in the constructor."
      },
      "logout(address)": {
        "notice": "Logs out the validator."
      },
      "openMetablock(uint256,uint256,uint256,uint256)": {
        "notice": "Opens a new metablock if a proposal is precommitted."
      },
      "proposeMetablock(bytes32,bytes32,uint256,uint256,bytes32,bytes32,bytes32,uint256,uint256)": {
        "notice": "Propose transition object and vote message from seal        for the open kernel."
      },
      "registerVote(bytes32,bytes32,bytes32,uint8)": {
        "notice": "Registers a validator's vote for the given proposal.        If the validator has already registered a vote for currently        opened kernel height, it gets updated (only if dynasty number        of the new vote is higher then the previous one)."
      },
      "removeVote(address)": {
        "notice": "Remove vote can be called by consensus when a validator        is slashed, to retro-actively remove the vote from the        current open metablock."
      },
      "validatorSetCount(uint256)": {
        "notice": "returns the validator set count for heights up to active height, but not included."
      }
    }
  }
}