{
  "contractName": "OriginProtocore",
  "abi": [
    {
      "anonymous": false,
      "inputs": [
        {
          "indexed": false,
          "internalType": "uint256",
          "name": "kernelHeight",
          "type": "uint256"
        },
        {
          "indexed": false,
          "internalType": "bytes32",
          "name": "kernelHash",
          "type": "bytes32"
        }
      ],
      "name": "KernelOpened",
      "type": "event"
    },
    {
      "anonymous": false,
      "inputs": [
        {
          "indexed": false,
          "internalType": "bytes32",
          "name": "parentVoteMessageHash",
          "type": "bytes32"
        },
        {
          "indexed": false,
          "internalType": "bytes32",
          "name": "targetBlockHash",
          "type": "bytes32"
        },
        {
          "indexed": false,
          "internalType": "uint256",
          "name": "targetBlockNumber",
          "type": "uint256"
        }
      ],
      "name": "LinkProposed",
      "type": "event"
    },
    {
      "anonymous": false,
      "inputs": [
        {
          "indexed": false,
          "internalType": "bytes32",
          "name": "voteMessageHash",
          "type": "bytes32"
        },
        {
          "indexed": false,
          "internalType": "enum Protocore.CheckpointFinalisationStatus",
          "name": "targetFinalisationStatus",
          "type": "uint8"
        }
      ],
      "name": "LinkUpvoted",
      "type": "event"
    },
    {
      "anonymous": false,
      "inputs": [
        {
          "indexed": false,
          "internalType": "bytes32",
          "name": "voteMessageHash",
          "type": "bytes32"
        },
        {
          "indexed": false,
          "internalType": "uint256",
          "name": "height",
          "type": "uint256"
        },
        {
          "indexed": false,
          "internalType": "bytes32",
          "name": "r",
          "type": "bytes32"
        },
        {
          "indexed": false,
          "internalType": "bytes32",
          "name": "s",
          "type": "bytes32"
        },
        {
          "indexed": false,
          "internalType": "uint8",
          "name": "v",
          "type": "uint8"
        }
      ],
      "name": "VoteRegistered",
      "type": "event"
    },
    {
      "constant": true,
      "inputs": [],
      "name": "CORE_SUPER_MAJORITY_DENOMINATOR",
      "outputs": [
        {
          "internalType": "uint256",
          "name": "",
          "type": "uint256"
        }
      ],
      "payable": false,
      "stateMutability": "view",
      "type": "function"
    },
    {
      "constant": true,
      "inputs": [],
      "name": "CORE_SUPER_MAJORITY_NUMERATOR",
      "outputs": [
        {
          "internalType": "uint256",
          "name": "",
          "type": "uint256"
        }
      ],
      "payable": false,
      "stateMutability": "view",
      "type": "function"
    },
    {
      "constant": true,
      "inputs": [],
      "name": "DOMAIN_SEPARATOR_VERSION",
      "outputs": [
        {
          "internalType": "string",
          "name": "",
          "type": "string"
        }
      ],
      "payable": false,
      "stateMutability": "view",
      "type": "function"
    },
    {
      "constant": true,
      "inputs": [],
      "name": "SENTINEL_VALIDATORS",
      "outputs": [
        {
          "internalType": "address",
          "name": "",
          "type": "address"
        }
      ],
      "payable": false,
      "stateMutability": "view",
      "type": "function"
    },
    {
      "constant": true,
      "inputs": [],
      "name": "VOTE_MESSAGE_TYPEHASH",
      "outputs": [
        {
          "internalType": "bytes32",
          "name": "",
          "type": "bytes32"
        }
      ],
      "payable": false,
      "stateMutability": "view",
      "type": "function"
    },
    {
      "constant": true,
      "inputs": [],
      "name": "domainSeparator",
      "outputs": [
        {
          "internalType": "bytes32",
          "name": "",
          "type": "bytes32"
        }
      ],
      "payable": false,
      "stateMutability": "view",
      "type": "function"
    },
    {
      "constant": true,
      "inputs": [],
      "name": "epochLength",
      "outputs": [
        {
          "internalType": "uint256",
          "name": "",
          "type": "uint256"
        }
      ],
      "payable": false,
      "stateMutability": "view",
      "type": "function"
    },
    {
      "constant": true,
      "inputs": [
        {
          "internalType": "uint256",
          "name": "",
          "type": "uint256"
        }
      ],
      "name": "fvsQuorums",
      "outputs": [
        {
          "internalType": "uint256",
          "name": "",
          "type": "uint256"
        }
      ],
      "payable": false,
      "stateMutability": "view",
      "type": "function"
    },
    {
      "constant": true,
      "inputs": [
        {
          "internalType": "bytes32",
          "name": "",
          "type": "bytes32"
        },
        {
          "internalType": "uint256",
          "name": "",
          "type": "uint256"
        },
        {
          "internalType": "address",
          "name": "",
          "type": "address"
        }
      ],
      "name": "fvsVotes",
      "outputs": [
        {
          "internalType": "address",
          "name": "",
          "type": "address"
        }
      ],
      "payable": false,
      "stateMutability": "view",
      "type": "function"
    },
    {
      "constant": true,
      "inputs": [],
      "name": "genesisDomainSeparator",
      "outputs": [
        {
          "internalType": "bytes32",
          "name": "",
          "type": "bytes32"
        }
      ],
      "payable": false,
      "stateMutability": "view",
      "type": "function"
    },
    {
      "constant": true,
      "inputs": [],
      "name": "genesisEpochLength",
      "outputs": [
        {
          "internalType": "uint256",
          "name": "",
          "type": "uint256"
        }
      ],
      "payable": false,
      "stateMutability": "view",
      "type": "function"
    },
    {
      "constant": true,
      "inputs": [],
      "name": "genesisMetachainId",
      "outputs": [
        {
          "internalType": "bytes32",
          "name": "",
          "type": "bytes32"
        }
      ],
      "payable": false,
      "stateMutability": "view",
      "type": "function"
    },
    {
      "constant": true,
      "inputs": [],
      "name": "genesisOriginParentVoteMessageHash",
      "outputs": [
        {
          "internalType": "bytes32",
          "name": "",
          "type": "bytes32"
        }
      ],
      "payable": false,
      "stateMutability": "view",
      "type": "function"
    },
    {
      "constant": true,
      "inputs": [],
      "name": "genesisOriginSourceBlockHash",
      "outputs": [
        {
          "internalType": "bytes32",
          "name": "",
          "type": "bytes32"
        }
      ],
      "payable": false,
      "stateMutability": "view",
      "type": "function"
    },
    {
      "constant": true,
      "inputs": [],
      "name": "genesisOriginSourceBlockNumber",
      "outputs": [
        {
          "internalType": "uint256",
          "name": "",
          "type": "uint256"
        }
      ],
      "payable": false,
      "stateMutability": "view",
      "type": "function"
    },
    {
      "constant": true,
      "inputs": [],
      "name": "genesisOriginTargetBlockHash",
      "outputs": [
        {
          "internalType": "bytes32",
          "name": "",
          "type": "bytes32"
        }
      ],
      "payable": false,
      "stateMutability": "view",
      "type": "function"
    },
    {
      "constant": true,
      "inputs": [],
      "name": "genesisOriginTargetBlockNumber",
      "outputs": [
        {
          "internalType": "uint256",
          "name": "",
          "type": "uint256"
        }
      ],
      "payable": false,
      "stateMutability": "view",
      "type": "function"
    },
    {
      "constant": true,
      "inputs": [],
      "name": "genesisProposedMetablockHeight",
      "outputs": [
        {
          "internalType": "uint256",
          "name": "",
          "type": "uint256"
        }
      ],
      "payable": false,
      "stateMutability": "view",
      "type": "function"
    },
    {
      "constant": true,
      "inputs": [],
      "name": "genesisSelfProtocore",
      "outputs": [
        {
          "internalType": "address",
          "name": "",
          "type": "address"
        }
      ],
      "payable": false,
      "stateMutability": "view",
      "type": "function"
    },
    {
      "constant": true,
      "inputs": [],
      "name": "getCoconsensus",
      "outputs": [
        {
          "internalType": "contract CoconsensusInterface",
          "name": "",
          "type": "address"
        }
      ],
      "payable": false,
      "stateMutability": "view",
      "type": "function"
    },
    {
      "constant": true,
      "inputs": [
        {
          "internalType": "bytes32",
          "name": "",
          "type": "bytes32"
        }
      ],
      "name": "links",
      "outputs": [
        {
          "internalType": "bytes32",
          "name": "parentVoteMessageHash",
          "type": "bytes32"
        },
        {
          "internalType": "bytes32",
          "name": "targetBlockHash",
          "type": "bytes32"
        },
        {
          "internalType": "uint256",
          "name": "targetBlockNumber",
          "type": "uint256"
        },
        {
          "internalType": "bytes32",
          "name": "sourceTransitionHash",
          "type": "bytes32"
        },
        {
          "internalType": "uint256",
          "name": "proposedMetablockHeight",
          "type": "uint256"
        },
        {
          "internalType": "enum Protocore.CheckpointFinalisationStatus",
          "name": "targetFinalisation",
          "type": "uint8"
        }
      ],
      "payable": false,
      "stateMutability": "view",
      "type": "function"
    },
    {
      "constant": true,
      "inputs": [],
      "name": "metachainId",
      "outputs": [
        {
          "internalType": "bytes32",
          "name": "",
          "type": "bytes32"
        }
      ],
      "payable": false,
      "stateMutability": "view",
      "type": "function"
    },
    {
      "constant": true,
      "inputs": [],
      "name": "openKernelHash",
      "outputs": [
        {
          "internalType": "bytes32",
          "name": "",
          "type": "bytes32"
        }
      ],
      "payable": false,
      "stateMutability": "view",
      "type": "function"
    },
    {
      "constant": true,
      "inputs": [],
      "name": "openKernelHeight",
      "outputs": [
        {
          "internalType": "uint256",
          "name": "",
          "type": "uint256"
        }
      ],
      "payable": false,
      "stateMutability": "view",
      "type": "function"
    },
    {
      "constant": true,
      "inputs": [],
      "name": "selfProtocore",
      "outputs": [
        {
          "internalType": "address",
          "name": "",
          "type": "address"
        }
      ],
      "payable": false,
      "stateMutability": "view",
      "type": "function"
    },
    {
      "constant": false,
      "inputs": [],
      "name": "setup",
      "outputs": [
        {
          "internalType": "bytes32",
          "name": "finalizedBlockHash_",
          "type": "bytes32"
        },
        {
          "internalType": "uint256",
          "name": "finalizedBlockNumber_",
          "type": "uint256"
        }
      ],
      "payable": false,
      "stateMutability": "nonpayable",
      "type": "function"
    },
    {
      "constant": false,
      "inputs": [
        {
          "internalType": "uint256",
          "name": "_kernelHeight",
          "type": "uint256"
        },
        {
          "internalType": "bytes32",
          "name": "_kernelHash",
          "type": "bytes32"
        }
      ],
      "name": "openKernel",
      "outputs": [],
      "payable": false,
      "stateMutability": "nonpayable",
      "type": "function"
    },
    {
      "constant": false,
      "inputs": [
        {
          "internalType": "bytes32",
          "name": "_parentVoteMessageHash",
          "type": "bytes32"
        },
        {
          "internalType": "bytes32",
          "name": "_targetBlockHash",
          "type": "bytes32"
        },
        {
          "internalType": "uint256",
          "name": "_targetBlockNumber",
          "type": "uint256"
        }
      ],
      "name": "proposeLink",
      "outputs": [],
      "payable": false,
      "stateMutability": "nonpayable",
      "type": "function"
    },
    {
      "constant": false,
      "inputs": [
        {
          "internalType": "bytes32",
          "name": "_voteMessageHash",
          "type": "bytes32"
        },
        {
          "internalType": "bytes32",
          "name": "_r",
          "type": "bytes32"
        },
        {
          "internalType": "bytes32",
          "name": "_s",
          "type": "bytes32"
        },
        {
          "internalType": "uint8",
          "name": "_v",
          "type": "uint8"
        }
      ],
      "name": "registerVote",
      "outputs": [],
      "payable": false,
      "stateMutability": "nonpayable",
      "type": "function"
    },
    {
      "constant": true,
      "inputs": [
        {
          "internalType": "address",
          "name": "_validator",
          "type": "address"
        },
        {
          "internalType": "uint256",
          "name": "_height",
          "type": "uint256"
        }
      ],
      "name": "inValidatorSet",
      "outputs": [
        {
          "internalType": "bool",
          "name": "",
          "type": "bool"
        }
      ],
      "payable": false,
      "stateMutability": "view",
      "type": "function"
    },
    {
      "constant": true,
      "inputs": [
        {
          "internalType": "address",
          "name": "_validator",
          "type": "address"
        },
        {
          "internalType": "uint256",
          "name": "_height",
          "type": "uint256"
        }
      ],
      "name": "inForwardValidatorSet",
      "outputs": [
        {
          "internalType": "bool",
          "name": "",
          "type": "bool"
        }
      ],
      "payable": false,
      "stateMutability": "view",
      "type": "function"
    },
    {
      "constant": true,
      "inputs": [
        {
          "internalType": "uint256",
          "name": "_height",
          "type": "uint256"
        }
      ],
      "name": "forwardValidatorSetCount",
      "outputs": [
        {
          "internalType": "uint256",
          "name": "",
          "type": "uint256"
        }
      ],
      "payable": false,
      "stateMutability": "view",
      "type": "function"
    }
  ],
  "bytecode": "0x6080604052600b80546001600160a01b031916614d0017905534801561002457600080fd5b50611962806100346000396000f3fe608060405234801561001057600080fd5b50600436106101f05760003560e01c80637ec9d7531161010f578063b8a3254d116100a2578063e7530e7c11610071578063e7530e7c146104e1578063ed39cded146104e9578063f173034a146104f1578063f698da251461051d576101f0565b8063b8a3254d14610470578063ba0bba4014610478578063c4fec67a14610499578063d1a976da146104a1576101f0565b8063b0e1084e116100de578063b0e1084e14610355578063b2fccc7f1461035d578063b2fec593146103c1578063b4907ddc146103f3576101f0565b80637ec9d753146102ff5780639dfd3397146103075780639fa843c214610330578063af6d5aaf14610338576101f0565b806323609af7116101875780634ff92af3116101565780634ff92af3146102df57806355445e06146102e757806357d775f8146102ef57806367b47913146102f7576101f0565b806323609af7146102805780633021513d1461028857806334a77991146102905780634adba1ce146102c2576101f0565b8063149fbab9116101c3578063149fbab9146102605780631df69c71146102685780631fdeaa311461027057806321c0bc4914610278576101f0565b806304230e63146101f5578063044a6d341461021957806309673c1d14610233578063142aab1114610258575b600080fd5b6101fd610525565b604080516001600160a01b039092168252519081900360200190f35b610221610534565b60408051918252519081900360200190f35b6102566004803603604081101561024957600080fd5b508035906020013561053a565b005b61022161059f565b6101fd6105a5565b6102216105aa565b6102216105b0565b6102216105b6565b6101fd6105d1565b6102216105e0565b6101fd600480360360608110156102a657600080fd5b50803590602081013590604001356001600160a01b03166105e6565b610221600480360360208110156102d857600080fd5b5035610612565b6102216106a5565b6102216106ab565b6102216106b1565b6101fd6106b7565b6102216106c6565b6102566004803603606081101561031d57600080fd5b50803590602081013590604001356106cb565b61022161071d565b6102216004803603602081101561034e57600080fd5b5035610723565b610221610735565b61037a6004803603602081101561037357600080fd5b503561073b565b604051808781526020018681526020018581526020018481526020018381526020018260038111156103a857fe5b60ff168152602001965050505050505060405180910390f35b610256600480360360808110156103d757600080fd5b508035906020810135906040810135906060013560ff16610773565b6103fb610785565b6040805160208082528351818301528351919283929083019185019080838360005b8381101561043557818101518382015260200161041d565b50505050905090810190601f1680156104625780820380516001836020036101000a031916815260200191505b509250505060405180910390f35b6102216107a2565b6104806107a8565b6040805192835260208301919091528051918290030190f35b610221610860565b6104cd600480360360408110156104b757600080fd5b506001600160a01b038135169060200135610866565b604080519115158252519081900360200190f35b610221610904565b61022161090a565b6104cd6004803603604081101561050757600080fd5b506001600160a01b03813516906020013561090f565b610221610978565b6014546001600160a01b031681565b60085481565b6105426105d1565b6001600160a01b0316336001600160a01b0316146105915760405162461bcd60e51b81526004018080602001828103825260358152602001806117a46035913960400191505060405180910390fd5b61059b828261097e565b5050565b60035481565b600181565b60105481565b600c5481565b6040518060876116f182396087019050604051809103902081565b600b546001600160a01b031690565b60025481565b60136020908152600093845260408085208252928452828420905282529020546001600160a01b031681565b6014546000906001600160a01b031661062757fe5b6014546040805163256dd0e760e11b81526004810185905290516001600160a01b0390921691634adba1ce91602480820192602092909190829003018186803b15801561067357600080fd5b505afa158015610687573d6000803e3d6000fd5b505050506040513d602081101561069d57600080fd5b505192915050565b600f5481565b60045481565b600d5481565b600a546001600160a01b031681565b600281565b6106d88360008484610a9c565b604080518481526020810184905280820183905290517f2307e7d6ae0ae6a212ad9939c099077c930321436227d32c21815bc9bfa4a10a9181900360600190a1505050565b60095481565b60116020526000908152604090205481565b60065481565b601260205260009081526040902080546001820154600283015460038401546004850154600690950154939492939192909160ff1686565b61077f84848484610cc1565b50505050565b604051806040016040528060018152602001600360fc1b81525081565b60055481565b6000806107b36105d1565b6001600160a01b0316336001600160a01b0316146108025760405162461bcd60e51b81526004018080602001828103825260358152602001806117a46035913960400191505060405180910390fd5b600a54601480546001600160a01b0319166001600160a01b0390921691909117905560015460045460025460035460095460055460065460075460085461085498979695949360009390929091610fc0565b50506007546008549091565b60015481565b6014546000906001600160a01b031661087b57fe5b601454604080516368d4bb6d60e11b81526001600160a01b038681166004830152602482018690529151919092169163d1a976da916044808301926020929190829003018186803b1580156108cf57600080fd5b505afa1580156108e3573d6000803e3d6000fd5b505050506040513d60208110156108f957600080fd5b505190505b92915050565b60075481565b600381565b6014546000906001600160a01b031661092457fe5b601454604080516378b981a560e11b81526001600160a01b038681166004830152602482018690529151919092169163f173034a916044808301926020929190829003018186803b1580156108cf57600080fd5b600e5481565b600f5461099290600163ffffffff6110fc16565b82146109cf5760405162461bcd60e51b815260040180806020018281038252603c8152602001806116b5603c913960400191505060405180910390fd5b80610a21576040805162461bcd60e51b815260206004820152601b60248201527f54686520676976656e206b65726e656c206861736820697320302e0000000000604482015290519081900360640190fd5b600f8290556010819055610a3c610a3783610612565b611115565b60116000600f548152602001908152602001600020819055507fd63a98a1e8cc3e07f96ba750deeac7e678c5f5a5aaa80f7efbe54c5f6d3a98f6600f54601054604051808381526020018281526020019250505060405180910390a15050565b83610aee576040805162461bcd60e51b815260206004820152601e60248201527f506172656e7420766f7465206d657373616765206861736820697320302e0000604482015290519081900360640190fd5b81610b2a5760405162461bcd60e51b815260040180806020018281038252602c815260200180611778602c913960400191505060405180910390fd5b600d548181610b3557fe5b0615610b725760405162461bcd60e51b81526004018080602001828103825260478152602001806117d96047913960600191505060405180910390fd5b60008481526012602052604090206002600682015460ff166003811115610b9557fe5b1015610bd25760405162461bcd60e51b815260040180806020018281038252604681526020018061164d6046913960600191505060405180910390fd5b80600201548211610c145760405162461bcd60e51b815260040180806020018281038252604a8152602001806118e4604a913960600191505060405180910390fd5b6000610c2e600e5486846001015487866002015488611139565b60008181526012602052604090206001015490915015610c7f5760405162461bcd60e51b81526004018080602001828103825260218152602001806118206021913960400191505060405180910390fd5b60009081526012602052604090209485555060018085019290925560028401556003830191909155600f5460048301556006909101805460ff19169091179055565b83610d13576040805162461bcd60e51b815260206004820152601760248201527f566f7465206d657373616765206861736820697320302e000000000000000000604482015290519081900360640190fd5b60008481526012602052604090206001600682015460ff166003811115610d3657fe5b1015610d735760405162461bcd60e51b815260040180806020018281038252602b815260200180611622602b913960400191505060405180910390fd5b600f546004820154610d8c90600163ffffffff6110fc16565b1015610dc95760405162461bcd60e51b815260040180806020018281038252602e81526020018061188b602e913960400191505060405180910390fd5b604080516000808252602080830180855289905260ff86168385015260608301889052608083018790529251909260019260a080820193601f1981019281900390910190855afa158015610e21573d6000803e3d6000fd5b5050604051601f1901519150506001600160a01b038116610e89576040805162461bcd60e51b815260206004820152601b60248201527f56616c696461746f72206d757374206e6f74206265206e756c6c2e0000000000604482015290519081900360640190fd5b610e9581600f54610866565b610ed05760405162461bcd60e51b815260040180806020018281038252602b8152602001806118b9602b913960400191505060405180910390fd5b6000868152601360209081526040808320600f54845282528083206001600160a01b0385811685529252909120541615610f3b5760405162461bcd60e51b815260040180806020018281038252604a815260200180611841604a913960600191505060405180910390fd5b6000610f488784846111e0565b9050610f5487836112ec565b600f546040805189815260208101929092528181018890526060820187905260ff86166080830152517fc9a0f2e3e4091dd3bda440d2760a1874040129d69ca8e36ebed34679426942a29181900360a00190a18015610fb757610fb787846113f1565b50505050505050565b600c5415611015576040805162461bcd60e51b815260206004820181905260248201527f436f6e747261637420697320616c726561647920696e697469616c697a65642e604482015290519081900360640190fd5b8761105c576040805162461bcd60e51b815260206004820152601260248201527122b837b1b4103632b733ba341034b990181760711b604482015290519081900360640190fd5b886110985760405162461bcd60e51b81526004018080602001828103825260228152602001806116936022913960400191505060405180910390fd5b600c8a9055600e899055600d88905560006110b78a8787868887611139565b6000908152601260205260409020968755506001860191909155600285015550506003808301919091556004820192909255600601805460ff19169091179055505050565b60008282018381101561110e57600080fd5b9392505050565b60006108fe600361112d84600263ffffffff61157816565b9063ffffffff61159f16565b60008060405180806116f160879139604080519182900360870182206020808401919091528282019a909a526060820198909852608081019690965250505060a083019190915260c0808301919091528251808303909101815260e082018352805190840120601960f81b610100830152600160f81b6101018301526101028201949094526101228082019490945281518082039094018452610142019052815191012090565b60006111ef84600f54846115c1565b1561122e57600f54600090815260058401602052604090205461121990600163ffffffff6110fc16565b600f5460009081526005850160205260409020555b600f546000818152601160209081526040808320546005880190925290912054101590600190156112d857600f5460009061127090600163ffffffff61160c16565b905061127d8782876115c1565b156112b65760008181526005870160205260409020546112a490600163ffffffff6110fc16565b60008281526005880160205260409020555b6000908152601160209081526040808320546005890190925290912054101590505b8180156112e25750805b9695505050505050565b6000828152601360209081526040808320600f54845282528083206001600160a01b038581168552925290912054161561132257fe5b6000828152601360209081526040808320600f5484528252808320600184529091529020546001600160a01b03168061138c57506000828152601360209081526040808320600f54845282528083206001808552925290912080546001600160a01b031916821790555b6000928352601360209081526040808520600f805487528184528287206001600160a01b039687168089529085528388208054979096166001600160a01b03199788161790955554865282528085206001865290915290922080549091169091179055565b6001600682015460ff16600381111561140657fe5b141561059b5760068101805460ff1916600290811790915560408051848152602081019290925280517fae22109749a8e1b888ae2d2e15c3ce5ac0c18b153ee7718b7c75f738ef7384719281900390910190a180546000908152601260205260409020600d54600280830154908401546114859163ffffffff61160c16565b1415611573576002600682015460ff1660038111156114a057fe5b10156114a857fe5b60068101805460ff19166003908117909155825460408051918252602082019290925281517fae22109749a8e1b888ae2d2e15c3ce5ac0c18b153ee7718b7c75f738ef738471929181900390910190a16115006105d1565b6001600160a01b0316636d7e4a68600c54836002015484600101546040518463ffffffff1660e01b8152600401808481526020018381526020018281526020019350505050600060405180830381600087803b15801561155f57600080fd5b505af1158015610fb7573d6000803e3d6000fd5b505050565b600082611587575060006108fe565b8282028284828161159457fe5b041461110e57600080fd5b60008082116115ad57600080fd5b60008284816115b857fe5b04949350505050565b600083815260136020908152604080832085845282528083206001600160a01b03858116855292528220541615816115f9848661090f565b90508180156112e2575095945050505050565b60008282111561161b57600080fd5b5090039056fe54686520676976656e206c696e6b20737461747573206973206174206c65617374207265706f727465642e506172656e74206c696e6b2773207461726765742066696e616c69736174696f6e207374617475732073686f756c64206265206174206c65617374206a75737469666965642e446f6d61696e20736570617261746f72206d757374206e6f74206265206e756c6c2e54686520676976656e206b65726e656c206865696768742073686f756c6420626520706c75732031206f66207468652063757272656e74206f6e652e566f74654d6573736167652862797465733332207472616e736974696f6e486173682c6279746573333220736f75726365426c6f636b486173682c6279746573333220746172676574426c6f636b486173682c75696e7432353620736f75726365426c6f636b4e756d6265722c75696e7432353620746172676574426c6f636b4e756d6265722954617267657420626c6f636b2068617368206f66207468652070726f706f736564206c696e6b20697320302e4f6e6c792074686520436f636f6e73656e73757320636f6e74726163742063616e2063616c6c20746869732066756e6374696f6e2e54617267657420626c6f636b206e756d626572206f6620746865206c696e6b2073686f756c64206265206d756c7469706c65206f66207468652065706f6368206c656e6774682e5468652070726f706f736564206c696e6b20616c7265616479206578697374732e56616c696461746f7220766f74652063616e6e6f74206265207265676973746572656420747769636520696e2046565320766f746573206174207468652073616d65206865696768742e4c696e6b2068656967687420696e636c7573696f6e207072696e6369706c6520686173207375727061737365642e56616c696461746f72206d75737420626520696e2063757272656e742076616c696461746f72207365742e54617267657420626c6f636b206e756d626572206f66207468652070726f706f736564206c696e6b2073686f756c6420626520626967676572207468616e20706172656e74206f6e652ea265627a7a7231582021dfe42739e722cbdbaee145da0dfc01e710c0b75d8c8ed482ce406afe87455864736f6c634300050d0032",
  "source": "pragma solidity >=0.5.0 <0.6.0;\n\n// Copyright 2020 OpenST Ltd.\n//\n// Licensed under the Apache License, Version 2.0 (the \"License\");\n// you may not use this file except in compliance with the License.\n// You may obtain a copy of the License at\n//\n//    http://www.apache.org/licenses/LICENSE-2.0\n//\n// Unless required by applicable law or agreed to in writing, software\n// distributed under the License is distributed on an \"AS IS\" BASIS,\n// WITHOUT WARRANTIES OR CONDITIONS OF ANY KIND, either express or implied.\n// See the License for the specific language governing permissions and\n// limitations under the License.\n\nimport \"../protocore/GenesisOriginProtocore.sol\";\nimport \"../protocore/Protocore.sol\";\nimport \"../proxies/MasterCopyNonUpgradable.sol\";\n\n/**\n * @title Origin protocore - This contract finalizes the proposed blocks of origin chain.\n */\ncontract OriginProtocore is MasterCopyNonUpgradable, GenesisOriginProtocore, Protocore {\n\n    /* Events */\n\n    event LinkProposed(\n        bytes32 parentVoteMessageHash,\n        bytes32 targetBlockHash,\n        uint256 targetBlockNumber\n    );\n\n\n    /* Storage */\n\n    /**\n     * Address of self protocore.\n     * @dev this is needed to get the inforamation related to validator. Origin\n     *      protocore will not have validator set, instead it will query Self protocore\n     *      contract.\n     */\n    address public selfProtocore;\n\n\n    /* Special Functions */\n\n    /**\n     * @notice setup() function initializes the current contract.\n     *\n     * @return Block hash and block number of finalized genesis checkpoint.\n     *\n     * \\post Sets `selfProtocore` to the given value.\n     * \\post Sets `domainSeparator` to the given value.\n     * \\post Sets `epochLength` to the given value.\n     * \\post Sets `metachainId` to the given value.\n     * \\post Sets genesis link.\n     */\n    function setup()\n        external\n        onlyCoconsensus\n        returns (\n            bytes32 finalizedBlockHash_,\n            uint256 finalizedBlockNumber_\n        )\n    {\n        selfProtocore = genesisSelfProtocore;\n\n        // The source transition hash should be zero for origin protocore.\n        Protocore.setupProtocore(\n            genesisMetachainId,\n            genesisDomainSeparator,\n            genesisEpochLength,\n            genesisProposedMetablockHeight,\n            genesisOriginParentVoteMessageHash,\n            bytes32(0),\n            genesisOriginSourceBlockHash,\n            genesisOriginSourceBlockNumber,\n            genesisOriginTargetBlockHash,\n            genesisOriginTargetBlockNumber\n        );\n\n        finalizedBlockHash_ = genesisOriginTargetBlockHash;\n        finalizedBlockNumber_ = genesisOriginTargetBlockNumber;\n    }\n\n\n    /* External Functions */\n\n    /**\n     * @notice openKernel() function marks the specified kernel\n     *         as opened.\n     *\n     * @param _kernelHeight New kernel height.\n     * @param _kernelHash New kernel hash.\n     *\n     * \\pre Only coconsensus can call.\n     * \\pre Satisfies all pre conditions of Protocore::openKernelInternal().\n     *\n     * \\post Satisfies all the post conditions of Protocore::openKernelInternal().\n     */\n    function openKernel(\n        uint256 _kernelHeight,\n        bytes32 _kernelHash\n    )\n        external\n        onlyCoconsensus\n    {\n        Protocore.openKernelInternal(\n            _kernelHeight,\n            _kernelHash\n        );\n    }\n\n    /**\n     * @notice proposeLink() function proposes a valid link to be voted later by\n     *         active validators.\n     *\n     * @dev Satisfies \\pre and \\post conditions of\n     *      Protocore::proposeLinkInternal().\n     *\n     * \\post Emits LinkProposed event.\n     */\n    function proposeLink(\n        bytes32 _parentVoteMessageHash,\n        bytes32 _targetBlockHash,\n        uint256 _targetBlockNumber\n    )\n        external\n    {\n        Protocore.proposeLinkInternal(\n            _parentVoteMessageHash,\n            bytes32(0),\n            _targetBlockHash,\n            _targetBlockNumber\n        );\n\n        emit LinkProposed(\n            _parentVoteMessageHash,\n            _targetBlockHash,\n            _targetBlockNumber\n        );\n    }\n\n    /**\n     * @notice It registers a vote for a link specified by vote message hash.\n     *         Validators sign a vote message and provides the signature.\n     *\n     * @dev It must satify pre and post conditions of\n     *      Protocore::registerVoteInternal.\n     *\n     * @param _voteMessageHash Message hash of a vote.\n     * @param _r The first 32 bytes of ECDSA signature of a validator.\n     * @param _s The second 32 bytes of ECDSA signature of a validator.\n     * @param _v The recovery id/value of ECDSA signature of a validator.\n     */\n    function registerVote(\n        bytes32 _voteMessageHash,\n        bytes32 _r,\n        bytes32 _s,\n        uint8 _v\n    )\n        external\n    {\n        Protocore.registerVoteInternal(\n            _voteMessageHash,\n            _r,\n            _s,\n            _v\n        );\n    }\n\n\n    /* Public Functions */\n\n    /**\n     * @notice inValidatorSet() function checks if a validator is in\n     *         validator set for the given height.\n     */\n    function inValidatorSet(address _validator, uint256 _height)\n        public\n        view\n        returns (bool)\n    {\n        assert(selfProtocore != address(0));\n        return ValidatorSetAbstract(selfProtocore).inValidatorSet(\n            _validator,\n            _height\n        );\n    }\n\n    /**\n     * @notice inForwardValidatorSet() function calls on SelfProtocore contract\n     *         to query the forward validator set.\n     */\n    function inForwardValidatorSet(address _validator, uint256 _height)\n        public\n        view\n        returns (bool)\n    {\n        assert(selfProtocore != address(0));\n        return ValidatorSetAbstract(selfProtocore).inForwardValidatorSet(\n            _validator,\n            _height\n        );\n    }\n\n    /**\n     * @notice forwardValidatorSetCount() function calls on SelfProtocore contract\n     *         to query the forward validator set.\n     */\n    function forwardValidatorSetCount(uint256 _height)\n        public\n        view\n        returns (uint256)\n    {\n        assert(selfProtocore != address(0));\n        return ValidatorSetAbstract(selfProtocore).forwardValidatorSetCount(\n            _height\n        );\n    }\n}\n",
  "sourcePath": "/Users/abhay/Documents/projects/abhayforks/mosaic-1/contracts/protocore/OriginProtocore.sol",
  "compiler": {
    "name": "solc",
    "version": "0.5.13+commit.5b0b510c.Emscripten.clang"
  },
  "schemaVersion": "3.0.17",
  "updatedAt": "2020-03-21T06:48:34.744Z",
  "devdoc": {
    "methods": {
      "getCoconsensus()": {
        "return": "Coconsensus contract address."
      },
      "openKernel(uint256,bytes32)": {
        "params": {
          "_kernelHash": "New kernel hash.     * \\pre Only coconsensus can call. \\pre Satisfies all pre conditions of Protocore::openKernelInternal().     * \\post Satisfies all the post conditions of Protocore::openKernelInternal().",
          "_kernelHeight": "New kernel height."
        }
      },
      "proposeLink(bytes32,bytes32,uint256)": {
        "details": "Satisfies \\pre and \\post conditions of     Protocore::proposeLinkInternal().     * \\post Emits LinkProposed event."
      },
      "registerVote(bytes32,bytes32,bytes32,uint8)": {
        "details": "It must satify pre and post conditions of     Protocore::registerVoteInternal.",
        "params": {
          "_r": "The first 32 bytes of ECDSA signature of a validator.",
          "_s": "The second 32 bytes of ECDSA signature of a validator.",
          "_v": "The recovery id/value of ECDSA signature of a validator.",
          "_voteMessageHash": "Message hash of a vote."
        }
      },
      "setup()": {
        "return": "Block hash and block number of finalized genesis checkpoint.     * \\post Sets `selfProtocore` to the given value. \\post Sets `domainSeparator` to the given value. \\post Sets `epochLength` to the given value. \\post Sets `metachainId` to the given value. \\post Sets genesis link."
      }
    },
    "title": "Origin protocore - This contract finalizes the proposed blocks of origin chain."
  },
  "userdoc": {
    "methods": {
      "forwardValidatorSetCount(uint256)": {
        "notice": "forwardValidatorSetCount() function calls on SelfProtocore contract        to query the forward validator set."
      },
      "getCoconsensus()": {
        "notice": "Gets the coconsensus contract address."
      },
      "inForwardValidatorSet(address,uint256)": {
        "notice": "inForwardValidatorSet() function calls on SelfProtocore contract        to query the forward validator set."
      },
      "inValidatorSet(address,uint256)": {
        "notice": "inValidatorSet() function checks if a validator is in        validator set for the given height."
      },
      "openKernel(uint256,bytes32)": {
        "notice": "openKernel() function marks the specified kernel        as opened."
      },
      "proposeLink(bytes32,bytes32,uint256)": {
        "notice": "proposeLink() function proposes a valid link to be voted later by        active validators."
      },
      "registerVote(bytes32,bytes32,bytes32,uint8)": {
        "notice": "It registers a vote for a link specified by vote message hash.        Validators sign a vote message and provides the signature."
      },
      "setup()": {
        "notice": "setup() function initializes the current contract."
      }
    }
  }
}