{
  "contractName": "OriginObserver",
  "abi": [
    {
      "anonymous": false,
      "inputs": [
        {
          "indexed": false,
          "internalType": "uint256",
          "name": "_blockNumber",
          "type": "uint256"
        },
        {
          "indexed": false,
          "internalType": "bytes32",
          "name": "_stateRoot",
          "type": "bytes32"
        }
      ],
      "name": "StateRootAvailable",
      "type": "event"
    },
    {
      "constant": true,
      "inputs": [],
      "name": "genesisMaxStateRootLimitCount",
      "outputs": [
        {
          "internalType": "uint256",
          "name": "",
          "type": "uint256"
        }
      ],
      "payable": false,
      "stateMutability": "view",
      "type": "function"
    },
    {
      "constant": true,
      "inputs": [],
      "name": "genesisOriginBlockNumber",
      "outputs": [
        {
          "internalType": "uint256",
          "name": "",
          "type": "uint256"
        }
      ],
      "payable": false,
      "stateMutability": "view",
      "type": "function"
    },
    {
      "constant": true,
      "inputs": [],
      "name": "genesisOriginStateRoot",
      "outputs": [
        {
          "internalType": "bytes32",
          "name": "",
          "type": "bytes32"
        }
      ],
      "payable": false,
      "stateMutability": "view",
      "type": "function"
    },
    {
      "constant": true,
      "inputs": [],
      "name": "getCoconsensus",
      "outputs": [
        {
          "internalType": "contract CoconsensusInterface",
          "name": "",
          "type": "address"
        }
      ],
      "payable": false,
      "stateMutability": "view",
      "type": "function"
    },
    {
      "constant": true,
      "inputs": [],
      "name": "getLatestStateRootBlockNumber",
      "outputs": [
        {
          "internalType": "uint256",
          "name": "blockNumber_",
          "type": "uint256"
        }
      ],
      "payable": false,
      "stateMutability": "view",
      "type": "function"
    },
    {
      "constant": true,
      "inputs": [
        {
          "internalType": "uint256",
          "name": "_blockNumber",
          "type": "uint256"
        }
      ],
      "name": "getStateRoot",
      "outputs": [
        {
          "internalType": "bytes32",
          "name": "stateRoot_",
          "type": "bytes32"
        }
      ],
      "payable": false,
      "stateMutability": "view",
      "type": "function"
    },
    {
      "constant": false,
      "inputs": [],
      "name": "setup",
      "outputs": [],
      "payable": false,
      "stateMutability": "nonpayable",
      "type": "function"
    },
    {
      "constant": false,
      "inputs": [
        {
          "internalType": "uint256",
          "name": "_blockNumber",
          "type": "uint256"
        },
        {
          "internalType": "bytes32",
          "name": "_stateRoot",
          "type": "bytes32"
        }
      ],
      "name": "anchorStateRoot",
      "outputs": [],
      "payable": false,
      "stateMutability": "nonpayable",
      "type": "function"
    }
  ],
  "bytecode": "0x6080604052600480546001600160a01b031916614d0017905534801561002457600080fd5b50610585806100346000396000f3fe608060405234801561001057600080fd5b50600436106100885760003560e01c8063691601951161005b57806369160195146100f85780636e47aff414610100578063ba0bba4014610108578063c38019381461011057610088565b80631f9495091461008d57806323609af7146100a75780635cf12c78146100cb5780635e3703bd146100f0575b600080fd5b61009561012d565b60408051918252519081900360200190f35b6100af610133565b604080516001600160a01b039092168252519081900360200190f35b6100ee600480360360408110156100e157600080fd5b5080359060200135610143565b005b6100956101a8565b6100956101b7565b6100956101bd565b6100ee6101c3565b6100956004803603602081101561012657600080fd5b50356101de565b60035481565b6004546001600160a01b03165b90565b61014b610133565b6001600160a01b0316336001600160a01b03161461019a5760405162461bcd60e51b81526004018080602001828103825260358152602001806104576035913960400191505060405180910390fd5b6101a482826101f0565b5050565b60006101b26102f6565b905090565b60015481565b60025481565b6101ce600354610317565b6101dc6001546002546101f0565b565b60009081526007602052604090205490565b80610242576040805162461bcd60e51b815260206004820152601c60248201527f537461746520726f6f74206d757374206e6f74206265207a65726f2e00000000604482015290519081900360640190fd5b61024a6102f6565b82116102875760405162461bcd60e51b815260040180806020018281038252605181526020018061048c6051913960600191505060405180910390fd5b60008281526007602052604081208290556102a183610323565b600081815260076020908152604080832092909255815186815290810185905281519293507f0a57f5c610ae4bcec0e406f2d350ddffa2fb3628fed5da3d7dac3a3c1cdb66c2929081900390910190a1505050565b600060056006548154811061030757fe5b9060005260206000200154905090565b6103208161036a565b50565b600061032d6103f4565b60056006548154811061033c57fe5b906000526020600020015490508160056006548154811061035957fe5b600091825260209091200155919050565b600081116103a95760405162461bcd60e51b815260040180806020018281038252604d815260200180610504604d913960600191505060405180910390fd5b600554156103e85760405162461bcd60e51b81526004018080602001828103825260278152602001806104dd6027913960400191505060405180910390fd5b806101a460058261040f565b600680546001019081905560055414156101dc576000600655565b81548183558181111561043357600083815260209020610433918101908301610438565b505050565b61014091905b80821115610452576000815560010161043e565b509056fe4f6e6c792074686520436f636f6e73656e73757320636f6e74726163742063616e2063616c6c20746869732066756e6374696f6e2e476976656e20626c6f636b206e756d626572206973206c6f776572206f7220657175616c20746f206869676865737420616e63686f72656420737461746520726f6f7420626c6f636b206e756d6265722e43697263756c6172206275666665722073697a652063616e206265207365747570206f6e63652e546865206d6178206e756d626572206f66206974656d7320746f2073746f726520696e20612063697263756c617220627566666572206d7573742062652067726561746572207468616e20302ea265627a7a72315820b67cff6f0c92d1ece357802a3f92cb1299e56792ed52de9d5e78410629a542ec64736f6c634300050d0032",
  "source": "pragma solidity >=0.5.0 <0.6.0;\n\n// Copyright 2020 OpenST Ltd.\n//\n// Licensed under the Apache License, Version 2.0 (the \"License\");\n// you may not use this file except in compliance with the License.\n// You may obtain a copy of the License at\n//\n//    http://www.apache.org/licenses/LICENSE-2.0\n//\n// Unless required by applicable law or agreed to in writing, software\n// distributed under the License is distributed on an \"AS IS\" BASIS,\n// WITHOUT WARRANTIES OR CONDITIONS OF ANY KIND, either express or implied.\n// See the License for the specific language governing permissions and\n// limitations under the License.\n\nimport \"../anchor/GenesisOriginObserver.sol\";\nimport \"../anchor/StateRootProvider.sol\";\nimport \"../consensus/CoconsensusModule.sol\";\nimport \"../proxies/MasterCopyNonUpgradable.sol\";\n\n/**\n * @title OriginObserver - Contract on the auxiliary chain that stores the\n *        state root of the origin chain.\n *\n * @notice This contract stores the state root and block number from the\n *         origin chain. This contract is Coconsensus module. Only coconsensus\n *         contract will be able to anchor the state root.\n */\ncontract OriginObserver is\n    MasterCopyNonUpgradable,\n    GenesisOriginObserver,\n    CoconsensusModule,\n    StateRootProvider\n{\n\n    /* External Functions */\n\n    /**\n     * @notice Setup function for origin observer contract.\n     *\n     * @dev This can be called by anyone only once. The check in StateRootProvider::setup\n     *      ensures this in its circular buffer setup. Another check is provided by\n     *      StateRootProvider::anchorStateRootInternal can be only called once for a given block\n     *      number and has to be increasing.\n     */\n    function setup() external {\n        StateRootProvider.setup(genesisMaxStateRootLimitCount);\n        StateRootProvider.anchorStateRootInternal(genesisOriginBlockNumber, genesisOriginStateRoot);\n    }\n\n    /**\n     * @notice Anchor the state root for an (increasing) block number.\n     *\n     * @dev  Function requires:\n     *          - Only coconsensus contract address can call this function.\n     *\n     * @param _blockNumber Block number for which state root needs to\n     *                      update.\n     * @param _stateRoot State root of input block number.\n     */\n    function anchorStateRoot(\n        uint256 _blockNumber,\n        bytes32 _stateRoot\n    )\n        external\n        onlyCoconsensus\n    {\n        StateRootProvider.anchorStateRootInternal(_blockNumber, _stateRoot);\n    }\n}\n",
  "sourcePath": "/Users/abhay/Documents/projects/abhayforks/mosaic-1/contracts/anchor/OriginObserver.sol",
  "compiler": {
    "name": "solc",
    "version": "0.5.13+commit.5b0b510c.Emscripten.clang"
  },
  "schemaVersion": "3.0.17",
  "updatedAt": "2020-03-21T06:48:34.594Z",
  "devdoc": {
    "methods": {
      "anchorStateRoot(uint256,bytes32)": {
        "details": "Function requires:         - Only coconsensus contract address can call this function.",
        "params": {
          "_blockNumber": "Block number for which state root needs to                     update.",
          "_stateRoot": "State root of input block number."
        }
      },
      "getCoconsensus()": {
        "return": "Coconsensus contract address."
      },
      "getLatestStateRootBlockNumber()": {
        "return": "uint256 Block number of the latest anchored state root."
      },
      "getStateRoot(uint256)": {
        "params": {
          "_blockNumber": "The block number for which the state root is needed."
        },
        "return": "bytes32 State root of the given number."
      },
      "setup()": {
        "details": "This can be called by anyone only once. The check in StateRootProvider::setup     ensures this in its circular buffer setup. Another check is provided by     StateRootProvider::anchorStateRootInternal can be only called once for a given block     number and has to be increasing."
      }
    },
    "title": "OriginObserver - Contract on the auxiliary chain that stores the       state root of the origin chain."
  },
  "userdoc": {
    "methods": {
      "anchorStateRoot(uint256,bytes32)": {
        "notice": "Anchor the state root for an (increasing) block number."
      },
      "getCoconsensus()": {
        "notice": "Gets the coconsensus contract address."
      },
      "getLatestStateRootBlockNumber()": {
        "notice": "Gets the block number of latest anchored state root."
      },
      "getStateRoot(uint256)": {
        "notice": "Get the state root for the given block number."
      },
      "setup()": {
        "notice": "Setup function for origin observer contract."
      }
    },
    "notice": "This contract stores the state root and block number from the        origin chain. This contract is Coconsensus module. Only coconsensus        contract will be able to anchor the state root."
  }
}