{
  "contractName": "OriginObserverTest",
  "abi": [
    {
      "anonymous": false,
      "inputs": [
        {
          "indexed": false,
          "internalType": "uint256",
          "name": "_blockNumber",
          "type": "uint256"
        },
        {
          "indexed": false,
          "internalType": "bytes32",
          "name": "_stateRoot",
          "type": "bytes32"
        }
      ],
      "name": "StateRootAvailable",
      "type": "event"
    },
    {
      "constant": false,
      "inputs": [
        {
          "internalType": "uint256",
          "name": "_blockNumber",
          "type": "uint256"
        },
        {
          "internalType": "bytes32",
          "name": "_stateRoot",
          "type": "bytes32"
        }
      ],
      "name": "anchorStateRoot",
      "outputs": [],
      "payable": false,
      "stateMutability": "nonpayable",
      "type": "function"
    },
    {
      "constant": true,
      "inputs": [],
      "name": "genesisMaxStateRootLimitCount",
      "outputs": [
        {
          "internalType": "uint256",
          "name": "",
          "type": "uint256"
        }
      ],
      "payable": false,
      "stateMutability": "view",
      "type": "function"
    },
    {
      "constant": true,
      "inputs": [],
      "name": "genesisOriginBlockNumber",
      "outputs": [
        {
          "internalType": "uint256",
          "name": "",
          "type": "uint256"
        }
      ],
      "payable": false,
      "stateMutability": "view",
      "type": "function"
    },
    {
      "constant": true,
      "inputs": [],
      "name": "genesisOriginStateRoot",
      "outputs": [
        {
          "internalType": "bytes32",
          "name": "",
          "type": "bytes32"
        }
      ],
      "payable": false,
      "stateMutability": "view",
      "type": "function"
    },
    {
      "constant": true,
      "inputs": [],
      "name": "getLatestStateRootBlockNumber",
      "outputs": [
        {
          "internalType": "uint256",
          "name": "blockNumber_",
          "type": "uint256"
        }
      ],
      "payable": false,
      "stateMutability": "view",
      "type": "function"
    },
    {
      "constant": true,
      "inputs": [
        {
          "internalType": "uint256",
          "name": "_blockNumber",
          "type": "uint256"
        }
      ],
      "name": "getStateRoot",
      "outputs": [
        {
          "internalType": "bytes32",
          "name": "stateRoot_",
          "type": "bytes32"
        }
      ],
      "payable": false,
      "stateMutability": "view",
      "type": "function"
    },
    {
      "constant": false,
      "inputs": [],
      "name": "setup",
      "outputs": [],
      "payable": false,
      "stateMutability": "nonpayable",
      "type": "function"
    },
    {
      "constant": true,
      "inputs": [],
      "name": "testCoconsensus",
      "outputs": [
        {
          "internalType": "address",
          "name": "",
          "type": "address"
        }
      ],
      "payable": false,
      "stateMutability": "view",
      "type": "function"
    },
    {
      "constant": false,
      "inputs": [
        {
          "internalType": "uint256",
          "name": "_genesisOriginBlockNumber",
          "type": "uint256"
        },
        {
          "internalType": "bytes32",
          "name": "_genesisOriginStateRoot",
          "type": "bytes32"
        },
        {
          "internalType": "uint256",
          "name": "_genesisMaxStateRootLimitCount",
          "type": "uint256"
        }
      ],
      "name": "setGenesisStorageVariables",
      "outputs": [],
      "payable": false,
      "stateMutability": "nonpayable",
      "type": "function"
    },
    {
      "constant": false,
      "inputs": [
        {
          "internalType": "address",
          "name": "_coconsensus",
          "type": "address"
        }
      ],
      "name": "setCoconsensus",
      "outputs": [],
      "payable": false,
      "stateMutability": "nonpayable",
      "type": "function"
    },
    {
      "constant": true,
      "inputs": [],
      "name": "getCoconsensus",
      "outputs": [
        {
          "internalType": "contract CoconsensusInterface",
          "name": "",
          "type": "address"
        }
      ],
      "payable": false,
      "stateMutability": "view",
      "type": "function"
    }
  ],
  "bytecode": "0x6080604052600480546001600160a01b031916614d0017905534801561002457600080fd5b5061063c806100346000396000f3fe608060405234801561001057600080fd5b50600436106100a95760003560e01c8063691601951161007157806369160195146101215780636e47aff41461012957806372760bdf146101315780638764085114610157578063ba0bba4014610180578063c380193814610188576100a9565b80631db48326146100ae5780631f949509146100d257806323609af7146100ec5780635cf12c78146100f45780635e3703bd14610119575b600080fd5b6100b66101a5565b604080516001600160a01b039092168252519081900360200190f35b6100da6101b4565b60408051918252519081900360200190f35b6100b66101ba565b6101176004803603604081101561010a57600080fd5b50803590602001356101ca565b005b6100da61022f565b6100da61023e565b6100da610244565b6101176004803603602081101561014757600080fd5b50356001600160a01b031661024a565b6101176004803603606081101561016d57600080fd5b508035906020810135906040013561026c565b61011761027a565b6100da6004803603602081101561019e57600080fd5b5035610295565b6008546001600160a01b031681565b60035481565b6008546001600160a01b03165b90565b6101d26101ba565b6001600160a01b0316336001600160a01b0316146102215760405162461bcd60e51b815260040180806020018281038252603581526020018061050e6035913960400191505060405180910390fd5b61022b82826102a7565b5050565b60006102396103ad565b905090565b60015481565b60025481565b600880546001600160a01b0319166001600160a01b0392909216919091179055565b600192909255600255600355565b6102856003546103ce565b6102936001546002546102a7565b565b60009081526007602052604090205490565b806102f9576040805162461bcd60e51b815260206004820152601c60248201527f537461746520726f6f74206d757374206e6f74206265207a65726f2e00000000604482015290519081900360640190fd5b6103016103ad565b821161033e5760405162461bcd60e51b81526004018080602001828103825260518152602001806105436051913960600191505060405180910390fd5b6000828152600760205260408120829055610358836103da565b600081815260076020908152604080832092909255815186815290810185905281519293507f0a57f5c610ae4bcec0e406f2d350ddffa2fb3628fed5da3d7dac3a3c1cdb66c2929081900390910190a1505050565b60006005600654815481106103be57fe5b9060005260206000200154905090565b6103d781610421565b50565b60006103e46104ab565b6005600654815481106103f357fe5b906000526020600020015490508160056006548154811061041057fe5b600091825260209091200155919050565b600081116104605760405162461bcd60e51b815260040180806020018281038252604d8152602001806105bb604d913960600191505060405180910390fd5b6005541561049f5760405162461bcd60e51b81526004018080602001828103825260278152602001806105946027913960400191505060405180910390fd5b8061022b6005826104c6565b60068054600101908190556005541415610293576000600655565b8154818355818111156104ea576000838152602090206104ea9181019083016104ef565b505050565b6101c791905b8082111561050957600081556001016104f5565b509056fe4f6e6c792074686520436f636f6e73656e73757320636f6e74726163742063616e2063616c6c20746869732066756e6374696f6e2e476976656e20626c6f636b206e756d626572206973206c6f776572206f7220657175616c20746f206869676865737420616e63686f72656420737461746520726f6f7420626c6f636b206e756d6265722e43697263756c6172206275666665722073697a652063616e206265207365747570206f6e63652e546865206d6178206e756d626572206f66206974656d7320746f2073746f726520696e20612063697263756c617220627566666572206d7573742062652067726561746572207468616e20302ea265627a7a7231582083fc8468a203c62b4d1559810211e68dbc2b073da0627d392626a23faa99d02e64736f6c634300050d0032",
  "source": "pragma solidity >=0.5.0 <0.6.0;\n\n// Copyright 2020 OpenST Ltd.\n//\n// Licensed under the Apache License, Version 2.0 (the \"License\");\n// you may not use this file except in compliance with the License.\n// You may obtain a copy of the License at\n//\n//    http://www.apache.org/licenses/LICENSE-2.0\n//\n// Unless required by applicable law or agreed to in writing, software\n// distributed under the License is distributed on an \"AS IS\" BASIS,\n// WITHOUT WARRANTIES OR CONDITIONS OF ANY KIND, either express or implied.\n// See the License for the specific language governing permissions and\n// limitations under the License.\n\nimport \"../../anchor/OriginObserver.sol\";\n\ncontract OriginObserverTest is OriginObserver {\n\n    address public testCoconsensus;\n\n    function setGenesisStorageVariables(\n        uint256 _genesisOriginBlockNumber,\n        bytes32 _genesisOriginStateRoot,\n        uint256 _genesisMaxStateRootLimitCount\n    )\n        public\n    {\n        genesisOriginBlockNumber = _genesisOriginBlockNumber;\n        genesisOriginStateRoot = _genesisOriginStateRoot;\n        genesisMaxStateRootLimitCount = _genesisMaxStateRootLimitCount;\n    }\n\n    function setCoconsensus(address _coconsensus) public {\n        testCoconsensus = _coconsensus;\n    }\n\n    function getCoconsensus() public view returns (CoconsensusInterface) {\n        return CoconsensusInterface(testCoconsensus);\n    }\n}\n",
  "sourcePath": "/Users/abhay/Documents/projects/abhayforks/mosaic-1/contracts/test/anchor/OriginObserverTest.sol",
  "compiler": {
    "name": "solc",
    "version": "0.5.13+commit.5b0b510c.Emscripten.clang"
  },
  "schemaVersion": "3.0.17",
  "updatedAt": "2020-03-21T06:48:34.774Z",
  "devdoc": {
    "methods": {
      "anchorStateRoot(uint256,bytes32)": {
        "details": "Function requires:         - Only coconsensus contract address can call this function.",
        "params": {
          "_blockNumber": "Block number for which state root needs to                     update.",
          "_stateRoot": "State root of input block number."
        }
      },
      "getLatestStateRootBlockNumber()": {
        "return": "uint256 Block number of the latest anchored state root."
      },
      "getStateRoot(uint256)": {
        "params": {
          "_blockNumber": "The block number for which the state root is needed."
        },
        "return": "bytes32 State root of the given number."
      },
      "setup()": {
        "details": "This can be called by anyone only once. The check in StateRootProvider::setup     ensures this in its circular buffer setup. Another check is provided by     StateRootProvider::anchorStateRootInternal can be only called once for a given block     number and has to be increasing."
      }
    }
  },
  "userdoc": {
    "methods": {
      "anchorStateRoot(uint256,bytes32)": {
        "notice": "Anchor the state root for an (increasing) block number."
      },
      "getLatestStateRootBlockNumber()": {
        "notice": "Gets the block number of latest anchored state root."
      },
      "getStateRoot(uint256)": {
        "notice": "Get the state root for the given block number."
      },
      "setup()": {
        "notice": "Setup function for origin observer contract."
      }
    }
  }
}