{
  "contractName": "Proof",
  "abi": [
    {
      "constant": true,
      "inputs": [],
      "name": "encodedAccountPath",
      "outputs": [
        {
          "internalType": "bytes",
          "name": "",
          "type": "bytes"
        }
      ],
      "payable": false,
      "stateMutability": "view",
      "type": "function"
    },
    {
      "constant": true,
      "inputs": [],
      "name": "stateRootProvider",
      "outputs": [
        {
          "internalType": "contract StateRootInterface",
          "name": "",
          "type": "address"
        }
      ],
      "payable": false,
      "stateMutability": "view",
      "type": "function"
    },
    {
      "constant": true,
      "inputs": [],
      "name": "storageAccount",
      "outputs": [
        {
          "internalType": "address",
          "name": "",
          "type": "address"
        }
      ],
      "payable": false,
      "stateMutability": "view",
      "type": "function"
    },
    {
      "constant": true,
      "inputs": [
        {
          "internalType": "uint256",
          "name": "",
          "type": "uint256"
        }
      ],
      "name": "storageRoots",
      "outputs": [
        {
          "internalType": "bytes32",
          "name": "",
          "type": "bytes32"
        }
      ],
      "payable": false,
      "stateMutability": "view",
      "type": "function"
    }
  ],
  "bytecode": "0x608060405234801561001057600080fd5b5061021c806100206000396000f3fe608060405234801561001057600080fd5b506004361061004c5760003560e01c806316ad76b81461005157806320e1855f146100ce578063610ebfe2146100f2578063d4d1118514610121575b600080fd5b610059610129565b6040805160208082528351818301528351919283929083019185019080838360005b8381101561009357818101518382015260200161007b565b50505050905090810190601f1680156100c05780820380516001836020036101000a031916815260200191505b509250505060405180910390f35b6100d66101b7565b604080516001600160a01b039092168252519081900360200190f35b61010f6004803603602081101561010857600080fd5b50356101c6565b60408051918252519081900360200190f35b6100d66101d8565b6004805460408051602060026001851615610100026000190190941693909304601f810184900484028201840190925281815292918301828280156101af5780601f10610184576101008083540402835291602001916101af565b820191906000526020600020905b81548152906001019060200180831161019257829003601f168201915b505050505081565b6002546001600160a01b031681565b60056020526000908152604090205481565b6003546001600160a01b03168156fea265627a7a72315820de4bbdc2b2bc0f02c9b616393f56db0be27c0144022122fba5d0c926e2d782b664736f6c634300050d0032",
  "source": "pragma solidity >=0.5.0 <0.6.0;\n\n// Copyright 2019 OpenST Ltd.\n//\n// Licensed under the Apache License, Version 2.0 (the \"License\");\n// you may not use this file except in compliance with the License.\n// You may obtain a copy of the License at\n//\n//    http://www.apache.org/licenses/LICENSE-2.0\n//\n// Unless required by applicable law or agreed to in writing, software\n// distributed under the License is distributed on an \"AS IS\" BASIS,\n// WITHOUT WARRANTIES OR CONDITIONS OF ANY KIND, either express or implied.\n// See the License for the specific language governing permissions and\n// limitations under the License.\n\nimport \"./StateRootInterface.sol\";\nimport \"../lib/BytesLib.sol\";\nimport \"../lib/CircularBufferUint.sol\";\nimport \"../lib/RLP.sol\";\nimport \"../lib/MerklePatriciaProof.sol\";\n\n/**\n * @title Proof - Contract to prove accounts and storage.\n */\ncontract Proof is CircularBufferUint {\n\n    /* Variables */\n\n    /** Contract address for which the storage is to be proved. */\n    address public storageAccount;\n\n    /** State root provider address. */\n    StateRootInterface public stateRootProvider;\n\n    /** Encoded account path. */\n    bytes public encodedAccountPath;\n\n    /** Maps blockHeight to storageRoot. */\n    mapping(uint256 => bytes32) public storageRoots;\n\n\n    /* Internal Functions */\n\n    /**\n     * @notice Setup the proof contract.\n     *\n     * @param _storageAccount Storage account that will be proved.\n     * @param _stateRootProvider State root provider contract address.\n     * @param _maxStorageRootItems Defines how many storage roots should be\n     *                             stored in circular buffer.\n     *\n     * \\pre The function can be called only once.\n     * \\pre `_storageAccount` must not be zero.\n     * \\pre `_stateRootProvider` must not be zero.\n     *\n     * \\post Sets `storageAccount` storage variable with `_storageAccount`.\n     * \\post Sets `stateRootProvider` storage variable\n     *       with `stateRootProvider`.\n     * \\post Sets `encodedAccountPath` storage variable.\n     *       `encodedAccountPath` is calculated by performing `keccak256` of\n     *       `_storageAccount` and passing it to `BytesLib.bytes32ToBytes`.\n     * \\post It calls `CircularBufferUint.setupCircularBuffer` method.\n     */\n    function setupProof(\n        address _storageAccount,\n        StateRootInterface _stateRootProvider,\n        uint256 _maxStorageRootItems\n    )\n        internal\n    {\n        // Check if this is called only once.\n        require(\n            address(stateRootProvider) == address(0),\n            \"Setup is already done.\"\n        );\n\n        require(\n            _storageAccount != address(0),\n            \"Storage account address is 0.\"\n        );\n\n        require(\n            address(_stateRootProvider) != address(0),\n            \"State root provider address is 0.\"\n        );\n\n        CircularBufferUint.setupCircularBuffer(_maxStorageRootItems);\n\n        storageAccount = _storageAccount;\n        stateRootProvider = _stateRootProvider;\n\n        encodedAccountPath = BytesLib.bytes32ToBytes(\n            keccak256(abi.encodePacked(_storageAccount))\n        );\n    }\n\n    /**\n     *  @notice Verify merkle proof of a storage contract address.\n     *          Trust factor is brought by state roots of the contract which\n     *          implements StateRootInterface.\n     *  @dev Function requires:\n     *          - rlpAccount length must not be zero\n     *          - rlpParentNodes length must not be zero\n     *          - statRoot must not be zero\n     *\n     *  @param _blockHeight Block height at which Gateway/CoGateway is to be\n     *                      proven.\n     *  @param _rlpAccount RLP encoded account node object.\n     *  @param _rlpParentNodes RLP encoded value of account proof parent nodes.\n     *  @return `true` if Gateway account is proved\n     */\n    function proveStorageAccount(\n        uint256 _blockHeight,\n        bytes memory _rlpAccount,\n        bytes memory _rlpParentNodes\n    )\n        internal\n    {\n        // _rlpAccount should be valid\n        require(\n            _rlpAccount.length != 0,\n            \"Length of RLP account must not be 0.\"\n        );\n\n        // _rlpParentNodes should be valid\n        require(\n            _rlpParentNodes.length != 0,\n            \"Length of RLP parent nodes is 0\"\n        );\n\n        bytes32 stateRoot = stateRootProvider.getStateRoot(_blockHeight);\n\n        // State root should be present for the block height\n        require(\n            stateRoot != bytes32(0),\n            \"State root must not be zero\"\n        );\n\n        // If account already proven for block height\n        bytes32 provenStorageRoot = storageRoots[_blockHeight];\n\n        if (provenStorageRoot == bytes32(0)) {\n            bytes32 storageRoot = proveAccount(\n                _rlpAccount,\n                _rlpParentNodes,\n                encodedAccountPath,\n                stateRoot\n            );\n\n            storageRoots[_blockHeight] = storageRoot;\n            uint256 oldestStoredBlockHeight = CircularBufferUint.store(_blockHeight);\n            delete storageRoots[oldestStoredBlockHeight];\n        }\n    }\n\n    /**\n     * @notice Prove the existence of data in the storage contract by providing\n     *         the Merkle proof.\n     *\n     * @dev Function requires:\n     *          - storageRoot must not be zero\n     *          - Merkle proof verification should succeed\n     *\n     * @param _path Storage path\n     * @param _value Storage value.\n     * @param _blockHeight Storage root block height.\n     * @param _rlpParentNodes RLP encoded value of account proof parent nodes.\n     */\n    function proveStorageExistence(\n        bytes memory _path,\n        bytes32 _value,\n        uint256 _blockHeight,\n        bytes memory _rlpParentNodes\n    )\n        internal\n        view\n    {\n        // _rlpParentNodes should be valid.\n        require(\n            _rlpParentNodes.length != 0,\n            \"Length of RLP parent nodes is 0.\"\n        );\n\n        // Get storage root.\n        bytes32 storageRoot = storageRoots[_blockHeight];\n        require(\n            storageRoot != bytes32(0),\n            \"Storage root must not be zero\"\n        );\n\n        // Verify the merkle proof.\n        require(\n            MerklePatriciaProof.verify(\n                _value,\n                _path,\n                _rlpParentNodes,\n                storageRoot\n            ),\n            \"Merkle proof verification failed.\"\n        );\n    }\n\n    /**\n     * @notice Get the storage path of the variable inside the struct.\n     *\n     * @param _index Index of the variable\n     * @param _key Key of variable in case of mapping\n     *\n     * @return storagePath_ Storage path of the variable.\n     */\n    function storagePath(\n        uint8 _index,\n        bytes32 _key\n    )\n        internal\n        pure\n        returns(bytes memory storagePath_)\n    {\n        bytes memory indexBytes = BytesLib.leftPad(\n            BytesLib.bytes32ToBytes(bytes32(uint256(_index)))\n        );\n\n        bytes memory keyBytes = BytesLib.leftPad(BytesLib.bytes32ToBytes(_key));\n        bytes memory path = BytesLib.concat(keyBytes, indexBytes);\n\n        storagePath_ = BytesLib.bytes32ToBytes(\n            keccak256(\n                abi.encodePacked(keccak256(abi.encodePacked(path)))\n            )\n        );\n    }\n\n\n    /* Private Functions */\n\n    /**\n     * @notice Merkle proof verification of account.\n     * @param _rlpAccount RLP encoded data of account.\n     * @param _rlpParentNodes Path from root node to leaf in merkle tree.\n     * @param _encodedPath Encoded path to search account node in merkle tree.\n     * @param _stateRoot State root for given block height.\n     * @return bytes32 Storage path of the variable.\n     */\n    function proveAccount(\n        bytes memory _rlpAccount,\n        bytes memory _rlpParentNodes,\n        bytes memory _encodedPath,\n        bytes32 _stateRoot\n    )\n        private\n        pure\n        returns (bytes32 storageRoot_)\n    {\n        // Decode RLP encoded account value.\n        RLP.RLPItem memory accountItem = RLP.toRLPItem(_rlpAccount);\n\n        // Convert to list.\n        RLP.RLPItem[] memory accountArray = RLP.toList(accountItem);\n\n        // Array 3rd position is storage root.\n        storageRoot_ = RLP.toBytes32(accountArray[2]);\n\n        // Hash the rlpValue value.\n        bytes32 hashedAccount = keccak256(\n            abi.encodePacked(_rlpAccount)\n        );\n\n        /*\n         * Verify the remote OpenST contract against the committed state\n         * root with the state trie Merkle proof.\n         */\n        require(\n            MerklePatriciaProof.verify(\n                hashedAccount,\n                _encodedPath,\n                _rlpParentNodes,\n                _stateRoot\n            ),\n            \"Account proof is not verified.\"\n        );\n    }\n}\n",
  "sourcePath": "/Users/abhay/Documents/projects/abhayforks/mosaic-1/contracts/message-bus/Proof.sol",
  "compiler": {
    "name": "solc",
    "version": "0.5.13+commit.5b0b510c.Emscripten.clang"
  },
  "schemaVersion": "3.0.17",
  "updatedAt": "2020-03-21T06:48:34.735Z",
  "devdoc": {
    "methods": {},
    "title": "Proof - Contract to prove accounts and storage."
  },
  "userdoc": {
    "methods": {}
  }
}