{
  "contractName": "ProofDouble",
  "abi": [
    {
      "constant": true,
      "inputs": [],
      "name": "encodedAccountPath",
      "outputs": [
        {
          "internalType": "bytes",
          "name": "",
          "type": "bytes"
        }
      ],
      "payable": false,
      "stateMutability": "view",
      "type": "function"
    },
    {
      "constant": true,
      "inputs": [],
      "name": "stateRootProvider",
      "outputs": [
        {
          "internalType": "contract StateRootInterface",
          "name": "",
          "type": "address"
        }
      ],
      "payable": false,
      "stateMutability": "view",
      "type": "function"
    },
    {
      "constant": true,
      "inputs": [],
      "name": "storageAccount",
      "outputs": [
        {
          "internalType": "address",
          "name": "",
          "type": "address"
        }
      ],
      "payable": false,
      "stateMutability": "view",
      "type": "function"
    },
    {
      "constant": true,
      "inputs": [
        {
          "internalType": "uint256",
          "name": "",
          "type": "uint256"
        }
      ],
      "name": "storageRoots",
      "outputs": [
        {
          "internalType": "bytes32",
          "name": "",
          "type": "bytes32"
        }
      ],
      "payable": false,
      "stateMutability": "view",
      "type": "function"
    },
    {
      "constant": false,
      "inputs": [
        {
          "internalType": "address",
          "name": "_storageAccount",
          "type": "address"
        },
        {
          "internalType": "contract StateRootInterface",
          "name": "_stateRootProvider",
          "type": "address"
        },
        {
          "internalType": "uint256",
          "name": "_maxStorageRootItems",
          "type": "uint256"
        }
      ],
      "name": "setupProofExternal",
      "outputs": [],
      "payable": false,
      "stateMutability": "nonpayable",
      "type": "function"
    },
    {
      "constant": false,
      "inputs": [
        {
          "internalType": "uint256",
          "name": "_blockHeight",
          "type": "uint256"
        },
        {
          "internalType": "bytes",
          "name": "_rlpAccount",
          "type": "bytes"
        },
        {
          "internalType": "bytes",
          "name": "_rlpParentNodes",
          "type": "bytes"
        }
      ],
      "name": "proveStorageAccountExternal",
      "outputs": [],
      "payable": false,
      "stateMutability": "nonpayable",
      "type": "function"
    },
    {
      "constant": true,
      "inputs": [
        {
          "internalType": "bytes",
          "name": "_path",
          "type": "bytes"
        },
        {
          "internalType": "bytes32",
          "name": "_value",
          "type": "bytes32"
        },
        {
          "internalType": "uint256",
          "name": "_blockHeight",
          "type": "uint256"
        },
        {
          "internalType": "bytes",
          "name": "_rlpParentNodes",
          "type": "bytes"
        }
      ],
      "name": "proveStorageExistenceExternal",
      "outputs": [],
      "payable": false,
      "stateMutability": "view",
      "type": "function"
    },
    {
      "constant": true,
      "inputs": [
        {
          "internalType": "uint8",
          "name": "_index",
          "type": "uint8"
        },
        {
          "internalType": "bytes32",
          "name": "_key",
          "type": "bytes32"
        }
      ],
      "name": "storagePathExternal",
      "outputs": [
        {
          "internalType": "bytes",
          "name": "storagePath_",
          "type": "bytes"
        }
      ],
      "payable": false,
      "stateMutability": "pure",
      "type": "function"
    },
    {
      "constant": false,
      "inputs": [
        {
          "internalType": "uint256",
          "name": "_blockHeight",
          "type": "uint256"
        },
        {
          "internalType": "bytes32",
          "name": "_storageRoot",
          "type": "bytes32"
        }
      ],
      "name": "setStorageRootExternal",
      "outputs": [],
      "payable": false,
      "stateMutability": "nonpayable",
      "type": "function"
    }
  ],
  "bytecode": "0x608060405234801561001057600080fd5b50611c05806100206000396000f3fe608060405234801561001057600080fd5b50600436106100935760003560e01c8063610ebfe211610066578063610ebfe2146101845780638a95e1ae146101b3578063d4d111851461027d578063dcd27dcd14610285578063faa237ef1461034a57610093565b806316ad76b81461009857806320e1855f14610115578063480e008c1461013957806353c161311461015e575b600080fd5b6100a0610380565b6040805160208082528351818301528351919283929083019185019080838360005b838110156100da5781810151838201526020016100c2565b50505050905090810190601f1680156101075780820380516001836020036101000a031916815260200191505b509250505060405180910390f35b61011d61040e565b604080516001600160a01b039092168252519081900360200190f35b61015c6004803603604081101561014f57600080fd5b508035906020013561041d565b005b6100a06004803603604081101561017457600080fd5b5060ff813516906020013561042f565b6101a16004803603602081101561019a57600080fd5b5035610442565b60408051918252519081900360200190f35b61015c600480360360808110156101c957600080fd5b810190602081018135600160201b8111156101e357600080fd5b8201836020820111156101f557600080fd5b803590602001918460018302840111600160201b8311171561021657600080fd5b919390928235926020810135929190606081019060400135600160201b81111561023f57600080fd5b82018360208201111561025157600080fd5b803590602001918460018302840111600160201b8311171561027257600080fd5b509092509050610454565b61011d6104d3565b61015c6004803603606081101561029b57600080fd5b81359190810190604081016020820135600160201b8111156102bc57600080fd5b8201836020820111156102ce57600080fd5b803590602001918460018302840111600160201b831117156102ef57600080fd5b919390929091602081019035600160201b81111561030c57600080fd5b82018360208201111561031e57600080fd5b803590602001918460018302840111600160201b8311171561033f57600080fd5b5090925090506104e2565b61015c6004803603606081101561036057600080fd5b506001600160a01b0381358116916020810135909116906040013561055d565b6004805460408051602060026001851615610100026000190190941693909304601f810184900484028201840190925281815292918301828280156104065780601f106103db57610100808354040283529160200191610406565b820191906000526020600020905b8154815290600101906020018083116103e957829003601f168201915b505050505081565b6002546001600160a01b031681565b60009182526005602052604090912055565b606061043b838361056d565b9392505050565b60056020526000908152604090205481565b6104cb86868080601f01602080910402602001604051908101604052809392919081815260200183838082843760009201919091525050604080516020601f880181900481028201810190925286815289935088925090879087908190840183828082843760009201919091525061064a92505050565b505050505050565b6003546001600160a01b031681565b6105568585858080601f01602080910402602001604051908101604052809392919081815260200183838082843760009201919091525050604080516020601f8901819004810282018101909252878152925087915086908190840183828082843760009201919091525061074592505050565b5050505050565b610568838383610986565b505050565b60608061058461057f60ff8616610b11565b610b3b565b9050606061059461057f85610b11565b905060606105a28284610b76565b9050610640816040516020018082805190602001908083835b602083106105da5780518252601f1990920191602091820191016105bb565b6001836020036101000a038019825116818451168082178552505050505050905001915050604051602081830303815290604052805190602001206040516020018082815260200191505060405160208183030381529060405280519060200120610b11565b9695505050505050565b805161069d576040805162461bcd60e51b815260206004820181905260248201527f4c656e677468206f6620524c5020706172656e74206e6f64657320697320302e604482015290519081900360640190fd5b600082815260056020526040902054806106fe576040805162461bcd60e51b815260206004820152601d60248201527f53746f7261676520726f6f74206d757374206e6f74206265207a65726f000000604482015290519081900360640190fd5b61070a84868484610bee565b6105565760405162461bcd60e51b8152600401808060200182810382526021815260200180611b1b6021913960400191505060405180910390fd5b81516107825760405162461bcd60e51b8152600401808060200182810382526024815260200180611af76024913960400191505060405180910390fd5b80516107d5576040805162461bcd60e51b815260206004820152601f60248201527f4c656e677468206f6620524c5020706172656e74206e6f646573206973203000604482015290519081900360640190fd5b60035460408051631870032760e31b81526004810186905290516000926001600160a01b03169163c3801938916024808301926020929190829003018186803b15801561082157600080fd5b505afa158015610835573d6000803e3d6000fd5b505050506040513d602081101561084b57600080fd5b50519050806108a1576040805162461bcd60e51b815260206004820152601b60248201527f537461746520726f6f74206d757374206e6f74206265207a65726f0000000000604482015290519081900360640190fd5b60008481526005602052604090205480610556576004805460408051602060026001851615610100026000190190941693909304601f8101849004840282018401909252818152600093610951938993899392918301828280156109465780601f1061091b57610100808354040283529160200191610946565b820191906000526020600020905b81548152906001019060200180831161092957829003601f168201915b505050505086610f6d565b600087815260056020526040812082905590915061096e8761107b565b60009081526005602052604081205550505050505050565b6003546001600160a01b0316156109dd576040805162461bcd60e51b815260206004820152601660248201527529b2ba3ab81034b99030b63932b0b23c903237b7329760511b604482015290519081900360640190fd5b6001600160a01b038316610a38576040805162461bcd60e51b815260206004820152601d60248201527f53746f72616765206163636f756e74206164647265737320697320302e000000604482015290519081900360640190fd5b6001600160a01b038216610a7d5760405162461bcd60e51b8152600401808060200182810382526021815260200180611b3c6021913960400191505060405180910390fd5b610a86816110c2565b600280546001600160a01b038086166001600160a01b0319928316179092556003805492851692909116919091179055604080516bffffffffffffffffffffffff19606086901b166020808301919091528251808303601401815260349092019092528051910120610af790610b11565b8051610b0b916004916020909101906119fd565b50505050565b60408051602080825281830190925260609160208201818038833950505060208101929092525090565b60608082516020036040519080825280601f01601f191660200182016040528015610b6d576020820181803883390190505b50905061043b81845b60606040519050825180825260208201818101602086015b81831015610ba6578051835260209283019201610b8e565b50845184518101855292509050808201602085015b81831015610bd3578051835260209283019201610bbb565b50601f19601f87518501158301011660405250505092915050565b6000610bf8611a7b565b610c0184611150565b90506060610c0e82611199565b905060608085600082610c208b61124b565b9050805160001415610c3c576000975050505050505050610f65565b60005b8651811015610f5c578151831115610c6257600098505050505050505050610f65565b610c7e878281518110610c7157fe5b60200260200101516112c6565b9550856040516020018082805190602001908083835b60208310610cb35780518252601f199092019160209182019101610c94565b6001836020036101000a038019825116818451168082178552505050505050905001915050604051602081830303815290604052805190602001208414610d0557600098505050505050505050610f65565b610d21878281518110610d1457fe5b6020026020010151611199565b9450845160111415610e3c578151831415610ddc578c610d4786601081518110610c7157fe5b6040516020018082805190602001908083835b60208310610d795780518252601f199092019160209182019101610d5a565b6001836020036101000a038019825116818451168082178552505050505050905001915050604051602081830303815290604052805190602001201415610dcb57600198505050505050505050610f65565b600098505050505050505050610f65565b6000828481518110610dea57fe5b016020015160f81c90506010811115610e0f5760009950505050505050505050610f65565b610e2e868260ff1681518110610e2157fe5b6020026020010151611316565b945060018401935050610f54565b845160021415610dcb576000610e6f610e6887600081518110610e5b57fe5b6020026020010151611327565b848661138c565b905082518185011415610f24578d610e8d87600181518110610e5b57fe5b6040516020018082805190602001908083835b60208310610ebf5780518252601f199092019160209182019101610ea0565b6001836020036101000a038019825116818451168082178552505050505050905001915050604051602081830303815290604052805190602001201415610f125760019950505050505050505050610f65565b60009950505050505050505050610f65565b80610f3b5760009950505050505050505050610f65565b8084019350610f5086600181518110610e2157fe5b9450505b600101610c3f565b50505050505050505b949350505050565b6000610f77611a7b565b610f8086611150565b90506060610f8d82611199565b9050610f9f81600281518110610e2157fe5b92506000876040516020018082805190602001908083835b60208310610fd65780518252601f199092019160209182019101610fb7565b6001836020036101000a03801982511681845116808217855250505050505090500191505060405160208183030381529060405280519060200120905061101f81878988610bee565b611070576040805162461bcd60e51b815260206004820152601e60248201527f4163636f756e742070726f6f66206973206e6f742076657269666965642e0000604482015290519081900360640190fd5b505050949350505050565b600061108561151d565b60006001548154811061109457fe5b90600052602060002001549050816000600154815481106110b157fe5b600091825260209091200155919050565b600081116111015760405162461bcd60e51b815260040180806020018281038252604d815260200180611b84604d913960600191505060405180910390fd5b600054156111405760405162461bcd60e51b8152600401808060200182810382526027815260200180611b5d6027913960400191505060405180910390fd5b8061114c600082611a95565b5050565b611158611a7b565b81518061117a5750506040805180820190915260008082526020820152611194565b604080518082019091526020848101825281019190915290505b919050565b60606111a482611538565b6111ad57600080fd5b60006111b88361155f565b9050806040519080825280602002602001820160405280156111f457816020015b6111e1611a7b565b8152602001906001900390816111d95790505b5091506111ff611ab9565b611208846115b9565b905060005b611216826115f0565b15611243576112248261160f565b84828151811061123057fe5b602090810291909101015260010161120d565b505050919050565b606081516002026040519080825280601f01601f19166020018201604052801561127c576020820181803883390190505b50905060005b81518110156112c0576112958184611653565b8282815181106112a157fe5b60200101906001600160f81b031916908160001a905350600101611282565b50919050565b6020810151606090806112d95750611194565b806040519080825280601f01601f191660200182016040528015611304576020820181803883390190505b5091506112c0836000015183836116b0565b6000611321826116e0565b92915050565b606061133282611730565b61133b57600080fd5b60008061134784611756565b60408051828152601f19601f84011681016020019091529193509150818015611377576020820181803883390190505b5092506113858284836116b0565b5050919050565b60006060611399856117c6565b9050606081516040519080825280601f01601f1916602001820160405280156113c9576020820181803883390190505b509050835b825185018110156114235760008682815181106113e757fe5b602001015160f81c60f81b905080838784038151811061140357fe5b60200101906001600160f81b031916908160001a905350506001016113ce565b50806040516020018082805190602001908083835b602083106114575780518252601f199092019160209182019101611438565b6001836020036101000a03801982511681845116808217855250505050505090500191505060405160208183030381529060405280519060200120826040516020018082805190602001908083835b602083106114c55780518252601f1990920191602091820191016114a6565b6001836020036101000a03801982511681845116808217855250505050505090500191505060405160208183030381529060405280519060200120141561150f5781519250611514565b600092505b50509392505050565b6001805481019081905560005414156115365760006001555b565b600081602001516000141561154f57506000611194565b50515160c060009190911a101590565b600061156a82611538565b61157657506000611194565b81518051600090811a919061158a856118f2565b6020860151908301915082016000190160005b818311610640576115ad83611970565b9092019160010161159d565b6115c1611ab9565b6115ca82611538565b6115d357600080fd5b60006115de836118f2565b83519383529092016020820152919050565b60006115fa611a7b565b50508051602080820151915192015191011190565b611617611a7b565b611620826115f0565b61162957600080fd5b6020820151600061163982611970565b828452602080850182905292019390910192909252919050565b6000600283061561168457601082600285048151811061166f57fe5b016020015160f81c8161167e57fe5b066116a6565b601082600285048151811061169557fe5b016020015160f81c816116a457fe5b045b60f81b9392505050565b6000601f820184602085015b828410156116d75783820151848201526020840193506116bc565b50505050505050565b60006116eb82611730565b6116f457600080fd5b60008061170084611756565b90925090506020811180611712575080155b1561171c57600080fd5b806020036101000a82510492505050919050565b600081602001516000141561174757506000611194565b50515160c060009190911a1090565b60008061176283611730565b61176b57600080fd5b8251805160001a906080821015611789579250600191506117c19050565b60b88210156117a757600185602001510392508060010193506117be565b602085015182820160b51901945082900360b60192505b50505b915091565b805160609015611194576000806117de600085611653565b60f81c905060018114806117f557508060ff166003145b1561186d5760018451600202036040519080825280601f01601f19166020018201604052801561182c576020820181803883390190505b509250600061183c600186611653565b9050808460008151811061184c57fe5b60200101906001600160f81b031916908160001a90535060019250506118a7565b60028451600202036040519080825280601f01601f19166020018201604052801561189f576020820181803883390190505b509250600091505b60ff82165b8351811015611243576118c78360ff16820360020186611653565b8482815181106118d357fe5b60200101906001600160f81b031916908160001a9053506001016118ac565b600081602001516000141561190957506000611194565b8151805160001a90608082101561192557600092505050611194565b60b8821080611940575060c08210158015611940575060f882105b1561195057600192505050611194565b60c0821015611965575060b519019050611194565b5060f5190192915050565b8051600090811a608081101561198957600191506112c0565b60b881101561199e57607e19810191506112c0565b60c08110156119c757600183015160b76020839003016101000a9004810160b5190191506112c0565b60f88110156119dc5760be19810191506112c0565b6001929092015160f76020849003016101000a900490910160f51901919050565b828054600181600116156101000203166002900490600052602060002090601f016020900481019282601f10611a3e57805160ff1916838001178555611a6b565b82800160010185558215611a6b579182015b82811115611a6b578251825591602001919060010190611a50565b50611a77929150611ad9565b5090565b604051806040016040528060008152602001600081525090565b81548183558181111561056857600083815260209020610568918101908301611ad9565b6040518060400160405280611acc611a7b565b8152602001600081525090565b611af391905b80821115611a775760008155600101611adf565b9056fe4c656e677468206f6620524c50206163636f756e74206d757374206e6f7420626520302e4d65726b6c652070726f6f6620766572696669636174696f6e206661696c65642e537461746520726f6f742070726f7669646572206164647265737320697320302e43697263756c6172206275666665722073697a652063616e206265207365747570206f6e63652e546865206d6178206e756d626572206f66206974656d7320746f2073746f726520696e20612063697263756c617220627566666572206d7573742062652067726561746572207468616e20302ea265627a7a72315820d7cd9e03fa727fcef671886c457e5baa4e288e0f407b4fa4ea962be5cd48ba9164736f6c634300050d0032",
  "source": "pragma solidity >=0.5.0 <0.6.0;\n\n// Copyright 2020 OpenST Ltd.\n//\n// Licensed under the Apache License, Version 2.0 (the \"License\");\n// you may not use this file except in compliance with the License.\n// You may obtain a copy of the License at\n//\n//    http://www.apache.org/licenses/LICENSE-2.0\n//\n// Unless required by applicable law or agreed to in writing, software\n// distributed under the License is distributed on an \"AS IS\" BASIS,\n// WITHOUT WARRANTIES OR CONDITIONS OF ANY KIND, either express or implied.\n// See the License for the specific language governing permissions and\n// limitations under the License.\n\nimport \"../../message-bus/Proof.sol\";\n\n/**\n * @title ProofDouble - Contract to test Proof contract.\n */\ncontract ProofDouble is Proof {\n\n    /* External Functions */\n\n    /**\n     * @notice It is used to test Proof::setupProof\n     */\n    function setupProofExternal(\n        address _storageAccount,\n        StateRootInterface _stateRootProvider,\n        uint256 _maxStorageRootItems\n    )\n        external\n    {\n        Proof.setupProof(\n            _storageAccount,\n            _stateRootProvider,\n            _maxStorageRootItems\n        );\n    }\n\n    /**\n     * @notice It is used to test Proof::proveStorageAccount\n     */\n    function proveStorageAccountExternal(\n        uint256 _blockHeight,\n        bytes calldata _rlpAccount,\n        bytes calldata _rlpParentNodes\n    )\n        external\n    {\n        Proof.proveStorageAccount(\n            _blockHeight,\n            _rlpAccount,\n            _rlpParentNodes\n        );\n    }\n\n    /**\n     * @notice It is used to test Proof::proveStorageExistence\n     */\n    function proveStorageExistenceExternal(\n        bytes calldata _path,\n        bytes32 _value,\n        uint256 _blockHeight,\n        bytes calldata _rlpParentNodes\n    )\n        external\n        view\n    {\n        Proof.proveStorageExistence(\n            _path,\n            _value,\n            _blockHeight,\n            _rlpParentNodes\n        );\n    }\n\n    /**\n     * @notice It is used to test Proof::storagePath\n     */\n    function storagePathExternal(\n        uint8 _index,\n        bytes32 _key\n    )\n        external\n        pure\n        returns(bytes memory storagePath_)\n    {\n        storagePath_ = Proof.storagePath(\n            _index,\n            _key\n        );\n    }\n\n    /**\n     * @notice It is used to set the storage root for _blockHeight\n     *\n     * @param _blockHeight Block height for which the storage root will be set\n     * @param _storageRoot Storage root\n     */\n    function setStorageRootExternal(\n        uint256 _blockHeight,\n        bytes32 _storageRoot\n    )\n        external\n    {\n        Proof.storageRoots[_blockHeight] = _storageRoot;\n    }\n}\n",
  "sourcePath": "/Users/abhay/Documents/projects/abhayforks/mosaic-1/contracts/test/message_bus/ProofDouble.sol",
  "compiler": {
    "name": "solc",
    "version": "0.5.13+commit.5b0b510c.Emscripten.clang"
  },
  "schemaVersion": "3.0.17",
  "updatedAt": "2020-03-21T06:48:34.811Z",
  "devdoc": {
    "methods": {
      "setStorageRootExternal(uint256,bytes32)": {
        "params": {
          "_blockHeight": "Block height for which the storage root will be set",
          "_storageRoot": "Storage root"
        }
      }
    },
    "title": "ProofDouble - Contract to test Proof contract."
  },
  "userdoc": {
    "methods": {
      "proveStorageAccountExternal(uint256,bytes,bytes)": {
        "notice": "It is used to test Proof::proveStorageAccount"
      },
      "proveStorageExistenceExternal(bytes,bytes32,uint256,bytes)": {
        "notice": "It is used to test Proof::proveStorageExistence"
      },
      "setStorageRootExternal(uint256,bytes32)": {
        "notice": "It is used to set the storage root for _blockHeight"
      },
      "setupProofExternal(address,address,uint256)": {
        "notice": "It is used to test Proof::setupProof"
      },
      "storagePathExternal(uint8,bytes32)": {
        "notice": "It is used to test Proof::storagePath"
      }
    }
  }
}