{
  "contractName": "ProxyDeployer",
  "abi": [
    {
      "anonymous": false,
      "inputs": [
        {
          "indexed": false,
          "internalType": "contract Proxy",
          "name": "proxy",
          "type": "address"
        }
      ],
      "name": "ProxyCreation",
      "type": "event"
    },
    {
      "constant": false,
      "inputs": [
        {
          "internalType": "address",
          "name": "_masterCopy",
          "type": "address"
        },
        {
          "internalType": "bytes",
          "name": "_data",
          "type": "bytes"
        }
      ],
      "name": "deployProxy",
      "outputs": [
        {
          "internalType": "contract Proxy",
          "name": "proxy_",
          "type": "address"
        }
      ],
      "payable": false,
      "stateMutability": "nonpayable",
      "type": "function"
    }
  ],
  "bytecode": "0x608060405234801561001057600080fd5b50610349806100206000396000f3fe608060405234801561001057600080fd5b506004361061002b5760003560e01c80639f5eed7514610030575b600080fd5b6100b06004803603604081101561004657600080fd5b6001600160a01b03823516919081019060408101602082013564010000000081111561007157600080fd5b82018360208201111561008357600080fd5b803590602001918460018302840111640100000000831117156100a557600080fd5b5090925090506100cc565b604080516001600160a01b039092168252519081900360200190f35b600061010e8484848080601f01602080910402602001604051908101604052809392919081815260200183838082843760009201919091525061011692505050565b949350505050565b600082604051610125906101ba565b6001600160a01b03909116815260405190819003602001906000f080158015610152573d6000803e3d6000fd5b508251909150156101785760008060008451602086016000865af1141561017857600080fd5b604080516001600160a01b038316815290517fa38789425dbeee0239e16ff2d2567e31720127fbc6430758c1a4efc6aef29f809181900360200190a192915050565b61014d806101c88339019056fe608060405234801561001057600080fd5b5060405161014d38038061014d8339818101604052602081101561003357600080fd5b50516001600160a01b038116610094576040517f08c379a00000000000000000000000000000000000000000000000000000000081526004018080602001828103825260248152602001806101296024913960400191505060405180910390fd5b600080546001600160a01b039092166001600160a01b03199092169190911790556066806100c36000396000f3fe60806040526001600160a01b03600054163660008037600080366000845af43d6000803e80602c573d6000fd5b3d6000f3fea265627a7a723158201bcbc87e2e88421c4e9851d9787d03de469d31caee30ebab16842537c81dbe6664736f6c634300050d0032496e76616c6964206d617374657220636f707920616464726573732070726f7669646564a265627a7a723158207ea54cd307d2d249211a32a8829f2f92fde882e37b7bbf758cd0ed606843445064736f6c634300050d0032",
  "source": "pragma solidity >=0.5.0 <0.6.0;\n\n// Copyright 2019 OpenST Ltd.\n//\n// Licensed under the Apache License, Version 2.0 (the \"License\");\n// you may not use this file except in compliance with the License.\n// You may obtain a copy of the License at\n//\n//    http://www.apache.org/licenses/LICENSE-2.0\n//\n// Unless required by applicable law or agreed to in writing, software\n// distributed under the License is distributed on an \"AS IS\" BASIS,\n// WITHOUT WARRANTIES OR CONDITIONS OF ANY KIND, either express or implied.\n// See the License for the specific language governing permissions and\n// limitations under the License.\n\nimport \"./ProxyFactory.sol\";\n\n/**\n * @notice Proxy deployer contract helps to create new proxy contact and\n *         execute a message call to the new proxy within one transaction.\n */\ncontract ProxyDeployer is ProxyFactory {\n\n    /* External Functions */\n\n    /**\n     * @notice Deploy a new proxy contract.\n     *\n     * @param _masterCopy Address of master copy contract.\n     * @param _data Message call data.\n     *\n     * @return proxy_ A newly deployed proxy contract address.\n     */\n    function deployProxy(address _masterCopy, bytes calldata _data)\n        external\n        returns (Proxy proxy_)\n    {\n        proxy_ = ProxyFactory.createProxy(_masterCopy, _data);\n    }\n}\n",
  "sourcePath": "/Users/abhay/Documents/projects/abhayforks/mosaic-1/contracts/proxies/ProxyDeployer.sol",
  "compiler": {
    "name": "solc",
    "version": "0.5.13+commit.5b0b510c.Emscripten.clang"
  },
  "schemaVersion": "3.0.17",
  "updatedAt": "2020-03-21T06:48:34.762Z",
  "devdoc": {
    "methods": {
      "deployProxy(address,bytes)": {
        "params": {
          "_data": "Message call data.",
          "_masterCopy": "Address of master copy contract."
        },
        "return": "proxy_ A newly deployed proxy contract address."
      }
    }
  },
  "userdoc": {
    "methods": {
      "deployProxy(address,bytes)": {
        "notice": "Deploy a new proxy contract."
      }
    },
    "notice": "Proxy deployer contract helps to create new proxy contact and        execute a message call to the new proxy within one transaction."
  }
}