{
  "contractName": "Reputation",
  "abi": [
    {
      "constant": true,
      "inputs": [],
      "name": "MAX_UINT256",
      "outputs": [
        {
          "internalType": "uint256",
          "name": "",
          "type": "uint256"
        }
      ],
      "payable": false,
      "stateMutability": "view",
      "type": "function"
    },
    {
      "constant": true,
      "inputs": [],
      "name": "burner",
      "outputs": [
        {
          "internalType": "address",
          "name": "",
          "type": "address"
        }
      ],
      "payable": false,
      "stateMutability": "view",
      "type": "function"
    },
    {
      "constant": true,
      "inputs": [],
      "name": "cashableEarningsPerMille",
      "outputs": [
        {
          "internalType": "uint256",
          "name": "",
          "type": "uint256"
        }
      ],
      "payable": false,
      "stateMutability": "view",
      "type": "function"
    },
    {
      "constant": true,
      "inputs": [],
      "name": "consensus",
      "outputs": [
        {
          "internalType": "contract ConsensusInterface",
          "name": "",
          "type": "address"
        }
      ],
      "payable": false,
      "stateMutability": "view",
      "type": "function"
    },
    {
      "constant": true,
      "inputs": [],
      "name": "initialReputation",
      "outputs": [
        {
          "internalType": "uint256",
          "name": "",
          "type": "uint256"
        }
      ],
      "payable": false,
      "stateMutability": "view",
      "type": "function"
    },
    {
      "constant": true,
      "inputs": [],
      "name": "most",
      "outputs": [
        {
          "internalType": "contract ERC20I",
          "name": "",
          "type": "address"
        }
      ],
      "payable": false,
      "stateMutability": "view",
      "type": "function"
    },
    {
      "constant": true,
      "inputs": [],
      "name": "stakeMOSTAmount",
      "outputs": [
        {
          "internalType": "uint256",
          "name": "",
          "type": "uint256"
        }
      ],
      "payable": false,
      "stateMutability": "view",
      "type": "function"
    },
    {
      "constant": true,
      "inputs": [],
      "name": "stakeWETHAmount",
      "outputs": [
        {
          "internalType": "uint256",
          "name": "",
          "type": "uint256"
        }
      ],
      "payable": false,
      "stateMutability": "view",
      "type": "function"
    },
    {
      "constant": true,
      "inputs": [
        {
          "internalType": "address",
          "name": "",
          "type": "address"
        }
      ],
      "name": "validators",
      "outputs": [
        {
          "internalType": "enum Reputation.ValidatorStatus",
          "name": "status",
          "type": "uint8"
        },
        {
          "internalType": "address",
          "name": "withdrawalAddress",
          "type": "address"
        },
        {
          "internalType": "uint256",
          "name": "reputation",
          "type": "uint256"
        },
        {
          "internalType": "uint256",
          "name": "lockedEarnings",
          "type": "uint256"
        },
        {
          "internalType": "uint256",
          "name": "cashableEarnings",
          "type": "uint256"
        },
        {
          "internalType": "uint256",
          "name": "withdrawalBlockHeight",
          "type": "uint256"
        }
      ],
      "payable": false,
      "stateMutability": "view",
      "type": "function"
    },
    {
      "constant": true,
      "inputs": [],
      "name": "wETH",
      "outputs": [
        {
          "internalType": "contract ERC20I",
          "name": "",
          "type": "address"
        }
      ],
      "payable": false,
      "stateMutability": "view",
      "type": "function"
    },
    {
      "constant": true,
      "inputs": [],
      "name": "withdrawalCooldownPeriodInBlocks",
      "outputs": [
        {
          "internalType": "uint256",
          "name": "",
          "type": "uint256"
        }
      ],
      "payable": false,
      "stateMutability": "view",
      "type": "function"
    },
    {
      "constant": false,
      "inputs": [
        {
          "internalType": "contract ConsensusInterface",
          "name": "_consensus",
          "type": "address"
        },
        {
          "internalType": "contract ERC20I",
          "name": "_most",
          "type": "address"
        },
        {
          "internalType": "uint256",
          "name": "_stakeMOSTAmount",
          "type": "uint256"
        },
        {
          "internalType": "contract ERC20I",
          "name": "_wETH",
          "type": "address"
        },
        {
          "internalType": "uint256",
          "name": "_stakeWETHAmount",
          "type": "uint256"
        },
        {
          "internalType": "uint256",
          "name": "_cashableEarningsPerMille",
          "type": "uint256"
        },
        {
          "internalType": "uint256",
          "name": "_initialReputation",
          "type": "uint256"
        },
        {
          "internalType": "uint256",
          "name": "_withdrawalCooldownPeriodInBlocks",
          "type": "uint256"
        }
      ],
      "name": "setup",
      "outputs": [],
      "payable": false,
      "stateMutability": "nonpayable",
      "type": "function"
    },
    {
      "constant": false,
      "inputs": [
        {
          "internalType": "address",
          "name": "_validator",
          "type": "address"
        },
        {
          "internalType": "uint256",
          "name": "_delta",
          "type": "uint256"
        }
      ],
      "name": "increaseReputation",
      "outputs": [
        {
          "internalType": "uint256",
          "name": "",
          "type": "uint256"
        }
      ],
      "payable": false,
      "stateMutability": "nonpayable",
      "type": "function"
    },
    {
      "constant": false,
      "inputs": [
        {
          "internalType": "address",
          "name": "_validator",
          "type": "address"
        },
        {
          "internalType": "uint256",
          "name": "_delta",
          "type": "uint256"
        }
      ],
      "name": "decreaseReputation",
      "outputs": [
        {
          "internalType": "uint256",
          "name": "",
          "type": "uint256"
        }
      ],
      "payable": false,
      "stateMutability": "nonpayable",
      "type": "function"
    },
    {
      "constant": false,
      "inputs": [
        {
          "internalType": "address",
          "name": "_validator",
          "type": "address"
        },
        {
          "internalType": "uint256",
          "name": "_amount",
          "type": "uint256"
        }
      ],
      "name": "depositEarnings",
      "outputs": [],
      "payable": false,
      "stateMutability": "nonpayable",
      "type": "function"
    },
    {
      "constant": false,
      "inputs": [
        {
          "internalType": "uint256",
          "name": "_amount",
          "type": "uint256"
        }
      ],
      "name": "cashOutEarnings",
      "outputs": [],
      "payable": false,
      "stateMutability": "nonpayable",
      "type": "function"
    },
    {
      "constant": false,
      "inputs": [
        {
          "internalType": "address",
          "name": "_validator",
          "type": "address"
        },
        {
          "internalType": "address",
          "name": "_withdrawalAddress",
          "type": "address"
        }
      ],
      "name": "stake",
      "outputs": [
        {
          "internalType": "uint256",
          "name": "reputation_",
          "type": "uint256"
        }
      ],
      "payable": false,
      "stateMutability": "nonpayable",
      "type": "function"
    },
    {
      "constant": false,
      "inputs": [
        {
          "internalType": "address",
          "name": "_validator",
          "type": "address"
        }
      ],
      "name": "deregister",
      "outputs": [
        {
          "internalType": "uint256",
          "name": "",
          "type": "uint256"
        }
      ],
      "payable": false,
      "stateMutability": "nonpayable",
      "type": "function"
    },
    {
      "constant": false,
      "inputs": [
        {
          "internalType": "address",
          "name": "_validator",
          "type": "address"
        }
      ],
      "name": "withdraw",
      "outputs": [],
      "payable": false,
      "stateMutability": "nonpayable",
      "type": "function"
    },
    {
      "constant": true,
      "inputs": [
        {
          "internalType": "address",
          "name": "_validator",
          "type": "address"
        }
      ],
      "name": "getReputation",
      "outputs": [
        {
          "internalType": "uint256",
          "name": "",
          "type": "uint256"
        }
      ],
      "payable": false,
      "stateMutability": "view",
      "type": "function"
    },
    {
      "constant": true,
      "inputs": [
        {
          "internalType": "address",
          "name": "_validator",
          "type": "address"
        }
      ],
      "name": "isSlashed",
      "outputs": [
        {
          "internalType": "bool",
          "name": "",
          "type": "bool"
        }
      ],
      "payable": false,
      "stateMutability": "view",
      "type": "function"
    }
  ],
  "bytecode": "0x608060405234801561001057600080fd5b50611b4f806100206000396000f3fe608060405234801561001057600080fd5b50600436106101375760003560e01c806388475054116100b8578063dd2795e71161007c578063dd2795e714610309578063ded86d6814610311578063e927ba021461033d578063ed9fa61b1461035a578063f242862114610386578063fa52c7d81461038e57610137565b8063884750541461026d5780638ef3f761146102995780639c89a0e2146102a1578063b799036c146102c7578063b97e4bde1461030157610137565b806351cff8d9116100ff57806351cff8d9146101e357806358d7889c14610209578063808615ac1461021157806381e6de401461023f57806384ac33ec1461024757610137565b806301f410ec1461013c578063095459871461015657806327810b6e1461015e57806333a581d214610182578063388920921461018a575b600080fd5b610144610401565b60408051918252519081900360200190f35b610144610407565b61016661040d565b604080516001600160a01b039092168252519081900360200190f35b610144610412565b6101e160048036036101008110156101a157600080fd5b506001600160a01b038135811691602081013582169160408201359160608101359091169060808101359060a08101359060c08101359060e00135610418565b005b6101e1600480360360208110156101f957600080fd5b50356001600160a01b0316610690565b610166610a62565b6101446004803603604081101561022757600080fd5b506001600160a01b0381358116916020013516610a71565b610144610e65565b6101446004803603602081101561025d57600080fd5b50356001600160a01b0316610e6b565b6101e16004803603604081101561028357600080fd5b506001600160a01b038135169060200135610f6f565b610166611139565b610144600480360360208110156102b757600080fd5b50356001600160a01b0316611148565b6102ed600480360360208110156102dd57600080fd5b50356001600160a01b0316611166565b604080519115158252519081900360200190f35b610144611198565b61014461119e565b6101446004803603604081101561032757600080fd5b506001600160a01b0381351690602001356111a4565b6101e16004803603602081101561035357600080fd5b50356112a5565b6101446004803603604081101561037057600080fd5b506001600160a01b038135169060200135611523565b610166611637565b6103b4600480360360208110156103a457600080fd5b50356001600160a01b0316611646565b604051808760048111156103c457fe5b60ff1681526001600160a01b039096166020870152506040808601949094526060850192909252608084015260a0830152519081900360c0019150f35b60085481565b60065481565b600181565b60001981565b6002546001600160a01b031615801561043a57506003546001600160a01b0316155b61048b576040805162461bcd60e51b815260206004820152601c60248201527f52657075746174696f6e20697320616c72656164792073657475702e00000000604482015290519081900360640190fd5b6001600160a01b0387166104e6576040805162461bcd60e51b815260206004820152601860248201527f4d4f535420746f6b656e206164647265737320697320302e0000000000000000604482015290519081900360640190fd5b6001600160a01b038516610541576040805162461bcd60e51b815260206004820152601860248201527f7745544820746f6b656e206164647265737320697320302e0000000000000000604482015290519081900360640190fd5b600086116105805760405162461bcd60e51b81526004018080602001828103825260258152602001806119ea6025913960400191505060405180910390fd5b600084116105bf5760405162461bcd60e51b815260040180806020018281038252602581526020018061191f6025913960400191505060405180910390fd5b6103e88311156106005760405162461bcd60e51b81526004018080602001828103825260338152602001806118ec6033913960400191505060405180910390fd5b6000811161063f5760405162461bcd60e51b815260040180806020018281038252603f815260200180611a0f603f913960400191505060405180910390fd5b61064888611684565b600280546001600160a01b039889166001600160a01b031991821617909155600380549690981695169490941790955560049390935560055560079290925560065560085550565b8060036001600160a01b03821660009081526009602052604090205460ff1660048111156106ba57fe5b101561070d576040805162461bcd60e51b815260206004820152601f60248201527f56616c696461746f7220686173206e6f74206465726567697374657265642e00604482015290519081900360640190fd5b8160026001600160a01b03821660009081526009602052604090205460ff16600481111561073757fe5b1015610785576040805162461bcd60e51b81526020600482015260186024820152772b30b634b230ba37b91034b9903737ba103437b732b9ba1760411b604482015290519081900360640190fd5b8260046001600160a01b03821660009081526009602052604090205460ff1660048111156107af57fe5b14156107fd576040805162461bcd60e51b81526020600482015260186024820152772b30b634b230ba37b9103430b9903bb4ba34323930bbb71760411b604482015290519081900360640190fd5b6001600160a01b038416600090815260096020526040902060040154849043116108585760405162461bcd60e51b815260040180806020018281038252602b815260200180611968602b913960400191505060405180910390fd5b6001600160a01b03851660009081526009602052604090208054600490829060ff1916600183021790555060028082018054600384018054600093849055929055915483546004546001600160a01b039283169263a9059cbb92610100900416906108db9085906108cf908863ffffffff61173316565b9063ffffffff61173316565b6040518363ffffffff1660e01b815260040180836001600160a01b03166001600160a01b0316815260200182815260200192505050602060405180830381600087803b15801561092a57600080fd5b505af115801561093e573d6000803e3d6000fd5b505050506040513d602081101561095457600080fd5b50516109915760405162461bcd60e51b815260040180806020018281038252603281526020018061180f6032913960400191505060405180910390fd5b60035483546005546040805163a9059cbb60e01b81526101009093046001600160a01b03908116600485015260248401929092525192169163a9059cbb916044808201926020929091908290030181600087803b1580156109f157600080fd5b505af1158015610a05573d6000803e3d6000fd5b505050506040513d6020811015610a1b57600080fd5b5051610a585760405162461bcd60e51b8152600401808060200182810382526026815260200180611a816026913960400191505060405180910390fd5b5050505050505050565b6002546001600160a01b031681565b6001546000906001600160a01b03163314610abd5760405162461bcd60e51b8152600401808060200182810382526033815260200180611a4e6033913960400191505060405180910390fd5b6001600160a01b038316610b18576040805162461bcd60e51b815260206004820152601760248201527f56616c696461746f72206164647265737320697320302e000000000000000000604482015290519081900360640190fd5b6001600160a01b038216610b5d5760405162461bcd60e51b81526004018080602001828103825260248152602001806119446024913960400191505060405180910390fd5b816001600160a01b0316836001600160a01b03161415610bae5760405162461bcd60e51b815260040180806020018281038252603a81526020018061187c603a913960400191505060405180910390fd5b6001600160a01b03831660009081526009602052604081205460ff166004811115610bd557fe5b14610c27576040805162461bcd60e51b815260206004820152601d60248201527f4e6f2076616c696461746f722063616e207374616b6520616761696e2e000000604482015290519081900360640190fd5b6001600160a01b03821660009081526009602052604081205460ff166004811115610c4e57fe5b14610c8a5760405162461bcd60e51b815260040180806020018281038252603d8152602001806117ad603d913960400191505060405180910390fd5b6001600160a01b038381166000818152600960209081526040808320805488871661010002600260ff199092168217610100600160a81b03191617825560075460018301556000196004808401919091559054815484516323b872dd60e01b81529283019790975230602483015260448201969096529151909594909416936323b872dd93606480840194938390030190829087803b158015610d2c57600080fd5b505af1158015610d40573d6000803e3d6000fd5b505050506040513d6020811015610d5657600080fd5b5051610d935760405162461bcd60e51b81526004018080602001828103825260368152602001806118b66036913960400191505060405180910390fd5b600354600554604080516323b872dd60e01b81526001600160a01b0388811660048301523060248301526044820193909352905191909216916323b872dd9160648083019260209291908290030181600087803b158015610df357600080fd5b505af1158015610e07573d6000803e3d6000fd5b505050506040513d6020811015610e1d57600080fd5b5051610e5a5760405162461bcd60e51b8152600401808060200182810382526036815260200180611ae56036913960400191505060405180910390fd5b505060075492915050565b60075481565b6001546000906001600160a01b03163314610eb75760405162461bcd60e51b8152600401808060200182810382526033815260200180611a4e6033913960400191505060405180910390fd5b8160026001600160a01b03821660009081526009602052604090205460ff166004811115610ee157fe5b14610f2e576040805162461bcd60e51b81526020600482015260186024820152772b30b634b230ba37b91034b9903737ba1030b1ba34bb329760411b604482015290519081900360640190fd5b6001600160a01b0383166000908152600960205260409020805460ff19166003178155600854610f5f904390611733565b6004909101819055915050919050565b8160026001600160a01b03821660009081526009602052604090205460ff166004811115610f9957fe5b14610fe6576040805162461bcd60e51b81526020600482015260186024820152772b30b634b230ba37b91034b9903737ba1030b1ba34bb329760411b604482015290519081900360640190fd5b6001600160a01b0383166000908152600960205260408120600654909190611029906103e89061101d90879063ffffffff61174e16565b9063ffffffff61177516565b6003830154909150611041908263ffffffff61173316565b600383015561106a611059858363ffffffff61179716565b60028401549063ffffffff61173316565b60028084019190915554604080516323b872dd60e01b81523360048201523060248201526044810187905290516001600160a01b03909216916323b872dd916064808201926020929091908290030181600087803b1580156110cb57600080fd5b505af11580156110df573d6000803e3d6000fd5b505050506040513d60208110156110f557600080fd5b50516111325760405162461bcd60e51b81526004018080602001828103825260348152602001806119936034913960400191505060405180910390fd5b5050505050565b6001546001600160a01b031681565b6001600160a01b031660009081526009602052604090206001015490565b600060016001600160a01b03831660009081526009602052604090205460ff16600481111561119157fe5b1492915050565b60045481565b60055481565b6001546000906001600160a01b031633146111f05760405162461bcd60e51b8152600401808060200182810382526033815260200180611a4e6033913960400191505060405180910390fd5b8260026001600160a01b03821660009081526009602052604090205460ff16600481111561121a57fe5b14611267576040805162461bcd60e51b81526020600482015260186024820152772b30b634b230ba37b91034b9903737ba1030b1ba34bb329760411b604482015290519081900360640190fd5b6001600160a01b03841660009081526009602052604090206001810154611294908563ffffffff61173316565b600190910181905591505092915050565b3360008181526009602052604081205460ff1660048111156112c357fe5b1415611316576040805162461bcd60e51b815260206004820152601960248201527f56616c696461746f7220686173206e6f74207374616b65642e00000000000000604482015290519081900360640190fd5b3360008181526009602052604090205460029060ff16600481111561133757fe5b1015611385576040805162461bcd60e51b81526020600482015260186024820152772b30b634b230ba37b91034b9903737ba103437b732b9ba1760411b604482015290519081900360640190fd5b3360008181526009602052604090205460049060ff16818111156113a557fe5b14156113f3576040805162461bcd60e51b81526020600482015260186024820152772b30b634b230ba37b9103430b9903bb4ba34323930bbb71760411b604482015290519081900360640190fd5b33600090815260096020526040902060038101548511156114455760405162461bcd60e51b815260040180806020018281038252603e815260200180611aa7603e913960400191505060405180910390fd5b600381015461145a908663ffffffff61179716565b600382015560025481546040805163a9059cbb60e01b81526101009092046001600160a01b03908116600484015260248301899052905192169163a9059cbb916044808201926020929091908290030181600087803b1580156114bc57600080fd5b505af11580156114d0573d6000803e3d6000fd5b505050506040513d60208110156114e657600080fd5b50516111325760405162461bcd60e51b815260040180806020018281038252603b815260200180611841603b913960400191505060405180910390fd5b6001546000906001600160a01b0316331461156f5760405162461bcd60e51b8152600401808060200182810382526033815260200180611a4e6033913960400191505060405180910390fd5b8260026001600160a01b03821660009081526009602052604090205460ff16600481111561159957fe5b146115e6576040805162461bcd60e51b81526020600482015260186024820152772b30b634b230ba37b91034b9903737ba1030b1ba34bb329760411b604482015290519081900360640190fd5b6001600160a01b03841660009081526009602052604090206001810154841115611616576000600182015561162b565b6001810154611294908563ffffffff61179716565b60010154949350505050565b6003546001600160a01b031681565b6009602052600090815260409020805460018201546002830154600384015460049094015460ff8416946101009094046001600160a01b0316939086565b6001546001600160a01b0316156116cc5760405162461bcd60e51b81526004018080602001828103825260258152602001806117ea6025913960400191505060405180910390fd5b6001600160a01b0381166117115760405162461bcd60e51b81526004018080602001828103825260238152602001806119c76023913960400191505060405180910390fd5b600180546001600160a01b0319166001600160a01b0392909216919091179055565b60008282018381101561174557600080fd5b90505b92915050565b60008261175d57506000611748565b8282028284828161176a57fe5b041461174557600080fd5b600080821161178357600080fd5b600082848161178e57fe5b04949350505050565b6000828211156117a657600080fd5b5090039056fe54686520737065636966696564207769746864726177616c20616464726573732077617320726567697374657265642061732076616c696461746f722e436f6e73656e737573206164647265737320697320616c72656164792070726573656e742e4661696c656420746f207769746864726177207374616b656420616e64206561726e6564204d4f535420616d6f756e74732e4661696c656420746f207472616e73666572206361736861626c65206561726e696e677320746f207769746864726177616c20616464726573732e56616c696461746f7227732061646472657373206973207468652073616d6520617320697473207769746864726177616c20616464726573732e4661696c656420746f207472616e73666572204d4f5354207374616b6520616d6f756e742066726f6d20612076616c696461746f722e4361736861626c65206561726e696e6773206973206e6f7420696e2076616c69642072616e67653a205b302c20313030305d2e5374616b6520616d6f756e7420696e2077455448206973206e6f7420706f7369746976652e56616c696461746f722773207769746864726177616c206164647265737320697320302e5769746864726177616c20636f6f6c646f776e20706572696f6420686173206e6f7420656c61707365642e4661696c656420746f207472616e73666572206561726e696e677320746f2074686520636f6e747261637420616464726573732e436f6e73656e7375732061646472657373206d757374206e6f74206265206e756c6c2e5374616b6520616d6f756e7420696e204d4f5354206973206e6f7420706f7369746976652e5769746864726177616c20636f6f6c646f776e20706572696f6420696e20626c6f636b73206d7573742062652067726561746572207468616e207a65726f2e4f6e6c792074686520636f6e73656e73757320636f6e74726163742063616e2063616c6c20746869732066756e6374696f6e2e4661696c656420746f207769746864726177207374616b6564207745544820616d6f756e742e5468652073706563696669656420616d6f756e7420697320626967676572207468616e20617661696c61626c65206361736861626c6520616d6f756e742e4661696c656420746f207472616e736665722077455448207374616b6520616d6f756e742066726f6d20612076616c696461746f722ea265627a7a7231582096ba2b7682ed87b5b3b155f6175746565d94be7a7b50d101b7f01db84053b1f164736f6c634300050d0032",
  "source": "pragma solidity >=0.5.0 <0.6.0;\n\n// Copyright 2019 OpenST Ltd.\n//\n// Licensed under the Apache License, Version 2.0 (the \"License\");\n// you may not use this file except in compliance with the License.\n// You may obtain a copy of the License at\n//\n//    http://www.apache.org/licenses/LICENSE-2.0\n//\n// Unless required by applicable law or agreed to in writing, software\n// distributed under the License is distributed on an \"AS IS\" BASIS,\n// WITHOUT WARRANTIES OR CONDITIONS OF ANY KIND, either express or implied.\n// See the License for the specific language governing permissions and\n// limitations under the License.\n\nimport \"../ERC20I.sol\";\nimport \"../consensus/ConsensusModule.sol\";\nimport \"../proxies/MasterCopyNonUpgradable.sol\";\n\nimport \"openzeppelin-solidity/contracts/math/SafeMath.sol\";\n\ncontract Reputation is MasterCopyNonUpgradable, ConsensusModule {\n\n    /* Usings */\n\n    using SafeMath for uint256;\n\n\n    /* Constants */\n\n    uint256 public constant MAX_UINT256 = uint256(\n        0xffffffffffffffffffffffffffffffffffffffffffffffffffffffffffffffff\n    );\n\n    // This is set to 1 not 0, because Openzeppelin ERC20 does not support\n    // transfer to address(0).\n    address public constant burner = address(1);\n\n\n    /* Enums */\n\n    /** Validator status enum */\n    enum ValidatorStatus {\n        /** Undefined as null value */\n        Undefined,\n\n        /** Validator has been slashed and lost stake and earnings */\n        Slashed,\n\n        /** Validator has put up stake and participates in consensus */\n        Staked,\n\n        /** Validator has deregistered and no longer participates in consensus */\n        Deregistered,\n\n        /** Validator has withdrawn stake after deregistering and cooldown period */\n        Withdrawn\n    }\n\n\n    /* Structs */\n\n    struct ValidatorInfo {\n        ValidatorStatus status;\n        address withdrawalAddress;\n        uint256 reputation;\n        uint256 lockedEarnings;\n        uint256 cashableEarnings;\n        uint256 withdrawalBlockHeight;\n    }\n\n\n    /* Storage */\n\n    /** ERC20 MOST for stakes and earnings for validators. */\n    ERC20I public most;\n\n    /** ERC20 wETH for stakes for validators. */\n    ERC20I public wETH;\n\n    /** Required stake amount in MOST to stake as a validator. */\n    uint256 public stakeMOSTAmount;\n\n    /** Required stake amount in wETH to stake as a validator. */\n    uint256 public stakeWETHAmount;\n\n    /** A per mille of earnings that validator can cash out immediately. */\n    uint256 public cashableEarningsPerMille;\n\n    /** An initial reputation for a newly staked validator. */\n    uint256 public initialReputation;\n\n    /**\n     * A cooldown period for being able to withdraw after a validator\n     * has deregistered.\n     */\n    uint256 public withdrawalCooldownPeriodInBlocks;\n\n    /** Validators info */\n    mapping(address => ValidatorInfo) public validators;\n\n\n    /* Modifiers */\n\n    modifier isActive(address _validator)\n    {\n        require(\n            validators[_validator].status == ValidatorStatus.Staked,\n            \"Validator is not active.\"\n        );\n\n        _;\n    }\n\n    modifier hasStaked(address _validator)\n    {\n        require(\n            validators[_validator].status != ValidatorStatus.Undefined,\n            \"Validator has not staked.\"\n        );\n\n        _;\n    }\n\n    modifier isHonest(address _validator)\n    {\n        require(\n            validators[_validator].status >= ValidatorStatus.Staked,\n            \"Validator is not honest.\"\n        );\n\n        _;\n    }\n\n    modifier hasDeregistered(address _validator)\n    {\n        require(\n            validators[_validator].status >= ValidatorStatus.Deregistered,\n            \"Validator has not deregistered.\"\n        );\n\n        _;\n    }\n\n    modifier withdrawalCooldownPeriodHasElapsed(address _validator)\n    {\n        require(\n            block.number > validators[_validator].withdrawalBlockHeight,\n            \"Withdrawal cooldown period has not elapsed.\"\n        );\n\n        _;\n    }\n\n    modifier hasNotWithdrawn(address _validator)\n    {\n        require(\n            validators[_validator].status != ValidatorStatus.Withdrawn,\n            \"Validator has withdrawn.\"\n        );\n\n        _;\n    }\n\n    /* Special Member Functions */\n\n    /**\n     * @dev Function requires:\n     *          - MOST token address is not 0\n     *          - wETH token address is not 0\n     *          - a stake amount to stake in MOST is positive\n     *          - a stake amount to stake in wETH is positive\n     *          - a cashable earnings per mille is in [0, 1000] range\n     *\n     * @param _consensus Address of consensus contract.\n     * @param _most Address of EIP20 MOST token.\n     * @param _stakeMOSTAmount Amount of MOST token in wei required to be\n     *                         staked by each validator on staking.\n     * @param _wETH Address of EIP20 wETH token.\n     * @param _stakeWETHAmount Amount of wETH token in wei required to be\n     *                         staked by each validator on staking.\n     * @param _cashableEarningsPerMille Number ranging from [0-1000] which\n     *                                  defines cashable earning per mille.\n     * @param _initialReputation Initial reputation assigned when a validator\n     *                           stakes.\n     * @param _withdrawalCooldownPeriodInBlocks Defines block delay between\n     *                                          deregister and withdraw operation\n     *                                          for a validator.\n     */\n    function setup(\n        ConsensusInterface _consensus,\n        ERC20I _most,\n        uint256 _stakeMOSTAmount,\n        ERC20I _wETH,\n        uint256 _stakeWETHAmount,\n        uint256 _cashableEarningsPerMille,\n        uint256 _initialReputation,\n        uint256 _withdrawalCooldownPeriodInBlocks\n    )\n        external\n    {\n        require(\n            address(most) == address(0) && address(wETH) == address(0),\n            \"Reputation is already setup.\"\n        );\n\n        require(\n            _most != ERC20I(0),\n            \"MOST token address is 0.\"\n        );\n\n        require(\n            _wETH != ERC20I(0),\n            \"wETH token address is 0.\"\n        );\n\n        require(\n            _stakeMOSTAmount > 0,\n            \"Stake amount in MOST is not positive.\"\n        );\n\n        require(\n            _stakeWETHAmount > 0,\n            \"Stake amount in wETH is not positive.\"\n        );\n\n        require(\n            _cashableEarningsPerMille <= 1000,\n            \"Cashable earnings is not in valid range: [0, 1000].\"\n        );\n\n        require(\n            _withdrawalCooldownPeriodInBlocks > 0,\n            \"Withdrawal cooldown period in blocks must be greater than zero.\"\n        );\n\n        setupConsensus(_consensus);\n        most = ERC20I(_most);\n        wETH = ERC20I(_wETH);\n        stakeMOSTAmount = _stakeMOSTAmount;\n        stakeWETHAmount = _stakeWETHAmount;\n        initialReputation = _initialReputation;\n        cashableEarningsPerMille = _cashableEarningsPerMille;\n        withdrawalCooldownPeriodInBlocks = _withdrawalCooldownPeriodInBlocks;\n    }\n\n\n    /* External Functions */\n\n    /**\n     * @notice Increases reputation of a validator by delta.\n     *\n     * @dev Function requires\n     *          - only consensus can call\n     *          - the specified validator is active\n     *\n     * @param _validator A validator for which to increase reputation.\n     * @param _delta A change (delta) to increase a validator's reputation.\n     *\n     * @return Returns an updated reputation.\n     */\n    function increaseReputation(address _validator, uint256 _delta)\n        external\n        onlyConsensus\n        isActive(_validator)\n        returns (uint256)\n    {\n        ValidatorInfo storage v = validators[_validator];\n        v.reputation = v.reputation.add(_delta);\n\n        return v.reputation;\n    }\n\n    /**\n     * @notice Decreases reputation of a validator by delta.\n     *         Sets the validator's reputation to 0 if after operation\n     *         it's negative.\n     *\n     * @dev Function requires:\n     *          - only consensus can call\n     *          - the specified validator is active\n     *\n     * @param _validator A validator for which to decrease a reputation.\n     * @param _delta A change (delta) to decrease a validator's reputation.\n     *\n     * @return Returns an updated reputation.\n     */\n    function decreaseReputation(address _validator, uint256 _delta)\n        external\n        onlyConsensus\n        isActive(_validator)\n        returns (uint256)\n    {\n        ValidatorInfo storage v = validators[_validator];\n\n        if (v.reputation < _delta) {\n            v.reputation = 0;\n        } else {\n            v.reputation = v.reputation.sub(_delta);\n        }\n\n        return v.reputation;\n    }\n\n    /**\n     * @notice Deposits earnings of a validator by the specified amount.\n     *         Only fixed per-mille (`cashableEarningsPerMille`) from the\n     *         earned amount is cashable by a validator immediately.\n     *         The remaining is locked in the contract and can be cashed out\n     *         only when the validator has deregistered and cooling period\n     *         has elapsed.\n     *\n     * @dev Function requires:\n     *          - a validator is active\n     *          - a caller has approved the contract to transfer\n     *            `_amount` MOST from its address to the contract address.\n     *\n     * @param _validator A validator to deposit earnings.\n     * @param _amount An amount of earnings of a validator.\n     */\n    function depositEarnings(\n        address _validator,\n        uint256 _amount\n    )\n        external\n        isActive(_validator)\n    {\n        ValidatorInfo storage v = validators[_validator];\n\n        uint256 cashableEarnings = _amount.mul(cashableEarningsPerMille).div(1000);\n\n        v.cashableEarnings = v.cashableEarnings.add(cashableEarnings);\n\n        v.lockedEarnings = v.lockedEarnings.add(\n            _amount.sub(cashableEarnings)\n        );\n\n        require(\n            most.transferFrom(msg.sender, address(this), _amount),\n            \"Failed to transfer earnings to the contract address.\"\n        );\n    }\n\n    /**\n     * @notice Cash out the specified amount from cashable earnings\n     *         of a validator.\n     *\n     * @dev Function requires:\n     *          - only validator can call\n     *          - validator has staked\n     *          - validator was not slashed\n     *          - validator has not withdrawn\n     *          - the specified amount is not bigger than cashable earnings\n     *            of a validator\n     *\n     * @param _amount An amount to withdraw.\n     */\n    function cashOutEarnings(uint256 _amount)\n        external\n        hasStaked(msg.sender)\n        isHonest(msg.sender)\n        hasNotWithdrawn(msg.sender)\n    {\n        ValidatorInfo storage v = validators[msg.sender];\n\n        require(\n            _amount <= v.cashableEarnings,\n            \"The specified amount is bigger than available cashable amount.\"\n        );\n\n        v.cashableEarnings = v.cashableEarnings.sub(\n            _amount\n        );\n\n        require(\n            most.transfer(\n                v.withdrawalAddress, _amount\n            ),\n            \"Failed to transfer cashable earnings to withdrawal address.\"\n        );\n    }\n\n    /**\n     * @notice Stakes a validator.\n     *\n     * @dev Function requires:\n     *          - only consensus can call\n     *          - a validator address is not 0\n     *          - a withdrawal address is not 0\n     *          - a validator address is not same as its withdrawal address\n     *          - a validator has not staked previously\n     *          - a withdrawal address has not been used as a validator address\n     *          - a validator approved in MOST token contract to transfer\n     *            a stake amount.\n     *          - a validator approved in wETH token contract to transfer\n     *            a stake amount.\n     *\n     * @param _validator A validator address to stake.\n     * @param _withdrawalAddress A withdrawal address of newly staked validator.\n     *\n     * @return reputation_ Initial reputation of a validator.\n     */\n    function stake(\n        address _validator,\n        address _withdrawalAddress\n    )\n        external\n        onlyConsensus\n        returns (uint256 reputation_)\n    {\n        require(\n            _validator != address(0),\n            \"Validator address is 0.\"\n        );\n\n        require(\n            _withdrawalAddress != address(0),\n            \"Validator's withdrawal address is 0.\"\n        );\n\n        require(\n            _validator != _withdrawalAddress,\n            \"Validator's address is the same as its withdrawal address.\"\n        );\n\n        require(\n            validators[_validator].status == ValidatorStatus.Undefined,\n            \"No validator can stake again.\"\n        );\n\n        require(\n            validators[_withdrawalAddress].status == ValidatorStatus.Undefined,\n            \"The specified withdrawal address was registered as validator.\"\n        );\n\n        ValidatorInfo storage v = validators[_validator];\n\n        v.status = ValidatorStatus.Staked;\n        v.withdrawalAddress = _withdrawalAddress;\n        v.reputation = initialReputation;\n        v.withdrawalBlockHeight = MAX_UINT256;\n\n        require(\n            most.transferFrom(_validator, address(this), stakeMOSTAmount),\n            \"Failed to transfer MOST stake amount from a validator.\"\n        );\n\n        require(\n            wETH.transferFrom(_validator, address(this), stakeWETHAmount),\n            \"Failed to transfer wETH stake amount from a validator.\"\n        );\n\n        reputation_ = initialReputation;\n    }\n\n    /**\n     * @notice Deregisters a validator.\n     *\n     * @dev Function requires:\n     *          - only consensus can call\n     *          - validator is active\n     *\n     * @param _validator A validator to deregister.\n     */\n    function deregister(address _validator)\n        external\n        onlyConsensus\n        isActive(_validator)\n        returns (uint256)\n    {\n        ValidatorInfo storage v = validators[_validator];\n\n        v.status = ValidatorStatus.Deregistered;\n\n        v.withdrawalBlockHeight = block.number.add(\n            withdrawalCooldownPeriodInBlocks\n        );\n\n        return v.withdrawalBlockHeight;\n    }\n\n    /**\n     * @notice Withdraws staked and earnings values to a validator.\n     *\n     * @dev Function requires:\n     *          - a validator has deregistered\n     *          - a validator was not slashed\n     *          - a validator has not withdrawn\n     *          - a withdrawal cooling period for the validator has elapsed\n     *\n     * @param _validator A validator to withdraw earnings and stakes.\n     */\n    function withdraw(address _validator)\n        external\n        hasDeregistered(_validator)\n        isHonest(_validator)\n        hasNotWithdrawn(_validator)\n        withdrawalCooldownPeriodHasElapsed(_validator)\n    {\n        ValidatorInfo storage v = validators[_validator];\n\n        v.status = ValidatorStatus.Withdrawn;\n\n        uint256 lockedEarnings = v.lockedEarnings;\n        uint256 cashableEarnings = v.cashableEarnings;\n\n        v.lockedEarnings = 0;\n        v.cashableEarnings = 0;\n\n        require(\n            most.transfer(\n                v.withdrawalAddress,\n                stakeMOSTAmount.add(\n                    lockedEarnings\n                ).add(\n                    cashableEarnings\n                )\n            ),\n            \"Failed to withdraw staked and earned MOST amounts.\"\n        );\n\n        require(\n            wETH.transfer(\n                v.withdrawalAddress, stakeWETHAmount\n            ),\n            \"Failed to withdraw staked wETH amount.\"\n        );\n    }\n\n    /**\n     * @notice Returns reputation of a validator.\n     *\n     * @param _validator An address of a validator.\n     * Returns validator reputation.\n     */\n    function getReputation(address _validator)\n        external\n        view\n        returns (uint256)\n    {\n        return validators[_validator].reputation;\n    }\n\n\n    /* Public Functions */\n\n    /**\n     * @notice Check if the validator address is slashed or not.\n     *\n     * @param _validator An address of a validator.\n     * Returns true if the specified address is slashed.\n     */\n    function isSlashed(address _validator)\n        public\n        view\n        returns(bool)\n    {\n        return validators[_validator].status == ValidatorStatus.Slashed;\n    }\n}\n",
  "sourcePath": "/Users/abhay/Documents/projects/abhayforks/mosaic-1/contracts/reputation/Reputation.sol",
  "compiler": {
    "name": "solc",
    "version": "0.5.13+commit.5b0b510c.Emscripten.clang"
  },
  "schemaVersion": "3.0.17",
  "updatedAt": "2020-03-21T06:48:34.766Z",
  "devdoc": {
    "methods": {
      "cashOutEarnings(uint256)": {
        "details": "Function requires:         - only validator can call         - validator has staked         - validator was not slashed         - validator has not withdrawn         - the specified amount is not bigger than cashable earnings           of a validator",
        "params": {
          "_amount": "An amount to withdraw."
        }
      },
      "decreaseReputation(address,uint256)": {
        "details": "Function requires:         - only consensus can call         - the specified validator is active",
        "params": {
          "_delta": "A change (delta) to decrease a validator's reputation.",
          "_validator": "A validator for which to decrease a reputation."
        },
        "return": "Returns an updated reputation."
      },
      "depositEarnings(address,uint256)": {
        "details": "Function requires:         - a validator is active         - a caller has approved the contract to transfer           `_amount` MOST from its address to the contract address.",
        "params": {
          "_amount": "An amount of earnings of a validator.",
          "_validator": "A validator to deposit earnings."
        }
      },
      "deregister(address)": {
        "details": "Function requires:         - only consensus can call         - validator is active",
        "params": {
          "_validator": "A validator to deregister."
        }
      },
      "getReputation(address)": {
        "params": {
          "_validator": "An address of a validator. Returns validator reputation."
        }
      },
      "increaseReputation(address,uint256)": {
        "details": "Function requires         - only consensus can call         - the specified validator is active",
        "params": {
          "_delta": "A change (delta) to increase a validator's reputation.",
          "_validator": "A validator for which to increase reputation."
        },
        "return": "Returns an updated reputation."
      },
      "isSlashed(address)": {
        "params": {
          "_validator": "An address of a validator. Returns true if the specified address is slashed."
        }
      },
      "setup(address,address,uint256,address,uint256,uint256,uint256,uint256)": {
        "details": "Function requires:         - MOST token address is not 0         - wETH token address is not 0         - a stake amount to stake in MOST is positive         - a stake amount to stake in wETH is positive         - a cashable earnings per mille is in [0, 1000] range",
        "params": {
          "_cashableEarningsPerMille": "Number ranging from [0-1000] which                                 defines cashable earning per mille.",
          "_consensus": "Address of consensus contract.",
          "_initialReputation": "Initial reputation assigned when a validator                          stakes.",
          "_most": "Address of EIP20 MOST token.",
          "_stakeMOSTAmount": "Amount of MOST token in wei required to be                        staked by each validator on staking.",
          "_stakeWETHAmount": "Amount of wETH token in wei required to be                        staked by each validator on staking.",
          "_wETH": "Address of EIP20 wETH token.",
          "_withdrawalCooldownPeriodInBlocks": "Defines block delay between                                         deregister and withdraw operation                                         for a validator."
        }
      },
      "stake(address,address)": {
        "details": "Function requires:         - only consensus can call         - a validator address is not 0         - a withdrawal address is not 0         - a validator address is not same as its withdrawal address         - a validator has not staked previously         - a withdrawal address has not been used as a validator address         - a validator approved in MOST token contract to transfer           a stake amount.         - a validator approved in wETH token contract to transfer           a stake amount.",
        "params": {
          "_validator": "A validator address to stake.",
          "_withdrawalAddress": "A withdrawal address of newly staked validator."
        },
        "return": "reputation_ Initial reputation of a validator."
      },
      "withdraw(address)": {
        "details": "Function requires:         - a validator has deregistered         - a validator was not slashed         - a validator has not withdrawn         - a withdrawal cooling period for the validator has elapsed",
        "params": {
          "_validator": "A validator to withdraw earnings and stakes."
        }
      }
    }
  },
  "userdoc": {
    "methods": {
      "cashOutEarnings(uint256)": {
        "notice": "Cash out the specified amount from cashable earnings        of a validator."
      },
      "decreaseReputation(address,uint256)": {
        "notice": "Decreases reputation of a validator by delta.        Sets the validator's reputation to 0 if after operation        it's negative."
      },
      "depositEarnings(address,uint256)": {
        "notice": "Deposits earnings of a validator by the specified amount.        Only fixed per-mille (`cashableEarningsPerMille`) from the        earned amount is cashable by a validator immediately.        The remaining is locked in the contract and can be cashed out        only when the validator has deregistered and cooling period        has elapsed."
      },
      "deregister(address)": {
        "notice": "Deregisters a validator."
      },
      "getReputation(address)": {
        "notice": "Returns reputation of a validator."
      },
      "increaseReputation(address,uint256)": {
        "notice": "Increases reputation of a validator by delta."
      },
      "isSlashed(address)": {
        "notice": "Check if the validator address is slashed or not."
      },
      "stake(address,address)": {
        "notice": "Stakes a validator."
      },
      "withdraw(address)": {
        "notice": "Withdraws staked and earnings values to a validator."
      }
    }
  }
}