{
  "contractName": "SelfProtocore",
  "abi": [
    {
      "anonymous": false,
      "inputs": [
        {
          "indexed": false,
          "internalType": "uint256",
          "name": "kernelHeight",
          "type": "uint256"
        },
        {
          "indexed": false,
          "internalType": "bytes32",
          "name": "kernelHash",
          "type": "bytes32"
        }
      ],
      "name": "KernelOpened",
      "type": "event"
    },
    {
      "anonymous": false,
      "inputs": [
        {
          "indexed": false,
          "internalType": "bytes32",
          "name": "_parentVoteMessageHash",
          "type": "bytes32"
        },
        {
          "indexed": false,
          "internalType": "bytes32",
          "name": "_targetBlockHash",
          "type": "bytes32"
        },
        {
          "indexed": false,
          "internalType": "uint256",
          "name": "_targetBlockNumber",
          "type": "uint256"
        },
        {
          "indexed": false,
          "internalType": "bytes32",
          "name": "_sourceOriginObservation",
          "type": "bytes32"
        },
        {
          "indexed": false,
          "internalType": "bytes32",
          "name": "_sourceKernelHash",
          "type": "bytes32"
        },
        {
          "indexed": false,
          "internalType": "uint256",
          "name": "_sourceDynasty",
          "type": "uint256"
        },
        {
          "indexed": false,
          "internalType": "uint256",
          "name": "_sourceAccumulatedGas",
          "type": "uint256"
        },
        {
          "indexed": false,
          "internalType": "bytes32",
          "name": "_sourceCommitteeLock",
          "type": "bytes32"
        }
      ],
      "name": "LinkProposed",
      "type": "event"
    },
    {
      "anonymous": false,
      "inputs": [
        {
          "indexed": false,
          "internalType": "bytes32",
          "name": "voteMessageHash",
          "type": "bytes32"
        },
        {
          "indexed": false,
          "internalType": "enum Protocore.CheckpointFinalisationStatus",
          "name": "targetFinalisationStatus",
          "type": "uint8"
        }
      ],
      "name": "LinkUpvoted",
      "type": "event"
    },
    {
      "anonymous": false,
      "inputs": [
        {
          "indexed": false,
          "internalType": "bytes32",
          "name": "voteMessageHash",
          "type": "bytes32"
        },
        {
          "indexed": false,
          "internalType": "uint256",
          "name": "height",
          "type": "uint256"
        },
        {
          "indexed": false,
          "internalType": "bytes32",
          "name": "r",
          "type": "bytes32"
        },
        {
          "indexed": false,
          "internalType": "bytes32",
          "name": "s",
          "type": "bytes32"
        },
        {
          "indexed": false,
          "internalType": "uint8",
          "name": "v",
          "type": "uint8"
        }
      ],
      "name": "VoteRegistered",
      "type": "event"
    },
    {
      "constant": true,
      "inputs": [],
      "name": "CORE_SUPER_MAJORITY_DENOMINATOR",
      "outputs": [
        {
          "internalType": "uint256",
          "name": "",
          "type": "uint256"
        }
      ],
      "payable": false,
      "stateMutability": "view",
      "type": "function"
    },
    {
      "constant": true,
      "inputs": [],
      "name": "CORE_SUPER_MAJORITY_NUMERATOR",
      "outputs": [
        {
          "internalType": "uint256",
          "name": "",
          "type": "uint256"
        }
      ],
      "payable": false,
      "stateMutability": "view",
      "type": "function"
    },
    {
      "constant": true,
      "inputs": [],
      "name": "DOMAIN_SEPARATOR_VERSION",
      "outputs": [
        {
          "internalType": "string",
          "name": "",
          "type": "string"
        }
      ],
      "payable": false,
      "stateMutability": "view",
      "type": "function"
    },
    {
      "constant": true,
      "inputs": [],
      "name": "MAX_FUTURE_END_HEIGHT",
      "outputs": [
        {
          "internalType": "uint256",
          "name": "",
          "type": "uint256"
        }
      ],
      "payable": false,
      "stateMutability": "view",
      "type": "function"
    },
    {
      "constant": true,
      "inputs": [],
      "name": "SENTINEL_VALIDATORS",
      "outputs": [
        {
          "internalType": "address",
          "name": "",
          "type": "address"
        }
      ],
      "payable": false,
      "stateMutability": "view",
      "type": "function"
    },
    {
      "constant": true,
      "inputs": [],
      "name": "TRANSITION_TYPEHASH",
      "outputs": [
        {
          "internalType": "bytes32",
          "name": "",
          "type": "bytes32"
        }
      ],
      "payable": false,
      "stateMutability": "view",
      "type": "function"
    },
    {
      "constant": true,
      "inputs": [],
      "name": "VOTE_MESSAGE_TYPEHASH",
      "outputs": [
        {
          "internalType": "bytes32",
          "name": "",
          "type": "bytes32"
        }
      ],
      "payable": false,
      "stateMutability": "view",
      "type": "function"
    },
    {
      "constant": true,
      "inputs": [],
      "name": "domainSeparator",
      "outputs": [
        {
          "internalType": "bytes32",
          "name": "",
          "type": "bytes32"
        }
      ],
      "payable": false,
      "stateMutability": "view",
      "type": "function"
    },
    {
      "constant": true,
      "inputs": [],
      "name": "epochLength",
      "outputs": [
        {
          "internalType": "uint256",
          "name": "",
          "type": "uint256"
        }
      ],
      "payable": false,
      "stateMutability": "view",
      "type": "function"
    },
    {
      "constant": true,
      "inputs": [
        {
          "internalType": "uint256",
          "name": "_height",
          "type": "uint256"
        }
      ],
      "name": "forwardValidatorSetCount",
      "outputs": [
        {
          "internalType": "uint256",
          "name": "",
          "type": "uint256"
        }
      ],
      "payable": false,
      "stateMutability": "view",
      "type": "function"
    },
    {
      "constant": true,
      "inputs": [
        {
          "internalType": "uint256",
          "name": "",
          "type": "uint256"
        }
      ],
      "name": "fvsQuorums",
      "outputs": [
        {
          "internalType": "uint256",
          "name": "",
          "type": "uint256"
        }
      ],
      "payable": false,
      "stateMutability": "view",
      "type": "function"
    },
    {
      "constant": true,
      "inputs": [
        {
          "internalType": "bytes32",
          "name": "",
          "type": "bytes32"
        },
        {
          "internalType": "uint256",
          "name": "",
          "type": "uint256"
        },
        {
          "internalType": "address",
          "name": "",
          "type": "address"
        }
      ],
      "name": "fvsVotes",
      "outputs": [
        {
          "internalType": "address",
          "name": "",
          "type": "address"
        }
      ],
      "payable": false,
      "stateMutability": "view",
      "type": "function"
    },
    {
      "constant": true,
      "inputs": [],
      "name": "genesisAuxiliaryAccumulatedGas",
      "outputs": [
        {
          "internalType": "uint256",
          "name": "",
          "type": "uint256"
        }
      ],
      "payable": false,
      "stateMutability": "view",
      "type": "function"
    },
    {
      "constant": true,
      "inputs": [],
      "name": "genesisAuxiliaryParentVoteMessageHash",
      "outputs": [
        {
          "internalType": "bytes32",
          "name": "",
          "type": "bytes32"
        }
      ],
      "payable": false,
      "stateMutability": "view",
      "type": "function"
    },
    {
      "constant": true,
      "inputs": [],
      "name": "genesisAuxiliarySourceBlockHash",
      "outputs": [
        {
          "internalType": "bytes32",
          "name": "",
          "type": "bytes32"
        }
      ],
      "payable": false,
      "stateMutability": "view",
      "type": "function"
    },
    {
      "constant": true,
      "inputs": [],
      "name": "genesisAuxiliarySourceBlockNumber",
      "outputs": [
        {
          "internalType": "uint256",
          "name": "",
          "type": "uint256"
        }
      ],
      "payable": false,
      "stateMutability": "view",
      "type": "function"
    },
    {
      "constant": true,
      "inputs": [],
      "name": "genesisAuxiliarySourceTransitionHash",
      "outputs": [
        {
          "internalType": "bytes32",
          "name": "",
          "type": "bytes32"
        }
      ],
      "payable": false,
      "stateMutability": "view",
      "type": "function"
    },
    {
      "constant": true,
      "inputs": [],
      "name": "genesisAuxiliaryTargetBlockHash",
      "outputs": [
        {
          "internalType": "bytes32",
          "name": "",
          "type": "bytes32"
        }
      ],
      "payable": false,
      "stateMutability": "view",
      "type": "function"
    },
    {
      "constant": true,
      "inputs": [],
      "name": "genesisAuxiliaryTargetBlockNumber",
      "outputs": [
        {
          "internalType": "uint256",
          "name": "",
          "type": "uint256"
        }
      ],
      "payable": false,
      "stateMutability": "view",
      "type": "function"
    },
    {
      "constant": true,
      "inputs": [],
      "name": "genesisDomainSeparator",
      "outputs": [
        {
          "internalType": "bytes32",
          "name": "",
          "type": "bytes32"
        }
      ],
      "payable": false,
      "stateMutability": "view",
      "type": "function"
    },
    {
      "constant": true,
      "inputs": [],
      "name": "genesisDynasty",
      "outputs": [
        {
          "internalType": "uint256",
          "name": "",
          "type": "uint256"
        }
      ],
      "payable": false,
      "stateMutability": "view",
      "type": "function"
    },
    {
      "constant": true,
      "inputs": [],
      "name": "genesisEpochLength",
      "outputs": [
        {
          "internalType": "uint256",
          "name": "",
          "type": "uint256"
        }
      ],
      "payable": false,
      "stateMutability": "view",
      "type": "function"
    },
    {
      "constant": true,
      "inputs": [],
      "name": "genesisMetachainId",
      "outputs": [
        {
          "internalType": "bytes32",
          "name": "",
          "type": "bytes32"
        }
      ],
      "payable": false,
      "stateMutability": "view",
      "type": "function"
    },
    {
      "constant": true,
      "inputs": [],
      "name": "genesisProposedMetablockHeight",
      "outputs": [
        {
          "internalType": "uint256",
          "name": "",
          "type": "uint256"
        }
      ],
      "payable": false,
      "stateMutability": "view",
      "type": "function"
    },
    {
      "constant": true,
      "inputs": [],
      "name": "getCoconsensus",
      "outputs": [
        {
          "internalType": "contract CoconsensusInterface",
          "name": "",
          "type": "address"
        }
      ],
      "payable": false,
      "stateMutability": "view",
      "type": "function"
    },
    {
      "constant": true,
      "inputs": [
        {
          "internalType": "address",
          "name": "_validator",
          "type": "address"
        },
        {
          "internalType": "uint256",
          "name": "_height",
          "type": "uint256"
        }
      ],
      "name": "inForwardValidatorSet",
      "outputs": [
        {
          "internalType": "bool",
          "name": "",
          "type": "bool"
        }
      ],
      "payable": false,
      "stateMutability": "view",
      "type": "function"
    },
    {
      "constant": true,
      "inputs": [
        {
          "internalType": "address",
          "name": "_validator",
          "type": "address"
        },
        {
          "internalType": "uint256",
          "name": "_height",
          "type": "uint256"
        }
      ],
      "name": "inValidatorSet",
      "outputs": [
        {
          "internalType": "bool",
          "name": "",
          "type": "bool"
        }
      ],
      "payable": false,
      "stateMutability": "view",
      "type": "function"
    },
    {
      "constant": true,
      "inputs": [
        {
          "internalType": "bytes32",
          "name": "",
          "type": "bytes32"
        }
      ],
      "name": "links",
      "outputs": [
        {
          "internalType": "bytes32",
          "name": "parentVoteMessageHash",
          "type": "bytes32"
        },
        {
          "internalType": "bytes32",
          "name": "targetBlockHash",
          "type": "bytes32"
        },
        {
          "internalType": "uint256",
          "name": "targetBlockNumber",
          "type": "uint256"
        },
        {
          "internalType": "bytes32",
          "name": "sourceTransitionHash",
          "type": "bytes32"
        },
        {
          "internalType": "uint256",
          "name": "proposedMetablockHeight",
          "type": "uint256"
        },
        {
          "internalType": "enum Protocore.CheckpointFinalisationStatus",
          "name": "targetFinalisation",
          "type": "uint8"
        }
      ],
      "payable": false,
      "stateMutability": "view",
      "type": "function"
    },
    {
      "constant": true,
      "inputs": [],
      "name": "metachainId",
      "outputs": [
        {
          "internalType": "bytes32",
          "name": "",
          "type": "bytes32"
        }
      ],
      "payable": false,
      "stateMutability": "view",
      "type": "function"
    },
    {
      "constant": true,
      "inputs": [],
      "name": "openKernelHash",
      "outputs": [
        {
          "internalType": "bytes32",
          "name": "",
          "type": "bytes32"
        }
      ],
      "payable": false,
      "stateMutability": "view",
      "type": "function"
    },
    {
      "constant": true,
      "inputs": [],
      "name": "openKernelHeight",
      "outputs": [
        {
          "internalType": "uint256",
          "name": "",
          "type": "uint256"
        }
      ],
      "payable": false,
      "stateMutability": "view",
      "type": "function"
    },
    {
      "constant": true,
      "inputs": [
        {
          "internalType": "address",
          "name": "",
          "type": "address"
        }
      ],
      "name": "validatorBeginHeight",
      "outputs": [
        {
          "internalType": "uint256",
          "name": "",
          "type": "uint256"
        }
      ],
      "payable": false,
      "stateMutability": "view",
      "type": "function"
    },
    {
      "constant": true,
      "inputs": [
        {
          "internalType": "address",
          "name": "",
          "type": "address"
        }
      ],
      "name": "validatorEndHeight",
      "outputs": [
        {
          "internalType": "uint256",
          "name": "",
          "type": "uint256"
        }
      ],
      "payable": false,
      "stateMutability": "view",
      "type": "function"
    },
    {
      "constant": true,
      "inputs": [
        {
          "internalType": "uint256",
          "name": "_height",
          "type": "uint256"
        }
      ],
      "name": "validatorSetCount",
      "outputs": [
        {
          "internalType": "uint256",
          "name": "",
          "type": "uint256"
        }
      ],
      "payable": false,
      "stateMutability": "view",
      "type": "function"
    },
    {
      "constant": true,
      "inputs": [
        {
          "internalType": "address",
          "name": "",
          "type": "address"
        }
      ],
      "name": "validators",
      "outputs": [
        {
          "internalType": "address",
          "name": "",
          "type": "address"
        }
      ],
      "payable": false,
      "stateMutability": "view",
      "type": "function"
    },
    {
      "constant": false,
      "inputs": [],
      "name": "setup",
      "outputs": [
        {
          "internalType": "bytes32",
          "name": "finalizedBlockHash_",
          "type": "bytes32"
        },
        {
          "internalType": "uint256",
          "name": "finalizedBlockNumber_",
          "type": "uint256"
        }
      ],
      "payable": false,
      "stateMutability": "nonpayable",
      "type": "function"
    },
    {
      "constant": false,
      "inputs": [
        {
          "internalType": "uint256",
          "name": "_kernelHeight",
          "type": "uint256"
        },
        {
          "internalType": "bytes32",
          "name": "_kernelHash",
          "type": "bytes32"
        }
      ],
      "name": "openKernel",
      "outputs": [],
      "payable": false,
      "stateMutability": "nonpayable",
      "type": "function"
    },
    {
      "constant": false,
      "inputs": [
        {
          "internalType": "address",
          "name": "_validator",
          "type": "address"
        },
        {
          "internalType": "uint256",
          "name": "_height",
          "type": "uint256"
        },
        {
          "internalType": "uint256",
          "name": "_reputation",
          "type": "uint256"
        }
      ],
      "name": "upsertValidator",
      "outputs": [],
      "payable": false,
      "stateMutability": "nonpayable",
      "type": "function"
    },
    {
      "constant": false,
      "inputs": [
        {
          "internalType": "bytes32",
          "name": "_voteMessageHash",
          "type": "bytes32"
        },
        {
          "internalType": "bytes32",
          "name": "_r",
          "type": "bytes32"
        },
        {
          "internalType": "bytes32",
          "name": "_s",
          "type": "bytes32"
        },
        {
          "internalType": "uint8",
          "name": "_v",
          "type": "uint8"
        }
      ],
      "name": "registerVote",
      "outputs": [],
      "payable": false,
      "stateMutability": "nonpayable",
      "type": "function"
    },
    {
      "constant": false,
      "inputs": [
        {
          "internalType": "bytes32",
          "name": "_parentVoteMessageHash",
          "type": "bytes32"
        },
        {
          "internalType": "bytes32",
          "name": "_targetBlockHash",
          "type": "bytes32"
        },
        {
          "internalType": "uint256",
          "name": "_targetBlockNumber",
          "type": "uint256"
        },
        {
          "internalType": "bytes32",
          "name": "_sourceKernelHash",
          "type": "bytes32"
        },
        {
          "internalType": "bytes32",
          "name": "_sourceOriginObservation",
          "type": "bytes32"
        },
        {
          "internalType": "uint256",
          "name": "_sourceDynasty",
          "type": "uint256"
        },
        {
          "internalType": "uint256",
          "name": "_sourceAccumulatedGas",
          "type": "uint256"
        },
        {
          "internalType": "bytes32",
          "name": "_sourceCommitteeLock",
          "type": "bytes32"
        }
      ],
      "name": "proposeLink",
      "outputs": [],
      "payable": false,
      "stateMutability": "nonpayable",
      "type": "function"
    }
  ],
  "bytecode": "0x6080604052600d80546001600160a01b031916614d0017905534801561002457600080fd5b50612445806100346000396000f3fe608060405234801561001057600080fd5b50600436106102485760003560e01c806390cbdd691161013b578063c4fec67a116100b8578063ed39cded1161007c578063ed39cded146105e1578063f173034a146105e9578063f698da2514610615578063fa52c7d81461061d578063fbc34e861461064357610248565b8063c4fec67a1461054e578063d1a976da14610556578063dcf1c34a14610596578063dfa8b87e146105b3578063e4eaf14e146105d957610248565b8063b6735be4116100ff578063b6735be4146104af578063b7f8e6fa146104d5578063b96fc5bb146104dd578063b9ab2c7514610525578063ba0bba401461052d57610248565b806390cbdd6914610377578063af6d5aaf1461037f578063b2fccc7f1461039c578063b2fec59314610400578063b4907ddc1461043257610248565b806334a77991116101c957806357d775f81161018d57806357d775f81461034f5780636e5d1e9c146103575780637ccba6cc1461035f5780637ec9d753146103675780638498b7a91461036f57610248565b806334a77991146102e85780633f62f8301461031a5780634adba1ce146103225780634ff92af31461033f57806355445e061461034757610248565b80631df69c71116102105780631df69c71146102c05780631fdeaa31146102c857806321c0bc49146102d057806323609af7146102d85780633021513d146102e057610248565b806309673c1d1461024d578063142aab1114610272578063149fbab91461028c57806314c0e380146102b05780631a1e1fce146102b8575b600080fd5b6102706004803603604081101561026357600080fd5b5080359060200135610675565b005b61027a6106f3565b60408051918252519081900360200190f35b6102946106f9565b604080516001600160a01b039092168252519081900360200190f35b61027a6106fe565b61027a610704565b61027a61070a565b61027a610710565b61027a610716565b610294610731565b61027a610740565b610294600480360360608110156102fe57600080fd5b50803590602081013590604001356001600160a01b0316610746565b61027a610772565b61027a6004803603602081101561033857600080fd5b5035610778565b61027a6107cd565b61027a6107d3565b61027a6107d9565b61027a6107df565b61027a6107e5565b61027a6107eb565b61027a6107f0565b61027a6107f6565b61027a6004803603602081101561039557600080fd5b5035610811565b6103b9600480360360208110156103b257600080fd5b5035610823565b604051808781526020018681526020018581526020018481526020018381526020018260038111156103e757fe5b60ff168152602001965050505050505060405180910390f35b6102706004803603608081101561041657600080fd5b508035906020810135906040810135906060013560ff1661085b565b61043a6108d0565b6040805160208082528351818301528351919283929083019185019080838360005b8381101561047457818101518382015260200161045c565b50505050905090810190601f1680156104a15780820380516001836020036101000a031916815260200191505b509250505060405180910390f35b61027a600480360360208110156104c557600080fd5b50356001600160a01b03166108ed565b61027a6108ff565b61027060048036036101008110156104f457600080fd5b5080359060208101359060408101359060608101359060808101359060a08101359060c08101359060e00135610905565b61027a610ad7565b610535610add565b6040805192835260208301919091528051918290030190f35b61027a610b8b565b6105826004803603604081101561056c57600080fd5b506001600160a01b038135169060200135610b91565b604080519115158252519081900360200190f35b61027a600480360360208110156105ac57600080fd5b5035610bfd565b61027a600480360360208110156105c957600080fd5b50356001600160a01b0316610c52565b61027a610c64565b61027a610c6a565b610582600480360360408110156105ff57600080fd5b506001600160a01b038135169060200135610c6f565b61027a610cd3565b6102946004803603602081101561063357600080fd5b50356001600160a01b0316610cd9565b6102706004803603606081101561065957600080fd5b506001600160a01b038135169060208101359060400135610cf4565b61067d610731565b6001600160a01b0316336001600160a01b0316146106cc5760405162461bcd60e51b81526004018080602001828103825260358152602001806120fb6035913960400191505060405180910390fd5b6106e56106e083600163ffffffff610da116565b610db3565b6106ef8282610e24565b5050565b60035481565b600181565b600a5481565b60065481565b60125481565b600e5481565b604051806087611fd382396087019050604051809103902081565b600d546001600160a01b031690565b60025481565b60156020908152600093845260408085208252928452828420905282529020546001600160a01b031681565b600c5481565b6000601b5482106107ba5760405162461bcd60e51b815260040180806020018281038252604081526020018061218a6040913960400191505060405180910390fd5b506000908152601a602052604090205490565b60115481565b60055481565b600f5481565b600b5481565b60095481565b600281565b60085481565b60405180607561208682396075019050604051809103902081565b60136020526000908152604090205481565b601460205260009081526040902080546001820154600283015460038401546004850154600690950154939492939192909160ff1686565b6000848152601460205260409020600f5460028201546108809163ffffffff610da116565b43106108bd5760405162461bcd60e51b815260040180806020018281038252605c815260200180612331605c913960600191505060405180910390fd5b6108c985858585610f42565b5050505050565b604051806040016040528060018152602001600360fc1b81525081565b60176020526000908152604090205481565b60075481565b876109415760405162461bcd60e51b8152600401808060200182810382526027815260200180611edd6027913960400191505060405180910390fd5b86610993576040805162461bcd60e51b815260206004820152601f60248201527f54617267657420626c6f636b68617368206d757374206e6f7420626520302e00604482015290519081900360640190fd5b836109cf5760405162461bcd60e51b81526004018080602001828103825260218152602001806121696021913960400191505060405180910390fd5b80610a0b5760405162461bcd60e51b81526004018080602001828103825260248152602001806122116024913960400191505060405180910390fd5b6012548514610a4b5760405162461bcd60e51b81526004018080602001828103825260398152602001806121306039913960400191505060405180910390fd5b6000610a5a8686868686611241565b9050610a6889828a8a6112eb565b604080518a8152602081018a9052808201899052606081018790526080810188905260a0810186905260c0810185905260e0810184905290517f748613e53aa48757884a9aec3427d8626e541a1d2c2f27ca6d7f76f9f486998f918190036101000190a1505050505050505050565b60045481565b600080610ae8610731565b6001600160a01b0316336001600160a01b031614610b375760405162461bcd60e51b81526004018080602001828103825260358152602001806120fb6035913960400191505060405180910390fd5b610b5d600154600554600254600354600a54600b54600654600754600854600954611510565b6003546011819055610b7f90610b7a90600163ffffffff610da116565b61164c565b50506008546009549091565b60015481565b6001600160a01b0382166000908152601760205260408120548210801590610bd157506001600160a01b0383166000908152601860205260409020548211155b8015610bf457506001600160a01b03831660009081526018602052604090205415155b90505b92915050565b6000601b548210610c3f5760405162461bcd60e51b81526004018080602001828103825260388152602001806122356038913960400191505060405180910390fd5b5060009081526019602052604090205490565b60186020526000908152604090205481565b60001981565b600381565b6001600160a01b0382166000908152601760205260408120548210801590610bd157506001600160a01b03831660009081526018602052604090205482108015610bf4575050506001600160a01b0316600090815260186020526040902054151590565b60105481565b6016602052600090815260409020546001600160a01b031681565b610cfc610731565b6001600160a01b0316336001600160a01b031614610d4b5760405162461bcd60e51b81526004018080602001828103825260358152602001806120fb6035913960400191505060405180910390fd5b601154610d5f90600163ffffffff610da116565b8214610d6757fe5b610d7383601154610b91565b15610d8c5780610d8757610d87838361168f565b610d9c565b8015610d9c57610d9c83836117fa565b505050565b600082820183811015610bf457600080fd5b601b54610dc790600163ffffffff610da116565b8114610dcf57fe5b600081815260196020819052604082205491610df284600163ffffffff610da116565b815260208082019290925260409081016000908120939093558383526019825280832054601a90925290912055601b55565b601154610e3890600163ffffffff610da116565b8214610e755760405162461bcd60e51b815260040180806020018281038252603c815260200180611f97603c913960400191505060405180910390fd5b80610ec7576040805162461bcd60e51b815260206004820152601b60248201527f54686520676976656e206b65726e656c206861736820697320302e0000000000604482015290519081900360640190fd5b60118290556012819055610ee2610edd83610778565b6119d5565b601360006011548152602001908152602001600020819055507fd63a98a1e8cc3e07f96ba750deeac7e678c5f5a5aaa80f7efbe54c5f6d3a98f6601154601254604051808381526020018281526020019250505060405180910390a15050565b83610f94576040805162461bcd60e51b815260206004820152601760248201527f566f7465206d657373616765206861736820697320302e000000000000000000604482015290519081900360640190fd5b60008481526014602052604090206001600682015460ff166003811115610fb757fe5b1015610ff45760405162461bcd60e51b815260040180806020018281038252602b815260200180611f04602b913960400191505060405180910390fd5b601154600482015461100d90600163ffffffff610da116565b101561104a5760405162461bcd60e51b815260040180806020018281038252602e8152602001806122d8602e913960400191505060405180910390fd5b604080516000808252602080830180855289905260ff86168385015260608301889052608083018790529251909260019260a080820193601f1981019281900390910190855afa1580156110a2573d6000803e3d6000fd5b5050604051601f1901519150506001600160a01b03811661110a576040805162461bcd60e51b815260206004820152601b60248201527f56616c696461746f72206d757374206e6f74206265206e756c6c2e0000000000604482015290519081900360640190fd5b61111681601154610b91565b6111515760405162461bcd60e51b815260040180806020018281038252602b815260200180612306602b913960400191505060405180910390fd5b6000868152601560209081526040808320601154845282528083206001600160a01b03858116855292529091205416156111bc5760405162461bcd60e51b815260040180806020018281038252604a81526020018061228e604a913960600191505060405180910390fd5b60006111c98784846119f9565b90506111d58783611b05565b6011546040805189815260208101929092528181018890526060820187905260ff86166080830152517fc9a0f2e3e4091dd3bda440d2760a1874040129d69ca8e36ebed34679426942a29181900360a00190a18015611238576112388784611c0a565b50505050505050565b600080604051808061208660759139604080519182900360750182206020808401919091528282019a909a526060820198909852608081019690965250505060a083019190915260c0808301919091528251808303909101815260e082018352805190840120601054601960f81b610100840152600160f81b6101018401526101028301526101228083019190915282518083039091018152610142909101909152805191012090565b8361133d576040805162461bcd60e51b815260206004820152601e60248201527f506172656e7420766f7465206d657373616765206861736820697320302e0000604482015290519081900360640190fd5b816113795760405162461bcd60e51b815260040180806020018281038252602c81526020018061205a602c913960400191505060405180910390fd5b600f54818161138457fe5b06156113c15760405162461bcd60e51b81526004018080602001828103825260478152602001806121ca6047913960600191505060405180910390fd5b60008481526014602052604090206002600682015460ff1660038111156113e457fe5b10156114215760405162461bcd60e51b8152600401808060200182810382526046815260200180611f2f6046913960600191505060405180910390fd5b806002015482116114635760405162461bcd60e51b815260040180806020018281038252604a8152602001806123c7604a913960600191505060405180910390fd5b600061147d60105486846001015487866002015488611d8c565b600081815260146020526040902060010154909150156114ce5760405162461bcd60e51b815260040180806020018281038252602181526020018061226d6021913960400191505060405180910390fd5b6000908152601460205260409020948555506001808501929092556002840155600383019190915560115460048301556006909101805460ff19169091179055565b600e5415611565576040805162461bcd60e51b815260206004820181905260248201527f436f6e747261637420697320616c726561647920696e697469616c697a65642e604482015290519081900360640190fd5b876115ac576040805162461bcd60e51b815260206004820152601260248201527122b837b1b4103632b733ba341034b990181760711b604482015290519081900360640190fd5b886115e85760405162461bcd60e51b8152600401808060200182810382526022815260200180611f756022913960400191505060405180910390fd5b600e8a90556010899055600f88905560006116078a8787868887611d8c565b6000908152601460205260409020968755506001860191909155600285015550506003808301919091556004820192909255600601805460ff19169091179055505050565b601b556001600081905260166020527f4c4dc693d7db52f85fe052106f4b4b920e78e8ef37dee82878a60ab8585faf4980546001600160a01b0319169091179055565b8080601b54146116e6576040805162461bcd60e51b815260206004820181905260248201527f486569676874206d75737420657175616c20616374697665206865696768742e604482015290519081900360640190fd5b6001600160a01b0383166000908152601860205260409020546000191461170957fe5b6001600160a01b038316600090815260176020526040902054821161175f5760405162461bcd60e51b815260040180806020018281038252603a81526020018061238d603a913960400191505060405180910390fd5b6001600160a01b0383166000908152601860205260408120839055601b5461178e90600163ffffffff610da116565b6000818152601960205260409020549091506117b190600163ffffffff611e3316565b600082815260196020908152604080832093909355601b548252601a905220546117e290600163ffffffff611e3316565b601b546000908152601a602052604090205550505050565b8080601b5414611851576040805162461bcd60e51b815260206004820181905260248201527f486569676874206d75737420657175616c20616374697665206865696768742e604482015290519081900360640190fd5b6001600160a01b03831661186157fe5b6001600160a01b03838116600090815260166020526040902054161561188357fe5b600160005260166020527f4c4dc693d7db52f85fe052106f4b4b920e78e8ef37dee82878a60ab8585faf49546001600160a01b0316806118bf57fe5b6001600160a01b03808516600081815260166020908152604080832080549587166001600160a01b03199687161790557f4c4dc693d7db52f85fe052106f4b4b920e78e8ef37dee82878a60ab8585faf498054909516841790945591815260178252828120869055601882528281206000199055601b54815260199091529081205461195290600163ffffffff610da116565b601b8054600090815260196020819052604082208490559154929350839261198190600163ffffffff610da116565b8152602001908152602001600020819055506119bc6001601a6000601b54815260200190815260200160002054610da190919063ffffffff16565b601b546000908152601a60205260409020555050505050565b6000610bf760036119ed84600263ffffffff611e4816565b9063ffffffff611e6f16565b6000611a088460115484611e91565b15611a47576011546000908152600584016020526040902054611a3290600163ffffffff610da116565b60115460009081526005850160205260409020555b601154600081815260136020908152604080832054600588019092529091205410159060019015611af157601154600090611a8990600163ffffffff611e3316565b9050611a96878287611e91565b15611acf576000818152600587016020526040902054611abd90600163ffffffff610da116565b60008281526005880160205260409020555b6000908152601360209081526040808320546005890190925290912054101590505b818015611afb5750805b9695505050505050565b6000828152601560209081526040808320601154845282528083206001600160a01b0385811685529252909120541615611b3b57fe5b600082815260156020908152604080832060115484528252808320600184529091529020546001600160a01b031680611ba557506000828152601560209081526040808320601154845282528083206001808552925290912080546001600160a01b031916821790555b60009283526015602090815260408085206011805487528184528287206001600160a01b039687168089529085528388208054979096166001600160a01b03199788161790955554865282528085206001865290915290922080549091169091179055565b6001600682015460ff166003811115611c1f57fe5b14156106ef5760068101805460ff1916600290811790915560408051848152602081019290925280517fae22109749a8e1b888ae2d2e15c3ce5ac0c18b153ee7718b7c75f738ef7384719281900390910190a180546000908152601460205260409020600f5460028083015490840154611c9e9163ffffffff611e3316565b1415610d9c576002600682015460ff166003811115611cb957fe5b1015611cc157fe5b60068101805460ff19166003908117909155825460408051918252602082019290925281517fae22109749a8e1b888ae2d2e15c3ce5ac0c18b153ee7718b7c75f738ef738471929181900390910190a1611d19610731565b6001600160a01b0316636d7e4a68600e54836002015484600101546040518463ffffffff1660e01b8152600401808481526020018381526020018281526020019350505050600060405180830381600087803b158015611d7857600080fd5b505af1158015611238573d6000803e3d6000fd5b6000806040518080611fd360879139604080519182900360870182206020808401919091528282019a909a526060820198909852608081019690965250505060a083019190915260c0808301919091528251808303909101815260e082018352805190840120601960f81b610100830152600160f81b6101018301526101028201949094526101228082019490945281518082039094018452610142019052815191012090565b600082821115611e4257600080fd5b50900390565b600082611e5757506000610bf7565b82820282848281611e6457fe5b0414610bf457600080fd5b6000808211611e7d57600080fd5b6000828481611e8857fe5b04949350505050565b600083815260156020908152604080832085845282528083206001600160a01b0385811685529252822054161581611ec98486610c6f565b9050818015611afb57509594505050505056fe506172656e7420766f7465206d6573736167652068617368206d757374206e6f7420626520302e54686520676976656e206c696e6b20737461747573206973206174206c65617374207265706f727465642e506172656e74206c696e6b2773207461726765742066696e616c69736174696f6e207374617475732073686f756c64206265206174206c65617374206a75737469666965642e446f6d61696e20736570617261746f72206d757374206e6f74206265206e756c6c2e54686520676976656e206b65726e656c206865696768742073686f756c6420626520706c75732031206f66207468652063757272656e74206f6e652e566f74654d6573736167652862797465733332207472616e736974696f6e486173682c6279746573333220736f75726365426c6f636b486173682c6279746573333220746172676574426c6f636b486173682c75696e7432353620736f75726365426c6f636b4e756d6265722c75696e7432353620746172676574426c6f636b4e756d6265722954617267657420626c6f636b2068617368206f66207468652070726f706f736564206c696e6b20697320302e5472616e736974696f6e2862797465733332206b65726e656c486173682c62797465733332206f726967696e4f62736572766174696f6e2c75696e743235362064796e617374792c75696e7432353620616363756d756c617465644761732c6279746573333220636f6d6d69747465654c6f636b294f6e6c792074686520436f636f6e73656e73757320636f6e74726163742063616e2063616c6c20746869732066756e6374696f6e2e536f75726365206b65726e656c2068617368206d75737420626520657175616c20746f20746865206f70656e206b65726e656c20686173682e4f726967696e206f62736572766174696f6e206d757374206e6f7420626520302e466f72776172642076616c696461746f722073657420636f756e74206973206f6e6c7920646566696e656420757020746f20616374697665206865696768742e54617267657420626c6f636b206e756d626572206f6620746865206c696e6b2073686f756c64206265206d756c7469706c65206f66207468652065706f6368206c656e6774682e536f7572636520636f6d6d6974746565206c6f636b206d757374206e6f7420626520302e56616c696461746f722073657420636f756e74206973206f6e6c7920646566696e656420757020746f20616374697665206865696768742e5468652070726f706f736564206c696e6b20616c7265616479206578697374732e56616c696461746f7220766f74652063616e6e6f74206265207265676973746572656420747769636520696e2046565320766f746573206174207468652073616d65206865696768742e4c696e6b2068656967687420696e636c7573696f6e207072696e6369706c6520686173207375727061737365642e56616c696461746f72206d75737420626520696e2063757272656e742076616c696461746f72207365742e43757272656e7420626c6f636b206e756d6265722073686f756c64206265206c657373207468616e207468652073756d206f66207468652074617267657420626c6f636b206e756d62657220616e642065706f6368206c656e677468456e6420686569676874206d757374206265207374726963746c792067726561746572207468616e20746865207374617274206865696768742e54617267657420626c6f636b206e756d626572206f66207468652070726f706f736564206c696e6b2073686f756c6420626520626967676572207468616e20706172656e74206f6e652ea265627a7a723158207d3f4249d20294e0a31f144205c704910a06bb7e904b799a8e71b9c3118edfbb64736f6c634300050d0032",
  "source": "pragma solidity >=0.5.0 <0.6.0;\n\n// Copyright 2020 OpenST Ltd.\n//\n// Licensed under the Apache License, Version 2.0 (the \"License\");\n// you may not use this file except in compliance with the License.\n// You may obtain a copy of the License at\n//\n//    http://www.apache.org/licenses/LICENSE-2.0\n//\n// Unless required by applicable law or agreed to in writing, software\n// distributed under the License is distributed on an \"AS IS\" BASIS,\n// WITHOUT WARRANTIES OR CONDITIONS OF ANY KIND, either express or implied.\n// See the License for the specific language governing permissions and\n// limitations under the License.\n\nimport \"../protocore/Protocore.sol\";\nimport \"../protocore/GenesisSelfProtocore.sol\";\nimport \"../proxies/MasterCopyNonUpgradable.sol\";\nimport \"../validator-set/ValidatorSet.sol\";\n\n/**\n * @title Self Protocore - This contract finalizes the proposed blocks of auxiliary chain.\n */\ncontract SelfProtocore is MasterCopyNonUpgradable, GenesisSelfProtocore, Protocore, ValidatorSet {\n\n    /* Usings */\n\n    using SafeMath for uint256;\n\n\n    /* Events */\n\n    event LinkProposed(\n        bytes32 _parentVoteMessageHash,\n        bytes32 _targetBlockHash,\n        uint256 _targetBlockNumber,\n        bytes32 _sourceOriginObservation,\n        bytes32 _sourceKernelHash,\n        uint256 _sourceDynasty,\n        uint256 _sourceAccumulatedGas,\n        bytes32 _sourceCommitteeLock\n    );\n\n\n    /* Constants */\n\n    /** EIP-712 type hash for a Transition. */\n    bytes32 public constant TRANSITION_TYPEHASH = keccak256(\n        \"Transition(bytes32 kernelHash,bytes32 originObservation,uint256 dynasty,uint256 accumulatedGas,bytes32 committeeLock)\"\n    );\n\n\n    /* Special Functions */\n\n    /**\n     * @notice setup() function initializes the current contract.\n     *\n     * @return Block hash and block number of finalized genesis checkpoint.\n     *\n     * \\post Sets `domainSeparator` to the given value.\n     * \\post Sets `epochLength` to the given value.\n     * \\post Sets `metachainId` to the given value.\n     * \\post Sets genesis link.\n     */\n    function setup()\n        external\n        onlyCoconsensus\n        returns (\n            bytes32 finalizedBlockHash_,\n            uint256 finalizedBlockNumber_\n        )\n    {\n        Protocore.setupProtocore(\n            genesisMetachainId,\n            genesisDomainSeparator,\n            genesisEpochLength,\n            genesisProposedMetablockHeight,\n            genesisAuxiliaryParentVoteMessageHash,\n            genesisAuxiliarySourceTransitionHash,\n            genesisAuxiliarySourceBlockHash,\n            genesisAuxiliarySourceBlockNumber,\n            genesisAuxiliaryTargetBlockHash,\n            genesisAuxiliaryTargetBlockNumber\n        );\n\n        openKernelHeight = genesisProposedMetablockHeight;\n        ValidatorSet.setupValidatorSet(openKernelHeight.add(1));\n\n        finalizedBlockHash_ = genesisAuxiliaryTargetBlockHash;\n        finalizedBlockNumber_ = genesisAuxiliaryTargetBlockNumber;\n    }\n\n\n    /* External Functions */\n\n    /**\n     * @notice openKernel() function marks the specified kernel\n     *         as opened.\n     *\n     * @param _kernelHeight New kernel height.\n     * @param _kernelHash New kernel hash.\n     *\n     * \\pre Only coconsensus can call.\n     * \\pre Satisfies all pre conditions of Protocore::openKernelInternal().\n     *\n     * \\post Increments the active height of the validator set.\n     * \\post Satisfies all the post conditions of Protocore::openKernelInternal().\n     */\n    function openKernel(\n        uint256 _kernelHeight,\n        bytes32 _kernelHash\n    )\n        external\n        onlyCoconsensus\n    {\n        ValidatorSet.incrementActiveHeightInternal(_kernelHeight.add(1));\n\n        openKernelInternal(\n            _kernelHeight,\n            _kernelHash\n        );\n    }\n\n    /**\n     * @notice Insert or remove validator. It inserts validator if not already\n     *         present and reputation is greater than 0. It removes validator\n     *         if it is present and reputation is 0.\n     *\n     * @dev Function requires:\n     *      - Caller should be Coconsensus contract.\n     *      - Validator can get joined/removed only at height one greater than\n     *        current open kernel height.\n     *\n     * @param _validator Validator address to upsert.\n     * @param _height Validator start or end height to be updated.\n     * @param _reputation Validator's reputation value.\n     */\n    function upsertValidator(\n        address _validator,\n        uint256 _height,\n        uint256 _reputation\n    )\n        external\n        onlyCoconsensus\n    {\n        assert(_height == openKernelHeight.add(1));\n        if(ValidatorSet.inValidatorSet(_validator, openKernelHeight)) {\n            if(_reputation == 0) {\n                removeValidatorInternal(_validator, _height);\n            }\n        }\n        else {\n            if(_reputation > 0) {\n                insertValidatorInternal(_validator, _height);\n            }\n        }\n    }\n\n    /**\n     * @notice Registers a vote for a link specified by vote message hash.\n     *\n     *\n     * \\pre A link should exist in the links mapping for the given _voteMessageHash.\n     * \\pre The current block number must be less than the sum of the target\n     *      block number of link and epoch length.\n     * \\pre Satisfy the \\pre conditions of Protocore::registerVoteInternal().\n     *\n     * \\post Satisfy the \\post conditions of Protocore::registerVoteInternal()\n     *\n     * @param _voteMessageHash Message hash of a vote.\n     * @param _r The first 32 bytes of ECDSA signature of a validator.\n     * @param _s The second 32 bytes of ECDSA signature of a validator.\n     * @param _v The recovery id/value of ECDSA signature of a validator.\n     */\n    function registerVote(\n        bytes32 _voteMessageHash,\n        bytes32 _r,\n        bytes32 _s,\n        uint8 _v\n    )\n        external\n    {\n        Link storage link = links[_voteMessageHash];\n\n        require(\n            block.number < link.targetBlockNumber.add(epochLength),\n            \"Current block number should be less than the sum of the target block number and epoch length\"\n        );\n\n        Protocore.registerVoteInternal(\n            _voteMessageHash,\n            _r,\n            _s,\n            _v\n        );\n    }\n\n    /**\n     * @notice It proposes a valid link to be voted later by active validators.\n     *         It emits LinkProposed event.\n     *\n     * @dev Function requires :\n     *          - parent vote messagehash must not be 0.\n     *          - target block hash must not be 0.\n     *          - source origin observation must not be 0.\n     *          - source committee lock must not be 0.\n     *          - open kernel hash must be same as source kernel hash.\n     *\n     * @param _parentVoteMessageHash Vote message hash of the parent link.\n     * @param _targetBlockHash Blockhash of the target checkpoint.\n     * @param _targetBlockNumber Block number of target checkpoint.\n     * @param _sourceOriginObservation Observation of the origin chain.\n     * @param _sourceKernelHash Open kernel hash.\n     * @param _sourceDynasty Metablock dynasty.\n     * @param _sourceAccumulatedGas Total gas consumed till target block number.\n     * @param _sourceCommitteeLock The committee lock that hashes the\n     *                             transaction root on the auxiliary chain.\n     */\n    function proposeLink(\n        bytes32 _parentVoteMessageHash,\n        bytes32 _targetBlockHash,\n        uint256 _targetBlockNumber,\n        bytes32 _sourceKernelHash,\n        bytes32 _sourceOriginObservation,\n        uint256 _sourceDynasty,\n        uint256 _sourceAccumulatedGas,\n        bytes32 _sourceCommitteeLock\n    )\n        external\n    {\n        require(\n            _parentVoteMessageHash != bytes32(0),\n            \"Parent vote message hash must not be 0.\"\n        );\n        require(\n            _targetBlockHash != bytes32(0),\n            \"Target blockhash must not be 0.\"\n        );\n        require(\n            _sourceOriginObservation != bytes32(0),\n            \"Origin observation must not be 0.\"\n        );\n        require(\n            _sourceCommitteeLock != bytes32(0),\n            \"Source committee lock must not be 0.\"\n        );\n        require(\n            _sourceKernelHash == openKernelHash,\n            \"Source kernel hash must be equal to the open kernel hash.\"\n        );\n\n        bytes32 sourceTransitionHash = hashTransition(\n            _sourceKernelHash,\n            _sourceOriginObservation,\n            _sourceDynasty,\n            _sourceAccumulatedGas,\n            _sourceCommitteeLock\n        );\n\n        Protocore.proposeLinkInternal(\n            _parentVoteMessageHash,\n            sourceTransitionHash,\n            _targetBlockHash,\n            _targetBlockNumber\n        );\n\n        emit LinkProposed(\n            _parentVoteMessageHash,\n            _targetBlockHash,\n            _targetBlockNumber,\n            _sourceOriginObservation,\n            _sourceKernelHash,\n            _sourceDynasty,\n            _sourceAccumulatedGas,\n            _sourceCommitteeLock\n        );\n    }\n\n\n    /* Private Functions */\n\n    /**\n     * @notice Takes the parameters of an source transition object and returns the\n     *         typed hash of it.\n     *\n     * @param _kernelHash Kernel hash\n     * @param _originObservation Observation of the origin chain.\n     * @param _dynasty The dynasty number where the meta-block closes\n     *                 on the auxiliary chain.\n     * @param _accumulatedGas The total consumed gas on auxiliary within this\n     *                        meta-block.\n     * @param _committeeLock The committee lock that hashes the transaction\n     *                       root on the auxiliary chain.\n     * @return hash_ The hash of source transition object.\n     */\n    function hashTransition(\n        bytes32 _kernelHash,\n        bytes32 _originObservation,\n        uint256 _dynasty,\n        uint256 _accumulatedGas,\n        bytes32 _committeeLock\n    )\n        private\n        view\n        returns (bytes32 hash_)\n    {\n        bytes32 typedTransitionHash = keccak256(\n            abi.encode(\n                TRANSITION_TYPEHASH,\n                _kernelHash,\n                _originObservation,\n                _dynasty,\n                _accumulatedGas,\n                _committeeLock\n            )\n        );\n\n        hash_ = keccak256(\n            abi.encodePacked(\n                byte(0x19),\n                byte(0x01),\n                domainSeparator,\n                typedTransitionHash\n            )\n        );\n    }\n}\n",
  "sourcePath": "/Users/abhay/Documents/projects/abhayforks/mosaic-1/contracts/protocore/SelfProtocore.sol",
  "compiler": {
    "name": "solc",
    "version": "0.5.13+commit.5b0b510c.Emscripten.clang"
  },
  "schemaVersion": "3.0.17",
  "updatedAt": "2020-03-21T06:48:34.756Z",
  "devdoc": {
    "methods": {
      "forwardValidatorSetCount(uint256)": {
        "details": "Function requires:         - height is less than active height",
        "params": {
          "_height": "Height for which to return the forward validator set count."
        }
      },
      "getCoconsensus()": {
        "return": "Coconsensus contract address."
      },
      "inForwardValidatorSet(address,uint256)": {
        "params": {
          "_height": "Metablock height.",
          "_validator": "Address of validator."
        }
      },
      "inValidatorSet(address,uint256)": {
        "params": {
          "_height": "Metablock height.",
          "_validator": "Address of validator."
        }
      },
      "openKernel(uint256,bytes32)": {
        "params": {
          "_kernelHash": "New kernel hash.     * \\pre Only coconsensus can call. \\pre Satisfies all pre conditions of Protocore::openKernelInternal().     * \\post Increments the active height of the validator set. \\post Satisfies all the post conditions of Protocore::openKernelInternal().",
          "_kernelHeight": "New kernel height."
        }
      },
      "proposeLink(bytes32,bytes32,uint256,bytes32,bytes32,uint256,uint256,bytes32)": {
        "details": "Function requires :         - parent vote messagehash must not be 0.         - target block hash must not be 0.         - source origin observation must not be 0.         - source committee lock must not be 0.         - open kernel hash must be same as source kernel hash.",
        "params": {
          "_parentVoteMessageHash": "Vote message hash of the parent link.",
          "_sourceAccumulatedGas": "Total gas consumed till target block number.",
          "_sourceCommitteeLock": "The committee lock that hashes the                            transaction root on the auxiliary chain.",
          "_sourceDynasty": "Metablock dynasty.",
          "_sourceKernelHash": "Open kernel hash.",
          "_sourceOriginObservation": "Observation of the origin chain.",
          "_targetBlockHash": "Blockhash of the target checkpoint.",
          "_targetBlockNumber": "Block number of target checkpoint."
        }
      },
      "registerVote(bytes32,bytes32,bytes32,uint8)": {
        "params": {
          "_r": "The first 32 bytes of ECDSA signature of a validator.",
          "_s": "The second 32 bytes of ECDSA signature of a validator.",
          "_v": "The recovery id/value of ECDSA signature of a validator.",
          "_voteMessageHash": "Message hash of a vote."
        }
      },
      "setup()": {
        "return": "Block hash and block number of finalized genesis checkpoint.     * \\post Sets `domainSeparator` to the given value. \\post Sets `epochLength` to the given value. \\post Sets `metachainId` to the given value. \\post Sets genesis link."
      },
      "upsertValidator(address,uint256,uint256)": {
        "details": "Function requires:     - Caller should be Coconsensus contract.     - Validator can get joined/removed only at height one greater than       current open kernel height.",
        "params": {
          "_height": "Validator start or end height to be updated.",
          "_reputation": "Validator's reputation value.",
          "_validator": "Validator address to upsert."
        }
      },
      "validatorSetCount(uint256)": {
        "details": "Function requires:         - height is less than active height",
        "params": {
          "_height": "Height for which to return the validator set count."
        }
      }
    },
    "title": "Self Protocore - This contract finalizes the proposed blocks of auxiliary chain."
  },
  "userdoc": {
    "methods": {
      "forwardValidatorSetCount(uint256)": {
        "notice": "returns the forward validator set count for heights up to active height, but not included."
      },
      "getCoconsensus()": {
        "notice": "Gets the coconsensus contract address."
      },
      "inForwardValidatorSet(address,uint256)": {
        "notice": "Checks if validator is in forward validator set or not."
      },
      "inValidatorSet(address,uint256)": {
        "notice": "Checks if validator is in validator set or not."
      },
      "openKernel(uint256,bytes32)": {
        "notice": "openKernel() function marks the specified kernel        as opened."
      },
      "proposeLink(bytes32,bytes32,uint256,bytes32,bytes32,uint256,uint256,bytes32)": {
        "notice": "It proposes a valid link to be voted later by active validators.        It emits LinkProposed event."
      },
      "registerVote(bytes32,bytes32,bytes32,uint8)": {
        "notice": "Registers a vote for a link specified by vote message hash.     * \\pre A link should exist in the links mapping for the given _voteMessageHash. \\pre The current block number must be less than the sum of the target     block number of link and epoch length. \\pre Satisfy the \\pre conditions of Protocore::registerVoteInternal().     * \\post Satisfy the \\post conditions of Protocore::registerVoteInternal()"
      },
      "setup()": {
        "notice": "setup() function initializes the current contract."
      },
      "upsertValidator(address,uint256,uint256)": {
        "notice": "Insert or remove validator. It inserts validator if not already        present and reputation is greater than 0. It removes validator        if it is present and reputation is 0."
      },
      "validatorSetCount(uint256)": {
        "notice": "returns the validator set count for heights up to active height, but not included."
      }
    }
  }
}