{
  "contractName": "SpyAnchor",
  "abi": [
    {
      "constant": true,
      "inputs": [],
      "name": "spyBlockNumber",
      "outputs": [
        {
          "internalType": "uint256",
          "name": "",
          "type": "uint256"
        }
      ],
      "payable": false,
      "stateMutability": "view",
      "type": "function"
    },
    {
      "constant": true,
      "inputs": [],
      "name": "spyConsensus",
      "outputs": [
        {
          "internalType": "address",
          "name": "",
          "type": "address"
        }
      ],
      "payable": false,
      "stateMutability": "view",
      "type": "function"
    },
    {
      "constant": true,
      "inputs": [],
      "name": "spyMaxStateRoot",
      "outputs": [
        {
          "internalType": "uint256",
          "name": "",
          "type": "uint256"
        }
      ],
      "payable": false,
      "stateMutability": "view",
      "type": "function"
    },
    {
      "constant": true,
      "inputs": [],
      "name": "spyStateRoot",
      "outputs": [
        {
          "internalType": "bytes32",
          "name": "",
          "type": "bytes32"
        }
      ],
      "payable": false,
      "stateMutability": "view",
      "type": "function"
    },
    {
      "constant": false,
      "inputs": [
        {
          "internalType": "uint256",
          "name": "_maxStateRoots",
          "type": "uint256"
        },
        {
          "internalType": "contract ConsensusInterface",
          "name": "_consensus",
          "type": "address"
        }
      ],
      "name": "setup",
      "outputs": [],
      "payable": false,
      "stateMutability": "nonpayable",
      "type": "function"
    },
    {
      "constant": true,
      "inputs": [],
      "name": "getLatestStateRootBlockHeight",
      "outputs": [
        {
          "internalType": "uint256",
          "name": "",
          "type": "uint256"
        }
      ],
      "payable": false,
      "stateMutability": "view",
      "type": "function"
    },
    {
      "constant": false,
      "inputs": [
        {
          "internalType": "uint256",
          "name": "_blockNumber",
          "type": "uint256"
        },
        {
          "internalType": "bytes32",
          "name": "_stateRoot",
          "type": "bytes32"
        }
      ],
      "name": "anchorStateRoot",
      "outputs": [],
      "payable": false,
      "stateMutability": "nonpayable",
      "type": "function"
    },
    {
      "constant": true,
      "inputs": [
        {
          "internalType": "uint256",
          "name": "_blockNumber",
          "type": "uint256"
        }
      ],
      "name": "getStateRoot",
      "outputs": [
        {
          "internalType": "bytes32",
          "name": "",
          "type": "bytes32"
        }
      ],
      "payable": false,
      "stateMutability": "view",
      "type": "function"
    }
  ],
  "bytecode": "0x608060405234801561001057600080fd5b50610273806100206000396000f3fe608060405234801561001057600080fd5b50600436106100885760003560e01c80635cf12c781161005b5780635cf12c78146100e5578063c380193814610108578063cadbdf0614610125578063f2e552081461012d57610088565b80630c901e751461008d57806329d51c01146100a75780632bb0e488146100af578063396aaac6146100b7575b600080fd5b610095610151565b60408051918252519081900360200190f35b610095610157565b61009561015d565b6100e3600480360360408110156100cd57600080fd5b50803590602001356001600160a01b0316610196565b005b6100e3600480360360408110156100fb57600080fd5b50803590602001356101bd565b6100956004803603602081101561011e57600080fd5b50356101d9565b6100956101eb565b6101356101f1565b604080516001600160a01b039092168252519081900360200190f35b60015481565b60035481565b600060405162461bcd60e51b815260040180806020018281038252603e815260200180610201603e913960400191505060405180910390fd5b600391909155600480546001600160a01b0319166001600160a01b03909216919091179055565b6001829055600281905560009182526005602052604090912055565b60009081526005602052604090205490565b60025481565b6004546001600160a01b03168156fe537079416e63686f723a3a6765744c61746573745374617465526f6f74426c6f636b4865696768742073686f756c64206e6f742062652063616c6c65642ea265627a7a72315820aba7cf4d7622a3d320039b9d6e1fb7e5a2e0e30f3f9e9985026a30282bcc829f64736f6c634300050d0032",
  "source": "pragma solidity >=0.5.0 <0.6.0;\n\n// Copyright 2019 OpenST Ltd.\n//\n// Licensed under the Apache License, Version 2.0 (the \"License\");\n// you may not use this file except in compliance with the License.\n// You may obtain a copy of the License at\n//\n//    http://www.apache.org/licenses/LICENSE-2.0\n//\n// Unless required by applicable law or agreed to in writing, software\n// distributed under the License is distributed on an \"AS IS\" BASIS,\n// WITHOUT WARRANTIES OR CONDITIONS OF ANY KIND, either express or implied.\n// See the License for the specific language governing permissions and\n// limitations under the License.\n\nimport \"../../anchor/AnchorInterface.sol\";\nimport \"../../consensus/ConsensusInterface.sol\";\nimport \"../../proxies/MasterCopyNonUpgradable.sol\";\n\ncontract SpyAnchor is MasterCopyNonUpgradable, AnchorInterface{\n\n    uint256 public spyBlockNumber;\n    bytes32 public spyStateRoot;\n    uint256 public spyMaxStateRoot;\n    address public spyConsensus;\n    mapping(uint256 => bytes32) stateRoots;\n\n    function setup(\n        uint256 _maxStateRoots,\n        ConsensusInterface _consensus\n    )\n        external\n    {\n        spyMaxStateRoot = _maxStateRoots;\n        spyConsensus = address(_consensus);\n    }\n\n    function getLatestStateRootBlockHeight()\n        external\n        view\n        returns (uint256)\n    {\n        require(false, \"SpyAnchor::getLatestStateRootBlockHeight should not be called.\");\n    }\n\n    /**\n     * @notice It sets state root for a block number.\n     *\n     * @param _blockNumber Block number.\n     * @param _stateRoot State root for a block number.\n     */\n    function anchorStateRoot(\n        uint256 _blockNumber,\n        bytes32 _stateRoot\n    )\n        external\n    {\n        spyBlockNumber = _blockNumber;\n        spyStateRoot = _stateRoot;\n        stateRoots[_blockNumber] = _stateRoot;\n    }\n\n    /**\n     * @notice It returns state root for a block number.\n     *\n     * @param _blockNumber Block number for which state root is required.\n     *\n     * @return State root for the block number.\n     */\n    function getStateRoot(uint256 _blockNumber) external view returns(bytes32) {\n        return stateRoots[_blockNumber];\n    }\n}\n",
  "sourcePath": "/Users/abhay/Documents/projects/abhayforks/mosaic-1/contracts/test/anchor/SpyAnchor.sol",
  "compiler": {
    "name": "solc",
    "version": "0.5.13+commit.5b0b510c.Emscripten.clang"
  },
  "schemaVersion": "3.0.17",
  "updatedAt": "2020-03-21T06:48:34.776Z",
  "devdoc": {
    "methods": {
      "anchorStateRoot(uint256,bytes32)": {
        "params": {
          "_blockNumber": "Block number.",
          "_stateRoot": "State root for a block number."
        }
      },
      "getStateRoot(uint256)": {
        "params": {
          "_blockNumber": "Block number for which state root is required."
        },
        "return": "State root for the block number."
      }
    }
  },
  "userdoc": {
    "methods": {
      "anchorStateRoot(uint256,bytes32)": {
        "notice": "It sets state root for a block number."
      },
      "getStateRoot(uint256)": {
        "notice": "It returns state root for a block number."
      }
    }
  }
}