{
  "contractName": "SpyAxiom",
  "abi": [
    {
      "constant": true,
      "inputs": [],
      "name": "mockedAnchorAddress",
      "outputs": [
        {
          "internalType": "address",
          "name": "",
          "type": "address"
        }
      ],
      "payable": false,
      "stateMutability": "view",
      "type": "function"
    },
    {
      "constant": true,
      "inputs": [],
      "name": "mockedCommitteeAddress",
      "outputs": [
        {
          "internalType": "address",
          "name": "",
          "type": "address"
        }
      ],
      "payable": false,
      "stateMutability": "view",
      "type": "function"
    },
    {
      "constant": true,
      "inputs": [],
      "name": "mockedConsensusGatewayAddress",
      "outputs": [
        {
          "internalType": "address",
          "name": "",
          "type": "address"
        }
      ],
      "payable": false,
      "stateMutability": "view",
      "type": "function"
    },
    {
      "constant": true,
      "inputs": [],
      "name": "mockedCoreAddress",
      "outputs": [
        {
          "internalType": "address",
          "name": "",
          "type": "address"
        }
      ],
      "payable": false,
      "stateMutability": "view",
      "type": "function"
    },
    {
      "constant": true,
      "inputs": [],
      "name": "spyNewAnchorCallData",
      "outputs": [
        {
          "internalType": "bytes",
          "name": "",
          "type": "bytes"
        }
      ],
      "payable": false,
      "stateMutability": "view",
      "type": "function"
    },
    {
      "constant": true,
      "inputs": [],
      "name": "spyNewCommitteeCallData",
      "outputs": [
        {
          "internalType": "bytes",
          "name": "",
          "type": "bytes"
        }
      ],
      "payable": false,
      "stateMutability": "view",
      "type": "function"
    },
    {
      "constant": true,
      "inputs": [],
      "name": "spyNewConsensusGatewayCallData",
      "outputs": [
        {
          "internalType": "bytes",
          "name": "",
          "type": "bytes"
        }
      ],
      "payable": false,
      "stateMutability": "view",
      "type": "function"
    },
    {
      "constant": true,
      "inputs": [],
      "name": "spyNewCoreCallData",
      "outputs": [
        {
          "internalType": "bytes",
          "name": "",
          "type": "bytes"
        }
      ],
      "payable": false,
      "stateMutability": "view",
      "type": "function"
    },
    {
      "constant": false,
      "inputs": [
        {
          "internalType": "contract Consensus",
          "name": "_consensus",
          "type": "address"
        }
      ],
      "name": "setupConsensus",
      "outputs": [],
      "payable": false,
      "stateMutability": "nonpayable",
      "type": "function"
    },
    {
      "constant": false,
      "inputs": [
        {
          "internalType": "bytes",
          "name": "_data",
          "type": "bytes"
        }
      ],
      "name": "newCore",
      "outputs": [
        {
          "internalType": "address",
          "name": "",
          "type": "address"
        }
      ],
      "payable": false,
      "stateMutability": "nonpayable",
      "type": "function"
    },
    {
      "constant": false,
      "inputs": [
        {
          "internalType": "bytes",
          "name": "_data",
          "type": "bytes"
        }
      ],
      "name": "newCommittee",
      "outputs": [
        {
          "internalType": "address",
          "name": "",
          "type": "address"
        }
      ],
      "payable": false,
      "stateMutability": "nonpayable",
      "type": "function"
    },
    {
      "constant": false,
      "inputs": [
        {
          "internalType": "contract Consensus",
          "name": "_consensus",
          "type": "address"
        }
      ],
      "name": "callNewMetachainOnConsensus",
      "outputs": [],
      "payable": false,
      "stateMutability": "nonpayable",
      "type": "function"
    },
    {
      "constant": false,
      "inputs": [
        {
          "internalType": "bytes",
          "name": "_coreSetupData",
          "type": "bytes"
        },
        {
          "internalType": "bytes",
          "name": "_consensusGatewaySetupData",
          "type": "bytes"
        }
      ],
      "name": "deployMetachainProxies",
      "outputs": [
        {
          "internalType": "address",
          "name": "core_",
          "type": "address"
        },
        {
          "internalType": "address",
          "name": "consensusGateway_",
          "type": "address"
        }
      ],
      "payable": false,
      "stateMutability": "nonpayable",
      "type": "function"
    },
    {
      "constant": false,
      "inputs": [
        {
          "internalType": "bytes",
          "name": "_anchorSetupData",
          "type": "bytes"
        }
      ],
      "name": "deployAnchor",
      "outputs": [
        {
          "internalType": "address",
          "name": "anchor_",
          "type": "address"
        }
      ],
      "payable": false,
      "stateMutability": "nonpayable",
      "type": "function"
    }
  ],
  "bytecode": "0x608060405234801561001057600080fd5b506108ee806100206000396000f3fe608060405234801561001057600080fd5b50600436106100ea5760003560e01c8063bef12c0b1161008c578063e3a6f61311610066578063e3a6f613146102da578063f2bb0d88146102e2578063f468e2bb146102ea578063f7332b86146103ce576100ea565b8063bef12c0b1461025c578063ca7caf4614610264578063d6c43558146102d2576100ea565b8063561101ec116100c8578063561101ec1461021e578063740d543c1461022657806376b70c091461022e578063b0b6fb0914610236576100ea565b806306a57b05146100ef57806319beeb7b146101175780632f390952146101a1575b600080fd5b6101156004803603602081101561010557600080fd5b50356001600160a01b031661043c565b005b6101856004803603602081101561012d57600080fd5b810190602081018135600160201b81111561014757600080fd5b82018360208201111561015957600080fd5b803590602001918460018302840111600160201b8311171561017a57600080fd5b509092509050610573565b604080516001600160a01b039092168252519081900360200190f35b6101a961058b565b6040805160208082528351818301528351919283929083019185019080838360005b838110156101e35781810151838201526020016101cb565b50505050905090810190601f1680156102105780820380516001836020036101000a031916815260200191505b509250505060405180910390f35b610185610618565b61018561061d565b610185610622565b6101156004803603602081101561024c57600080fd5b50356001600160a01b0316610627565b6101a96106b0565b6101856004803603602081101561027a57600080fd5b810190602081018135600160201b81111561029457600080fd5b8201836020820111156102a657600080fd5b803590602001918460018302840111600160201b831117156102c757600080fd5b50909250905061070b565b6101a9610723565b61018561077e565b6101a9610783565b6103a86004803603604081101561030057600080fd5b810190602081018135600160201b81111561031a57600080fd5b82018360208201111561032c57600080fd5b803590602001918460018302840111600160201b8311171561034d57600080fd5b919390929091602081019035600160201b81111561036a57600080fd5b82018360208201111561037c57600080fd5b803590602001918460018302840111600160201b8311171561039d57600080fd5b5090925090506107db565b604080516001600160a01b03938416815291909216602082015281519081900390910190f35b610185600480360360208110156103e457600080fd5b810190602081018135600160201b8111156103fe57600080fd5b82018360208201111561041057600080fd5b803590602001918460018302840111600160201b8311171561043157600080fd5b509092509050610807565b806001600160a01b03166303f920766040518163ffffffff1660e01b8152600401600060405180830381600087803b15801561047757600080fd5b505af115801561048b573d6000803e3d6000fd5b505050506040513d6000823e601f3d908101601f1916820160405260808110156104b457600080fd5b81516020830151604080850180519151939592948301929184600160201b8211156104de57600080fd5b9083019060208201858111156104f357600080fd5b8251600160201b81118282018810171561050c57600080fd5b82525081516020918201929091019080838360005b83811015610539578181015183820152602001610521565b50505050905090810190601f1680156105665780820380516001836020036101000a031916815260200191505b5060405250505050505050565b60006105816001848461081e565b5060709392505050565b60018054604080516020600284861615610100026000190190941693909304601f810184900484028201840190925281815292918301828280156106105780601f106105e557610100808354040283529160200191610610565b820191906000526020600020905b8154815290600101906020018083116105f357829003601f168201915b505050505081565b606f81565b607281565b607081565b60408051633e409be360e11b815260646004820181905260056024830152600660448301526201869f9082015260c86084820152600160a482015290516001600160a01b03831691637c8137c69160c480830192600092919082900301818387803b15801561069557600080fd5b505af11580156106a9573d6000803e3d6000fd5b5050505050565b6003805460408051602060026001851615610100026000190190941693909304601f810184900484028201840190925281815292918301828280156106105780601f106105e557610100808354040283529160200191610610565b60006107196002848461081e565b5060719392505050565b6000805460408051602060026001851615610100026000190190941693909304601f810184900484028201840190925281815292918301828280156106105780601f106105e557610100808354040283529160200191610610565b607181565b6002805460408051602060018416156101000260001901909316849004601f810184900484028201840190925281815292918301828280156106105780601f106105e557610100808354040283529160200191610610565b6000806107ea6001878761081e565b506107f76003858561081e565b5060709660729650945050505050565b600061081481848461081e565b50606f9392505050565b828054600181600116156101000203166002900490600052602060002090601f016020900481019282601f1061085f5782800160ff1982351617855561088c565b8280016001018555821561088c579182015b8281111561088c578235825591602001919060010190610871565b5061089892915061089c565b5090565b6108b691905b8082111561089857600081556001016108a2565b9056fea265627a7a7231582007223d49fbe5a5559aebe772d82659d7040e6979f383ed4ca0de1f0ea892f9a564736f6c634300050d0032",
  "source": "pragma solidity >=0.5.0 <0.6.0;\n\nimport \"../../axiom/AxiomInterface.sol\";\nimport \"../../consensus/Consensus.sol\";\n\ncontract SpyAxiom is AxiomInterface{\n\n    address public constant mockedCommitteeAddress = address(111);\n    address public constant mockedCoreAddress = address(112);\n    address public constant mockedAnchorAddress = address(113);\n    address public constant mockedConsensusGatewayAddress = address(114);\n\n    bytes public spyNewCommitteeCallData;\n    bytes public spyNewCoreCallData;\n    bytes public spyNewAnchorCallData;\n    bytes public spyNewConsensusGatewayCallData;\n\n    function setupConsensus(Consensus _consensus) public  {\n        _consensus.setup(\n            uint256(100),\n            uint256(5),\n            uint256(6),\n            uint256(99999),\n            uint256(200),\n            address(1)\n        );\n    }\n\n    function newCore(\n        bytes calldata _data\n    )\n        external\n        returns (address)\n    {\n        spyNewCoreCallData = _data;\n        return mockedCoreAddress;\n    }\n\n    function newCommittee(\n        bytes calldata _data\n    )\n        external\n        returns (address)\n    {\n        spyNewCommitteeCallData = _data;\n        return mockedCommitteeAddress;\n    }\n\n    function callNewMetachainOnConsensus(\n        Consensus _consensus\n    )\n        external\n    {\n        _consensus.newMetachain();\n    }\n\n    function deployMetachainProxies(\n        bytes calldata _coreSetupData,\n        bytes calldata _consensusGatewaySetupData\n    )\n        external\n        returns(address core_, address consensusGateway_){\n\n        spyNewCoreCallData = _coreSetupData;\n        spyNewConsensusGatewayCallData = _consensusGatewaySetupData;\n\n        core_ = mockedCoreAddress;\n        consensusGateway_ = mockedConsensusGatewayAddress;\n    }\n\n    function deployAnchor(\n        bytes calldata _anchorSetupData\n    )\n        external\n        returns(address anchor_) {\n        spyNewAnchorCallData = _anchorSetupData;\n        anchor_ = mockedAnchorAddress;\n    }\n\n}\n",
  "sourcePath": "/Users/abhay/Documents/projects/abhayforks/mosaic-1/contracts/test/axiom/SpyAxiom.sol",
  "compiler": {
    "name": "solc",
    "version": "0.5.13+commit.5b0b510c.Emscripten.clang"
  },
  "schemaVersion": "3.0.17",
  "updatedAt": "2020-03-21T06:48:34.778Z",
  "devdoc": {
    "methods": {}
  },
  "userdoc": {
    "methods": {}
  }
}