{
  "contractName": "SpyConsensusGateway",
  "abi": [
    {
      "constant": true,
      "inputs": [],
      "name": "spyCore",
      "outputs": [
        {
          "internalType": "address",
          "name": "",
          "type": "address"
        }
      ],
      "payable": false,
      "stateMutability": "view",
      "type": "function"
    },
    {
      "constant": true,
      "inputs": [],
      "name": "spyFeeGasLimit",
      "outputs": [
        {
          "internalType": "uint256",
          "name": "",
          "type": "uint256"
        }
      ],
      "payable": false,
      "stateMutability": "view",
      "type": "function"
    },
    {
      "constant": true,
      "inputs": [],
      "name": "spyFeeGasPrice",
      "outputs": [
        {
          "internalType": "uint256",
          "name": "",
          "type": "uint256"
        }
      ],
      "payable": false,
      "stateMutability": "view",
      "type": "function"
    },
    {
      "constant": false,
      "inputs": [],
      "name": "setup",
      "outputs": [],
      "payable": false,
      "stateMutability": "nonpayable",
      "type": "function"
    },
    {
      "constant": false,
      "inputs": [
        {
          "internalType": "address",
          "name": "_core",
          "type": "address"
        },
        {
          "internalType": "uint256",
          "name": "_feeGasPrice",
          "type": "uint256"
        },
        {
          "internalType": "uint256",
          "name": "_feeGasLimit",
          "type": "uint256"
        }
      ],
      "name": "declareOpenKernel",
      "outputs": [
        {
          "internalType": "bytes32",
          "name": "",
          "type": "bytes32"
        }
      ],
      "payable": false,
      "stateMutability": "nonpayable",
      "type": "function"
    }
  ],
  "bytecode": "0x608060405234801561001057600080fd5b5061015c806100206000396000f3fe608060405234801561001057600080fd5b50600436106100575760003560e01c806322cd65801461005c578063b823e51d14610076578063ba0bba401461007e578063e5acd28014610088578063ecafbcaf146100ba575b600080fd5b6100646100de565b60408051918252519081900360200190f35b6100646100e4565b6100866100ea565b005b6100646004803603606081101561009e57600080fd5b506001600160a01b0381351690602081013590604001356100ec565b6100c2610118565b604080516001600160a01b039092168252519081900360200190f35b60025481565b60035481565b565b600180546001600160a01b0319166001600160a01b039490941693909317909255600255600355600090565b6001546001600160a01b03168156fea265627a7a72315820e30460c1e8e1ae4f6ea053bc3e01b450cfb6069f883a4cf53c564742b8e865b164736f6c634300050d0032",
  "source": "pragma solidity >=0.5.0 <0.6.0;\n\n// Copyright 2019 OpenST Ltd.\n//\n// Licensed under the Apache License, Version 2.0 (the \"License\");\n// you may not use this file except in compliance with the License.\n// You may obtain a copy of the License at\n//\n//    http://www.apache.org/licenses/LICENSE-2.0\n//\n// Unless required by applicable law or agreed to in writing, software\n// distributed under the License is distributed on an \"AS IS\" BASIS,\n// WITHOUT WARRANTIES OR CONDITIONS OF ANY KIND, either express or implied.\n// See the License for the specific language governing permissions and\n// limitations under the License.\n\nimport \"../../proxies/MasterCopyNonUpgradable.sol\";\nimport \"../../consensus-gateway/ConsensusGatewayInterface.sol\";\n\ncontract SpyConsensusGateway is MasterCopyNonUpgradable, ConsensusGatewayInterface {\n\n    address public spyCore;\n    uint256 public spyFeeGasPrice;\n    uint256 public spyFeeGasLimit;\n\n    function setup() public {\n        // do nothing\n    }\n\n    function declareOpenKernel(\n        address _core,\n        uint256 _feeGasPrice,\n        uint256 _feeGasLimit\n    )\n        external\n        returns (bytes32)\n    {\n        spyCore = _core;\n        spyFeeGasPrice = _feeGasPrice;\n        spyFeeGasLimit = _feeGasLimit;\n    }\n}\n",
  "sourcePath": "/Users/abhay/Documents/projects/abhayforks/mosaic-1/contracts/test/consensus_gateway/SpyConsensusGateway.sol",
  "compiler": {
    "name": "solc",
    "version": "0.5.13+commit.5b0b510c.Emscripten.clang"
  },
  "schemaVersion": "3.0.17",
  "updatedAt": "2020-03-21T06:48:34.799Z",
  "devdoc": {
    "methods": {}
  },
  "userdoc": {
    "methods": {}
  }
}