{
  "contractName": "SpyCoconsensus",
  "abi": [
    {
      "constant": true,
      "inputs": [
        {
          "internalType": "bytes32",
          "name": "",
          "type": "bytes32"
        }
      ],
      "name": "anchors",
      "outputs": [
        {
          "internalType": "address",
          "name": "",
          "type": "address"
        }
      ],
      "payable": false,
      "stateMutability": "view",
      "type": "function"
    },
    {
      "constant": true,
      "inputs": [],
      "name": "spyMetachainId",
      "outputs": [
        {
          "internalType": "bytes32",
          "name": "",
          "type": "bytes32"
        }
      ],
      "payable": false,
      "stateMutability": "view",
      "type": "function"
    },
    {
      "constant": false,
      "inputs": [
        {
          "internalType": "bytes32",
          "name": "_metachainId",
          "type": "bytes32"
        },
        {
          "internalType": "address",
          "name": "anchor",
          "type": "address"
        }
      ],
      "name": "setAnchorAddress",
      "outputs": [],
      "payable": false,
      "stateMutability": "nonpayable",
      "type": "function"
    },
    {
      "constant": false,
      "inputs": [
        {
          "internalType": "bytes32",
          "name": "_metachainId",
          "type": "bytes32"
        }
      ],
      "name": "getAnchor",
      "outputs": [
        {
          "internalType": "address",
          "name": "",
          "type": "address"
        }
      ],
      "payable": false,
      "stateMutability": "nonpayable",
      "type": "function"
    },
    {
      "constant": false,
      "inputs": [
        {
          "internalType": "contract ProtocoreInterface",
          "name": "_protocore",
          "type": "address"
        },
        {
          "internalType": "bytes32",
          "name": "_kernelHash",
          "type": "bytes32"
        }
      ],
      "name": "openKernel",
      "outputs": [],
      "payable": false,
      "stateMutability": "nonpayable",
      "type": "function"
    },
    {
      "constant": false,
      "inputs": [
        {
          "internalType": "bytes32",
          "name": "metachainId",
          "type": "bytes32"
        },
        {
          "internalType": "uint256",
          "name": "blockNumber",
          "type": "uint256"
        },
        {
          "internalType": "bytes32",
          "name": "blockHash",
          "type": "bytes32"
        }
      ],
      "name": "finaliseCheckpoint",
      "outputs": [],
      "payable": false,
      "stateMutability": "nonpayable",
      "type": "function"
    }
  ],
  "bytecode": "0x608060405234801561001057600080fd5b50610302806100206000396000f3fe608060405234801561001057600080fd5b50600436106100625760003560e01c806318694088146100675780636d7e4a68146100815780637feb51d9146100ac578063b01b6d53146100e5578063b92b9b7514610102578063d3b988041461012e575b600080fd5b61006f61015a565b60408051918252519081900360200190f35b6100aa6004803603606081101561009757600080fd5b5080359060208101359060400135610160565b005b6100c9600480360360208110156100c257600080fd5b5035610165565b604080516001600160a01b039092168252519081900360200190f35b6100c9600480360360208110156100fb57600080fd5b5035610185565b6100aa6004803603604081101561011857600080fd5b506001600160a01b0381351690602001356101a0565b6100aa6004803603604081101561014457600080fd5b50803590602001356001600160a01b0316610286565b60015481565b505050565b60018190556000908152602081905260409020546001600160a01b031690565b6000602081905290815260409020546001600160a01b031681565b6000826001600160a01b0316634ff92af36040518163ffffffff1660e01b8152600401602060405180830381600087803b1580156101dd57600080fd5b505af11580156101f1573d6000803e3d6000fd5b505050506040513d602081101561020757600080fd5b505190506001600160a01b0383166309673c1d61022b83600163ffffffff6102b416565b846040518363ffffffff1660e01b81526004018083815260200182815260200192505050600060405180830381600087803b15801561026957600080fd5b505af115801561027d573d6000803e3d6000fd5b50505050505050565b60009182526020829052604090912080546001600160a01b0319166001600160a01b03909216919091179055565b6000828201838110156102c657600080fd5b939250505056fea265627a7a723158206b472906708555486d8605fd3ef6586b4d23f6cbcd55808e2918c933d4923a4f64736f6c634300050d0032",
  "source": "pragma solidity >=0.5.0 <0.6.0;\n\n// Copyright 2020 OpenST Ltd.\n//\n// Licensed under the Apache License, Version 2.0 (the \"License\");\n// you may not use this file except in compliance with the License.\n// You may obtain a copy of the License at\n//\n//    http://www.apache.org/licenses/LICENSE-2.0\n//\n// Unless required by applicable law or agreed to in writing, software\n// distributed under the License is distributed on an \"AS IS\" BASIS,\n// WITHOUT WARRANTIES OR CONDITIONS OF ANY KIND, either express or implied.\n// See the License for the specific language governing permissions and\n// limitations under the License.\n\nimport \"../../protocore/ProtocoreInterface.sol\";\n\nimport \"openzeppelin-solidity/contracts/math/SafeMath.sol\";\n\ncontract SpyCoconsensus {\n\n    /* Usings */\n\n    using SafeMath for uint256;\n\n\n    /* Storage */\n\n    mapping(bytes32 => address) public anchors;\n\n    bytes32 public spyMetachainId;\n\n    /* Functions */\n\n    function setAnchorAddress(bytes32 _metachainId, address anchor) public {\n        anchors[_metachainId] = anchor;\n    }\n\n    function getAnchor(bytes32 _metachainId) public returns(address) {\n        spyMetachainId = _metachainId;\n        return anchors[_metachainId];\n    }\n\n    function openKernel(\n        ProtocoreInterface _protocore,\n        bytes32 _kernelHash\n    )\n        external\n    {\n        uint256 openKernelHeight = _protocore.openKernelHeight();\n        _protocore.openKernel(\n            openKernelHeight.add(1),\n            _kernelHash\n        );\n    }\n\n    function finaliseCheckpoint(\n        bytes32 metachainId,\n        uint256 blockNumber,\n        bytes32 blockHash\n    )\n        external\n    {\n    }\n\n\n}\n",
  "sourcePath": "/Users/abhay/Documents/projects/abhayforks/mosaic-1/contracts/test/consensus_gateway/SpyCoconsensus.sol",
  "compiler": {
    "name": "solc",
    "version": "0.5.13+commit.5b0b510c.Emscripten.clang"
  },
  "schemaVersion": "3.0.17",
  "updatedAt": "2020-03-21T06:48:34.798Z",
  "devdoc": {
    "methods": {}
  },
  "userdoc": {
    "methods": {}
  }
}