{
  "contractName": "SpyCore",
  "abi": [
    {
      "constant": true,
      "inputs": [],
      "name": "minimumValidatorCount",
      "outputs": [
        {
          "internalType": "uint256",
          "name": "",
          "type": "uint256"
        }
      ],
      "payable": false,
      "stateMutability": "view",
      "type": "function"
    },
    {
      "constant": true,
      "inputs": [],
      "name": "mockedOpenKernelHash",
      "outputs": [
        {
          "internalType": "bytes32",
          "name": "",
          "type": "bytes32"
        }
      ],
      "payable": false,
      "stateMutability": "view",
      "type": "function"
    },
    {
      "constant": true,
      "inputs": [],
      "name": "mockedPrecommit",
      "outputs": [
        {
          "internalType": "bytes32",
          "name": "",
          "type": "bytes32"
        }
      ],
      "payable": false,
      "stateMutability": "view",
      "type": "function"
    },
    {
      "constant": true,
      "inputs": [],
      "name": "spyAccumulatedGas",
      "outputs": [
        {
          "internalType": "uint256",
          "name": "",
          "type": "uint256"
        }
      ],
      "payable": false,
      "stateMutability": "view",
      "type": "function"
    },
    {
      "constant": true,
      "inputs": [],
      "name": "spyCommittedAccumulatedGas",
      "outputs": [
        {
          "internalType": "uint256",
          "name": "",
          "type": "uint256"
        }
      ],
      "payable": false,
      "stateMutability": "view",
      "type": "function"
    },
    {
      "constant": true,
      "inputs": [],
      "name": "spyCommittedDynasty",
      "outputs": [
        {
          "internalType": "uint256",
          "name": "",
          "type": "uint256"
        }
      ],
      "payable": false,
      "stateMutability": "view",
      "type": "function"
    },
    {
      "constant": true,
      "inputs": [],
      "name": "spyCommittedSource",
      "outputs": [
        {
          "internalType": "bytes32",
          "name": "",
          "type": "bytes32"
        }
      ],
      "payable": false,
      "stateMutability": "view",
      "type": "function"
    },
    {
      "constant": true,
      "inputs": [],
      "name": "spyCommittedSourceBlockHeight",
      "outputs": [
        {
          "internalType": "uint256",
          "name": "",
          "type": "uint256"
        }
      ],
      "payable": false,
      "stateMutability": "view",
      "type": "function"
    },
    {
      "constant": true,
      "inputs": [],
      "name": "spyConsensus",
      "outputs": [
        {
          "internalType": "address",
          "name": "",
          "type": "address"
        }
      ],
      "payable": false,
      "stateMutability": "view",
      "type": "function"
    },
    {
      "constant": true,
      "inputs": [],
      "name": "spyDeltaGasTarget",
      "outputs": [
        {
          "internalType": "uint256",
          "name": "",
          "type": "uint256"
        }
      ],
      "payable": false,
      "stateMutability": "view",
      "type": "function"
    },
    {
      "constant": true,
      "inputs": [],
      "name": "spyDynasty",
      "outputs": [
        {
          "internalType": "uint256",
          "name": "",
          "type": "uint256"
        }
      ],
      "payable": false,
      "stateMutability": "view",
      "type": "function"
    },
    {
      "constant": true,
      "inputs": [],
      "name": "spyEpochLength",
      "outputs": [
        {
          "internalType": "uint256",
          "name": "",
          "type": "uint256"
        }
      ],
      "payable": false,
      "stateMutability": "view",
      "type": "function"
    },
    {
      "constant": true,
      "inputs": [],
      "name": "spyGasTarget",
      "outputs": [
        {
          "internalType": "uint256",
          "name": "",
          "type": "uint256"
        }
      ],
      "payable": false,
      "stateMutability": "view",
      "type": "function"
    },
    {
      "constant": true,
      "inputs": [],
      "name": "spyHeight",
      "outputs": [
        {
          "internalType": "uint256",
          "name": "",
          "type": "uint256"
        }
      ],
      "payable": false,
      "stateMutability": "view",
      "type": "function"
    },
    {
      "constant": true,
      "inputs": [],
      "name": "spyJoinLimit",
      "outputs": [
        {
          "internalType": "uint256",
          "name": "",
          "type": "uint256"
        }
      ],
      "payable": false,
      "stateMutability": "view",
      "type": "function"
    },
    {
      "constant": true,
      "inputs": [],
      "name": "spyMetachainId",
      "outputs": [
        {
          "internalType": "bytes32",
          "name": "",
          "type": "bytes32"
        }
      ],
      "payable": false,
      "stateMutability": "view",
      "type": "function"
    },
    {
      "constant": true,
      "inputs": [],
      "name": "spyMinValidators",
      "outputs": [
        {
          "internalType": "uint256",
          "name": "",
          "type": "uint256"
        }
      ],
      "payable": false,
      "stateMutability": "view",
      "type": "function"
    },
    {
      "constant": true,
      "inputs": [],
      "name": "spyParent",
      "outputs": [
        {
          "internalType": "bytes32",
          "name": "",
          "type": "bytes32"
        }
      ],
      "payable": false,
      "stateMutability": "view",
      "type": "function"
    },
    {
      "constant": true,
      "inputs": [],
      "name": "spyReputation",
      "outputs": [
        {
          "internalType": "address",
          "name": "",
          "type": "address"
        }
      ],
      "payable": false,
      "stateMutability": "view",
      "type": "function"
    },
    {
      "constant": true,
      "inputs": [],
      "name": "spySourceBlockHeight",
      "outputs": [
        {
          "internalType": "uint256",
          "name": "",
          "type": "uint256"
        }
      ],
      "payable": false,
      "stateMutability": "view",
      "type": "function"
    },
    {
      "constant": true,
      "inputs": [],
      "name": "spyValidator",
      "outputs": [
        {
          "internalType": "address",
          "name": "",
          "type": "address"
        }
      ],
      "payable": false,
      "stateMutability": "view",
      "type": "function"
    },
    {
      "constant": false,
      "inputs": [
        {
          "internalType": "address",
          "name": "_consensus",
          "type": "address"
        },
        {
          "internalType": "bytes32",
          "name": "_metachainId",
          "type": "bytes32"
        },
        {
          "internalType": "uint256",
          "name": "_epochLength",
          "type": "uint256"
        },
        {
          "internalType": "uint256",
          "name": "_minValidators",
          "type": "uint256"
        },
        {
          "internalType": "uint256",
          "name": "_joinLimit",
          "type": "uint256"
        },
        {
          "internalType": "address",
          "name": "_reputation",
          "type": "address"
        },
        {
          "internalType": "uint256",
          "name": "_height",
          "type": "uint256"
        },
        {
          "internalType": "bytes32",
          "name": "_parent",
          "type": "bytes32"
        },
        {
          "internalType": "uint256",
          "name": "_gasTarget",
          "type": "uint256"
        },
        {
          "internalType": "uint256",
          "name": "_dynasty",
          "type": "uint256"
        },
        {
          "internalType": "uint256",
          "name": "_accumulatedGas",
          "type": "uint256"
        },
        {
          "internalType": "uint256",
          "name": "_sourceBlockHeight",
          "type": "uint256"
        }
      ],
      "name": "setup",
      "outputs": [],
      "payable": false,
      "stateMutability": "nonpayable",
      "type": "function"
    },
    {
      "constant": false,
      "inputs": [
        {
          "internalType": "address",
          "name": "_validator",
          "type": "address"
        }
      ],
      "name": "joinBeforeOpen",
      "outputs": [
        {
          "internalType": "uint256",
          "name": "",
          "type": "uint256"
        },
        {
          "internalType": "uint256",
          "name": "",
          "type": "uint256"
        },
        {
          "internalType": "uint256",
          "name": "",
          "type": "uint256"
        }
      ],
      "payable": false,
      "stateMutability": "nonpayable",
      "type": "function"
    },
    {
      "constant": false,
      "inputs": [
        {
          "internalType": "address",
          "name": "_validator",
          "type": "address"
        }
      ],
      "name": "join",
      "outputs": [
        {
          "internalType": "uint256",
          "name": "",
          "type": "uint256"
        }
      ],
      "payable": false,
      "stateMutability": "nonpayable",
      "type": "function"
    },
    {
      "constant": false,
      "inputs": [
        {
          "internalType": "address",
          "name": "_validator",
          "type": "address"
        }
      ],
      "name": "logout",
      "outputs": [
        {
          "internalType": "uint256",
          "name": "",
          "type": "uint256"
        }
      ],
      "payable": false,
      "stateMutability": "nonpayable",
      "type": "function"
    },
    {
      "constant": false,
      "inputs": [
        {
          "internalType": "uint256",
          "name": "_committedDynasty",
          "type": "uint256"
        },
        {
          "internalType": "uint256",
          "name": "_committedAccumulatedGas",
          "type": "uint256"
        },
        {
          "internalType": "uint256",
          "name": "_committedSourceBlockHeight",
          "type": "uint256"
        },
        {
          "internalType": "uint256",
          "name": "_deltaGasTarget",
          "type": "uint256"
        }
      ],
      "name": "openMetablock",
      "outputs": [],
      "payable": false,
      "stateMutability": "nonpayable",
      "type": "function"
    },
    {
      "constant": true,
      "inputs": [
        {
          "internalType": "bytes32",
          "name": "",
          "type": "bytes32"
        },
        {
          "internalType": "bytes32",
          "name": "",
          "type": "bytes32"
        },
        {
          "internalType": "uint256",
          "name": "",
          "type": "uint256"
        },
        {
          "internalType": "uint256",
          "name": "",
          "type": "uint256"
        },
        {
          "internalType": "bytes32",
          "name": "",
          "type": "bytes32"
        },
        {
          "internalType": "bytes32",
          "name": "",
          "type": "bytes32"
        },
        {
          "internalType": "bytes32",
          "name": "",
          "type": "bytes32"
        },
        {
          "internalType": "uint256",
          "name": "",
          "type": "uint256"
        },
        {
          "internalType": "uint256",
          "name": "",
          "type": "uint256"
        }
      ],
      "name": "hashMetablock",
      "outputs": [
        {
          "internalType": "bytes32",
          "name": "",
          "type": "bytes32"
        }
      ],
      "payable": false,
      "stateMutability": "view",
      "type": "function"
    },
    {
      "constant": false,
      "inputs": [
        {
          "internalType": "bytes32",
          "name": "_precommitHash",
          "type": "bytes32"
        }
      ],
      "name": "mockPrecommit",
      "outputs": [],
      "payable": false,
      "stateMutability": "nonpayable",
      "type": "function"
    },
    {
      "constant": false,
      "inputs": [],
      "name": "precommit",
      "outputs": [
        {
          "internalType": "bytes32",
          "name": "",
          "type": "bytes32"
        }
      ],
      "payable": false,
      "stateMutability": "nonpayable",
      "type": "function"
    },
    {
      "constant": false,
      "inputs": [
        {
          "internalType": "bytes32",
          "name": "_kernelHash",
          "type": "bytes32"
        }
      ],
      "name": "mockOpenKernelHash",
      "outputs": [],
      "payable": false,
      "stateMutability": "nonpayable",
      "type": "function"
    },
    {
      "constant": false,
      "inputs": [],
      "name": "openKernelHash",
      "outputs": [
        {
          "internalType": "bytes32",
          "name": "",
          "type": "bytes32"
        }
      ],
      "payable": false,
      "stateMutability": "nonpayable",
      "type": "function"
    },
    {
      "constant": true,
      "inputs": [
        {
          "internalType": "address",
          "name": "",
          "type": "address"
        }
      ],
      "name": "isValidator",
      "outputs": [
        {
          "internalType": "bool",
          "name": "",
          "type": "bool"
        }
      ],
      "payable": false,
      "stateMutability": "view",
      "type": "function"
    },
    {
      "constant": false,
      "inputs": [],
      "name": "getOpenKernel",
      "outputs": [
        {
          "internalType": "bytes32",
          "name": "openKernelHash_",
          "type": "bytes32"
        },
        {
          "internalType": "uint256",
          "name": "openKernelHeight_",
          "type": "uint256"
        }
      ],
      "payable": false,
      "stateMutability": "nonpayable",
      "type": "function"
    }
  ],
  "bytecode": "0x6080604052600360015534801561001557600080fd5b506106f0806100256000396000f3fe608060405234801561001057600080fd5b50600436106101fb5760003560e01c80638996790d1161011a578063d174fbce116100ad578063f2e552081161007c578063f2e5520814610440578063facd743b14610448578063fcced56114610482578063fd6dfa431461048a578063ff992a8b146104ce576101fb565b8063d174fbce14610420578063d3c9280514610428578063df8992d514610430578063e5cd81f714610438576101fb565b8063b807536b116100e9578063b807536b14610408578063c36a37c514610410578063c47bdeaa14610418578063cc51f9b914610275576101fb565b80638996790d146103d357806390e21dcd146103db578063abc46f74146103f8578063b2eb444014610400576101fb565b80633fbb61a6116101925780636d2d40e1116101615780636d2d40e11461039a57806373d14eba146103a2578063823a8971146103aa57806385deba0a146103cb576101fb565b80633fbb61a61461030c578063528e29ed1461031457806355401a5f1461031c57806362d76edf1461036b576101fb565b806318694088116101ce57806318694088146102655780631df69c711461026d57806328ffe6c814610275578063385d265e1461029b576101fb565b8063012a0f6814610200578063102c0ca71461022457806313b2a7f71461023e57806314549ee61461025d575b600080fd5b6102086104d6565b604080516001600160a01b039092168252519081900360200190f35b61022c6104e5565b60408051918252519081900360200190f35b61025b6004803603602081101561025457600080fd5b50356104eb565b005b61022c6104f0565b61022c6104f6565b61022c6104fc565b61022c6004803603602081101561028b57600080fd5b50356001600160a01b0316610502565b61025b60048036036101808110156102b257600080fd5b506001600160a01b03813581169160208101359160408201359160608101359160808201359160a08101359091169060c08101359060e0810135906101008101359061012081013590610140810135906101600135610527565b61022c610591565b61022c610597565b61022c600480360361012081101561033357600080fd5b5080359060208101359060408101359060608101359060808101359060a08101359060c08101359060e081013590610100013561059d565b61025b6004803603608081101561038157600080fd5b50803590602081013590604081013590606001356105d6565b61022c6105ea565b61022c6105f0565b6103b26105f6565b6040805192835260208301919091528051918290030190f35b61022c6105fe565b61022c610604565b61025b600480360360208110156103f157600080fd5b503561060a565b61022c61060f565b61022c610615565b61022c61061b565b61022c610621565b61022c610627565b61020861062d565b61022c61063c565b61022c610642565b61022c610648565b61020861064e565b61046e6004803603602081101561045e57600080fd5b50356001600160a01b031661059d565b604080519115158252519081900360200190f35b61022c61065d565b6104b0600480360360208110156104a057600080fd5b50356001600160a01b0316610663565b60408051938452602084019290925282820152519081900360600190f35b61022c61068c565b6009546001600160a01b031681565b60035490565b600355565b60125481565b60055481565b60025490565b601080546001600160a01b0319166001600160a01b0392909216919091179055600090565b600480546001600160a01b039d8e166001600160a01b03199182161790915560059b909b5560069990995560079790975560089590955560098054949099169390971692909217909655600a95909555600b94909455600c92909255600d92909255600e55600f55565b60035481565b60115481565b600060405162461bcd60e51b81526004018080602001828103825260298152602001806106936029913960400191505060405180910390fd5b601193909355601291909155601455601555565b60085481565b600d5481565b600090600190565b600a5481565b60145481565b600255565b600b5481565b600c5481565b600f5481565b60025481565b600e5481565b6010546001600160a01b031681565b60155481565b60065481565b60135481565b6004546001600160a01b031681565b60015481565b601080546001600160a01b0319166001600160a01b039290921691909117905560009081908190565b6007548156fe546869732073686f756c64206e6f742062652063616c6c656420666f7220756e69742074657374732ea265627a7a723158201710d7d36a4c4691f5f43a28513f72945c6743ed328bbe5dacd228edd9b2a8b864736f6c634300050d0032",
  "source": "pragma solidity >=0.5.0 <0.6.0;\n\nimport \"../../core/CoreInterface.sol\";\nimport \"../../proxies/MasterCopyNonUpgradable.sol\";\n\ncontract SpyCore is MasterCopyNonUpgradable, CoreInterface{\n\n    uint256 public minimumValidatorCount = 3;\n\n    bytes32 public mockedOpenKernelHash;\n    bytes32 public mockedPrecommit;\n\n    address public spyConsensus;\n    bytes32 public spyMetachainId;\n    uint256 public spyEpochLength;\n    uint256 public spyMinValidators;\n    uint256 public spyJoinLimit;\n    address public spyReputation;\n    uint256 public spyHeight;\n    bytes32 public spyParent;\n    uint256 public spyGasTarget;\n    uint256 public spyDynasty;\n    uint256 public spyAccumulatedGas;\n    uint256 public spySourceBlockHeight;\n\n    address public spyValidator;\n\n    uint256 public spyCommittedDynasty;\n    uint256 public spyCommittedAccumulatedGas;\n    bytes32 public spyCommittedSource;\n    uint256 public spyCommittedSourceBlockHeight;\n    uint256 public spyDeltaGasTarget;\n\n    function setup(\n        address _consensus,\n        bytes32 _metachainId,\n        uint256 _epochLength,\n        uint256 _minValidators,\n        uint256 _joinLimit,\n        address _reputation,\n        uint256 _height,\n        bytes32 _parent,\n        uint256 _gasTarget,\n        uint256 _dynasty,\n        uint256 _accumulatedGas,\n        uint256 _sourceBlockHeight\n    )\n        external\n    {\n        spyConsensus = _consensus;\n        spyMetachainId = _metachainId;\n        spyEpochLength = _epochLength;\n        spyMinValidators = _minValidators;\n        spyJoinLimit = _joinLimit;\n        spyReputation = address(_reputation);\n        spyHeight = _height;\n        spyParent = _parent;\n        spyGasTarget = _gasTarget;\n        spyDynasty = _dynasty;\n        spyAccumulatedGas = _accumulatedGas;\n        spySourceBlockHeight = _sourceBlockHeight;\n    }\n\n    function joinBeforeOpen(address _validator)\n        external\n        returns (uint256, uint256, uint256)\n    {\n        spyValidator = _validator;\n    }\n\n    function join(address _validator) external returns (uint256) {\n        spyValidator = _validator;\n    }\n\n    function logout(address _validator) external returns (uint256) {\n        spyValidator = _validator;\n    }\n\n    function openMetablock(\n        uint256 _committedDynasty,\n        uint256 _committedAccumulatedGas,\n        uint256 _committedSourceBlockHeight,\n        uint256 _deltaGasTarget\n    )\n        external\n    {\n        spyCommittedDynasty = _committedDynasty;\n        spyCommittedAccumulatedGas = _committedAccumulatedGas;\n        spyCommittedSourceBlockHeight = _committedSourceBlockHeight;\n        spyDeltaGasTarget = _deltaGasTarget;\n    }\n\n    function hashMetablock(\n        bytes32,\n        bytes32,\n        uint256,\n        uint256,\n        bytes32,\n        bytes32,\n        bytes32,\n        uint256,\n        uint256\n    )\n        external\n        view\n        returns (bytes32)\n    {\n        // This is not used in test so break\n        require(false, \"This should not be called for unit tests.\");\n    }\n\n    function mockPrecommit(bytes32 _precommitHash) external {\n        mockedPrecommit = _precommitHash;\n    }\n    function precommit() external returns (bytes32) {\n        return mockedPrecommit;\n    }\n\n    function mockOpenKernelHash(bytes32 _kernelHash) external {\n        mockedOpenKernelHash = _kernelHash;\n    }\n\n    function openKernelHash() external returns (bytes32) {\n        return mockedOpenKernelHash;\n    }\n\n    // Note: Implementation will be done once it is required. As the method is\n    // in ICore interface, we would need it, otherwise SpyCore deployment cannot\n    // be done.\n    function isValidator(address)\n        external\n        view\n        returns (bool)\n    {\n        require(false, \"This should not be called for unit tests.\");\n    }\n\n    function getOpenKernel()\n        external\n        returns (bytes32 openKernelHash_, uint256 openKernelHeight_)\n    {\n        openKernelHash_ = bytes32(0);\n        openKernelHeight_ = 1;\n    }\n}\n",
  "sourcePath": "/Users/abhay/Documents/projects/abhayforks/mosaic-1/contracts/test/core/SpyCore.sol",
  "compiler": {
    "name": "solc",
    "version": "0.5.13+commit.5b0b510c.Emscripten.clang"
  },
  "schemaVersion": "3.0.17",
  "updatedAt": "2020-03-21T06:48:34.804Z",
  "devdoc": {
    "methods": {}
  },
  "userdoc": {
    "methods": {}
  }
}