{
  "contractName": "SpyCommittee",
  "abi": [
    {
      "constant": true,
      "inputs": [],
      "name": "furtherMember",
      "outputs": [
        {
          "internalType": "address",
          "name": "",
          "type": "address"
        }
      ],
      "payable": false,
      "stateMutability": "view",
      "type": "function"
    },
    {
      "constant": true,
      "inputs": [],
      "name": "isEnterCommitteeFunctionCalled",
      "outputs": [
        {
          "internalType": "bool",
          "name": "",
          "type": "bool"
        }
      ],
      "payable": false,
      "stateMutability": "view",
      "type": "function"
    },
    {
      "constant": true,
      "inputs": [],
      "name": "mockedCommitteeDecision",
      "outputs": [
        {
          "internalType": "bytes32",
          "name": "",
          "type": "bytes32"
        }
      ],
      "payable": false,
      "stateMutability": "view",
      "type": "function"
    },
    {
      "constant": true,
      "inputs": [],
      "name": "spyCommitteeSize",
      "outputs": [
        {
          "internalType": "uint256",
          "name": "",
          "type": "uint256"
        }
      ],
      "payable": false,
      "stateMutability": "view",
      "type": "function"
    },
    {
      "constant": true,
      "inputs": [],
      "name": "spyConsensus",
      "outputs": [
        {
          "internalType": "address",
          "name": "",
          "type": "address"
        }
      ],
      "payable": false,
      "stateMutability": "view",
      "type": "function"
    },
    {
      "constant": true,
      "inputs": [],
      "name": "spyDislocation",
      "outputs": [
        {
          "internalType": "bytes32",
          "name": "",
          "type": "bytes32"
        }
      ],
      "payable": false,
      "stateMutability": "view",
      "type": "function"
    },
    {
      "constant": true,
      "inputs": [],
      "name": "spyMetachainId",
      "outputs": [
        {
          "internalType": "bytes32",
          "name": "",
          "type": "bytes32"
        }
      ],
      "payable": false,
      "stateMutability": "view",
      "type": "function"
    },
    {
      "constant": true,
      "inputs": [],
      "name": "spyProposal",
      "outputs": [
        {
          "internalType": "bytes32",
          "name": "",
          "type": "bytes32"
        }
      ],
      "payable": false,
      "stateMutability": "view",
      "type": "function"
    },
    {
      "constant": true,
      "inputs": [],
      "name": "validator",
      "outputs": [
        {
          "internalType": "address",
          "name": "",
          "type": "address"
        }
      ],
      "payable": false,
      "stateMutability": "view",
      "type": "function"
    },
    {
      "constant": false,
      "inputs": [],
      "name": "resetFunctionCallFlags",
      "outputs": [],
      "payable": false,
      "stateMutability": "nonpayable",
      "type": "function"
    },
    {
      "constant": false,
      "inputs": [
        {
          "internalType": "address",
          "name": "_validator",
          "type": "address"
        },
        {
          "internalType": "address",
          "name": "_furtherMember",
          "type": "address"
        }
      ],
      "name": "enterCommittee",
      "outputs": [],
      "payable": false,
      "stateMutability": "nonpayable",
      "type": "function"
    },
    {
      "constant": false,
      "inputs": [
        {
          "internalType": "bytes32",
          "name": "_committeeDecision",
          "type": "bytes32"
        }
      ],
      "name": "mockCommitteeDecision",
      "outputs": [],
      "payable": false,
      "stateMutability": "nonpayable",
      "type": "function"
    },
    {
      "constant": true,
      "inputs": [],
      "name": "committeeDecision",
      "outputs": [
        {
          "internalType": "bytes32",
          "name": "",
          "type": "bytes32"
        }
      ],
      "payable": false,
      "stateMutability": "view",
      "type": "function"
    },
    {
      "constant": false,
      "inputs": [
        {
          "internalType": "bytes32",
          "name": "_metachainId",
          "type": "bytes32"
        },
        {
          "internalType": "address",
          "name": "_consensus",
          "type": "address"
        },
        {
          "internalType": "uint256",
          "name": "_committeeSize",
          "type": "uint256"
        },
        {
          "internalType": "bytes32",
          "name": "_dislocation",
          "type": "bytes32"
        },
        {
          "internalType": "bytes32",
          "name": "_proposal",
          "type": "bytes32"
        }
      ],
      "name": "setup",
      "outputs": [],
      "payable": false,
      "stateMutability": "nonpayable",
      "type": "function"
    }
  ],
  "bytecode": "0x608060405234801561001057600080fd5b5061032d806100206000396000f3fe608060405234801561001057600080fd5b50600436106100ea5760003560e01c806365c3a26f1161008c578063bf81b13b11610066578063bf81b13b146101ce578063e528a6f8146101fc578063f204253e14610204578063f2e552081461020c576100ea565b806365c3a26f14610180578063b74e2b6b146101be578063b802eaef146101c6576100ea565b80633f274f55116100c85780633f274f551461014c5780634b1c3a501461015457806352e5f65b1461015c5780635f49ef4a14610164576100ea565b80630cef54c5146100ef578063186940881461010e5780633a5381b514610128575b600080fd5b61010c6004803603602081101561010557600080fd5b5035610214565b005b610116610219565b60408051918252519081900360200190f35b61013061021f565b604080516001600160a01b039092168252519081900360200190f35b610116610233565b610130610239565b610116610248565b61016c61024e565b604080519115158252519081900360200190f35b61010c600480360360a081101561019657600080fd5b508035906001600160a01b036020820135169060408101359060608101359060800135610257565b610116610289565b61010c61028f565b61010c600480360360408110156101e457600080fd5b506001600160a01b038135811691602001351661029b565b6101166102dd565b6101166102e3565b6101306102e9565b600155565b60025481565b60075461010090046001600160a01b031681565b60065481565b6008546001600160a01b031681565b60015481565b60075460ff1681565b600294909455600380546001600160a01b0319166001600160a01b039490941693909317909255600455600555600655565b60045481565b6007805460ff19169055565b60078054600880546001600160a01b0319166001600160a01b03948516179055610100600160a81b03191661010093909216929092021760ff19166001179055565b60015490565b60055481565b6003546001600160a01b03168156fea265627a7a72315820490fbfeabff0acf7cbce94d7006995abb23b50f4584af8570e32ce437edc9e1f64736f6c634300050d0032",
  "source": "pragma solidity >=0.5.0 <0.6.0;\n\nimport \"../../committee/CommitteeInterface.sol\";\nimport \"../../proxies/MasterCopyNonUpgradable.sol\";\n\n// Copyright 2019 OpenST Ltd.\n//\n// Licensed under the Apache License, Version 2.0 (the \"License\");\n// you may not use this file except in compliance with the License.\n// You may obtain a copy of the License at\n//\n//    http://www.apache.org/licenses/LICENSE-2.0\n//\n// Unless required by applicable law or agreed to in writing, software\n// distributed under the License is distributed on an \"AS IS\" BASIS,\n// WITHOUT WARRANTIES OR CONDITIONS OF ANY KIND, either express or implied.\n// See the License for the specific language governing permissions and\n// limitations under the License.\n\ncontract SpyCommittee is MasterCopyNonUpgradable, CommitteeInterface{\n\n    bytes32 public mockedCommitteeDecision;\n\n    bytes32 public spyMetachainId;\n    address public spyConsensus;\n    uint256 public spyCommitteeSize;\n    bytes32 public spyDislocation;\n    bytes32 public spyProposal;\n\n    bool public isEnterCommitteeFunctionCalled;\n\n    address public validator;\n    address public furtherMember;\n\n    function resetFunctionCallFlags()\n        external\n    {\n        isEnterCommitteeFunctionCalled = false;\n    }\n\n    function enterCommittee(\n        address _validator,\n        address _furtherMember\n    )\n        external\n    {\n        validator = _validator;\n        furtherMember = _furtherMember;\n        isEnterCommitteeFunctionCalled = true;\n    }\n\n    function mockCommitteeDecision(bytes32 _committeeDecision) external {\n        mockedCommitteeDecision = _committeeDecision;\n    }\n\n    function committeeDecision() external view returns (bytes32) {\n        return mockedCommitteeDecision;\n    }\n\n    function setup(\n        bytes32 _metachainId,\n        address _consensus,\n        uint256 _committeeSize,\n        bytes32 _dislocation,\n        bytes32 _proposal\n    )\n        external\n    {\n        spyMetachainId = _metachainId;\n        spyConsensus = _consensus;\n        spyCommitteeSize = _committeeSize;\n        spyDislocation = _dislocation;\n        spyProposal = _proposal;\n    }\n}\n",
  "sourcePath": "/Users/abhay/Documents/projects/abhayforks/mosaic-1/contracts/test/committee/SpyCommittee.sol",
  "compiler": {
    "name": "solc",
    "version": "0.5.13+commit.5b0b510c.Emscripten.clang"
  },
  "schemaVersion": "3.0.17",
  "updatedAt": "2020-03-21T06:48:34.781Z",
  "devdoc": {
    "methods": {}
  },
  "userdoc": {
    "methods": {}
  }
}