{
  "contractName": "SpyConsensus",
  "abi": [
    {
      "constant": true,
      "inputs": [],
      "name": "anchor",
      "outputs": [
        {
          "internalType": "address",
          "name": "",
          "type": "address"
        }
      ],
      "payable": false,
      "stateMutability": "view",
      "type": "function"
    },
    {
      "constant": true,
      "inputs": [],
      "name": "coinbaseSplitPerMille",
      "outputs": [
        {
          "internalType": "uint256",
          "name": "",
          "type": "uint256"
        }
      ],
      "payable": false,
      "stateMutability": "view",
      "type": "function"
    },
    {
      "constant": true,
      "inputs": [],
      "name": "committeeSize",
      "outputs": [
        {
          "internalType": "uint256",
          "name": "",
          "type": "uint256"
        }
      ],
      "payable": false,
      "stateMutability": "view",
      "type": "function"
    },
    {
      "constant": true,
      "inputs": [],
      "name": "deployedContractAddress",
      "outputs": [
        {
          "internalType": "address",
          "name": "",
          "type": "address"
        }
      ],
      "payable": false,
      "stateMutability": "view",
      "type": "function"
    },
    {
      "constant": true,
      "inputs": [],
      "name": "epochLength",
      "outputs": [
        {
          "internalType": "uint256",
          "name": "",
          "type": "uint256"
        }
      ],
      "payable": false,
      "stateMutability": "view",
      "type": "function"
    },
    {
      "constant": true,
      "inputs": [],
      "name": "gasTargetDelta",
      "outputs": [
        {
          "internalType": "uint256",
          "name": "",
          "type": "uint256"
        }
      ],
      "payable": false,
      "stateMutability": "view",
      "type": "function"
    },
    {
      "constant": true,
      "inputs": [],
      "name": "joinLimit",
      "outputs": [
        {
          "internalType": "uint256",
          "name": "",
          "type": "uint256"
        }
      ],
      "payable": false,
      "stateMutability": "view",
      "type": "function"
    },
    {
      "constant": true,
      "inputs": [],
      "name": "minValidators",
      "outputs": [
        {
          "internalType": "uint256",
          "name": "",
          "type": "uint256"
        }
      ],
      "payable": false,
      "stateMutability": "view",
      "type": "function"
    },
    {
      "constant": true,
      "inputs": [],
      "name": "reputationAddress",
      "outputs": [
        {
          "internalType": "address",
          "name": "",
          "type": "address"
        }
      ],
      "payable": false,
      "stateMutability": "view",
      "type": "function"
    },
    {
      "constant": true,
      "inputs": [],
      "name": "sourceBlockHeight",
      "outputs": [
        {
          "internalType": "uint256",
          "name": "",
          "type": "uint256"
        }
      ],
      "payable": false,
      "stateMutability": "view",
      "type": "function"
    },
    {
      "constant": false,
      "inputs": [
        {
          "internalType": "uint256",
          "name": "_committeeSize",
          "type": "uint256"
        },
        {
          "internalType": "uint256",
          "name": "_minValidators",
          "type": "uint256"
        },
        {
          "internalType": "uint256",
          "name": "_joinLimit",
          "type": "uint256"
        },
        {
          "internalType": "uint256",
          "name": "_gasTargetDelta",
          "type": "uint256"
        },
        {
          "internalType": "uint256",
          "name": "_coinbaseSplitPerMille",
          "type": "uint256"
        },
        {
          "internalType": "address",
          "name": "_reputation",
          "type": "address"
        }
      ],
      "name": "setup",
      "outputs": [],
      "payable": false,
      "stateMutability": "nonpayable",
      "type": "function"
    },
    {
      "constant": true,
      "inputs": [],
      "name": "getReservedStorageSlotForProxy",
      "outputs": [
        {
          "internalType": "address",
          "name": "",
          "type": "address"
        }
      ],
      "payable": false,
      "stateMutability": "view",
      "type": "function"
    },
    {
      "constant": false,
      "inputs": [],
      "name": "newMetachain",
      "outputs": [
        {
          "internalType": "bytes32",
          "name": "metachainId_",
          "type": "bytes32"
        },
        {
          "internalType": "address",
          "name": "anchor_",
          "type": "address"
        },
        {
          "internalType": "string",
          "name": "mosaicVersion_",
          "type": "string"
        },
        {
          "internalType": "address",
          "name": "consensusGateway_",
          "type": "address"
        }
      ],
      "payable": false,
      "stateMutability": "nonpayable",
      "type": "function"
    },
    {
      "constant": false,
      "inputs": [
        {
          "internalType": "contract AxiomInterface",
          "name": "_axiom",
          "type": "address"
        },
        {
          "internalType": "bytes",
          "name": "_data",
          "type": "bytes"
        }
      ],
      "name": "callNewCore",
      "outputs": [],
      "payable": false,
      "stateMutability": "nonpayable",
      "type": "function"
    },
    {
      "constant": false,
      "inputs": [
        {
          "internalType": "contract AxiomInterface",
          "name": "_axiom",
          "type": "address"
        },
        {
          "internalType": "bytes",
          "name": "_data",
          "type": "bytes"
        }
      ],
      "name": "callNewCommittee",
      "outputs": [],
      "payable": false,
      "stateMutability": "nonpayable",
      "type": "function"
    },
    {
      "constant": true,
      "inputs": [],
      "name": "coreValidatorThresholds",
      "outputs": [
        {
          "internalType": "uint256",
          "name": "",
          "type": "uint256"
        },
        {
          "internalType": "uint256",
          "name": "",
          "type": "uint256"
        }
      ],
      "payable": false,
      "stateMutability": "view",
      "type": "function"
    },
    {
      "constant": false,
      "inputs": [
        {
          "internalType": "bytes32",
          "name": "",
          "type": "bytes32"
        },
        {
          "internalType": "uint256",
          "name": "",
          "type": "uint256"
        },
        {
          "internalType": "bytes32",
          "name": "",
          "type": "bytes32"
        }
      ],
      "name": "precommitMetablock",
      "outputs": [],
      "payable": false,
      "stateMutability": "nonpayable",
      "type": "function"
    },
    {
      "constant": false,
      "inputs": [
        {
          "internalType": "bytes32",
          "name": "",
          "type": "bytes32"
        },
        {
          "internalType": "bytes32",
          "name": "",
          "type": "bytes32"
        }
      ],
      "name": "registerCommitteeDecision",
      "outputs": [],
      "payable": false,
      "stateMutability": "nonpayable",
      "type": "function"
    },
    {
      "constant": true,
      "inputs": [],
      "name": "reputation",
      "outputs": [
        {
          "internalType": "contract ReputationInterface",
          "name": "reputation_",
          "type": "address"
        }
      ],
      "payable": false,
      "stateMutability": "view",
      "type": "function"
    },
    {
      "constant": false,
      "inputs": [
        {
          "internalType": "bytes32",
          "name": "",
          "type": "bytes32"
        }
      ],
      "name": "getAnchor",
      "outputs": [
        {
          "internalType": "address",
          "name": "anchor_",
          "type": "address"
        }
      ],
      "payable": false,
      "stateMutability": "nonpayable",
      "type": "function"
    }
  ],
  "bytecode": "0x608060405234801561001057600080fd5b50610736806100206000396000f3fe608060405234801561001057600080fd5b506004361061012c5760003560e01c8063a0cea4b0116100ad578063c5ab224111610071578063c5ab2241146103e6578063c8111da1146103ee578063d3fb73b414610417578063e8c28ce31461041f578063efa831ab146104275761012c565b8063a0cea4b0146103be578063a75778fc146103c6578063b35fbb27146103ce578063bcc392b4146103d6578063c52164c6146103de5761012c565b80635d4289b7116100f45780635d4289b71461030e5780637c8137c6146103315780637feb51d9146103755780638552230b146103ae5780639cf4364b146103b65761012c565b806303f92076146101315780631894bb8f146101ea5780631f2f947a1461026c57806332217b14146102ec57806357d775f814610306575b600080fd5b610139610448565b60405180858152602001846001600160a01b03166001600160a01b0316815260200180602001836001600160a01b03166001600160a01b03168152602001828103825284818151815260200191508051906020019080838360005b838110156101ac578181015183820152602001610194565b50505050905090810190601f1680156101d95780820380516001836020036101000a031916815260200191505b509550505050505060405180910390f35b61026a6004803603604081101561020057600080fd5b6001600160a01b03823516919081019060408101602082013564010000000081111561022b57600080fd5b82018360208201111561023d57600080fd5b8035906020019184600183028401116401000000008311171561025f57600080fd5b50909250905061047b565b005b61026a6004803603604081101561028257600080fd5b6001600160a01b0382351691908101906040810160208201356401000000008111156102ad57600080fd5b8201836020820111156102bf57600080fd5b803590602001918460018302840111640100000000831117156102e157600080fd5b50909250905061053f565b6102f46105b3565b60408051918252519081900360200190f35b6102f46105b9565b61026a6004803603604081101561032457600080fd5b50803590602001356105bf565b61026a600480360360c081101561034757600080fd5b5080359060208101359060408101359060608101359060808101359060a001356001600160a01b03166105f6565b6103926004803603602081101561038b57600080fd5b503561062f565b604080516001600160a01b039092168252519081900360200190f35b6102f4610635565b6102f461063b565b6102f4610641565b6102f4610647565b61039261064d565b61039261065c565b61039261066b565b6102f461067a565b61026a6004803603606081101561040457600080fd5b50803590602081013590604001356105bf565b610392610680565b61039261068f565b61042f61069e565b6040805192835260208301919091528051918290030190f35b60408051603160f81b815281519081900360019081018220828401909352808252600360fc1b6020830152908190919293565b604051637b9995c360e11b8152602060048201908152602482018390526001600160a01b0385169163f7332b869185918591908190604401848480828437600081840152601f19601f8201169050808301925050509350505050602060405180830381600087803b1580156104ef57600080fd5b505af1158015610503573d6000803e3d6000fd5b505050506040513d602081101561051957600080fd5b5051600a80546001600160a01b0319166001600160a01b03909216919091179055505050565b6040516319beeb7b60e01b8152602060048201908152602482018390526001600160a01b038516916319beeb7b9185918591908190604401848480828437600081840152601f19601f8201169050808301925050509350505050602060405180830381600087803b1580156104ef57600080fd5b60095481565b60085481565b60405162461bcd60e51b81526004018080602001828103825260298152602001806106d96029913960400191505060405180910390fd5b600195909555600293909355600391909155600455600555600680546001600160a01b0319166001600160a01b03909216919091179055565b50600190565b60045481565b60015481565b60035481565b60055481565b600a546001600160a01b031681565b6000546001600160a01b031690565b6006546001600160a01b031690565b60025481565b6007546001600160a01b031681565b6006546001600160a01b031681565b60008060405162461bcd60e51b81526004018080602001828103825260298152602001806106d96029913960400191505060405180910390fdfe546869732073686f756c64206e6f742062652063616c6c656420666f7220756e69742074657374732ea265627a7a723158202ace8a6033f0dd3fc54f82946f01fd56fcf036e38bbc131fe88ff6191dc4e09864736f6c634300050d0032",
  "source": "pragma solidity >=0.5.0 <0.6.0;\n\nimport \"../../axiom/AxiomInterface.sol\";\nimport \"../../consensus/ConsensusInterface.sol\";\nimport \"../../proxies/MasterCopyNonUpgradable.sol\";\n\ncontract SpyConsensus is MasterCopyNonUpgradable, ConsensusInterface {\n\n    uint256 public committeeSize;\n    uint256 public minValidators;\n    uint256 public joinLimit;\n    uint256 public gasTargetDelta;\n    uint256 public coinbaseSplitPerMille;\n    address public reputationAddress;\n\n    address public anchor;\n    uint256 public epochLength;\n    uint256 public sourceBlockHeight;\n\n    address public deployedContractAddress;\n\n    function setup(\n        uint256 _committeeSize,\n        uint256 _minValidators,\n        uint256 _joinLimit,\n        uint256 _gasTargetDelta,\n        uint256 _coinbaseSplitPerMille,\n        address _reputation\n    )\n        external\n    {\n        committeeSize = _committeeSize;\n        minValidators = _minValidators;\n        joinLimit = _joinLimit;\n        gasTargetDelta = _gasTargetDelta;\n        coinbaseSplitPerMille = _coinbaseSplitPerMille;\n        reputationAddress = _reputation;\n    }\n\n    function getReservedStorageSlotForProxy() external view returns (address) {\n        return reservedStorageSlotForProxy;\n    }\n\n    function newMetachain()\n        external\n        returns (\n            bytes32 metachainId_,\n            address anchor_,\n            string memory mosaicVersion_,\n            address consensusGateway_\n        )\n    {\n        return (keccak256(\"1\"), address(1), \"0\", address(1));\n    }\n\n    function callNewCore(\n        AxiomInterface _axiom,\n        bytes calldata _data\n    )\n        external\n    {\n        deployedContractAddress = _axiom.newCore(_data);\n    }\n\n    function callNewCommittee(\n        AxiomInterface _axiom,\n        bytes calldata _data\n    )\n    external\n    {\n        deployedContractAddress = _axiom.newCommittee(_data);\n    }\n\n    function coreValidatorThresholds()\n        external\n        view\n        returns (uint256, uint256)\n    {\n        // This is not used in test so break\n        require(false, \"This should not be called for unit tests.\");\n    }\n\n    function precommitMetablock(bytes32, uint256, bytes32)\n        external\n    {\n        // This is not used in test so break\n        require(false, \"This should not be called for unit tests.\");\n    }\n\n    function registerCommitteeDecision(bytes32, bytes32)\n        external\n    {\n        // This is not used in test so break.\n        require(false, \"This should not be called for unit tests.\");\n    }\n\n    /**\n     * @notice Get the reputation contract address.\n     * returns Reputation contract address.\n     */\n    function reputation()\n        external\n        view\n        returns (ReputationInterface reputation_)\n    {\n        reputation_ = ReputationInterface(reputationAddress);\n    }\n\n    /**\n     * @notice Get anchor address.\n     *\n     * @return anchor_ Anchor address.\n     */\n    function getAnchor(bytes32)\n        external\n        returns (address anchor_)\n    {\n        anchor_ = address(1);\n    }\n}\n",
  "sourcePath": "/Users/abhay/Documents/projects/abhayforks/mosaic-1/contracts/test/consensus/SpyConsensus.sol",
  "compiler": {
    "name": "solc",
    "version": "0.5.13+commit.5b0b510c.Emscripten.clang"
  },
  "schemaVersion": "3.0.17",
  "updatedAt": "2020-03-21T06:48:34.791Z",
  "devdoc": {
    "methods": {
      "getAnchor(bytes32)": {
        "return": "anchor_ Anchor address."
      }
    }
  },
  "userdoc": {
    "methods": {
      "getAnchor(bytes32)": {
        "notice": "Get anchor address."
      },
      "reputation()": {
        "notice": "Get the reputation contract address. returns Reputation contract address."
      }
    }
  }
}