{
  "contractName": "SpyReputation",
  "abi": [
    {
      "constant": true,
      "inputs": [
        {
          "internalType": "address",
          "name": "",
          "type": "address"
        }
      ],
      "name": "activeValidators",
      "outputs": [
        {
          "internalType": "bool",
          "name": "",
          "type": "bool"
        }
      ],
      "payable": false,
      "stateMutability": "view",
      "type": "function"
    },
    {
      "constant": true,
      "inputs": [],
      "name": "cashableEarningsPerMille",
      "outputs": [
        {
          "internalType": "uint256",
          "name": "",
          "type": "uint256"
        }
      ],
      "payable": false,
      "stateMutability": "view",
      "type": "function"
    },
    {
      "constant": true,
      "inputs": [],
      "name": "consensus",
      "outputs": [
        {
          "internalType": "address",
          "name": "",
          "type": "address"
        }
      ],
      "payable": false,
      "stateMutability": "view",
      "type": "function"
    },
    {
      "constant": true,
      "inputs": [],
      "name": "initialReputation",
      "outputs": [
        {
          "internalType": "uint256",
          "name": "",
          "type": "uint256"
        }
      ],
      "payable": false,
      "stateMutability": "view",
      "type": "function"
    },
    {
      "constant": true,
      "inputs": [],
      "name": "most",
      "outputs": [
        {
          "internalType": "address",
          "name": "",
          "type": "address"
        }
      ],
      "payable": false,
      "stateMutability": "view",
      "type": "function"
    },
    {
      "constant": true,
      "inputs": [],
      "name": "spyWithdrawalAddress",
      "outputs": [
        {
          "internalType": "address",
          "name": "",
          "type": "address"
        }
      ],
      "payable": false,
      "stateMutability": "view",
      "type": "function"
    },
    {
      "constant": true,
      "inputs": [],
      "name": "stakeMOSTAmount",
      "outputs": [
        {
          "internalType": "uint256",
          "name": "",
          "type": "uint256"
        }
      ],
      "payable": false,
      "stateMutability": "view",
      "type": "function"
    },
    {
      "constant": true,
      "inputs": [],
      "name": "stakeWETHAmount",
      "outputs": [
        {
          "internalType": "uint256",
          "name": "",
          "type": "uint256"
        }
      ],
      "payable": false,
      "stateMutability": "view",
      "type": "function"
    },
    {
      "constant": true,
      "inputs": [],
      "name": "validator",
      "outputs": [
        {
          "internalType": "address",
          "name": "",
          "type": "address"
        }
      ],
      "payable": false,
      "stateMutability": "view",
      "type": "function"
    },
    {
      "constant": true,
      "inputs": [],
      "name": "wETH",
      "outputs": [
        {
          "internalType": "address",
          "name": "",
          "type": "address"
        }
      ],
      "payable": false,
      "stateMutability": "view",
      "type": "function"
    },
    {
      "constant": true,
      "inputs": [],
      "name": "withdrawalCooldownPeriodInBlocks",
      "outputs": [
        {
          "internalType": "uint256",
          "name": "",
          "type": "uint256"
        }
      ],
      "payable": false,
      "stateMutability": "view",
      "type": "function"
    },
    {
      "constant": false,
      "inputs": [
        {
          "internalType": "address",
          "name": "_validator",
          "type": "address"
        },
        {
          "internalType": "bool",
          "name": "_active",
          "type": "bool"
        }
      ],
      "name": "setIsActive",
      "outputs": [],
      "payable": false,
      "stateMutability": "nonpayable",
      "type": "function"
    },
    {
      "constant": true,
      "inputs": [
        {
          "internalType": "address",
          "name": "_validator",
          "type": "address"
        }
      ],
      "name": "isSlashed",
      "outputs": [
        {
          "internalType": "bool",
          "name": "",
          "type": "bool"
        }
      ],
      "payable": false,
      "stateMutability": "view",
      "type": "function"
    },
    {
      "constant": false,
      "inputs": [
        {
          "internalType": "address",
          "name": "_consensus",
          "type": "address"
        },
        {
          "internalType": "address",
          "name": "_most",
          "type": "address"
        },
        {
          "internalType": "uint256",
          "name": "_stakeMOSTAmount",
          "type": "uint256"
        },
        {
          "internalType": "address",
          "name": "_wETH",
          "type": "address"
        },
        {
          "internalType": "uint256",
          "name": "_stakeWETHAmount",
          "type": "uint256"
        },
        {
          "internalType": "uint256",
          "name": "_cashableEarningsPerMille",
          "type": "uint256"
        },
        {
          "internalType": "uint256",
          "name": "_initialReputation",
          "type": "uint256"
        },
        {
          "internalType": "uint256",
          "name": "_withdrawalCooldownPeriodInBlocks",
          "type": "uint256"
        }
      ],
      "name": "setup",
      "outputs": [],
      "payable": false,
      "stateMutability": "nonpayable",
      "type": "function"
    },
    {
      "constant": true,
      "inputs": [],
      "name": "getReservedStorageSlotForProxy",
      "outputs": [
        {
          "internalType": "address",
          "name": "",
          "type": "address"
        }
      ],
      "payable": false,
      "stateMutability": "view",
      "type": "function"
    },
    {
      "constant": false,
      "inputs": [
        {
          "internalType": "address",
          "name": "_validator",
          "type": "address"
        },
        {
          "internalType": "address",
          "name": "_withdrawalAddress",
          "type": "address"
        }
      ],
      "name": "stake",
      "outputs": [
        {
          "internalType": "uint256",
          "name": "",
          "type": "uint256"
        }
      ],
      "payable": false,
      "stateMutability": "nonpayable",
      "type": "function"
    },
    {
      "constant": false,
      "inputs": [
        {
          "internalType": "address",
          "name": "_validator",
          "type": "address"
        }
      ],
      "name": "deregister",
      "outputs": [
        {
          "internalType": "uint256",
          "name": "",
          "type": "uint256"
        }
      ],
      "payable": false,
      "stateMutability": "nonpayable",
      "type": "function"
    },
    {
      "constant": true,
      "inputs": [
        {
          "internalType": "address",
          "name": "",
          "type": "address"
        }
      ],
      "name": "getReputation",
      "outputs": [
        {
          "internalType": "uint256",
          "name": "",
          "type": "uint256"
        }
      ],
      "payable": false,
      "stateMutability": "view",
      "type": "function"
    }
  ],
  "bytecode": "0x608060405234801561001057600080fd5b50610523806100206000396000f3fe608060405234801561001057600080fd5b50600436106101165760003560e01c806384ac33ec116100a2578063b97e4bde11610071578063b97e4bde146102bc578063ba26e612146102c4578063bcc392b4146102ea578063dd2795e7146102f2578063f2428621146102fa57610116565b806384ac33ec1461022e5780638ef3f761146102545780639c89a0e21461025c578063b799036c1461028257610116565b80633a5381b5116100e95780633a5381b5146101c45780633f9d5380146101e857806358d7889c146101f0578063808615ac146101f857806381e6de401461022657610116565b806301f410ec1461011b57806309545987146101355780630fe66cdd1461013d578063388920921461016d575b600080fd5b610123610302565b60408051918252519081900360200190f35b610123610308565b61016b6004803603604081101561015357600080fd5b506001600160a01b038135169060200135151561030e565b005b61016b600480360361010081101561018457600080fd5b506001600160a01b038135811691602081013582169160408201359160608101359091169060808101359060a08101359060c08101359060e00135610339565b6101cc610396565b604080516001600160a01b039092168252519081900360200190f35b6101cc6103a5565b6101cc6103b4565b6101236004803603604081101561020e57600080fd5b506001600160a01b03813581169160200135166103c3565b6101236103f4565b6101236004803603602081101561024457600080fd5b50356001600160a01b03166103fa565b6101cc61041f565b6101236004803603602081101561027257600080fd5b50356001600160a01b031661042e565b6102a86004803603602081101561029857600080fd5b50356001600160a01b0316610467565b604080519115158252519081900360200190f35b610123610486565b6102a8600480360360208110156102da57600080fd5b50356001600160a01b031661048c565b6101cc6104a1565b6101236104b0565b6101cc6104b6565b600a5481565b60085481565b6001600160a01b03919091166000908152600160205260409020805460ff1916911515919091179055565b600380546001600160a01b03998a166001600160a01b03199182161790915560048054988a169882169890981790975560059590955560068054949097169390951692909217909455600793909355600892909255600955600a55565b6002546001600160a01b031681565b600b546001600160a01b031681565b6004546001600160a01b031681565b600280546001600160a01b039384166001600160a01b031991821617909155600b8054929093169116179055600090565b60095481565b600280546001600160a01b0319166001600160a01b0392909216919091179055600090565b6003546001600160a01b031681565b600060405162461bcd60e51b81526004018080602001828103825260298152602001806104c66029913960400191505060405180910390fd5b6001600160a01b031660009081526001602052604090205460ff161590565b60055481565b60016020526000908152604090205460ff1681565b6000546001600160a01b031690565b60075481565b6006546001600160a01b03168156fe546869732073686f756c64206e6f742062652063616c6c656420666f7220756e69742074657374732ea265627a7a72315820adb4ced3cde3cb47555f7caca498ea14dc2607b60d1ca034d3cdca91448a4ec864736f6c634300050d0032",
  "source": "pragma solidity >=0.5.0 <0.6.0;\n\n// Copyright 2019 OpenST Ltd.\n//\n// Licensed under the Apache License, Version 2.0 (the \"License\");\n// you may not use this file except in compliance with the License.\n// You may obtain a copy of the License at\n//\n//    http://www.apache.org/licenses/LICENSE-2.0\n//\n// Unless required by applicable law or agreed to in writing, software\n// distributed under the License is distributed on an \"AS IS\" BASIS,\n// WITHOUT WARRANTIES OR CONDITIONS OF ANY KIND, either express or implied.\n// See the License for the specific language governing permissions and\n// limitations under the License.\n\nimport \"../../reputation/ReputationInterface.sol\";\nimport \"../../proxies/MasterCopyNonUpgradable.sol\";\n\ncontract SpyReputation is MasterCopyNonUpgradable, ReputationInterface {\n\n    mapping(address /* validator */ => bool /* isActive */) public activeValidators;\n\n    address public validator;\n\n    address public consensus;\n    address public most;\n    uint256 public stakeMOSTAmount;\n    address public wETH;\n    uint256 public stakeWETHAmount;\n    uint256 public cashableEarningsPerMille;\n    uint256 public initialReputation;\n    uint256 public withdrawalCooldownPeriodInBlocks;\n\n    address public spyWithdrawalAddress;\n\n    function setIsActive(\n        address _validator,\n        bool _active\n    )\n        external\n    {\n        activeValidators[_validator] = _active;\n    }\n\n    function isSlashed(\n        address _validator\n    )\n        public\n        view\n        returns (bool)\n    {\n        return !activeValidators[_validator];\n    }\n\n    function setup(\n        address _consensus,\n        address _most,\n        uint256 _stakeMOSTAmount,\n        address _wETH,\n        uint256 _stakeWETHAmount,\n        uint256 _cashableEarningsPerMille,\n        uint256 _initialReputation,\n        uint256 _withdrawalCooldownPeriodInBlocks\n    )\n        external\n    {\n        consensus =_consensus;\n        most = _most;\n        stakeMOSTAmount =_stakeMOSTAmount;\n        wETH = _wETH;\n        stakeWETHAmount =_stakeWETHAmount;\n        cashableEarningsPerMille =_cashableEarningsPerMille;\n        initialReputation = _initialReputation;\n        withdrawalCooldownPeriodInBlocks = _withdrawalCooldownPeriodInBlocks;\n    }\n\n    function getReservedStorageSlotForProxy() external view returns (address) {\n        return reservedStorageSlotForProxy;\n    }\n\n    function stake(\n        address _validator,\n        address _withdrawalAddress\n    )\n        external\n        returns (uint256)\n    {\n        validator = _validator;\n        spyWithdrawalAddress = _withdrawalAddress;\n    }\n\n    function deregister(address _validator) external returns (uint256) {\n        validator = _validator;\n    }\n\n    function getReputation(address) external view returns (uint256) {\n        // This is not used in test so break\n        require(false, \"This should not be called for unit tests.\");\n    }\n}\n",
  "sourcePath": "/Users/abhay/Documents/projects/abhayforks/mosaic-1/contracts/test/reputation/SpyReputation.sol",
  "compiler": {
    "name": "solc",
    "version": "0.5.13+commit.5b0b510c.Emscripten.clang"
  },
  "schemaVersion": "3.0.17",
  "updatedAt": "2020-03-21T06:48:34.826Z",
  "devdoc": {
    "methods": {}
  },
  "userdoc": {
    "methods": {}
  }
}