{
  "contractName": "StateRootProvider",
  "abi": [
    {
      "anonymous": false,
      "inputs": [
        {
          "indexed": false,
          "internalType": "uint256",
          "name": "_blockNumber",
          "type": "uint256"
        },
        {
          "indexed": false,
          "internalType": "bytes32",
          "name": "_stateRoot",
          "type": "bytes32"
        }
      ],
      "name": "StateRootAvailable",
      "type": "event"
    },
    {
      "constant": true,
      "inputs": [
        {
          "internalType": "uint256",
          "name": "_blockNumber",
          "type": "uint256"
        }
      ],
      "name": "getStateRoot",
      "outputs": [
        {
          "internalType": "bytes32",
          "name": "stateRoot_",
          "type": "bytes32"
        }
      ],
      "payable": false,
      "stateMutability": "view",
      "type": "function"
    },
    {
      "constant": true,
      "inputs": [],
      "name": "getLatestStateRootBlockNumber",
      "outputs": [
        {
          "internalType": "uint256",
          "name": "blockNumber_",
          "type": "uint256"
        }
      ],
      "payable": false,
      "stateMutability": "view",
      "type": "function"
    }
  ],
  "bytecode": "0x608060405234801561001057600080fd5b5060dc8061001f6000396000f3fe6080604052348015600f57600080fd5b506004361060325760003560e01c80635e3703bd146037578063c380193814604f575b600080fd5b603d6069565b60408051918252519081900360200190f35b603d60048036036020811015606357600080fd5b50356076565b600060716088565b905090565b60009081526002602052604090205490565b60008060015481548110609757fe5b906000526020600020015490509056fea265627a7a72315820cfe6f11cc3eafacfc597a3c6a47c5cc5bad97054725326ca06b0cc2cbcb2daf064736f6c634300050d0032",
  "source": "pragma solidity >=0.5.0 <0.6.0;\n\n// Copyright 2020 OpenST Ltd.\n//\n// Licensed under the Apache License, Version 2.0 (the \"License\");\n// you may not use this file except in compliance with the License.\n// You may obtain a copy of the License at\n//\n//    http://www.apache.org/licenses/LICENSE-2.0\n//\n// Unless required by applicable law or agreed to in writing, software\n// distributed under the License is distributed on an \"AS IS\" BASIS,\n// WITHOUT WARRANTIES OR CONDITIONS OF ANY KIND, either express or implied.\n// See the License for the specific language governing permissions and\n// limitations under the License.\n\nimport \"openzeppelin-solidity/contracts/math/SafeMath.sol\";\n\nimport \"../lib/CircularBufferUint.sol\";\n\ncontract StateRootProvider is CircularBufferUint {\n\n    /* Usings */\n\n    using SafeMath for uint256;\n\n\n    /* Events */\n\n    event StateRootAvailable(uint256 _blockNumber, bytes32 _stateRoot);\n\n\n    /* Storage */\n\n    /** Maps block numbers to their respective state root. */\n    mapping (uint256 => bytes32) private stateRoots;\n\n\n    /* External Functions */\n\n    /**\n     * @notice Get the state root for the given block number.\n     *\n     * @param _blockNumber The block number for which the state root is needed.\n     *\n     * @return bytes32 State root of the given number.\n     */\n    function getStateRoot(\n        uint256 _blockNumber\n    )\n        external\n        view\n        returns (bytes32 stateRoot_)\n    {\n        stateRoot_ = stateRoots[_blockNumber];\n    }\n\n    /**\n     * @notice Gets the block number of latest anchored state root.\n     *\n     * @return uint256 Block number of the latest anchored state root.\n     */\n    function getLatestStateRootBlockNumber()\n        external\n        view\n        returns (uint256 blockNumber_)\n    {\n        blockNumber_ = CircularBufferUint.head();\n    }\n\n\n    /* Internal Functions */\n\n    /**\n     * @notice Setup function for state root provider contract.\n     *\n     * @param _maxStateRoots The max number of state roots to store in the\n     *                       circular buffer.\n     */\n    function setup(\n        uint256 _maxStateRoots\n    )\n        internal\n    {\n        setupCircularBuffer(_maxStateRoots);\n    }\n\n    /**\n     * @notice Anchor the state root for an (increasing) block number.\n     *\n     * @dev  Function requires:\n     *          - stateRoot must not be zero\n     *          - blockNumber value must be greater than latestStateRootBlockNumber\n     *\n     * @param _blockNumber Block number for which state root needs to\n     *                      update.\n     * @param _stateRoot State root of input block number.\n     */\n    function anchorStateRootInternal(\n        uint256 _blockNumber,\n        bytes32 _stateRoot\n    )\n        internal\n    {\n        // State root should be valid\n        require(\n            _stateRoot != bytes32(0),\n            \"State root must not be zero.\"\n        );\n\n        // Input block number should be valid.\n        require(\n            _blockNumber > CircularBufferUint.head(),\n            \"Given block number is lower or equal to highest anchored state root block number.\"\n        );\n\n        stateRoots[_blockNumber] = _stateRoot;\n        uint256 oldestStoredBlockNumber = CircularBufferUint.store(_blockNumber);\n        delete stateRoots[oldestStoredBlockNumber];\n\n        emit StateRootAvailable(_blockNumber, _stateRoot);\n    }\n}\n",
  "sourcePath": "/Users/abhay/Documents/projects/abhayforks/mosaic-1/contracts/anchor/StateRootProvider.sol",
  "compiler": {
    "name": "solc",
    "version": "0.5.13+commit.5b0b510c.Emscripten.clang"
  },
  "schemaVersion": "3.0.17",
  "updatedAt": "2020-03-21T06:48:34.595Z",
  "devdoc": {
    "methods": {
      "getLatestStateRootBlockNumber()": {
        "return": "uint256 Block number of the latest anchored state root."
      },
      "getStateRoot(uint256)": {
        "params": {
          "_blockNumber": "The block number for which the state root is needed."
        },
        "return": "bytes32 State root of the given number."
      }
    }
  },
  "userdoc": {
    "methods": {
      "getLatestStateRootBlockNumber()": {
        "notice": "Gets the block number of latest anchored state root."
      },
      "getStateRoot(uint256)": {
        "notice": "Get the state root for the given block number."
      }
    }
  }
}