{
  "contractName": "TestProtocore",
  "abi": [
    {
      "inputs": [
        {
          "internalType": "contract CoconsensusInterface",
          "name": "_coconsensus",
          "type": "address"
        },
        {
          "internalType": "bytes32",
          "name": "_metachainId",
          "type": "bytes32"
        },
        {
          "internalType": "bytes32",
          "name": "_domainSeparator",
          "type": "bytes32"
        },
        {
          "internalType": "uint256",
          "name": "_epochLength",
          "type": "uint256"
        },
        {
          "internalType": "uint256",
          "name": "_genesisKernelHeight",
          "type": "uint256"
        },
        {
          "internalType": "bytes32",
          "name": "_genesisKernelHash",
          "type": "bytes32"
        },
        {
          "internalType": "bytes32",
          "name": "_genesisParentVoteMessageHash",
          "type": "bytes32"
        },
        {
          "internalType": "bytes32",
          "name": "_genesisSourceTransitionHash",
          "type": "bytes32"
        },
        {
          "internalType": "bytes32",
          "name": "_genesisSourceBlockHash",
          "type": "bytes32"
        },
        {
          "internalType": "bytes32",
          "name": "_genesisTargetBlockHash",
          "type": "bytes32"
        },
        {
          "internalType": "uint256",
          "name": "_genesisSourceBlockNumber",
          "type": "uint256"
        },
        {
          "internalType": "uint256",
          "name": "_genesisTargetBlockNumber",
          "type": "uint256"
        },
        {
          "internalType": "uint256",
          "name": "_genesisProposedMetablockHeight",
          "type": "uint256"
        }
      ],
      "payable": false,
      "stateMutability": "nonpayable",
      "type": "constructor"
    },
    {
      "anonymous": false,
      "inputs": [
        {
          "indexed": false,
          "internalType": "uint256",
          "name": "kernelHeight",
          "type": "uint256"
        },
        {
          "indexed": false,
          "internalType": "bytes32",
          "name": "kernelHash",
          "type": "bytes32"
        }
      ],
      "name": "KernelOpened",
      "type": "event"
    },
    {
      "anonymous": false,
      "inputs": [
        {
          "indexed": false,
          "internalType": "bytes32",
          "name": "voteMessageHash",
          "type": "bytes32"
        },
        {
          "indexed": false,
          "internalType": "enum Protocore.CheckpointFinalisationStatus",
          "name": "targetFinalisationStatus",
          "type": "uint8"
        }
      ],
      "name": "LinkUpvoted",
      "type": "event"
    },
    {
      "anonymous": false,
      "inputs": [
        {
          "indexed": false,
          "internalType": "bytes32",
          "name": "voteMessageHash",
          "type": "bytes32"
        },
        {
          "indexed": false,
          "internalType": "uint256",
          "name": "height",
          "type": "uint256"
        },
        {
          "indexed": false,
          "internalType": "bytes32",
          "name": "r",
          "type": "bytes32"
        },
        {
          "indexed": false,
          "internalType": "bytes32",
          "name": "s",
          "type": "bytes32"
        },
        {
          "indexed": false,
          "internalType": "uint8",
          "name": "v",
          "type": "uint8"
        }
      ],
      "name": "VoteRegistered",
      "type": "event"
    },
    {
      "constant": true,
      "inputs": [],
      "name": "CORE_SUPER_MAJORITY_DENOMINATOR",
      "outputs": [
        {
          "internalType": "uint256",
          "name": "",
          "type": "uint256"
        }
      ],
      "payable": false,
      "stateMutability": "view",
      "type": "function"
    },
    {
      "constant": true,
      "inputs": [],
      "name": "CORE_SUPER_MAJORITY_NUMERATOR",
      "outputs": [
        {
          "internalType": "uint256",
          "name": "",
          "type": "uint256"
        }
      ],
      "payable": false,
      "stateMutability": "view",
      "type": "function"
    },
    {
      "constant": true,
      "inputs": [],
      "name": "DOMAIN_SEPARATOR_VERSION",
      "outputs": [
        {
          "internalType": "string",
          "name": "",
          "type": "string"
        }
      ],
      "payable": false,
      "stateMutability": "view",
      "type": "function"
    },
    {
      "constant": true,
      "inputs": [],
      "name": "SENTINEL_VALIDATORS",
      "outputs": [
        {
          "internalType": "address",
          "name": "",
          "type": "address"
        }
      ],
      "payable": false,
      "stateMutability": "view",
      "type": "function"
    },
    {
      "constant": true,
      "inputs": [],
      "name": "VOTE_MESSAGE_TYPEHASH",
      "outputs": [
        {
          "internalType": "bytes32",
          "name": "",
          "type": "bytes32"
        }
      ],
      "payable": false,
      "stateMutability": "view",
      "type": "function"
    },
    {
      "constant": true,
      "inputs": [],
      "name": "coconsensus",
      "outputs": [
        {
          "internalType": "contract CoconsensusInterface",
          "name": "",
          "type": "address"
        }
      ],
      "payable": false,
      "stateMutability": "view",
      "type": "function"
    },
    {
      "constant": true,
      "inputs": [],
      "name": "domainSeparator",
      "outputs": [
        {
          "internalType": "bytes32",
          "name": "",
          "type": "bytes32"
        }
      ],
      "payable": false,
      "stateMutability": "view",
      "type": "function"
    },
    {
      "constant": true,
      "inputs": [],
      "name": "epochLength",
      "outputs": [
        {
          "internalType": "uint256",
          "name": "",
          "type": "uint256"
        }
      ],
      "payable": false,
      "stateMutability": "view",
      "type": "function"
    },
    {
      "constant": true,
      "inputs": [
        {
          "internalType": "uint256",
          "name": "",
          "type": "uint256"
        }
      ],
      "name": "fvsQuorums",
      "outputs": [
        {
          "internalType": "uint256",
          "name": "",
          "type": "uint256"
        }
      ],
      "payable": false,
      "stateMutability": "view",
      "type": "function"
    },
    {
      "constant": true,
      "inputs": [
        {
          "internalType": "bytes32",
          "name": "",
          "type": "bytes32"
        },
        {
          "internalType": "uint256",
          "name": "",
          "type": "uint256"
        },
        {
          "internalType": "address",
          "name": "",
          "type": "address"
        }
      ],
      "name": "fvsVotes",
      "outputs": [
        {
          "internalType": "address",
          "name": "",
          "type": "address"
        }
      ],
      "payable": false,
      "stateMutability": "view",
      "type": "function"
    },
    {
      "constant": true,
      "inputs": [
        {
          "internalType": "bytes32",
          "name": "",
          "type": "bytes32"
        }
      ],
      "name": "links",
      "outputs": [
        {
          "internalType": "bytes32",
          "name": "parentVoteMessageHash",
          "type": "bytes32"
        },
        {
          "internalType": "bytes32",
          "name": "targetBlockHash",
          "type": "bytes32"
        },
        {
          "internalType": "uint256",
          "name": "targetBlockNumber",
          "type": "uint256"
        },
        {
          "internalType": "bytes32",
          "name": "sourceTransitionHash",
          "type": "bytes32"
        },
        {
          "internalType": "uint256",
          "name": "proposedMetablockHeight",
          "type": "uint256"
        },
        {
          "internalType": "enum Protocore.CheckpointFinalisationStatus",
          "name": "targetFinalisation",
          "type": "uint8"
        }
      ],
      "payable": false,
      "stateMutability": "view",
      "type": "function"
    },
    {
      "constant": true,
      "inputs": [],
      "name": "metachainId",
      "outputs": [
        {
          "internalType": "bytes32",
          "name": "",
          "type": "bytes32"
        }
      ],
      "payable": false,
      "stateMutability": "view",
      "type": "function"
    },
    {
      "constant": true,
      "inputs": [],
      "name": "openKernelHash",
      "outputs": [
        {
          "internalType": "bytes32",
          "name": "",
          "type": "bytes32"
        }
      ],
      "payable": false,
      "stateMutability": "view",
      "type": "function"
    },
    {
      "constant": true,
      "inputs": [],
      "name": "openKernelHeight",
      "outputs": [
        {
          "internalType": "uint256",
          "name": "",
          "type": "uint256"
        }
      ],
      "payable": false,
      "stateMutability": "view",
      "type": "function"
    },
    {
      "constant": true,
      "inputs": [],
      "name": "getCoconsensus",
      "outputs": [
        {
          "internalType": "contract CoconsensusInterface",
          "name": "",
          "type": "address"
        }
      ],
      "payable": false,
      "stateMutability": "view",
      "type": "function"
    },
    {
      "constant": false,
      "inputs": [
        {
          "internalType": "uint256",
          "name": "_kernelHeight",
          "type": "uint256"
        },
        {
          "internalType": "bytes32",
          "name": "_kernelHash",
          "type": "bytes32"
        }
      ],
      "name": "openKernel",
      "outputs": [],
      "payable": false,
      "stateMutability": "nonpayable",
      "type": "function"
    },
    {
      "constant": false,
      "inputs": [
        {
          "internalType": "address",
          "name": "_validator",
          "type": "address"
        },
        {
          "internalType": "uint256",
          "name": "_height",
          "type": "uint256"
        }
      ],
      "name": "addToFVS",
      "outputs": [],
      "payable": false,
      "stateMutability": "nonpayable",
      "type": "function"
    },
    {
      "constant": true,
      "inputs": [
        {
          "internalType": "address",
          "name": "",
          "type": "address"
        },
        {
          "internalType": "uint256",
          "name": "",
          "type": "uint256"
        }
      ],
      "name": "inValidatorSet",
      "outputs": [
        {
          "internalType": "bool",
          "name": "",
          "type": "bool"
        }
      ],
      "payable": false,
      "stateMutability": "view",
      "type": "function"
    },
    {
      "constant": true,
      "inputs": [
        {
          "internalType": "address",
          "name": "_validator",
          "type": "address"
        },
        {
          "internalType": "uint256",
          "name": "_height",
          "type": "uint256"
        }
      ],
      "name": "inForwardValidatorSet",
      "outputs": [
        {
          "internalType": "bool",
          "name": "",
          "type": "bool"
        }
      ],
      "payable": false,
      "stateMutability": "view",
      "type": "function"
    },
    {
      "constant": true,
      "inputs": [
        {
          "internalType": "uint256",
          "name": "_height",
          "type": "uint256"
        }
      ],
      "name": "forwardValidatorSetCount",
      "outputs": [
        {
          "internalType": "uint256",
          "name": "",
          "type": "uint256"
        }
      ],
      "payable": false,
      "stateMutability": "view",
      "type": "function"
    },
    {
      "constant": false,
      "inputs": [
        {
          "internalType": "bytes32",
          "name": "_voteMessageHash",
          "type": "bytes32"
        },
        {
          "internalType": "bytes32",
          "name": "_r",
          "type": "bytes32"
        },
        {
          "internalType": "bytes32",
          "name": "_s",
          "type": "bytes32"
        },
        {
          "internalType": "uint8",
          "name": "_v",
          "type": "uint8"
        }
      ],
      "name": "registerVote",
      "outputs": [],
      "payable": false,
      "stateMutability": "nonpayable",
      "type": "function"
    },
    {
      "constant": false,
      "inputs": [
        {
          "internalType": "bytes32",
          "name": "_parentVoteMessageHash",
          "type": "bytes32"
        },
        {
          "internalType": "bytes32",
          "name": "_sourceTransitionHash",
          "type": "bytes32"
        },
        {
          "internalType": "bytes32",
          "name": "_targetBlockHash",
          "type": "bytes32"
        },
        {
          "internalType": "uint256",
          "name": "_targetBlockNumber",
          "type": "uint256"
        }
      ],
      "name": "proposeLink",
      "outputs": [],
      "payable": false,
      "stateMutability": "nonpayable",
      "type": "function"
    },
    {
      "constant": true,
      "inputs": [
        {
          "internalType": "bytes32",
          "name": "_voteMessageHash",
          "type": "bytes32"
        }
      ],
      "name": "getParentVoteMessageHash",
      "outputs": [
        {
          "internalType": "bytes32",
          "name": "",
          "type": "bytes32"
        }
      ],
      "payable": false,
      "stateMutability": "view",
      "type": "function"
    },
    {
      "constant": true,
      "inputs": [
        {
          "internalType": "bytes32",
          "name": "_voteMessageHash",
          "type": "bytes32"
        }
      ],
      "name": "getTargetBlockHash",
      "outputs": [
        {
          "internalType": "bytes32",
          "name": "",
          "type": "bytes32"
        }
      ],
      "payable": false,
      "stateMutability": "view",
      "type": "function"
    },
    {
      "constant": true,
      "inputs": [
        {
          "internalType": "bytes32",
          "name": "_voteMessageHash",
          "type": "bytes32"
        }
      ],
      "name": "getTargetBlockNumber",
      "outputs": [
        {
          "internalType": "uint256",
          "name": "",
          "type": "uint256"
        }
      ],
      "payable": false,
      "stateMutability": "view",
      "type": "function"
    },
    {
      "constant": true,
      "inputs": [
        {
          "internalType": "bytes32",
          "name": "_voteMessageHash",
          "type": "bytes32"
        }
      ],
      "name": "getSourceTransitionHash",
      "outputs": [
        {
          "internalType": "bytes32",
          "name": "",
          "type": "bytes32"
        }
      ],
      "payable": false,
      "stateMutability": "view",
      "type": "function"
    },
    {
      "constant": true,
      "inputs": [
        {
          "internalType": "bytes32",
          "name": "_voteMessageHash",
          "type": "bytes32"
        }
      ],
      "name": "getProposedMetablockHeight",
      "outputs": [
        {
          "internalType": "uint256",
          "name": "",
          "type": "uint256"
        }
      ],
      "payable": false,
      "stateMutability": "view",
      "type": "function"
    },
    {
      "constant": true,
      "inputs": [
        {
          "internalType": "bytes32",
          "name": "_voteMessageHash",
          "type": "bytes32"
        },
        {
          "internalType": "uint256",
          "name": "_height",
          "type": "uint256"
        }
      ],
      "name": "getForwardVoteCount",
      "outputs": [
        {
          "internalType": "uint256",
          "name": "",
          "type": "uint256"
        }
      ],
      "payable": false,
      "stateMutability": "view",
      "type": "function"
    },
    {
      "constant": true,
      "inputs": [
        {
          "internalType": "bytes32",
          "name": "_voteMessageHash",
          "type": "bytes32"
        },
        {
          "internalType": "uint256",
          "name": "_height",
          "type": "uint256"
        },
        {
          "internalType": "address",
          "name": "_validator",
          "type": "address"
        }
      ],
      "name": "hasVoted",
      "outputs": [
        {
          "internalType": "bool",
          "name": "",
          "type": "bool"
        }
      ],
      "payable": false,
      "stateMutability": "view",
      "type": "function"
    },
    {
      "constant": true,
      "inputs": [
        {
          "internalType": "bytes32",
          "name": "_voteMessageHash",
          "type": "bytes32"
        }
      ],
      "name": "getTargetFinalisation",
      "outputs": [
        {
          "internalType": "enum Protocore.CheckpointFinalisationStatus",
          "name": "",
          "type": "uint8"
        }
      ],
      "payable": false,
      "stateMutability": "view",
      "type": "function"
    },
    {
      "constant": true,
      "inputs": [
        {
          "internalType": "bytes32",
          "name": "_voteMessageHash",
          "type": "bytes32"
        }
      ],
      "name": "getSourceFinalisation",
      "outputs": [
        {
          "internalType": "enum Protocore.CheckpointFinalisationStatus",
          "name": "",
          "type": "uint8"
        }
      ],
      "payable": false,
      "stateMutability": "view",
      "type": "function"
    },
    {
      "constant": true,
      "inputs": [
        {
          "internalType": "bytes32",
          "name": "_voteMessageHash",
          "type": "bytes32"
        }
      ],
      "name": "isFinalisationLink",
      "outputs": [
        {
          "internalType": "bool",
          "name": "",
          "type": "bool"
        }
      ],
      "payable": false,
      "stateMutability": "view",
      "type": "function"
    },
    {
      "constant": true,
      "inputs": [
        {
          "internalType": "bytes32",
          "name": "_voteMessageHash",
          "type": "bytes32"
        },
        {
          "internalType": "uint256",
          "name": "_height",
          "type": "uint256"
        }
      ],
      "name": "getVoteCount",
      "outputs": [
        {
          "internalType": "uint256",
          "name": "",
          "type": "uint256"
        }
      ],
      "payable": false,
      "stateMutability": "view",
      "type": "function"
    }
  ],
  "bytecode": "0x6080604052600080546001600160a01b031916614d001790553480156200002557600080fd5b5060405162001dc238038062001dc283398181016040526101a08110156200004c57600080fd5b508051602082015160408301516060840151608085015160a086015160c087015160e08801516101008901516101208a01516101408b01516101608c0151610180909c01519a9b999a9899979896979596949593949293919290919087620000b057fe5b898381620000ba57fe5b0615620000c357fe5b83620000cb57fe5b898281620000d557fe5b0615620000de57fe5b82821015620000e957fe5b88811115620000f457fe5b60048990556005889055600980546001600160a01b0319166001600160a01b038f16179055620001398c8c8c848b8b8b8a8c8b6200014c602090811b620014ee17901c565b50505050505050505050505050620003d3565b60015415620001bc57604080517f08c379a000000000000000000000000000000000000000000000000000000000815260206004820181905260248201527f436f6e747261637420697320616c726561647920696e697469616c697a65642e604482015290519081900360640190fd5b876200022957604080517f08c379a000000000000000000000000000000000000000000000000000000000815260206004820152601260248201527f45706f6368206c656e67746820697320302e0000000000000000000000000000604482015290519081900360640190fd5b8862000281576040517f08c379a000000000000000000000000000000000000000000000000000000000815260040180806020018281038252602281526020018062001d196022913960400191505060405180910390fd5b60018a9055600389905560028890556000620002ae8a8787868887620002f3602090811b620013b317901c565b6000908152600760205260409020968755506001860191909155600285015550506003808301919091556004820192909255600601805460ff19169091179055505050565b600080604051808062001d3b60879139604080519182900360870182206020808401919091528282019a909a526060820198909852608081019690965250505060a083019190915260c0808301919091528251808303909101815260e0820183528051908401207f19000000000000000000000000000000000000000000000000000000000000006101008301527f01000000000000000000000000000000000000000000000000000000000000006101018301526101028201949094526101228082019490945281518082039094018452610142019052815191012090565b61193680620003e36000396000f3fe608060405234801561001057600080fd5b50600436106101fb5760003560e01c80637ec9d7531161011a578063ce6b6f96116100ad578063ed39cded1161007c578063ed39cded146105f9578063f173034a14610601578063f4f6fe711461038f578063f698da251461062d578063fe6666b414610635576101fb565b8063ce6b6f961461053b578063d1a976da14610581578063d42db412146105ad578063e94021cc146105ca576101fb565b8063af6d5aaf116100e9578063af6d5aaf1461040b578063b2fccc7f14610428578063b2fec5931461048c578063b4907ddc146104be576101fb565b80637ec9d753146103b2578063875760b2146103ba578063942a6b32146103d7578063a032006f14610403576101fb565b806334a779911161019257806366732f851161016157806366732f85146103385780636cbf2f4414610355578063715b8a5a1461037257806379d119dd1461038f576101fb565b806334a77991146102d95780634adba1ce1461030b5780634ff92af31461032857806357d775f814610330576101fb565b80631df69c71116101ce5780631df69c71146102b95780631fdeaa31146102c157806321c0bc49146102c957806323609af7146102d1576101fb565b806302b958361461020057806309673c1d146102415780630f10abfc14610266578063149fbab914610295575b600080fd5b61021d6004803603602081101561021657600080fd5b5035610652565b6040518082600381111561022d57fe5b60ff16815260200191505060405180910390f35b6102646004803603604081101561025757600080fd5b5080359060200135610670565b005b6102836004803603602081101561027c57600080fd5b503561067e565b60408051918252519081900360200190f35b61029d610690565b604080516001600160a01b039092168252519081900360200190f35b610283610695565b61028361069b565b6102836106a1565b61029d6106bc565b61029d600480360360608110156102ef57600080fd5b50803590602081013590604001356001600160a01b03166106cb565b6102836004803603602081101561032157600080fd5b50356106f7565b610283610709565b61028361070f565b6102836004803603602081101561034e57600080fd5b5035610715565b6102836004803603602081101561036b57600080fd5b503561072a565b61021d6004803603602081101561038857600080fd5b503561073f565b610283600480360360408110156103a557600080fd5b5080359060200135610757565b61028361077b565b610283600480360360208110156103d057600080fd5b5035610780565b610264600480360360408110156103ed57600080fd5b506001600160a01b038135169060200135610795565b61029d610830565b6102836004803603602081101561042157600080fd5b503561083f565b6104456004803603602081101561043e57600080fd5b5035610851565b6040518087815260200186815260200185815260200184815260200183815260200182600381111561047357fe5b60ff168152602001965050505050505060405180910390f35b610264600480360360808110156104a257600080fd5b508035906020810135906040810135906060013560ff16610889565b6104c661089b565b6040805160208082528351818301528351919283929083019185019080838360005b838110156105005781810151838201526020016104e8565b50505050905090810190601f16801561052d5780820380516001836020036101000a031916815260200191505b509250505060405180910390f35b61056d6004803603606081101561055157600080fd5b50803590602081013590604001356001600160a01b03166108b8565b604080519115158252519081900360200190f35b61056d6004803603604081101561059757600080fd5b506001600160a01b0381351690602001356108ea565b61056d600480360360208110156105c357600080fd5b50356108f2565b610264600480360360808110156105e057600080fd5b508035906020810135906040810135906060013561092f565b61028361093b565b61056d6004803603604081101561061757600080fd5b506001600160a01b038135169060200135610940565b61028361096a565b6102836004803603602081101561064b57600080fd5b5035610970565b60009081526007602052604080822054825290206006015460ff1690565b61067a8282610985565b5050565b60009081526007602052604090205490565b600181565b60055481565b60015481565b6040518060876116fa82396087019050604051809103902081565b6009546001600160a01b031690565b60086020908152600093845260408085208252928452828420905282529020546001600160a01b031681565b6000908152600b602052604090205490565b60045481565b60025481565b60009081526007602052604090206004015490565b60009081526007602052604090206002015490565b60009081526007602052604090206006015460ff1690565b60008281526007602090815260408083208484526005019091529020545b92915050565b600281565b60009081526007602052604090206003015490565b6001600160a01b0382166107a557fe5b6000818152600a602090815260408083206001600160a01b038616845290915290205460ff16156107d257fe5b6000818152600a602090815260408083206001600160a01b03861684528252808320805460ff19166001908117909155848452600b9092529091205461081d9163ffffffff610aa316565b6000918252600b60205260409091205550565b6009546001600160a01b031681565b60066020526000908152604090205481565b600760205260009081526040902080546001820154600283015460038401546004850154600690950154939492939192909160ff1686565b61089584848484610abc565b50505050565b604051806040016040528060018152602001600360fc1b81525081565b60009283526008602090815260408085209385529281528284206001600160a01b039283168552905291205416151590565b600192915050565b600081815260076020526040808220805483529082206002805481830154918401549091610926919063ffffffff610dbb16565b14949350505050565b61089584848484610dd0565b600381565b6000908152600a602090815260408083206001600160a01b03949094168352929052205460ff1690565b60035481565b60009081526007602052604090206001015490565b60045461099990600163ffffffff610aa316565b82146109d65760405162461bcd60e51b815260040180806020018281038252603c8152602001806116be603c913960400191505060405180910390fd5b80610a28576040805162461bcd60e51b815260206004820152601b60248201527f54686520676976656e206b65726e656c206861736820697320302e0000000000604482015290519081900360640190fd5b60048290556005819055610a43610a3e836106f7565b610ff5565b600660006004548152602001908152602001600020819055507fd63a98a1e8cc3e07f96ba750deeac7e678c5f5a5aaa80f7efbe54c5f6d3a98f6600454600554604051808381526020018281526020019250505060405180910390a15050565b600082820183811015610ab557600080fd5b9392505050565b83610b0e576040805162461bcd60e51b815260206004820152601760248201527f566f7465206d657373616765206861736820697320302e000000000000000000604482015290519081900360640190fd5b60008481526007602052604090206001600682015460ff166003811115610b3157fe5b1015610b6e5760405162461bcd60e51b815260040180806020018281038252602b81526020018061162b602b913960400191505060405180910390fd5b6004805490820154610b8790600163ffffffff610aa316565b1015610bc45760405162461bcd60e51b815260040180806020018281038252602e81526020018061185f602e913960400191505060405180910390fd5b604080516000808252602080830180855289905260ff86168385015260608301889052608083018790529251909260019260a080820193601f1981019281900390910190855afa158015610c1c573d6000803e3d6000fd5b5050604051601f1901519150506001600160a01b038116610c84576040805162461bcd60e51b815260206004820152601b60248201527f56616c696461746f72206d757374206e6f74206265206e756c6c2e0000000000604482015290519081900360640190fd5b610c90816004546108ea565b610ccb5760405162461bcd60e51b815260040180806020018281038252602b81526020018061188d602b913960400191505060405180910390fd5b6000868152600860209081526040808320600454845282528083206001600160a01b0385811685529252909120541615610d365760405162461bcd60e51b815260040180806020018281038252604a815260200180611815604a913960600191505060405180910390fd5b6000610d43878484611019565b9050610d4f8783611125565b6004546040805189815260208101929092528181018890526060820187905260ff86166080830152517fc9a0f2e3e4091dd3bda440d2760a1874040129d69ca8e36ebed34679426942a29181900360a00190a18015610db257610db2878461122a565b50505050505050565b600082821115610dca57600080fd5b50900390565b83610e22576040805162461bcd60e51b815260206004820152601e60248201527f506172656e7420766f7465206d657373616765206861736820697320302e0000604482015290519081900360640190fd5b81610e5e5760405162461bcd60e51b815260040180806020018281038252602c815260200180611781602c913960400191505060405180910390fd5b6002548181610e6957fe5b0615610ea65760405162461bcd60e51b81526004018080602001828103825260478152602001806117ad6047913960600191505060405180910390fd5b60008481526007602052604090206002600682015460ff166003811115610ec957fe5b1015610f065760405162461bcd60e51b81526004018080602001828103825260468152602001806116566046913960600191505060405180910390fd5b80600201548211610f485760405162461bcd60e51b815260040180806020018281038252604a8152602001806118b8604a913960600191505060405180910390fd5b6000610f62600354868460010154878660020154886113b3565b60008181526007602052604090206001015490915015610fb35760405162461bcd60e51b81526004018080602001828103825260218152602001806117f46021913960400191505060405180910390fd5b6000908152600760205260409020948555506001808501929092556002840155600383019190915560048054908301556006909101805460ff19169091179055565b6000610775600361100d84600263ffffffff61145a16565b9063ffffffff61148116565b600061102884600454846114a3565b1561106757600454600090815260058401602052604090205461105290600163ffffffff610aa316565b60045460009081526005850160205260409020555b600454600081815260066020908152604080832054600588019092529091205410159060019015611111576004546000906110a990600163ffffffff610dbb16565b90506110b68782876114a3565b156110ef5760008181526005870160205260409020546110dd90600163ffffffff610aa316565b60008281526005880160205260409020555b6000908152600660209081526040808320546005890190925290912054101590505b81801561111b5750805b9695505050505050565b6000828152600860209081526040808320600454845282528083206001600160a01b038581168552925290912054161561115b57fe5b600082815260086020908152604080832060045484528252808320600184529091529020546001600160a01b0316806111c557506000828152600860209081526040808320600454845282528083206001808552925290912080546001600160a01b031916821790555b60009283526008602090815260408085206004805487528184528287206001600160a01b039687168089529085528388208054979096166001600160a01b03199788161790955554865282528085206001865290915290922080549091169091179055565b6001600682015460ff16600381111561123f57fe5b141561067a5760068101805460ff1916600290811790915560408051848152602081019290925280517fae22109749a8e1b888ae2d2e15c3ce5ac0c18b153ee7718b7c75f738ef7384719281900390910190a18054600090815260076020526040902060028054818301549184015490916112c0919063ffffffff610dbb16565b14156113ae576002600682015460ff1660038111156112db57fe5b10156112e357fe5b60068101805460ff19166003908117909155825460408051918252602082019290925281517fae22109749a8e1b888ae2d2e15c3ce5ac0c18b153ee7718b7c75f738ef738471929181900390910190a161133b6106bc565b6001600160a01b0316636d7e4a68600154836002015484600101546040518463ffffffff1660e01b8152600401808481526020018381526020018281526020019350505050600060405180830381600087803b15801561139a57600080fd5b505af1158015610db2573d6000803e3d6000fd5b505050565b60008060405180806116fa60879139604080519182900360870182206020808401919091528282019a909a526060820198909852608081019690965250505060a083019190915260c0808301919091528251808303909101815260e082018352805190840120601960f81b610100830152600160f81b6101018301526101028201949094526101228082019490945281518082039094018452610142019052815191012090565b60008261146957506000610775565b8282028284828161147657fe5b0414610ab557600080fd5b600080821161148f57600080fd5b600082848161149a57fe5b04949350505050565b600083815260086020908152604080832085845282528083206001600160a01b03858116855292528220541615816114db8486610940565b905081801561111b575095945050505050565b60015415611543576040805162461bcd60e51b815260206004820181905260248201527f436f6e747261637420697320616c726561647920696e697469616c697a65642e604482015290519081900360640190fd5b8761158a576040805162461bcd60e51b815260206004820152601260248201527122b837b1b4103632b733ba341034b990181760711b604482015290519081900360640190fd5b886115c65760405162461bcd60e51b815260040180806020018281038252602281526020018061169c6022913960400191505060405180910390fd5b60018a90556003899055600288905560006115e58a87878688876113b3565b6000908152600760205260409020968755506001860191909155600285015550506003808301919091556004820192909255600601805460ff1916909117905550505056fe54686520676976656e206c696e6b20737461747573206973206174206c65617374207265706f727465642e506172656e74206c696e6b2773207461726765742066696e616c69736174696f6e207374617475732073686f756c64206265206174206c65617374206a75737469666965642e446f6d61696e20736570617261746f72206d757374206e6f74206265206e756c6c2e54686520676976656e206b65726e656c206865696768742073686f756c6420626520706c75732031206f66207468652063757272656e74206f6e652e566f74654d6573736167652862797465733332207472616e736974696f6e486173682c6279746573333220736f75726365426c6f636b486173682c6279746573333220746172676574426c6f636b486173682c75696e7432353620736f75726365426c6f636b4e756d6265722c75696e7432353620746172676574426c6f636b4e756d6265722954617267657420626c6f636b2068617368206f66207468652070726f706f736564206c696e6b20697320302e54617267657420626c6f636b206e756d626572206f6620746865206c696e6b2073686f756c64206265206d756c7469706c65206f66207468652065706f6368206c656e6774682e5468652070726f706f736564206c696e6b20616c7265616479206578697374732e56616c696461746f7220766f74652063616e6e6f74206265207265676973746572656420747769636520696e2046565320766f746573206174207468652073616d65206865696768742e4c696e6b2068656967687420696e636c7573696f6e207072696e6369706c6520686173207375727061737365642e56616c696461746f72206d75737420626520696e2063757272656e742076616c696461746f72207365742e54617267657420626c6f636b206e756d626572206f66207468652070726f706f736564206c696e6b2073686f756c6420626520626967676572207468616e20706172656e74206f6e652ea265627a7a72315820e1a358023e77d67c2feaf598244f4530c4718fc34e41b23a9d96d7422446c31664736f6c634300050d0032446f6d61696e20736570617261746f72206d757374206e6f74206265206e756c6c2e566f74654d6573736167652862797465733332207472616e736974696f6e486173682c6279746573333220736f75726365426c6f636b486173682c6279746573333220746172676574426c6f636b486173682c75696e7432353620736f75726365426c6f636b4e756d6265722c75696e7432353620746172676574426c6f636b4e756d62657229",
  "source": "pragma solidity >=0.5.0 <0.6.0;\n\n// Copyright 2019 OpenST Ltd.\n//\n// Licensed under the Apache License, Version 2.0 (the \"License\");\n// you may not use this file except in compliance with the License.\n// You may obtain a copy of the License at\n//\n//    http://www.apache.org/licenses/LICENSE-2.0\n//\n// Unless required by applicable law or agreed to in writing, software\n// distributed under the License is distributed on an \"AS IS\" BASIS,\n// WITHOUT WARRANTIES OR CONDITIONS OF ANY KIND, either express or implied.\n// See the License for the specific language governing permissions and\n// limitations under the License.\n\nimport \"../../consensus/CoconsensusInterface.sol\";\nimport \"../../protocore/Protocore.sol\";\nimport \"../../validator-set/ValidatorSet.sol\";\n\ncontract TestProtocore is Protocore {\n\n\t/* Storage */\n\n    CoconsensusInterface public coconsensus;\n\n    mapping(uint256 /* metablock height */ => mapping(address /* validator */ => bool)) fvs;\n    mapping(uint256 /* metablock height */ => uint256 /* fvs count */) fvsCounts;\n\n\n    /* Functions */\n\n    constructor(\n        CoconsensusInterface _coconsensus,\n        bytes32 _metachainId,\n        bytes32 _domainSeparator,\n        uint256 _epochLength,\n        uint256 _genesisKernelHeight,\n        bytes32 _genesisKernelHash,\n        bytes32 _genesisParentVoteMessageHash,\n        bytes32 _genesisSourceTransitionHash,\n        bytes32 _genesisSourceBlockHash,\n        bytes32 _genesisTargetBlockHash,\n        uint256 _genesisSourceBlockNumber,\n        uint256 _genesisTargetBlockNumber,\n        uint256 _genesisProposedMetablockHeight\n    )\n        public\n    {\n        assert(_genesisKernelHash != bytes32(0));\n        assert(_genesisSourceBlockNumber % _epochLength == 0);\n        assert(_genesisTargetBlockHash != bytes32(0));\n        assert(_genesisTargetBlockNumber % _epochLength == 0);\n        assert(_genesisTargetBlockNumber >= _genesisSourceBlockNumber);\n        assert(_genesisProposedMetablockHeight <= _genesisKernelHeight);\n\n        openKernelHeight = _genesisKernelHeight;\n        openKernelHash = _genesisKernelHash;\n\n        coconsensus = _coconsensus;\n\n        Protocore.setupProtocore(\n            _metachainId,\n            _domainSeparator,\n            _epochLength,\n            _genesisProposedMetablockHeight,\n            _genesisParentVoteMessageHash,\n            _genesisSourceTransitionHash,\n            _genesisSourceBlockHash,\n            _genesisSourceBlockNumber,\n            _genesisTargetBlockHash,\n            _genesisTargetBlockNumber\n        );\n    }\n\n    function getCoconsensus()\n        public\n        view\n        returns (CoconsensusInterface)\n    {\n        return coconsensus;\n    }\n\n    function openKernel(\n        uint256 _kernelHeight,\n        bytes32 _kernelHash\n    )\n        external\n    {\n        Protocore.openKernelInternal(_kernelHeight, _kernelHash);\n    }\n\n    function addToFVS(address _validator, uint256 _height)\n        external\n    {\n        assert(_validator != address(0));\n        assert(fvs[_height][_validator] == false);\n\n        fvs[_height][_validator] = true;\n        fvsCounts[_height] = fvsCounts[_height].add(1);\n    }\n\n    function inValidatorSet(address, uint256)\n        public\n        view\n        returns (bool)\n    {\n        return true;\n    }\n\n    function inForwardValidatorSet(address _validator, uint256 _height)\n        public\n        view\n        returns (bool)\n    {\n        return fvs[_height][_validator];\n    }\n\n    function forwardValidatorSetCount(uint256 _height)\n        public\n        view\n        returns (uint256)\n    {\n        return fvsCounts[_height];\n    }\n\n    function registerVote(\n        bytes32 _voteMessageHash,\n        bytes32 _r,\n        bytes32 _s,\n        uint8 _v\n    )\n        external\n    {\n        Protocore.registerVoteInternal(\n            _voteMessageHash,\n            _r,\n            _s,\n            _v\n        );\n    }\n\n    function proposeLink(\n        bytes32 _parentVoteMessageHash,\n        bytes32 _sourceTransitionHash,\n        bytes32 _targetBlockHash,\n        uint256 _targetBlockNumber\n    )\n        external\n    {\n        Protocore.proposeLinkInternal(\n            _parentVoteMessageHash,\n            _sourceTransitionHash,\n            _targetBlockHash,\n            _targetBlockNumber\n        );\n    }\n\n    function getParentVoteMessageHash(\n        bytes32 _voteMessageHash\n    )\n        external\n        view\n        returns (bytes32)\n    {\n        return links[_voteMessageHash].parentVoteMessageHash;\n    }\n\n    function getTargetBlockHash(\n        bytes32 _voteMessageHash\n    )\n        external\n        view\n        returns (bytes32)\n    {\n        return links[_voteMessageHash].targetBlockHash;\n    }\n\n    function getTargetBlockNumber(\n        bytes32 _voteMessageHash\n    )\n        external\n        view\n        returns (uint256)\n    {\n        return links[_voteMessageHash].targetBlockNumber;\n    }\n\n    function getSourceTransitionHash(\n        bytes32 _voteMessageHash\n    )\n        external\n        view\n        returns (bytes32)\n    {\n        return links[_voteMessageHash].sourceTransitionHash;\n    }\n\n    function getProposedMetablockHeight(\n        bytes32 _voteMessageHash\n    )\n        external\n        view\n        returns (uint256)\n    {\n        return links[_voteMessageHash].proposedMetablockHeight;\n    }\n\n    function getForwardVoteCount(\n        bytes32 _voteMessageHash,\n        uint256 _height\n    )\n        external\n        view\n        returns (uint256)\n    {\n        return links[_voteMessageHash].fvsVoteCount[_height];\n    }\n\n    function hasVoted(\n        bytes32 _voteMessageHash,\n        uint256 _height,\n        address _validator\n    )\n        external\n        view\n        returns (bool)\n    {\n        return fvsVotes[_voteMessageHash][_height][_validator] != address(0);\n    }\n\n    function getTargetFinalisation(\n        bytes32 _voteMessageHash\n    )\n        external\n        view\n        returns (CheckpointFinalisationStatus)\n    {\n        return links[_voteMessageHash].targetFinalisation;\n    }\n\n    function getSourceFinalisation(\n        bytes32 _voteMessageHash\n    )\n        external\n        view\n        returns (CheckpointFinalisationStatus)\n    {\n        Link storage link = links[_voteMessageHash];\n        Link storage parentLink = links[link.parentVoteMessageHash];\n\n        return parentLink.targetFinalisation;\n    }\n\n    function isFinalisationLink(\n        bytes32 _voteMessageHash\n    )\n        external\n        view\n        returns (bool)\n    {\n        Link storage link = links[_voteMessageHash];\n\n        Link storage parentLink = links[link.parentVoteMessageHash];\n\n        return link.targetBlockNumber.sub(parentLink.targetBlockNumber) == epochLength;\n    }\n\n    function getVoteCount(\n        bytes32 _voteMessageHash,\n        uint256 _height\n    )\n        external\n        view\n        returns (uint256)\n    {\n        Link storage link = links[_voteMessageHash];\n        return link.fvsVoteCount[_height];\n    }\n}\n",
  "sourcePath": "/Users/abhay/Documents/projects/abhayforks/mosaic-1/contracts/test/protocore/TestProtocore.sol",
  "compiler": {
    "name": "solc",
    "version": "0.5.13+commit.5b0b510c.Emscripten.clang"
  },
  "schemaVersion": "3.0.17",
  "updatedAt": "2020-03-21T06:48:34.814Z",
  "devdoc": {
    "methods": {}
  },
  "userdoc": {
    "methods": {}
  }
}