{
  "contractName": "TestOriginProtocore",
  "abi": [
    {
      "anonymous": false,
      "inputs": [
        {
          "indexed": false,
          "internalType": "uint256",
          "name": "kernelHeight",
          "type": "uint256"
        },
        {
          "indexed": false,
          "internalType": "bytes32",
          "name": "kernelHash",
          "type": "bytes32"
        }
      ],
      "name": "KernelOpened",
      "type": "event"
    },
    {
      "anonymous": false,
      "inputs": [
        {
          "indexed": false,
          "internalType": "bytes32",
          "name": "parentVoteMessageHash",
          "type": "bytes32"
        },
        {
          "indexed": false,
          "internalType": "bytes32",
          "name": "targetBlockHash",
          "type": "bytes32"
        },
        {
          "indexed": false,
          "internalType": "uint256",
          "name": "targetBlockNumber",
          "type": "uint256"
        }
      ],
      "name": "LinkProposed",
      "type": "event"
    },
    {
      "anonymous": false,
      "inputs": [
        {
          "indexed": false,
          "internalType": "bytes32",
          "name": "voteMessageHash",
          "type": "bytes32"
        },
        {
          "indexed": false,
          "internalType": "enum Protocore.CheckpointFinalisationStatus",
          "name": "targetFinalisationStatus",
          "type": "uint8"
        }
      ],
      "name": "LinkUpvoted",
      "type": "event"
    },
    {
      "anonymous": false,
      "inputs": [
        {
          "indexed": false,
          "internalType": "bytes32",
          "name": "voteMessageHash",
          "type": "bytes32"
        },
        {
          "indexed": false,
          "internalType": "uint256",
          "name": "height",
          "type": "uint256"
        },
        {
          "indexed": false,
          "internalType": "bytes32",
          "name": "r",
          "type": "bytes32"
        },
        {
          "indexed": false,
          "internalType": "bytes32",
          "name": "s",
          "type": "bytes32"
        },
        {
          "indexed": false,
          "internalType": "uint8",
          "name": "v",
          "type": "uint8"
        }
      ],
      "name": "VoteRegistered",
      "type": "event"
    },
    {
      "constant": true,
      "inputs": [],
      "name": "CORE_SUPER_MAJORITY_DENOMINATOR",
      "outputs": [
        {
          "internalType": "uint256",
          "name": "",
          "type": "uint256"
        }
      ],
      "payable": false,
      "stateMutability": "view",
      "type": "function"
    },
    {
      "constant": true,
      "inputs": [],
      "name": "CORE_SUPER_MAJORITY_NUMERATOR",
      "outputs": [
        {
          "internalType": "uint256",
          "name": "",
          "type": "uint256"
        }
      ],
      "payable": false,
      "stateMutability": "view",
      "type": "function"
    },
    {
      "constant": true,
      "inputs": [],
      "name": "DOMAIN_SEPARATOR_VERSION",
      "outputs": [
        {
          "internalType": "string",
          "name": "",
          "type": "string"
        }
      ],
      "payable": false,
      "stateMutability": "view",
      "type": "function"
    },
    {
      "constant": true,
      "inputs": [],
      "name": "SENTINEL_VALIDATORS",
      "outputs": [
        {
          "internalType": "address",
          "name": "",
          "type": "address"
        }
      ],
      "payable": false,
      "stateMutability": "view",
      "type": "function"
    },
    {
      "constant": true,
      "inputs": [],
      "name": "VOTE_MESSAGE_TYPEHASH",
      "outputs": [
        {
          "internalType": "bytes32",
          "name": "",
          "type": "bytes32"
        }
      ],
      "payable": false,
      "stateMutability": "view",
      "type": "function"
    },
    {
      "constant": true,
      "inputs": [],
      "name": "coconsensus",
      "outputs": [
        {
          "internalType": "contract CoconsensusInterface",
          "name": "",
          "type": "address"
        }
      ],
      "payable": false,
      "stateMutability": "view",
      "type": "function"
    },
    {
      "constant": true,
      "inputs": [],
      "name": "domainSeparator",
      "outputs": [
        {
          "internalType": "bytes32",
          "name": "",
          "type": "bytes32"
        }
      ],
      "payable": false,
      "stateMutability": "view",
      "type": "function"
    },
    {
      "constant": true,
      "inputs": [],
      "name": "epochLength",
      "outputs": [
        {
          "internalType": "uint256",
          "name": "",
          "type": "uint256"
        }
      ],
      "payable": false,
      "stateMutability": "view",
      "type": "function"
    },
    {
      "constant": true,
      "inputs": [
        {
          "internalType": "uint256",
          "name": "_height",
          "type": "uint256"
        }
      ],
      "name": "forwardValidatorSetCount",
      "outputs": [
        {
          "internalType": "uint256",
          "name": "",
          "type": "uint256"
        }
      ],
      "payable": false,
      "stateMutability": "view",
      "type": "function"
    },
    {
      "constant": true,
      "inputs": [
        {
          "internalType": "uint256",
          "name": "",
          "type": "uint256"
        }
      ],
      "name": "fvsQuorums",
      "outputs": [
        {
          "internalType": "uint256",
          "name": "",
          "type": "uint256"
        }
      ],
      "payable": false,
      "stateMutability": "view",
      "type": "function"
    },
    {
      "constant": true,
      "inputs": [
        {
          "internalType": "bytes32",
          "name": "",
          "type": "bytes32"
        },
        {
          "internalType": "uint256",
          "name": "",
          "type": "uint256"
        },
        {
          "internalType": "address",
          "name": "",
          "type": "address"
        }
      ],
      "name": "fvsVotes",
      "outputs": [
        {
          "internalType": "address",
          "name": "",
          "type": "address"
        }
      ],
      "payable": false,
      "stateMutability": "view",
      "type": "function"
    },
    {
      "constant": true,
      "inputs": [],
      "name": "genesisDomainSeparator",
      "outputs": [
        {
          "internalType": "bytes32",
          "name": "",
          "type": "bytes32"
        }
      ],
      "payable": false,
      "stateMutability": "view",
      "type": "function"
    },
    {
      "constant": true,
      "inputs": [],
      "name": "genesisEpochLength",
      "outputs": [
        {
          "internalType": "uint256",
          "name": "",
          "type": "uint256"
        }
      ],
      "payable": false,
      "stateMutability": "view",
      "type": "function"
    },
    {
      "constant": true,
      "inputs": [],
      "name": "genesisMetachainId",
      "outputs": [
        {
          "internalType": "bytes32",
          "name": "",
          "type": "bytes32"
        }
      ],
      "payable": false,
      "stateMutability": "view",
      "type": "function"
    },
    {
      "constant": true,
      "inputs": [],
      "name": "genesisOriginParentVoteMessageHash",
      "outputs": [
        {
          "internalType": "bytes32",
          "name": "",
          "type": "bytes32"
        }
      ],
      "payable": false,
      "stateMutability": "view",
      "type": "function"
    },
    {
      "constant": true,
      "inputs": [],
      "name": "genesisOriginSourceBlockHash",
      "outputs": [
        {
          "internalType": "bytes32",
          "name": "",
          "type": "bytes32"
        }
      ],
      "payable": false,
      "stateMutability": "view",
      "type": "function"
    },
    {
      "constant": true,
      "inputs": [],
      "name": "genesisOriginSourceBlockNumber",
      "outputs": [
        {
          "internalType": "uint256",
          "name": "",
          "type": "uint256"
        }
      ],
      "payable": false,
      "stateMutability": "view",
      "type": "function"
    },
    {
      "constant": true,
      "inputs": [],
      "name": "genesisOriginTargetBlockHash",
      "outputs": [
        {
          "internalType": "bytes32",
          "name": "",
          "type": "bytes32"
        }
      ],
      "payable": false,
      "stateMutability": "view",
      "type": "function"
    },
    {
      "constant": true,
      "inputs": [],
      "name": "genesisOriginTargetBlockNumber",
      "outputs": [
        {
          "internalType": "uint256",
          "name": "",
          "type": "uint256"
        }
      ],
      "payable": false,
      "stateMutability": "view",
      "type": "function"
    },
    {
      "constant": true,
      "inputs": [],
      "name": "genesisProposedMetablockHeight",
      "outputs": [
        {
          "internalType": "uint256",
          "name": "",
          "type": "uint256"
        }
      ],
      "payable": false,
      "stateMutability": "view",
      "type": "function"
    },
    {
      "constant": true,
      "inputs": [],
      "name": "genesisSelfProtocore",
      "outputs": [
        {
          "internalType": "address",
          "name": "",
          "type": "address"
        }
      ],
      "payable": false,
      "stateMutability": "view",
      "type": "function"
    },
    {
      "constant": true,
      "inputs": [
        {
          "internalType": "address",
          "name": "_validator",
          "type": "address"
        },
        {
          "internalType": "uint256",
          "name": "_height",
          "type": "uint256"
        }
      ],
      "name": "inForwardValidatorSet",
      "outputs": [
        {
          "internalType": "bool",
          "name": "",
          "type": "bool"
        }
      ],
      "payable": false,
      "stateMutability": "view",
      "type": "function"
    },
    {
      "constant": true,
      "inputs": [
        {
          "internalType": "address",
          "name": "_validator",
          "type": "address"
        },
        {
          "internalType": "uint256",
          "name": "_height",
          "type": "uint256"
        }
      ],
      "name": "inValidatorSet",
      "outputs": [
        {
          "internalType": "bool",
          "name": "",
          "type": "bool"
        }
      ],
      "payable": false,
      "stateMutability": "view",
      "type": "function"
    },
    {
      "constant": true,
      "inputs": [
        {
          "internalType": "bytes32",
          "name": "",
          "type": "bytes32"
        }
      ],
      "name": "links",
      "outputs": [
        {
          "internalType": "bytes32",
          "name": "parentVoteMessageHash",
          "type": "bytes32"
        },
        {
          "internalType": "bytes32",
          "name": "targetBlockHash",
          "type": "bytes32"
        },
        {
          "internalType": "uint256",
          "name": "targetBlockNumber",
          "type": "uint256"
        },
        {
          "internalType": "bytes32",
          "name": "sourceTransitionHash",
          "type": "bytes32"
        },
        {
          "internalType": "uint256",
          "name": "proposedMetablockHeight",
          "type": "uint256"
        },
        {
          "internalType": "enum Protocore.CheckpointFinalisationStatus",
          "name": "targetFinalisation",
          "type": "uint8"
        }
      ],
      "payable": false,
      "stateMutability": "view",
      "type": "function"
    },
    {
      "constant": true,
      "inputs": [],
      "name": "metachainId",
      "outputs": [
        {
          "internalType": "bytes32",
          "name": "",
          "type": "bytes32"
        }
      ],
      "payable": false,
      "stateMutability": "view",
      "type": "function"
    },
    {
      "constant": false,
      "inputs": [
        {
          "internalType": "uint256",
          "name": "_kernelHeight",
          "type": "uint256"
        },
        {
          "internalType": "bytes32",
          "name": "_kernelHash",
          "type": "bytes32"
        }
      ],
      "name": "openKernel",
      "outputs": [],
      "payable": false,
      "stateMutability": "nonpayable",
      "type": "function"
    },
    {
      "constant": true,
      "inputs": [],
      "name": "openKernelHash",
      "outputs": [
        {
          "internalType": "bytes32",
          "name": "",
          "type": "bytes32"
        }
      ],
      "payable": false,
      "stateMutability": "view",
      "type": "function"
    },
    {
      "constant": true,
      "inputs": [],
      "name": "openKernelHeight",
      "outputs": [
        {
          "internalType": "uint256",
          "name": "",
          "type": "uint256"
        }
      ],
      "payable": false,
      "stateMutability": "view",
      "type": "function"
    },
    {
      "constant": false,
      "inputs": [
        {
          "internalType": "bytes32",
          "name": "_parentVoteMessageHash",
          "type": "bytes32"
        },
        {
          "internalType": "bytes32",
          "name": "_targetBlockHash",
          "type": "bytes32"
        },
        {
          "internalType": "uint256",
          "name": "_targetBlockNumber",
          "type": "uint256"
        }
      ],
      "name": "proposeLink",
      "outputs": [],
      "payable": false,
      "stateMutability": "nonpayable",
      "type": "function"
    },
    {
      "constant": false,
      "inputs": [
        {
          "internalType": "bytes32",
          "name": "_voteMessageHash",
          "type": "bytes32"
        },
        {
          "internalType": "bytes32",
          "name": "_r",
          "type": "bytes32"
        },
        {
          "internalType": "bytes32",
          "name": "_s",
          "type": "bytes32"
        },
        {
          "internalType": "uint8",
          "name": "_v",
          "type": "uint8"
        }
      ],
      "name": "registerVote",
      "outputs": [],
      "payable": false,
      "stateMutability": "nonpayable",
      "type": "function"
    },
    {
      "constant": true,
      "inputs": [],
      "name": "selfProtocore",
      "outputs": [
        {
          "internalType": "address",
          "name": "",
          "type": "address"
        }
      ],
      "payable": false,
      "stateMutability": "view",
      "type": "function"
    },
    {
      "constant": false,
      "inputs": [],
      "name": "setup",
      "outputs": [
        {
          "internalType": "bytes32",
          "name": "finalizedBlockHash_",
          "type": "bytes32"
        },
        {
          "internalType": "uint256",
          "name": "finalizedBlockNumber_",
          "type": "uint256"
        }
      ],
      "payable": false,
      "stateMutability": "nonpayable",
      "type": "function"
    },
    {
      "constant": false,
      "inputs": [
        {
          "internalType": "address",
          "name": "_coconsensus",
          "type": "address"
        }
      ],
      "name": "setCoconsensus",
      "outputs": [],
      "payable": false,
      "stateMutability": "nonpayable",
      "type": "function"
    },
    {
      "constant": false,
      "inputs": [
        {
          "internalType": "bytes32",
          "name": "_genesisMetachainId",
          "type": "bytes32"
        },
        {
          "internalType": "bytes32",
          "name": "_genesisDomainSeparator",
          "type": "bytes32"
        },
        {
          "internalType": "uint256",
          "name": "_genesisEpochLength",
          "type": "uint256"
        },
        {
          "internalType": "uint256",
          "name": "_genesisProposedMetablockHeight",
          "type": "uint256"
        },
        {
          "internalType": "address",
          "name": "_genesisSelfProtocore",
          "type": "address"
        },
        {
          "internalType": "bytes32",
          "name": "_genesisOriginParentVoteMessageHash",
          "type": "bytes32"
        },
        {
          "internalType": "bytes32",
          "name": "_genesisOriginSourceBlockHash",
          "type": "bytes32"
        },
        {
          "internalType": "uint256",
          "name": "_genesisOriginSourceBlockNumber",
          "type": "uint256"
        },
        {
          "internalType": "bytes32",
          "name": "_genesisOriginTargetBlockHash",
          "type": "bytes32"
        },
        {
          "internalType": "uint256",
          "name": "_genesisOriginTargetBlockNumber",
          "type": "uint256"
        }
      ],
      "name": "setGenesisStorage",
      "outputs": [],
      "payable": false,
      "stateMutability": "nonpayable",
      "type": "function"
    },
    {
      "constant": true,
      "inputs": [],
      "name": "getCoconsensus",
      "outputs": [
        {
          "internalType": "contract CoconsensusInterface",
          "name": "",
          "type": "address"
        }
      ],
      "payable": false,
      "stateMutability": "view",
      "type": "function"
    },
    {
      "constant": true,
      "inputs": [
        {
          "internalType": "bytes32",
          "name": "_voteMessageHash",
          "type": "bytes32"
        },
        {
          "internalType": "uint256",
          "name": "_height",
          "type": "uint256"
        }
      ],
      "name": "fvsVoteCount",
      "outputs": [
        {
          "internalType": "uint256",
          "name": "",
          "type": "uint256"
        }
      ],
      "payable": false,
      "stateMutability": "view",
      "type": "function"
    },
    {
      "constant": false,
      "inputs": [
        {
          "internalType": "bytes32",
          "name": "_metachainId",
          "type": "bytes32"
        },
        {
          "internalType": "uint256",
          "name": "_blockNumber",
          "type": "uint256"
        },
        {
          "internalType": "bytes32",
          "name": "_blockHash",
          "type": "bytes32"
        }
      ],
      "name": "testFinaliseCheckpoint",
      "outputs": [],
      "payable": false,
      "stateMutability": "nonpayable",
      "type": "function"
    }
  ],
  "bytecode": "0x6080604052600b80546001600160a01b031916614d0017905534801561002457600080fd5b50611b78806100346000396000f3fe608060405234801561001057600080fd5b50600436106102275760003560e01c8063736002b311610130578063b2fec593116100b8578063d1a976da1161007c578063d1a976da146105b1578063e7530e7c146105f1578063ed39cded146105f9578063f173034a14610601578063f698da251461062d57610227565b8063b2fec593146104d1578063b4907ddc14610503578063b8a3254d14610580578063ba0bba4014610588578063c4fec67a146105a957610227565b80639fa843c2116100ff5780639fa843c214610438578063a032006f14610440578063af6d5aaf14610448578063b0e1084e14610465578063b2fccc7f1461046d57610227565b8063736002b31461037f5780637ec9d753146103de5780638e4f2de9146103e65780639dfd33971461040f57610227565b80632400ab37116101b35780634ff92af3116101825780634ff92af31461033957806355445e061461034157806357d775f81461034957806367b479131461035157806372760bdf1461035957610227565b80632400ab37146102bf5780633021513d146102e257806334a77991146102ea5780634adba1ce1461031c57610227565b8063149fbab9116101fa578063149fbab9146102975780631df69c711461029f5780631fdeaa31146102a757806321c0bc49146102af57806323609af7146102b757610227565b806304230e631461022c578063044a6d341461025057806309673c1d1461026a578063142aab111461028f575b600080fd5b610234610635565b604080516001600160a01b039092168252519081900360200190f35b610258610644565b60408051918252519081900360200190f35b61028d6004803603604081101561028057600080fd5b508035906020013561064a565b005b6102586106af565b6102346106b5565b6102586106ba565b6102586106c0565b6102586106c6565b6102346106e1565b610258600480360360408110156102d557600080fd5b50803590602001356106f0565b610258610714565b6102346004803603606081101561030057600080fd5b50803590602081013590604001356001600160a01b031661071a565b6102586004803603602081101561033257600080fd5b5035610746565b6102586107d9565b6102586107df565b6102586107e5565b6102346107eb565b61028d6004803603602081101561036f57600080fd5b50356001600160a01b03166107fa565b61028d600480360361014081101561039657600080fd5b508035906020810135906040810135906060810135906001600160a01b036080820135169060a08101359060c08101359060e08101359061010081013590610120013561081c565b610258610872565b61028d600480360360608110156103fc57600080fd5b5080359060208101359060400135610877565b61028d6004803603606081101561042557600080fd5b50803590602081013590604001356108f1565b610258610943565b610234610949565b6102586004803603602081101561045e57600080fd5b5035610958565b61025861096a565b61048a6004803603602081101561048357600080fd5b5035610970565b604051808781526020018681526020018581526020018481526020018381526020018260038111156104b857fe5b60ff168152602001965050505050505060405180910390f35b61028d600480360360808110156104e757600080fd5b508035906020810135906040810135906060013560ff166109a8565b61050b6109ba565b6040805160208082528351818301528351919283929083019185019080838360005b8381101561054557818101518382015260200161052d565b50505050905090810190601f1680156105725780820380516001836020036101000a031916815260200191505b509250505060405180910390f35b6102586109d7565b6105906109dd565b6040805192835260208301919091528051918290030190f35b610258610a95565b6105dd600480360360408110156105c757600080fd5b506001600160a01b038135169060200135610a9b565b604080519115158252519081900360200190f35b610258610b37565b610258610b3d565b6105dd6004803603604081101561061757600080fd5b506001600160a01b038135169060200135610b42565b610258610bab565b6014546001600160a01b031681565b60085481565b6106526106e1565b6001600160a01b0316336001600160a01b0316146106a15760405162461bcd60e51b81526004018080602001828103825260358152602001806119ba6035913960400191505060405180910390fd5b6106ab8282610bb1565b5050565b60035481565b600181565b60105481565b600c5481565b60405180608761190782396087019050604051809103902081565b6015546001600160a01b031690565b60008281526012602090815260408083208484526005019091529020545b92915050565b60025481565b60136020908152600093845260408085208252928452828420905282529020546001600160a01b031681565b6014546000906001600160a01b031661075b57fe5b6014546040805163256dd0e760e11b81526004810185905290516001600160a01b0390921691634adba1ce91602480820192602092909190829003018186803b1580156107a757600080fd5b505afa1580156107bb573d6000803e3d6000fd5b505050506040513d60208110156107d157600080fd5b505192915050565b600f5481565b60045481565b600d5481565b600a546001600160a01b031681565b601580546001600160a01b0319166001600160a01b0392909216919091179055565b600199909955600497909755600295909555600393909355600a80546001600160a01b0319166001600160a01b039390931692909217909155600591909155600691909155600791909155600891909155600955565b600281565b61087f6106e1565b6001600160a01b0316636d7e4a688484846040518463ffffffff1660e01b8152600401808481526020018381526020018281526020019350505050600060405180830381600087803b1580156108d457600080fd5b505af11580156108e8573d6000803e3d6000fd5b50505050505050565b6108fe8360008484610ccf565b604080518481526020810184905280820183905290517f2307e7d6ae0ae6a212ad9939c099077c930321436227d32c21815bc9bfa4a10a9181900360600190a1505050565b60095481565b6015546001600160a01b031681565b60116020526000908152604090205481565b60065481565b601260205260009081526040902080546001820154600283015460038401546004850154600690950154939492939192909160ff1686565b6109b484848484610ef4565b50505050565b604051806040016040528060018152602001600360fc1b81525081565b60055481565b6000806109e86106e1565b6001600160a01b0316336001600160a01b031614610a375760405162461bcd60e51b81526004018080602001828103825260358152602001806119ba6035913960400191505060405180910390fd5b600a54601480546001600160a01b0319166001600160a01b03909216919091179055600154600454600254600354600954600554600654600754600854610a89989796959493600093909290916111ea565b50506007546008549091565b60015481565b6014546000906001600160a01b0316610ab057fe5b601454604080516368d4bb6d60e11b81526001600160a01b038681166004830152602482018690529151919092169163d1a976da916044808301926020929190829003018186803b158015610b0457600080fd5b505afa158015610b18573d6000803e3d6000fd5b505050506040513d6020811015610b2e57600080fd5b50519392505050565b60075481565b600381565b6014546000906001600160a01b0316610b5757fe5b601454604080516378b981a560e11b81526001600160a01b038681166004830152602482018690529151919092169163f173034a916044808301926020929190829003018186803b158015610b0457600080fd5b600e5481565b600f54610bc590600163ffffffff61132616565b8214610c025760405162461bcd60e51b815260040180806020018281038252603c8152602001806118cb603c913960400191505060405180910390fd5b80610c54576040805162461bcd60e51b815260206004820152601b60248201527f54686520676976656e206b65726e656c206861736820697320302e0000000000604482015290519081900360640190fd5b600f8290556010819055610c6f610c6a83610746565b61133f565b60116000600f548152602001908152602001600020819055507fd63a98a1e8cc3e07f96ba750deeac7e678c5f5a5aaa80f7efbe54c5f6d3a98f6600f54601054604051808381526020018281526020019250505060405180910390a15050565b83610d21576040805162461bcd60e51b815260206004820152601e60248201527f506172656e7420766f7465206d657373616765206861736820697320302e0000604482015290519081900360640190fd5b81610d5d5760405162461bcd60e51b815260040180806020018281038252602c81526020018061198e602c913960400191505060405180910390fd5b600d548181610d6857fe5b0615610da55760405162461bcd60e51b81526004018080602001828103825260478152602001806119ef6047913960600191505060405180910390fd5b60008481526012602052604090206002600682015460ff166003811115610dc857fe5b1015610e055760405162461bcd60e51b81526004018080602001828103825260468152602001806118636046913960600191505060405180910390fd5b80600201548211610e475760405162461bcd60e51b815260040180806020018281038252604a815260200180611afa604a913960600191505060405180910390fd5b6000610e61600e5486846001015487866002015488611363565b60008181526012602052604090206001015490915015610eb25760405162461bcd60e51b8152600401808060200182810382526021815260200180611a366021913960400191505060405180910390fd5b60009081526012602052604090209485555060018085019290925560028401556003830191909155600f5460048301556006909101805460ff19169091179055565b83610f46576040805162461bcd60e51b815260206004820152601760248201527f566f7465206d657373616765206861736820697320302e000000000000000000604482015290519081900360640190fd5b60008481526012602052604090206001600682015460ff166003811115610f6957fe5b1015610fa65760405162461bcd60e51b815260040180806020018281038252602b815260200180611838602b913960400191505060405180910390fd5b600f546004820154610fbf90600163ffffffff61132616565b1015610ffc5760405162461bcd60e51b815260040180806020018281038252602e815260200180611aa1602e913960400191505060405180910390fd5b604080516000808252602080830180855289905260ff86168385015260608301889052608083018790529251909260019260a080820193601f1981019281900390910190855afa158015611054573d6000803e3d6000fd5b5050604051601f1901519150506001600160a01b0381166110bc576040805162461bcd60e51b815260206004820152601b60248201527f56616c696461746f72206d757374206e6f74206265206e756c6c2e0000000000604482015290519081900360640190fd5b6110c881600f54610a9b565b6111035760405162461bcd60e51b815260040180806020018281038252602b815260200180611acf602b913960400191505060405180910390fd5b6000868152601360209081526040808320600f54845282528083206001600160a01b038581168552925290912054161561116e5760405162461bcd60e51b815260040180806020018281038252604a815260200180611a57604a913960600191505060405180910390fd5b600061117b87848461140a565b90506111878783611516565b600f546040805189815260208101929092528181018890526060820187905260ff86166080830152517fc9a0f2e3e4091dd3bda440d2760a1874040129d69ca8e36ebed34679426942a29181900360a00190a180156108e8576108e8878461161b565b600c541561123f576040805162461bcd60e51b815260206004820181905260248201527f436f6e747261637420697320616c726561647920696e697469616c697a65642e604482015290519081900360640190fd5b87611286576040805162461bcd60e51b815260206004820152601260248201527122b837b1b4103632b733ba341034b990181760711b604482015290519081900360640190fd5b886112c25760405162461bcd60e51b81526004018080602001828103825260228152602001806118a96022913960400191505060405180910390fd5b600c8a9055600e899055600d88905560006112e18a8787868887611363565b6000908152601260205260409020968755506001860191909155600285015550506003808301919091556004820192909255600601805460ff19169091179055505050565b60008282018381101561133857600080fd5b9392505050565b600061070e600361135784600263ffffffff61178e16565b9063ffffffff6117b516565b600080604051808061190760879139604080519182900360870182206020808401919091528282019a909a526060820198909852608081019690965250505060a083019190915260c0808301919091528251808303909101815260e082018352805190840120601960f81b610100830152600160f81b6101018301526101028201949094526101228082019490945281518082039094018452610142019052815191012090565b600061141984600f54846117d7565b1561145857600f54600090815260058401602052604090205461144390600163ffffffff61132616565b600f5460009081526005850160205260409020555b600f5460008181526011602090815260408083205460058801909252909120541015906001901561150257600f5460009061149a90600163ffffffff61182216565b90506114a78782876117d7565b156114e05760008181526005870160205260409020546114ce90600163ffffffff61132616565b60008281526005880160205260409020555b6000908152601160209081526040808320546005890190925290912054101590505b81801561150c5750805b9695505050505050565b6000828152601360209081526040808320600f54845282528083206001600160a01b038581168552925290912054161561154c57fe5b6000828152601360209081526040808320600f5484528252808320600184529091529020546001600160a01b0316806115b657506000828152601360209081526040808320600f54845282528083206001808552925290912080546001600160a01b031916821790555b6000928352601360209081526040808520600f805487528184528287206001600160a01b039687168089529085528388208054979096166001600160a01b03199788161790955554865282528085206001865290915290922080549091169091179055565b6001600682015460ff16600381111561163057fe5b14156106ab5760068101805460ff1916600290811790915560408051848152602081019290925280517fae22109749a8e1b888ae2d2e15c3ce5ac0c18b153ee7718b7c75f738ef7384719281900390910190a180546000908152601260205260409020600d54600280830154908401546116af9163ffffffff61182216565b1415611789576002600682015460ff1660038111156116ca57fe5b10156116d257fe5b60068101805460ff19166003908117909155825460408051918252602082019290925281517fae22109749a8e1b888ae2d2e15c3ce5ac0c18b153ee7718b7c75f738ef738471929181900390910190a161172a6106e1565b6001600160a01b0316636d7e4a68600c54836002015484600101546040518463ffffffff1660e01b8152600401808481526020018381526020018281526020019350505050600060405180830381600087803b1580156108d457600080fd5b505050565b60008261179d5750600061070e565b828202828482816117aa57fe5b041461133857600080fd5b60008082116117c357600080fd5b60008284816117ce57fe5b04949350505050565b600083815260136020908152604080832085845282528083206001600160a01b038581168552925282205416158161180f8486610b42565b905081801561150c575095945050505050565b60008282111561183157600080fd5b5090039056fe54686520676976656e206c696e6b20737461747573206973206174206c65617374207265706f727465642e506172656e74206c696e6b2773207461726765742066696e616c69736174696f6e207374617475732073686f756c64206265206174206c65617374206a75737469666965642e446f6d61696e20736570617261746f72206d757374206e6f74206265206e756c6c2e54686520676976656e206b65726e656c206865696768742073686f756c6420626520706c75732031206f66207468652063757272656e74206f6e652e566f74654d6573736167652862797465733332207472616e736974696f6e486173682c6279746573333220736f75726365426c6f636b486173682c6279746573333220746172676574426c6f636b486173682c75696e7432353620736f75726365426c6f636b4e756d6265722c75696e7432353620746172676574426c6f636b4e756d6265722954617267657420626c6f636b2068617368206f66207468652070726f706f736564206c696e6b20697320302e4f6e6c792074686520436f636f6e73656e73757320636f6e74726163742063616e2063616c6c20746869732066756e6374696f6e2e54617267657420626c6f636b206e756d626572206f6620746865206c696e6b2073686f756c64206265206d756c7469706c65206f66207468652065706f6368206c656e6774682e5468652070726f706f736564206c696e6b20616c7265616479206578697374732e56616c696461746f7220766f74652063616e6e6f74206265207265676973746572656420747769636520696e2046565320766f746573206174207468652073616d65206865696768742e4c696e6b2068656967687420696e636c7573696f6e207072696e6369706c6520686173207375727061737365642e56616c696461746f72206d75737420626520696e2063757272656e742076616c696461746f72207365742e54617267657420626c6f636b206e756d626572206f66207468652070726f706f736564206c696e6b2073686f756c6420626520626967676572207468616e20706172656e74206f6e652ea265627a7a72315820e31d3b5c6c201e262d4110622fe837baa38a867b98117163b5e38bc9fc76b4ae64736f6c634300050d0032",
  "source": "pragma solidity >=0.5.0 <0.6.0;\n\n// Copyright 2019 OpenST Ltd.\n//\n// Licensed under the Apache License, Version 2.0 (the \"License\");\n// you may not use this file except in compliance with the License.\n// You may obtain a copy of the License at\n//\n//    http://www.apache.org/licenses/LICENSE-2.0\n//\n// Unless required by applicable law or agreed to in writing, software\n// distributed under the License is distributed on an \"AS IS\" BASIS,\n// WITHOUT WARRANTIES OR CONDITIONS OF ANY KIND, either express or implied.\n// See the License for the specific language governing permissions and\n// limitations under the License.\n\nimport \"../../consensus/CoconsensusInterface.sol\";\nimport \"../../protocore/OriginProtocore.sol\";\n\ncontract TestOriginProtocore is OriginProtocore {\n\n    /* Storage */\n\n    CoconsensusInterface public coconsensus;\n\n    function setCoconsensus(address _coconsensus) external {\n        coconsensus = CoconsensusInterface(_coconsensus);\n    }\n\n    function setGenesisStorage(\n        bytes32 _genesisMetachainId,\n        bytes32 _genesisDomainSeparator,\n        uint256 _genesisEpochLength,\n        uint256 _genesisProposedMetablockHeight,\n        address _genesisSelfProtocore,\n        bytes32 _genesisOriginParentVoteMessageHash,\n        bytes32 _genesisOriginSourceBlockHash,\n        uint256 _genesisOriginSourceBlockNumber,\n        bytes32 _genesisOriginTargetBlockHash,\n        uint256 _genesisOriginTargetBlockNumber\n    )\n        external\n    {\n        genesisMetachainId = _genesisMetachainId;\n        genesisDomainSeparator = _genesisDomainSeparator;\n        genesisEpochLength = _genesisEpochLength;\n        genesisProposedMetablockHeight = _genesisProposedMetablockHeight;\n        genesisSelfProtocore = _genesisSelfProtocore;\n        genesisOriginSourceBlockHash = _genesisOriginSourceBlockHash;\n        genesisOriginSourceBlockNumber = _genesisOriginSourceBlockNumber;\n        genesisOriginTargetBlockHash = _genesisOriginTargetBlockHash;\n        genesisOriginTargetBlockNumber = _genesisOriginTargetBlockNumber;\n        genesisOriginParentVoteMessageHash = _genesisOriginParentVoteMessageHash;\n    }\n\n    function getCoconsensus()\n\t\tpublic\n\t\tview\n\t\treturns (CoconsensusInterface)\n\t{\n        return coconsensus;\n    }\n\n    function fvsVoteCount(\n        bytes32 _voteMessageHash,\n        uint256 _height\n    )\n        external\n        view\n        returns (uint256)\n    {\n        return links[_voteMessageHash].fvsVoteCount[_height];\n    }\n\n    /**\n     * @notice This function is used to test the\n     *         `Coconsensus::finaliseCheckpoint`, the msg.sender for the\n     *         `Coconsensus::finaliseCheckpoint` can only be protocore.\n     */\n    function testFinaliseCheckpoint(\n        bytes32 _metachainId,\n        uint256 _blockNumber,\n        bytes32 _blockHash\n    )\n        external\n    {\n        getCoconsensus().finaliseCheckpoint(\n            _metachainId,\n            _blockNumber,\n            _blockHash\n        );\n    }\n}\n",
  "sourcePath": "/Users/abhay/Documents/projects/abhayforks/mosaic-1/contracts/test/protocore/TestOriginProtocore.sol",
  "compiler": {
    "name": "solc",
    "version": "0.5.13+commit.5b0b510c.Emscripten.clang"
  },
  "schemaVersion": "3.0.17",
  "updatedAt": "2020-03-21T06:48:34.813Z",
  "devdoc": {
    "methods": {
      "openKernel(uint256,bytes32)": {
        "params": {
          "_kernelHash": "New kernel hash.     * \\pre Only coconsensus can call. \\pre Satisfies all pre conditions of Protocore::openKernelInternal().     * \\post Satisfies all the post conditions of Protocore::openKernelInternal().",
          "_kernelHeight": "New kernel height."
        }
      },
      "proposeLink(bytes32,bytes32,uint256)": {
        "details": "Satisfies \\pre and \\post conditions of     Protocore::proposeLinkInternal().     * \\post Emits LinkProposed event."
      },
      "registerVote(bytes32,bytes32,bytes32,uint8)": {
        "details": "It must satify pre and post conditions of     Protocore::registerVoteInternal.",
        "params": {
          "_r": "The first 32 bytes of ECDSA signature of a validator.",
          "_s": "The second 32 bytes of ECDSA signature of a validator.",
          "_v": "The recovery id/value of ECDSA signature of a validator.",
          "_voteMessageHash": "Message hash of a vote."
        }
      },
      "setup()": {
        "return": "Block hash and block number of finalized genesis checkpoint.     * \\post Sets `selfProtocore` to the given value. \\post Sets `domainSeparator` to the given value. \\post Sets `epochLength` to the given value. \\post Sets `metachainId` to the given value. \\post Sets genesis link."
      }
    }
  },
  "userdoc": {
    "methods": {
      "forwardValidatorSetCount(uint256)": {
        "notice": "forwardValidatorSetCount() function calls on SelfProtocore contract        to query the forward validator set."
      },
      "inForwardValidatorSet(address,uint256)": {
        "notice": "inForwardValidatorSet() function calls on SelfProtocore contract        to query the forward validator set."
      },
      "inValidatorSet(address,uint256)": {
        "notice": "inValidatorSet() function checks if a validator is in        validator set for the given height."
      },
      "openKernel(uint256,bytes32)": {
        "notice": "openKernel() function marks the specified kernel        as opened."
      },
      "proposeLink(bytes32,bytes32,uint256)": {
        "notice": "proposeLink() function proposes a valid link to be voted later by        active validators."
      },
      "registerVote(bytes32,bytes32,bytes32,uint8)": {
        "notice": "It registers a vote for a link specified by vote message hash.        Validators sign a vote message and provides the signature."
      },
      "setup()": {
        "notice": "setup() function initializes the current contract."
      },
      "testFinaliseCheckpoint(bytes32,uint256,bytes32)": {
        "notice": "This function is used to test the        `Coconsensus::finaliseCheckpoint`, the msg.sender for the        `Coconsensus::finaliseCheckpoint` can only be protocore."
      }
    }
  }
}