{
  "contractName": "TestSelfProtocore",
  "abi": [
    {
      "anonymous": false,
      "inputs": [
        {
          "indexed": false,
          "internalType": "uint256",
          "name": "kernelHeight",
          "type": "uint256"
        },
        {
          "indexed": false,
          "internalType": "bytes32",
          "name": "kernelHash",
          "type": "bytes32"
        }
      ],
      "name": "KernelOpened",
      "type": "event"
    },
    {
      "anonymous": false,
      "inputs": [
        {
          "indexed": false,
          "internalType": "bytes32",
          "name": "_parentVoteMessageHash",
          "type": "bytes32"
        },
        {
          "indexed": false,
          "internalType": "bytes32",
          "name": "_targetBlockHash",
          "type": "bytes32"
        },
        {
          "indexed": false,
          "internalType": "uint256",
          "name": "_targetBlockNumber",
          "type": "uint256"
        },
        {
          "indexed": false,
          "internalType": "bytes32",
          "name": "_sourceOriginObservation",
          "type": "bytes32"
        },
        {
          "indexed": false,
          "internalType": "bytes32",
          "name": "_sourceKernelHash",
          "type": "bytes32"
        },
        {
          "indexed": false,
          "internalType": "uint256",
          "name": "_sourceDynasty",
          "type": "uint256"
        },
        {
          "indexed": false,
          "internalType": "uint256",
          "name": "_sourceAccumulatedGas",
          "type": "uint256"
        },
        {
          "indexed": false,
          "internalType": "bytes32",
          "name": "_sourceCommitteeLock",
          "type": "bytes32"
        }
      ],
      "name": "LinkProposed",
      "type": "event"
    },
    {
      "anonymous": false,
      "inputs": [
        {
          "indexed": false,
          "internalType": "bytes32",
          "name": "voteMessageHash",
          "type": "bytes32"
        },
        {
          "indexed": false,
          "internalType": "enum Protocore.CheckpointFinalisationStatus",
          "name": "targetFinalisationStatus",
          "type": "uint8"
        }
      ],
      "name": "LinkUpvoted",
      "type": "event"
    },
    {
      "anonymous": false,
      "inputs": [
        {
          "indexed": false,
          "internalType": "bytes32",
          "name": "voteMessageHash",
          "type": "bytes32"
        },
        {
          "indexed": false,
          "internalType": "uint256",
          "name": "height",
          "type": "uint256"
        },
        {
          "indexed": false,
          "internalType": "bytes32",
          "name": "r",
          "type": "bytes32"
        },
        {
          "indexed": false,
          "internalType": "bytes32",
          "name": "s",
          "type": "bytes32"
        },
        {
          "indexed": false,
          "internalType": "uint8",
          "name": "v",
          "type": "uint8"
        }
      ],
      "name": "VoteRegistered",
      "type": "event"
    },
    {
      "constant": true,
      "inputs": [],
      "name": "CORE_SUPER_MAJORITY_DENOMINATOR",
      "outputs": [
        {
          "internalType": "uint256",
          "name": "",
          "type": "uint256"
        }
      ],
      "payable": false,
      "stateMutability": "view",
      "type": "function"
    },
    {
      "constant": true,
      "inputs": [],
      "name": "CORE_SUPER_MAJORITY_NUMERATOR",
      "outputs": [
        {
          "internalType": "uint256",
          "name": "",
          "type": "uint256"
        }
      ],
      "payable": false,
      "stateMutability": "view",
      "type": "function"
    },
    {
      "constant": true,
      "inputs": [],
      "name": "DOMAIN_SEPARATOR_VERSION",
      "outputs": [
        {
          "internalType": "string",
          "name": "",
          "type": "string"
        }
      ],
      "payable": false,
      "stateMutability": "view",
      "type": "function"
    },
    {
      "constant": true,
      "inputs": [],
      "name": "MAX_FUTURE_END_HEIGHT",
      "outputs": [
        {
          "internalType": "uint256",
          "name": "",
          "type": "uint256"
        }
      ],
      "payable": false,
      "stateMutability": "view",
      "type": "function"
    },
    {
      "constant": true,
      "inputs": [],
      "name": "SENTINEL_VALIDATORS",
      "outputs": [
        {
          "internalType": "address",
          "name": "",
          "type": "address"
        }
      ],
      "payable": false,
      "stateMutability": "view",
      "type": "function"
    },
    {
      "constant": true,
      "inputs": [],
      "name": "TRANSITION_TYPEHASH",
      "outputs": [
        {
          "internalType": "bytes32",
          "name": "",
          "type": "bytes32"
        }
      ],
      "payable": false,
      "stateMutability": "view",
      "type": "function"
    },
    {
      "constant": true,
      "inputs": [],
      "name": "VOTE_MESSAGE_TYPEHASH",
      "outputs": [
        {
          "internalType": "bytes32",
          "name": "",
          "type": "bytes32"
        }
      ],
      "payable": false,
      "stateMutability": "view",
      "type": "function"
    },
    {
      "constant": true,
      "inputs": [],
      "name": "coconsensus",
      "outputs": [
        {
          "internalType": "contract CoconsensusInterface",
          "name": "",
          "type": "address"
        }
      ],
      "payable": false,
      "stateMutability": "view",
      "type": "function"
    },
    {
      "constant": true,
      "inputs": [],
      "name": "domainSeparator",
      "outputs": [
        {
          "internalType": "bytes32",
          "name": "",
          "type": "bytes32"
        }
      ],
      "payable": false,
      "stateMutability": "view",
      "type": "function"
    },
    {
      "constant": true,
      "inputs": [],
      "name": "epochLength",
      "outputs": [
        {
          "internalType": "uint256",
          "name": "",
          "type": "uint256"
        }
      ],
      "payable": false,
      "stateMutability": "view",
      "type": "function"
    },
    {
      "constant": true,
      "inputs": [
        {
          "internalType": "uint256",
          "name": "_height",
          "type": "uint256"
        }
      ],
      "name": "forwardValidatorSetCount",
      "outputs": [
        {
          "internalType": "uint256",
          "name": "",
          "type": "uint256"
        }
      ],
      "payable": false,
      "stateMutability": "view",
      "type": "function"
    },
    {
      "constant": true,
      "inputs": [
        {
          "internalType": "uint256",
          "name": "",
          "type": "uint256"
        }
      ],
      "name": "fvsQuorums",
      "outputs": [
        {
          "internalType": "uint256",
          "name": "",
          "type": "uint256"
        }
      ],
      "payable": false,
      "stateMutability": "view",
      "type": "function"
    },
    {
      "constant": true,
      "inputs": [
        {
          "internalType": "bytes32",
          "name": "",
          "type": "bytes32"
        },
        {
          "internalType": "uint256",
          "name": "",
          "type": "uint256"
        },
        {
          "internalType": "address",
          "name": "",
          "type": "address"
        }
      ],
      "name": "fvsVotes",
      "outputs": [
        {
          "internalType": "address",
          "name": "",
          "type": "address"
        }
      ],
      "payable": false,
      "stateMutability": "view",
      "type": "function"
    },
    {
      "constant": true,
      "inputs": [],
      "name": "genesisAuxiliaryAccumulatedGas",
      "outputs": [
        {
          "internalType": "uint256",
          "name": "",
          "type": "uint256"
        }
      ],
      "payable": false,
      "stateMutability": "view",
      "type": "function"
    },
    {
      "constant": true,
      "inputs": [],
      "name": "genesisAuxiliaryParentVoteMessageHash",
      "outputs": [
        {
          "internalType": "bytes32",
          "name": "",
          "type": "bytes32"
        }
      ],
      "payable": false,
      "stateMutability": "view",
      "type": "function"
    },
    {
      "constant": true,
      "inputs": [],
      "name": "genesisAuxiliarySourceBlockHash",
      "outputs": [
        {
          "internalType": "bytes32",
          "name": "",
          "type": "bytes32"
        }
      ],
      "payable": false,
      "stateMutability": "view",
      "type": "function"
    },
    {
      "constant": true,
      "inputs": [],
      "name": "genesisAuxiliarySourceBlockNumber",
      "outputs": [
        {
          "internalType": "uint256",
          "name": "",
          "type": "uint256"
        }
      ],
      "payable": false,
      "stateMutability": "view",
      "type": "function"
    },
    {
      "constant": true,
      "inputs": [],
      "name": "genesisAuxiliarySourceTransitionHash",
      "outputs": [
        {
          "internalType": "bytes32",
          "name": "",
          "type": "bytes32"
        }
      ],
      "payable": false,
      "stateMutability": "view",
      "type": "function"
    },
    {
      "constant": true,
      "inputs": [],
      "name": "genesisAuxiliaryTargetBlockHash",
      "outputs": [
        {
          "internalType": "bytes32",
          "name": "",
          "type": "bytes32"
        }
      ],
      "payable": false,
      "stateMutability": "view",
      "type": "function"
    },
    {
      "constant": true,
      "inputs": [],
      "name": "genesisAuxiliaryTargetBlockNumber",
      "outputs": [
        {
          "internalType": "uint256",
          "name": "",
          "type": "uint256"
        }
      ],
      "payable": false,
      "stateMutability": "view",
      "type": "function"
    },
    {
      "constant": true,
      "inputs": [],
      "name": "genesisDomainSeparator",
      "outputs": [
        {
          "internalType": "bytes32",
          "name": "",
          "type": "bytes32"
        }
      ],
      "payable": false,
      "stateMutability": "view",
      "type": "function"
    },
    {
      "constant": true,
      "inputs": [],
      "name": "genesisDynasty",
      "outputs": [
        {
          "internalType": "uint256",
          "name": "",
          "type": "uint256"
        }
      ],
      "payable": false,
      "stateMutability": "view",
      "type": "function"
    },
    {
      "constant": true,
      "inputs": [],
      "name": "genesisEpochLength",
      "outputs": [
        {
          "internalType": "uint256",
          "name": "",
          "type": "uint256"
        }
      ],
      "payable": false,
      "stateMutability": "view",
      "type": "function"
    },
    {
      "constant": true,
      "inputs": [],
      "name": "genesisMetachainId",
      "outputs": [
        {
          "internalType": "bytes32",
          "name": "",
          "type": "bytes32"
        }
      ],
      "payable": false,
      "stateMutability": "view",
      "type": "function"
    },
    {
      "constant": true,
      "inputs": [],
      "name": "genesisProposedMetablockHeight",
      "outputs": [
        {
          "internalType": "uint256",
          "name": "",
          "type": "uint256"
        }
      ],
      "payable": false,
      "stateMutability": "view",
      "type": "function"
    },
    {
      "constant": true,
      "inputs": [
        {
          "internalType": "address",
          "name": "_validator",
          "type": "address"
        },
        {
          "internalType": "uint256",
          "name": "_height",
          "type": "uint256"
        }
      ],
      "name": "inForwardValidatorSet",
      "outputs": [
        {
          "internalType": "bool",
          "name": "",
          "type": "bool"
        }
      ],
      "payable": false,
      "stateMutability": "view",
      "type": "function"
    },
    {
      "constant": true,
      "inputs": [
        {
          "internalType": "address",
          "name": "_validator",
          "type": "address"
        },
        {
          "internalType": "uint256",
          "name": "_height",
          "type": "uint256"
        }
      ],
      "name": "inValidatorSet",
      "outputs": [
        {
          "internalType": "bool",
          "name": "",
          "type": "bool"
        }
      ],
      "payable": false,
      "stateMutability": "view",
      "type": "function"
    },
    {
      "constant": true,
      "inputs": [
        {
          "internalType": "bytes32",
          "name": "",
          "type": "bytes32"
        }
      ],
      "name": "links",
      "outputs": [
        {
          "internalType": "bytes32",
          "name": "parentVoteMessageHash",
          "type": "bytes32"
        },
        {
          "internalType": "bytes32",
          "name": "targetBlockHash",
          "type": "bytes32"
        },
        {
          "internalType": "uint256",
          "name": "targetBlockNumber",
          "type": "uint256"
        },
        {
          "internalType": "bytes32",
          "name": "sourceTransitionHash",
          "type": "bytes32"
        },
        {
          "internalType": "uint256",
          "name": "proposedMetablockHeight",
          "type": "uint256"
        },
        {
          "internalType": "enum Protocore.CheckpointFinalisationStatus",
          "name": "targetFinalisation",
          "type": "uint8"
        }
      ],
      "payable": false,
      "stateMutability": "view",
      "type": "function"
    },
    {
      "constant": true,
      "inputs": [],
      "name": "metachainId",
      "outputs": [
        {
          "internalType": "bytes32",
          "name": "",
          "type": "bytes32"
        }
      ],
      "payable": false,
      "stateMutability": "view",
      "type": "function"
    },
    {
      "constant": false,
      "inputs": [
        {
          "internalType": "uint256",
          "name": "_kernelHeight",
          "type": "uint256"
        },
        {
          "internalType": "bytes32",
          "name": "_kernelHash",
          "type": "bytes32"
        }
      ],
      "name": "openKernel",
      "outputs": [],
      "payable": false,
      "stateMutability": "nonpayable",
      "type": "function"
    },
    {
      "constant": true,
      "inputs": [],
      "name": "openKernelHash",
      "outputs": [
        {
          "internalType": "bytes32",
          "name": "",
          "type": "bytes32"
        }
      ],
      "payable": false,
      "stateMutability": "view",
      "type": "function"
    },
    {
      "constant": true,
      "inputs": [],
      "name": "openKernelHeight",
      "outputs": [
        {
          "internalType": "uint256",
          "name": "",
          "type": "uint256"
        }
      ],
      "payable": false,
      "stateMutability": "view",
      "type": "function"
    },
    {
      "constant": false,
      "inputs": [
        {
          "internalType": "bytes32",
          "name": "_parentVoteMessageHash",
          "type": "bytes32"
        },
        {
          "internalType": "bytes32",
          "name": "_targetBlockHash",
          "type": "bytes32"
        },
        {
          "internalType": "uint256",
          "name": "_targetBlockNumber",
          "type": "uint256"
        },
        {
          "internalType": "bytes32",
          "name": "_sourceKernelHash",
          "type": "bytes32"
        },
        {
          "internalType": "bytes32",
          "name": "_sourceOriginObservation",
          "type": "bytes32"
        },
        {
          "internalType": "uint256",
          "name": "_sourceDynasty",
          "type": "uint256"
        },
        {
          "internalType": "uint256",
          "name": "_sourceAccumulatedGas",
          "type": "uint256"
        },
        {
          "internalType": "bytes32",
          "name": "_sourceCommitteeLock",
          "type": "bytes32"
        }
      ],
      "name": "proposeLink",
      "outputs": [],
      "payable": false,
      "stateMutability": "nonpayable",
      "type": "function"
    },
    {
      "constant": false,
      "inputs": [
        {
          "internalType": "bytes32",
          "name": "_voteMessageHash",
          "type": "bytes32"
        },
        {
          "internalType": "bytes32",
          "name": "_r",
          "type": "bytes32"
        },
        {
          "internalType": "bytes32",
          "name": "_s",
          "type": "bytes32"
        },
        {
          "internalType": "uint8",
          "name": "_v",
          "type": "uint8"
        }
      ],
      "name": "registerVote",
      "outputs": [],
      "payable": false,
      "stateMutability": "nonpayable",
      "type": "function"
    },
    {
      "constant": false,
      "inputs": [],
      "name": "setup",
      "outputs": [
        {
          "internalType": "bytes32",
          "name": "finalizedBlockHash_",
          "type": "bytes32"
        },
        {
          "internalType": "uint256",
          "name": "finalizedBlockNumber_",
          "type": "uint256"
        }
      ],
      "payable": false,
      "stateMutability": "nonpayable",
      "type": "function"
    },
    {
      "constant": false,
      "inputs": [
        {
          "internalType": "address",
          "name": "_validator",
          "type": "address"
        },
        {
          "internalType": "uint256",
          "name": "_height",
          "type": "uint256"
        },
        {
          "internalType": "uint256",
          "name": "_reputation",
          "type": "uint256"
        }
      ],
      "name": "upsertValidator",
      "outputs": [],
      "payable": false,
      "stateMutability": "nonpayable",
      "type": "function"
    },
    {
      "constant": true,
      "inputs": [
        {
          "internalType": "address",
          "name": "",
          "type": "address"
        }
      ],
      "name": "validatorBeginHeight",
      "outputs": [
        {
          "internalType": "uint256",
          "name": "",
          "type": "uint256"
        }
      ],
      "payable": false,
      "stateMutability": "view",
      "type": "function"
    },
    {
      "constant": true,
      "inputs": [
        {
          "internalType": "address",
          "name": "",
          "type": "address"
        }
      ],
      "name": "validatorEndHeight",
      "outputs": [
        {
          "internalType": "uint256",
          "name": "",
          "type": "uint256"
        }
      ],
      "payable": false,
      "stateMutability": "view",
      "type": "function"
    },
    {
      "constant": true,
      "inputs": [
        {
          "internalType": "uint256",
          "name": "_height",
          "type": "uint256"
        }
      ],
      "name": "validatorSetCount",
      "outputs": [
        {
          "internalType": "uint256",
          "name": "",
          "type": "uint256"
        }
      ],
      "payable": false,
      "stateMutability": "view",
      "type": "function"
    },
    {
      "constant": true,
      "inputs": [
        {
          "internalType": "address",
          "name": "",
          "type": "address"
        }
      ],
      "name": "validators",
      "outputs": [
        {
          "internalType": "address",
          "name": "",
          "type": "address"
        }
      ],
      "payable": false,
      "stateMutability": "view",
      "type": "function"
    },
    {
      "constant": false,
      "inputs": [
        {
          "internalType": "address",
          "name": "_coconsensus",
          "type": "address"
        }
      ],
      "name": "setCoconsensus",
      "outputs": [],
      "payable": false,
      "stateMutability": "nonpayable",
      "type": "function"
    },
    {
      "constant": false,
      "inputs": [
        {
          "internalType": "bytes32",
          "name": "_openKernelHash",
          "type": "bytes32"
        }
      ],
      "name": "setOpenKernelHash",
      "outputs": [],
      "payable": false,
      "stateMutability": "nonpayable",
      "type": "function"
    },
    {
      "constant": false,
      "inputs": [
        {
          "internalType": "uint256",
          "name": "_openKernelHeight",
          "type": "uint256"
        }
      ],
      "name": "setOpenKernelHeight",
      "outputs": [],
      "payable": false,
      "stateMutability": "nonpayable",
      "type": "function"
    },
    {
      "constant": false,
      "inputs": [
        {
          "internalType": "bytes32",
          "name": "_genesisMetachainId",
          "type": "bytes32"
        },
        {
          "internalType": "bytes32",
          "name": "_genesisDomainSeparator",
          "type": "bytes32"
        },
        {
          "internalType": "uint256",
          "name": "_genesisEpochLength",
          "type": "uint256"
        },
        {
          "internalType": "uint256",
          "name": "_genesisDynasty",
          "type": "uint256"
        },
        {
          "internalType": "uint256",
          "name": "_genesisProposedMetablockHeight",
          "type": "uint256"
        },
        {
          "internalType": "bytes32",
          "name": "_genesisAuxiliaryParentVoteMessageHash",
          "type": "bytes32"
        },
        {
          "internalType": "bytes32",
          "name": "_genesisAuxiliarySourceTransitionHash",
          "type": "bytes32"
        },
        {
          "internalType": "bytes32",
          "name": "_genesisAuxiliarySourceBlockHash",
          "type": "bytes32"
        },
        {
          "internalType": "uint256",
          "name": "_genesisAuxiliarySourceBlockNumber",
          "type": "uint256"
        },
        {
          "internalType": "bytes32",
          "name": "_genesisAuxiliaryTargetBlockHash",
          "type": "bytes32"
        },
        {
          "internalType": "uint256",
          "name": "_genesisAuxiliaryTargetBlockNumber",
          "type": "uint256"
        },
        {
          "internalType": "uint256",
          "name": "_genesisAuxiliaryAccumulatedGas",
          "type": "uint256"
        }
      ],
      "name": "setGenesisStorage",
      "outputs": [],
      "payable": false,
      "stateMutability": "nonpayable",
      "type": "function"
    },
    {
      "constant": true,
      "inputs": [],
      "name": "getCoconsensus",
      "outputs": [
        {
          "internalType": "contract CoconsensusInterface",
          "name": "",
          "type": "address"
        }
      ],
      "payable": false,
      "stateMutability": "view",
      "type": "function"
    },
    {
      "constant": false,
      "inputs": [
        {
          "internalType": "bytes32",
          "name": "_metachainId",
          "type": "bytes32"
        },
        {
          "internalType": "uint256",
          "name": "_blockNumber",
          "type": "uint256"
        },
        {
          "internalType": "bytes32",
          "name": "_blockHash",
          "type": "bytes32"
        }
      ],
      "name": "testFinaliseCheckpoint",
      "outputs": [],
      "payable": false,
      "stateMutability": "nonpayable",
      "type": "function"
    },
    {
      "constant": true,
      "inputs": [
        {
          "internalType": "bytes32",
          "name": "_voteMessageHash",
          "type": "bytes32"
        },
        {
          "internalType": "uint256",
          "name": "_height",
          "type": "uint256"
        }
      ],
      "name": "fvsVoteCount",
      "outputs": [
        {
          "internalType": "uint256",
          "name": "",
          "type": "uint256"
        }
      ],
      "payable": false,
      "stateMutability": "view",
      "type": "function"
    },
    {
      "constant": false,
      "inputs": [
        {
          "internalType": "uint256",
          "name": "_nextHeight",
          "type": "uint256"
        }
      ],
      "name": "incrementActiveHeight",
      "outputs": [],
      "payable": false,
      "stateMutability": "nonpayable",
      "type": "function"
    },
    {
      "constant": false,
      "inputs": [
        {
          "internalType": "bytes32",
          "name": "_voteMessageHash",
          "type": "bytes32"
        },
        {
          "internalType": "uint256",
          "name": "_targetBlockNumber",
          "type": "uint256"
        },
        {
          "internalType": "uint256",
          "name": "_epochLength",
          "type": "uint256"
        }
      ],
      "name": "setLink",
      "outputs": [],
      "payable": false,
      "stateMutability": "nonpayable",
      "type": "function"
    }
  ],
  "bytecode": "0x6080604052600d80546001600160a01b031916614d0017905534801561002457600080fd5b50612748806100346000396000f3fe608060405234801561001057600080fd5b50600436106102bb5760003560e01c80637ec9d75311610182578063b9ab2c75116100e9578063dfa8b87e116100a2578063f173034a1161007c578063f173034a146107ba578063f698da25146107e6578063fa52c7d8146107ee578063fbc34e8614610814576102bb565b8063dfa8b87e14610784578063e4eaf14e146107aa578063ed39cded146107b2576102bb565b8063b9ab2c7514610692578063ba0bba401461069a578063c4fec67a146106bb578063d1a976da146106c3578063db48491414610703578063dcf1c34a14610767576102bb565b8063b2fccc7f1161013b578063b2fccc7f14610509578063b2fec5931461056d578063b4907ddc1461059f578063b6735be41461061c578063b7f8e6fa14610642578063b96fc5bb1461064a576102bb565b80637ec9d753146104a35780638498b7a9146104ab5780638e4f2de9146104b357806390cbdd69146104dc578063a032006f146104e4578063af6d5aaf146104ec576102bb565b806332fc6f6c1161022657806355445e06116101df57806355445e061461044057806357d775f8146104485780636c1fd7dc146104505780636e5d1e9c1461046d57806372760bdf146104755780637ccba6cc1461049b576102bb565b806332fc6f6c1461039b57806334a77991146103b85780633f62f830146103ea57806348f630d4146103f25780634adba1ce1461041b5780634ff92af314610438576102bb565b80631df69c71116102785780631df69c71146103505780631fdeaa311461035857806321c0bc491461036057806323609af7146103685780632400ab37146103705780633021513d14610393576102bb565b806309673c1d146102c05780630f8a9af5146102e5578063142aab1114610302578063149fbab91461031c57806314c0e380146103405780631a1e1fce14610348575b600080fd5b6102e3600480360360408110156102d657600080fd5b5080359060200135610846565b005b6102e3600480360360208110156102fb57600080fd5b50356108c4565b61030a6108d0565b60408051918252519081900360200190f35b6103246108d6565b604080516001600160a01b039092168252519081900360200190f35b61030a6108db565b61030a6108e1565b61030a6108e7565b61030a6108ed565b61030a6108f3565b61032461090e565b61030a6004803603604081101561038657600080fd5b508035906020013561091d565b61030a610941565b6102e3600480360360208110156103b157600080fd5b5035610947565b610324600480360360608110156103ce57600080fd5b50803590602081013590604001356001600160a01b031661094c565b61030a610978565b6102e36004803603606081101561040857600080fd5b508035906020810135906040013561097e565b61030a6004803603602081101561043157600080fd5b50356109b2565b61030a610a07565b61030a610a0d565b61030a610a13565b6102e36004803603602081101561046657600080fd5b5035610a19565b61030a610a1e565b6102e36004803603602081101561048b57600080fd5b50356001600160a01b0316610a24565b61030a610a46565b61030a610a4c565b61030a610a51565b6102e3600480360360608110156104c957600080fd5b5080359060208101359060400135610a57565b61030a610ad1565b610324610aec565b61030a6004803603602081101561050257600080fd5b5035610afb565b6105266004803603602081101561051f57600080fd5b5035610b0d565b6040518087815260200186815260200185815260200184815260200183815260200182600381111561055457fe5b60ff168152602001965050505050505060405180910390f35b6102e36004803603608081101561058357600080fd5b508035906020810135906040810135906060013560ff16610b45565b6105a7610bba565b6040805160208082528351818301528351919283929083019185019080838360005b838110156105e15781810151838201526020016105c9565b50505050905090810190601f16801561060e5780820380516001836020036101000a031916815260200191505b509250505060405180910390f35b61030a6004803603602081101561063257600080fd5b50356001600160a01b0316610bd7565b61030a610be9565b6102e3600480360361010081101561066157600080fd5b5080359060208101359060408101359060608101359060808101359060a08101359060c08101359060e00135610bef565b61030a610dc1565b6106a2610dc7565b6040805192835260208301919091528051918290030190f35b61030a610e75565b6106ef600480360360408110156106d957600080fd5b506001600160a01b038135169060200135610e7b565b604080519115158252519081900360200190f35b6102e3600480360361018081101561071a57600080fd5b5080359060208101359060408101359060608101359060808101359060a08101359060c08101359060e0810135906101008101359061012081013590610140810135906101600135610ee5565b61030a6004803603602081101561077d57600080fd5b5035610f1d565b61030a6004803603602081101561079a57600080fd5b50356001600160a01b0316610f72565b61030a610f84565b61030a610f8a565b6106ef600480360360408110156107d057600080fd5b506001600160a01b038135169060200135610f8f565b61030a610ff3565b6103246004803603602081101561080457600080fd5b50356001600160a01b0316610ff9565b6102e36004803603606081101561082a57600080fd5b506001600160a01b038135169060208101359060400135611014565b61084e61090e565b6001600160a01b0316336001600160a01b03161461089d5760405162461bcd60e51b81526004018080602001828103825260358152602001806123fe6035913960400191505060405180910390fd5b6108b66108b183600163ffffffff6110c116565b6110d3565b6108c08282611144565b5050565b6108cd816110d3565b50565b60035481565b600181565b600a5481565b60065481565b60125481565b600e5481565b6040518060876122d682396087019050604051809103902081565b601c546001600160a01b031690565b60008281526014602090815260408083208484526005019091529020545b92915050565b60025481565b601255565b60156020908152600093845260408085208252928452828420905282529020546001600160a01b031681565b600c5481565b600092835260146020526040909220600281019190915560068101805460ff19166001179055601154600490910155600f55565b6000601b5482106109f45760405162461bcd60e51b815260040180806020018281038252604081526020018061248d6040913960400191505060405180910390fd5b506000908152601a602052604090205490565b60115481565b60055481565b600f5481565b601155565b600b5481565b601c80546001600160a01b0319166001600160a01b0392909216919091179055565b60095481565b600281565b60085481565b610a5f61090e565b6001600160a01b0316636d7e4a688484846040518463ffffffff1660e01b8152600401808481526020018381526020018281526020019350505050600060405180830381600087803b158015610ab457600080fd5b505af1158015610ac8573d6000803e3d6000fd5b50505050505050565b60405180607561238982396075019050604051809103902081565b601c546001600160a01b031681565b60136020526000908152604090205481565b601460205260009081526040902080546001820154600283015460038401546004850154600690950154939492939192909160ff1686565b6000848152601460205260409020600f546002820154610b6a9163ffffffff6110c116565b4310610ba75760405162461bcd60e51b815260040180806020018281038252605c815260200180612634605c913960600191505060405180910390fd5b610bb385858585611262565b5050505050565b604051806040016040528060018152602001600360fc1b81525081565b60176020526000908152604090205481565b60075481565b87610c2b5760405162461bcd60e51b81526004018080602001828103825260278152602001806121e06027913960400191505060405180910390fd5b86610c7d576040805162461bcd60e51b815260206004820152601f60248201527f54617267657420626c6f636b68617368206d757374206e6f7420626520302e00604482015290519081900360640190fd5b83610cb95760405162461bcd60e51b815260040180806020018281038252602181526020018061246c6021913960400191505060405180910390fd5b80610cf55760405162461bcd60e51b81526004018080602001828103825260248152602001806125146024913960400191505060405180910390fd5b6012548514610d355760405162461bcd60e51b81526004018080602001828103825260398152602001806124336039913960400191505060405180910390fd5b6000610d448686868686611558565b9050610d5289828a8a611602565b604080518a8152602081018a9052808201899052606081018790526080810188905260a0810186905260c0810185905260e0810184905290517f748613e53aa48757884a9aec3427d8626e541a1d2c2f27ca6d7f76f9f486998f918190036101000190a1505050505050505050565b60045481565b600080610dd261090e565b6001600160a01b0316336001600160a01b031614610e215760405162461bcd60e51b81526004018080602001828103825260358152602001806123fe6035913960400191505060405180910390fd5b610e47600154600554600254600354600a54600b54600654600754600854600954611827565b6003546011819055610e6990610e6490600163ffffffff6110c116565b611963565b50506008546009549091565b60015481565b6001600160a01b0382166000908152601760205260408120548210801590610ebb57506001600160a01b0383166000908152601860205260409020548211155b8015610ede57506001600160a01b03831660009081526018602052604090205415155b9392505050565b60019b909b55600599909955600297909755600495909555600393909355600a91909155600b55600655600755600855600955600c55565b6000601b548210610f5f5760405162461bcd60e51b81526004018080602001828103825260388152602001806125386038913960400191505060405180910390fd5b5060009081526019602052604090205490565b60186020526000908152604090205481565b60001981565b600381565b6001600160a01b0382166000908152601760205260408120548210801590610ebb57506001600160a01b03831660009081526018602052604090205482108015610ede575050506001600160a01b0316600090815260186020526040902054151590565b60105481565b6016602052600090815260409020546001600160a01b031681565b61101c61090e565b6001600160a01b0316336001600160a01b03161461106b5760405162461bcd60e51b81526004018080602001828103825260358152602001806123fe6035913960400191505060405180910390fd5b60115461107f90600163ffffffff6110c116565b821461108757fe5b61109383601154610e7b565b156110ac57806110a7576110a783836119a6565b6110bc565b80156110bc576110bc8383611b11565b505050565b600082820183811015610ede57600080fd5b601b546110e790600163ffffffff6110c116565b81146110ef57fe5b60008181526019602081905260408220549161111284600163ffffffff6110c116565b815260208082019290925260409081016000908120939093558383526019825280832054601a90925290912055601b55565b60115461115890600163ffffffff6110c116565b82146111955760405162461bcd60e51b815260040180806020018281038252603c81526020018061229a603c913960400191505060405180910390fd5b806111e7576040805162461bcd60e51b815260206004820152601b60248201527f54686520676976656e206b65726e656c206861736820697320302e0000000000604482015290519081900360640190fd5b601182905560128190556112026111fd836109b2565b611cec565b601360006011548152602001908152602001600020819055507fd63a98a1e8cc3e07f96ba750deeac7e678c5f5a5aaa80f7efbe54c5f6d3a98f6601154601254604051808381526020018281526020019250505060405180910390a15050565b836112b4576040805162461bcd60e51b815260206004820152601760248201527f566f7465206d657373616765206861736820697320302e000000000000000000604482015290519081900360640190fd5b60008481526014602052604090206001600682015460ff1660038111156112d757fe5b10156113145760405162461bcd60e51b815260040180806020018281038252602b815260200180612207602b913960400191505060405180910390fd5b601154600482015461132d90600163ffffffff6110c116565b101561136a5760405162461bcd60e51b815260040180806020018281038252602e8152602001806125db602e913960400191505060405180910390fd5b604080516000808252602080830180855289905260ff86168385015260608301889052608083018790529251909260019260a080820193601f1981019281900390910190855afa1580156113c2573d6000803e3d6000fd5b5050604051601f1901519150506001600160a01b03811661142a576040805162461bcd60e51b815260206004820152601b60248201527f56616c696461746f72206d757374206e6f74206265206e756c6c2e0000000000604482015290519081900360640190fd5b61143681601154610e7b565b6114715760405162461bcd60e51b815260040180806020018281038252602b815260200180612609602b913960400191505060405180910390fd5b6000868152601560209081526040808320601154845282528083206001600160a01b03858116855292529091205416156114dc5760405162461bcd60e51b815260040180806020018281038252604a815260200180612591604a913960600191505060405180910390fd5b60006114e9878484611d10565b90506114f58783611e1c565b6011546040805189815260208101929092528181018890526060820187905260ff86166080830152517fc9a0f2e3e4091dd3bda440d2760a1874040129d69ca8e36ebed34679426942a29181900360a00190a18015610ac857610ac88784611f21565b600080604051808061238960759139604080519182900360750182206020808401919091528282019a909a526060820198909852608081019690965250505060a083019190915260c0808301919091528251808303909101815260e082018352805190840120601054601960f81b610100840152600160f81b6101018401526101028301526101228083019190915282518083039091018152610142909101909152805191012090565b83611654576040805162461bcd60e51b815260206004820152601e60248201527f506172656e7420766f7465206d657373616765206861736820697320302e0000604482015290519081900360640190fd5b816116905760405162461bcd60e51b815260040180806020018281038252602c81526020018061235d602c913960400191505060405180910390fd5b600f54818161169b57fe5b06156116d85760405162461bcd60e51b81526004018080602001828103825260478152602001806124cd6047913960600191505060405180910390fd5b60008481526014602052604090206002600682015460ff1660038111156116fb57fe5b10156117385760405162461bcd60e51b81526004018080602001828103825260468152602001806122326046913960600191505060405180910390fd5b8060020154821161177a5760405162461bcd60e51b815260040180806020018281038252604a8152602001806126ca604a913960600191505060405180910390fd5b60006117946010548684600101548786600201548861208f565b600081815260146020526040902060010154909150156117e55760405162461bcd60e51b81526004018080602001828103825260218152602001806125706021913960400191505060405180910390fd5b6000908152601460205260409020948555506001808501929092556002840155600383019190915560115460048301556006909101805460ff19169091179055565b600e541561187c576040805162461bcd60e51b815260206004820181905260248201527f436f6e747261637420697320616c726561647920696e697469616c697a65642e604482015290519081900360640190fd5b876118c3576040805162461bcd60e51b815260206004820152601260248201527122b837b1b4103632b733ba341034b990181760711b604482015290519081900360640190fd5b886118ff5760405162461bcd60e51b81526004018080602001828103825260228152602001806122786022913960400191505060405180910390fd5b600e8a90556010899055600f889055600061191e8a878786888761208f565b6000908152601460205260409020968755506001860191909155600285015550506003808301919091556004820192909255600601805460ff19169091179055505050565b601b556001600081905260166020527f4c4dc693d7db52f85fe052106f4b4b920e78e8ef37dee82878a60ab8585faf4980546001600160a01b0319169091179055565b8080601b54146119fd576040805162461bcd60e51b815260206004820181905260248201527f486569676874206d75737420657175616c20616374697665206865696768742e604482015290519081900360640190fd5b6001600160a01b03831660009081526018602052604090205460001914611a2057fe5b6001600160a01b0383166000908152601760205260409020548211611a765760405162461bcd60e51b815260040180806020018281038252603a815260200180612690603a913960400191505060405180910390fd5b6001600160a01b0383166000908152601860205260408120839055601b54611aa590600163ffffffff6110c116565b600081815260196020526040902054909150611ac890600163ffffffff61213616565b600082815260196020908152604080832093909355601b548252601a90522054611af990600163ffffffff61213616565b601b546000908152601a602052604090205550505050565b8080601b5414611b68576040805162461bcd60e51b815260206004820181905260248201527f486569676874206d75737420657175616c20616374697665206865696768742e604482015290519081900360640190fd5b6001600160a01b038316611b7857fe5b6001600160a01b038381166000908152601660205260409020541615611b9a57fe5b600160005260166020527f4c4dc693d7db52f85fe052106f4b4b920e78e8ef37dee82878a60ab8585faf49546001600160a01b031680611bd657fe5b6001600160a01b03808516600081815260166020908152604080832080549587166001600160a01b03199687161790557f4c4dc693d7db52f85fe052106f4b4b920e78e8ef37dee82878a60ab8585faf498054909516841790945591815260178252828120869055601882528281206000199055601b548152601990915290812054611c6990600163ffffffff6110c116565b601b80546000908152601960208190526040822084905591549293508392611c9890600163ffffffff6110c116565b815260200190815260200160002081905550611cd36001601a6000601b548152602001908152602001600020546110c190919063ffffffff16565b601b546000908152601a60205260409020555050505050565b600061093b6003611d0484600263ffffffff61214b16565b9063ffffffff61217216565b6000611d1f8460115484612194565b15611d5e576011546000908152600584016020526040902054611d4990600163ffffffff6110c116565b60115460009081526005850160205260409020555b601154600081815260136020908152604080832054600588019092529091205410159060019015611e0857601154600090611da090600163ffffffff61213616565b9050611dad878287612194565b15611de6576000818152600587016020526040902054611dd490600163ffffffff6110c116565b60008281526005880160205260409020555b6000908152601360209081526040808320546005890190925290912054101590505b818015611e125750805b9695505050505050565b6000828152601560209081526040808320601154845282528083206001600160a01b0385811685529252909120541615611e5257fe5b600082815260156020908152604080832060115484528252808320600184529091529020546001600160a01b031680611ebc57506000828152601560209081526040808320601154845282528083206001808552925290912080546001600160a01b031916821790555b60009283526015602090815260408085206011805487528184528287206001600160a01b039687168089529085528388208054979096166001600160a01b03199788161790955554865282528085206001865290915290922080549091169091179055565b6001600682015460ff166003811115611f3657fe5b14156108c05760068101805460ff1916600290811790915560408051848152602081019290925280517fae22109749a8e1b888ae2d2e15c3ce5ac0c18b153ee7718b7c75f738ef7384719281900390910190a180546000908152601460205260409020600f5460028083015490840154611fb59163ffffffff61213616565b14156110bc576002600682015460ff166003811115611fd057fe5b1015611fd857fe5b60068101805460ff19166003908117909155825460408051918252602082019290925281517fae22109749a8e1b888ae2d2e15c3ce5ac0c18b153ee7718b7c75f738ef738471929181900390910190a161203061090e565b6001600160a01b0316636d7e4a68600e54836002015484600101546040518463ffffffff1660e01b8152600401808481526020018381526020018281526020019350505050600060405180830381600087803b158015610ab457600080fd5b60008060405180806122d660879139604080519182900360870182206020808401919091528282019a909a526060820198909852608081019690965250505060a083019190915260c0808301919091528251808303909101815260e082018352805190840120601960f81b610100830152600160f81b6101018301526101028201949094526101228082019490945281518082039094018452610142019052815191012090565b60008282111561214557600080fd5b50900390565b60008261215a5750600061093b565b8282028284828161216757fe5b0414610ede57600080fd5b600080821161218057600080fd5b600082848161218b57fe5b04949350505050565b600083815260156020908152604080832085845282528083206001600160a01b03858116855292528220541615816121cc8486610f8f565b9050818015611e1257509594505050505056fe506172656e7420766f7465206d6573736167652068617368206d757374206e6f7420626520302e54686520676976656e206c696e6b20737461747573206973206174206c65617374207265706f727465642e506172656e74206c696e6b2773207461726765742066696e616c69736174696f6e207374617475732073686f756c64206265206174206c65617374206a75737469666965642e446f6d61696e20736570617261746f72206d757374206e6f74206265206e756c6c2e54686520676976656e206b65726e656c206865696768742073686f756c6420626520706c75732031206f66207468652063757272656e74206f6e652e566f74654d6573736167652862797465733332207472616e736974696f6e486173682c6279746573333220736f75726365426c6f636b486173682c6279746573333220746172676574426c6f636b486173682c75696e7432353620736f75726365426c6f636b4e756d6265722c75696e7432353620746172676574426c6f636b4e756d6265722954617267657420626c6f636b2068617368206f66207468652070726f706f736564206c696e6b20697320302e5472616e736974696f6e2862797465733332206b65726e656c486173682c62797465733332206f726967696e4f62736572766174696f6e2c75696e743235362064796e617374792c75696e7432353620616363756d756c617465644761732c6279746573333220636f6d6d69747465654c6f636b294f6e6c792074686520436f636f6e73656e73757320636f6e74726163742063616e2063616c6c20746869732066756e6374696f6e2e536f75726365206b65726e656c2068617368206d75737420626520657175616c20746f20746865206f70656e206b65726e656c20686173682e4f726967696e206f62736572766174696f6e206d757374206e6f7420626520302e466f72776172642076616c696461746f722073657420636f756e74206973206f6e6c7920646566696e656420757020746f20616374697665206865696768742e54617267657420626c6f636b206e756d626572206f6620746865206c696e6b2073686f756c64206265206d756c7469706c65206f66207468652065706f6368206c656e6774682e536f7572636520636f6d6d6974746565206c6f636b206d757374206e6f7420626520302e56616c696461746f722073657420636f756e74206973206f6e6c7920646566696e656420757020746f20616374697665206865696768742e5468652070726f706f736564206c696e6b20616c7265616479206578697374732e56616c696461746f7220766f74652063616e6e6f74206265207265676973746572656420747769636520696e2046565320766f746573206174207468652073616d65206865696768742e4c696e6b2068656967687420696e636c7573696f6e207072696e6369706c6520686173207375727061737365642e56616c696461746f72206d75737420626520696e2063757272656e742076616c696461746f72207365742e43757272656e7420626c6f636b206e756d6265722073686f756c64206265206c657373207468616e207468652073756d206f66207468652074617267657420626c6f636b206e756d62657220616e642065706f6368206c656e677468456e6420686569676874206d757374206265207374726963746c792067726561746572207468616e20746865207374617274206865696768742e54617267657420626c6f636b206e756d626572206f66207468652070726f706f736564206c696e6b2073686f756c6420626520626967676572207468616e20706172656e74206f6e652ea265627a7a723158204b02a7f3b24217da1a4f70b5ac51ad84d3850f30a2494938a514b9e527726f1f64736f6c634300050d0032",
  "source": "pragma solidity >=0.5.0 <0.6.0;\n\n// Copyright 2019 OpenST Ltd.\n//\n// Licensed under the Apache License, Version 2.0 (the \"License\");\n// you may not use this file except in compliance with the License.\n// You may obtain a copy of the License at\n//\n//    http://www.apache.org/licenses/LICENSE-2.0\n//\n// Unless required by applicable law or agreed to in writing, software\n// distributed under the License is distributed on an \"AS IS\" BASIS,\n// WITHOUT WARRANTIES OR CONDITIONS OF ANY KIND, either express or implied.\n// See the License for the specific language governing permissions and\n// limitations under the License.\n\nimport \"../../consensus/CoconsensusInterface.sol\";\nimport \"../../protocore/SelfProtocore.sol\";\n\n\n/**\n * @title TestSelfProtocore\n *\n * @notice It is used to test SelfProtocore contract.\n */\ncontract TestSelfProtocore is SelfProtocore {\n\n    /* Storage */\n\n    CoconsensusInterface public coconsensus;\n\n\n    /* External Functions */\n\n    /**\n     * @notice It is used to set coconsensus for testing purpose for calling setup\n     *         of SelfProtocore contract.\n     */\n    function setCoconsensus(address _coconsensus) external {\n        coconsensus = CoconsensusInterface(_coconsensus);\n    }\n\n    /**\n     * @notice It is used to set open kernel hash.\n     */\n    function setOpenKernelHash(bytes32 _openKernelHash) external {\n        openKernelHash = _openKernelHash;\n    }\n\n    /**\n     * @notice It is used to set current open kernel height.\n     */\n    function setOpenKernelHeight(uint256 _openKernelHeight) external {\n        openKernelHeight = _openKernelHeight;\n    }\n\n    function setGenesisStorage(\n        bytes32 _genesisMetachainId,\n        bytes32 _genesisDomainSeparator,\n        uint256 _genesisEpochLength,\n        uint256 _genesisDynasty,\n        uint256 _genesisProposedMetablockHeight,\n        bytes32 _genesisAuxiliaryParentVoteMessageHash,\n        bytes32 _genesisAuxiliarySourceTransitionHash,\n        bytes32 _genesisAuxiliarySourceBlockHash,\n        uint256 _genesisAuxiliarySourceBlockNumber,\n        bytes32 _genesisAuxiliaryTargetBlockHash,\n        uint256 _genesisAuxiliaryTargetBlockNumber,\n        uint256 _genesisAuxiliaryAccumulatedGas\n    )\n        external\n    {\n        genesisMetachainId = _genesisMetachainId;\n        genesisDomainSeparator = _genesisDomainSeparator;\n        genesisEpochLength = _genesisEpochLength;\n        genesisDynasty = _genesisDynasty;\n        genesisProposedMetablockHeight = _genesisProposedMetablockHeight;\n        genesisAuxiliaryParentVoteMessageHash = _genesisAuxiliaryParentVoteMessageHash;\n        genesisAuxiliarySourceTransitionHash = _genesisAuxiliarySourceTransitionHash;\n        genesisAuxiliarySourceBlockHash = _genesisAuxiliarySourceBlockHash;\n        genesisAuxiliarySourceBlockNumber = _genesisAuxiliarySourceBlockNumber;\n        genesisAuxiliaryTargetBlockHash = _genesisAuxiliaryTargetBlockHash;\n        genesisAuxiliaryTargetBlockNumber = _genesisAuxiliaryTargetBlockNumber;\n        genesisAuxiliaryAccumulatedGas = _genesisAuxiliaryAccumulatedGas;\n    }\n\n    function getCoconsensus()\n\t\tpublic\n\t\tview\n\t\treturns (CoconsensusInterface)\n\t{\n        return coconsensus;\n    }\n\n    /**\n     * @notice This function is used to test the\n     *         `Coconsensus::finaliseCheckpoint`, the msg.sender for the\n     *         `Coconsensus::finaliseCheckpoint` can only be protocore.\n     */\n    function testFinaliseCheckpoint(\n        bytes32 _metachainId,\n        uint256 _blockNumber,\n        bytes32 _blockHash\n    )\n        external\n    {\n        getCoconsensus().finaliseCheckpoint(\n            _metachainId,\n            _blockNumber,\n            _blockHash\n        );\n    }\n\n    function fvsVoteCount(\n        bytes32 _voteMessageHash,\n        uint256 _height\n    )\n        external\n        view\n        returns (uint256)\n    {\n        return links[_voteMessageHash].fvsVoteCount[_height];\n    }\n\n    /**\n     * @notice It is used to call `incrementActiveHeightInternal`to increment\n     *         active height.\n     */\n    function incrementActiveHeight(uint256 _nextHeight) external {\n        ValidatorSet.incrementActiveHeightInternal(_nextHeight);\n    }\n\n    function setLink(\n        bytes32 _voteMessageHash,\n        uint256 _targetBlockNumber,\n        uint256 _epochLength\n    )\n        external\n    {\n        Link storage link = links[_voteMessageHash];\n        link.targetBlockNumber = _targetBlockNumber;\n        link.targetFinalisation = CheckpointFinalisationStatus.Registered;\n        link.proposedMetablockHeight = openKernelHeight;\n        epochLength = _epochLength;\n    }\n}\n",
  "sourcePath": "/Users/abhay/Documents/projects/abhayforks/mosaic-1/contracts/test/protocore/TestSelfProtocore.sol",
  "compiler": {
    "name": "solc",
    "version": "0.5.13+commit.5b0b510c.Emscripten.clang"
  },
  "schemaVersion": "3.0.17",
  "updatedAt": "2020-03-21T06:48:34.820Z",
  "devdoc": {
    "methods": {
      "forwardValidatorSetCount(uint256)": {
        "details": "Function requires:         - height is less than active height",
        "params": {
          "_height": "Height for which to return the forward validator set count."
        }
      },
      "inForwardValidatorSet(address,uint256)": {
        "params": {
          "_height": "Metablock height.",
          "_validator": "Address of validator."
        }
      },
      "inValidatorSet(address,uint256)": {
        "params": {
          "_height": "Metablock height.",
          "_validator": "Address of validator."
        }
      },
      "openKernel(uint256,bytes32)": {
        "params": {
          "_kernelHash": "New kernel hash.     * \\pre Only coconsensus can call. \\pre Satisfies all pre conditions of Protocore::openKernelInternal().     * \\post Increments the active height of the validator set. \\post Satisfies all the post conditions of Protocore::openKernelInternal().",
          "_kernelHeight": "New kernel height."
        }
      },
      "proposeLink(bytes32,bytes32,uint256,bytes32,bytes32,uint256,uint256,bytes32)": {
        "details": "Function requires :         - parent vote messagehash must not be 0.         - target block hash must not be 0.         - source origin observation must not be 0.         - source committee lock must not be 0.         - open kernel hash must be same as source kernel hash.",
        "params": {
          "_parentVoteMessageHash": "Vote message hash of the parent link.",
          "_sourceAccumulatedGas": "Total gas consumed till target block number.",
          "_sourceCommitteeLock": "The committee lock that hashes the                            transaction root on the auxiliary chain.",
          "_sourceDynasty": "Metablock dynasty.",
          "_sourceKernelHash": "Open kernel hash.",
          "_sourceOriginObservation": "Observation of the origin chain.",
          "_targetBlockHash": "Blockhash of the target checkpoint.",
          "_targetBlockNumber": "Block number of target checkpoint."
        }
      },
      "registerVote(bytes32,bytes32,bytes32,uint8)": {
        "params": {
          "_r": "The first 32 bytes of ECDSA signature of a validator.",
          "_s": "The second 32 bytes of ECDSA signature of a validator.",
          "_v": "The recovery id/value of ECDSA signature of a validator.",
          "_voteMessageHash": "Message hash of a vote."
        }
      },
      "setup()": {
        "return": "Block hash and block number of finalized genesis checkpoint.     * \\post Sets `domainSeparator` to the given value. \\post Sets `epochLength` to the given value. \\post Sets `metachainId` to the given value. \\post Sets genesis link."
      },
      "upsertValidator(address,uint256,uint256)": {
        "details": "Function requires:     - Caller should be Coconsensus contract.     - Validator can get joined/removed only at height one greater than       current open kernel height.",
        "params": {
          "_height": "Validator start or end height to be updated.",
          "_reputation": "Validator's reputation value.",
          "_validator": "Validator address to upsert."
        }
      },
      "validatorSetCount(uint256)": {
        "details": "Function requires:         - height is less than active height",
        "params": {
          "_height": "Height for which to return the validator set count."
        }
      }
    },
    "title": "TestSelfProtocore"
  },
  "userdoc": {
    "methods": {
      "forwardValidatorSetCount(uint256)": {
        "notice": "returns the forward validator set count for heights up to active height, but not included."
      },
      "inForwardValidatorSet(address,uint256)": {
        "notice": "Checks if validator is in forward validator set or not."
      },
      "inValidatorSet(address,uint256)": {
        "notice": "Checks if validator is in validator set or not."
      },
      "incrementActiveHeight(uint256)": {
        "notice": "It is used to call `incrementActiveHeightInternal`to increment        active height."
      },
      "openKernel(uint256,bytes32)": {
        "notice": "openKernel() function marks the specified kernel        as opened."
      },
      "proposeLink(bytes32,bytes32,uint256,bytes32,bytes32,uint256,uint256,bytes32)": {
        "notice": "It proposes a valid link to be voted later by active validators.        It emits LinkProposed event."
      },
      "registerVote(bytes32,bytes32,bytes32,uint8)": {
        "notice": "Registers a vote for a link specified by vote message hash.     * \\pre A link should exist in the links mapping for the given _voteMessageHash. \\pre The current block number must be less than the sum of the target     block number of link and epoch length. \\pre Satisfy the \\pre conditions of Protocore::registerVoteInternal().     * \\post Satisfy the \\post conditions of Protocore::registerVoteInternal()"
      },
      "setCoconsensus(address)": {
        "notice": "It is used to set coconsensus for testing purpose for calling setup        of SelfProtocore contract."
      },
      "setOpenKernelHash(bytes32)": {
        "notice": "It is used to set open kernel hash."
      },
      "setOpenKernelHeight(uint256)": {
        "notice": "It is used to set current open kernel height."
      },
      "setup()": {
        "notice": "setup() function initializes the current contract."
      },
      "testFinaliseCheckpoint(bytes32,uint256,bytes32)": {
        "notice": "This function is used to test the        `Coconsensus::finaliseCheckpoint`, the msg.sender for the        `Coconsensus::finaliseCheckpoint` can only be protocore."
      },
      "upsertValidator(address,uint256,uint256)": {
        "notice": "Insert or remove validator. It inserts validator if not already        present and reputation is greater than 0. It removes validator        if it is present and reputation is 0."
      },
      "validatorSetCount(uint256)": {
        "notice": "returns the validator set count for heights up to active height, but not included."
      }
    },
    "notice": "It is used to test SelfProtocore contract."
  }
}