{
  "contractName": "UtBaseConfirmDepositSpy",
  "abi": [
    {
      "constant": true,
      "inputs": [
        {
          "internalType": "uint256",
          "name": "",
          "type": "uint256"
        }
      ],
      "name": "amounts",
      "outputs": [
        {
          "internalType": "uint256",
          "name": "",
          "type": "uint256"
        }
      ],
      "payable": false,
      "stateMutability": "view",
      "type": "function"
    },
    {
      "constant": true,
      "inputs": [
        {
          "internalType": "uint256",
          "name": "",
          "type": "uint256"
        }
      ],
      "name": "beneficiaries",
      "outputs": [
        {
          "internalType": "address",
          "name": "",
          "type": "address"
        }
      ],
      "payable": false,
      "stateMutability": "view",
      "type": "function"
    },
    {
      "constant": false,
      "inputs": [],
      "name": "valueToken",
      "outputs": [
        {
          "internalType": "address",
          "name": "valueTokenAddress_",
          "type": "address"
        }
      ],
      "payable": false,
      "stateMutability": "nonpayable",
      "type": "function"
    },
    {
      "constant": false,
      "inputs": [
        {
          "internalType": "address payable",
          "name": "_beneficiary",
          "type": "address"
        },
        {
          "internalType": "uint256",
          "name": "_amount",
          "type": "uint256"
        }
      ],
      "name": "mint",
      "outputs": [],
      "payable": false,
      "stateMutability": "nonpayable",
      "type": "function"
    },
    {
      "constant": false,
      "inputs": [
        {
          "internalType": "uint256",
          "name": "",
          "type": "uint256"
        }
      ],
      "name": "burn",
      "outputs": [],
      "payable": false,
      "stateMutability": "nonpayable",
      "type": "function"
    },
    {
      "constant": false,
      "inputs": [
        {
          "internalType": "address",
          "name": "",
          "type": "address"
        },
        {
          "internalType": "uint256",
          "name": "",
          "type": "uint256"
        }
      ],
      "name": "burnFrom",
      "outputs": [],
      "payable": false,
      "stateMutability": "nonpayable",
      "type": "function"
    }
  ],
  "bytecode": "0x608060405234801561001057600080fd5b5061030c806100206000396000f3fe608060405234801561001057600080fd5b50600436106100625760003560e01c806340c10f191461006757806342966c681461009557806345f0a44f146100b257806379cc6790146100e1578063efeb5e581461010d578063effff82f14610146575b600080fd5b6100936004803603604081101561007d57600080fd5b506001600160a01b03813516906020013561014e565b005b610093600480360360208110156100ab57600080fd5b50356101cd565b6100cf600480360360208110156100c857600080fd5b5035610204565b60408051918252519081900360200190f35b610093600480360360408110156100f757600080fd5b506001600160a01b038135169060200135610222565b61012a6004803603602081101561012357600080fd5b5035610259565b604080516001600160a01b039092168252519081900360200190f35b61012a610280565b60008054600180820183557f290decd9548b62a8d60345a988386fc84ba6bc95484008f6362f93160ef3e56390910180546001600160a01b0319166001600160a01b039590951694909417909355825480840184559290527fb10e2d527612073b26eecdfd717e6a320cf44b4afac2b0732d9fcbe2b7fa0cf690910155565b60405162461bcd60e51b81526004018080602001828103825260218152602001806102866021913960400191505060405180910390fd5b6001818154811061021157fe5b600091825260209091200154905081565b60405162461bcd60e51b81526004018080602001828103825260318152602001806102a76031913960400191505060405180910390fd5b6000818154811061026657fe5b6000918252602090912001546001600160a01b0316905081565b60019056fe54686973206d6574686f642073686f756c64206e6f742062652063616c6c65642e54686973206d6574686f642073686f756c64206e6f742062652063616c6c65642066726f6d20756e69742074657374732ea265627a7a7231582027cef98a687806598e5d7f68d42458c9ae3b00cd565c0af284830c18e070e1b264736f6c634300050d0032",
  "source": "pragma solidity >=0.5.0 <0.6.0;\n\n// Copyright 2020 OpenST Ltd.\n//\n// Licensed under the Apache License, Version 2.0 (the \"License\");\n// you may not use this file except in compliance with the License.\n// You may obtain a copy of the License at\n//\n//    http://www.apache.org/licenses/LICENSE-2.0\n//\n// Unless required by applicable law or agreed to in writing, software\n// distributed under the License is distributed on an \"AS IS\" BASIS,\n// WITHOUT WARRANTIES OR CONDITIONS OF ANY KIND, either express or implied.\n// See the License for the specific language governing permissions and\n// limitations under the License.\n\nimport \"../../utility-token/UtilityTokenInterface.sol\";\n\n/**\n * @title UtBase spy contract to test ConsensusCogateway::confirmDeposit.\n */\ncontract UtBaseConfirmDepositSpy is UtilityTokenInterface {\n\n    /* Storage */\n\n    address[] public beneficiaries;\n    uint256[] public amounts;\n\n\n    /* External Functions. */\n\n    /**\n     * @notice It provides address of value token.\n     *\n     * @return valueTokenAddress_ Value token address.\n     */\n    function valueToken()\n        external\n        returns (\n            address valueTokenAddress_\n        )\n    {\n        valueTokenAddress_ = address(1);\n    }\n\n    /**\n     * @notice Used for unit testing of ConsensusCogateway::confirmDeposit.\n     *\n     * @param _beneficiary Address of beneficiary where tokens are minted.\n     * @param _amount Amount in wei.\n     */\n    function mint(\n        address payable _beneficiary,\n        uint256 _amount\n    )\n        external\n    {\n        beneficiaries.push(_beneficiary);\n        amounts.push(_amount);\n    }\n\n    /**\n     * @notice Implemented to satisfy the interface definition.\n     */\n    function burn(uint256)\n        external\n    {\n        require(false, \"This method should not be called.\");\n    }\n\n    /**\n     * @notice Implemented to satisfy the interface definition.\n     */\n    function burnFrom(address, uint256)\n        external\n    {\n        require(false, \"This method should not be called from unit tests.\");\n    }\n\n}\n",
  "sourcePath": "/Users/abhay/Documents/projects/abhayforks/mosaic-1/contracts/test/token/UtBaseConfirmDepositSpy.sol",
  "compiler": {
    "name": "solc",
    "version": "0.5.13+commit.5b0b510c.Emscripten.clang"
  },
  "schemaVersion": "3.0.17",
  "updatedAt": "2020-03-21T06:48:34.828Z",
  "devdoc": {
    "methods": {
      "mint(address,uint256)": {
        "params": {
          "_amount": "Amount in wei.",
          "_beneficiary": "Address of beneficiary where tokens are minted."
        }
      },
      "valueToken()": {
        "return": "valueTokenAddress_ Value token address."
      }
    },
    "title": "UtBase spy contract to test ConsensusCogateway::confirmDeposit."
  },
  "userdoc": {
    "methods": {
      "burn(uint256)": {
        "notice": "Implemented to satisfy the interface definition."
      },
      "burnFrom(address,uint256)": {
        "notice": "Implemented to satisfy the interface definition."
      },
      "mint(address,uint256)": {
        "notice": "Used for unit testing of ConsensusCogateway::confirmDeposit."
      },
      "valueToken()": {
        "notice": "It provides address of value token."
      }
    }
  }
}