{
  "contractName": "UtBase",
  "abi": [
    {
      "anonymous": false,
      "inputs": [
        {
          "indexed": true,
          "internalType": "address",
          "name": "_owner",
          "type": "address"
        },
        {
          "indexed": true,
          "internalType": "address",
          "name": "_spender",
          "type": "address"
        },
        {
          "indexed": false,
          "internalType": "uint256",
          "name": "_value",
          "type": "uint256"
        }
      ],
      "name": "Approval",
      "type": "event"
    },
    {
      "anonymous": false,
      "inputs": [
        {
          "indexed": true,
          "internalType": "address",
          "name": "_from",
          "type": "address"
        },
        {
          "indexed": true,
          "internalType": "address",
          "name": "_to",
          "type": "address"
        },
        {
          "indexed": false,
          "internalType": "uint256",
          "name": "_value",
          "type": "uint256"
        }
      ],
      "name": "Transfer",
      "type": "event"
    },
    {
      "constant": true,
      "inputs": [],
      "name": "TOKEN_DECIMALS",
      "outputs": [
        {
          "internalType": "uint8",
          "name": "",
          "type": "uint8"
        }
      ],
      "payable": false,
      "stateMutability": "view",
      "type": "function"
    },
    {
      "constant": true,
      "inputs": [],
      "name": "TOKEN_NAME",
      "outputs": [
        {
          "internalType": "string",
          "name": "",
          "type": "string"
        }
      ],
      "payable": false,
      "stateMutability": "view",
      "type": "function"
    },
    {
      "constant": true,
      "inputs": [],
      "name": "TOKEN_SYMBOL",
      "outputs": [
        {
          "internalType": "string",
          "name": "",
          "type": "string"
        }
      ],
      "payable": false,
      "stateMutability": "view",
      "type": "function"
    },
    {
      "constant": true,
      "inputs": [
        {
          "internalType": "address",
          "name": "_owner",
          "type": "address"
        },
        {
          "internalType": "address",
          "name": "_spender",
          "type": "address"
        }
      ],
      "name": "allowance",
      "outputs": [
        {
          "internalType": "uint256",
          "name": "allowance_",
          "type": "uint256"
        }
      ],
      "payable": false,
      "stateMutability": "view",
      "type": "function"
    },
    {
      "constant": false,
      "inputs": [
        {
          "internalType": "address",
          "name": "_spender",
          "type": "address"
        },
        {
          "internalType": "uint256",
          "name": "_value",
          "type": "uint256"
        }
      ],
      "name": "approve",
      "outputs": [
        {
          "internalType": "bool",
          "name": "success_",
          "type": "bool"
        }
      ],
      "payable": false,
      "stateMutability": "nonpayable",
      "type": "function"
    },
    {
      "constant": true,
      "inputs": [
        {
          "internalType": "address",
          "name": "_owner",
          "type": "address"
        }
      ],
      "name": "balanceOf",
      "outputs": [
        {
          "internalType": "uint256",
          "name": "balance_",
          "type": "uint256"
        }
      ],
      "payable": false,
      "stateMutability": "view",
      "type": "function"
    },
    {
      "constant": true,
      "inputs": [],
      "name": "decimals",
      "outputs": [
        {
          "internalType": "uint8",
          "name": "tokenDecimals_",
          "type": "uint8"
        }
      ],
      "payable": false,
      "stateMutability": "view",
      "type": "function"
    },
    {
      "constant": true,
      "inputs": [],
      "name": "genesisTotalSupply",
      "outputs": [
        {
          "internalType": "uint256",
          "name": "",
          "type": "uint256"
        }
      ],
      "payable": false,
      "stateMutability": "view",
      "type": "function"
    },
    {
      "constant": true,
      "inputs": [],
      "name": "getCoconsensus",
      "outputs": [
        {
          "internalType": "contract CoconsensusInterface",
          "name": "",
          "type": "address"
        }
      ],
      "payable": false,
      "stateMutability": "view",
      "type": "function"
    },
    {
      "constant": true,
      "inputs": [],
      "name": "name",
      "outputs": [
        {
          "internalType": "string",
          "name": "tokenName_",
          "type": "string"
        }
      ],
      "payable": false,
      "stateMutability": "view",
      "type": "function"
    },
    {
      "constant": true,
      "inputs": [],
      "name": "symbol",
      "outputs": [
        {
          "internalType": "string",
          "name": "tokenSymbol_",
          "type": "string"
        }
      ],
      "payable": false,
      "stateMutability": "view",
      "type": "function"
    },
    {
      "constant": true,
      "inputs": [],
      "name": "totalSupply",
      "outputs": [
        {
          "internalType": "uint256",
          "name": "totalTokenSupply_",
          "type": "uint256"
        }
      ],
      "payable": false,
      "stateMutability": "view",
      "type": "function"
    },
    {
      "constant": false,
      "inputs": [
        {
          "internalType": "address",
          "name": "_to",
          "type": "address"
        },
        {
          "internalType": "uint256",
          "name": "_value",
          "type": "uint256"
        }
      ],
      "name": "transfer",
      "outputs": [
        {
          "internalType": "bool",
          "name": "success_",
          "type": "bool"
        }
      ],
      "payable": false,
      "stateMutability": "nonpayable",
      "type": "function"
    },
    {
      "constant": false,
      "inputs": [
        {
          "internalType": "address",
          "name": "_from",
          "type": "address"
        },
        {
          "internalType": "address",
          "name": "_to",
          "type": "address"
        },
        {
          "internalType": "uint256",
          "name": "_value",
          "type": "uint256"
        }
      ],
      "name": "transferFrom",
      "outputs": [
        {
          "internalType": "bool",
          "name": "success_",
          "type": "bool"
        }
      ],
      "payable": false,
      "stateMutability": "nonpayable",
      "type": "function"
    },
    {
      "constant": false,
      "inputs": [],
      "name": "setup",
      "outputs": [],
      "payable": false,
      "stateMutability": "nonpayable",
      "type": "function"
    },
    {
      "constant": false,
      "inputs": [
        {
          "internalType": "address payable",
          "name": "_beneficiary",
          "type": "address"
        },
        {
          "internalType": "uint256",
          "name": "_amount",
          "type": "uint256"
        }
      ],
      "name": "mint",
      "outputs": [],
      "payable": false,
      "stateMutability": "nonpayable",
      "type": "function"
    },
    {
      "constant": false,
      "inputs": [
        {
          "internalType": "uint256",
          "name": "_amount",
          "type": "uint256"
        }
      ],
      "name": "unwrap",
      "outputs": [],
      "payable": false,
      "stateMutability": "nonpayable",
      "type": "function"
    },
    {
      "constant": false,
      "inputs": [],
      "name": "wrap",
      "outputs": [],
      "payable": true,
      "stateMutability": "payable",
      "type": "function"
    },
    {
      "constant": false,
      "inputs": [
        {
          "internalType": "uint256",
          "name": "_value",
          "type": "uint256"
        }
      ],
      "name": "burn",
      "outputs": [],
      "payable": false,
      "stateMutability": "nonpayable",
      "type": "function"
    },
    {
      "constant": false,
      "inputs": [
        {
          "internalType": "address",
          "name": "_account",
          "type": "address"
        },
        {
          "internalType": "uint256",
          "name": "_value",
          "type": "uint256"
        }
      ],
      "name": "burnFrom",
      "outputs": [],
      "payable": false,
      "stateMutability": "nonpayable",
      "type": "function"
    },
    {
      "constant": true,
      "inputs": [],
      "name": "getConsensusCogateway",
      "outputs": [
        {
          "internalType": "address",
          "name": "",
          "type": "address"
        }
      ],
      "payable": false,
      "stateMutability": "view",
      "type": "function"
    },
    {
      "constant": true,
      "inputs": [],
      "name": "getTotalTokenSupply",
      "outputs": [
        {
          "internalType": "uint256",
          "name": "",
          "type": "uint256"
        }
      ],
      "payable": false,
      "stateMutability": "view",
      "type": "function"
    }
  ],
  "bytecode": "0x6080604052600880546001600160a01b0319908116614d001790915560098054909116614d0217905534801561003457600080fd5b50610f54806100446000396000f3fe6080604052600436106101355760003560e01c806342966c68116100ab578063a9059cbb1161006f578063a9059cbb14610411578063ba0bba401461044a578063d46eb1191461045f578063dd62ed3e14610467578063de0e9a3e146104a2578063de36948d146104cc57610135565b806342966c68146103515780635b7f415c1461037b57806370a082311461039057806379cc6790146103c357806395d89b41146103fc57610135565b80631d6c90a9116100fd5780631d6c90a91461024d57806323609af71461026257806323b872dd146102935780632a905318146102d6578063313ce567146102eb57806340c10f191461031657610135565b8063047087cc1461013a57806306fdde0314610161578063095ea7b3146101eb57806318160ddd1461013a5780631882140014610238575b600080fd5b34801561014657600080fd5b5061014f6104e1565b60408051918252519081900360200190f35b34801561016d57600080fd5b506101766104e8565b6040805160208082528351818301528351919283929083019185019080838360005b838110156101b0578181015183820152602001610198565b50505050905090810190601f1680156101dd5780820380516001836020036101000a031916815260200191505b509250505060405180910390f35b3480156101f757600080fd5b506102246004803603604081101561020e57600080fd5b506001600160a01b03813516906020013561057b565b604080519115158252519081900360200190f35b34801561024457600080fd5b506101766105e1565b34801561025957600080fd5b5061014f610603565b34801561026e57600080fd5b50610277610609565b604080516001600160a01b039092168252519081900360200190f35b34801561029f57600080fd5b50610224600480360360608110156102b657600080fd5b506001600160a01b03813581169160208101359091169060400135610618565b3480156102e257600080fd5b50610176610683565b3480156102f757600080fd5b506103006106a1565b6040805160ff9092168252519081900360200190f35b34801561032257600080fd5b5061034f6004803603604081101561033957600080fd5b506001600160a01b0381351690602001356106aa565b005b34801561035d57600080fd5b5061034f6004803603602081101561037457600080fd5b5035610719565b34801561038757600080fd5b50610300610726565b34801561039c57600080fd5b5061014f600480360360208110156103b357600080fd5b50356001600160a01b031661072b565b3480156103cf57600080fd5b5061034f600480360360408110156103e657600080fd5b506001600160a01b038135169060200135610746565b34801561040857600080fd5b50610176610750565b34801561041d57600080fd5b506102246004803603604081101561043457600080fd5b506001600160a01b0381351690602001356107b1565b34801561045657600080fd5b5061034f6107c5565b61034f6108da565b34801561047357600080fd5b5061014f6004803603604081101561048a57600080fd5b506001600160a01b0381358116916020013516610941565b3480156104ae57600080fd5b5061034f600480360360208110156104c557600080fd5b503561096c565b3480156104d857600080fd5b50610277610976565b6005545b90565b60028054604080516020601f60001961010060018716150201909416859004938401819004810282018101909252828152606093909290918301828280156105715780601f1061054657610100808354040283529160200191610571565b820191906000526020600020905b81548152906001019060200180831161055457829003601f168201915b5050505050905090565b3360008181526007602090815260408083206001600160a01b038716808552908352818420869055815186815291519394909390927f8c5be1e5ebec7d5bd14f71427d1e84f3dd0314c0f7b2291e5b200ac8c7c3b925928290030190a350600192915050565b6040518060400160405280600681526020016555744261736560d01b81525081565b60015481565b6008546001600160a01b031690565b6001600160a01b038316600090815260076020908152604080832033845290915281205461064c908363ffffffff61098516565b6001600160a01b038516600090815260076020908152604080832033845290915290205561067b84848461099a565b949350505050565b604051806040016040528060028152602001612aa160f11b81525081565b60045460ff1690565b6106b2610976565b6001600160a01b0316336001600160a01b0316146107015760405162461bcd60e51b815260040180806020018281038252603d815260200180610e66603d913960400191505060405180910390fd5b61070b8282610a59565b6107158282610b4b565b5050565b6107233382610bfc565b50565b601281565b6001600160a01b031660009081526006602052604090205490565b6107158282610cd7565b60038054604080516020601f60026000196101006001881615020190951694909404938401819004810282018101909252828152606093909290918301828280156105715780601f1061054657610100808354040283529160200191610571565b60006107be33848461099a565b9392505050565b6107cd610609565b6001600160a01b0316336001600160a01b03161461081c5760405162461bcd60e51b8152600401808060200182810382526035815260200180610ea36035913960400191505060405180910390fd5b6005541561085b5760405162461bcd60e51b8152600401808060200182810382526027815260200180610ed86027913960400191505060405180910390fd5b604080518082019091526002808252612aa160f11b602090920191825261088491600391610dab565b506040805180820190915260068082526555744261736560d01b60209092019182526108b291600291610dab565b506004805460ff19166012179055600154600581905530600090815260066020526040902055565b3433816109185760405162461bcd60e51b8152600401808060200182810382526022815260200180610e446022913960400191505060405180910390fd5b3060009081526006602052604090205482111561093157fe5b61093c30828461099a565b505050565b6001600160a01b03918216600090815260076020908152604080832093909416825291909152205490565b6107233382610b4b565b6009546001600160a01b031690565b60008282111561099457600080fd5b50900390565b6001600160a01b0383166000908152600660205260408120546109c3908363ffffffff61098516565b6001600160a01b0380861660009081526006602052604080822093909355908516815220546109f8908363ffffffff610d9916565b6001600160a01b0380851660008181526006602090815260409182902094909455805186815290519193928816927fddf252ad1be2c89b69c2b068fc378daa952ba7f163c4a11628f55a4df523b3ef92918290030190a35060019392505050565b6001600160a01b038216610ab4576040805162461bcd60e51b815260206004820152601f60248201527f45524332303a206d696e7420746f20746865207a65726f206164647265737300604482015290519081900360640190fd5b600554610ac7908263ffffffff610d9916565b6005556001600160a01b038216600090815260066020526040902054610af3908263ffffffff610d9916565b6001600160a01b03831660008181526006602090815260408083209490945583518581529351929391927fddf252ad1be2c89b69c2b068fc378daa952ba7f163c4a11628f55a4df523b3ef9281900390910190a35050565b6001600160a01b038216600090815260066020526040902054811115610bb0576040805162461bcd60e51b815260206004820152601560248201527424b739bab33334b1b4b2b73a103130b630b731b29760591b604482015290519081900360640190fd5b80471015610bba57fe5b610bc582308361099a565b506040516001600160a01b0383169082156108fc029083906000818181858888f1935050505015801561093c573d6000803e3d6000fd5b6001600160a01b038216610c415760405162461bcd60e51b8152600401808060200182810382526021815260200180610eff6021913960400191505060405180910390fd5b600554610c54908263ffffffff61098516565b6005556001600160a01b038216600090815260066020526040902054610c80908263ffffffff61098516565b6001600160a01b0383166000818152600660209081526040808320949094558351858152935191937fddf252ad1be2c89b69c2b068fc378daa952ba7f163c4a11628f55a4df523b3ef929081900390910190a35050565b6001600160a01b0382166000908152600760209081526040808320338452909152902054610d0b908263ffffffff61098516565b6001600160a01b0383166000908152600760209081526040808320338452909152902055610d398282610bfc565b6001600160a01b0382166000818152600760209081526040808320338085529083529281902054815190815290519293927f8c5be1e5ebec7d5bd14f71427d1e84f3dd0314c0f7b2291e5b200ac8c7c3b925929181900390910190a35050565b6000828201838110156107be57600080fd5b828054600181600116156101000203166002900490600052602060002090601f016020900481019282601f10610dec57805160ff1916838001178555610e19565b82800160010185558215610e19579182015b82811115610e19578251825591602001919060010190610dfe565b50610e25929150610e29565b5090565b6104e591905b80821115610e255760008155600101610e2f56fe50617961626c6520616d6f756e742073686f756c64206e6f74206265207a65726f2e4f6e6c792074686520636f6e73656e73757320636f6761746577617920636f6e74726163742063616e2063616c6c20746869732066756e6374696f6e2e4f6e6c792074686520436f636f6e73656e73757320636f6e74726163742063616e2063616c6c20746869732066756e6374696f6e2e55746261736520636f6e747261637420697320616c726561647920696e697469616c697a65642e45524332303a206275726e2066726f6d20746865207a65726f2061646472657373a265627a7a72315820d70b6b045eec40a620f0fc0e1b8ab55d889e276b7657a68245fbcd99b2764f3464736f6c634300050d0032",
  "source": "pragma solidity >=0.5.0 <0.6.0;\n\n// Copyright 2020 OpenST Ltd.\n//\n// Licensed under the Apache License, Version 2.0 (the \"License\");\n// you may not use this file except in compliance with the License.\n// You may obtain a copy of the License at\n//\n//    http://www.apache.org/licenses/LICENSE-2.0\n//\n// Unless required by applicable law or agreed to in writing, software\n// distributed under the License is distributed on an \"AS IS\" BASIS,\n// WITHOUT WARRANTIES OR CONDITIONS OF ANY KIND, either express or implied.\n// See the License for the specific language governing permissions and\n// limitations under the License.\n\nimport \"./GenesisUtBase.sol\";\nimport \"../consensus/CoconsensusModule.sol\";\nimport \"../proxies/MasterCopyNonUpgradable.sol\";\nimport \"../utility-token/ERC20Token.sol\";\n\n/**\n * @title UtBase is an ERC20 token wrapper for the base coin that is used to\n *        pay for gas consumption on the auxiliary chain.\n */\ncontract UtBase is MasterCopyNonUpgradable, GenesisUtBase, ERC20Token, CoconsensusModule {\n\n    /* Constants */\n\n    /** Token Symbol */\n    string public constant TOKEN_SYMBOL = \"UB\";\n\n    /** Token Name */\n    string public constant TOKEN_NAME = \"UtBase\";\n\n    /** Token Decimal */\n    uint8 public constant TOKEN_DECIMALS = 18;\n\n\n    /* Storage */\n\n    /** Consensus cogateway address defined in genesis. */\n    address private consensusCogateway = address(0x0000000000000000000000000000000000004d02);\n\n\n    /* Modifiers */\n\n    modifier onlyConsensusCogateway()\n    {\n        require(\n            msg.sender == getConsensusCogateway(),\n            \"Only the consensus cogateway contract can call this function.\"\n        );\n        _;\n    }\n\n\n    /* External Functions */\n\n    /**\n     * @notice Initializes the UtBase contract.\n     *\n     * \\pre Can be called only once by consensus cogateway contract\n     *\n     * \\post Sets the `tokenSymbol` storage variable with `TOKEN_SYMBOL`\n     *       constant value.\n     * \\post Sets the `tokenName` storage variable with `TOKEN_NAME`\n     *       constant value.\n     * \\post Sets the `tokenDecimals` storage variable with `TOKEN_DECIMALS`\n     *       constant value.\n     * \\post Sets the `totalTokenSupply` storage variable to genesis total\n     *       supply value.\n     * \\post Adds the balance for the (self) contract address with genesis\n     *       total supply value.     */\n    function setup()\n        external\n        onlyCoconsensus\n    {\n        require(\n            totalTokenSupply == uint256(0),\n            \"Utbase contract is already initialized.\"\n        );\n\n        tokenSymbol = TOKEN_SYMBOL;\n        tokenName = TOKEN_NAME;\n        tokenDecimals = TOKEN_DECIMALS;\n        totalTokenSupply = genesisTotalSupply;\n\n        /*\n         * In the genesis block, validators gets base token equivalent to the\n         * amount they deposited before joining the core. Equivalent\n         * amount of ERC20 token should be minted and UtBase contract should\n         * hold that balance. Similar flow will happen in normal mint process\n         * where UtBase contract ERC20 balance will be incremented. So in the\n         * setup, UtBase contract holds the ERC20 token balance equal to the\n         * genesisTotalSupply.\n         */\n        balances[address(this)] = genesisTotalSupply;\n    }\n\n    /**\n     * @notice Mints the ERC20 token for the beneficiary address and\n     *         unwraps its to base coin.\n     *\n     * @param _beneficiary Beneficairy address which will receive base coin.\n     * @param _amount Amount of UtBase tokens to be minted.\n     *\n     * \\pre Caller must be Consensus cogateway contract.\n     *\n     * \\post Increases total token supply by `_amount `.\n     * \\post Increase ERC20 UtBase token balance of the beneficiary\n     *       by `_amount`.\n     * \\post It satisfies all post conditions of UtBase::unwrapInternal().\n     *\n     *\n     */\n    function mint(\n        address payable _beneficiary,\n        uint256 _amount\n    )\n        external\n        onlyConsensusCogateway\n    {\n        _mint(_beneficiary, _amount);\n        unwrapInternal(_beneficiary, _amount);\n    }\n\n    /**\n     * @notice Unwrap converts ERC20 UtBase to base coin.\n     *\n     * @dev This contract's base coin balance must always be greater than\n     *       amount.\n     *\n     * @param _amount Amount of ERC20 UtBase token to convert to base coin.\n     *\n     * \\pre Satisfies all conditions of UtBase::unwrapInternal.\n     *\n     * \\post Satisfies all conditions of UtBase::unwrapInternal.\n     *\n     */\n    function unwrap(\n        uint256 _amount\n    )\n        external\n    {\n        unwrapInternal(msg.sender, _amount);\n    }\n\n    /**\n     * @notice Wrap converts base coin to ERC20 UtBase.\n     *\n     * @dev The ERC20 OST balance of contract should always be greater than the\n     *      received payable amount.\n     *\n     * \\pre msg.value should be non-zero.\n     * \\pre UtBase ERC20 token balance must be greater than\n     *      amount to be wrapped.\n     *\n     * \\post Increases ERC20 UtBase token balance of the caller by `msg.value`\n     *        amount.\n     * \\post Decreases ERC20 UtBase token balance of the UtBase contract by\n     *       `msg.value` amount.\n     */\n    function wrap()\n        external\n        payable\n    {\n        uint256 amount = msg.value;\n        address account = msg.sender;\n\n        require(\n            amount > 0,\n            \"Payable amount should not be zero.\"\n        );\n\n        assert(balances[address(this)] >= amount);\n\n        transferBalance(address(this), account, amount);\n    }\n\n    /**\n     * @notice It allows to burn UtBase tokens for an account.\n     *\n     * @param _value The amount that will be burnt.\n     *\n     * \\pre msg.value should be non-zero.\n     * \\pre Caller must have atleast `_value` amount of ERC20 UtBase tokens.\n     *\n     * \\post Decreases total token supply of the token by `_value` amount.\n     * \\post Decreases caller's ERC20 UtBase token balance by `_value` amount.\n     *\n     */\n    function burn(uint256 _value)\n        external\n    {\n        _burn(msg.sender, _value);\n    }\n\n    /**\n     * @notice It allows to burn tokens of the spender.\n     *\n     * @param _account The account whose tokens will be burnt.\n     * @param _value The amount that will be burnt.\n     *\n     * \\pre `_account` must approve `_value` amount to the caller\n     *\n     * \\post Decreases total token supply of the token by `_value` amount.\n     * \\post Decreases `_account` ERC20 UtBase token balance by\n     *       `_value` amount.\n     */\n    function burnFrom(address _account, uint256 _value)\n        external\n    {\n        _burnFrom(_account, _value);\n    }\n\n\n    /* Public Functions */\n\n    /**\n     * @notice Gets the consensus cogateway contract address.\n     *\n     * @return Consensus cogateway contract address.\n     */\n    function getConsensusCogateway() public view returns(address) {\n        return consensusCogateway;\n    }\n\n    /**\n     * @notice Gets total token supply.\n     *\n     * @return Token token supply.\n     */\n    function getTotalTokenSupply() public view returns(uint256) {\n        return totalTokenSupply;\n    }\n\n\n    /* Internal Functions */\n\n    /**\n     * @notice Internal method to transfer the base coin equivalent amount to\n     *         beneficiary address.\n     *\n     * @param _beneficiary Beneficairy address which will receive base coin.\n     * @param _amount Amount of ERC20 UtBase tokens to be unwrapped.\n     *\n     * \\pre `amount` must be less than or equal to beneficiary token balance.\n     * \\pre UtBase contract base token balance must be greater than or\n     *      equal to `amount`.\n     *\n     * \\post UtBase contract receives `_amount` number of ERC20 UtBase tokens.\n     * \\post `_beneficiary` address receives `_amount` number of base coins.\n     *\n     */\n    function unwrapInternal(\n        address payable _beneficiary,\n        uint256 _amount\n    )\n        internal\n    {\n        require(\n            _amount <= balances[_beneficiary],\n            \"Insufficient balance.\"\n        );\n\n        assert(address(this).balance >= _amount);\n\n        transferBalance(_beneficiary, address(this), _amount);\n\n        _beneficiary.transfer(_amount);\n    }\n}\n",
  "sourcePath": "/Users/abhay/Documents/projects/abhayforks/mosaic-1/contracts/most/UtBase.sol",
  "compiler": {
    "name": "solc",
    "version": "0.5.13+commit.5b0b510c.Emscripten.clang"
  },
  "schemaVersion": "3.0.17",
  "updatedAt": "2020-03-21T06:48:34.741Z",
  "devdoc": {
    "methods": {
      "allowance(address,address)": {
        "params": {
          "_owner": "Address of the owner account.",
          "_spender": "Address of the spender account."
        },
        "return": "allowance_ Remaining allowance for the spender to spend from                   owner's account."
      },
      "approve(address,uint256)": {
        "details": "Allows _spender address to withdraw from function caller's account,     multiple times up to the _value amount, if this function is called     again it overwrites the current allowance with _value.",
        "params": {
          "_spender": "Address authorized to spend from the function caller's                 address.",
          "_value": "Amount up to which spender is authorized to spend."
        },
        "return": "bool `true` for a successful approval, `false` otherwise."
      },
      "balanceOf(address)": {
        "params": {
          "_owner": "Address of the owner account."
        },
        "return": "balance_ Account balance of the owner account."
      },
      "burn(uint256)": {
        "params": {
          "_value": "The amount that will be burnt.     * \\pre msg.value should be non-zero. \\pre Caller must have atleast `_value` amount of ERC20 UtBase tokens.     * \\post Decreases total token supply of the token by `_value` amount. \\post Decreases caller's ERC20 UtBase token balance by `_value` amount.     "
        }
      },
      "burnFrom(address,uint256)": {
        "params": {
          "_account": "The account whose tokens will be burnt.",
          "_value": "The amount that will be burnt.     * \\pre `_account` must approve `_value` amount to the caller     * \\post Decreases total token supply of the token by `_value` amount. \\post Decreases `_account` ERC20 UtBase token balance by      `_value` amount."
        }
      },
      "decimals()": {
        "return": "tokenDecimals Decimals of the token."
      },
      "getCoconsensus()": {
        "return": "Coconsensus contract address."
      },
      "getConsensusCogateway()": {
        "return": "Consensus cogateway contract address."
      },
      "getTotalTokenSupply()": {
        "return": "Token token supply."
      },
      "mint(address,uint256)": {
        "params": {
          "_amount": "Amount of UtBase tokens to be minted.     * \\pre Caller must be Consensus cogateway contract.     * \\post Increases total token supply by `_amount `. \\post Increase ERC20 UtBase token balance of the beneficiary      by `_amount`. \\post It satisfies all post conditions of UtBase::unwrapInternal().     *",
          "_beneficiary": "Beneficairy address which will receive base coin."
        }
      },
      "name()": {
        "return": "tokenName_ Name of the token."
      },
      "symbol()": {
        "return": "tokenSymbol_ Symbol of the token."
      },
      "totalSupply()": {
        "details": "Get totalTokenSupply as view so that child cannot edit.",
        "return": "totalTokenSupply_ Total token supply."
      },
      "transfer(address,uint256)": {
        "details": "Fires the transfer event, reverts if _from account does not have     enough tokens to transfer.",
        "params": {
          "_to": "Address to which tokens are transferred.",
          "_value": "Amount of tokens to be transferred."
        },
        "return": "success_ `true` for a successful transfer, `false` otherwise."
      },
      "transferFrom(address,address,uint256)": {
        "details": "Allows a contract to transfer tokens on behalf of _from address     to _to address, the function caller has to be pre-authorized for     multiple transfers up to the total of _value amount by the _from     address.",
        "params": {
          "_from": "Address from which tokens are transferred.",
          "_to": "Address to which tokens are transferred.",
          "_value": "Amount of tokens transferred."
        },
        "return": "success_ `true` for a successful transfer, `false` otherwise."
      },
      "unwrap(uint256)": {
        "details": "This contract's base coin balance must always be greater than      amount.",
        "params": {
          "_amount": "Amount of ERC20 UtBase token to convert to base coin.     * \\pre Satisfies all conditions of UtBase::unwrapInternal.     * \\post Satisfies all conditions of UtBase::unwrapInternal.     "
        }
      },
      "wrap()": {
        "details": "The ERC20 OST balance of contract should always be greater than the     received payable amount.     * \\pre msg.value should be non-zero. \\pre UtBase ERC20 token balance must be greater than     amount to be wrapped.     * \\post Increases ERC20 UtBase token balance of the caller by `msg.value`       amount. \\post Decreases ERC20 UtBase token balance of the UtBase contract by      `msg.value` amount."
      }
    },
    "title": "UtBase is an ERC20 token wrapper for the base coin that is used to       pay for gas consumption on the auxiliary chain."
  },
  "userdoc": {
    "methods": {
      "allowance(address,address)": {
        "notice": "Public function to get the allowance."
      },
      "approve(address,uint256)": {
        "notice": "Public function to approve an account for transfer."
      },
      "balanceOf(address)": {
        "notice": "Get the balance of an account."
      },
      "burn(uint256)": {
        "notice": "It allows to burn UtBase tokens for an account."
      },
      "burnFrom(address,uint256)": {
        "notice": "It allows to burn tokens of the spender."
      },
      "decimals()": {
        "notice": "Public function to get the decimals of the token."
      },
      "getCoconsensus()": {
        "notice": "Gets the coconsensus contract address."
      },
      "getConsensusCogateway()": {
        "notice": "Gets the consensus cogateway contract address."
      },
      "getTotalTokenSupply()": {
        "notice": "Gets total token supply."
      },
      "mint(address,uint256)": {
        "notice": "Mints the ERC20 token for the beneficiary address and        unwraps its to base coin."
      },
      "name()": {
        "notice": "Public function to get the name of the token."
      },
      "setup()": {
        "notice": "Initializes the UtBase contract.     * \\pre Can be called only once by consensus cogateway contract     * \\post Sets the `tokenSymbol` storage variable with `TOKEN_SYMBOL`      constant value. \\post Sets the `tokenName` storage variable with `TOKEN_NAME`      constant value. \\post Sets the `tokenDecimals` storage variable with `TOKEN_DECIMALS`      constant value. \\post Sets the `totalTokenSupply` storage variable to genesis total      supply value. \\post Adds the balance for the (self) contract address with genesis      total supply value.     "
      },
      "symbol()": {
        "notice": "Public function to get the symbol of the token."
      },
      "totalSupply()": {
        "notice": "Public function to get the total supply of the tokens."
      },
      "transfer(address,uint256)": {
        "notice": "Public function to transfer the token."
      },
      "transferFrom(address,address,uint256)": {
        "notice": "Public function transferFrom."
      },
      "unwrap(uint256)": {
        "notice": "Unwrap converts ERC20 UtBase to base coin."
      },
      "wrap()": {
        "notice": "Wrap converts base coin to ERC20 UtBase."
      }
    }
  }
}