{
  "contractName": "UtilityToken",
  "abi": [
    {
      "anonymous": false,
      "inputs": [
        {
          "indexed": true,
          "internalType": "address",
          "name": "_owner",
          "type": "address"
        },
        {
          "indexed": true,
          "internalType": "address",
          "name": "_spender",
          "type": "address"
        },
        {
          "indexed": false,
          "internalType": "uint256",
          "name": "_value",
          "type": "uint256"
        }
      ],
      "name": "Approval",
      "type": "event"
    },
    {
      "anonymous": false,
      "inputs": [
        {
          "indexed": true,
          "internalType": "address",
          "name": "_from",
          "type": "address"
        },
        {
          "indexed": true,
          "internalType": "address",
          "name": "_to",
          "type": "address"
        },
        {
          "indexed": false,
          "internalType": "uint256",
          "name": "_value",
          "type": "uint256"
        }
      ],
      "name": "Transfer",
      "type": "event"
    },
    {
      "constant": true,
      "inputs": [
        {
          "internalType": "address",
          "name": "_owner",
          "type": "address"
        },
        {
          "internalType": "address",
          "name": "_spender",
          "type": "address"
        }
      ],
      "name": "allowance",
      "outputs": [
        {
          "internalType": "uint256",
          "name": "allowance_",
          "type": "uint256"
        }
      ],
      "payable": false,
      "stateMutability": "view",
      "type": "function"
    },
    {
      "constant": false,
      "inputs": [
        {
          "internalType": "address",
          "name": "_spender",
          "type": "address"
        },
        {
          "internalType": "uint256",
          "name": "_value",
          "type": "uint256"
        }
      ],
      "name": "approve",
      "outputs": [
        {
          "internalType": "bool",
          "name": "success_",
          "type": "bool"
        }
      ],
      "payable": false,
      "stateMutability": "nonpayable",
      "type": "function"
    },
    {
      "constant": true,
      "inputs": [
        {
          "internalType": "address",
          "name": "_owner",
          "type": "address"
        }
      ],
      "name": "balanceOf",
      "outputs": [
        {
          "internalType": "uint256",
          "name": "balance_",
          "type": "uint256"
        }
      ],
      "payable": false,
      "stateMutability": "view",
      "type": "function"
    },
    {
      "constant": true,
      "inputs": [],
      "name": "cogateway",
      "outputs": [
        {
          "internalType": "address",
          "name": "",
          "type": "address"
        }
      ],
      "payable": false,
      "stateMutability": "view",
      "type": "function"
    },
    {
      "constant": true,
      "inputs": [],
      "name": "decimals",
      "outputs": [
        {
          "internalType": "uint8",
          "name": "tokenDecimals_",
          "type": "uint8"
        }
      ],
      "payable": false,
      "stateMutability": "view",
      "type": "function"
    },
    {
      "constant": true,
      "inputs": [],
      "name": "name",
      "outputs": [
        {
          "internalType": "string",
          "name": "tokenName_",
          "type": "string"
        }
      ],
      "payable": false,
      "stateMutability": "view",
      "type": "function"
    },
    {
      "constant": true,
      "inputs": [],
      "name": "symbol",
      "outputs": [
        {
          "internalType": "string",
          "name": "tokenSymbol_",
          "type": "string"
        }
      ],
      "payable": false,
      "stateMutability": "view",
      "type": "function"
    },
    {
      "constant": true,
      "inputs": [],
      "name": "totalSupply",
      "outputs": [
        {
          "internalType": "uint256",
          "name": "totalTokenSupply_",
          "type": "uint256"
        }
      ],
      "payable": false,
      "stateMutability": "view",
      "type": "function"
    },
    {
      "constant": false,
      "inputs": [
        {
          "internalType": "address",
          "name": "_to",
          "type": "address"
        },
        {
          "internalType": "uint256",
          "name": "_value",
          "type": "uint256"
        }
      ],
      "name": "transfer",
      "outputs": [
        {
          "internalType": "bool",
          "name": "success_",
          "type": "bool"
        }
      ],
      "payable": false,
      "stateMutability": "nonpayable",
      "type": "function"
    },
    {
      "constant": false,
      "inputs": [
        {
          "internalType": "address",
          "name": "_from",
          "type": "address"
        },
        {
          "internalType": "address",
          "name": "_to",
          "type": "address"
        },
        {
          "internalType": "uint256",
          "name": "_value",
          "type": "uint256"
        }
      ],
      "name": "transferFrom",
      "outputs": [
        {
          "internalType": "bool",
          "name": "success_",
          "type": "bool"
        }
      ],
      "payable": false,
      "stateMutability": "nonpayable",
      "type": "function"
    },
    {
      "constant": true,
      "inputs": [],
      "name": "valueToken",
      "outputs": [
        {
          "internalType": "address",
          "name": "",
          "type": "address"
        }
      ],
      "payable": false,
      "stateMutability": "view",
      "type": "function"
    },
    {
      "constant": false,
      "inputs": [
        {
          "internalType": "string",
          "name": "_symbol",
          "type": "string"
        },
        {
          "internalType": "string",
          "name": "_name",
          "type": "string"
        },
        {
          "internalType": "uint8",
          "name": "_decimals",
          "type": "uint8"
        },
        {
          "internalType": "uint256",
          "name": "_totalTokenSupply",
          "type": "uint256"
        },
        {
          "internalType": "address",
          "name": "_cogateway",
          "type": "address"
        },
        {
          "internalType": "address",
          "name": "_valueToken",
          "type": "address"
        }
      ],
      "name": "setup",
      "outputs": [],
      "payable": false,
      "stateMutability": "nonpayable",
      "type": "function"
    },
    {
      "constant": false,
      "inputs": [
        {
          "internalType": "address",
          "name": "_account",
          "type": "address"
        },
        {
          "internalType": "uint256",
          "name": "_value",
          "type": "uint256"
        }
      ],
      "name": "mint",
      "outputs": [],
      "payable": false,
      "stateMutability": "nonpayable",
      "type": "function"
    },
    {
      "constant": false,
      "inputs": [
        {
          "internalType": "uint256",
          "name": "_value",
          "type": "uint256"
        }
      ],
      "name": "burn",
      "outputs": [],
      "payable": false,
      "stateMutability": "nonpayable",
      "type": "function"
    },
    {
      "constant": false,
      "inputs": [
        {
          "internalType": "address",
          "name": "_account",
          "type": "address"
        },
        {
          "internalType": "uint256",
          "name": "_value",
          "type": "uint256"
        }
      ],
      "name": "burnFrom",
      "outputs": [],
      "payable": false,
      "stateMutability": "nonpayable",
      "type": "function"
    }
  ],
  "bytecode": "0x608060405234801561001057600080fd5b50610d19806100206000396000f3fe608060405234801561001057600080fd5b50600436106100f55760003560e01c806342966c6811610097578063a9059cbb11610066578063a9059cbb146102ee578063bdc3d19e1461031a578063dd62ed3e146103fc578063effff82f1461042a576100f5565b806342966c681461027757806370a082311461029457806379cc6790146102ba57806395d89b41146102e6576100f5565b806323b872dd116100d357806323b872dd146101d15780632992a3d514610207578063313ce5671461022b57806340c10f1914610249576100f5565b806306fdde03146100fa578063095ea7b31461017757806318160ddd146101b7575b600080fd5b610102610432565b6040805160208082528351818301528351919283929083019185019080838360005b8381101561013c578181015183820152602001610124565b50505050905090810190601f1680156101695780820380516001836020036101000a031916815260200191505b509250505060405180910390f35b6101a36004803603604081101561018d57600080fd5b506001600160a01b0381351690602001356104c7565b604080519115158252519081900360200190f35b6101bf61052d565b60408051918252519081900360200190f35b6101a3600480360360608110156101e757600080fd5b506001600160a01b03813581169160208101359091169060400135610533565b61020f61059e565b604080516001600160a01b039092168252519081900360200190f35b6102336105ad565b6040805160ff9092168252519081900360200190f35b6102756004803603604081101561025f57600080fd5b506001600160a01b0381351690602001356105b6565b005b6102756004803603602081101561028d57600080fd5b503561060d565b6101bf600480360360208110156102aa57600080fd5b50356001600160a01b031661061a565b610275600480360360408110156102d057600080fd5b506001600160a01b038135169060200135610635565b61010261063f565b6101a36004803603604081101561030457600080fd5b506001600160a01b03813516906020013561069d565b610275600480360360c081101561033057600080fd5b81019060208101813564010000000081111561034b57600080fd5b82018360208201111561035d57600080fd5b8035906020019184600183028401116401000000008311171561037f57600080fd5b91939092909160208101903564010000000081111561039d57600080fd5b8201836020820111156103af57600080fd5b803590602001918460018302840111640100000000831117156103d157600080fd5b919350915060ff813516906020810135906001600160a01b03604082013581169160600135166106b1565b6101bf6004803603604081101561041257600080fd5b506001600160a01b0381358116916020013516610801565b61020f61082c565b60018054604080516020601f600260001961010087891615020190951694909404938401819004810282018101909252828152606093909290918301828280156104bd5780601f10610492576101008083540402835291602001916104bd565b820191906000526020600020905b8154815290600101906020018083116104a057829003601f168201915b5050505050905090565b3360008181526006602090815260408083206001600160a01b038716808552908352818420869055815186815291519394909390927f8c5be1e5ebec7d5bd14f71427d1e84f3dd0314c0f7b2291e5b200ac8c7c3b925928290030190a350600192915050565b60045490565b6001600160a01b0383166000908152600660209081526040808320338452909152812054610567908363ffffffff61083b16565b6001600160a01b0385166000908152600660209081526040808320338452909152902055610596848484610850565b949350505050565b6007546001600160a01b031681565b60035460ff1690565b6007546001600160a01b031633146105ff5760405162461bcd60e51b815260040180806020018281038252602e815260200180610c4c602e913960400191505060405180910390fd5b610609828261090f565b5050565b6106173382610a01565b50565b6001600160a01b031660009081526005602052604090205490565b6106098282610adc565b60028054604080516020601f60001961010060018716150201909416859004938401819004810282018101909252828152606093909290918301828280156104bd5780601f10610492576101008083540402835291602001916104bd565b60006106aa338484610850565b9392505050565b6007546001600160a01b03161561070f576040805162461bcd60e51b815260206004820181905260248201527f436f6e747261637420686173206265656e20616c72656164792073657475702e604482015290519081900360640190fd5b6001600160a01b0382166107545760405162461bcd60e51b8152600401808060200182810382526025815260200180610c7a6025913960400191505060405180910390fd5b6001600160a01b0381166107995760405162461bcd60e51b8152600401808060200182810382526025815260200180610c9f6025913960400191505060405180910390fd5b6107a560028989610bb0565b506107b260018787610bb0565b506003805460ff191660ff9590951694909417909355600491909155600780546001600160a01b03199081166001600160a01b0393841617909155600880549091169190921617905550505050565b6001600160a01b03918216600090815260066020908152604080832093909416825291909152205490565b6008546001600160a01b031681565b60008282111561084a57600080fd5b50900390565b6001600160a01b038316600090815260056020526040812054610879908363ffffffff61083b16565b6001600160a01b0380861660009081526005602052604080822093909355908516815220546108ae908363ffffffff610b9e16565b6001600160a01b0380851660008181526005602090815260409182902094909455805186815290519193928816927fddf252ad1be2c89b69c2b068fc378daa952ba7f163c4a11628f55a4df523b3ef92918290030190a35060019392505050565b6001600160a01b03821661096a576040805162461bcd60e51b815260206004820152601f60248201527f45524332303a206d696e7420746f20746865207a65726f206164647265737300604482015290519081900360640190fd5b60045461097d908263ffffffff610b9e16565b6004556001600160a01b0382166000908152600560205260409020546109a9908263ffffffff610b9e16565b6001600160a01b03831660008181526005602090815260408083209490945583518581529351929391927fddf252ad1be2c89b69c2b068fc378daa952ba7f163c4a11628f55a4df523b3ef9281900390910190a35050565b6001600160a01b038216610a465760405162461bcd60e51b8152600401808060200182810382526021815260200180610cc46021913960400191505060405180910390fd5b600454610a59908263ffffffff61083b16565b6004556001600160a01b038216600090815260056020526040902054610a85908263ffffffff61083b16565b6001600160a01b0383166000818152600560209081526040808320949094558351858152935191937fddf252ad1be2c89b69c2b068fc378daa952ba7f163c4a11628f55a4df523b3ef929081900390910190a35050565b6001600160a01b0382166000908152600660209081526040808320338452909152902054610b10908263ffffffff61083b16565b6001600160a01b0383166000908152600660209081526040808320338452909152902055610b3e8282610a01565b6001600160a01b0382166000818152600660209081526040808320338085529083529281902054815190815290519293927f8c5be1e5ebec7d5bd14f71427d1e84f3dd0314c0f7b2291e5b200ac8c7c3b925929181900390910190a35050565b6000828201838110156106aa57600080fd5b828054600181600116156101000203166002900490600052602060002090601f016020900481019282601f10610bf15782800160ff19823516178555610c1e565b82800160010185558215610c1e579182015b82811115610c1e578235825591602001919060010190610c03565b50610c2a929150610c2e565b5090565b610c4891905b80821115610c2a5760008155600101610c34565b9056fe4f6e6c7920636f6761746577617920636f6e74726163742063616e2063616c6c207468652066756e6374696f6e2e436f6761746577617920616464726573732073686f756c64206e6f74206265207a65726f2e56616c756520746f6b656e2061646472657373206d757374206e6f74206265207a65726f2e45524332303a206275726e2066726f6d20746865207a65726f2061646472657373a265627a7a7231582097825c441905fa1afc62a28760bfe6f8d46bfde42256d4591e6ae168c0bbfa3f64736f6c634300050d0032",
  "source": "pragma solidity >=0.5.0 <0.6.0;\n\n// Copyright 2020 OpenST Ltd.\n//\n// Licensed under the Apache License, Version 2.0 (the \"License\");\n// you may not use this file except in compliance with the License.\n// You may obtain a copy of the License at\n//\n//    http://www.apache.org/licenses/LICENSE-2.0\n//\n// Unless required by applicable law or agreed to in writing, software\n// distributed under the License is distributed on an \"AS IS\" BASIS,\n// WITHOUT WARRANTIES OR CONDITIONS OF ANY KIND, either express or implied.\n// See the License for the specific language governing permissions and\n// limitations under the License.\n\nimport \"./ERC20Token.sol\";\nimport \"../proxies/MasterCopyNonUpgradable.sol\";\n\n/**\n *  @title UtilityToken is an ERC20Token.\n *\n *  @notice This contract extends the functionalities of the ERC20Token.\n *\n */\ncontract UtilityToken is MasterCopyNonUpgradable, ERC20Token {\n\n    /* Storage */\n\n    /** Address of cogateway contract. */\n    address public cogateway;\n\n    /** Address of value token contract. */\n    address public valueToken;\n\n\n    /* Modifiers */\n\n    /** Checks that only cogateway contract can call a particular function. */\n    modifier onlyCogateway() {\n        require(\n            msg.sender == address(cogateway),\n            \"Only cogateway contract can call the function.\"\n        );\n\n        _;\n    }\n\n\n    /* External Functions */\n\n    /**\n     * @notice Sets up the symbol, name, decimals, totalSupply, value token\n     *         and the cogateway address.\n     *\n     * @param _symbol Symbol of token.\n     * @param _name Name of token.\n     * @param _decimals Decimal of token.\n     * @param _totalTokenSupply Total token supply.\n     * @param _cogateway Cogateway contract address.\n     * @param _valueToken Address of value token contract.\n     *\n     * \\pre Setup function can be called only once.\n     * \\pre `_cogateway` address is not zero.\n     * \\pre `_valueToken` address is not zero.\n     *\n     * \\post Sets `tokenSymbol` storage variable with `_symbol`.\n     * \\post Sets `tokenName` storage variable with `_name`.\n     * \\post Sets `tokenDecimals` storage variable with `_decimal`.\n     * \\post Sets the `totalTokenSupply` storage variable with\n     *       `_totalTokenSupply`.\n     * \\post Sets the `cogateway` storage variable with\n     *       `_cogateway`.\n     * \\post Sets the `valueToken` storage variable with `_valueToken`.\n     */\n    function setup(\n        string calldata _symbol,\n        string calldata _name,\n        uint8 _decimals,\n        uint256 _totalTokenSupply,\n        address _cogateway,\n        address _valueToken\n    )\n        external\n    {\n        require(\n            cogateway == address(0),\n            \"Contract has been already setup.\"\n        );\n\n        require(\n            _cogateway != address(0),\n            \"Cogateway address should not be zero.\"\n        );\n\n        require(\n            _valueToken != address(0),\n            \"Value token address must not be zero.\"\n        );\n\n        tokenSymbol = _symbol;\n        tokenName = _name;\n        tokenDecimals = _decimals;\n        totalTokenSupply = _totalTokenSupply;\n        cogateway = _cogateway;\n        valueToken = _valueToken;\n    }\n\n    /**\n     * @notice External function to mint tokens.\n     *\n     * @dev Mints an amount of the token and assigns it to an account.\n     *      This encapsulates the modification of balances such that the\n     *      proper events are emitted.\n     * @param _account The account that will receive the created tokens.\n     * @param _value The amount that will be created.\n     */\n    function mint(address _account, uint256 _value)\n        external\n        onlyCogateway()\n    {\n        _mint(_account, _value);\n    }\n\n    /**\n     * @notice External function to burn tokens.\n     *\n     * @dev Burns an amount of utility token from caller of the method.\n     *\n     * @param _value The amount that will be burnt.\n     */\n    function burn(uint256 _value)\n        external\n    {\n        _burn(msg.sender, _value);\n    }\n\n    /**\n     * @notice External function to burn tokens of spender.\n     *\n     * @dev Burns an amount of the token of a given\n     *      account, deducting from the sender's allowance for said\n     *      account. Uses the internal _burnFrom function.\n     * @param _account The account whose tokens will be burnt.\n     * @param _value The amount that will be burnt.\n     */\n    function burnFrom(address _account, uint256 _value)\n        external\n    {\n        _burnFrom(_account, _value);\n    }\n}\n",
  "sourcePath": "/Users/abhay/Documents/projects/abhayforks/mosaic-1/contracts/utility-token/UtilityToken.sol",
  "compiler": {
    "name": "solc",
    "version": "0.5.13+commit.5b0b510c.Emscripten.clang"
  },
  "schemaVersion": "3.0.17",
  "updatedAt": "2020-03-21T06:48:34.836Z",
  "devdoc": {
    "methods": {
      "allowance(address,address)": {
        "params": {
          "_owner": "Address of the owner account.",
          "_spender": "Address of the spender account."
        },
        "return": "allowance_ Remaining allowance for the spender to spend from                   owner's account."
      },
      "approve(address,uint256)": {
        "details": "Allows _spender address to withdraw from function caller's account,     multiple times up to the _value amount, if this function is called     again it overwrites the current allowance with _value.",
        "params": {
          "_spender": "Address authorized to spend from the function caller's                 address.",
          "_value": "Amount up to which spender is authorized to spend."
        },
        "return": "bool `true` for a successful approval, `false` otherwise."
      },
      "balanceOf(address)": {
        "params": {
          "_owner": "Address of the owner account."
        },
        "return": "balance_ Account balance of the owner account."
      },
      "burn(uint256)": {
        "details": "Burns an amount of utility token from caller of the method.",
        "params": {
          "_value": "The amount that will be burnt."
        }
      },
      "burnFrom(address,uint256)": {
        "details": "Burns an amount of the token of a given     account, deducting from the sender's allowance for said     account. Uses the internal _burnFrom function.",
        "params": {
          "_account": "The account whose tokens will be burnt.",
          "_value": "The amount that will be burnt."
        }
      },
      "decimals()": {
        "return": "tokenDecimals Decimals of the token."
      },
      "mint(address,uint256)": {
        "details": "Mints an amount of the token and assigns it to an account.     This encapsulates the modification of balances such that the     proper events are emitted.",
        "params": {
          "_account": "The account that will receive the created tokens.",
          "_value": "The amount that will be created."
        }
      },
      "name()": {
        "return": "tokenName_ Name of the token."
      },
      "setup(string,string,uint8,uint256,address,address)": {
        "params": {
          "_cogateway": "Cogateway contract address.",
          "_decimals": "Decimal of token.",
          "_name": "Name of token.",
          "_symbol": "Symbol of token.",
          "_totalTokenSupply": "Total token supply.",
          "_valueToken": "Address of value token contract.     * \\pre Setup function can be called only once. \\pre `_cogateway` address is not zero. \\pre `_valueToken` address is not zero.     * \\post Sets `tokenSymbol` storage variable with `_symbol`. \\post Sets `tokenName` storage variable with `_name`. \\post Sets `tokenDecimals` storage variable with `_decimal`. \\post Sets the `totalTokenSupply` storage variable with      `_totalTokenSupply`. \\post Sets the `cogateway` storage variable with      `_cogateway`. \\post Sets the `valueToken` storage variable with `_valueToken`."
        }
      },
      "symbol()": {
        "return": "tokenSymbol_ Symbol of the token."
      },
      "totalSupply()": {
        "details": "Get totalTokenSupply as view so that child cannot edit.",
        "return": "totalTokenSupply_ Total token supply."
      },
      "transfer(address,uint256)": {
        "details": "Fires the transfer event, reverts if _from account does not have     enough tokens to transfer.",
        "params": {
          "_to": "Address to which tokens are transferred.",
          "_value": "Amount of tokens to be transferred."
        },
        "return": "success_ `true` for a successful transfer, `false` otherwise."
      },
      "transferFrom(address,address,uint256)": {
        "details": "Allows a contract to transfer tokens on behalf of _from address     to _to address, the function caller has to be pre-authorized for     multiple transfers up to the total of _value amount by the _from     address.",
        "params": {
          "_from": "Address from which tokens are transferred.",
          "_to": "Address to which tokens are transferred.",
          "_value": "Amount of tokens transferred."
        },
        "return": "success_ `true` for a successful transfer, `false` otherwise."
      }
    },
    "title": "UtilityToken is an ERC20Token."
  },
  "userdoc": {
    "methods": {
      "allowance(address,address)": {
        "notice": "Public function to get the allowance."
      },
      "approve(address,uint256)": {
        "notice": "Public function to approve an account for transfer."
      },
      "balanceOf(address)": {
        "notice": "Get the balance of an account."
      },
      "burn(uint256)": {
        "notice": "External function to burn tokens."
      },
      "burnFrom(address,uint256)": {
        "notice": "External function to burn tokens of spender."
      },
      "decimals()": {
        "notice": "Public function to get the decimals of the token."
      },
      "mint(address,uint256)": {
        "notice": "External function to mint tokens."
      },
      "name()": {
        "notice": "Public function to get the name of the token."
      },
      "setup(string,string,uint8,uint256,address,address)": {
        "notice": "Sets up the symbol, name, decimals, totalSupply, value token        and the cogateway address."
      },
      "symbol()": {
        "notice": "Public function to get the symbol of the token."
      },
      "totalSupply()": {
        "notice": "Public function to get the total supply of the tokens."
      },
      "transfer(address,uint256)": {
        "notice": "Public function to transfer the token."
      },
      "transferFrom(address,address,uint256)": {
        "notice": "Public function transferFrom."
      }
    },
    "notice": "This contract extends the functionalities of the ERC20Token. "
  }
}