{
  "contractName": "ValidatorSetDouble",
  "abi": [
    {
      "constant": true,
      "inputs": [],
      "name": "MAX_FUTURE_END_HEIGHT",
      "outputs": [
        {
          "internalType": "uint256",
          "name": "",
          "type": "uint256"
        }
      ],
      "payable": false,
      "stateMutability": "view",
      "type": "function"
    },
    {
      "constant": true,
      "inputs": [],
      "name": "SENTINEL_VALIDATORS",
      "outputs": [
        {
          "internalType": "address",
          "name": "",
          "type": "address"
        }
      ],
      "payable": false,
      "stateMutability": "view",
      "type": "function"
    },
    {
      "constant": true,
      "inputs": [
        {
          "internalType": "uint256",
          "name": "_height",
          "type": "uint256"
        }
      ],
      "name": "forwardValidatorSetCount",
      "outputs": [
        {
          "internalType": "uint256",
          "name": "",
          "type": "uint256"
        }
      ],
      "payable": false,
      "stateMutability": "view",
      "type": "function"
    },
    {
      "constant": true,
      "inputs": [
        {
          "internalType": "address",
          "name": "_validator",
          "type": "address"
        },
        {
          "internalType": "uint256",
          "name": "_height",
          "type": "uint256"
        }
      ],
      "name": "inForwardValidatorSet",
      "outputs": [
        {
          "internalType": "bool",
          "name": "",
          "type": "bool"
        }
      ],
      "payable": false,
      "stateMutability": "view",
      "type": "function"
    },
    {
      "constant": true,
      "inputs": [
        {
          "internalType": "address",
          "name": "_validator",
          "type": "address"
        },
        {
          "internalType": "uint256",
          "name": "_height",
          "type": "uint256"
        }
      ],
      "name": "inValidatorSet",
      "outputs": [
        {
          "internalType": "bool",
          "name": "",
          "type": "bool"
        }
      ],
      "payable": false,
      "stateMutability": "view",
      "type": "function"
    },
    {
      "constant": true,
      "inputs": [
        {
          "internalType": "address",
          "name": "",
          "type": "address"
        }
      ],
      "name": "validatorBeginHeight",
      "outputs": [
        {
          "internalType": "uint256",
          "name": "",
          "type": "uint256"
        }
      ],
      "payable": false,
      "stateMutability": "view",
      "type": "function"
    },
    {
      "constant": true,
      "inputs": [
        {
          "internalType": "address",
          "name": "",
          "type": "address"
        }
      ],
      "name": "validatorEndHeight",
      "outputs": [
        {
          "internalType": "uint256",
          "name": "",
          "type": "uint256"
        }
      ],
      "payable": false,
      "stateMutability": "view",
      "type": "function"
    },
    {
      "constant": true,
      "inputs": [
        {
          "internalType": "uint256",
          "name": "_height",
          "type": "uint256"
        }
      ],
      "name": "validatorSetCount",
      "outputs": [
        {
          "internalType": "uint256",
          "name": "",
          "type": "uint256"
        }
      ],
      "payable": false,
      "stateMutability": "view",
      "type": "function"
    },
    {
      "constant": true,
      "inputs": [
        {
          "internalType": "address",
          "name": "",
          "type": "address"
        }
      ],
      "name": "validators",
      "outputs": [
        {
          "internalType": "address",
          "name": "",
          "type": "address"
        }
      ],
      "payable": false,
      "stateMutability": "view",
      "type": "function"
    },
    {
      "constant": false,
      "inputs": [
        {
          "internalType": "uint256",
          "name": "_activeHeight",
          "type": "uint256"
        }
      ],
      "name": "setupValidatorSetDouble",
      "outputs": [],
      "payable": false,
      "stateMutability": "nonpayable",
      "type": "function"
    },
    {
      "constant": false,
      "inputs": [
        {
          "internalType": "address",
          "name": "_validator",
          "type": "address"
        },
        {
          "internalType": "uint256",
          "name": "_beginHeight",
          "type": "uint256"
        }
      ],
      "name": "insertValidator",
      "outputs": [],
      "payable": false,
      "stateMutability": "nonpayable",
      "type": "function"
    },
    {
      "constant": false,
      "inputs": [
        {
          "internalType": "address",
          "name": "_validator",
          "type": "address"
        },
        {
          "internalType": "uint256",
          "name": "_endHeight",
          "type": "uint256"
        }
      ],
      "name": "removeValidator",
      "outputs": [],
      "payable": false,
      "stateMutability": "nonpayable",
      "type": "function"
    },
    {
      "constant": false,
      "inputs": [
        {
          "internalType": "uint256",
          "name": "_nextHeight",
          "type": "uint256"
        }
      ],
      "name": "incrementActiveHeight",
      "outputs": [],
      "payable": false,
      "stateMutability": "nonpayable",
      "type": "function"
    }
  ],
  "bytecode": "0x608060405234801561001057600080fd5b506109b0806100206000396000f3fe608060405234801561001057600080fd5b50600436106100cf5760003560e01c8063b6735be41161008c578063dfa8b87e11610066578063dfa8b87e1461023e578063e4eaf14e14610264578063f173034a1461026c578063fa52c7d814610298576100cf565b8063b6735be4146101bb578063d1a976da146101e1578063dcf1c34a14610221576100cf565b8063088845b9146100d45780630f8a9af5146100f3578063149fbab9146101105780634adba1ce146101345780638ed89c1a146101635780639ea735fc1461018f575b600080fd5b6100f1600480360360208110156100ea57600080fd5b50356102be565b005b6100f16004803603602081101561010957600080fd5b50356102ca565b6101186102d3565b604080516001600160a01b039092168252519081900360200190f35b6101516004803603602081101561014a57600080fd5b50356102d8565b60408051918252519081900360200190f35b6100f16004803603604081101561017957600080fd5b506001600160a01b03813516906020013561032d565b6100f1600480360360408110156101a557600080fd5b506001600160a01b03813516906020013561033b565b610151600480360360208110156101d157600080fd5b50356001600160a01b0316610345565b61020d600480360360408110156101f757600080fd5b506001600160a01b038135169060200135610357565b604080519115158252519081900360200190f35b6101516004803603602081101561023757600080fd5b50356103c1565b6101516004803603602081101561025457600080fd5b50356001600160a01b0316610416565b610151610428565b61020d6004803603604081101561028257600080fd5b506001600160a01b03813516906020013561042e565b610118600480360360208110156102ae57600080fd5b50356001600160a01b0316610492565b6102c7816104ad565b50565b6102c7816104ee565b600181565b6000600554821061031a5760405162461bcd60e51b81526004018080602001828103825260408152602001806108ca6040913960400191505060405180910390fd5b5060009081526004602052604090205490565b610337828261055f565b5050565b61033782826106ca565b60016020526000908152604090205481565b6001600160a01b038216600090815260016020526040812054821080159061039757506001600160a01b0383166000908152600260205260409020548211155b80156103ba57506001600160a01b03831660009081526002602052604090205415155b9392505050565b600060055482106104035760405162461bcd60e51b815260040180806020018281038252603881526020018061090a6038913960400191505060405180910390fd5b5060009081526003602052604090205490565b60026020526000908152604090205481565b60001981565b6001600160a01b038216600090815260016020526040812054821080159061039757506001600160a01b038316600090815260026020526040902054821080156103ba575050506001600160a01b0316600090815260026020526040902054151590565b6000602081905290815260409020546001600160a01b031681565b600555600160008181526020527fada5013122d395ba3c54772283fb069b10426056ef8ca54750cb9bb552a59e7d80546001600160a01b0319169091179055565b60055461050290600163ffffffff6108a216565b811461050a57fe5b60008181526003602081905260408220549161052d84600163ffffffff6108a216565b815260208082019290925260409081016000908120939093558383526003825280832054600490925290912055600555565b8080600554146105b6576040805162461bcd60e51b815260206004820181905260248201527f486569676874206d75737420657175616c20616374697665206865696768742e604482015290519081900360640190fd5b6001600160a01b038316600090815260026020526040902054600019146105d957fe5b6001600160a01b038316600090815260016020526040902054821161062f5760405162461bcd60e51b815260040180806020018281038252603a815260200180610942603a913960400191505060405180910390fd5b6001600160a01b038316600090815260026020526040812083905560055461065e90600163ffffffff6108a216565b60008181526003602052604090205490915061068190600163ffffffff6108b416565b60008281526003602090815260408083209390935560055482526004905220546106b290600163ffffffff6108b416565b60055460009081526004602052604090205550505050565b808060055414610721576040805162461bcd60e51b815260206004820181905260248201527f486569676874206d75737420657175616c20616374697665206865696768742e604482015290519081900360640190fd5b6001600160a01b03831661073157fe5b6001600160a01b03838116600090815260208190526040902054161561075357fe5b600160009081526020527fada5013122d395ba3c54772283fb069b10426056ef8ca54750cb9bb552a59e7d546001600160a01b03168061078f57fe5b6001600160a01b0380851660008181526020818152604080832080549587166001600160a01b03199687161790557fada5013122d395ba3c54772283fb069b10426056ef8ca54750cb9bb552a59e7d805490951684179094559181526001808352838220879055600283528382206000199055600554825260039092529182205461081f9163ffffffff6108a216565b60058054600090815260036020819052604082208490559154929350839261084e90600163ffffffff6108a216565b8152602001908152602001600020819055506108896001600460006005548152602001908152602001600020546108a290919063ffffffff16565b6005546000908152600460205260409020555050505050565b6000828201838110156103ba57600080fd5b6000828211156108c357600080fd5b5090039056fe466f72776172642076616c696461746f722073657420636f756e74206973206f6e6c7920646566696e656420757020746f20616374697665206865696768742e56616c696461746f722073657420636f756e74206973206f6e6c7920646566696e656420757020746f20616374697665206865696768742e456e6420686569676874206d757374206265207374726963746c792067726561746572207468616e20746865207374617274206865696768742ea265627a7a723158206af736604a14fb2ec4f53d0eed47530348a05db3d2d4457f68860deee032f57864736f6c634300050d0032",
  "source": "pragma solidity >=0.5.0 <0.6.0;\n\n// Copyright 2020 OpenST Ltd.\n//\n// Licensed under the Apache License, Version 2.0 (the \"License\");\n// you may not use this file except in compliance with the License.\n// You may obtain a copy of the License at\n//\n//    http://www.apache.org/licenses/LICENSE-2.0\n//\n// Unless required by applicable law or agreed to in writing, software\n// distributed under the License is distributed on an \"AS IS\" BASIS,\n// WITHOUT WARRANTIES OR CONDITIONS OF ANY KIND, either express or implied.\n// See the License for the specific language governing permissions and\n// limitations under the License.\n\nimport \"../../validator-set/ValidatorSet.sol\";\n\n/**\n * @title ValidatorSetDouble contract.\n *\n * @notice It is used for testing ValidatorSet contract.\n */\ncontract ValidatorSetDouble is ValidatorSet {\n\n    /* External Functions */\n\n    function setupValidatorSetDouble(uint256 _activeHeight)\n        external\n    {\n        ValidatorSet.setupValidatorSet(_activeHeight);\n    }\n\n    /**\n     * \\ref ValidatorSet.insertValidatorInternal(address,uint256).\n     */\n    function insertValidator(address _validator, uint256 _beginHeight) external {\n        ValidatorSet.insertValidatorInternal(_validator, _beginHeight);\n    }\n\n    /**\n     * \\ref ValidatorSet.removeValidatorInternal(address,uint256).\n     */\n    function removeValidator(address _validator, uint256 _endHeight) external {\n        ValidatorSet.removeValidatorInternal(_validator, _endHeight);\n    }\n\n    /**\n     * \\ref ValidatorSet.incrementActiveHeightInternal(uint256).\n     */\n    function incrementActiveHeight(uint256 _nextHeight) external {\n        ValidatorSet.incrementActiveHeightInternal(_nextHeight);\n    }\n}\n",
  "sourcePath": "/Users/abhay/Documents/projects/abhayforks/mosaic-1/contracts/test/validator-set/ValidatorSetDouble.sol",
  "compiler": {
    "name": "solc",
    "version": "0.5.13+commit.5b0b510c.Emscripten.clang"
  },
  "schemaVersion": "3.0.17",
  "updatedAt": "2020-03-21T06:48:34.831Z",
  "devdoc": {
    "methods": {
      "forwardValidatorSetCount(uint256)": {
        "details": "Function requires:         - height is less than active height",
        "params": {
          "_height": "Height for which to return the forward validator set count."
        }
      },
      "inForwardValidatorSet(address,uint256)": {
        "params": {
          "_height": "Metablock height.",
          "_validator": "Address of validator."
        }
      },
      "inValidatorSet(address,uint256)": {
        "params": {
          "_height": "Metablock height.",
          "_validator": "Address of validator."
        }
      },
      "validatorSetCount(uint256)": {
        "details": "Function requires:         - height is less than active height",
        "params": {
          "_height": "Height for which to return the validator set count."
        }
      }
    },
    "title": "ValidatorSetDouble contract."
  },
  "userdoc": {
    "methods": {
      "forwardValidatorSetCount(uint256)": {
        "notice": "returns the forward validator set count for heights up to active height, but not included."
      },
      "inForwardValidatorSet(address,uint256)": {
        "notice": "Checks if validator is in forward validator set or not."
      },
      "inValidatorSet(address,uint256)": {
        "notice": "Checks if validator is in validator set or not."
      },
      "incrementActiveHeight(uint256)": {
        "notice": "\\ref ValidatorSet.incrementActiveHeightInternal(uint256)."
      },
      "insertValidator(address,uint256)": {
        "notice": "\\ref ValidatorSet.insertValidatorInternal(address,uint256)."
      },
      "removeValidator(address,uint256)": {
        "notice": "\\ref ValidatorSet.removeValidatorInternal(address,uint256)."
      },
      "validatorSetCount(uint256)": {
        "notice": "returns the validator set count for heights up to active height, but not included."
      }
    },
    "notice": "It is used for testing ValidatorSet contract."
  }
}