{
  "contractName": "ValidatorSet",
  "abi": [
    {
      "constant": true,
      "inputs": [],
      "name": "MAX_FUTURE_END_HEIGHT",
      "outputs": [
        {
          "internalType": "uint256",
          "name": "",
          "type": "uint256"
        }
      ],
      "payable": false,
      "stateMutability": "view",
      "type": "function"
    },
    {
      "constant": true,
      "inputs": [],
      "name": "SENTINEL_VALIDATORS",
      "outputs": [
        {
          "internalType": "address",
          "name": "",
          "type": "address"
        }
      ],
      "payable": false,
      "stateMutability": "view",
      "type": "function"
    },
    {
      "constant": true,
      "inputs": [
        {
          "internalType": "address",
          "name": "",
          "type": "address"
        }
      ],
      "name": "validatorBeginHeight",
      "outputs": [
        {
          "internalType": "uint256",
          "name": "",
          "type": "uint256"
        }
      ],
      "payable": false,
      "stateMutability": "view",
      "type": "function"
    },
    {
      "constant": true,
      "inputs": [
        {
          "internalType": "address",
          "name": "",
          "type": "address"
        }
      ],
      "name": "validatorEndHeight",
      "outputs": [
        {
          "internalType": "uint256",
          "name": "",
          "type": "uint256"
        }
      ],
      "payable": false,
      "stateMutability": "view",
      "type": "function"
    },
    {
      "constant": true,
      "inputs": [
        {
          "internalType": "address",
          "name": "",
          "type": "address"
        }
      ],
      "name": "validators",
      "outputs": [
        {
          "internalType": "address",
          "name": "",
          "type": "address"
        }
      ],
      "payable": false,
      "stateMutability": "view",
      "type": "function"
    },
    {
      "constant": true,
      "inputs": [
        {
          "internalType": "address",
          "name": "_validator",
          "type": "address"
        },
        {
          "internalType": "uint256",
          "name": "_height",
          "type": "uint256"
        }
      ],
      "name": "inValidatorSet",
      "outputs": [
        {
          "internalType": "bool",
          "name": "",
          "type": "bool"
        }
      ],
      "payable": false,
      "stateMutability": "view",
      "type": "function"
    },
    {
      "constant": true,
      "inputs": [
        {
          "internalType": "address",
          "name": "_validator",
          "type": "address"
        },
        {
          "internalType": "uint256",
          "name": "_height",
          "type": "uint256"
        }
      ],
      "name": "inForwardValidatorSet",
      "outputs": [
        {
          "internalType": "bool",
          "name": "",
          "type": "bool"
        }
      ],
      "payable": false,
      "stateMutability": "view",
      "type": "function"
    },
    {
      "constant": true,
      "inputs": [
        {
          "internalType": "uint256",
          "name": "_height",
          "type": "uint256"
        }
      ],
      "name": "validatorSetCount",
      "outputs": [
        {
          "internalType": "uint256",
          "name": "",
          "type": "uint256"
        }
      ],
      "payable": false,
      "stateMutability": "view",
      "type": "function"
    },
    {
      "constant": true,
      "inputs": [
        {
          "internalType": "uint256",
          "name": "_height",
          "type": "uint256"
        }
      ],
      "name": "forwardValidatorSetCount",
      "outputs": [
        {
          "internalType": "uint256",
          "name": "",
          "type": "uint256"
        }
      ],
      "payable": false,
      "stateMutability": "view",
      "type": "function"
    }
  ],
  "bytecode": "0x608060405234801561001057600080fd5b5061045d806100206000396000f3fe608060405234801561001057600080fd5b50600436106100935760003560e01c8063dcf1c34a11610066578063dcf1c34a14610151578063dfa8b87e1461016e578063e4eaf14e14610194578063f173034a1461019c578063fa52c7d8146101c857610093565b8063149fbab9146100985780634adba1ce146100bc578063b6735be4146100eb578063d1a976da14610111575b600080fd5b6100a06101ee565b604080516001600160a01b039092168252519081900360200190f35b6100d9600480360360208110156100d257600080fd5b50356101f3565b60408051918252519081900360200190f35b6100d96004803603602081101561010157600080fd5b50356001600160a01b0316610248565b61013d6004803603604081101561012757600080fd5b506001600160a01b03813516906020013561025a565b604080519115158252519081900360200190f35b6100d96004803603602081101561016757600080fd5b50356102c4565b6100d96004803603602081101561018457600080fd5b50356001600160a01b0316610319565b6100d961032b565b61013d600480360360408110156101b257600080fd5b506001600160a01b038135169060200135610331565b6100a0600480360360208110156101de57600080fd5b50356001600160a01b0316610395565b600181565b600060055482106102355760405162461bcd60e51b81526004018080602001828103825260408152602001806103b16040913960400191505060405180910390fd5b5060009081526004602052604090205490565b60016020526000908152604090205481565b6001600160a01b038216600090815260016020526040812054821080159061029a57506001600160a01b0383166000908152600260205260409020548211155b80156102bd57506001600160a01b03831660009081526002602052604090205415155b9392505050565b600060055482106103065760405162461bcd60e51b81526004018080602001828103825260388152602001806103f16038913960400191505060405180910390fd5b5060009081526003602052604090205490565b60026020526000908152604090205481565b60001981565b6001600160a01b038216600090815260016020526040812054821080159061029a57506001600160a01b038316600090815260026020526040902054821080156102bd575050506001600160a01b0316600090815260026020526040902054151590565b6000602081905290815260409020546001600160a01b03168156fe466f72776172642076616c696461746f722073657420636f756e74206973206f6e6c7920646566696e656420757020746f20616374697665206865696768742e56616c696461746f722073657420636f756e74206973206f6e6c7920646566696e656420757020746f20616374697665206865696768742ea265627a7a723158204a05e8afbbaa405eed232f4588729ec593a173e53693c004e52f90d23ade417764736f6c634300050d0032",
  "source": "pragma solidity >=0.5.0 <0.6.0;\n\n// Copyright 2020 OpenST Ltd.\n//\n// Licensed under the Apache License, Version 2.0 (the \"License\");\n// you may not use this file except in compliance with the License.\n// You may obtain a copy of the License at\n//\n//    http://www.apache.org/licenses/LICENSE-2.0\n//\n// Unless required by applicable law or agreed to in writing, software\n// distributed under the License is distributed on an \"AS IS\" BASIS,\n// WITHOUT WARRANTIES OR CONDITIONS OF ANY KIND, either express or implied.\n// See the License for the specific language governing permissions and\n// limitations under the License.\n\nimport \"./ValidatorSetAbstract.sol\";\nimport \"openzeppelin-solidity/contracts/math/SafeMath.sol\";\n\n/**\n * @title ValidatorSet contract.\n *\n * @notice It contains methods to maintain validators for a metablock.\n */\ncontract ValidatorSet is ValidatorSetAbstract {\n\n    /* Usings */\n\n    using SafeMath for uint256;\n\n\n    /* Constants */\n\n    /** Maximum future end height, set for all active validators. */\n    uint256 public constant MAX_FUTURE_END_HEIGHT = uint256(0xffffffffffffffffffffffffffffffffffffffffffffffffffffffffffffffff);\n\n    /** Sentinel pointer for marking start and end of linked-list of validators. */\n    address public constant SENTINEL_VALIDATORS = address(0x1);\n\n\n    /* Storage */\n\n    /** Linked list of validators. */\n    mapping(address => address) public validators;\n\n    /**\n     * Validator begin height assigned to this set:\n     *   - zero: not registered to this set, or started at height 0\n     *           if endHeight > 0.\n     *   - bigger than zero: begin height for active validators.\n     */\n    mapping(address => uint256) public validatorBeginHeight;\n\n    /**\n     * Validator end height assigned to this set:\n     *   - zero: not registered to this set.\n     *   - MAX_FUTURE_END_HEIGHT: for active validators.\n     *   - less than MAX_FUTURE_END_HEIGHT: for logged out validators.\n     */\n    mapping(address => uint256) public validatorEndHeight;\n\n    /**\n     * Validator set count per height.\n     * Recursively the validator count, N, for height, h, can be written as:\n     *     N_h = N_(h-1) + J_h - L_(h-1)\n     * where J_h is the number of validators joining at height h, and\n     * L_(h-1) is the number of validators that logged out at h-1 (equals their end-height).\n     */\n    mapping(uint256 /* metablock height */ => uint256 /* validator count */) private validatorCount;\n\n    /**\n     * Forward validator set (FVS) count per height.\n     * The number of validators in the FVS at a given height, F_h, equals\n     * the number of validators at that height, N_h, minus the validators that have logged out at h:\n     *     F_h = N_h - L_h\n     */\n    mapping(uint256 /* metablock height */ => uint256 /* FVS count */) private fvsCount;\n\n    /**\n     * Active height constrains the insertion and removal of validators\n     * to the active height. Any insertion or removal can increment\n     * the active height with one.\n     * Active height is private to ValidatorSet and intended to run ahead of\n     * the (open) metablock height from Core or Protocore with only a loose coupling.\n     * Active height is introduced to the calculation of the forward validator set count\n     * to a sliding-window calculation.\n     */\n    uint256 private activeHeight;\n\n\n    /* Modifiers */\n\n    modifier onlyActiveHeight(uint256 _height)\n    {\n        require(\n            activeHeight == _height,\n            \"Height must equal active height.\"\n        );\n        _;\n    }\n\n\n    /* Special Functions */\n\n    /**\n     * @notice setupValidatorSet initializes validator set linked-list.\n     */\n    function setupValidatorSet(uint256 _activeHeight)\n        internal\n    {\n        activeHeight = _activeHeight;\n        validators[SENTINEL_VALIDATORS] = SENTINEL_VALIDATORS;\n    }\n\n\n    /* Public Functions */\n\n    /**\n     * @notice Checks if validator is in validator set or not.\n     *\n     * @param _validator Address of validator.\n     * @param _height Metablock height.\n     */\n    function inValidatorSet(address _validator, uint256 _height)\n        public\n        view\n        returns (bool)\n    {\n        return validatorBeginHeight[_validator] <= _height &&\n            validatorEndHeight[_validator] >= _height &&\n            validatorEndHeight[_validator] > 0;\n    }\n\n    /**\n     * @notice Checks if validator is in forward validator set or not.\n     *\n     * @param _validator Address of validator.\n     * @param _height Metablock height.\n     */\n    function inForwardValidatorSet(address _validator, uint256 _height)\n        public\n        view\n        returns (bool)\n    {\n        return validatorBeginHeight[_validator] <= _height &&\n            validatorEndHeight[_validator] > _height &&\n            validatorEndHeight[_validator] > 0;\n    }\n\n    /**\n     * @notice returns the validator set count for heights up to active height, but not included.\n     *\n     * @dev Function requires:\n     *          - height is less than active height\n     *\n     * @param _height Height for which to return the validator set count.\n     */\n    function validatorSetCount(uint256 _height)\n        public\n        view\n        returns (uint256)\n    {\n        require(\n            _height < activeHeight,\n            \"Validator set count is only defined up to active height.\"\n        );\n        return validatorCount[_height];\n    }\n\n    /**\n     * @notice returns the forward validator set count for heights up to active height, but not included.\n     *\n     * @dev Function requires:\n     *          - height is less than active height\n     *\n     * @param _height Height for which to return the forward validator set count.\n     */\n    function forwardValidatorSetCount(uint256 _height)\n        public\n        view\n        returns (uint256)\n    {\n        require(\n            _height < activeHeight,\n            \"Forward validator set count is only defined up to active height.\"\n        );\n        return fvsCount[_height];\n    }\n\n\n    /* Internal Functions  */\n\n    /**\n     * @notice Increments the active height, and height must be explicitly provided.\n     *         IncrementActiveHeight must be called on opening a new height, and\n     *         _nextHeight is the new `openKernelHeight + 1`.\n     *\n     * @param _nextHeight Incremented height equaling active height plus one.\n     */\n    function incrementActiveHeightInternal(uint256 _nextHeight)\n        internal\n    {\n        assert(_nextHeight == activeHeight.add(1));\n\n        // before increasing active height, h -> h+1,\n        // initialize N_(h+2) = N_(h+1)\n        // and F_(h+1) = N_(h+1), for calculating the running counts.\n        validatorCount[_nextHeight.add(1)] = validatorCount[_nextHeight];\n        fvsCount[_nextHeight] = validatorCount[_nextHeight];\n\n        activeHeight = _nextHeight;\n    }\n\n    /**\n     * @notice Inserts validators into the validator set and sets begin height.\n     *\n     * @dev Function asserts :\n     *          - Validator address must not be 0.\n     *          - Validator address is not already present.\n     *          - Validator begin height must be equal to active height or active height plus one.\n     *\n     * @param _validator Validator address.\n     * @param _beginHeight Begin height for the validator.\n     */\n    function insertValidatorInternal(\n        address _validator,\n        uint256 _beginHeight\n    )\n        internal\n        onlyActiveHeight(_beginHeight)\n    {\n        assert(_validator != address(0));\n        assert(validators[_validator] == address(0));\n\n        address lastValidator = validators[SENTINEL_VALIDATORS];\n        assert(lastValidator != address(0));\n        validators[_validator] = lastValidator;\n        validators[SENTINEL_VALIDATORS] = _validator;\n\n        validatorBeginHeight[_validator] = _beginHeight;\n        validatorEndHeight[_validator] = MAX_FUTURE_END_HEIGHT;\n\n        // on inserting a validator at height h\n        //     N_h ++\n        //     N_(h+1) ++\n        //     F_h ++\n        uint256 updatedValidatorCount = validatorCount[activeHeight].add(1);\n        validatorCount[activeHeight] = updatedValidatorCount;\n        validatorCount[activeHeight.add(1)] = updatedValidatorCount;\n        fvsCount[activeHeight] = fvsCount[activeHeight].add(1);\n    }\n\n    /**\n     * @notice Removes validators from the validator set and sets end height.\n     *\n     * @dev Function requires :\n     *          - Validator end height must be greater than begin height.\n     *          - Validator end height must be equal to MAX_FUTURE_END_HEIGHT.\n     *          - Validator end height must be equal to active height or active height plus one.\n     *\n     * @param _validator Validator address.\n     * @param _endHeight End height for the validator.\n     */\n    function removeValidatorInternal(\n        address _validator,\n        uint256 _endHeight\n    )\n        internal\n        onlyActiveHeight(_endHeight)\n    {\n        assert(validatorEndHeight[_validator] == MAX_FUTURE_END_HEIGHT);\n\n        require(\n            validatorBeginHeight[_validator] < _endHeight,\n            \"End height must be strictly greater than the start height.\"\n        );\n\n        validatorEndHeight[_validator] = _endHeight;\n\n        // on removing a validator at height h\n        //     N_(h+1) --\n        //     F_h --\n        uint256 nextHeight = activeHeight.add(1);\n        validatorCount[nextHeight] = validatorCount[nextHeight].sub(1);\n        fvsCount[activeHeight] = fvsCount[activeHeight].sub(1);\n    }\n}\n",
  "sourcePath": "/Users/abhay/Documents/projects/abhayforks/mosaic-1/contracts/validator-set/ValidatorSet.sol",
  "compiler": {
    "name": "solc",
    "version": "0.5.13+commit.5b0b510c.Emscripten.clang"
  },
  "schemaVersion": "3.0.17",
  "updatedAt": "2020-03-21T06:48:34.838Z",
  "devdoc": {
    "methods": {
      "forwardValidatorSetCount(uint256)": {
        "details": "Function requires:         - height is less than active height",
        "params": {
          "_height": "Height for which to return the forward validator set count."
        }
      },
      "inForwardValidatorSet(address,uint256)": {
        "params": {
          "_height": "Metablock height.",
          "_validator": "Address of validator."
        }
      },
      "inValidatorSet(address,uint256)": {
        "params": {
          "_height": "Metablock height.",
          "_validator": "Address of validator."
        }
      },
      "validatorSetCount(uint256)": {
        "details": "Function requires:         - height is less than active height",
        "params": {
          "_height": "Height for which to return the validator set count."
        }
      }
    },
    "title": "ValidatorSet contract."
  },
  "userdoc": {
    "methods": {
      "forwardValidatorSetCount(uint256)": {
        "notice": "returns the forward validator set count for heights up to active height, but not included."
      },
      "inForwardValidatorSet(address,uint256)": {
        "notice": "Checks if validator is in forward validator set or not."
      },
      "inValidatorSet(address,uint256)": {
        "notice": "Checks if validator is in validator set or not."
      },
      "validatorSetCount(uint256)": {
        "notice": "returns the validator set count for heights up to active height, but not included."
      }
    },
    "notice": "It contains methods to maintain validators for a metablock."
  }
}