{
  "contractName": "VoteMessage",
  "abi": [
    {
      "constant": true,
      "inputs": [],
      "name": "VOTE_MESSAGE_TYPEHASH",
      "outputs": [
        {
          "internalType": "bytes32",
          "name": "",
          "type": "bytes32"
        }
      ],
      "payable": false,
      "stateMutability": "view",
      "type": "function"
    }
  ],
  "bytecode": "0x6080604052348015600f57600080fd5b5061011c8061001f6000396000f3fe6080604052348015600f57600080fd5b506004361060285760003560e01c806321c0bc4914602d575b600080fd5b60336045565b60408051918252519081900360200190f35b6040518060876100618239608701905060405180910390208156fe566f74654d6573736167652862797465733332207472616e736974696f6e486173682c6279746573333220736f75726365426c6f636b486173682c6279746573333220746172676574426c6f636b486173682c75696e7432353620736f75726365426c6f636b4e756d6265722c75696e7432353620746172676574426c6f636b4e756d62657229a265627a7a72315820de3949839cad8b9d522a00a849f71032aca035e1eca28211bcdebfb7a0c3f7d664736f6c634300050d0032",
  "source": "pragma solidity >=0.5.0 <0.6.0;\n\n// Copyright 2020 OpenST Ltd.\n//\n// Licensed under the Apache License, Version 2.0 (the \"License\");\n// you may not use this file except in compliance with the License.\n// You may obtain a copy of the License at\n//\n//    http://www.apache.org/licenses/LICENSE-2.0\n//\n// Unless required by applicable law or agreed to in writing, software\n// distributed under the License is distributed on an \"AS IS\" BASIS,\n// WITHOUT WARRANTIES OR CONDITIONS OF ANY KIND, either express or implied.\n// See the License for the specific language governing permissions and\n// limitations under the License.\n\ncontract VoteMessage {\n\n    /* Constants */\n\n    /** EIP-712 type hash for a Vote Message */\n    bytes32 public constant VOTE_MESSAGE_TYPEHASH = keccak256(\n        \"VoteMessage(bytes32 transitionHash,bytes32 sourceBlockHash,bytes32 targetBlockHash,uint256 sourceBlockNumber,uint256 targetBlockNumber)\"\n    );\n\n\n    /* Internal Functions */\n\n    /**\n     * @notice Takes the VoteMessage parameters and returns\n     *        the typed VoteMessage hash.\n     */\n    function hashVoteMessage(\n        bytes32 _domainSeparator,\n        bytes32 _transitionHash,\n        bytes32 _source,\n        bytes32 _target,\n        uint256 _sourceBlockNumber,\n        uint256 _targetBlockNumber\n    )\n        internal\n        pure\n        returns (bytes32 hash_)\n    {\n        bytes32 typedVoteMessageHash = keccak256(\n            abi.encode(\n                VOTE_MESSAGE_TYPEHASH,\n                _transitionHash,\n                _source,\n                _target,\n                _sourceBlockNumber,\n                _targetBlockNumber\n            )\n        );\n\n        hash_ = keccak256(\n            abi.encodePacked(\n                byte(0x19),\n                byte(0x01),\n                _domainSeparator,\n                typedVoteMessageHash\n            )\n        );\n    }\n}\n",
  "sourcePath": "/Users/abhay/Documents/projects/abhayforks/mosaic-1/contracts/vote-message/VoteMessage.sol",
  "compiler": {
    "name": "solc",
    "version": "0.5.13+commit.5b0b510c.Emscripten.clang"
  },
  "schemaVersion": "3.0.17",
  "updatedAt": "2020-03-21T06:48:34.843Z",
  "devdoc": {
    "methods": {}
  },
  "userdoc": {
    "methods": {}
  }
}